{
	"docs.chain.link/samples/VRF/VRFv2DirectFundingConsumer.sol": {
		"VRFv2DirectFundingConsumer": {
			"abi": [
				{
					"inputs": [],
					"stateMutability": "nonpayable",
					"type": "constructor"
				},
				{
					"anonymous": false,
					"inputs": [
						{
							"indexed": true,
							"internalType": "address",
							"name": "from",
							"type": "address"
						},
						{
							"indexed": true,
							"internalType": "address",
							"name": "to",
							"type": "address"
						}
					],
					"name": "OwnershipTransferRequested",
					"type": "event"
				},
				{
					"anonymous": false,
					"inputs": [
						{
							"indexed": true,
							"internalType": "address",
							"name": "from",
							"type": "address"
						},
						{
							"indexed": true,
							"internalType": "address",
							"name": "to",
							"type": "address"
						}
					],
					"name": "OwnershipTransferred",
					"type": "event"
				},
				{
					"anonymous": false,
					"inputs": [
						{
							"indexed": false,
							"internalType": "uint256",
							"name": "requestId",
							"type": "uint256"
						},
						{
							"indexed": false,
							"internalType": "uint256[]",
							"name": "randomWords",
							"type": "uint256[]"
						},
						{
							"indexed": false,
							"internalType": "uint256",
							"name": "payment",
							"type": "uint256"
						}
					],
					"name": "RequestFulfilled",
					"type": "event"
				},
				{
					"anonymous": false,
					"inputs": [
						{
							"indexed": false,
							"internalType": "uint256",
							"name": "requestId",
							"type": "uint256"
						},
						{
							"indexed": false,
							"internalType": "uint32",
							"name": "numWords",
							"type": "uint32"
						}
					],
					"name": "RequestSent",
					"type": "event"
				},
				{
					"inputs": [],
					"name": "acceptOwnership",
					"outputs": [],
					"stateMutability": "nonpayable",
					"type": "function"
				},
				{
					"inputs": [],
					"name": "betResult",
					"outputs": [
						{
							"internalType": "uint256",
							"name": "",
							"type": "uint256"
						}
					],
					"stateMutability": "view",
					"type": "function"
				},
				{
					"inputs": [
						{
							"internalType": "uint256",
							"name": "_requestId",
							"type": "uint256"
						}
					],
					"name": "getRequestStatus",
					"outputs": [
						{
							"internalType": "uint256",
							"name": "paid",
							"type": "uint256"
						},
						{
							"internalType": "bool",
							"name": "fulfilled",
							"type": "bool"
						},
						{
							"internalType": "uint256[]",
							"name": "randomWords",
							"type": "uint256[]"
						}
					],
					"stateMutability": "view",
					"type": "function"
				},
				{
					"inputs": [],
					"name": "lastRequestId",
					"outputs": [
						{
							"internalType": "uint256",
							"name": "",
							"type": "uint256"
						}
					],
					"stateMutability": "view",
					"type": "function"
				},
				{
					"inputs": [],
					"name": "owner",
					"outputs": [
						{
							"internalType": "address",
							"name": "",
							"type": "address"
						}
					],
					"stateMutability": "view",
					"type": "function"
				},
				{
					"inputs": [
						{
							"internalType": "uint256",
							"name": "betNumber",
							"type": "uint256"
						}
					],
					"name": "playGame",
					"outputs": [],
					"stateMutability": "payable",
					"type": "function"
				},
				{
					"inputs": [
						{
							"internalType": "uint256",
							"name": "_requestId",
							"type": "uint256"
						},
						{
							"internalType": "uint256[]",
							"name": "_randomWords",
							"type": "uint256[]"
						}
					],
					"name": "rawFulfillRandomWords",
					"outputs": [],
					"stateMutability": "nonpayable",
					"type": "function"
				},
				{
					"inputs": [
						{
							"internalType": "uint256",
							"name": "",
							"type": "uint256"
						}
					],
					"name": "records",
					"outputs": [
						{
							"internalType": "address payable",
							"name": "playerAddress",
							"type": "address"
						},
						{
							"internalType": "uint256",
							"name": "betNumber",
							"type": "uint256"
						},
						{
							"internalType": "uint256",
							"name": "betAmount",
							"type": "uint256"
						}
					],
					"stateMutability": "view",
					"type": "function"
				},
				{
					"inputs": [
						{
							"internalType": "uint256",
							"name": "",
							"type": "uint256"
						}
					],
					"name": "requestIds",
					"outputs": [
						{
							"internalType": "uint256",
							"name": "",
							"type": "uint256"
						}
					],
					"stateMutability": "view",
					"type": "function"
				},
				{
					"inputs": [
						{
							"internalType": "uint256",
							"name": "",
							"type": "uint256"
						}
					],
					"name": "s_requests",
					"outputs": [
						{
							"internalType": "uint256",
							"name": "paid",
							"type": "uint256"
						},
						{
							"internalType": "bool",
							"name": "fulfilled",
							"type": "bool"
						}
					],
					"stateMutability": "view",
					"type": "function"
				},
				{
					"inputs": [
						{
							"internalType": "address",
							"name": "to",
							"type": "address"
						}
					],
					"name": "transferOwnership",
					"outputs": [],
					"stateMutability": "nonpayable",
					"type": "function"
				},
				{
					"inputs": [],
					"name": "withdrawLink",
					"outputs": [],
					"stateMutability": "nonpayable",
					"type": "function"
				}
			],
			"devdoc": {
				"kind": "dev",
				"methods": {},
				"version": 1
			},
			"evm": {
				"assembly": "    /* \"docs.chain.link/samples/VRF/VRFv2DirectFundingConsumer.sol\":653:4898  contract VRFv2DirectFundingConsumer is VRFV2WrapperConsumerBase, ConfirmedOwner {... */\n  mstore(0x40, 0xc0)\n    /* \"docs.chain.link/samples/VRF/VRFv2DirectFundingConsumer.sol\":1590:1596  100000 */\n  0x0186a0\n    /* \"docs.chain.link/samples/VRF/VRFv2DirectFundingConsumer.sol\":1564:1596  uint32 callbackGasLimit = 100000 */\n  0x05\n  exp(0x0100, 0x00)\n  dup2\n  sload\n  dup2\n  0xffffffff\n  mul\n  not\n  and\n  swap1\n  dup4\n  0xffffffff\n  and\n  mul\n  or\n  swap1\n  sstore\n  pop\n    /* \"docs.chain.link/samples/VRF/VRFv2DirectFundingConsumer.sol\":1687:1688  3 */\n  0x03\n    /* \"docs.chain.link/samples/VRF/VRFv2DirectFundingConsumer.sol\":1657:1688  uint16 requestConfirmations = 3 */\n  0x05\n  exp(0x0100, 0x04)\n  dup2\n  sload\n  dup2\n  0xffff\n  mul\n  not\n  and\n  swap1\n  dup4\n  0xffff\n  and\n  mul\n  or\n  swap1\n  sstore\n  pop\n    /* \"docs.chain.link/samples/VRF/VRFv2DirectFundingConsumer.sol\":1838:1839  2 */\n  0x02\n    /* \"docs.chain.link/samples/VRF/VRFv2DirectFundingConsumer.sol\":1820:1839  uint32 numWords = 2 */\n  0x05\n  exp(0x0100, 0x06)\n  dup2\n  sload\n  dup2\n  0xffffffff\n  mul\n  not\n  and\n  swap1\n  dup4\n  0xffffffff\n  and\n  mul\n  or\n  swap1\n  sstore\n  pop\n    /* \"docs.chain.link/samples/VRF/VRFv2DirectFundingConsumer.sol\":1911:1953  0x8AC089a6fc01a9F831858acae2be7e32C23ae1C0 */\n  0x8ac089a6fc01a9f831858acae2be7e32c23ae1c0\n    /* \"docs.chain.link/samples/VRF/VRFv2DirectFundingConsumer.sol\":1889:1953  address linkAddress = 0x8AC089a6fc01a9F831858acae2be7e32C23ae1C0 */\n  0x05\n  exp(0x0100, 0x0a)\n  dup2\n  sload\n  dup2\n  0xffffffffffffffffffffffffffffffffffffffff\n  mul\n  not\n  and\n  swap1\n  dup4\n  0xffffffffffffffffffffffffffffffffffffffff\n  and\n  mul\n  or\n  swap1\n  sstore\n  pop\n    /* \"docs.chain.link/samples/VRF/VRFv2DirectFundingConsumer.sol\":2031:2073  0x708701a1DfF4f478de54383E49a627eD4852C816 */\n  0x708701a1dff4f478de54383e49a627ed4852c816\n    /* \"docs.chain.link/samples/VRF/VRFv2DirectFundingConsumer.sol\":2006:2073  address wrapperAddress = 0x708701a1DfF4f478de54383E49a627eD4852C816 */\n  0x06\n  exp(0x0100, 0x00)\n  dup2\n  sload\n  dup2\n  0xffffffffffffffffffffffffffffffffffffffff\n  mul\n  not\n  and\n  swap1\n  dup4\n  0xffffffffffffffffffffffffffffffffffffffff\n  and\n  mul\n  or\n  swap1\n  sstore\n  pop\n    /* \"docs.chain.link/samples/VRF/VRFv2DirectFundingConsumer.sol\":2285:2382  constructor() ConfirmedOwner(msg.sender) VRFV2WrapperConsumerBase(linkAddress, wrapperAddress) {} */\n  callvalue\n  dup1\n  iszero\n  tag_1\n  jumpi\n  0x00\n  dup1\n  revert\ntag_1:\n  pop\n    /* \"docs.chain.link/samples/VRF/VRFv2DirectFundingConsumer.sol\":2314:2324  msg.sender */\n  caller\n    /* \"@chainlink/contracts/src/v0.8/ConfirmedOwner.sol\":327:335  newOwner */\n  dup1\n    /* \"@chainlink/contracts/src/v0.8/ConfirmedOwner.sol\":345:346  0 */\n  0x00\n    /* \"docs.chain.link/samples/VRF/VRFv2DirectFundingConsumer.sol\":2351:2362  linkAddress */\n  0x05\n  0x0a\n  swap1\n  sload\n  swap1\n  0x0100\n  exp\n  swap1\n  div\n  0xffffffffffffffffffffffffffffffffffffffff\n  and\n    /* \"docs.chain.link/samples/VRF/VRFv2DirectFundingConsumer.sol\":2364:2378  wrapperAddress */\n  0x06\n  0x00\n  swap1\n  sload\n  swap1\n  0x0100\n  exp\n  swap1\n  div\n  0xffffffffffffffffffffffffffffffffffffffff\n  and\n    /* \"@chainlink/contracts/src/v0.8/VRFV2WrapperConsumerBase.sol\":1938:1943  _link */\n  dup2\n    /* \"@chainlink/contracts/src/v0.8/VRFV2WrapperConsumerBase.sol\":1912:1944  LINK = LinkTokenInterface(_link) */\n  0xffffffffffffffffffffffffffffffffffffffff\n  and\n  0x80\n  dup2\n  0xffffffffffffffffffffffffffffffffffffffff\n  and\n  0x60\n  shl\n  dup2\n  mstore\n  pop\n  pop\n    /* \"@chainlink/contracts/src/v0.8/VRFV2WrapperConsumerBase.sol\":1989:2002  _vrfV2Wrapper */\n  dup1\n    /* \"@chainlink/contracts/src/v0.8/VRFV2WrapperConsumerBase.sol\":1950:2003  VRF_V2_WRAPPER = VRFV2WrapperInterface(_vrfV2Wrapper) */\n  0xffffffffffffffffffffffffffffffffffffffff\n  and\n  0xa0\n  dup2\n  0xffffffffffffffffffffffffffffffffffffffff\n  and\n  0x60\n  shl\n  dup2\n  mstore\n  pop\n  pop\n    /* \"@chainlink/contracts/src/v0.8/VRFV2WrapperConsumerBase.sol\":1856:2008  constructor(address _link, address _vrfV2Wrapper) {... */\n  pop\n  pop\n    /* \"@chainlink/contracts/src/v0.8/ConfirmedOwnerWithProposal.sol\":572:573  0 */\n  0x00\n    /* \"@chainlink/contracts/src/v0.8/ConfirmedOwnerWithProposal.sol\":552:574  newOwner != address(0) */\n  0xffffffffffffffffffffffffffffffffffffffff\n  and\n    /* \"@chainlink/contracts/src/v0.8/ConfirmedOwnerWithProposal.sol\":552:560  newOwner */\n  dup3\n    /* \"@chainlink/contracts/src/v0.8/ConfirmedOwnerWithProposal.sol\":552:574  newOwner != address(0) */\n  0xffffffffffffffffffffffffffffffffffffffff\n  and\n  eq\n  iszero\n    /* \"@chainlink/contracts/src/v0.8/ConfirmedOwnerWithProposal.sol\":544:603  require(newOwner != address(0), \"Cannot set owner to zero\") */\n  tag_8\n  jumpi\n  mload(0x40)\n  0x08c379a000000000000000000000000000000000000000000000000000000000\n  dup2\n  mstore\n  0x04\n  add\n  tag_9\n  swap1\n  tag_10\n  jump\t// in\ntag_9:\n  mload(0x40)\n  dup1\n  swap2\n  sub\n  swap1\n  revert\ntag_8:\n    /* \"@chainlink/contracts/src/v0.8/ConfirmedOwnerWithProposal.sol\":620:628  newOwner */\n  dup2\n    /* \"@chainlink/contracts/src/v0.8/ConfirmedOwnerWithProposal.sol\":610:617  s_owner */\n  0x00\n  dup1\n    /* \"@chainlink/contracts/src/v0.8/ConfirmedOwnerWithProposal.sol\":610:628  s_owner = newOwner */\n  0x0100\n  exp\n  dup2\n  sload\n  dup2\n  0xffffffffffffffffffffffffffffffffffffffff\n  mul\n  not\n  and\n  swap1\n  dup4\n  0xffffffffffffffffffffffffffffffffffffffff\n  and\n  mul\n  or\n  swap1\n  sstore\n  pop\n    /* \"@chainlink/contracts/src/v0.8/ConfirmedOwnerWithProposal.sol\":662:663  0 */\n  0x00\n    /* \"@chainlink/contracts/src/v0.8/ConfirmedOwnerWithProposal.sol\":638:664  pendingOwner != address(0) */\n  0xffffffffffffffffffffffffffffffffffffffff\n  and\n    /* \"@chainlink/contracts/src/v0.8/ConfirmedOwnerWithProposal.sol\":638:650  pendingOwner */\n  dup2\n    /* \"@chainlink/contracts/src/v0.8/ConfirmedOwnerWithProposal.sol\":638:664  pendingOwner != address(0) */\n  0xffffffffffffffffffffffffffffffffffffffff\n  and\n  eq\n    /* \"@chainlink/contracts/src/v0.8/ConfirmedOwnerWithProposal.sol\":634:713  if (pendingOwner != address(0)) {... */\n  tag_11\n  jumpi\n    /* \"@chainlink/contracts/src/v0.8/ConfirmedOwnerWithProposal.sol\":674:706  _transferOwnership(pendingOwner) */\n  tag_12\n    /* \"@chainlink/contracts/src/v0.8/ConfirmedOwnerWithProposal.sol\":693:705  pendingOwner */\n  dup2\n    /* \"@chainlink/contracts/src/v0.8/ConfirmedOwnerWithProposal.sol\":674:692  _transferOwnership */\n  shl(0x20, tag_13)\n    /* \"@chainlink/contracts/src/v0.8/ConfirmedOwnerWithProposal.sol\":674:706  _transferOwnership(pendingOwner) */\n  0x20\n  shr\n  jump\t// in\ntag_12:\n    /* \"@chainlink/contracts/src/v0.8/ConfirmedOwnerWithProposal.sol\":634:713  if (pendingOwner != address(0)) {... */\ntag_11:\n    /* \"@chainlink/contracts/src/v0.8/ConfirmedOwnerWithProposal.sol\":486:717  constructor(address newOwner, address pendingOwner) {... */\n  pop\n  pop\n    /* \"@chainlink/contracts/src/v0.8/ConfirmedOwner.sol\":270:351  constructor(address newOwner) ConfirmedOwnerWithProposal(newOwner, address(0)) {} */\n  pop\n    /* \"docs.chain.link/samples/VRF/VRFv2DirectFundingConsumer.sol\":653:4898  contract VRFv2DirectFundingConsumer is VRFV2WrapperConsumerBase, ConfirmedOwner {... */\n  jump(tag_16)\n    /* \"@chainlink/contracts/src/v0.8/ConfirmedOwnerWithProposal.sol\":1497:1685  function _transferOwnership(address to) private {... */\ntag_13:\n    /* \"@chainlink/contracts/src/v0.8/ConfirmedOwnerWithProposal.sol\":1565:1575  msg.sender */\n  caller\n    /* \"@chainlink/contracts/src/v0.8/ConfirmedOwnerWithProposal.sol\":1559:1575  to != msg.sender */\n  0xffffffffffffffffffffffffffffffffffffffff\n  and\n    /* \"@chainlink/contracts/src/v0.8/ConfirmedOwnerWithProposal.sol\":1559:1561  to */\n  dup2\n    /* \"@chainlink/contracts/src/v0.8/ConfirmedOwnerWithProposal.sol\":1559:1575  to != msg.sender */\n  0xffffffffffffffffffffffffffffffffffffffff\n  and\n  eq\n  iszero\n    /* \"@chainlink/contracts/src/v0.8/ConfirmedOwnerWithProposal.sol\":1551:1603  require(to != msg.sender, \"Cannot transfer to self\") */\n  tag_18\n  jumpi\n  mload(0x40)\n  0x08c379a000000000000000000000000000000000000000000000000000000000\n  dup2\n  mstore\n  0x04\n  add\n  tag_19\n  swap1\n  tag_20\n  jump\t// in\ntag_19:\n  mload(0x40)\n  dup1\n  swap2\n  sub\n  swap1\n  revert\ntag_18:\n    /* \"@chainlink/contracts/src/v0.8/ConfirmedOwnerWithProposal.sol\":1627:1629  to */\n  dup1\n    /* \"@chainlink/contracts/src/v0.8/ConfirmedOwnerWithProposal.sol\":1610:1624  s_pendingOwner */\n  0x01\n  0x00\n    /* \"@chainlink/contracts/src/v0.8/ConfirmedOwnerWithProposal.sol\":1610:1629  s_pendingOwner = to */\n  0x0100\n  exp\n  dup2\n  sload\n  dup2\n  0xffffffffffffffffffffffffffffffffffffffff\n  mul\n  not\n  and\n  swap1\n  dup4\n  0xffffffffffffffffffffffffffffffffffffffff\n  and\n  mul\n  or\n  swap1\n  sstore\n  pop\n    /* \"@chainlink/contracts/src/v0.8/ConfirmedOwnerWithProposal.sol\":1677:1679  to */\n  dup1\n    /* \"@chainlink/contracts/src/v0.8/ConfirmedOwnerWithProposal.sol\":1641:1680  OwnershipTransferRequested(s_owner, to) */\n  0xffffffffffffffffffffffffffffffffffffffff\n  and\n    /* \"@chainlink/contracts/src/v0.8/ConfirmedOwnerWithProposal.sol\":1668:1675  s_owner */\n  0x00\n  dup1\n  sload\n  swap1\n  0x0100\n  exp\n  swap1\n  div\n  0xffffffffffffffffffffffffffffffffffffffff\n  and\n    /* \"@chainlink/contracts/src/v0.8/ConfirmedOwnerWithProposal.sol\":1641:1680  OwnershipTransferRequested(s_owner, to) */\n  0xffffffffffffffffffffffffffffffffffffffff\n  and\n  0xed8889f560326eb138920d842192f0eb3dd22b4f139c87a2c57538e05bae1278\n  mload(0x40)\n  mload(0x40)\n  dup1\n  swap2\n  sub\n  swap1\n  log3\n    /* \"@chainlink/contracts/src/v0.8/ConfirmedOwnerWithProposal.sol\":1497:1685  function _transferOwnership(address to) private {... */\n  pop\n  jump\t// out\n    /* \"#utility.yul\":7:373   */\ntag_22:\n    /* \"#utility.yul\":149:152   */\n  0x00\n    /* \"#utility.yul\":170:237   */\n  tag_24\n    /* \"#utility.yul\":234:236   */\n  0x18\n    /* \"#utility.yul\":229:232   */\n  dup4\n    /* \"#utility.yul\":170:237   */\n  tag_25\n  jump\t// in\ntag_24:\n    /* \"#utility.yul\":163:237   */\n  swap2\n  pop\n    /* \"#utility.yul\":246:339   */\n  tag_26\n    /* \"#utility.yul\":335:338   */\n  dup3\n    /* \"#utility.yul\":246:339   */\n  tag_27\n  jump\t// in\ntag_26:\n    /* \"#utility.yul\":364:366   */\n  0x20\n    /* \"#utility.yul\":359:362   */\n  dup3\n    /* \"#utility.yul\":355:367   */\n  add\n    /* \"#utility.yul\":348:367   */\n  swap1\n  pop\n    /* \"#utility.yul\":7:373   */\n  swap2\n  swap1\n  pop\n  jump\t// out\n    /* \"#utility.yul\":379:745   */\ntag_28:\n    /* \"#utility.yul\":521:524   */\n  0x00\n    /* \"#utility.yul\":542:609   */\n  tag_30\n    /* \"#utility.yul\":606:608   */\n  0x17\n    /* \"#utility.yul\":601:604   */\n  dup4\n    /* \"#utility.yul\":542:609   */\n  tag_25\n  jump\t// in\ntag_30:\n    /* \"#utility.yul\":535:609   */\n  swap2\n  pop\n    /* \"#utility.yul\":618:711   */\n  tag_31\n    /* \"#utility.yul\":707:710   */\n  dup3\n    /* \"#utility.yul\":618:711   */\n  tag_32\n  jump\t// in\ntag_31:\n    /* \"#utility.yul\":736:738   */\n  0x20\n    /* \"#utility.yul\":731:734   */\n  dup3\n    /* \"#utility.yul\":727:739   */\n  add\n    /* \"#utility.yul\":720:739   */\n  swap1\n  pop\n    /* \"#utility.yul\":379:745   */\n  swap2\n  swap1\n  pop\n  jump\t// out\n    /* \"#utility.yul\":751:1170   */\ntag_10:\n    /* \"#utility.yul\":917:921   */\n  0x00\n    /* \"#utility.yul\":955:957   */\n  0x20\n    /* \"#utility.yul\":944:953   */\n  dup3\n    /* \"#utility.yul\":940:958   */\n  add\n    /* \"#utility.yul\":932:958   */\n  swap1\n  pop\n    /* \"#utility.yul\":1004:1013   */\n  dup2\n    /* \"#utility.yul\":998:1002   */\n  dup2\n    /* \"#utility.yul\":994:1014   */\n  sub\n    /* \"#utility.yul\":990:991   */\n  0x00\n    /* \"#utility.yul\":979:988   */\n  dup4\n    /* \"#utility.yul\":975:992   */\n  add\n    /* \"#utility.yul\":968:1015   */\n  mstore\n    /* \"#utility.yul\":1032:1163   */\n  tag_34\n    /* \"#utility.yul\":1158:1162   */\n  dup2\n    /* \"#utility.yul\":1032:1163   */\n  tag_22\n  jump\t// in\ntag_34:\n    /* \"#utility.yul\":1024:1163   */\n  swap1\n  pop\n    /* \"#utility.yul\":751:1170   */\n  swap2\n  swap1\n  pop\n  jump\t// out\n    /* \"#utility.yul\":1176:1595   */\ntag_20:\n    /* \"#utility.yul\":1342:1346   */\n  0x00\n    /* \"#utility.yul\":1380:1382   */\n  0x20\n    /* \"#utility.yul\":1369:1378   */\n  dup3\n    /* \"#utility.yul\":1365:1383   */\n  add\n    /* \"#utility.yul\":1357:1383   */\n  swap1\n  pop\n    /* \"#utility.yul\":1429:1438   */\n  dup2\n    /* \"#utility.yul\":1423:1427   */\n  dup2\n    /* \"#utility.yul\":1419:1439   */\n  sub\n    /* \"#utility.yul\":1415:1416   */\n  0x00\n    /* \"#utility.yul\":1404:1413   */\n  dup4\n    /* \"#utility.yul\":1400:1417   */\n  add\n    /* \"#utility.yul\":1393:1440   */\n  mstore\n    /* \"#utility.yul\":1457:1588   */\n  tag_36\n    /* \"#utility.yul\":1583:1587   */\n  dup2\n    /* \"#utility.yul\":1457:1588   */\n  tag_28\n  jump\t// in\ntag_36:\n    /* \"#utility.yul\":1449:1588   */\n  swap1\n  pop\n    /* \"#utility.yul\":1176:1595   */\n  swap2\n  swap1\n  pop\n  jump\t// out\n    /* \"#utility.yul\":1601:1770   */\ntag_25:\n    /* \"#utility.yul\":1685:1696   */\n  0x00\n    /* \"#utility.yul\":1719:1725   */\n  dup3\n    /* \"#utility.yul\":1714:1717   */\n  dup3\n    /* \"#utility.yul\":1707:1726   */\n  mstore\n    /* \"#utility.yul\":1759:1763   */\n  0x20\n    /* \"#utility.yul\":1754:1757   */\n  dup3\n    /* \"#utility.yul\":1750:1764   */\n  add\n    /* \"#utility.yul\":1735:1764   */\n  swap1\n  pop\n    /* \"#utility.yul\":1601:1770   */\n  swap3\n  swap2\n  pop\n  pop\n  jump\t// out\n    /* \"#utility.yul\":1776:1950   */\ntag_27:\n    /* \"#utility.yul\":1916:1942   */\n  0x43616e6e6f7420736574206f776e657220746f207a65726f0000000000000000\n    /* \"#utility.yul\":1912:1913   */\n  0x00\n    /* \"#utility.yul\":1904:1910   */\n  dup3\n    /* \"#utility.yul\":1900:1914   */\n  add\n    /* \"#utility.yul\":1893:1943   */\n  mstore\n    /* \"#utility.yul\":1776:1950   */\n  pop\n  jump\t// out\n    /* \"#utility.yul\":1956:2129   */\ntag_32:\n    /* \"#utility.yul\":2096:2121   */\n  0x43616e6e6f74207472616e7366657220746f2073656c66000000000000000000\n    /* \"#utility.yul\":2092:2093   */\n  0x00\n    /* \"#utility.yul\":2084:2090   */\n  dup3\n    /* \"#utility.yul\":2080:2094   */\n  add\n    /* \"#utility.yul\":2073:2122   */\n  mstore\n    /* \"#utility.yul\":1956:2129   */\n  pop\n  jump\t// out\n    /* \"docs.chain.link/samples/VRF/VRFv2DirectFundingConsumer.sol\":653:4898  contract VRFv2DirectFundingConsumer is VRFV2WrapperConsumerBase, ConfirmedOwner {... */\ntag_16:\n  shr(0x60, mload(0x80))\n  shr(0x60, mload(0xa0))\n  codecopy(0x00, dataOffset(sub_0), dataSize(sub_0))\n  0x00\n  assignImmutable(\"0xa75e2cf51d42f4164e4624f425e61448777a748393b6f6a5bcb1d94d1e8e5e98\")\n  0x00\n  assignImmutable(\"0x266b1640ade99b2f22d24bd1f0c6c2736890e0398a5a0b97b63a35856ae65c2b\")\n  return(0x00, dataSize(sub_0))\nstop\n\nsub_0: assembly {\n        /* \"docs.chain.link/samples/VRF/VRFv2DirectFundingConsumer.sol\":653:4898  contract VRFv2DirectFundingConsumer is VRFV2WrapperConsumerBase, ConfirmedOwner {... */\n      mstore(0x40, 0x80)\n      jumpi(tag_1, lt(calldatasize, 0x04))\n      shr(0xe0, calldataload(0x00))\n      dup1\n      0x8dc654a2\n      gt\n      tag_14\n      jumpi\n      dup1\n      0x8dc654a2\n      eq\n      tag_8\n      jumpi\n      dup1\n      0xa168fa89\n      eq\n      tag_9\n      jumpi\n      dup1\n      0xbfb3047f\n      eq\n      tag_10\n      jumpi\n      dup1\n      0xd8a4676f\n      eq\n      tag_11\n      jumpi\n      dup1\n      0xf2fde38b\n      eq\n      tag_12\n      jumpi\n      dup1\n      0xfc2a88c3\n      eq\n      tag_13\n      jumpi\n      jump(tag_1)\n    tag_14:\n      dup1\n      0x1fe543e3\n      eq\n      tag_2\n      jumpi\n      dup1\n      0x34461067\n      eq\n      tag_3\n      jumpi\n      dup1\n      0x5873533d\n      eq\n      tag_4\n      jumpi\n      dup1\n      0x79ba5097\n      eq\n      tag_5\n      jumpi\n      dup1\n      0x8796ba8c\n      eq\n      tag_6\n      jumpi\n      dup1\n      0x8da5cb5b\n      eq\n      tag_7\n      jumpi\n    tag_1:\n      0x00\n      dup1\n      revert\n        /* \"@chainlink/contracts/src/v0.8/VRFV2WrapperConsumerBase.sol\":3389:3622  function rawFulfillRandomWords(uint256 _requestId, uint256[] memory _randomWords) external {... */\n    tag_2:\n      callvalue\n      dup1\n      iszero\n      tag_15\n      jumpi\n      0x00\n      dup1\n      revert\n    tag_15:\n      pop\n      tag_16\n      0x04\n      dup1\n      calldatasize\n      sub\n      dup2\n      add\n      swap1\n      tag_17\n      swap2\n      swap1\n      tag_18\n      jump\t// in\n    tag_17:\n      tag_19\n      jump\t// in\n    tag_16:\n      stop\n        /* \"docs.chain.link/samples/VRF/VRFv2DirectFundingConsumer.sol\":2200:2242  mapping (uint256 => Player) public records */\n    tag_3:\n      callvalue\n      dup1\n      iszero\n      tag_20\n      jumpi\n      0x00\n      dup1\n      revert\n    tag_20:\n      pop\n      tag_21\n      0x04\n      dup1\n      calldatasize\n      sub\n      dup2\n      add\n      swap1\n      tag_22\n      swap2\n      swap1\n      tag_23\n      jump\t// in\n    tag_22:\n      tag_24\n      jump\t// in\n    tag_21:\n      mload(0x40)\n      tag_25\n      swap4\n      swap3\n      swap2\n      swap1\n      tag_26\n      jump\t// in\n    tag_25:\n      mload(0x40)\n      dup1\n      swap2\n      sub\n      swap1\n      return\n        /* \"docs.chain.link/samples/VRF/VRFv2DirectFundingConsumer.sol\":2917:3252  function playGame(uint256 betNumber)  payable public {... */\n    tag_4:\n      tag_27\n      0x04\n      dup1\n      calldatasize\n      sub\n      dup2\n      add\n      swap1\n      tag_28\n      swap2\n      swap1\n      tag_23\n      jump\t// in\n    tag_28:\n      tag_29\n      jump\t// in\n    tag_27:\n      stop\n        /* \"@chainlink/contracts/src/v0.8/ConfirmedOwnerWithProposal.sol\":1016:1281  function acceptOwnership() external override {... */\n    tag_5:\n      callvalue\n      dup1\n      iszero\n      tag_30\n      jumpi\n      0x00\n      dup1\n      revert\n    tag_30:\n      pop\n      tag_31\n      tag_32\n      jump\t// in\n    tag_31:\n      stop\n        /* \"docs.chain.link/samples/VRF/VRFv2DirectFundingConsumer.sol\":1191:1218  uint256[] public requestIds */\n    tag_6:\n      callvalue\n      dup1\n      iszero\n      tag_33\n      jumpi\n      0x00\n      dup1\n      revert\n    tag_33:\n      pop\n      tag_34\n      0x04\n      dup1\n      calldatasize\n      sub\n      dup2\n      add\n      swap1\n      tag_35\n      swap2\n      swap1\n      tag_23\n      jump\t// in\n    tag_35:\n      tag_36\n      jump\t// in\n    tag_34:\n      mload(0x40)\n      tag_37\n      swap2\n      swap1\n      tag_38\n      jump\t// in\n    tag_37:\n      mload(0x40)\n      dup1\n      swap2\n      sub\n      swap1\n      return\n        /* \"@chainlink/contracts/src/v0.8/ConfirmedOwnerWithProposal.sol\":1332:1413  function owner() public view override returns (address) {... */\n    tag_7:\n      callvalue\n      dup1\n      iszero\n      tag_39\n      jumpi\n      0x00\n      dup1\n      revert\n    tag_39:\n      pop\n      tag_40\n      tag_41\n      jump\t// in\n    tag_40:\n      mload(0x40)\n      tag_42\n      swap2\n      swap1\n      tag_43\n      jump\t// in\n    tag_42:\n      mload(0x40)\n      dup1\n      swap2\n      sub\n      swap1\n      return\n        /* \"docs.chain.link/samples/VRF/VRFv2DirectFundingConsumer.sol\":4684:4896  function withdrawLink() public onlyOwner {... */\n    tag_8:\n      callvalue\n      dup1\n      iszero\n      tag_44\n      jumpi\n      0x00\n      dup1\n      revert\n    tag_44:\n      pop\n      tag_45\n      tag_46\n      jump\t// in\n    tag_45:\n      stop\n        /* \"docs.chain.link/samples/VRF/VRFv2DirectFundingConsumer.sol\":1074:1125  mapping(uint256 => RequestStatus) public s_requests */\n    tag_9:\n      callvalue\n      dup1\n      iszero\n      tag_47\n      jumpi\n      0x00\n      dup1\n      revert\n    tag_47:\n      pop\n      tag_48\n      0x04\n      dup1\n      calldatasize\n      sub\n      dup2\n      add\n      swap1\n      tag_49\n      swap2\n      swap1\n      tag_23\n      jump\t// in\n    tag_49:\n      tag_50\n      jump\t// in\n    tag_48:\n      mload(0x40)\n      tag_51\n      swap3\n      swap2\n      swap1\n      tag_52\n      jump\t// in\n    tag_51:\n      mload(0x40)\n      dup1\n      swap2\n      sub\n      swap1\n      return\n        /* \"docs.chain.link/samples/VRF/VRFv2DirectFundingConsumer.sol\":2249:2273  uint256 public betResult */\n    tag_10:\n      callvalue\n      dup1\n      iszero\n      tag_53\n      jumpi\n      0x00\n      dup1\n      revert\n    tag_53:\n      pop\n      tag_54\n      tag_55\n      jump\t// in\n    tag_54:\n      mload(0x40)\n      tag_56\n      swap2\n      swap1\n      tag_38\n      jump\t// in\n    tag_56:\n      mload(0x40)\n      dup1\n      swap2\n      sub\n      swap1\n      return\n        /* \"docs.chain.link/samples/VRF/VRFv2DirectFundingConsumer.sol\":4179:4607  function getRequestStatus(uint256 _requestId)... */\n    tag_11:\n      callvalue\n      dup1\n      iszero\n      tag_57\n      jumpi\n      0x00\n      dup1\n      revert\n    tag_57:\n      pop\n      tag_58\n      0x04\n      dup1\n      calldatasize\n      sub\n      dup2\n      add\n      swap1\n      tag_59\n      swap2\n      swap1\n      tag_23\n      jump\t// in\n    tag_59:\n      tag_60\n      jump\t// in\n    tag_58:\n      mload(0x40)\n      tag_61\n      swap4\n      swap3\n      swap2\n      swap1\n      tag_62\n      jump\t// in\n    tag_61:\n      mload(0x40)\n      dup1\n      swap2\n      sub\n      swap1\n      return\n        /* \"@chainlink/contracts/src/v0.8/ConfirmedOwnerWithProposal.sol\":826:924  function transferOwnership(address to) public override onlyOwner {... */\n    tag_12:\n      callvalue\n      dup1\n      iszero\n      tag_63\n      jumpi\n      0x00\n      dup1\n      revert\n    tag_63:\n      pop\n      tag_64\n      0x04\n      dup1\n      calldatasize\n      sub\n      dup2\n      add\n      swap1\n      tag_65\n      swap2\n      swap1\n      tag_66\n      jump\t// in\n    tag_65:\n      tag_67\n      jump\t// in\n    tag_64:\n      stop\n        /* \"docs.chain.link/samples/VRF/VRFv2DirectFundingConsumer.sol\":1224:1252  uint256 public lastRequestId */\n    tag_13:\n      callvalue\n      dup1\n      iszero\n      tag_68\n      jumpi\n      0x00\n      dup1\n      revert\n    tag_68:\n      pop\n      tag_69\n      tag_70\n      jump\t// in\n    tag_69:\n      mload(0x40)\n      tag_71\n      swap2\n      swap1\n      tag_38\n      jump\t// in\n    tag_71:\n      mload(0x40)\n      dup1\n      swap2\n      sub\n      swap1\n      return\n        /* \"@chainlink/contracts/src/v0.8/VRFV2WrapperConsumerBase.sol\":3389:3622  function rawFulfillRandomWords(uint256 _requestId, uint256[] memory _randomWords) external {... */\n    tag_19:\n        /* \"@chainlink/contracts/src/v0.8/VRFV2WrapperConsumerBase.sol\":3516:3530  VRF_V2_WRAPPER */\n      immutable(\"0xa75e2cf51d42f4164e4624f425e61448777a748393b6f6a5bcb1d94d1e8e5e98\")\n        /* \"@chainlink/contracts/src/v0.8/VRFV2WrapperConsumerBase.sol\":3494:3531  msg.sender == address(VRF_V2_WRAPPER) */\n      0xffffffffffffffffffffffffffffffffffffffff\n      and\n        /* \"@chainlink/contracts/src/v0.8/VRFV2WrapperConsumerBase.sol\":3494:3504  msg.sender */\n      caller\n        /* \"@chainlink/contracts/src/v0.8/VRFV2WrapperConsumerBase.sol\":3494:3531  msg.sender == address(VRF_V2_WRAPPER) */\n      0xffffffffffffffffffffffffffffffffffffffff\n      and\n      eq\n        /* \"@chainlink/contracts/src/v0.8/VRFV2WrapperConsumerBase.sol\":3486:3567  require(msg.sender == address(VRF_V2_WRAPPER), \"only VRF V2 wrapper can fulfill\") */\n      tag_73\n      jumpi\n      mload(0x40)\n      0x08c379a000000000000000000000000000000000000000000000000000000000\n      dup2\n      mstore\n      0x04\n      add\n      tag_74\n      swap1\n      tag_75\n      jump\t// in\n    tag_74:\n      mload(0x40)\n      dup1\n      swap2\n      sub\n      swap1\n      revert\n    tag_73:\n        /* \"@chainlink/contracts/src/v0.8/VRFV2WrapperConsumerBase.sol\":3573:3617  fulfillRandomWords(_requestId, _randomWords) */\n      tag_76\n        /* \"@chainlink/contracts/src/v0.8/VRFV2WrapperConsumerBase.sol\":3592:3602  _requestId */\n      dup3\n        /* \"@chainlink/contracts/src/v0.8/VRFV2WrapperConsumerBase.sol\":3604:3616  _randomWords */\n      dup3\n        /* \"@chainlink/contracts/src/v0.8/VRFV2WrapperConsumerBase.sol\":3573:3591  fulfillRandomWords */\n      tag_77\n        /* \"@chainlink/contracts/src/v0.8/VRFV2WrapperConsumerBase.sol\":3573:3617  fulfillRandomWords(_requestId, _randomWords) */\n      jump\t// in\n    tag_76:\n        /* \"@chainlink/contracts/src/v0.8/VRFV2WrapperConsumerBase.sol\":3389:3622  function rawFulfillRandomWords(uint256 _requestId, uint256[] memory _randomWords) external {... */\n      pop\n      pop\n      jump\t// out\n        /* \"docs.chain.link/samples/VRF/VRFv2DirectFundingConsumer.sol\":2200:2242  mapping (uint256 => Player) public records */\n    tag_24:\n      mstore(0x20, 0x07)\n      dup1\n      0x00\n      mstore\n      keccak256(0x00, 0x40)\n      0x00\n      swap2\n      pop\n      swap1\n      pop\n      dup1\n      0x00\n      add\n      0x00\n      swap1\n      sload\n      swap1\n      0x0100\n      exp\n      swap1\n      div\n      0xffffffffffffffffffffffffffffffffffffffff\n      and\n      swap1\n      dup1\n      0x01\n      add\n      sload\n      swap1\n      dup1\n      0x02\n      add\n      sload\n      swap1\n      pop\n      dup4\n      jump\t// out\n        /* \"docs.chain.link/samples/VRF/VRFv2DirectFundingConsumer.sol\":2917:3252  function playGame(uint256 betNumber)  payable public {... */\n    tag_29:\n        /* \"docs.chain.link/samples/VRF/VRFv2DirectFundingConsumer.sol\":2980:3017  address payable cuurrentPlayerAddress */\n      0x00\n        /* \"docs.chain.link/samples/VRF/VRFv2DirectFundingConsumer.sol\":3029:3039  msg.sender */\n      caller\n        /* \"docs.chain.link/samples/VRF/VRFv2DirectFundingConsumer.sol\":2980:3040  address payable cuurrentPlayerAddress = payable (msg.sender) */\n      swap1\n      pop\n        /* \"docs.chain.link/samples/VRF/VRFv2DirectFundingConsumer.sol\":3050:3075  uint256 current_requestId */\n      0x00\n        /* \"docs.chain.link/samples/VRF/VRFv2DirectFundingConsumer.sol\":3078:3098  requestRandomWords() */\n      tag_79\n        /* \"docs.chain.link/samples/VRF/VRFv2DirectFundingConsumer.sol\":3078:3096  requestRandomWords */\n      tag_80\n        /* \"docs.chain.link/samples/VRF/VRFv2DirectFundingConsumer.sol\":3078:3098  requestRandomWords() */\n      jump\t// in\n    tag_79:\n        /* \"docs.chain.link/samples/VRF/VRFv2DirectFundingConsumer.sol\":3050:3098  uint256 current_requestId = requestRandomWords() */\n      swap1\n      pop\n        /* \"docs.chain.link/samples/VRF/VRFv2DirectFundingConsumer.sol\":3108:3136  Player memory current_player */\n      0x00\n        /* \"docs.chain.link/samples/VRF/VRFv2DirectFundingConsumer.sol\":3139:3190  Player(cuurrentPlayerAddress, betNumber, msg.value) */\n      mload(0x40)\n      dup1\n      0x60\n      add\n      0x40\n      mstore\n      dup1\n        /* \"docs.chain.link/samples/VRF/VRFv2DirectFundingConsumer.sol\":3146:3167  cuurrentPlayerAddress */\n      dup5\n        /* \"docs.chain.link/samples/VRF/VRFv2DirectFundingConsumer.sol\":3139:3190  Player(cuurrentPlayerAddress, betNumber, msg.value) */\n      0xffffffffffffffffffffffffffffffffffffffff\n      and\n      dup2\n      mstore\n      0x20\n      add\n        /* \"docs.chain.link/samples/VRF/VRFv2DirectFundingConsumer.sol\":3169:3178  betNumber */\n      dup6\n        /* \"docs.chain.link/samples/VRF/VRFv2DirectFundingConsumer.sol\":3139:3190  Player(cuurrentPlayerAddress, betNumber, msg.value) */\n      dup2\n      mstore\n      0x20\n      add\n        /* \"docs.chain.link/samples/VRF/VRFv2DirectFundingConsumer.sol\":3180:3189  msg.value */\n      callvalue\n        /* \"docs.chain.link/samples/VRF/VRFv2DirectFundingConsumer.sol\":3139:3190  Player(cuurrentPlayerAddress, betNumber, msg.value) */\n      dup2\n      mstore\n      pop\n        /* \"docs.chain.link/samples/VRF/VRFv2DirectFundingConsumer.sol\":3108:3190  Player memory current_player = Player(cuurrentPlayerAddress, betNumber, msg.value) */\n      swap1\n      pop\n        /* \"docs.chain.link/samples/VRF/VRFv2DirectFundingConsumer.sol\":3229:3243  current_player */\n      dup1\n        /* \"docs.chain.link/samples/VRF/VRFv2DirectFundingConsumer.sol\":3200:3207  records */\n      0x07\n        /* \"docs.chain.link/samples/VRF/VRFv2DirectFundingConsumer.sol\":3200:3226  records[current_requestId] */\n      0x00\n        /* \"docs.chain.link/samples/VRF/VRFv2DirectFundingConsumer.sol\":3208:3225  current_requestId */\n      dup5\n        /* \"docs.chain.link/samples/VRF/VRFv2DirectFundingConsumer.sol\":3200:3226  records[current_requestId] */\n      dup2\n      mstore\n      0x20\n      add\n      swap1\n      dup2\n      mstore\n      0x20\n      add\n      0x00\n      keccak256\n        /* \"docs.chain.link/samples/VRF/VRFv2DirectFundingConsumer.sol\":3200:3243  records[current_requestId] = current_player */\n      0x00\n      dup3\n      add\n      mload\n      dup2\n      0x00\n      add\n      exp(0x0100, 0x00)\n      dup2\n      sload\n      dup2\n      0xffffffffffffffffffffffffffffffffffffffff\n      mul\n      not\n      and\n      swap1\n      dup4\n      0xffffffffffffffffffffffffffffffffffffffff\n      and\n      mul\n      or\n      swap1\n      sstore\n      pop\n      0x20\n      dup3\n      add\n      mload\n      dup2\n      0x01\n      add\n      sstore\n      0x40\n      dup3\n      add\n      mload\n      dup2\n      0x02\n      add\n      sstore\n      swap1\n      pop\n      pop\n        /* \"docs.chain.link/samples/VRF/VRFv2DirectFundingConsumer.sol\":2970:3252  {... */\n      pop\n      pop\n      pop\n        /* \"docs.chain.link/samples/VRF/VRFv2DirectFundingConsumer.sol\":2917:3252  function playGame(uint256 betNumber)  payable public {... */\n      pop\n      jump\t// out\n        /* \"@chainlink/contracts/src/v0.8/ConfirmedOwnerWithProposal.sol\":1016:1281  function acceptOwnership() external override {... */\n    tag_32:\n        /* \"@chainlink/contracts/src/v0.8/ConfirmedOwnerWithProposal.sol\":1089:1103  s_pendingOwner */\n      0x01\n      0x00\n      swap1\n      sload\n      swap1\n      0x0100\n      exp\n      swap1\n      div\n      0xffffffffffffffffffffffffffffffffffffffff\n      and\n        /* \"@chainlink/contracts/src/v0.8/ConfirmedOwnerWithProposal.sol\":1075:1103  msg.sender == s_pendingOwner */\n      0xffffffffffffffffffffffffffffffffffffffff\n      and\n        /* \"@chainlink/contracts/src/v0.8/ConfirmedOwnerWithProposal.sol\":1075:1085  msg.sender */\n      caller\n        /* \"@chainlink/contracts/src/v0.8/ConfirmedOwnerWithProposal.sol\":1075:1103  msg.sender == s_pendingOwner */\n      0xffffffffffffffffffffffffffffffffffffffff\n      and\n      eq\n        /* \"@chainlink/contracts/src/v0.8/ConfirmedOwnerWithProposal.sol\":1067:1130  require(msg.sender == s_pendingOwner, \"Must be proposed owner\") */\n      tag_82\n      jumpi\n      mload(0x40)\n      0x08c379a000000000000000000000000000000000000000000000000000000000\n      dup2\n      mstore\n      0x04\n      add\n      tag_83\n      swap1\n      tag_84\n      jump\t// in\n    tag_83:\n      mload(0x40)\n      dup1\n      swap2\n      sub\n      swap1\n      revert\n    tag_82:\n        /* \"@chainlink/contracts/src/v0.8/ConfirmedOwnerWithProposal.sol\":1137:1153  address oldOwner */\n      0x00\n        /* \"@chainlink/contracts/src/v0.8/ConfirmedOwnerWithProposal.sol\":1156:1163  s_owner */\n      dup1\n      0x00\n      swap1\n      sload\n      swap1\n      0x0100\n      exp\n      swap1\n      div\n      0xffffffffffffffffffffffffffffffffffffffff\n      and\n        /* \"@chainlink/contracts/src/v0.8/ConfirmedOwnerWithProposal.sol\":1137:1163  address oldOwner = s_owner */\n      swap1\n      pop\n        /* \"@chainlink/contracts/src/v0.8/ConfirmedOwnerWithProposal.sol\":1179:1189  msg.sender */\n      caller\n        /* \"@chainlink/contracts/src/v0.8/ConfirmedOwnerWithProposal.sol\":1169:1176  s_owner */\n      0x00\n      dup1\n        /* \"@chainlink/contracts/src/v0.8/ConfirmedOwnerWithProposal.sol\":1169:1189  s_owner = msg.sender */\n      0x0100\n      exp\n      dup2\n      sload\n      dup2\n      0xffffffffffffffffffffffffffffffffffffffff\n      mul\n      not\n      and\n      swap1\n      dup4\n      0xffffffffffffffffffffffffffffffffffffffff\n      and\n      mul\n      or\n      swap1\n      sstore\n      pop\n        /* \"@chainlink/contracts/src/v0.8/ConfirmedOwnerWithProposal.sol\":1220:1221  0 */\n      0x00\n        /* \"@chainlink/contracts/src/v0.8/ConfirmedOwnerWithProposal.sol\":1195:1209  s_pendingOwner */\n      0x01\n      0x00\n        /* \"@chainlink/contracts/src/v0.8/ConfirmedOwnerWithProposal.sol\":1195:1222  s_pendingOwner = address(0) */\n      0x0100\n      exp\n      dup2\n      sload\n      dup2\n      0xffffffffffffffffffffffffffffffffffffffff\n      mul\n      not\n      and\n      swap1\n      dup4\n      0xffffffffffffffffffffffffffffffffffffffff\n      and\n      mul\n      or\n      swap1\n      sstore\n      pop\n        /* \"@chainlink/contracts/src/v0.8/ConfirmedOwnerWithProposal.sol\":1265:1275  msg.sender */\n      caller\n        /* \"@chainlink/contracts/src/v0.8/ConfirmedOwnerWithProposal.sol\":1234:1276  OwnershipTransferred(oldOwner, msg.sender) */\n      0xffffffffffffffffffffffffffffffffffffffff\n      and\n        /* \"@chainlink/contracts/src/v0.8/ConfirmedOwnerWithProposal.sol\":1255:1263  oldOwner */\n      dup2\n        /* \"@chainlink/contracts/src/v0.8/ConfirmedOwnerWithProposal.sol\":1234:1276  OwnershipTransferred(oldOwner, msg.sender) */\n      0xffffffffffffffffffffffffffffffffffffffff\n      and\n      0x8be0079c531659141344cd1fd0a4f28419497f9722a3daafe3b4186f6b6457e0\n      mload(0x40)\n      mload(0x40)\n      dup1\n      swap2\n      sub\n      swap1\n      log3\n        /* \"@chainlink/contracts/src/v0.8/ConfirmedOwnerWithProposal.sol\":1061:1281  {... */\n      pop\n        /* \"@chainlink/contracts/src/v0.8/ConfirmedOwnerWithProposal.sol\":1016:1281  function acceptOwnership() external override {... */\n      jump\t// out\n        /* \"docs.chain.link/samples/VRF/VRFv2DirectFundingConsumer.sol\":1191:1218  uint256[] public requestIds */\n    tag_36:\n      0x03\n      dup2\n      dup2\n      sload\n      dup2\n      lt\n      tag_85\n      jumpi\n      0x00\n      dup1\n      revert\n    tag_85:\n      swap1\n      0x00\n      mstore\n      keccak256(0x00, 0x20)\n      add\n      0x00\n      swap2\n      pop\n      swap1\n      pop\n      sload\n      dup2\n      jump\t// out\n        /* \"@chainlink/contracts/src/v0.8/ConfirmedOwnerWithProposal.sol\":1332:1413  function owner() public view override returns (address) {... */\n    tag_41:\n        /* \"@chainlink/contracts/src/v0.8/ConfirmedOwnerWithProposal.sol\":1379:1386  address */\n      0x00\n        /* \"@chainlink/contracts/src/v0.8/ConfirmedOwnerWithProposal.sol\":1401:1408  s_owner */\n      dup1\n      0x00\n      swap1\n      sload\n      swap1\n      0x0100\n      exp\n      swap1\n      div\n      0xffffffffffffffffffffffffffffffffffffffff\n      and\n        /* \"@chainlink/contracts/src/v0.8/ConfirmedOwnerWithProposal.sol\":1394:1408  return s_owner */\n      swap1\n      pop\n        /* \"@chainlink/contracts/src/v0.8/ConfirmedOwnerWithProposal.sol\":1332:1413  function owner() public view override returns (address) {... */\n      swap1\n      jump\t// out\n        /* \"docs.chain.link/samples/VRF/VRFv2DirectFundingConsumer.sol\":4684:4896  function withdrawLink() public onlyOwner {... */\n    tag_46:\n        /* \"@chainlink/contracts/src/v0.8/ConfirmedOwnerWithProposal.sol\":1956:1976  _validateOwnership() */\n      tag_89\n        /* \"@chainlink/contracts/src/v0.8/ConfirmedOwnerWithProposal.sol\":1956:1974  _validateOwnership */\n      tag_90\n        /* \"@chainlink/contracts/src/v0.8/ConfirmedOwnerWithProposal.sol\":1956:1976  _validateOwnership() */\n      jump\t// in\n    tag_89:\n        /* \"docs.chain.link/samples/VRF/VRFv2DirectFundingConsumer.sol\":4735:4758  LinkTokenInterface link */\n      0x00\n        /* \"docs.chain.link/samples/VRF/VRFv2DirectFundingConsumer.sol\":4780:4791  linkAddress */\n      0x05\n      0x0a\n      swap1\n      sload\n      swap1\n      0x0100\n      exp\n      swap1\n      div\n      0xffffffffffffffffffffffffffffffffffffffff\n      and\n        /* \"docs.chain.link/samples/VRF/VRFv2DirectFundingConsumer.sol\":4735:4792  LinkTokenInterface link = LinkTokenInterface(linkAddress) */\n      swap1\n      pop\n        /* \"docs.chain.link/samples/VRF/VRFv2DirectFundingConsumer.sol\":4810:4814  link */\n      dup1\n        /* \"docs.chain.link/samples/VRF/VRFv2DirectFundingConsumer.sol\":4810:4823  link.transfer */\n      0xffffffffffffffffffffffffffffffffffffffff\n      and\n      0xa9059cbb\n        /* \"docs.chain.link/samples/VRF/VRFv2DirectFundingConsumer.sol\":4824:4834  msg.sender */\n      caller\n        /* \"docs.chain.link/samples/VRF/VRFv2DirectFundingConsumer.sol\":4836:4840  link */\n      dup4\n        /* \"docs.chain.link/samples/VRF/VRFv2DirectFundingConsumer.sol\":4836:4850  link.balanceOf */\n      0xffffffffffffffffffffffffffffffffffffffff\n      and\n      0x70a08231\n        /* \"docs.chain.link/samples/VRF/VRFv2DirectFundingConsumer.sol\":4859:4863  this */\n      address\n        /* \"docs.chain.link/samples/VRF/VRFv2DirectFundingConsumer.sol\":4836:4865  link.balanceOf(address(this)) */\n      mload(0x40)\n      dup3\n      0xffffffff\n      and\n      0xe0\n      shl\n      dup2\n      mstore\n      0x04\n      add\n      tag_92\n      swap2\n      swap1\n      tag_43\n      jump\t// in\n    tag_92:\n      0x20\n      mload(0x40)\n      dup1\n      dup4\n      sub\n      dup2\n      dup7\n      dup1\n      extcodesize\n      iszero\n      dup1\n      iszero\n      tag_93\n      jumpi\n      0x00\n      dup1\n      revert\n    tag_93:\n      pop\n      gas\n      staticcall\n      iszero\n      dup1\n      iszero\n      tag_95\n      jumpi\n      returndatasize\n      0x00\n      dup1\n      returndatacopy\n      revert(0x00, returndatasize)\n    tag_95:\n      pop\n      pop\n      pop\n      pop\n      mload(0x40)\n      returndatasize\n      not(0x1f)\n      0x1f\n      dup3\n      add\n      and\n      dup3\n      add\n      dup1\n      0x40\n      mstore\n      pop\n      dup2\n      add\n      swap1\n      tag_96\n      swap2\n      swap1\n      tag_97\n      jump\t// in\n    tag_96:\n        /* \"docs.chain.link/samples/VRF/VRFv2DirectFundingConsumer.sol\":4810:4866  link.transfer(msg.sender, link.balanceOf(address(this))) */\n      mload(0x40)\n      dup4\n      0xffffffff\n      and\n      0xe0\n      shl\n      dup2\n      mstore\n      0x04\n      add\n      tag_98\n      swap3\n      swap2\n      swap1\n      tag_99\n      jump\t// in\n    tag_98:\n      0x20\n      mload(0x40)\n      dup1\n      dup4\n      sub\n      dup2\n      0x00\n      dup8\n      dup1\n      extcodesize\n      iszero\n      dup1\n      iszero\n      tag_100\n      jumpi\n      0x00\n      dup1\n      revert\n    tag_100:\n      pop\n      gas\n      call\n      iszero\n      dup1\n      iszero\n      tag_102\n      jumpi\n      returndatasize\n      0x00\n      dup1\n      returndatacopy\n      revert(0x00, returndatasize)\n    tag_102:\n      pop\n      pop\n      pop\n      pop\n      mload(0x40)\n      returndatasize\n      not(0x1f)\n      0x1f\n      dup3\n      add\n      and\n      dup3\n      add\n      dup1\n      0x40\n      mstore\n      pop\n      dup2\n      add\n      swap1\n      tag_103\n      swap2\n      swap1\n      tag_104\n      jump\t// in\n    tag_103:\n        /* \"docs.chain.link/samples/VRF/VRFv2DirectFundingConsumer.sol\":4802:4889  require(link.transfer(msg.sender, link.balanceOf(address(this))), 'Unable to transfer') */\n      tag_105\n      jumpi\n      mload(0x40)\n      0x08c379a000000000000000000000000000000000000000000000000000000000\n      dup2\n      mstore\n      0x04\n      add\n      tag_106\n      swap1\n      tag_107\n      jump\t// in\n    tag_106:\n      mload(0x40)\n      dup1\n      swap2\n      sub\n      swap1\n      revert\n    tag_105:\n        /* \"docs.chain.link/samples/VRF/VRFv2DirectFundingConsumer.sol\":4725:4896  {... */\n      pop\n        /* \"docs.chain.link/samples/VRF/VRFv2DirectFundingConsumer.sol\":4684:4896  function withdrawLink() public onlyOwner {... */\n      jump\t// out\n        /* \"docs.chain.link/samples/VRF/VRFv2DirectFundingConsumer.sol\":1074:1125  mapping(uint256 => RequestStatus) public s_requests */\n    tag_50:\n      mstore(0x20, 0x02)\n      dup1\n      0x00\n      mstore\n      keccak256(0x00, 0x40)\n      0x00\n      swap2\n      pop\n      swap1\n      pop\n      dup1\n      0x00\n      add\n      sload\n      swap1\n      dup1\n      0x01\n      add\n      0x00\n      swap1\n      sload\n      swap1\n      0x0100\n      exp\n      swap1\n      div\n      0xff\n      and\n      swap1\n      pop\n      dup3\n      jump\t// out\n        /* \"docs.chain.link/samples/VRF/VRFv2DirectFundingConsumer.sol\":2249:2273  uint256 public betResult */\n    tag_55:\n      sload(0x08)\n      dup2\n      jump\t// out\n        /* \"docs.chain.link/samples/VRF/VRFv2DirectFundingConsumer.sol\":4179:4607  function getRequestStatus(uint256 _requestId)... */\n    tag_60:\n        /* \"docs.chain.link/samples/VRF/VRFv2DirectFundingConsumer.sol\":4285:4297  uint256 paid */\n      0x00\n        /* \"docs.chain.link/samples/VRF/VRFv2DirectFundingConsumer.sol\":4311:4325  bool fulfilled */\n      dup1\n        /* \"docs.chain.link/samples/VRF/VRFv2DirectFundingConsumer.sol\":4339:4367  uint256[] memory randomWords */\n      0x60\n        /* \"docs.chain.link/samples/VRF/VRFv2DirectFundingConsumer.sol\":4443:4444  0 */\n      0x00\n        /* \"docs.chain.link/samples/VRF/VRFv2DirectFundingConsumer.sol\":4413:4423  s_requests */\n      0x02\n        /* \"docs.chain.link/samples/VRF/VRFv2DirectFundingConsumer.sol\":4413:4435  s_requests[_requestId] */\n      0x00\n        /* \"docs.chain.link/samples/VRF/VRFv2DirectFundingConsumer.sol\":4424:4434  _requestId */\n      dup7\n        /* \"docs.chain.link/samples/VRF/VRFv2DirectFundingConsumer.sol\":4413:4435  s_requests[_requestId] */\n      dup2\n      mstore\n      0x20\n      add\n      swap1\n      dup2\n      mstore\n      0x20\n      add\n      0x00\n      keccak256\n        /* \"docs.chain.link/samples/VRF/VRFv2DirectFundingConsumer.sol\":4413:4440  s_requests[_requestId].paid */\n      0x00\n      add\n      sload\n        /* \"docs.chain.link/samples/VRF/VRFv2DirectFundingConsumer.sol\":4413:4444  s_requests[_requestId].paid > 0 */\n      gt\n        /* \"docs.chain.link/samples/VRF/VRFv2DirectFundingConsumer.sol\":4405:4466  require(s_requests[_requestId].paid > 0, 'request not found') */\n      tag_109\n      jumpi\n      mload(0x40)\n      0x08c379a000000000000000000000000000000000000000000000000000000000\n      dup2\n      mstore\n      0x04\n      add\n      tag_110\n      swap1\n      tag_111\n      jump\t// in\n    tag_110:\n      mload(0x40)\n      dup1\n      swap2\n      sub\n      swap1\n      revert\n    tag_109:\n        /* \"docs.chain.link/samples/VRF/VRFv2DirectFundingConsumer.sol\":4476:4504  RequestStatus memory request */\n      0x00\n        /* \"docs.chain.link/samples/VRF/VRFv2DirectFundingConsumer.sol\":4507:4517  s_requests */\n      0x02\n        /* \"docs.chain.link/samples/VRF/VRFv2DirectFundingConsumer.sol\":4507:4529  s_requests[_requestId] */\n      0x00\n        /* \"docs.chain.link/samples/VRF/VRFv2DirectFundingConsumer.sol\":4518:4528  _requestId */\n      dup7\n        /* \"docs.chain.link/samples/VRF/VRFv2DirectFundingConsumer.sol\":4507:4529  s_requests[_requestId] */\n      dup2\n      mstore\n      0x20\n      add\n      swap1\n      dup2\n      mstore\n      0x20\n      add\n      0x00\n      keccak256\n        /* \"docs.chain.link/samples/VRF/VRFv2DirectFundingConsumer.sol\":4476:4529  RequestStatus memory request = s_requests[_requestId] */\n      mload(0x40)\n      dup1\n      0x60\n      add\n      0x40\n      mstore\n      swap1\n      dup2\n      0x00\n      dup3\n      add\n      sload\n      dup2\n      mstore\n      0x20\n      add\n      0x01\n      dup3\n      add\n      0x00\n      swap1\n      sload\n      swap1\n      0x0100\n      exp\n      swap1\n      div\n      0xff\n      and\n      iszero\n      iszero\n      iszero\n      iszero\n      dup2\n      mstore\n      0x20\n      add\n      0x02\n      dup3\n      add\n      dup1\n      sload\n      dup1\n      0x20\n      mul\n      0x20\n      add\n      mload(0x40)\n      swap1\n      dup2\n      add\n      0x40\n      mstore\n      dup1\n      swap3\n      swap2\n      swap1\n      dup2\n      dup2\n      mstore\n      0x20\n      add\n      dup3\n      dup1\n      sload\n      dup1\n      iszero\n      tag_112\n      jumpi\n      0x20\n      mul\n      dup3\n      add\n      swap2\n      swap1\n      0x00\n      mstore\n      keccak256(0x00, 0x20)\n      swap1\n    tag_113:\n      dup2\n      sload\n      dup2\n      mstore\n      0x20\n      add\n      swap1\n      0x01\n      add\n      swap1\n      dup1\n      dup4\n      gt\n      tag_113\n      jumpi\n    tag_112:\n      pop\n      pop\n      pop\n      pop\n      pop\n      dup2\n      mstore\n      pop\n      pop\n      swap1\n      pop\n        /* \"docs.chain.link/samples/VRF/VRFv2DirectFundingConsumer.sol\":4547:4554  request */\n      dup1\n        /* \"docs.chain.link/samples/VRF/VRFv2DirectFundingConsumer.sol\":4547:4559  request.paid */\n      0x00\n      add\n      mload\n        /* \"docs.chain.link/samples/VRF/VRFv2DirectFundingConsumer.sol\":4561:4568  request */\n      dup2\n        /* \"docs.chain.link/samples/VRF/VRFv2DirectFundingConsumer.sol\":4561:4578  request.fulfilled */\n      0x20\n      add\n      mload\n        /* \"docs.chain.link/samples/VRF/VRFv2DirectFundingConsumer.sol\":4580:4587  request */\n      dup3\n        /* \"docs.chain.link/samples/VRF/VRFv2DirectFundingConsumer.sol\":4580:4599  request.randomWords */\n      0x40\n      add\n      mload\n        /* \"docs.chain.link/samples/VRF/VRFv2DirectFundingConsumer.sol\":4539:4600  return (request.paid, request.fulfilled, request.randomWords) */\n      swap4\n      pop\n      swap4\n      pop\n      swap4\n      pop\n      pop\n        /* \"docs.chain.link/samples/VRF/VRFv2DirectFundingConsumer.sol\":4179:4607  function getRequestStatus(uint256 _requestId)... */\n      swap2\n      swap4\n      swap1\n      swap3\n      pop\n      jump\t// out\n        /* \"@chainlink/contracts/src/v0.8/ConfirmedOwnerWithProposal.sol\":826:924  function transferOwnership(address to) public override onlyOwner {... */\n    tag_67:\n        /* \"@chainlink/contracts/src/v0.8/ConfirmedOwnerWithProposal.sol\":1956:1976  _validateOwnership() */\n      tag_115\n        /* \"@chainlink/contracts/src/v0.8/ConfirmedOwnerWithProposal.sol\":1956:1974  _validateOwnership */\n      tag_90\n        /* \"@chainlink/contracts/src/v0.8/ConfirmedOwnerWithProposal.sol\":1956:1976  _validateOwnership() */\n      jump\t// in\n    tag_115:\n        /* \"@chainlink/contracts/src/v0.8/ConfirmedOwnerWithProposal.sol\":897:919  _transferOwnership(to) */\n      tag_117\n        /* \"@chainlink/contracts/src/v0.8/ConfirmedOwnerWithProposal.sol\":916:918  to */\n      dup2\n        /* \"@chainlink/contracts/src/v0.8/ConfirmedOwnerWithProposal.sol\":897:915  _transferOwnership */\n      tag_118\n        /* \"@chainlink/contracts/src/v0.8/ConfirmedOwnerWithProposal.sol\":897:919  _transferOwnership(to) */\n      jump\t// in\n    tag_117:\n        /* \"@chainlink/contracts/src/v0.8/ConfirmedOwnerWithProposal.sol\":826:924  function transferOwnership(address to) public override onlyOwner {... */\n      pop\n      jump\t// out\n        /* \"docs.chain.link/samples/VRF/VRFv2DirectFundingConsumer.sol\":1224:1252  uint256 public lastRequestId */\n    tag_70:\n      sload(0x04)\n      dup2\n      jump\t// out\n        /* \"docs.chain.link/samples/VRF/VRFv2DirectFundingConsumer.sol\":3258:4173  function fulfillRandomWords(uint256 _requestId, uint256[] memory _randomWords) internal override {... */\n    tag_77:\n        /* \"docs.chain.link/samples/VRF/VRFv2DirectFundingConsumer.sol\":3403:3404  0 */\n      0x00\n        /* \"docs.chain.link/samples/VRF/VRFv2DirectFundingConsumer.sol\":3373:3383  s_requests */\n      0x02\n        /* \"docs.chain.link/samples/VRF/VRFv2DirectFundingConsumer.sol\":3373:3395  s_requests[_requestId] */\n      0x00\n        /* \"docs.chain.link/samples/VRF/VRFv2DirectFundingConsumer.sol\":3384:3394  _requestId */\n      dup5\n        /* \"docs.chain.link/samples/VRF/VRFv2DirectFundingConsumer.sol\":3373:3395  s_requests[_requestId] */\n      dup2\n      mstore\n      0x20\n      add\n      swap1\n      dup2\n      mstore\n      0x20\n      add\n      0x00\n      keccak256\n        /* \"docs.chain.link/samples/VRF/VRFv2DirectFundingConsumer.sol\":3373:3400  s_requests[_requestId].paid */\n      0x00\n      add\n      sload\n        /* \"docs.chain.link/samples/VRF/VRFv2DirectFundingConsumer.sol\":3373:3404  s_requests[_requestId].paid > 0 */\n      gt\n        /* \"docs.chain.link/samples/VRF/VRFv2DirectFundingConsumer.sol\":3365:3426  require(s_requests[_requestId].paid > 0, 'request not found') */\n      tag_120\n      jumpi\n      mload(0x40)\n      0x08c379a000000000000000000000000000000000000000000000000000000000\n      dup2\n      mstore\n      0x04\n      add\n      tag_121\n      swap1\n      tag_111\n      jump\t// in\n    tag_121:\n      mload(0x40)\n      dup1\n      swap2\n      sub\n      swap1\n      revert\n    tag_120:\n        /* \"docs.chain.link/samples/VRF/VRFv2DirectFundingConsumer.sol\":3471:3475  true */\n      0x01\n        /* \"docs.chain.link/samples/VRF/VRFv2DirectFundingConsumer.sol\":3436:3446  s_requests */\n      0x02\n        /* \"docs.chain.link/samples/VRF/VRFv2DirectFundingConsumer.sol\":3436:3458  s_requests[_requestId] */\n      0x00\n        /* \"docs.chain.link/samples/VRF/VRFv2DirectFundingConsumer.sol\":3447:3457  _requestId */\n      dup5\n        /* \"docs.chain.link/samples/VRF/VRFv2DirectFundingConsumer.sol\":3436:3458  s_requests[_requestId] */\n      dup2\n      mstore\n      0x20\n      add\n      swap1\n      dup2\n      mstore\n      0x20\n      add\n      0x00\n      keccak256\n        /* \"docs.chain.link/samples/VRF/VRFv2DirectFundingConsumer.sol\":3436:3468  s_requests[_requestId].fulfilled */\n      0x01\n      add\n      0x00\n        /* \"docs.chain.link/samples/VRF/VRFv2DirectFundingConsumer.sol\":3436:3475  s_requests[_requestId].fulfilled = true */\n      0x0100\n      exp\n      dup2\n      sload\n      dup2\n      0xff\n      mul\n      not\n      and\n      swap1\n      dup4\n      iszero\n      iszero\n      mul\n      or\n      swap1\n      sstore\n      pop\n        /* \"docs.chain.link/samples/VRF/VRFv2DirectFundingConsumer.sol\":3522:3534  _randomWords */\n      dup1\n        /* \"docs.chain.link/samples/VRF/VRFv2DirectFundingConsumer.sol\":3485:3495  s_requests */\n      0x02\n        /* \"docs.chain.link/samples/VRF/VRFv2DirectFundingConsumer.sol\":3485:3507  s_requests[_requestId] */\n      0x00\n        /* \"docs.chain.link/samples/VRF/VRFv2DirectFundingConsumer.sol\":3496:3506  _requestId */\n      dup5\n        /* \"docs.chain.link/samples/VRF/VRFv2DirectFundingConsumer.sol\":3485:3507  s_requests[_requestId] */\n      dup2\n      mstore\n      0x20\n      add\n      swap1\n      dup2\n      mstore\n      0x20\n      add\n      0x00\n      keccak256\n        /* \"docs.chain.link/samples/VRF/VRFv2DirectFundingConsumer.sol\":3485:3519  s_requests[_requestId].randomWords */\n      0x02\n      add\n        /* \"docs.chain.link/samples/VRF/VRFv2DirectFundingConsumer.sol\":3485:3534  s_requests[_requestId].randomWords = _randomWords */\n      swap1\n      dup1\n      mload\n      swap1\n      0x20\n      add\n      swap1\n      tag_122\n      swap3\n      swap2\n      swap1\n      tag_123\n      jump\t// in\n    tag_122:\n      pop\n        /* \"docs.chain.link/samples/VRF/VRFv2DirectFundingConsumer.sol\":3549:3620  RequestFulfilled(_requestId, _randomWords, s_requests[_requestId].paid) */\n      0x147eb1ff0c82f87f2b03e2c43f5a36488ff63ec6b730195fde4605f612f8db51\n        /* \"docs.chain.link/samples/VRF/VRFv2DirectFundingConsumer.sol\":3566:3576  _requestId */\n      dup3\n        /* \"docs.chain.link/samples/VRF/VRFv2DirectFundingConsumer.sol\":3578:3590  _randomWords */\n      dup3\n        /* \"docs.chain.link/samples/VRF/VRFv2DirectFundingConsumer.sol\":3592:3602  s_requests */\n      0x02\n        /* \"docs.chain.link/samples/VRF/VRFv2DirectFundingConsumer.sol\":3592:3614  s_requests[_requestId] */\n      0x00\n        /* \"docs.chain.link/samples/VRF/VRFv2DirectFundingConsumer.sol\":3603:3613  _requestId */\n      dup7\n        /* \"docs.chain.link/samples/VRF/VRFv2DirectFundingConsumer.sol\":3592:3614  s_requests[_requestId] */\n      dup2\n      mstore\n      0x20\n      add\n      swap1\n      dup2\n      mstore\n      0x20\n      add\n      0x00\n      keccak256\n        /* \"docs.chain.link/samples/VRF/VRFv2DirectFundingConsumer.sol\":3592:3619  s_requests[_requestId].paid */\n      0x00\n      add\n      sload\n        /* \"docs.chain.link/samples/VRF/VRFv2DirectFundingConsumer.sol\":3549:3620  RequestFulfilled(_requestId, _randomWords, s_requests[_requestId].paid) */\n      mload(0x40)\n      tag_124\n      swap4\n      swap3\n      swap2\n      swap1\n      tag_125\n      jump\t// in\n    tag_124:\n      mload(0x40)\n      dup1\n      swap2\n      sub\n      swap1\n      log1\n        /* \"docs.chain.link/samples/VRF/VRFv2DirectFundingConsumer.sol\":3630:3648  uint256 randomness */\n      0x00\n        /* \"docs.chain.link/samples/VRF/VRFv2DirectFundingConsumer.sol\":3651:3663  _randomWords */\n      dup2\n        /* \"docs.chain.link/samples/VRF/VRFv2DirectFundingConsumer.sol\":3664:3665  0 */\n      0x00\n        /* \"docs.chain.link/samples/VRF/VRFv2DirectFundingConsumer.sol\":3651:3666  _randomWords[0] */\n      dup2\n      mload\n      dup2\n      lt\n      tag_126\n      jumpi\n      tag_127\n      tag_128\n      jump\t// in\n    tag_127:\n    tag_126:\n      0x20\n      mul\n      0x20\n      add\n      add\n      mload\n        /* \"docs.chain.link/samples/VRF/VRFv2DirectFundingConsumer.sol\":3630:3666  uint256 randomness = _randomWords[0] */\n      swap1\n      pop\n        /* \"docs.chain.link/samples/VRF/VRFv2DirectFundingConsumer.sol\":3676:3701  Player memory curr_player */\n      0x00\n        /* \"docs.chain.link/samples/VRF/VRFv2DirectFundingConsumer.sol\":3704:3711  records */\n      0x07\n        /* \"docs.chain.link/samples/VRF/VRFv2DirectFundingConsumer.sol\":3704:3723  records[_requestId] */\n      0x00\n        /* \"docs.chain.link/samples/VRF/VRFv2DirectFundingConsumer.sol\":3712:3722  _requestId */\n      dup6\n        /* \"docs.chain.link/samples/VRF/VRFv2DirectFundingConsumer.sol\":3704:3723  records[_requestId] */\n      dup2\n      mstore\n      0x20\n      add\n      swap1\n      dup2\n      mstore\n      0x20\n      add\n      0x00\n      keccak256\n        /* \"docs.chain.link/samples/VRF/VRFv2DirectFundingConsumer.sol\":3676:3723  Player memory curr_player = records[_requestId] */\n      mload(0x40)\n      dup1\n      0x60\n      add\n      0x40\n      mstore\n      swap1\n      dup2\n      0x00\n      dup3\n      add\n      0x00\n      swap1\n      sload\n      swap1\n      0x0100\n      exp\n      swap1\n      div\n      0xffffffffffffffffffffffffffffffffffffffff\n      and\n      0xffffffffffffffffffffffffffffffffffffffff\n      and\n      0xffffffffffffffffffffffffffffffffffffffff\n      and\n      dup2\n      mstore\n      0x20\n      add\n      0x01\n      dup3\n      add\n      sload\n      dup2\n      mstore\n      0x20\n      add\n      0x02\n      dup3\n      add\n      sload\n      dup2\n      mstore\n      pop\n      pop\n      swap1\n      pop\n        /* \"docs.chain.link/samples/VRF/VRFv2DirectFundingConsumer.sol\":3733:3751  uint256 _betAmount */\n      0x00\n        /* \"docs.chain.link/samples/VRF/VRFv2DirectFundingConsumer.sol\":3754:3765  curr_player */\n      dup2\n        /* \"docs.chain.link/samples/VRF/VRFv2DirectFundingConsumer.sol\":3754:3775  curr_player.betAmount */\n      0x40\n      add\n      mload\n        /* \"docs.chain.link/samples/VRF/VRFv2DirectFundingConsumer.sol\":3733:3775  uint256 _betAmount = curr_player.betAmount */\n      swap1\n      pop\n        /* \"docs.chain.link/samples/VRF/VRFv2DirectFundingConsumer.sol\":3785:3803  uint256 _betNumber */\n      0x00\n        /* \"docs.chain.link/samples/VRF/VRFv2DirectFundingConsumer.sol\":3806:3817  curr_player */\n      dup3\n        /* \"docs.chain.link/samples/VRF/VRFv2DirectFundingConsumer.sol\":3806:3827  curr_player.betNumber */\n      0x20\n      add\n      mload\n        /* \"docs.chain.link/samples/VRF/VRFv2DirectFundingConsumer.sol\":3785:3827  uint256 _betNumber = curr_player.betNumber */\n      swap1\n      pop\n        /* \"docs.chain.link/samples/VRF/VRFv2DirectFundingConsumer.sol\":3837:3873  address payable _curr_player_address */\n      0x00\n        /* \"docs.chain.link/samples/VRF/VRFv2DirectFundingConsumer.sol\":3876:3887  curr_player */\n      dup4\n        /* \"docs.chain.link/samples/VRF/VRFv2DirectFundingConsumer.sol\":3876:3901  curr_player.playerAddress */\n      0x00\n      add\n      mload\n        /* \"docs.chain.link/samples/VRF/VRFv2DirectFundingConsumer.sol\":3837:3901  address payable _curr_player_address = curr_player.playerAddress */\n      swap1\n      pop\n        /* \"docs.chain.link/samples/VRF/VRFv2DirectFundingConsumer.sol\":3911:3926  uint _betResult */\n      0x00\n        /* \"docs.chain.link/samples/VRF/VRFv2DirectFundingConsumer.sol\":3942:3943  6 */\n      0x06\n        /* \"docs.chain.link/samples/VRF/VRFv2DirectFundingConsumer.sol\":3929:3939  randomness */\n      dup7\n        /* \"docs.chain.link/samples/VRF/VRFv2DirectFundingConsumer.sol\":3929:3943  randomness % 6 */\n      tag_129\n      swap2\n      swap1\n      tag_130\n      jump\t// in\n    tag_129:\n        /* \"docs.chain.link/samples/VRF/VRFv2DirectFundingConsumer.sol\":3911:3943  uint _betResult = randomness % 6 */\n      swap1\n      pop\n        /* \"docs.chain.link/samples/VRF/VRFv2DirectFundingConsumer.sol\":3965:3975  _betResult */\n      dup1\n        /* \"docs.chain.link/samples/VRF/VRFv2DirectFundingConsumer.sol\":3953:3962  betResult */\n      0x08\n        /* \"docs.chain.link/samples/VRF/VRFv2DirectFundingConsumer.sol\":3953:3975  betResult = _betResult */\n      dup2\n      swap1\n      sstore\n      pop\n        /* \"docs.chain.link/samples/VRF/VRFv2DirectFundingConsumer.sol\":4003:4013  _betNumber */\n      dup3\n        /* \"docs.chain.link/samples/VRF/VRFv2DirectFundingConsumer.sol\":3989:3999  _betResult */\n      dup2\n        /* \"docs.chain.link/samples/VRF/VRFv2DirectFundingConsumer.sol\":3989:4013  _betResult == _betNumber */\n      eq\n        /* \"docs.chain.link/samples/VRF/VRFv2DirectFundingConsumer.sol\":3986:4157  if(_betResult == _betNumber){... */\n      iszero\n      tag_131\n      jumpi\n        /* \"docs.chain.link/samples/VRF/VRFv2DirectFundingConsumer.sol\":4028:4047  uint256 _win_amount */\n      0x00\n        /* \"docs.chain.link/samples/VRF/VRFv2DirectFundingConsumer.sol\":4062:4063  2 */\n      0x02\n        /* \"docs.chain.link/samples/VRF/VRFv2DirectFundingConsumer.sol\":4050:4060  _betAmount */\n      dup6\n        /* \"docs.chain.link/samples/VRF/VRFv2DirectFundingConsumer.sol\":4050:4063  _betAmount *2 */\n      tag_132\n      swap2\n      swap1\n      tag_133\n      jump\t// in\n    tag_132:\n        /* \"docs.chain.link/samples/VRF/VRFv2DirectFundingConsumer.sol\":4028:4063  uint256 _win_amount = _betAmount *2 */\n      swap1\n      pop\n        /* \"docs.chain.link/samples/VRF/VRFv2DirectFundingConsumer.sol\":4079:4091  bool success */\n      0x00\n        /* \"docs.chain.link/samples/VRF/VRFv2DirectFundingConsumer.sol\":4096:4116  _curr_player_address */\n      dup4\n        /* \"docs.chain.link/samples/VRF/VRFv2DirectFundingConsumer.sol\":4096:4121  _curr_player_address.call */\n      0xffffffffffffffffffffffffffffffffffffffff\n      and\n        /* \"docs.chain.link/samples/VRF/VRFv2DirectFundingConsumer.sol\":4129:4140  _win_amount */\n      dup3\n        /* \"docs.chain.link/samples/VRF/VRFv2DirectFundingConsumer.sol\":4096:4146  _curr_player_address.call{value: _win_amount} (\"\") */\n      mload(0x40)\n      tag_134\n      swap1\n      tag_135\n      jump\t// in\n    tag_134:\n      0x00\n      mload(0x40)\n      dup1\n      dup4\n      sub\n      dup2\n      dup6\n      dup8\n      gas\n      call\n      swap3\n      pop\n      pop\n      pop\n      returndatasize\n      dup1\n      0x00\n      dup2\n      eq\n      tag_138\n      jumpi\n      mload(0x40)\n      swap2\n      pop\n      and(add(returndatasize, 0x3f), not(0x1f))\n      dup3\n      add\n      0x40\n      mstore\n      returndatasize\n      dup3\n      mstore\n      returndatasize\n      0x00\n      0x20\n      dup5\n      add\n      returndatacopy\n      jump(tag_137)\n    tag_138:\n      0x60\n      swap2\n      pop\n    tag_137:\n      pop\n        /* \"docs.chain.link/samples/VRF/VRFv2DirectFundingConsumer.sol\":4078:4146  (bool success,) = _curr_player_address.call{value: _win_amount} (\"\") */\n      pop\n      swap1\n      pop\n        /* \"docs.chain.link/samples/VRF/VRFv2DirectFundingConsumer.sol\":4014:4157  {... */\n      pop\n      pop\n        /* \"docs.chain.link/samples/VRF/VRFv2DirectFundingConsumer.sol\":3986:4157  if(_betResult == _betNumber){... */\n    tag_131:\n        /* \"docs.chain.link/samples/VRF/VRFv2DirectFundingConsumer.sol\":3355:4173  {... */\n      pop\n      pop\n      pop\n      pop\n      pop\n      pop\n        /* \"docs.chain.link/samples/VRF/VRFv2DirectFundingConsumer.sol\":3258:4173  function fulfillRandomWords(uint256 _requestId, uint256[] memory _randomWords) internal override {... */\n      pop\n      pop\n      jump\t// out\n        /* \"docs.chain.link/samples/VRF/VRFv2DirectFundingConsumer.sol\":2388:2911  function requestRandomWords() internal onlyOwner returns (uint256 requestId) {... */\n    tag_80:\n        /* \"docs.chain.link/samples/VRF/VRFv2DirectFundingConsumer.sol\":2446:2463  uint256 requestId */\n      0x00\n        /* \"@chainlink/contracts/src/v0.8/ConfirmedOwnerWithProposal.sol\":1956:1976  _validateOwnership() */\n      tag_140\n        /* \"@chainlink/contracts/src/v0.8/ConfirmedOwnerWithProposal.sol\":1956:1974  _validateOwnership */\n      tag_90\n        /* \"@chainlink/contracts/src/v0.8/ConfirmedOwnerWithProposal.sol\":1956:1976  _validateOwnership() */\n      jump\t// in\n    tag_140:\n        /* \"docs.chain.link/samples/VRF/VRFv2DirectFundingConsumer.sol\":2487:2554  requestRandomness(callbackGasLimit, requestConfirmations, numWords) */\n      tag_142\n        /* \"docs.chain.link/samples/VRF/VRFv2DirectFundingConsumer.sol\":2505:2521  callbackGasLimit */\n      0x05\n      0x00\n      swap1\n      sload\n      swap1\n      0x0100\n      exp\n      swap1\n      div\n      0xffffffff\n      and\n        /* \"docs.chain.link/samples/VRF/VRFv2DirectFundingConsumer.sol\":2523:2543  requestConfirmations */\n      0x05\n      0x04\n      swap1\n      sload\n      swap1\n      0x0100\n      exp\n      swap1\n      div\n      0xffff\n      and\n        /* \"docs.chain.link/samples/VRF/VRFv2DirectFundingConsumer.sol\":2545:2553  numWords */\n      0x05\n      0x06\n      swap1\n      sload\n      swap1\n      0x0100\n      exp\n      swap1\n      div\n      0xffffffff\n      and\n        /* \"docs.chain.link/samples/VRF/VRFv2DirectFundingConsumer.sol\":2487:2504  requestRandomness */\n      tag_143\n        /* \"docs.chain.link/samples/VRF/VRFv2DirectFundingConsumer.sol\":2487:2554  requestRandomness(callbackGasLimit, requestConfirmations, numWords) */\n      jump\t// in\n    tag_142:\n        /* \"docs.chain.link/samples/VRF/VRFv2DirectFundingConsumer.sol\":2475:2554  requestId = requestRandomness(callbackGasLimit, requestConfirmations, numWords) */\n      swap1\n      pop\n        /* \"docs.chain.link/samples/VRF/VRFv2DirectFundingConsumer.sol\":2588:2760  RequestStatus({... */\n      mload(0x40)\n      dup1\n      0x60\n      add\n      0x40\n      mstore\n      dup1\n        /* \"docs.chain.link/samples/VRF/VRFv2DirectFundingConsumer.sol\":2622:2636  VRF_V2_WRAPPER */\n      immutable(\"0xa75e2cf51d42f4164e4624f425e61448777a748393b6f6a5bcb1d94d1e8e5e98\")\n        /* \"docs.chain.link/samples/VRF/VRFv2DirectFundingConsumer.sol\":2622:2658  VRF_V2_WRAPPER.calculateRequestPrice */\n      0xffffffffffffffffffffffffffffffffffffffff\n      and\n      0x4306d354\n        /* \"docs.chain.link/samples/VRF/VRFv2DirectFundingConsumer.sol\":2659:2675  callbackGasLimit */\n      0x05\n      0x00\n      swap1\n      sload\n      swap1\n      0x0100\n      exp\n      swap1\n      div\n      0xffffffff\n      and\n        /* \"docs.chain.link/samples/VRF/VRFv2DirectFundingConsumer.sol\":2622:2676  VRF_V2_WRAPPER.calculateRequestPrice(callbackGasLimit) */\n      mload(0x40)\n      dup3\n      0xffffffff\n      and\n      0xe0\n      shl\n      dup2\n      mstore\n      0x04\n      add\n      tag_144\n      swap2\n      swap1\n      tag_145\n      jump\t// in\n    tag_144:\n      0x20\n      mload(0x40)\n      dup1\n      dup4\n      sub\n      dup2\n      dup7\n      dup1\n      extcodesize\n      iszero\n      dup1\n      iszero\n      tag_146\n      jumpi\n      0x00\n      dup1\n      revert\n    tag_146:\n      pop\n      gas\n      staticcall\n      iszero\n      dup1\n      iszero\n      tag_148\n      jumpi\n      returndatasize\n      0x00\n      dup1\n      returndatacopy\n      revert(0x00, returndatasize)\n    tag_148:\n      pop\n      pop\n      pop\n      pop\n      mload(0x40)\n      returndatasize\n      not(0x1f)\n      0x1f\n      dup3\n      add\n      and\n      dup3\n      add\n      dup1\n      0x40\n      mstore\n      pop\n      dup2\n      add\n      swap1\n      tag_149\n      swap2\n      swap1\n      tag_97\n      jump\t// in\n    tag_149:\n        /* \"docs.chain.link/samples/VRF/VRFv2DirectFundingConsumer.sol\":2588:2760  RequestStatus({... */\n      dup2\n      mstore\n      0x20\n      add\n        /* \"docs.chain.link/samples/VRF/VRFv2DirectFundingConsumer.sol\":2744:2749  false */\n      0x00\n        /* \"docs.chain.link/samples/VRF/VRFv2DirectFundingConsumer.sol\":2588:2760  RequestStatus({... */\n      iszero\n      iszero\n      dup2\n      mstore\n      0x20\n      add\n        /* \"docs.chain.link/samples/VRF/VRFv2DirectFundingConsumer.sol\":2717:2718  0 */\n      0x00\n        /* \"docs.chain.link/samples/VRF/VRFv2DirectFundingConsumer.sol\":2703:2719  new uint256[](0) */\n      0xffffffffffffffff\n      dup2\n      gt\n      iszero\n      tag_150\n      jumpi\n      tag_151\n      tag_152\n      jump\t// in\n    tag_151:\n    tag_150:\n      mload(0x40)\n      swap1\n      dup1\n      dup3\n      mstore\n      dup1\n      0x20\n      mul\n      0x20\n      add\n      dup3\n      add\n      0x40\n      mstore\n      dup1\n      iszero\n      tag_153\n      jumpi\n      dup2\n      0x20\n      add\n      0x20\n      dup3\n      mul\n      dup1\n      calldatasize\n      dup4\n      calldatacopy\n      dup1\n      dup3\n      add\n      swap2\n      pop\n      pop\n      swap1\n      pop\n    tag_153:\n      pop\n        /* \"docs.chain.link/samples/VRF/VRFv2DirectFundingConsumer.sol\":2588:2760  RequestStatus({... */\n      dup2\n      mstore\n      pop\n        /* \"docs.chain.link/samples/VRF/VRFv2DirectFundingConsumer.sol\":2564:2574  s_requests */\n      0x02\n        /* \"docs.chain.link/samples/VRF/VRFv2DirectFundingConsumer.sol\":2564:2585  s_requests[requestId] */\n      0x00\n        /* \"docs.chain.link/samples/VRF/VRFv2DirectFundingConsumer.sol\":2575:2584  requestId */\n      dup4\n        /* \"docs.chain.link/samples/VRF/VRFv2DirectFundingConsumer.sol\":2564:2585  s_requests[requestId] */\n      dup2\n      mstore\n      0x20\n      add\n      swap1\n      dup2\n      mstore\n      0x20\n      add\n      0x00\n      keccak256\n        /* \"docs.chain.link/samples/VRF/VRFv2DirectFundingConsumer.sol\":2564:2760  s_requests[requestId] = RequestStatus({... */\n      0x00\n      dup3\n      add\n      mload\n      dup2\n      0x00\n      add\n      sstore\n      0x20\n      dup3\n      add\n      mload\n      dup2\n      0x01\n      add\n      exp(0x0100, 0x00)\n      dup2\n      sload\n      dup2\n      0xff\n      mul\n      not\n      and\n      swap1\n      dup4\n      iszero\n      iszero\n      mul\n      or\n      swap1\n      sstore\n      pop\n      0x40\n      dup3\n      add\n      mload\n      dup2\n      0x02\n      add\n      swap1\n      dup1\n      mload\n      swap1\n      0x20\n      add\n      swap1\n      tag_154\n      swap3\n      swap2\n      swap1\n      tag_123\n      jump\t// in\n    tag_154:\n      pop\n      swap1\n      pop\n      pop\n        /* \"docs.chain.link/samples/VRF/VRFv2DirectFundingConsumer.sol\":2770:2780  requestIds */\n      0x03\n        /* \"docs.chain.link/samples/VRF/VRFv2DirectFundingConsumer.sol\":2786:2795  requestId */\n      dup2\n        /* \"docs.chain.link/samples/VRF/VRFv2DirectFundingConsumer.sol\":2770:2796  requestIds.push(requestId) */\n      swap1\n      dup1\n      0x01\n      dup2\n      sload\n      add\n      dup1\n      dup3\n      sstore\n      dup1\n      swap2\n      pop\n      pop\n      0x01\n      swap1\n      sub\n      swap1\n      0x00\n      mstore\n      keccak256(0x00, 0x20)\n      add\n      0x00\n      swap1\n      swap2\n      swap1\n      swap2\n      swap1\n      swap2\n      pop\n      sstore\n        /* \"docs.chain.link/samples/VRF/VRFv2DirectFundingConsumer.sol\":2822:2831  requestId */\n      dup1\n        /* \"docs.chain.link/samples/VRF/VRFv2DirectFundingConsumer.sol\":2806:2819  lastRequestId */\n      0x04\n        /* \"docs.chain.link/samples/VRF/VRFv2DirectFundingConsumer.sol\":2806:2831  lastRequestId = requestId */\n      dup2\n      swap1\n      sstore\n      pop\n        /* \"docs.chain.link/samples/VRF/VRFv2DirectFundingConsumer.sol\":2846:2878  RequestSent(requestId, numWords) */\n      0xcc58b13ad3eab50626c6a6300b1d139cd6ebb1688a7cced9461c2f7e762665ee\n        /* \"docs.chain.link/samples/VRF/VRFv2DirectFundingConsumer.sol\":2858:2867  requestId */\n      dup2\n        /* \"docs.chain.link/samples/VRF/VRFv2DirectFundingConsumer.sol\":2869:2877  numWords */\n      0x05\n      0x06\n      swap1\n      sload\n      swap1\n      0x0100\n      exp\n      swap1\n      div\n      0xffffffff\n      and\n        /* \"docs.chain.link/samples/VRF/VRFv2DirectFundingConsumer.sol\":2846:2878  RequestSent(requestId, numWords) */\n      mload(0x40)\n      tag_156\n      swap3\n      swap2\n      swap1\n      tag_157\n      jump\t// in\n    tag_156:\n      mload(0x40)\n      dup1\n      swap2\n      sub\n      swap1\n      log1\n        /* \"docs.chain.link/samples/VRF/VRFv2DirectFundingConsumer.sol\":2388:2911  function requestRandomWords() internal onlyOwner returns (uint256 requestId) {... */\n      swap1\n      jump\t// out\n        /* \"@chainlink/contracts/src/v0.8/ConfirmedOwnerWithProposal.sol\":1730:1841  function _validateOwnership() internal view {... */\n    tag_90:\n        /* \"@chainlink/contracts/src/v0.8/ConfirmedOwnerWithProposal.sol\":1802:1809  s_owner */\n      0x00\n      dup1\n      sload\n      swap1\n      0x0100\n      exp\n      swap1\n      div\n      0xffffffffffffffffffffffffffffffffffffffff\n      and\n        /* \"@chainlink/contracts/src/v0.8/ConfirmedOwnerWithProposal.sol\":1788:1809  msg.sender == s_owner */\n      0xffffffffffffffffffffffffffffffffffffffff\n      and\n        /* \"@chainlink/contracts/src/v0.8/ConfirmedOwnerWithProposal.sol\":1788:1798  msg.sender */\n      caller\n        /* \"@chainlink/contracts/src/v0.8/ConfirmedOwnerWithProposal.sol\":1788:1809  msg.sender == s_owner */\n      0xffffffffffffffffffffffffffffffffffffffff\n      and\n      eq\n        /* \"@chainlink/contracts/src/v0.8/ConfirmedOwnerWithProposal.sol\":1780:1836  require(msg.sender == s_owner, \"Only callable by owner\") */\n      tag_159\n      jumpi\n      mload(0x40)\n      0x08c379a000000000000000000000000000000000000000000000000000000000\n      dup2\n      mstore\n      0x04\n      add\n      tag_160\n      swap1\n      tag_161\n      jump\t// in\n    tag_160:\n      mload(0x40)\n      dup1\n      swap2\n      sub\n      swap1\n      revert\n    tag_159:\n        /* \"@chainlink/contracts/src/v0.8/ConfirmedOwnerWithProposal.sol\":1730:1841  function _validateOwnership() internal view {... */\n      jump\t// out\n        /* \"@chainlink/contracts/src/v0.8/ConfirmedOwnerWithProposal.sol\":1497:1685  function _transferOwnership(address to) private {... */\n    tag_118:\n        /* \"@chainlink/contracts/src/v0.8/ConfirmedOwnerWithProposal.sol\":1565:1575  msg.sender */\n      caller\n        /* \"@chainlink/contracts/src/v0.8/ConfirmedOwnerWithProposal.sol\":1559:1575  to != msg.sender */\n      0xffffffffffffffffffffffffffffffffffffffff\n      and\n        /* \"@chainlink/contracts/src/v0.8/ConfirmedOwnerWithProposal.sol\":1559:1561  to */\n      dup2\n        /* \"@chainlink/contracts/src/v0.8/ConfirmedOwnerWithProposal.sol\":1559:1575  to != msg.sender */\n      0xffffffffffffffffffffffffffffffffffffffff\n      and\n      eq\n      iszero\n        /* \"@chainlink/contracts/src/v0.8/ConfirmedOwnerWithProposal.sol\":1551:1603  require(to != msg.sender, \"Cannot transfer to self\") */\n      tag_163\n      jumpi\n      mload(0x40)\n      0x08c379a000000000000000000000000000000000000000000000000000000000\n      dup2\n      mstore\n      0x04\n      add\n      tag_164\n      swap1\n      tag_165\n      jump\t// in\n    tag_164:\n      mload(0x40)\n      dup1\n      swap2\n      sub\n      swap1\n      revert\n    tag_163:\n        /* \"@chainlink/contracts/src/v0.8/ConfirmedOwnerWithProposal.sol\":1627:1629  to */\n      dup1\n        /* \"@chainlink/contracts/src/v0.8/ConfirmedOwnerWithProposal.sol\":1610:1624  s_pendingOwner */\n      0x01\n      0x00\n        /* \"@chainlink/contracts/src/v0.8/ConfirmedOwnerWithProposal.sol\":1610:1629  s_pendingOwner = to */\n      0x0100\n      exp\n      dup2\n      sload\n      dup2\n      0xffffffffffffffffffffffffffffffffffffffff\n      mul\n      not\n      and\n      swap1\n      dup4\n      0xffffffffffffffffffffffffffffffffffffffff\n      and\n      mul\n      or\n      swap1\n      sstore\n      pop\n        /* \"@chainlink/contracts/src/v0.8/ConfirmedOwnerWithProposal.sol\":1677:1679  to */\n      dup1\n        /* \"@chainlink/contracts/src/v0.8/ConfirmedOwnerWithProposal.sol\":1641:1680  OwnershipTransferRequested(s_owner, to) */\n      0xffffffffffffffffffffffffffffffffffffffff\n      and\n        /* \"@chainlink/contracts/src/v0.8/ConfirmedOwnerWithProposal.sol\":1668:1675  s_owner */\n      0x00\n      dup1\n      sload\n      swap1\n      0x0100\n      exp\n      swap1\n      div\n      0xffffffffffffffffffffffffffffffffffffffff\n      and\n        /* \"@chainlink/contracts/src/v0.8/ConfirmedOwnerWithProposal.sol\":1641:1680  OwnershipTransferRequested(s_owner, to) */\n      0xffffffffffffffffffffffffffffffffffffffff\n      and\n      0xed8889f560326eb138920d842192f0eb3dd22b4f139c87a2c57538e05bae1278\n      mload(0x40)\n      mload(0x40)\n      dup1\n      swap2\n      sub\n      swap1\n      log3\n        /* \"@chainlink/contracts/src/v0.8/ConfirmedOwnerWithProposal.sol\":1497:1685  function _transferOwnership(address to) private {... */\n      pop\n      jump\t// out\n        /* \"@chainlink/contracts/src/v0.8/VRFV2WrapperConsumerBase.sol\":2645:3044  function requestRandomness(... */\n    tag_143:\n        /* \"@chainlink/contracts/src/v0.8/VRFV2WrapperConsumerBase.sol\":2780:2797  uint256 requestId */\n      0x00\n        /* \"@chainlink/contracts/src/v0.8/VRFV2WrapperConsumerBase.sol\":2805:2809  LINK */\n      immutable(\"0x266b1640ade99b2f22d24bd1f0c6c2736890e0398a5a0b97b63a35856ae65c2b\")\n        /* \"@chainlink/contracts/src/v0.8/VRFV2WrapperConsumerBase.sol\":2805:2825  LINK.transferAndCall */\n      0xffffffffffffffffffffffffffffffffffffffff\n      and\n      0x4000aea0\n        /* \"@chainlink/contracts/src/v0.8/VRFV2WrapperConsumerBase.sol\":2841:2855  VRF_V2_WRAPPER */\n      immutable(\"0xa75e2cf51d42f4164e4624f425e61448777a748393b6f6a5bcb1d94d1e8e5e98\")\n        /* \"@chainlink/contracts/src/v0.8/VRFV2WrapperConsumerBase.sol\":2864:2878  VRF_V2_WRAPPER */\n      immutable(\"0xa75e2cf51d42f4164e4624f425e61448777a748393b6f6a5bcb1d94d1e8e5e98\")\n        /* \"@chainlink/contracts/src/v0.8/VRFV2WrapperConsumerBase.sol\":2864:2900  VRF_V2_WRAPPER.calculateRequestPrice */\n      0xffffffffffffffffffffffffffffffffffffffff\n      and\n      0x4306d354\n        /* \"@chainlink/contracts/src/v0.8/VRFV2WrapperConsumerBase.sol\":2901:2918  _callbackGasLimit */\n      dup9\n        /* \"@chainlink/contracts/src/v0.8/VRFV2WrapperConsumerBase.sol\":2864:2919  VRF_V2_WRAPPER.calculateRequestPrice(_callbackGasLimit) */\n      mload(0x40)\n      dup3\n      0xffffffff\n      and\n      0xe0\n      shl\n      dup2\n      mstore\n      0x04\n      add\n      tag_167\n      swap2\n      swap1\n      tag_145\n      jump\t// in\n    tag_167:\n      0x20\n      mload(0x40)\n      dup1\n      dup4\n      sub\n      dup2\n      dup7\n      dup1\n      extcodesize\n      iszero\n      dup1\n      iszero\n      tag_168\n      jumpi\n      0x00\n      dup1\n      revert\n    tag_168:\n      pop\n      gas\n      staticcall\n      iszero\n      dup1\n      iszero\n      tag_170\n      jumpi\n      returndatasize\n      0x00\n      dup1\n      returndatacopy\n      revert(0x00, returndatasize)\n    tag_170:\n      pop\n      pop\n      pop\n      pop\n      mload(0x40)\n      returndatasize\n      not(0x1f)\n      0x1f\n      dup3\n      add\n      and\n      dup3\n      add\n      dup1\n      0x40\n      mstore\n      pop\n      dup2\n      add\n      swap1\n      tag_171\n      swap2\n      swap1\n      tag_97\n      jump\t// in\n    tag_171:\n        /* \"@chainlink/contracts/src/v0.8/VRFV2WrapperConsumerBase.sol\":2938:2955  _callbackGasLimit */\n      dup8\n        /* \"@chainlink/contracts/src/v0.8/VRFV2WrapperConsumerBase.sol\":2957:2978  _requestConfirmations */\n      dup8\n        /* \"@chainlink/contracts/src/v0.8/VRFV2WrapperConsumerBase.sol\":2980:2989  _numWords */\n      dup8\n        /* \"@chainlink/contracts/src/v0.8/VRFV2WrapperConsumerBase.sol\":2927:2990  abi.encode(_callbackGasLimit, _requestConfirmations, _numWords) */\n      add(0x20, mload(0x40))\n      tag_172\n      swap4\n      swap3\n      swap2\n      swap1\n      tag_173\n      jump\t// in\n    tag_172:\n      mload(0x40)\n      0x20\n      dup2\n      dup4\n      sub\n      sub\n      dup2\n      mstore\n      swap1\n      0x40\n      mstore\n        /* \"@chainlink/contracts/src/v0.8/VRFV2WrapperConsumerBase.sol\":2805:2996  LINK.transferAndCall(... */\n      mload(0x40)\n      dup5\n      0xffffffff\n      and\n      0xe0\n      shl\n      dup2\n      mstore\n      0x04\n      add\n      tag_174\n      swap4\n      swap3\n      swap2\n      swap1\n      tag_175\n      jump\t// in\n    tag_174:\n      0x20\n      mload(0x40)\n      dup1\n      dup4\n      sub\n      dup2\n      0x00\n      dup8\n      dup1\n      extcodesize\n      iszero\n      dup1\n      iszero\n      tag_176\n      jumpi\n      0x00\n      dup1\n      revert\n    tag_176:\n      pop\n      gas\n      call\n      iszero\n      dup1\n      iszero\n      tag_178\n      jumpi\n      returndatasize\n      0x00\n      dup1\n      returndatacopy\n      revert(0x00, returndatasize)\n    tag_178:\n      pop\n      pop\n      pop\n      pop\n      mload(0x40)\n      returndatasize\n      not(0x1f)\n      0x1f\n      dup3\n      add\n      and\n      dup3\n      add\n      dup1\n      0x40\n      mstore\n      pop\n      dup2\n      add\n      swap1\n      tag_179\n      swap2\n      swap1\n      tag_104\n      jump\t// in\n    tag_179:\n      pop\n        /* \"@chainlink/contracts/src/v0.8/VRFV2WrapperConsumerBase.sol\":3009:3023  VRF_V2_WRAPPER */\n      immutable(\"0xa75e2cf51d42f4164e4624f425e61448777a748393b6f6a5bcb1d94d1e8e5e98\")\n        /* \"@chainlink/contracts/src/v0.8/VRFV2WrapperConsumerBase.sol\":3009:3037  VRF_V2_WRAPPER.lastRequestId */\n      0xffffffffffffffffffffffffffffffffffffffff\n      and\n      0xfc2a88c3\n        /* \"@chainlink/contracts/src/v0.8/VRFV2WrapperConsumerBase.sol\":3009:3039  VRF_V2_WRAPPER.lastRequestId() */\n      mload(0x40)\n      dup2\n      0xffffffff\n      and\n      0xe0\n      shl\n      dup2\n      mstore\n      0x04\n      add\n      0x20\n      mload(0x40)\n      dup1\n      dup4\n      sub\n      dup2\n      dup7\n      dup1\n      extcodesize\n      iszero\n      dup1\n      iszero\n      tag_180\n      jumpi\n      0x00\n      dup1\n      revert\n    tag_180:\n      pop\n      gas\n      staticcall\n      iszero\n      dup1\n      iszero\n      tag_182\n      jumpi\n      returndatasize\n      0x00\n      dup1\n      returndatacopy\n      revert(0x00, returndatasize)\n    tag_182:\n      pop\n      pop\n      pop\n      pop\n      mload(0x40)\n      returndatasize\n      not(0x1f)\n      0x1f\n      dup3\n      add\n      and\n      dup3\n      add\n      dup1\n      0x40\n      mstore\n      pop\n      dup2\n      add\n      swap1\n      tag_183\n      swap2\n      swap1\n      tag_97\n      jump\t// in\n    tag_183:\n        /* \"@chainlink/contracts/src/v0.8/VRFV2WrapperConsumerBase.sol\":3002:3039  return VRF_V2_WRAPPER.lastRequestId() */\n      swap1\n      pop\n        /* \"@chainlink/contracts/src/v0.8/VRFV2WrapperConsumerBase.sol\":2645:3044  function requestRandomness(... */\n      swap4\n      swap3\n      pop\n      pop\n      pop\n      jump\t// out\n    tag_123:\n      dup3\n      dup1\n      sload\n      dup3\n      dup3\n      sstore\n      swap1\n      0x00\n      mstore\n      keccak256(0x00, 0x20)\n      swap1\n      dup2\n      add\n      swap3\n      dup3\n      iszero\n      tag_184\n      jumpi\n      swap2\n      0x20\n      mul\n      dup3\n      add\n    tag_185:\n      dup3\n      dup2\n      gt\n      iszero\n      tag_186\n      jumpi\n      dup3\n      mload\n      dup3\n      sstore\n      swap2\n      0x20\n      add\n      swap2\n      swap1\n      0x01\n      add\n      swap1\n      jump(tag_185)\n    tag_186:\n    tag_184:\n      pop\n      swap1\n      pop\n      tag_187\n      swap2\n      swap1\n      tag_188\n      jump\t// in\n    tag_187:\n      pop\n      swap1\n      jump\t// out\n    tag_188:\n    tag_189:\n      dup1\n      dup3\n      gt\n      iszero\n      tag_190\n      jumpi\n      0x00\n      dup2\n      0x00\n      swap1\n      sstore\n      pop\n      0x01\n      add\n      jump(tag_189)\n    tag_190:\n      pop\n      swap1\n      jump\t// out\n        /* \"#utility.yul\":24:746   */\n    tag_192:\n        /* \"#utility.yul\":120:125   */\n      0x00\n        /* \"#utility.yul\":145:226   */\n      tag_194\n        /* \"#utility.yul\":161:225   */\n      tag_195\n        /* \"#utility.yul\":218:224   */\n      dup5\n        /* \"#utility.yul\":161:225   */\n      tag_196\n      jump\t// in\n    tag_195:\n        /* \"#utility.yul\":145:226   */\n      tag_197\n      jump\t// in\n    tag_194:\n        /* \"#utility.yul\":136:226   */\n      swap1\n      pop\n        /* \"#utility.yul\":246:251   */\n      dup1\n        /* \"#utility.yul\":275:281   */\n      dup4\n        /* \"#utility.yul\":268:273   */\n      dup3\n        /* \"#utility.yul\":261:282   */\n      mstore\n        /* \"#utility.yul\":309:313   */\n      0x20\n        /* \"#utility.yul\":302:307   */\n      dup3\n        /* \"#utility.yul\":298:314   */\n      add\n        /* \"#utility.yul\":291:314   */\n      swap1\n      pop\n        /* \"#utility.yul\":335:341   */\n      dup3\n        /* \"#utility.yul\":385:388   */\n      dup6\n        /* \"#utility.yul\":377:381   */\n      0x20\n        /* \"#utility.yul\":369:375   */\n      dup7\n        /* \"#utility.yul\":365:382   */\n      mul\n        /* \"#utility.yul\":360:363   */\n      dup3\n        /* \"#utility.yul\":356:383   */\n      add\n        /* \"#utility.yul\":353:389   */\n      gt\n        /* \"#utility.yul\":350:493   */\n      iszero\n      tag_198\n      jumpi\n        /* \"#utility.yul\":404:483   */\n      tag_199\n      tag_200\n      jump\t// in\n    tag_199:\n        /* \"#utility.yul\":350:493   */\n    tag_198:\n        /* \"#utility.yul\":517:518   */\n      0x00\n        /* \"#utility.yul\":502:740   */\n    tag_201:\n        /* \"#utility.yul\":527:533   */\n      dup6\n        /* \"#utility.yul\":524:525   */\n      dup2\n        /* \"#utility.yul\":521:534   */\n      lt\n        /* \"#utility.yul\":502:740   */\n      iszero\n      tag_203\n      jumpi\n        /* \"#utility.yul\":595:598   */\n      dup2\n        /* \"#utility.yul\":624:661   */\n      tag_204\n        /* \"#utility.yul\":657:660   */\n      dup9\n        /* \"#utility.yul\":645:655   */\n      dup3\n        /* \"#utility.yul\":624:661   */\n      tag_205\n      jump\t// in\n    tag_204:\n        /* \"#utility.yul\":619:622   */\n      dup5\n        /* \"#utility.yul\":612:662   */\n      mstore\n        /* \"#utility.yul\":691:695   */\n      0x20\n        /* \"#utility.yul\":686:689   */\n      dup5\n        /* \"#utility.yul\":682:696   */\n      add\n        /* \"#utility.yul\":675:696   */\n      swap4\n      pop\n        /* \"#utility.yul\":725:729   */\n      0x20\n        /* \"#utility.yul\":720:723   */\n      dup4\n        /* \"#utility.yul\":716:730   */\n      add\n        /* \"#utility.yul\":709:730   */\n      swap3\n      pop\n        /* \"#utility.yul\":562:740   */\n      pop\n        /* \"#utility.yul\":549:550   */\n      0x01\n        /* \"#utility.yul\":546:547   */\n      dup2\n        /* \"#utility.yul\":542:551   */\n      add\n        /* \"#utility.yul\":537:551   */\n      swap1\n      pop\n        /* \"#utility.yul\":502:740   */\n      jump(tag_201)\n    tag_203:\n        /* \"#utility.yul\":506:520   */\n      pop\n        /* \"#utility.yul\":126:746   */\n      pop\n      pop\n        /* \"#utility.yul\":24:746   */\n      swap4\n      swap3\n      pop\n      pop\n      pop\n      jump\t// out\n        /* \"#utility.yul\":752:891   */\n    tag_206:\n        /* \"#utility.yul\":798:803   */\n      0x00\n        /* \"#utility.yul\":836:842   */\n      dup2\n        /* \"#utility.yul\":823:843   */\n      calldataload\n        /* \"#utility.yul\":814:843   */\n      swap1\n      pop\n        /* \"#utility.yul\":852:885   */\n      tag_208\n        /* \"#utility.yul\":879:884   */\n      dup2\n        /* \"#utility.yul\":852:885   */\n      tag_209\n      jump\t// in\n    tag_208:\n        /* \"#utility.yul\":752:891   */\n      swap3\n      swap2\n      pop\n      pop\n      jump\t// out\n        /* \"#utility.yul\":914:1284   */\n    tag_210:\n        /* \"#utility.yul\":985:990   */\n      0x00\n        /* \"#utility.yul\":1034:1037   */\n      dup3\n        /* \"#utility.yul\":1027:1031   */\n      0x1f\n        /* \"#utility.yul\":1019:1025   */\n      dup4\n        /* \"#utility.yul\":1015:1032   */\n      add\n        /* \"#utility.yul\":1011:1038   */\n      slt\n        /* \"#utility.yul\":1001:1123   */\n      tag_212\n      jumpi\n        /* \"#utility.yul\":1042:1121   */\n      tag_213\n      tag_214\n      jump\t// in\n    tag_213:\n        /* \"#utility.yul\":1001:1123   */\n    tag_212:\n        /* \"#utility.yul\":1159:1165   */\n      dup2\n        /* \"#utility.yul\":1146:1166   */\n      calldataload\n        /* \"#utility.yul\":1184:1278   */\n      tag_215\n        /* \"#utility.yul\":1274:1277   */\n      dup5\n        /* \"#utility.yul\":1266:1272   */\n      dup3\n        /* \"#utility.yul\":1259:1263   */\n      0x20\n        /* \"#utility.yul\":1251:1257   */\n      dup7\n        /* \"#utility.yul\":1247:1264   */\n      add\n        /* \"#utility.yul\":1184:1278   */\n      tag_192\n      jump\t// in\n    tag_215:\n        /* \"#utility.yul\":1175:1278   */\n      swap2\n      pop\n        /* \"#utility.yul\":991:1284   */\n      pop\n        /* \"#utility.yul\":914:1284   */\n      swap3\n      swap2\n      pop\n      pop\n      jump\t// out\n        /* \"#utility.yul\":1290:1427   */\n    tag_216:\n        /* \"#utility.yul\":1344:1349   */\n      0x00\n        /* \"#utility.yul\":1375:1381   */\n      dup2\n        /* \"#utility.yul\":1369:1382   */\n      mload\n        /* \"#utility.yul\":1360:1382   */\n      swap1\n      pop\n        /* \"#utility.yul\":1391:1421   */\n      tag_218\n        /* \"#utility.yul\":1415:1420   */\n      dup2\n        /* \"#utility.yul\":1391:1421   */\n      tag_219\n      jump\t// in\n    tag_218:\n        /* \"#utility.yul\":1290:1427   */\n      swap3\n      swap2\n      pop\n      pop\n      jump\t// out\n        /* \"#utility.yul\":1433:1572   */\n    tag_205:\n        /* \"#utility.yul\":1479:1484   */\n      0x00\n        /* \"#utility.yul\":1517:1523   */\n      dup2\n        /* \"#utility.yul\":1504:1524   */\n      calldataload\n        /* \"#utility.yul\":1495:1524   */\n      swap1\n      pop\n        /* \"#utility.yul\":1533:1566   */\n      tag_221\n        /* \"#utility.yul\":1560:1565   */\n      dup2\n        /* \"#utility.yul\":1533:1566   */\n      tag_222\n      jump\t// in\n    tag_221:\n        /* \"#utility.yul\":1433:1572   */\n      swap3\n      swap2\n      pop\n      pop\n      jump\t// out\n        /* \"#utility.yul\":1578:1721   */\n    tag_223:\n        /* \"#utility.yul\":1635:1640   */\n      0x00\n        /* \"#utility.yul\":1666:1672   */\n      dup2\n        /* \"#utility.yul\":1660:1673   */\n      mload\n        /* \"#utility.yul\":1651:1673   */\n      swap1\n      pop\n        /* \"#utility.yul\":1682:1715   */\n      tag_225\n        /* \"#utility.yul\":1709:1714   */\n      dup2\n        /* \"#utility.yul\":1682:1715   */\n      tag_222\n      jump\t// in\n    tag_225:\n        /* \"#utility.yul\":1578:1721   */\n      swap3\n      swap2\n      pop\n      pop\n      jump\t// out\n        /* \"#utility.yul\":1727:2056   */\n    tag_66:\n        /* \"#utility.yul\":1786:1792   */\n      0x00\n        /* \"#utility.yul\":1835:1837   */\n      0x20\n        /* \"#utility.yul\":1823:1832   */\n      dup3\n        /* \"#utility.yul\":1814:1821   */\n      dup5\n        /* \"#utility.yul\":1810:1833   */\n      sub\n        /* \"#utility.yul\":1806:1838   */\n      slt\n        /* \"#utility.yul\":1803:1922   */\n      iszero\n      tag_227\n      jumpi\n        /* \"#utility.yul\":1841:1920   */\n      tag_228\n      tag_229\n      jump\t// in\n    tag_228:\n        /* \"#utility.yul\":1803:1922   */\n    tag_227:\n        /* \"#utility.yul\":1961:1962   */\n      0x00\n        /* \"#utility.yul\":1986:2039   */\n      tag_230\n        /* \"#utility.yul\":2031:2038   */\n      dup5\n        /* \"#utility.yul\":2022:2028   */\n      dup3\n        /* \"#utility.yul\":2011:2020   */\n      dup6\n        /* \"#utility.yul\":2007:2029   */\n      add\n        /* \"#utility.yul\":1986:2039   */\n      tag_206\n      jump\t// in\n    tag_230:\n        /* \"#utility.yul\":1976:2039   */\n      swap2\n      pop\n        /* \"#utility.yul\":1932:2049   */\n      pop\n        /* \"#utility.yul\":1727:2056   */\n      swap3\n      swap2\n      pop\n      pop\n      jump\t// out\n        /* \"#utility.yul\":2062:2407   */\n    tag_104:\n        /* \"#utility.yul\":2129:2135   */\n      0x00\n        /* \"#utility.yul\":2178:2180   */\n      0x20\n        /* \"#utility.yul\":2166:2175   */\n      dup3\n        /* \"#utility.yul\":2157:2164   */\n      dup5\n        /* \"#utility.yul\":2153:2176   */\n      sub\n        /* \"#utility.yul\":2149:2181   */\n      slt\n        /* \"#utility.yul\":2146:2265   */\n      iszero\n      tag_232\n      jumpi\n        /* \"#utility.yul\":2184:2263   */\n      tag_233\n      tag_229\n      jump\t// in\n    tag_233:\n        /* \"#utility.yul\":2146:2265   */\n    tag_232:\n        /* \"#utility.yul\":2304:2305   */\n      0x00\n        /* \"#utility.yul\":2329:2390   */\n      tag_234\n        /* \"#utility.yul\":2382:2389   */\n      dup5\n        /* \"#utility.yul\":2373:2379   */\n      dup3\n        /* \"#utility.yul\":2362:2371   */\n      dup6\n        /* \"#utility.yul\":2358:2380   */\n      add\n        /* \"#utility.yul\":2329:2390   */\n      tag_216\n      jump\t// in\n    tag_234:\n        /* \"#utility.yul\":2319:2390   */\n      swap2\n      pop\n        /* \"#utility.yul\":2275:2400   */\n      pop\n        /* \"#utility.yul\":2062:2407   */\n      swap3\n      swap2\n      pop\n      pop\n      jump\t// out\n        /* \"#utility.yul\":2413:2742   */\n    tag_23:\n        /* \"#utility.yul\":2472:2478   */\n      0x00\n        /* \"#utility.yul\":2521:2523   */\n      0x20\n        /* \"#utility.yul\":2509:2518   */\n      dup3\n        /* \"#utility.yul\":2500:2507   */\n      dup5\n        /* \"#utility.yul\":2496:2519   */\n      sub\n        /* \"#utility.yul\":2492:2524   */\n      slt\n        /* \"#utility.yul\":2489:2608   */\n      iszero\n      tag_236\n      jumpi\n        /* \"#utility.yul\":2527:2606   */\n      tag_237\n      tag_229\n      jump\t// in\n    tag_237:\n        /* \"#utility.yul\":2489:2608   */\n    tag_236:\n        /* \"#utility.yul\":2647:2648   */\n      0x00\n        /* \"#utility.yul\":2672:2725   */\n      tag_238\n        /* \"#utility.yul\":2717:2724   */\n      dup5\n        /* \"#utility.yul\":2708:2714   */\n      dup3\n        /* \"#utility.yul\":2697:2706   */\n      dup6\n        /* \"#utility.yul\":2693:2715   */\n      add\n        /* \"#utility.yul\":2672:2725   */\n      tag_205\n      jump\t// in\n    tag_238:\n        /* \"#utility.yul\":2662:2725   */\n      swap2\n      pop\n        /* \"#utility.yul\":2618:2735   */\n      pop\n        /* \"#utility.yul\":2413:2742   */\n      swap3\n      swap2\n      pop\n      pop\n      jump\t// out\n        /* \"#utility.yul\":2748:3099   */\n    tag_97:\n        /* \"#utility.yul\":2818:2824   */\n      0x00\n        /* \"#utility.yul\":2867:2869   */\n      0x20\n        /* \"#utility.yul\":2855:2864   */\n      dup3\n        /* \"#utility.yul\":2846:2853   */\n      dup5\n        /* \"#utility.yul\":2842:2865   */\n      sub\n        /* \"#utility.yul\":2838:2870   */\n      slt\n        /* \"#utility.yul\":2835:2954   */\n      iszero\n      tag_240\n      jumpi\n        /* \"#utility.yul\":2873:2952   */\n      tag_241\n      tag_229\n      jump\t// in\n    tag_241:\n        /* \"#utility.yul\":2835:2954   */\n    tag_240:\n        /* \"#utility.yul\":2993:2994   */\n      0x00\n        /* \"#utility.yul\":3018:3082   */\n      tag_242\n        /* \"#utility.yul\":3074:3081   */\n      dup5\n        /* \"#utility.yul\":3065:3071   */\n      dup3\n        /* \"#utility.yul\":3054:3063   */\n      dup6\n        /* \"#utility.yul\":3050:3072   */\n      add\n        /* \"#utility.yul\":3018:3082   */\n      tag_223\n      jump\t// in\n    tag_242:\n        /* \"#utility.yul\":3008:3082   */\n      swap2\n      pop\n        /* \"#utility.yul\":2964:3092   */\n      pop\n        /* \"#utility.yul\":2748:3099   */\n      swap3\n      swap2\n      pop\n      pop\n      jump\t// out\n        /* \"#utility.yul\":3105:3789   */\n    tag_18:\n        /* \"#utility.yul\":3198:3204   */\n      0x00\n        /* \"#utility.yul\":3206:3212   */\n      dup1\n        /* \"#utility.yul\":3255:3257   */\n      0x40\n        /* \"#utility.yul\":3243:3252   */\n      dup4\n        /* \"#utility.yul\":3234:3241   */\n      dup6\n        /* \"#utility.yul\":3230:3253   */\n      sub\n        /* \"#utility.yul\":3226:3258   */\n      slt\n        /* \"#utility.yul\":3223:3342   */\n      iszero\n      tag_244\n      jumpi\n        /* \"#utility.yul\":3261:3340   */\n      tag_245\n      tag_229\n      jump\t// in\n    tag_245:\n        /* \"#utility.yul\":3223:3342   */\n    tag_244:\n        /* \"#utility.yul\":3381:3382   */\n      0x00\n        /* \"#utility.yul\":3406:3459   */\n      tag_246\n        /* \"#utility.yul\":3451:3458   */\n      dup6\n        /* \"#utility.yul\":3442:3448   */\n      dup3\n        /* \"#utility.yul\":3431:3440   */\n      dup7\n        /* \"#utility.yul\":3427:3449   */\n      add\n        /* \"#utility.yul\":3406:3459   */\n      tag_205\n      jump\t// in\n    tag_246:\n        /* \"#utility.yul\":3396:3459   */\n      swap3\n      pop\n        /* \"#utility.yul\":3352:3469   */\n      pop\n        /* \"#utility.yul\":3536:3538   */\n      0x20\n        /* \"#utility.yul\":3525:3534   */\n      dup4\n        /* \"#utility.yul\":3521:3539   */\n      add\n        /* \"#utility.yul\":3508:3540   */\n      calldataload\n        /* \"#utility.yul\":3567:3585   */\n      0xffffffffffffffff\n        /* \"#utility.yul\":3559:3565   */\n      dup2\n        /* \"#utility.yul\":3556:3586   */\n      gt\n        /* \"#utility.yul\":3553:3670   */\n      iszero\n      tag_247\n      jumpi\n        /* \"#utility.yul\":3589:3668   */\n      tag_248\n      tag_249\n      jump\t// in\n    tag_248:\n        /* \"#utility.yul\":3553:3670   */\n    tag_247:\n        /* \"#utility.yul\":3694:3772   */\n      tag_250\n        /* \"#utility.yul\":3764:3771   */\n      dup6\n        /* \"#utility.yul\":3755:3761   */\n      dup3\n        /* \"#utility.yul\":3744:3753   */\n      dup7\n        /* \"#utility.yul\":3740:3762   */\n      add\n        /* \"#utility.yul\":3694:3772   */\n      tag_210\n      jump\t// in\n    tag_250:\n        /* \"#utility.yul\":3684:3772   */\n      swap2\n      pop\n        /* \"#utility.yul\":3479:3782   */\n      pop\n        /* \"#utility.yul\":3105:3789   */\n      swap3\n      pop\n      swap3\n      swap1\n      pop\n      jump\t// out\n        /* \"#utility.yul\":3795:3974   */\n    tag_251:\n        /* \"#utility.yul\":3864:3874   */\n      0x00\n        /* \"#utility.yul\":3885:3931   */\n      tag_253\n        /* \"#utility.yul\":3927:3930   */\n      dup4\n        /* \"#utility.yul\":3919:3925   */\n      dup4\n        /* \"#utility.yul\":3885:3931   */\n      tag_254\n      jump\t// in\n    tag_253:\n        /* \"#utility.yul\":3963:3967   */\n      0x20\n        /* \"#utility.yul\":3958:3961   */\n      dup4\n        /* \"#utility.yul\":3954:3968   */\n      add\n        /* \"#utility.yul\":3940:3968   */\n      swap1\n      pop\n        /* \"#utility.yul\":3795:3974   */\n      swap3\n      swap2\n      pop\n      pop\n      jump\t// out\n        /* \"#utility.yul\":3980:4122   */\n    tag_255:\n        /* \"#utility.yul\":4083:4115   */\n      tag_257\n        /* \"#utility.yul\":4109:4114   */\n      dup2\n        /* \"#utility.yul\":4083:4115   */\n      tag_258\n      jump\t// in\n    tag_257:\n        /* \"#utility.yul\":4078:4081   */\n      dup3\n        /* \"#utility.yul\":4071:4116   */\n      mstore\n        /* \"#utility.yul\":3980:4122   */\n      pop\n      pop\n      jump\t// out\n        /* \"#utility.yul\":4128:4246   */\n    tag_259:\n        /* \"#utility.yul\":4215:4239   */\n      tag_261\n        /* \"#utility.yul\":4233:4238   */\n      dup2\n        /* \"#utility.yul\":4215:4239   */\n      tag_262\n      jump\t// in\n    tag_261:\n        /* \"#utility.yul\":4210:4213   */\n      dup3\n        /* \"#utility.yul\":4203:4240   */\n      mstore\n        /* \"#utility.yul\":4128:4246   */\n      pop\n      pop\n      jump\t// out\n        /* \"#utility.yul\":4282:5014   */\n    tag_263:\n        /* \"#utility.yul\":4401:4404   */\n      0x00\n        /* \"#utility.yul\":4430:4484   */\n      tag_265\n        /* \"#utility.yul\":4478:4483   */\n      dup3\n        /* \"#utility.yul\":4430:4484   */\n      tag_266\n      jump\t// in\n    tag_265:\n        /* \"#utility.yul\":4500:4586   */\n      tag_267\n        /* \"#utility.yul\":4579:4585   */\n      dup2\n        /* \"#utility.yul\":4574:4577   */\n      dup6\n        /* \"#utility.yul\":4500:4586   */\n      tag_268\n      jump\t// in\n    tag_267:\n        /* \"#utility.yul\":4493:4586   */\n      swap4\n      pop\n        /* \"#utility.yul\":4610:4666   */\n      tag_269\n        /* \"#utility.yul\":4660:4665   */\n      dup4\n        /* \"#utility.yul\":4610:4666   */\n      tag_270\n      jump\t// in\n    tag_269:\n        /* \"#utility.yul\":4689:4696   */\n      dup1\n        /* \"#utility.yul\":4720:4721   */\n      0x00\n        /* \"#utility.yul\":4705:4989   */\n    tag_271:\n        /* \"#utility.yul\":4730:4736   */\n      dup4\n        /* \"#utility.yul\":4727:4728   */\n      dup2\n        /* \"#utility.yul\":4724:4737   */\n      lt\n        /* \"#utility.yul\":4705:4989   */\n      iszero\n      tag_273\n      jumpi\n        /* \"#utility.yul\":4806:4812   */\n      dup2\n        /* \"#utility.yul\":4800:4813   */\n      mload\n        /* \"#utility.yul\":4833:4896   */\n      tag_274\n        /* \"#utility.yul\":4892:4895   */\n      dup9\n        /* \"#utility.yul\":4877:4890   */\n      dup3\n        /* \"#utility.yul\":4833:4896   */\n      tag_251\n      jump\t// in\n    tag_274:\n        /* \"#utility.yul\":4826:4896   */\n      swap8\n      pop\n        /* \"#utility.yul\":4919:4979   */\n      tag_275\n        /* \"#utility.yul\":4972:4978   */\n      dup4\n        /* \"#utility.yul\":4919:4979   */\n      tag_276\n      jump\t// in\n    tag_275:\n        /* \"#utility.yul\":4909:4979   */\n      swap3\n      pop\n        /* \"#utility.yul\":4765:4989   */\n      pop\n        /* \"#utility.yul\":4752:4753   */\n      0x01\n        /* \"#utility.yul\":4749:4750   */\n      dup2\n        /* \"#utility.yul\":4745:4754   */\n      add\n        /* \"#utility.yul\":4740:4754   */\n      swap1\n      pop\n        /* \"#utility.yul\":4705:4989   */\n      jump(tag_271)\n    tag_273:\n        /* \"#utility.yul\":4709:4723   */\n      pop\n        /* \"#utility.yul\":5005:5008   */\n      dup6\n        /* \"#utility.yul\":4998:5008   */\n      swap4\n      pop\n        /* \"#utility.yul\":4406:5014   */\n      pop\n      pop\n      pop\n        /* \"#utility.yul\":4282:5014   */\n      swap3\n      swap2\n      pop\n      pop\n      jump\t// out\n        /* \"#utility.yul\":5020:5129   */\n    tag_277:\n        /* \"#utility.yul\":5101:5122   */\n      tag_279\n        /* \"#utility.yul\":5116:5121   */\n      dup2\n        /* \"#utility.yul\":5101:5122   */\n      tag_280\n      jump\t// in\n    tag_279:\n        /* \"#utility.yul\":5096:5099   */\n      dup3\n        /* \"#utility.yul\":5089:5123   */\n      mstore\n        /* \"#utility.yul\":5020:5129   */\n      pop\n      pop\n      jump\t// out\n        /* \"#utility.yul\":5135:5495   */\n    tag_281:\n        /* \"#utility.yul\":5221:5224   */\n      0x00\n        /* \"#utility.yul\":5249:5287   */\n      tag_283\n        /* \"#utility.yul\":5281:5286   */\n      dup3\n        /* \"#utility.yul\":5249:5287   */\n      tag_284\n      jump\t// in\n    tag_283:\n        /* \"#utility.yul\":5303:5373   */\n      tag_285\n        /* \"#utility.yul\":5366:5372   */\n      dup2\n        /* \"#utility.yul\":5361:5364   */\n      dup6\n        /* \"#utility.yul\":5303:5373   */\n      tag_286\n      jump\t// in\n    tag_285:\n        /* \"#utility.yul\":5296:5373   */\n      swap4\n      pop\n        /* \"#utility.yul\":5382:5434   */\n      tag_287\n        /* \"#utility.yul\":5427:5433   */\n      dup2\n        /* \"#utility.yul\":5422:5425   */\n      dup6\n        /* \"#utility.yul\":5415:5419   */\n      0x20\n        /* \"#utility.yul\":5408:5413   */\n      dup7\n        /* \"#utility.yul\":5404:5420   */\n      add\n        /* \"#utility.yul\":5382:5434   */\n      tag_288\n      jump\t// in\n    tag_287:\n        /* \"#utility.yul\":5459:5488   */\n      tag_289\n        /* \"#utility.yul\":5481:5487   */\n      dup2\n        /* \"#utility.yul\":5459:5488   */\n      tag_290\n      jump\t// in\n    tag_289:\n        /* \"#utility.yul\":5454:5457   */\n      dup5\n        /* \"#utility.yul\":5450:5489   */\n      add\n        /* \"#utility.yul\":5443:5489   */\n      swap2\n      pop\n        /* \"#utility.yul\":5225:5495   */\n      pop\n        /* \"#utility.yul\":5135:5495   */\n      swap3\n      swap2\n      pop\n      pop\n      jump\t// out\n        /* \"#utility.yul\":5501:5867   */\n    tag_291:\n        /* \"#utility.yul\":5643:5646   */\n      0x00\n        /* \"#utility.yul\":5664:5731   */\n      tag_293\n        /* \"#utility.yul\":5728:5730   */\n      0x11\n        /* \"#utility.yul\":5723:5726   */\n      dup4\n        /* \"#utility.yul\":5664:5731   */\n      tag_294\n      jump\t// in\n    tag_293:\n        /* \"#utility.yul\":5657:5731   */\n      swap2\n      pop\n        /* \"#utility.yul\":5740:5833   */\n      tag_295\n        /* \"#utility.yul\":5829:5832   */\n      dup3\n        /* \"#utility.yul\":5740:5833   */\n      tag_296\n      jump\t// in\n    tag_295:\n        /* \"#utility.yul\":5858:5860   */\n      0x20\n        /* \"#utility.yul\":5853:5856   */\n      dup3\n        /* \"#utility.yul\":5849:5861   */\n      add\n        /* \"#utility.yul\":5842:5861   */\n      swap1\n      pop\n        /* \"#utility.yul\":5501:5867   */\n      swap2\n      swap1\n      pop\n      jump\t// out\n        /* \"#utility.yul\":5873:6239   */\n    tag_297:\n        /* \"#utility.yul\":6015:6018   */\n      0x00\n        /* \"#utility.yul\":6036:6103   */\n      tag_299\n        /* \"#utility.yul\":6100:6102   */\n      0x16\n        /* \"#utility.yul\":6095:6098   */\n      dup4\n        /* \"#utility.yul\":6036:6103   */\n      tag_294\n      jump\t// in\n    tag_299:\n        /* \"#utility.yul\":6029:6103   */\n      swap2\n      pop\n        /* \"#utility.yul\":6112:6205   */\n      tag_300\n        /* \"#utility.yul\":6201:6204   */\n      dup3\n        /* \"#utility.yul\":6112:6205   */\n      tag_301\n      jump\t// in\n    tag_300:\n        /* \"#utility.yul\":6230:6232   */\n      0x20\n        /* \"#utility.yul\":6225:6228   */\n      dup3\n        /* \"#utility.yul\":6221:6233   */\n      add\n        /* \"#utility.yul\":6214:6233   */\n      swap1\n      pop\n        /* \"#utility.yul\":5873:6239   */\n      swap2\n      swap1\n      pop\n      jump\t// out\n        /* \"#utility.yul\":6245:6611   */\n    tag_302:\n        /* \"#utility.yul\":6387:6390   */\n      0x00\n        /* \"#utility.yul\":6408:6475   */\n      tag_304\n        /* \"#utility.yul\":6472:6474   */\n      0x16\n        /* \"#utility.yul\":6467:6470   */\n      dup4\n        /* \"#utility.yul\":6408:6475   */\n      tag_294\n      jump\t// in\n    tag_304:\n        /* \"#utility.yul\":6401:6475   */\n      swap2\n      pop\n        /* \"#utility.yul\":6484:6577   */\n      tag_305\n        /* \"#utility.yul\":6573:6576   */\n      dup3\n        /* \"#utility.yul\":6484:6577   */\n      tag_306\n      jump\t// in\n    tag_305:\n        /* \"#utility.yul\":6602:6604   */\n      0x20\n        /* \"#utility.yul\":6597:6600   */\n      dup3\n        /* \"#utility.yul\":6593:6605   */\n      add\n        /* \"#utility.yul\":6586:6605   */\n      swap1\n      pop\n        /* \"#utility.yul\":6245:6611   */\n      swap2\n      swap1\n      pop\n      jump\t// out\n        /* \"#utility.yul\":6617:6983   */\n    tag_307:\n        /* \"#utility.yul\":6759:6762   */\n      0x00\n        /* \"#utility.yul\":6780:6847   */\n      tag_309\n        /* \"#utility.yul\":6844:6846   */\n      0x12\n        /* \"#utility.yul\":6839:6842   */\n      dup4\n        /* \"#utility.yul\":6780:6847   */\n      tag_294\n      jump\t// in\n    tag_309:\n        /* \"#utility.yul\":6773:6847   */\n      swap2\n      pop\n        /* \"#utility.yul\":6856:6949   */\n      tag_310\n        /* \"#utility.yul\":6945:6948   */\n      dup3\n        /* \"#utility.yul\":6856:6949   */\n      tag_311\n      jump\t// in\n    tag_310:\n        /* \"#utility.yul\":6974:6976   */\n      0x20\n        /* \"#utility.yul\":6969:6972   */\n      dup3\n        /* \"#utility.yul\":6965:6977   */\n      add\n        /* \"#utility.yul\":6958:6977   */\n      swap1\n      pop\n        /* \"#utility.yul\":6617:6983   */\n      swap2\n      swap1\n      pop\n      jump\t// out\n        /* \"#utility.yul\":6989:7387   */\n    tag_312:\n        /* \"#utility.yul\":7148:7151   */\n      0x00\n        /* \"#utility.yul\":7169:7252   */\n      tag_314\n        /* \"#utility.yul\":7250:7251   */\n      0x00\n        /* \"#utility.yul\":7245:7248   */\n      dup4\n        /* \"#utility.yul\":7169:7252   */\n      tag_315\n      jump\t// in\n    tag_314:\n        /* \"#utility.yul\":7162:7252   */\n      swap2\n      pop\n        /* \"#utility.yul\":7261:7354   */\n      tag_316\n        /* \"#utility.yul\":7350:7353   */\n      dup3\n        /* \"#utility.yul\":7261:7354   */\n      tag_317\n      jump\t// in\n    tag_316:\n        /* \"#utility.yul\":7379:7380   */\n      0x00\n        /* \"#utility.yul\":7374:7377   */\n      dup3\n        /* \"#utility.yul\":7370:7381   */\n      add\n        /* \"#utility.yul\":7363:7381   */\n      swap1\n      pop\n        /* \"#utility.yul\":6989:7387   */\n      swap2\n      swap1\n      pop\n      jump\t// out\n        /* \"#utility.yul\":7393:7759   */\n    tag_318:\n        /* \"#utility.yul\":7535:7538   */\n      0x00\n        /* \"#utility.yul\":7556:7623   */\n      tag_320\n        /* \"#utility.yul\":7620:7622   */\n      0x17\n        /* \"#utility.yul\":7615:7618   */\n      dup4\n        /* \"#utility.yul\":7556:7623   */\n      tag_294\n      jump\t// in\n    tag_320:\n        /* \"#utility.yul\":7549:7623   */\n      swap2\n      pop\n        /* \"#utility.yul\":7632:7725   */\n      tag_321\n        /* \"#utility.yul\":7721:7724   */\n      dup3\n        /* \"#utility.yul\":7632:7725   */\n      tag_322\n      jump\t// in\n    tag_321:\n        /* \"#utility.yul\":7750:7752   */\n      0x20\n        /* \"#utility.yul\":7745:7748   */\n      dup3\n        /* \"#utility.yul\":7741:7753   */\n      add\n        /* \"#utility.yul\":7734:7753   */\n      swap1\n      pop\n        /* \"#utility.yul\":7393:7759   */\n      swap2\n      swap1\n      pop\n      jump\t// out\n        /* \"#utility.yul\":7765:8131   */\n    tag_323:\n        /* \"#utility.yul\":7907:7910   */\n      0x00\n        /* \"#utility.yul\":7928:7995   */\n      tag_325\n        /* \"#utility.yul\":7992:7994   */\n      0x1f\n        /* \"#utility.yul\":7987:7990   */\n      dup4\n        /* \"#utility.yul\":7928:7995   */\n      tag_294\n      jump\t// in\n    tag_325:\n        /* \"#utility.yul\":7921:7995   */\n      swap2\n      pop\n        /* \"#utility.yul\":8004:8097   */\n      tag_326\n        /* \"#utility.yul\":8093:8096   */\n      dup3\n        /* \"#utility.yul\":8004:8097   */\n      tag_327\n      jump\t// in\n    tag_326:\n        /* \"#utility.yul\":8122:8124   */\n      0x20\n        /* \"#utility.yul\":8117:8120   */\n      dup3\n        /* \"#utility.yul\":8113:8125   */\n      add\n        /* \"#utility.yul\":8106:8125   */\n      swap1\n      pop\n        /* \"#utility.yul\":7765:8131   */\n      swap2\n      swap1\n      pop\n      jump\t// out\n        /* \"#utility.yul\":8137:8252   */\n    tag_328:\n        /* \"#utility.yul\":8222:8245   */\n      tag_330\n        /* \"#utility.yul\":8239:8244   */\n      dup2\n        /* \"#utility.yul\":8222:8245   */\n      tag_331\n      jump\t// in\n    tag_330:\n        /* \"#utility.yul\":8217:8220   */\n      dup3\n        /* \"#utility.yul\":8210:8246   */\n      mstore\n        /* \"#utility.yul\":8137:8252   */\n      pop\n      pop\n      jump\t// out\n        /* \"#utility.yul\":8258:8366   */\n    tag_254:\n        /* \"#utility.yul\":8335:8359   */\n      tag_333\n        /* \"#utility.yul\":8353:8358   */\n      dup2\n        /* \"#utility.yul\":8335:8359   */\n      tag_334\n      jump\t// in\n    tag_333:\n        /* \"#utility.yul\":8330:8333   */\n      dup3\n        /* \"#utility.yul\":8323:8360   */\n      mstore\n        /* \"#utility.yul\":8258:8366   */\n      pop\n      pop\n      jump\t// out\n        /* \"#utility.yul\":8372:8490   */\n    tag_335:\n        /* \"#utility.yul\":8459:8483   */\n      tag_337\n        /* \"#utility.yul\":8477:8482   */\n      dup2\n        /* \"#utility.yul\":8459:8483   */\n      tag_334\n      jump\t// in\n    tag_337:\n        /* \"#utility.yul\":8454:8457   */\n      dup3\n        /* \"#utility.yul\":8447:8484   */\n      mstore\n        /* \"#utility.yul\":8372:8490   */\n      pop\n      pop\n      jump\t// out\n        /* \"#utility.yul\":8496:8611   */\n    tag_338:\n        /* \"#utility.yul\":8581:8604   */\n      tag_340\n        /* \"#utility.yul\":8598:8603   */\n      dup2\n        /* \"#utility.yul\":8581:8604   */\n      tag_341\n      jump\t// in\n    tag_340:\n        /* \"#utility.yul\":8576:8579   */\n      dup3\n        /* \"#utility.yul\":8569:8605   */\n      mstore\n        /* \"#utility.yul\":8496:8611   */\n      pop\n      pop\n      jump\t// out\n        /* \"#utility.yul\":8617:8996   */\n    tag_135:\n        /* \"#utility.yul\":8801:8804   */\n      0x00\n        /* \"#utility.yul\":8823:8970   */\n      tag_343\n        /* \"#utility.yul\":8966:8969   */\n      dup3\n        /* \"#utility.yul\":8823:8970   */\n      tag_312\n      jump\t// in\n    tag_343:\n        /* \"#utility.yul\":8816:8970   */\n      swap2\n      pop\n        /* \"#utility.yul\":8987:8990   */\n      dup2\n        /* \"#utility.yul\":8980:8990   */\n      swap1\n      pop\n        /* \"#utility.yul\":8617:8996   */\n      swap2\n      swap1\n      pop\n      jump\t// out\n        /* \"#utility.yul\":9002:9224   */\n    tag_43:\n        /* \"#utility.yul\":9095:9099   */\n      0x00\n        /* \"#utility.yul\":9133:9135   */\n      0x20\n        /* \"#utility.yul\":9122:9131   */\n      dup3\n        /* \"#utility.yul\":9118:9136   */\n      add\n        /* \"#utility.yul\":9110:9136   */\n      swap1\n      pop\n        /* \"#utility.yul\":9146:9217   */\n      tag_345\n        /* \"#utility.yul\":9214:9215   */\n      0x00\n        /* \"#utility.yul\":9203:9212   */\n      dup4\n        /* \"#utility.yul\":9199:9216   */\n      add\n        /* \"#utility.yul\":9190:9196   */\n      dup5\n        /* \"#utility.yul\":9146:9217   */\n      tag_259\n      jump\t// in\n    tag_345:\n        /* \"#utility.yul\":9002:9224   */\n      swap3\n      swap2\n      pop\n      pop\n      jump\t// out\n        /* \"#utility.yul\":9230:9704   */\n    tag_26:\n        /* \"#utility.yul\":9395:9399   */\n      0x00\n        /* \"#utility.yul\":9433:9435   */\n      0x60\n        /* \"#utility.yul\":9422:9431   */\n      dup3\n        /* \"#utility.yul\":9418:9436   */\n      add\n        /* \"#utility.yul\":9410:9436   */\n      swap1\n      pop\n        /* \"#utility.yul\":9446:9533   */\n      tag_347\n        /* \"#utility.yul\":9530:9531   */\n      0x00\n        /* \"#utility.yul\":9519:9528   */\n      dup4\n        /* \"#utility.yul\":9515:9532   */\n      add\n        /* \"#utility.yul\":9506:9512   */\n      dup7\n        /* \"#utility.yul\":9446:9533   */\n      tag_255\n      jump\t// in\n    tag_347:\n        /* \"#utility.yul\":9543:9615   */\n      tag_348\n        /* \"#utility.yul\":9611:9613   */\n      0x20\n        /* \"#utility.yul\":9600:9609   */\n      dup4\n        /* \"#utility.yul\":9596:9614   */\n      add\n        /* \"#utility.yul\":9587:9593   */\n      dup6\n        /* \"#utility.yul\":9543:9615   */\n      tag_335\n      jump\t// in\n    tag_348:\n        /* \"#utility.yul\":9625:9697   */\n      tag_349\n        /* \"#utility.yul\":9693:9695   */\n      0x40\n        /* \"#utility.yul\":9682:9691   */\n      dup4\n        /* \"#utility.yul\":9678:9696   */\n      add\n        /* \"#utility.yul\":9669:9675   */\n      dup5\n        /* \"#utility.yul\":9625:9697   */\n      tag_335\n      jump\t// in\n    tag_349:\n        /* \"#utility.yul\":9230:9704   */\n      swap5\n      swap4\n      pop\n      pop\n      pop\n      pop\n      jump\t// out\n        /* \"#utility.yul\":9710:10042   */\n    tag_99:\n        /* \"#utility.yul\":9831:9835   */\n      0x00\n        /* \"#utility.yul\":9869:9871   */\n      0x40\n        /* \"#utility.yul\":9858:9867   */\n      dup3\n        /* \"#utility.yul\":9854:9872   */\n      add\n        /* \"#utility.yul\":9846:9872   */\n      swap1\n      pop\n        /* \"#utility.yul\":9882:9953   */\n      tag_351\n        /* \"#utility.yul\":9950:9951   */\n      0x00\n        /* \"#utility.yul\":9939:9948   */\n      dup4\n        /* \"#utility.yul\":9935:9952   */\n      add\n        /* \"#utility.yul\":9926:9932   */\n      dup6\n        /* \"#utility.yul\":9882:9953   */\n      tag_259\n      jump\t// in\n    tag_351:\n        /* \"#utility.yul\":9963:10035   */\n      tag_352\n        /* \"#utility.yul\":10031:10033   */\n      0x20\n        /* \"#utility.yul\":10020:10029   */\n      dup4\n        /* \"#utility.yul\":10016:10034   */\n      add\n        /* \"#utility.yul\":10007:10013   */\n      dup5\n        /* \"#utility.yul\":9963:10035   */\n      tag_335\n      jump\t// in\n    tag_352:\n        /* \"#utility.yul\":9710:10042   */\n      swap4\n      swap3\n      pop\n      pop\n      pop\n      jump\t// out\n        /* \"#utility.yul\":10048:10577   */\n    tag_175:\n        /* \"#utility.yul\":10215:10219   */\n      0x00\n        /* \"#utility.yul\":10253:10255   */\n      0x60\n        /* \"#utility.yul\":10242:10251   */\n      dup3\n        /* \"#utility.yul\":10238:10256   */\n      add\n        /* \"#utility.yul\":10230:10256   */\n      swap1\n      pop\n        /* \"#utility.yul\":10266:10337   */\n      tag_354\n        /* \"#utility.yul\":10334:10335   */\n      0x00\n        /* \"#utility.yul\":10323:10332   */\n      dup4\n        /* \"#utility.yul\":10319:10336   */\n      add\n        /* \"#utility.yul\":10310:10316   */\n      dup7\n        /* \"#utility.yul\":10266:10337   */\n      tag_259\n      jump\t// in\n    tag_354:\n        /* \"#utility.yul\":10347:10419   */\n      tag_355\n        /* \"#utility.yul\":10415:10417   */\n      0x20\n        /* \"#utility.yul\":10404:10413   */\n      dup4\n        /* \"#utility.yul\":10400:10418   */\n      add\n        /* \"#utility.yul\":10391:10397   */\n      dup6\n        /* \"#utility.yul\":10347:10419   */\n      tag_335\n      jump\t// in\n    tag_355:\n        /* \"#utility.yul\":10466:10475   */\n      dup2\n        /* \"#utility.yul\":10460:10464   */\n      dup2\n        /* \"#utility.yul\":10456:10476   */\n      sub\n        /* \"#utility.yul\":10451:10453   */\n      0x40\n        /* \"#utility.yul\":10440:10449   */\n      dup4\n        /* \"#utility.yul\":10436:10454   */\n      add\n        /* \"#utility.yul\":10429:10477   */\n      mstore\n        /* \"#utility.yul\":10494:10570   */\n      tag_356\n        /* \"#utility.yul\":10565:10569   */\n      dup2\n        /* \"#utility.yul\":10556:10562   */\n      dup5\n        /* \"#utility.yul\":10494:10570   */\n      tag_281\n      jump\t// in\n    tag_356:\n        /* \"#utility.yul\":10486:10570   */\n      swap1\n      pop\n        /* \"#utility.yul\":10048:10577   */\n      swap5\n      swap4\n      pop\n      pop\n      pop\n      pop\n      jump\t// out\n        /* \"#utility.yul\":10583:11002   */\n    tag_111:\n        /* \"#utility.yul\":10749:10753   */\n      0x00\n        /* \"#utility.yul\":10787:10789   */\n      0x20\n        /* \"#utility.yul\":10776:10785   */\n      dup3\n        /* \"#utility.yul\":10772:10790   */\n      add\n        /* \"#utility.yul\":10764:10790   */\n      swap1\n      pop\n        /* \"#utility.yul\":10836:10845   */\n      dup2\n        /* \"#utility.yul\":10830:10834   */\n      dup2\n        /* \"#utility.yul\":10826:10846   */\n      sub\n        /* \"#utility.yul\":10822:10823   */\n      0x00\n        /* \"#utility.yul\":10811:10820   */\n      dup4\n        /* \"#utility.yul\":10807:10824   */\n      add\n        /* \"#utility.yul\":10800:10847   */\n      mstore\n        /* \"#utility.yul\":10864:10995   */\n      tag_358\n        /* \"#utility.yul\":10990:10994   */\n      dup2\n        /* \"#utility.yul\":10864:10995   */\n      tag_291\n      jump\t// in\n    tag_358:\n        /* \"#utility.yul\":10856:10995   */\n      swap1\n      pop\n        /* \"#utility.yul\":10583:11002   */\n      swap2\n      swap1\n      pop\n      jump\t// out\n        /* \"#utility.yul\":11008:11427   */\n    tag_84:\n        /* \"#utility.yul\":11174:11178   */\n      0x00\n        /* \"#utility.yul\":11212:11214   */\n      0x20\n        /* \"#utility.yul\":11201:11210   */\n      dup3\n        /* \"#utility.yul\":11197:11215   */\n      add\n        /* \"#utility.yul\":11189:11215   */\n      swap1\n      pop\n        /* \"#utility.yul\":11261:11270   */\n      dup2\n        /* \"#utility.yul\":11255:11259   */\n      dup2\n        /* \"#utility.yul\":11251:11271   */\n      sub\n        /* \"#utility.yul\":11247:11248   */\n      0x00\n        /* \"#utility.yul\":11236:11245   */\n      dup4\n        /* \"#utility.yul\":11232:11249   */\n      add\n        /* \"#utility.yul\":11225:11272   */\n      mstore\n        /* \"#utility.yul\":11289:11420   */\n      tag_360\n        /* \"#utility.yul\":11415:11419   */\n      dup2\n        /* \"#utility.yul\":11289:11420   */\n      tag_297\n      jump\t// in\n    tag_360:\n        /* \"#utility.yul\":11281:11420   */\n      swap1\n      pop\n        /* \"#utility.yul\":11008:11427   */\n      swap2\n      swap1\n      pop\n      jump\t// out\n        /* \"#utility.yul\":11433:11852   */\n    tag_161:\n        /* \"#utility.yul\":11599:11603   */\n      0x00\n        /* \"#utility.yul\":11637:11639   */\n      0x20\n        /* \"#utility.yul\":11626:11635   */\n      dup3\n        /* \"#utility.yul\":11622:11640   */\n      add\n        /* \"#utility.yul\":11614:11640   */\n      swap1\n      pop\n        /* \"#utility.yul\":11686:11695   */\n      dup2\n        /* \"#utility.yul\":11680:11684   */\n      dup2\n        /* \"#utility.yul\":11676:11696   */\n      sub\n        /* \"#utility.yul\":11672:11673   */\n      0x00\n        /* \"#utility.yul\":11661:11670   */\n      dup4\n        /* \"#utility.yul\":11657:11674   */\n      add\n        /* \"#utility.yul\":11650:11697   */\n      mstore\n        /* \"#utility.yul\":11714:11845   */\n      tag_362\n        /* \"#utility.yul\":11840:11844   */\n      dup2\n        /* \"#utility.yul\":11714:11845   */\n      tag_302\n      jump\t// in\n    tag_362:\n        /* \"#utility.yul\":11706:11845   */\n      swap1\n      pop\n        /* \"#utility.yul\":11433:11852   */\n      swap2\n      swap1\n      pop\n      jump\t// out\n        /* \"#utility.yul\":11858:12277   */\n    tag_107:\n        /* \"#utility.yul\":12024:12028   */\n      0x00\n        /* \"#utility.yul\":12062:12064   */\n      0x20\n        /* \"#utility.yul\":12051:12060   */\n      dup3\n        /* \"#utility.yul\":12047:12065   */\n      add\n        /* \"#utility.yul\":12039:12065   */\n      swap1\n      pop\n        /* \"#utility.yul\":12111:12120   */\n      dup2\n        /* \"#utility.yul\":12105:12109   */\n      dup2\n        /* \"#utility.yul\":12101:12121   */\n      sub\n        /* \"#utility.yul\":12097:12098   */\n      0x00\n        /* \"#utility.yul\":12086:12095   */\n      dup4\n        /* \"#utility.yul\":12082:12099   */\n      add\n        /* \"#utility.yul\":12075:12122   */\n      mstore\n        /* \"#utility.yul\":12139:12270   */\n      tag_364\n        /* \"#utility.yul\":12265:12269   */\n      dup2\n        /* \"#utility.yul\":12139:12270   */\n      tag_307\n      jump\t// in\n    tag_364:\n        /* \"#utility.yul\":12131:12270   */\n      swap1\n      pop\n        /* \"#utility.yul\":11858:12277   */\n      swap2\n      swap1\n      pop\n      jump\t// out\n        /* \"#utility.yul\":12283:12702   */\n    tag_165:\n        /* \"#utility.yul\":12449:12453   */\n      0x00\n        /* \"#utility.yul\":12487:12489   */\n      0x20\n        /* \"#utility.yul\":12476:12485   */\n      dup3\n        /* \"#utility.yul\":12472:12490   */\n      add\n        /* \"#utility.yul\":12464:12490   */\n      swap1\n      pop\n        /* \"#utility.yul\":12536:12545   */\n      dup2\n        /* \"#utility.yul\":12530:12534   */\n      dup2\n        /* \"#utility.yul\":12526:12546   */\n      sub\n        /* \"#utility.yul\":12522:12523   */\n      0x00\n        /* \"#utility.yul\":12511:12520   */\n      dup4\n        /* \"#utility.yul\":12507:12524   */\n      add\n        /* \"#utility.yul\":12500:12547   */\n      mstore\n        /* \"#utility.yul\":12564:12695   */\n      tag_366\n        /* \"#utility.yul\":12690:12694   */\n      dup2\n        /* \"#utility.yul\":12564:12695   */\n      tag_318\n      jump\t// in\n    tag_366:\n        /* \"#utility.yul\":12556:12695   */\n      swap1\n      pop\n        /* \"#utility.yul\":12283:12702   */\n      swap2\n      swap1\n      pop\n      jump\t// out\n        /* \"#utility.yul\":12708:13127   */\n    tag_75:\n        /* \"#utility.yul\":12874:12878   */\n      0x00\n        /* \"#utility.yul\":12912:12914   */\n      0x20\n        /* \"#utility.yul\":12901:12910   */\n      dup3\n        /* \"#utility.yul\":12897:12915   */\n      add\n        /* \"#utility.yul\":12889:12915   */\n      swap1\n      pop\n        /* \"#utility.yul\":12961:12970   */\n      dup2\n        /* \"#utility.yul\":12955:12959   */\n      dup2\n        /* \"#utility.yul\":12951:12971   */\n      sub\n        /* \"#utility.yul\":12947:12948   */\n      0x00\n        /* \"#utility.yul\":12936:12945   */\n      dup4\n        /* \"#utility.yul\":12932:12949   */\n      add\n        /* \"#utility.yul\":12925:12972   */\n      mstore\n        /* \"#utility.yul\":12989:13120   */\n      tag_368\n        /* \"#utility.yul\":13115:13119   */\n      dup2\n        /* \"#utility.yul\":12989:13120   */\n      tag_323\n      jump\t// in\n    tag_368:\n        /* \"#utility.yul\":12981:13120   */\n      swap1\n      pop\n        /* \"#utility.yul\":12708:13127   */\n      swap2\n      swap1\n      pop\n      jump\t// out\n        /* \"#utility.yul\":13133:13355   */\n    tag_38:\n        /* \"#utility.yul\":13226:13230   */\n      0x00\n        /* \"#utility.yul\":13264:13266   */\n      0x20\n        /* \"#utility.yul\":13253:13262   */\n      dup3\n        /* \"#utility.yul\":13249:13267   */\n      add\n        /* \"#utility.yul\":13241:13267   */\n      swap1\n      pop\n        /* \"#utility.yul\":13277:13348   */\n      tag_370\n        /* \"#utility.yul\":13345:13346   */\n      0x00\n        /* \"#utility.yul\":13334:13343   */\n      dup4\n        /* \"#utility.yul\":13330:13347   */\n      add\n        /* \"#utility.yul\":13321:13327   */\n      dup5\n        /* \"#utility.yul\":13277:13348   */\n      tag_335\n      jump\t// in\n    tag_370:\n        /* \"#utility.yul\":13133:13355   */\n      swap3\n      swap2\n      pop\n      pop\n      jump\t// out\n        /* \"#utility.yul\":13361:13954   */\n    tag_125:\n        /* \"#utility.yul\":13560:13564   */\n      0x00\n        /* \"#utility.yul\":13598:13600   */\n      0x60\n        /* \"#utility.yul\":13587:13596   */\n      dup3\n        /* \"#utility.yul\":13583:13601   */\n      add\n        /* \"#utility.yul\":13575:13601   */\n      swap1\n      pop\n        /* \"#utility.yul\":13611:13682   */\n      tag_372\n        /* \"#utility.yul\":13679:13680   */\n      0x00\n        /* \"#utility.yul\":13668:13677   */\n      dup4\n        /* \"#utility.yul\":13664:13681   */\n      add\n        /* \"#utility.yul\":13655:13661   */\n      dup7\n        /* \"#utility.yul\":13611:13682   */\n      tag_335\n      jump\t// in\n    tag_372:\n        /* \"#utility.yul\":13729:13738   */\n      dup2\n        /* \"#utility.yul\":13723:13727   */\n      dup2\n        /* \"#utility.yul\":13719:13739   */\n      sub\n        /* \"#utility.yul\":13714:13716   */\n      0x20\n        /* \"#utility.yul\":13703:13712   */\n      dup4\n        /* \"#utility.yul\":13699:13717   */\n      add\n        /* \"#utility.yul\":13692:13740   */\n      mstore\n        /* \"#utility.yul\":13757:13865   */\n      tag_373\n        /* \"#utility.yul\":13860:13864   */\n      dup2\n        /* \"#utility.yul\":13851:13857   */\n      dup6\n        /* \"#utility.yul\":13757:13865   */\n      tag_263\n      jump\t// in\n    tag_373:\n        /* \"#utility.yul\":13749:13865   */\n      swap1\n      pop\n        /* \"#utility.yul\":13875:13947   */\n      tag_374\n        /* \"#utility.yul\":13943:13945   */\n      0x40\n        /* \"#utility.yul\":13932:13941   */\n      dup4\n        /* \"#utility.yul\":13928:13946   */\n      add\n        /* \"#utility.yul\":13919:13925   */\n      dup5\n        /* \"#utility.yul\":13875:13947   */\n      tag_335\n      jump\t// in\n    tag_374:\n        /* \"#utility.yul\":13361:13954   */\n      swap5\n      swap4\n      pop\n      pop\n      pop\n      pop\n      jump\t// out\n        /* \"#utility.yul\":13960:14280   */\n    tag_52:\n        /* \"#utility.yul\":14075:14079   */\n      0x00\n        /* \"#utility.yul\":14113:14115   */\n      0x40\n        /* \"#utility.yul\":14102:14111   */\n      dup3\n        /* \"#utility.yul\":14098:14116   */\n      add\n        /* \"#utility.yul\":14090:14116   */\n      swap1\n      pop\n        /* \"#utility.yul\":14126:14197   */\n      tag_376\n        /* \"#utility.yul\":14194:14195   */\n      0x00\n        /* \"#utility.yul\":14183:14192   */\n      dup4\n        /* \"#utility.yul\":14179:14196   */\n      add\n        /* \"#utility.yul\":14170:14176   */\n      dup6\n        /* \"#utility.yul\":14126:14197   */\n      tag_335\n      jump\t// in\n    tag_376:\n        /* \"#utility.yul\":14207:14273   */\n      tag_377\n        /* \"#utility.yul\":14269:14271   */\n      0x20\n        /* \"#utility.yul\":14258:14267   */\n      dup4\n        /* \"#utility.yul\":14254:14272   */\n      add\n        /* \"#utility.yul\":14245:14251   */\n      dup5\n        /* \"#utility.yul\":14207:14273   */\n      tag_277\n      jump\t// in\n    tag_377:\n        /* \"#utility.yul\":13960:14280   */\n      swap4\n      swap3\n      pop\n      pop\n      pop\n      jump\t// out\n        /* \"#utility.yul\":14286:14867   */\n    tag_62:\n        /* \"#utility.yul\":14479:14483   */\n      0x00\n        /* \"#utility.yul\":14517:14519   */\n      0x60\n        /* \"#utility.yul\":14506:14515   */\n      dup3\n        /* \"#utility.yul\":14502:14520   */\n      add\n        /* \"#utility.yul\":14494:14520   */\n      swap1\n      pop\n        /* \"#utility.yul\":14530:14601   */\n      tag_379\n        /* \"#utility.yul\":14598:14599   */\n      0x00\n        /* \"#utility.yul\":14587:14596   */\n      dup4\n        /* \"#utility.yul\":14583:14600   */\n      add\n        /* \"#utility.yul\":14574:14580   */\n      dup7\n        /* \"#utility.yul\":14530:14601   */\n      tag_335\n      jump\t// in\n    tag_379:\n        /* \"#utility.yul\":14611:14677   */\n      tag_380\n        /* \"#utility.yul\":14673:14675   */\n      0x20\n        /* \"#utility.yul\":14662:14671   */\n      dup4\n        /* \"#utility.yul\":14658:14676   */\n      add\n        /* \"#utility.yul\":14649:14655   */\n      dup6\n        /* \"#utility.yul\":14611:14677   */\n      tag_277\n      jump\t// in\n    tag_380:\n        /* \"#utility.yul\":14724:14733   */\n      dup2\n        /* \"#utility.yul\":14718:14722   */\n      dup2\n        /* \"#utility.yul\":14714:14734   */\n      sub\n        /* \"#utility.yul\":14709:14711   */\n      0x40\n        /* \"#utility.yul\":14698:14707   */\n      dup4\n        /* \"#utility.yul\":14694:14712   */\n      add\n        /* \"#utility.yul\":14687:14735   */\n      mstore\n        /* \"#utility.yul\":14752:14860   */\n      tag_381\n        /* \"#utility.yul\":14855:14859   */\n      dup2\n        /* \"#utility.yul\":14846:14852   */\n      dup5\n        /* \"#utility.yul\":14752:14860   */\n      tag_263\n      jump\t// in\n    tag_381:\n        /* \"#utility.yul\":14744:14860   */\n      swap1\n      pop\n        /* \"#utility.yul\":14286:14867   */\n      swap5\n      swap4\n      pop\n      pop\n      pop\n      pop\n      jump\t// out\n        /* \"#utility.yul\":14873:15201   */\n    tag_157:\n        /* \"#utility.yul\":14992:14996   */\n      0x00\n        /* \"#utility.yul\":15030:15032   */\n      0x40\n        /* \"#utility.yul\":15019:15028   */\n      dup3\n        /* \"#utility.yul\":15015:15033   */\n      add\n        /* \"#utility.yul\":15007:15033   */\n      swap1\n      pop\n        /* \"#utility.yul\":15043:15114   */\n      tag_383\n        /* \"#utility.yul\":15111:15112   */\n      0x00\n        /* \"#utility.yul\":15100:15109   */\n      dup4\n        /* \"#utility.yul\":15096:15113   */\n      add\n        /* \"#utility.yul\":15087:15093   */\n      dup6\n        /* \"#utility.yul\":15043:15114   */\n      tag_335\n      jump\t// in\n    tag_383:\n        /* \"#utility.yul\":15124:15194   */\n      tag_384\n        /* \"#utility.yul\":15190:15192   */\n      0x20\n        /* \"#utility.yul\":15179:15188   */\n      dup4\n        /* \"#utility.yul\":15175:15193   */\n      add\n        /* \"#utility.yul\":15166:15172   */\n      dup5\n        /* \"#utility.yul\":15124:15194   */\n      tag_338\n      jump\t// in\n    tag_384:\n        /* \"#utility.yul\":14873:15201   */\n      swap4\n      swap3\n      pop\n      pop\n      pop\n      jump\t// out\n        /* \"#utility.yul\":15207:15425   */\n    tag_145:\n        /* \"#utility.yul\":15298:15302   */\n      0x00\n        /* \"#utility.yul\":15336:15338   */\n      0x20\n        /* \"#utility.yul\":15325:15334   */\n      dup3\n        /* \"#utility.yul\":15321:15339   */\n      add\n        /* \"#utility.yul\":15313:15339   */\n      swap1\n      pop\n        /* \"#utility.yul\":15349:15418   */\n      tag_386\n        /* \"#utility.yul\":15415:15416   */\n      0x00\n        /* \"#utility.yul\":15404:15413   */\n      dup4\n        /* \"#utility.yul\":15400:15417   */\n      add\n        /* \"#utility.yul\":15391:15397   */\n      dup5\n        /* \"#utility.yul\":15349:15418   */\n      tag_338\n      jump\t// in\n    tag_386:\n        /* \"#utility.yul\":15207:15425   */\n      swap3\n      swap2\n      pop\n      pop\n      jump\t// out\n        /* \"#utility.yul\":15431:15861   */\n    tag_173:\n        /* \"#utility.yul\":15574:15578   */\n      0x00\n        /* \"#utility.yul\":15612:15614   */\n      0x60\n        /* \"#utility.yul\":15601:15610   */\n      dup3\n        /* \"#utility.yul\":15597:15615   */\n      add\n        /* \"#utility.yul\":15589:15615   */\n      swap1\n      pop\n        /* \"#utility.yul\":15625:15694   */\n      tag_388\n        /* \"#utility.yul\":15691:15692   */\n      0x00\n        /* \"#utility.yul\":15680:15689   */\n      dup4\n        /* \"#utility.yul\":15676:15693   */\n      add\n        /* \"#utility.yul\":15667:15673   */\n      dup7\n        /* \"#utility.yul\":15625:15694   */\n      tag_338\n      jump\t// in\n    tag_388:\n        /* \"#utility.yul\":15704:15774   */\n      tag_389\n        /* \"#utility.yul\":15770:15772   */\n      0x20\n        /* \"#utility.yul\":15759:15768   */\n      dup4\n        /* \"#utility.yul\":15755:15773   */\n      add\n        /* \"#utility.yul\":15746:15752   */\n      dup6\n        /* \"#utility.yul\":15704:15774   */\n      tag_328\n      jump\t// in\n    tag_389:\n        /* \"#utility.yul\":15784:15854   */\n      tag_390\n        /* \"#utility.yul\":15850:15852   */\n      0x40\n        /* \"#utility.yul\":15839:15848   */\n      dup4\n        /* \"#utility.yul\":15835:15853   */\n      add\n        /* \"#utility.yul\":15826:15832   */\n      dup5\n        /* \"#utility.yul\":15784:15854   */\n      tag_338\n      jump\t// in\n    tag_390:\n        /* \"#utility.yul\":15431:15861   */\n      swap5\n      swap4\n      pop\n      pop\n      pop\n      pop\n      jump\t// out\n        /* \"#utility.yul\":15867:15996   */\n    tag_197:\n        /* \"#utility.yul\":15901:15907   */\n      0x00\n        /* \"#utility.yul\":15928:15948   */\n      tag_392\n      tag_393\n      jump\t// in\n    tag_392:\n        /* \"#utility.yul\":15918:15948   */\n      swap1\n      pop\n        /* \"#utility.yul\":15957:15990   */\n      tag_394\n        /* \"#utility.yul\":15985:15989   */\n      dup3\n        /* \"#utility.yul\":15977:15983   */\n      dup3\n        /* \"#utility.yul\":15957:15990   */\n      tag_395\n      jump\t// in\n    tag_394:\n        /* \"#utility.yul\":15867:15996   */\n      swap2\n      swap1\n      pop\n      jump\t// out\n        /* \"#utility.yul\":16002:16077   */\n    tag_393:\n        /* \"#utility.yul\":16035:16041   */\n      0x00\n        /* \"#utility.yul\":16068:16070   */\n      0x40\n        /* \"#utility.yul\":16062:16071   */\n      mload\n        /* \"#utility.yul\":16052:16071   */\n      swap1\n      pop\n        /* \"#utility.yul\":16002:16077   */\n      swap1\n      jump\t// out\n        /* \"#utility.yul\":16083:16394   */\n    tag_196:\n        /* \"#utility.yul\":16160:16164   */\n      0x00\n        /* \"#utility.yul\":16250:16268   */\n      0xffffffffffffffff\n        /* \"#utility.yul\":16242:16248   */\n      dup3\n        /* \"#utility.yul\":16239:16269   */\n      gt\n        /* \"#utility.yul\":16236:16292   */\n      iszero\n      tag_398\n      jumpi\n        /* \"#utility.yul\":16272:16290   */\n      tag_399\n      tag_152\n      jump\t// in\n    tag_399:\n        /* \"#utility.yul\":16236:16292   */\n    tag_398:\n        /* \"#utility.yul\":16322:16326   */\n      0x20\n        /* \"#utility.yul\":16314:16320   */\n      dup3\n        /* \"#utility.yul\":16310:16327   */\n      mul\n        /* \"#utility.yul\":16302:16327   */\n      swap1\n      pop\n        /* \"#utility.yul\":16382:16386   */\n      0x20\n        /* \"#utility.yul\":16376:16380   */\n      dup2\n        /* \"#utility.yul\":16372:16387   */\n      add\n        /* \"#utility.yul\":16364:16387   */\n      swap1\n      pop\n        /* \"#utility.yul\":16083:16394   */\n      swap2\n      swap1\n      pop\n      jump\t// out\n        /* \"#utility.yul\":16400:16532   */\n    tag_270:\n        /* \"#utility.yul\":16467:16471   */\n      0x00\n        /* \"#utility.yul\":16490:16493   */\n      dup2\n        /* \"#utility.yul\":16482:16493   */\n      swap1\n      pop\n        /* \"#utility.yul\":16520:16524   */\n      0x20\n        /* \"#utility.yul\":16515:16518   */\n      dup3\n        /* \"#utility.yul\":16511:16525   */\n      add\n        /* \"#utility.yul\":16503:16525   */\n      swap1\n      pop\n        /* \"#utility.yul\":16400:16532   */\n      swap2\n      swap1\n      pop\n      jump\t// out\n        /* \"#utility.yul\":16538:16652   */\n    tag_266:\n        /* \"#utility.yul\":16605:16611   */\n      0x00\n        /* \"#utility.yul\":16639:16644   */\n      dup2\n        /* \"#utility.yul\":16633:16645   */\n      mload\n        /* \"#utility.yul\":16623:16645   */\n      swap1\n      pop\n        /* \"#utility.yul\":16538:16652   */\n      swap2\n      swap1\n      pop\n      jump\t// out\n        /* \"#utility.yul\":16658:16756   */\n    tag_284:\n        /* \"#utility.yul\":16709:16715   */\n      0x00\n        /* \"#utility.yul\":16743:16748   */\n      dup2\n        /* \"#utility.yul\":16737:16749   */\n      mload\n        /* \"#utility.yul\":16727:16749   */\n      swap1\n      pop\n        /* \"#utility.yul\":16658:16756   */\n      swap2\n      swap1\n      pop\n      jump\t// out\n        /* \"#utility.yul\":16762:16875   */\n    tag_276:\n        /* \"#utility.yul\":16832:16836   */\n      0x00\n        /* \"#utility.yul\":16864:16868   */\n      0x20\n        /* \"#utility.yul\":16859:16862   */\n      dup3\n        /* \"#utility.yul\":16855:16869   */\n      add\n        /* \"#utility.yul\":16847:16869   */\n      swap1\n      pop\n        /* \"#utility.yul\":16762:16875   */\n      swap2\n      swap1\n      pop\n      jump\t// out\n        /* \"#utility.yul\":16881:17065   */\n    tag_268:\n        /* \"#utility.yul\":16980:16991   */\n      0x00\n        /* \"#utility.yul\":17014:17020   */\n      dup3\n        /* \"#utility.yul\":17009:17012   */\n      dup3\n        /* \"#utility.yul\":17002:17021   */\n      mstore\n        /* \"#utility.yul\":17054:17058   */\n      0x20\n        /* \"#utility.yul\":17049:17052   */\n      dup3\n        /* \"#utility.yul\":17045:17059   */\n      add\n        /* \"#utility.yul\":17030:17059   */\n      swap1\n      pop\n        /* \"#utility.yul\":16881:17065   */\n      swap3\n      swap2\n      pop\n      pop\n      jump\t// out\n        /* \"#utility.yul\":17071:17239   */\n    tag_286:\n        /* \"#utility.yul\":17154:17165   */\n      0x00\n        /* \"#utility.yul\":17188:17194   */\n      dup3\n        /* \"#utility.yul\":17183:17186   */\n      dup3\n        /* \"#utility.yul\":17176:17195   */\n      mstore\n        /* \"#utility.yul\":17228:17232   */\n      0x20\n        /* \"#utility.yul\":17223:17226   */\n      dup3\n        /* \"#utility.yul\":17219:17233   */\n      add\n        /* \"#utility.yul\":17204:17233   */\n      swap1\n      pop\n        /* \"#utility.yul\":17071:17239   */\n      swap3\n      swap2\n      pop\n      pop\n      jump\t// out\n        /* \"#utility.yul\":17245:17392   */\n    tag_315:\n        /* \"#utility.yul\":17346:17357   */\n      0x00\n        /* \"#utility.yul\":17383:17386   */\n      dup2\n        /* \"#utility.yul\":17368:17386   */\n      swap1\n      pop\n        /* \"#utility.yul\":17245:17392   */\n      swap3\n      swap2\n      pop\n      pop\n      jump\t// out\n        /* \"#utility.yul\":17398:17567   */\n    tag_294:\n        /* \"#utility.yul\":17482:17493   */\n      0x00\n        /* \"#utility.yul\":17516:17522   */\n      dup3\n        /* \"#utility.yul\":17511:17514   */\n      dup3\n        /* \"#utility.yul\":17504:17523   */\n      mstore\n        /* \"#utility.yul\":17556:17560   */\n      0x20\n        /* \"#utility.yul\":17551:17554   */\n      dup3\n        /* \"#utility.yul\":17547:17561   */\n      add\n        /* \"#utility.yul\":17532:17561   */\n      swap1\n      pop\n        /* \"#utility.yul\":17398:17567   */\n      swap3\n      swap2\n      pop\n      pop\n      jump\t// out\n        /* \"#utility.yul\":17573:17921   */\n    tag_133:\n        /* \"#utility.yul\":17613:17620   */\n      0x00\n        /* \"#utility.yul\":17636:17656   */\n      tag_409\n        /* \"#utility.yul\":17654:17655   */\n      dup3\n        /* \"#utility.yul\":17636:17656   */\n      tag_334\n      jump\t// in\n    tag_409:\n        /* \"#utility.yul\":17631:17656   */\n      swap2\n      pop\n        /* \"#utility.yul\":17670:17690   */\n      tag_410\n        /* \"#utility.yul\":17688:17689   */\n      dup4\n        /* \"#utility.yul\":17670:17690   */\n      tag_334\n      jump\t// in\n    tag_410:\n        /* \"#utility.yul\":17665:17690   */\n      swap3\n      pop\n        /* \"#utility.yul\":17858:17859   */\n      dup2\n        /* \"#utility.yul\":17790:17856   */\n      0xffffffffffffffffffffffffffffffffffffffffffffffffffffffffffffffff\n        /* \"#utility.yul\":17786:17860   */\n      div\n        /* \"#utility.yul\":17783:17784   */\n      dup4\n        /* \"#utility.yul\":17780:17861   */\n      gt\n        /* \"#utility.yul\":17775:17776   */\n      dup3\n        /* \"#utility.yul\":17768:17777   */\n      iszero\n        /* \"#utility.yul\":17761:17778   */\n      iszero\n        /* \"#utility.yul\":17757:17862   */\n      and\n        /* \"#utility.yul\":17754:17885   */\n      iszero\n      tag_411\n      jumpi\n        /* \"#utility.yul\":17865:17883   */\n      tag_412\n      tag_413\n      jump\t// in\n    tag_412:\n        /* \"#utility.yul\":17754:17885   */\n    tag_411:\n        /* \"#utility.yul\":17913:17914   */\n      dup3\n        /* \"#utility.yul\":17910:17911   */\n      dup3\n        /* \"#utility.yul\":17906:17915   */\n      mul\n        /* \"#utility.yul\":17895:17915   */\n      swap1\n      pop\n        /* \"#utility.yul\":17573:17921   */\n      swap3\n      swap2\n      pop\n      pop\n      jump\t// out\n        /* \"#utility.yul\":17927:18023   */\n    tag_262:\n        /* \"#utility.yul\":17964:17971   */\n      0x00\n        /* \"#utility.yul\":17993:18017   */\n      tag_415\n        /* \"#utility.yul\":18011:18016   */\n      dup3\n        /* \"#utility.yul\":17993:18017   */\n      tag_416\n      jump\t// in\n    tag_415:\n        /* \"#utility.yul\":17982:18017   */\n      swap1\n      pop\n        /* \"#utility.yul\":17927:18023   */\n      swap2\n      swap1\n      pop\n      jump\t// out\n        /* \"#utility.yul\":18029:18133   */\n    tag_258:\n        /* \"#utility.yul\":18074:18081   */\n      0x00\n        /* \"#utility.yul\":18103:18127   */\n      tag_418\n        /* \"#utility.yul\":18121:18126   */\n      dup3\n        /* \"#utility.yul\":18103:18127   */\n      tag_416\n      jump\t// in\n    tag_418:\n        /* \"#utility.yul\":18092:18127   */\n      swap1\n      pop\n        /* \"#utility.yul\":18029:18133   */\n      swap2\n      swap1\n      pop\n      jump\t// out\n        /* \"#utility.yul\":18139:18229   */\n    tag_280:\n        /* \"#utility.yul\":18173:18180   */\n      0x00\n        /* \"#utility.yul\":18216:18221   */\n      dup2\n        /* \"#utility.yul\":18209:18222   */\n      iszero\n        /* \"#utility.yul\":18202:18223   */\n      iszero\n        /* \"#utility.yul\":18191:18223   */\n      swap1\n      pop\n        /* \"#utility.yul\":18139:18229   */\n      swap2\n      swap1\n      pop\n      jump\t// out\n        /* \"#utility.yul\":18235:18324   */\n    tag_331:\n        /* \"#utility.yul\":18271:18278   */\n      0x00\n        /* \"#utility.yul\":18311:18317   */\n      0xffff\n        /* \"#utility.yul\":18304:18309   */\n      dup3\n        /* \"#utility.yul\":18300:18318   */\n      and\n        /* \"#utility.yul\":18289:18318   */\n      swap1\n      pop\n        /* \"#utility.yul\":18235:18324   */\n      swap2\n      swap1\n      pop\n      jump\t// out\n        /* \"#utility.yul\":18330:18456   */\n    tag_416:\n        /* \"#utility.yul\":18367:18374   */\n      0x00\n        /* \"#utility.yul\":18407:18449   */\n      0xffffffffffffffffffffffffffffffffffffffff\n        /* \"#utility.yul\":18400:18405   */\n      dup3\n        /* \"#utility.yul\":18396:18450   */\n      and\n        /* \"#utility.yul\":18385:18450   */\n      swap1\n      pop\n        /* \"#utility.yul\":18330:18456   */\n      swap2\n      swap1\n      pop\n      jump\t// out\n        /* \"#utility.yul\":18462:18539   */\n    tag_334:\n        /* \"#utility.yul\":18499:18506   */\n      0x00\n        /* \"#utility.yul\":18528:18533   */\n      dup2\n        /* \"#utility.yul\":18517:18533   */\n      swap1\n      pop\n        /* \"#utility.yul\":18462:18539   */\n      swap2\n      swap1\n      pop\n      jump\t// out\n        /* \"#utility.yul\":18545:18638   */\n    tag_341:\n        /* \"#utility.yul\":18581:18588   */\n      0x00\n        /* \"#utility.yul\":18621:18631   */\n      0xffffffff\n        /* \"#utility.yul\":18614:18619   */\n      dup3\n        /* \"#utility.yul\":18610:18632   */\n      and\n        /* \"#utility.yul\":18599:18632   */\n      swap1\n      pop\n        /* \"#utility.yul\":18545:18638   */\n      swap2\n      swap1\n      pop\n      jump\t// out\n        /* \"#utility.yul\":18644:18951   */\n    tag_288:\n        /* \"#utility.yul\":18712:18713   */\n      0x00\n        /* \"#utility.yul\":18722:18835   */\n    tag_425:\n        /* \"#utility.yul\":18736:18742   */\n      dup4\n        /* \"#utility.yul\":18733:18734   */\n      dup2\n        /* \"#utility.yul\":18730:18743   */\n      lt\n        /* \"#utility.yul\":18722:18835   */\n      iszero\n      tag_427\n      jumpi\n        /* \"#utility.yul\":18821:18822   */\n      dup1\n        /* \"#utility.yul\":18816:18819   */\n      dup3\n        /* \"#utility.yul\":18812:18823   */\n      add\n        /* \"#utility.yul\":18806:18824   */\n      mload\n        /* \"#utility.yul\":18802:18803   */\n      dup2\n        /* \"#utility.yul\":18797:18800   */\n      dup5\n        /* \"#utility.yul\":18793:18804   */\n      add\n        /* \"#utility.yul\":18786:18825   */\n      mstore\n        /* \"#utility.yul\":18758:18760   */\n      0x20\n        /* \"#utility.yul\":18755:18756   */\n      dup2\n        /* \"#utility.yul\":18751:18761   */\n      add\n        /* \"#utility.yul\":18746:18761   */\n      swap1\n      pop\n        /* \"#utility.yul\":18722:18835   */\n      jump(tag_425)\n    tag_427:\n        /* \"#utility.yul\":18853:18859   */\n      dup4\n        /* \"#utility.yul\":18850:18851   */\n      dup2\n        /* \"#utility.yul\":18847:18860   */\n      gt\n        /* \"#utility.yul\":18844:18945   */\n      iszero\n      tag_428\n      jumpi\n        /* \"#utility.yul\":18933:18934   */\n      0x00\n        /* \"#utility.yul\":18924:18930   */\n      dup5\n        /* \"#utility.yul\":18919:18922   */\n      dup5\n        /* \"#utility.yul\":18915:18931   */\n      add\n        /* \"#utility.yul\":18908:18935   */\n      mstore\n        /* \"#utility.yul\":18844:18945   */\n    tag_428:\n        /* \"#utility.yul\":18693:18951   */\n      pop\n        /* \"#utility.yul\":18644:18951   */\n      pop\n      pop\n      pop\n      jump\t// out\n        /* \"#utility.yul\":18957:19238   */\n    tag_395:\n        /* \"#utility.yul\":19040:19067   */\n      tag_430\n        /* \"#utility.yul\":19062:19066   */\n      dup3\n        /* \"#utility.yul\":19040:19067   */\n      tag_290\n      jump\t// in\n    tag_430:\n        /* \"#utility.yul\":19032:19038   */\n      dup2\n        /* \"#utility.yul\":19028:19068   */\n      add\n        /* \"#utility.yul\":19170:19176   */\n      dup2\n        /* \"#utility.yul\":19158:19168   */\n      dup2\n        /* \"#utility.yul\":19155:19177   */\n      lt\n        /* \"#utility.yul\":19134:19152   */\n      0xffffffffffffffff\n        /* \"#utility.yul\":19122:19132   */\n      dup3\n        /* \"#utility.yul\":19119:19153   */\n      gt\n        /* \"#utility.yul\":19116:19178   */\n      or\n        /* \"#utility.yul\":19113:19201   */\n      iszero\n      tag_431\n      jumpi\n        /* \"#utility.yul\":19181:19199   */\n      tag_432\n      tag_152\n      jump\t// in\n    tag_432:\n        /* \"#utility.yul\":19113:19201   */\n    tag_431:\n        /* \"#utility.yul\":19221:19231   */\n      dup1\n        /* \"#utility.yul\":19217:19219   */\n      0x40\n        /* \"#utility.yul\":19210:19232   */\n      mstore\n        /* \"#utility.yul\":19000:19238   */\n      pop\n        /* \"#utility.yul\":18957:19238   */\n      pop\n      pop\n      jump\t// out\n        /* \"#utility.yul\":19244:19420   */\n    tag_130:\n        /* \"#utility.yul\":19276:19277   */\n      0x00\n        /* \"#utility.yul\":19293:19313   */\n      tag_434\n        /* \"#utility.yul\":19311:19312   */\n      dup3\n        /* \"#utility.yul\":19293:19313   */\n      tag_334\n      jump\t// in\n    tag_434:\n        /* \"#utility.yul\":19288:19313   */\n      swap2\n      pop\n        /* \"#utility.yul\":19327:19347   */\n      tag_435\n        /* \"#utility.yul\":19345:19346   */\n      dup4\n        /* \"#utility.yul\":19327:19347   */\n      tag_334\n      jump\t// in\n    tag_435:\n        /* \"#utility.yul\":19322:19347   */\n      swap3\n      pop\n        /* \"#utility.yul\":19366:19367   */\n      dup3\n        /* \"#utility.yul\":19356:19391   */\n      tag_436\n      jumpi\n        /* \"#utility.yul\":19371:19389   */\n      tag_437\n      tag_438\n      jump\t// in\n    tag_437:\n        /* \"#utility.yul\":19356:19391   */\n    tag_436:\n        /* \"#utility.yul\":19412:19413   */\n      dup3\n        /* \"#utility.yul\":19409:19410   */\n      dup3\n        /* \"#utility.yul\":19405:19414   */\n      mod\n        /* \"#utility.yul\":19400:19414   */\n      swap1\n      pop\n        /* \"#utility.yul\":19244:19420   */\n      swap3\n      swap2\n      pop\n      pop\n      jump\t// out\n        /* \"#utility.yul\":19426:19606   */\n    tag_413:\n        /* \"#utility.yul\":19474:19551   */\n      0x4e487b7100000000000000000000000000000000000000000000000000000000\n        /* \"#utility.yul\":19471:19472   */\n      0x00\n        /* \"#utility.yul\":19464:19552   */\n      mstore\n        /* \"#utility.yul\":19571:19575   */\n      0x11\n        /* \"#utility.yul\":19568:19569   */\n      0x04\n        /* \"#utility.yul\":19561:19576   */\n      mstore\n        /* \"#utility.yul\":19595:19599   */\n      0x24\n        /* \"#utility.yul\":19592:19593   */\n      0x00\n        /* \"#utility.yul\":19585:19600   */\n      revert\n        /* \"#utility.yul\":19612:19792   */\n    tag_438:\n        /* \"#utility.yul\":19660:19737   */\n      0x4e487b7100000000000000000000000000000000000000000000000000000000\n        /* \"#utility.yul\":19657:19658   */\n      0x00\n        /* \"#utility.yul\":19650:19738   */\n      mstore\n        /* \"#utility.yul\":19757:19761   */\n      0x12\n        /* \"#utility.yul\":19754:19755   */\n      0x04\n        /* \"#utility.yul\":19747:19762   */\n      mstore\n        /* \"#utility.yul\":19781:19785   */\n      0x24\n        /* \"#utility.yul\":19778:19779   */\n      0x00\n        /* \"#utility.yul\":19771:19786   */\n      revert\n        /* \"#utility.yul\":19798:19978   */\n    tag_128:\n        /* \"#utility.yul\":19846:19923   */\n      0x4e487b7100000000000000000000000000000000000000000000000000000000\n        /* \"#utility.yul\":19843:19844   */\n      0x00\n        /* \"#utility.yul\":19836:19924   */\n      mstore\n        /* \"#utility.yul\":19943:19947   */\n      0x32\n        /* \"#utility.yul\":19940:19941   */\n      0x04\n        /* \"#utility.yul\":19933:19948   */\n      mstore\n        /* \"#utility.yul\":19967:19971   */\n      0x24\n        /* \"#utility.yul\":19964:19965   */\n      0x00\n        /* \"#utility.yul\":19957:19972   */\n      revert\n        /* \"#utility.yul\":19984:20164   */\n    tag_152:\n        /* \"#utility.yul\":20032:20109   */\n      0x4e487b7100000000000000000000000000000000000000000000000000000000\n        /* \"#utility.yul\":20029:20030   */\n      0x00\n        /* \"#utility.yul\":20022:20110   */\n      mstore\n        /* \"#utility.yul\":20129:20133   */\n      0x41\n        /* \"#utility.yul\":20126:20127   */\n      0x04\n        /* \"#utility.yul\":20119:20134   */\n      mstore\n        /* \"#utility.yul\":20153:20157   */\n      0x24\n        /* \"#utility.yul\":20150:20151   */\n      0x00\n        /* \"#utility.yul\":20143:20158   */\n      revert\n        /* \"#utility.yul\":20170:20287   */\n    tag_214:\n        /* \"#utility.yul\":20279:20280   */\n      0x00\n        /* \"#utility.yul\":20276:20277   */\n      dup1\n        /* \"#utility.yul\":20269:20281   */\n      revert\n        /* \"#utility.yul\":20293:20410   */\n    tag_200:\n        /* \"#utility.yul\":20402:20403   */\n      0x00\n        /* \"#utility.yul\":20399:20400   */\n      dup1\n        /* \"#utility.yul\":20392:20404   */\n      revert\n        /* \"#utility.yul\":20416:20533   */\n    tag_249:\n        /* \"#utility.yul\":20525:20526   */\n      0x00\n        /* \"#utility.yul\":20522:20523   */\n      dup1\n        /* \"#utility.yul\":20515:20527   */\n      revert\n        /* \"#utility.yul\":20539:20656   */\n    tag_229:\n        /* \"#utility.yul\":20648:20649   */\n      0x00\n        /* \"#utility.yul\":20645:20646   */\n      dup1\n        /* \"#utility.yul\":20638:20650   */\n      revert\n        /* \"#utility.yul\":20662:20764   */\n    tag_290:\n        /* \"#utility.yul\":20703:20709   */\n      0x00\n        /* \"#utility.yul\":20754:20756   */\n      0x1f\n        /* \"#utility.yul\":20750:20757   */\n      not\n        /* \"#utility.yul\":20745:20747   */\n      0x1f\n        /* \"#utility.yul\":20738:20743   */\n      dup4\n        /* \"#utility.yul\":20734:20748   */\n      add\n        /* \"#utility.yul\":20730:20758   */\n      and\n        /* \"#utility.yul\":20720:20758   */\n      swap1\n      pop\n        /* \"#utility.yul\":20662:20764   */\n      swap2\n      swap1\n      pop\n      jump\t// out\n        /* \"#utility.yul\":20770:20937   */\n    tag_296:\n        /* \"#utility.yul\":20910:20929   */\n      0x72657175657374206e6f7420666f756e64000000000000000000000000000000\n        /* \"#utility.yul\":20906:20907   */\n      0x00\n        /* \"#utility.yul\":20898:20904   */\n      dup3\n        /* \"#utility.yul\":20894:20908   */\n      add\n        /* \"#utility.yul\":20887:20930   */\n      mstore\n        /* \"#utility.yul\":20770:20937   */\n      pop\n      jump\t// out\n        /* \"#utility.yul\":20943:21115   */\n    tag_301:\n        /* \"#utility.yul\":21083:21107   */\n      0x4d7573742062652070726f706f736564206f776e657200000000000000000000\n        /* \"#utility.yul\":21079:21080   */\n      0x00\n        /* \"#utility.yul\":21071:21077   */\n      dup3\n        /* \"#utility.yul\":21067:21081   */\n      add\n        /* \"#utility.yul\":21060:21108   */\n      mstore\n        /* \"#utility.yul\":20943:21115   */\n      pop\n      jump\t// out\n        /* \"#utility.yul\":21121:21293   */\n    tag_306:\n        /* \"#utility.yul\":21261:21285   */\n      0x4f6e6c792063616c6c61626c65206279206f776e657200000000000000000000\n        /* \"#utility.yul\":21257:21258   */\n      0x00\n        /* \"#utility.yul\":21249:21255   */\n      dup3\n        /* \"#utility.yul\":21245:21259   */\n      add\n        /* \"#utility.yul\":21238:21286   */\n      mstore\n        /* \"#utility.yul\":21121:21293   */\n      pop\n      jump\t// out\n        /* \"#utility.yul\":21299:21467   */\n    tag_311:\n        /* \"#utility.yul\":21439:21459   */\n      0x556e61626c6520746f207472616e736665720000000000000000000000000000\n        /* \"#utility.yul\":21435:21436   */\n      0x00\n        /* \"#utility.yul\":21427:21433   */\n      dup3\n        /* \"#utility.yul\":21423:21437   */\n      add\n        /* \"#utility.yul\":21416:21460   */\n      mstore\n        /* \"#utility.yul\":21299:21467   */\n      pop\n      jump\t// out\n        /* \"#utility.yul\":21473:21587   */\n    tag_317:\n      pop\n      jump\t// out\n        /* \"#utility.yul\":21593:21766   */\n    tag_322:\n        /* \"#utility.yul\":21733:21758   */\n      0x43616e6e6f74207472616e7366657220746f2073656c66000000000000000000\n        /* \"#utility.yul\":21729:21730   */\n      0x00\n        /* \"#utility.yul\":21721:21727   */\n      dup3\n        /* \"#utility.yul\":21717:21731   */\n      add\n        /* \"#utility.yul\":21710:21759   */\n      mstore\n        /* \"#utility.yul\":21593:21766   */\n      pop\n      jump\t// out\n        /* \"#utility.yul\":21772:21953   */\n    tag_327:\n        /* \"#utility.yul\":21912:21945   */\n      0x6f6e6c792056524620563220777261707065722063616e2066756c66696c6c00\n        /* \"#utility.yul\":21908:21909   */\n      0x00\n        /* \"#utility.yul\":21900:21906   */\n      dup3\n        /* \"#utility.yul\":21896:21910   */\n      add\n        /* \"#utility.yul\":21889:21946   */\n      mstore\n        /* \"#utility.yul\":21772:21953   */\n      pop\n      jump\t// out\n        /* \"#utility.yul\":21959:22081   */\n    tag_209:\n        /* \"#utility.yul\":22032:22056   */\n      tag_456\n        /* \"#utility.yul\":22050:22055   */\n      dup2\n        /* \"#utility.yul\":22032:22056   */\n      tag_262\n      jump\t// in\n    tag_456:\n        /* \"#utility.yul\":22025:22030   */\n      dup2\n        /* \"#utility.yul\":22022:22057   */\n      eq\n        /* \"#utility.yul\":22012:22075   */\n      tag_457\n      jumpi\n        /* \"#utility.yul\":22071:22072   */\n      0x00\n        /* \"#utility.yul\":22068:22069   */\n      dup1\n        /* \"#utility.yul\":22061:22073   */\n      revert\n        /* \"#utility.yul\":22012:22075   */\n    tag_457:\n        /* \"#utility.yul\":21959:22081   */\n      pop\n      jump\t// out\n        /* \"#utility.yul\":22087:22203   */\n    tag_219:\n        /* \"#utility.yul\":22157:22178   */\n      tag_459\n        /* \"#utility.yul\":22172:22177   */\n      dup2\n        /* \"#utility.yul\":22157:22178   */\n      tag_280\n      jump\t// in\n    tag_459:\n        /* \"#utility.yul\":22150:22155   */\n      dup2\n        /* \"#utility.yul\":22147:22179   */\n      eq\n        /* \"#utility.yul\":22137:22197   */\n      tag_460\n      jumpi\n        /* \"#utility.yul\":22193:22194   */\n      0x00\n        /* \"#utility.yul\":22190:22191   */\n      dup1\n        /* \"#utility.yul\":22183:22195   */\n      revert\n        /* \"#utility.yul\":22137:22197   */\n    tag_460:\n        /* \"#utility.yul\":22087:22203   */\n      pop\n      jump\t// out\n        /* \"#utility.yul\":22209:22331   */\n    tag_222:\n        /* \"#utility.yul\":22282:22306   */\n      tag_462\n        /* \"#utility.yul\":22300:22305   */\n      dup2\n        /* \"#utility.yul\":22282:22306   */\n      tag_334\n      jump\t// in\n    tag_462:\n        /* \"#utility.yul\":22275:22280   */\n      dup2\n        /* \"#utility.yul\":22272:22307   */\n      eq\n        /* \"#utility.yul\":22262:22325   */\n      tag_463\n      jumpi\n        /* \"#utility.yul\":22321:22322   */\n      0x00\n        /* \"#utility.yul\":22318:22319   */\n      dup1\n        /* \"#utility.yul\":22311:22323   */\n      revert\n        /* \"#utility.yul\":22262:22325   */\n    tag_463:\n        /* \"#utility.yul\":22209:22331   */\n      pop\n      jump\t// out\n\n    auxdata: 0xa264697066735822122083e6bd8794c23d022754989e6af5f3ea4483dece303799eb2a747c9936b488ee64736f6c63430008070033\n}\n",
				"bytecode": {
					"linkReferences": {},
					"object": "60c0604052620186a0600560006101000a81548163ffffffff021916908363ffffffff1602179055506003600560046101000a81548161ffff021916908361ffff1602179055506002600560066101000a81548163ffffffff021916908363ffffffff160217905550738ac089a6fc01a9f831858acae2be7e32c23ae1c06005600a6101000a81548173ffffffffffffffffffffffffffffffffffffffff021916908373ffffffffffffffffffffffffffffffffffffffff16021790555073708701a1dff4f478de54383e49a627ed4852c816600660006101000a81548173ffffffffffffffffffffffffffffffffffffffff021916908373ffffffffffffffffffffffffffffffffffffffff1602179055503480156200011f57600080fd5b50338060006005600a9054906101000a900473ffffffffffffffffffffffffffffffffffffffff16600660009054906101000a900473ffffffffffffffffffffffffffffffffffffffff168173ffffffffffffffffffffffffffffffffffffffff1660808173ffffffffffffffffffffffffffffffffffffffff1660601b815250508073ffffffffffffffffffffffffffffffffffffffff1660a08173ffffffffffffffffffffffffffffffffffffffff1660601b815250505050600073ffffffffffffffffffffffffffffffffffffffff168273ffffffffffffffffffffffffffffffffffffffff1614156200024d576040517f08c379a000000000000000000000000000000000000000000000000000000000815260040162000244906200045b565b60405180910390fd5b816000806101000a81548173ffffffffffffffffffffffffffffffffffffffff021916908373ffffffffffffffffffffffffffffffffffffffff160217905550600073ffffffffffffffffffffffffffffffffffffffff168173ffffffffffffffffffffffffffffffffffffffff1614620002d457620002d381620002dd60201b60201c565b5b50505062000502565b3373ffffffffffffffffffffffffffffffffffffffff168173ffffffffffffffffffffffffffffffffffffffff1614156200034f576040517f08c379a000000000000000000000000000000000000000000000000000000000815260040162000346906200047d565b60405180910390fd5b80600160006101000a81548173ffffffffffffffffffffffffffffffffffffffff021916908373ffffffffffffffffffffffffffffffffffffffff1602179055508073ffffffffffffffffffffffffffffffffffffffff1660008054906101000a900473ffffffffffffffffffffffffffffffffffffffff1673ffffffffffffffffffffffffffffffffffffffff167fed8889f560326eb138920d842192f0eb3dd22b4f139c87a2c57538e05bae127860405160405180910390a350565b60006200041c6018836200049f565b91506200042982620004b0565b602082019050919050565b6000620004436017836200049f565b91506200045082620004d9565b602082019050919050565b6000602082019050818103600083015262000476816200040d565b9050919050565b60006020820190508181036000830152620004988162000434565b9050919050565b600082825260208201905092915050565b7f43616e6e6f7420736574206f776e657220746f207a65726f0000000000000000600082015250565b7f43616e6e6f74207472616e7366657220746f2073656c66000000000000000000600082015250565b60805160601c60a05160601c611db66200054a600039600081816102c401528181610c0601528181610ff201528181611013015261115101526000610fb60152611db66000f3fe6080604052600436106100a75760003560e01c80638dc654a2116100645780638dc654a2146101af578063a168fa89146101c6578063bfb3047f14610204578063d8a4676f1461022f578063f2fde38b1461026e578063fc2a88c314610297576100a7565b80631fe543e3146100ac57806334461067146100d55780635873533d1461011457806379ba5097146101305780638796ba8c146101475780638da5cb5b14610184575b600080fd5b3480156100b857600080fd5b506100d360048036038101906100ce9190611406565b6102c2565b005b3480156100e157600080fd5b506100fc60048036038101906100f791906113ac565b61035e565b60405161010b9392919061169f565b60405180910390f35b61012e600480360381019061012991906113ac565b6103a8565b005b34801561013c57600080fd5b50610145610466565b005b34801561015357600080fd5b5061016e600480360381019061016991906113ac565b6105fb565b60405161017b91906117fd565b60405180910390f35b34801561019057600080fd5b5061019961061f565b6040516101a69190611684565b60405180910390f35b3480156101bb57600080fd5b506101c4610648565b005b3480156101d257600080fd5b506101ed60048036038101906101e891906113ac565b6107ce565b6040516101fb929190611856565b60405180910390f35b34801561021057600080fd5b506102196107ff565b60405161022691906117fd565b60405180910390f35b34801561023b57600080fd5b50610256600480360381019061025191906113ac565b610805565b6040516102659392919061187f565b60405180910390f35b34801561027a57600080fd5b5061029560048036038101906102909190611352565b61091f565b005b3480156102a357600080fd5b506102ac610933565b6040516102b991906117fd565b60405180910390f35b7f000000000000000000000000000000000000000000000000000000000000000073ffffffffffffffffffffffffffffffffffffffff163373ffffffffffffffffffffffffffffffffffffffff1614610350576040517f08c379a0000000000000000000000000000000000000000000000000000000008152600401610347906117dd565b60405180910390fd5b61035a8282610939565b5050565b60076020528060005260406000206000915090508060000160009054906101000a900473ffffffffffffffffffffffffffffffffffffffff16908060010154908060020154905083565b600033905060006103b7610bae565b9050600060405180606001604052808473ffffffffffffffffffffffffffffffffffffffff168152602001858152602001348152509050806007600084815260200190815260200160002060008201518160000160006101000a81548173ffffffffffffffffffffffffffffffffffffffff021916908373ffffffffffffffffffffffffffffffffffffffff160217905550602082015181600101556040820151816002015590505050505050565b600160009054906101000a900473ffffffffffffffffffffffffffffffffffffffff1673ffffffffffffffffffffffffffffffffffffffff163373ffffffffffffffffffffffffffffffffffffffff16146104f6576040517f08c379a00000000000000000000000000000000000000000000000000000000081526004016104ed9061175d565b60405180910390fd5b60008060009054906101000a900473ffffffffffffffffffffffffffffffffffffffff169050336000806101000a81548173ffffffffffffffffffffffffffffffffffffffff021916908373ffffffffffffffffffffffffffffffffffffffff1602179055506000600160006101000a81548173ffffffffffffffffffffffffffffffffffffffff021916908373ffffffffffffffffffffffffffffffffffffffff1602179055503373ffffffffffffffffffffffffffffffffffffffff168173ffffffffffffffffffffffffffffffffffffffff167f8be0079c531659141344cd1fd0a4f28419497f9722a3daafe3b4186f6b6457e060405160405180910390a350565b6003818154811061060b57600080fd5b906000526020600020016000915090505481565b60008060009054906101000a900473ffffffffffffffffffffffffffffffffffffffff16905090565b610650610df5565b60006005600a9054906101000a900473ffffffffffffffffffffffffffffffffffffffff1690508073ffffffffffffffffffffffffffffffffffffffff1663a9059cbb338373ffffffffffffffffffffffffffffffffffffffff166370a08231306040518263ffffffff1660e01b81526004016106cd9190611684565b60206040518083038186803b1580156106e557600080fd5b505afa1580156106f9573d6000803e3d6000fd5b505050506040513d601f19601f8201168201806040525081019061071d91906113d9565b6040518363ffffffff1660e01b815260040161073a9291906116d6565b602060405180830381600087803b15801561075457600080fd5b505af1158015610768573d6000803e3d6000fd5b505050506040513d601f19601f8201168201806040525081019061078c919061137f565b6107cb576040517f08c379a00000000000000000000000000000000000000000000000000000000081526004016107c29061179d565b60405180910390fd5b50565b60026020528060005260406000206000915090508060000154908060010160009054906101000a900460ff16905082565b60085481565b60008060606000600260008681526020019081526020016000206000015411610863576040517f08c379a000000000000000000000000000000000000000000000000000000000815260040161085a9061173d565b60405180910390fd5b600060026000868152602001908152602001600020604051806060016040529081600082015481526020016001820160009054906101000a900460ff16151515158152602001600282018054806020026020016040519081016040528092919081815260200182805480156108f757602002820191906000526020600020905b8154815260200190600101908083116108e3575b5050505050815250509050806000015181602001518260400151935093509350509193909250565b610927610df5565b61093081610e85565b50565b60045481565b6000600260008481526020019081526020016000206000015411610992576040517f08c379a00000000000000000000000000000000000000000000000000000000081526004016109899061173d565b60405180910390fd5b60016002600084815260200190815260200160002060010160006101000a81548160ff021916908315150217905550806002600084815260200190815260200160002060020190805190602001906109eb9291906111f6565b507f147eb1ff0c82f87f2b03e2c43f5a36488ff63ec6b730195fde4605f612f8db5182826002600086815260200190815260200160002060000154604051610a3593929190611818565b60405180910390a1600081600081518110610a5357610a52611bbf565b5b602002602001015190506000600760008581526020019081526020016000206040518060600160405290816000820160009054906101000a900473ffffffffffffffffffffffffffffffffffffffff1673ffffffffffffffffffffffffffffffffffffffff1673ffffffffffffffffffffffffffffffffffffffff1681526020016001820154815260200160028201548152505090506000816040015190506000826020015190506000836000015190506000600686610b139190611b30565b90508060088190555082811415610ba4576000600285610b3391906119fa565b905060008373ffffffffffffffffffffffffffffffffffffffff1682604051610b5b9061166f565b60006040518083038185875af1925050503d8060008114610b98576040519150601f19603f3d011682016040523d82523d6000602084013e610b9d565b606091505b5050905050505b5050505050505050565b6000610bb8610df5565b610bf7600560009054906101000a900463ffffffff16600560049054906101000a900461ffff16600560069054906101000a900463ffffffff16610fb2565b905060405180606001604052807f000000000000000000000000000000000000000000000000000000000000000073ffffffffffffffffffffffffffffffffffffffff16634306d354600560009054906101000a900463ffffffff166040518263ffffffff1660e01b8152600401610c6f91906118e6565b60206040518083038186803b158015610c8757600080fd5b505afa158015610c9b573d6000803e3d6000fd5b505050506040513d601f19601f82011682018060405250810190610cbf91906113d9565b8152602001600015158152602001600067ffffffffffffffff811115610ce857610ce7611bee565b5b604051908082528060200260200182016040528015610d165781602001602082028036833780820191505090505b50815250600260008381526020019081526020016000206000820151816000015560208201518160010160006101000a81548160ff0219169083151502179055506040820151816002019080519060200190610d739291906111f6565b509050506003819080600181540180825580915050600190039060005260206000200160009091909190915055806004819055507fcc58b13ad3eab50626c6a6300b1d139cd6ebb1688a7cced9461c2f7e762665ee81600560069054906101000a900463ffffffff16604051610dea9291906118bd565b60405180910390a190565b60008054906101000a900473ffffffffffffffffffffffffffffffffffffffff1673ffffffffffffffffffffffffffffffffffffffff163373ffffffffffffffffffffffffffffffffffffffff1614610e83576040517f08c379a0000000000000000000000000000000000000000000000000000000008152600401610e7a9061177d565b60405180910390fd5b565b3373ffffffffffffffffffffffffffffffffffffffff168173ffffffffffffffffffffffffffffffffffffffff161415610ef4576040517f08c379a0000000000000000000000000000000000000000000000000000000008152600401610eeb906117bd565b60405180910390fd5b80600160006101000a81548173ffffffffffffffffffffffffffffffffffffffff021916908373ffffffffffffffffffffffffffffffffffffffff1602179055508073ffffffffffffffffffffffffffffffffffffffff1660008054906101000a900473ffffffffffffffffffffffffffffffffffffffff1673ffffffffffffffffffffffffffffffffffffffff167fed8889f560326eb138920d842192f0eb3dd22b4f139c87a2c57538e05bae127860405160405180910390a350565b60007f000000000000000000000000000000000000000000000000000000000000000073ffffffffffffffffffffffffffffffffffffffff16634000aea07f00000000000000000000000000000000000000000000000000000000000000007f000000000000000000000000000000000000000000000000000000000000000073ffffffffffffffffffffffffffffffffffffffff16634306d354886040518263ffffffff1660e01b815260040161106a91906118e6565b60206040518083038186803b15801561108257600080fd5b505afa158015611096573d6000803e3d6000fd5b505050506040513d601f19601f820116820180604052508101906110ba91906113d9565b8787876040516020016110cf93929190611901565b6040516020818303038152906040526040518463ffffffff1660e01b81526004016110fc939291906116ff565b602060405180830381600087803b15801561111657600080fd5b505af115801561112a573d6000803e3d6000fd5b505050506040513d601f19601f8201168201806040525081019061114e919061137f565b507f000000000000000000000000000000000000000000000000000000000000000073ffffffffffffffffffffffffffffffffffffffff1663fc2a88c36040518163ffffffff1660e01b815260040160206040518083038186803b1580156111b557600080fd5b505afa1580156111c9573d6000803e3d6000fd5b505050506040513d601f19601f820116820180604052508101906111ed91906113d9565b90509392505050565b828054828255906000526020600020908101928215611232579160200282015b82811115611231578251825591602001919060010190611216565b5b50905061123f9190611243565b5090565b5b8082111561125c576000816000905550600101611244565b5090565b600061127361126e8461195d565b611938565b9050808382526020820190508285602086028201111561129657611295611c22565b5b60005b858110156112c657816112ac8882611328565b845260208401935060208301925050600181019050611299565b5050509392505050565b6000813590506112df81611d3b565b92915050565b600082601f8301126112fa576112f9611c1d565b5b813561130a848260208601611260565b91505092915050565b60008151905061132281611d52565b92915050565b60008135905061133781611d69565b92915050565b60008151905061134c81611d69565b92915050565b60006020828403121561136857611367611c2c565b5b6000611376848285016112d0565b91505092915050565b60006020828403121561139557611394611c2c565b5b60006113a384828501611313565b91505092915050565b6000602082840312156113c2576113c1611c2c565b5b60006113d084828501611328565b91505092915050565b6000602082840312156113ef576113ee611c2c565b5b60006113fd8482850161133d565b91505092915050565b6000806040838503121561141d5761141c611c2c565b5b600061142b85828601611328565b925050602083013567ffffffffffffffff81111561144c5761144b611c27565b5b611458858286016112e5565b9150509250929050565b600061146e8383611642565b60208301905092915050565b61148381611a66565b82525050565b61149281611a54565b82525050565b60006114a382611999565b6114ad81856119bc565b93506114b883611989565b8060005b838110156114e95781516114d08882611462565b97506114db836119af565b9250506001810190506114bc565b5085935050505092915050565b6114ff81611a78565b82525050565b6000611510826119a4565b61151a81856119cd565b935061152a818560208601611acc565b61153381611c31565b840191505092915050565b600061154b6011836119e9565b915061155682611c42565b602082019050919050565b600061156e6016836119e9565b915061157982611c6b565b602082019050919050565b60006115916016836119e9565b915061159c82611c94565b602082019050919050565b60006115b46012836119e9565b91506115bf82611cbd565b602082019050919050565b60006115d76000836119de565b91506115e282611ce6565b600082019050919050565b60006115fa6017836119e9565b915061160582611ce9565b602082019050919050565b600061161d601f836119e9565b915061162882611d12565b602082019050919050565b61163c81611a84565b82525050565b61164b81611ab2565b82525050565b61165a81611ab2565b82525050565b61166981611abc565b82525050565b600061167a826115ca565b9150819050919050565b60006020820190506116996000830184611489565b92915050565b60006060820190506116b4600083018661147a565b6116c16020830185611651565b6116ce6040830184611651565b949350505050565b60006040820190506116eb6000830185611489565b6116f86020830184611651565b9392505050565b60006060820190506117146000830186611489565b6117216020830185611651565b81810360408301526117338184611505565b9050949350505050565b600060208201905081810360008301526117568161153e565b9050919050565b6000602082019050818103600083015261177681611561565b9050919050565b6000602082019050818103600083015261179681611584565b9050919050565b600060208201905081810360008301526117b6816115a7565b9050919050565b600060208201905081810360008301526117d6816115ed565b9050919050565b600060208201905081810360008301526117f681611610565b9050919050565b60006020820190506118126000830184611651565b92915050565b600060608201905061182d6000830186611651565b818103602083015261183f8185611498565b905061184e6040830184611651565b949350505050565b600060408201905061186b6000830185611651565b61187860208301846114f6565b9392505050565b60006060820190506118946000830186611651565b6118a160208301856114f6565b81810360408301526118b38184611498565b9050949350505050565b60006040820190506118d26000830185611651565b6118df6020830184611660565b9392505050565b60006020820190506118fb6000830184611660565b92915050565b60006060820190506119166000830186611660565b6119236020830185611633565b6119306040830184611660565b949350505050565b6000611942611953565b905061194e8282611aff565b919050565b6000604051905090565b600067ffffffffffffffff82111561197857611977611bee565b5b602082029050602081019050919050565b6000819050602082019050919050565b600081519050919050565b600081519050919050565b6000602082019050919050565b600082825260208201905092915050565b600082825260208201905092915050565b600081905092915050565b600082825260208201905092915050565b6000611a0582611ab2565b9150611a1083611ab2565b9250817fffffffffffffffffffffffffffffffffffffffffffffffffffffffffffffffff0483118215151615611a4957611a48611b61565b5b828202905092915050565b6000611a5f82611a92565b9050919050565b6000611a7182611a92565b9050919050565b60008115159050919050565b600061ffff82169050919050565b600073ffffffffffffffffffffffffffffffffffffffff82169050919050565b6000819050919050565b600063ffffffff82169050919050565b60005b83811015611aea578082015181840152602081019050611acf565b83811115611af9576000848401525b50505050565b611b0882611c31565b810181811067ffffffffffffffff82111715611b2757611b26611bee565b5b80604052505050565b6000611b3b82611ab2565b9150611b4683611ab2565b925082611b5657611b55611b90565b5b828206905092915050565b7f4e487b7100000000000000000000000000000000000000000000000000000000600052601160045260246000fd5b7f4e487b7100000000000000000000000000000000000000000000000000000000600052601260045260246000fd5b7f4e487b7100000000000000000000000000000000000000000000000000000000600052603260045260246000fd5b7f4e487b7100000000000000000000000000000000000000000000000000000000600052604160045260246000fd5b600080fd5b600080fd5b600080fd5b600080fd5b6000601f19601f8301169050919050565b7f72657175657374206e6f7420666f756e64000000000000000000000000000000600082015250565b7f4d7573742062652070726f706f736564206f776e657200000000000000000000600082015250565b7f4f6e6c792063616c6c61626c65206279206f776e657200000000000000000000600082015250565b7f556e61626c6520746f207472616e736665720000000000000000000000000000600082015250565b50565b7f43616e6e6f74207472616e7366657220746f2073656c66000000000000000000600082015250565b7f6f6e6c792056524620563220777261707065722063616e2066756c66696c6c00600082015250565b611d4481611a54565b8114611d4f57600080fd5b50565b611d5b81611a78565b8114611d6657600080fd5b50565b611d7281611ab2565b8114611d7d57600080fd5b5056fea264697066735822122083e6bd8794c23d022754989e6af5f3ea4483dece303799eb2a747c9936b488ee64736f6c63430008070033",
					"opcodes": "PUSH1 0xC0 PUSH1 0x40 MSTORE PUSH3 0x186A0 PUSH1 0x5 PUSH1 0x0 PUSH2 0x100 EXP DUP2 SLOAD DUP2 PUSH4 0xFFFFFFFF MUL NOT AND SWAP1 DUP4 PUSH4 0xFFFFFFFF AND MUL OR SWAP1 SSTORE POP PUSH1 0x3 PUSH1 0x5 PUSH1 0x4 PUSH2 0x100 EXP DUP2 SLOAD DUP2 PUSH2 0xFFFF MUL NOT AND SWAP1 DUP4 PUSH2 0xFFFF AND MUL OR SWAP1 SSTORE POP PUSH1 0x2 PUSH1 0x5 PUSH1 0x6 PUSH2 0x100 EXP DUP2 SLOAD DUP2 PUSH4 0xFFFFFFFF MUL NOT AND SWAP1 DUP4 PUSH4 0xFFFFFFFF AND MUL OR SWAP1 SSTORE POP PUSH20 0x8AC089A6FC01A9F831858ACAE2BE7E32C23AE1C0 PUSH1 0x5 PUSH1 0xA PUSH2 0x100 EXP DUP2 SLOAD DUP2 PUSH20 0xFFFFFFFFFFFFFFFFFFFFFFFFFFFFFFFFFFFFFFFF MUL NOT AND SWAP1 DUP4 PUSH20 0xFFFFFFFFFFFFFFFFFFFFFFFFFFFFFFFFFFFFFFFF AND MUL OR SWAP1 SSTORE POP PUSH20 0x708701A1DFF4F478DE54383E49A627ED4852C816 PUSH1 0x6 PUSH1 0x0 PUSH2 0x100 EXP DUP2 SLOAD DUP2 PUSH20 0xFFFFFFFFFFFFFFFFFFFFFFFFFFFFFFFFFFFFFFFF MUL NOT AND SWAP1 DUP4 PUSH20 0xFFFFFFFFFFFFFFFFFFFFFFFFFFFFFFFFFFFFFFFF AND MUL OR SWAP1 SSTORE POP CALLVALUE DUP1 ISZERO PUSH3 0x11F JUMPI PUSH1 0x0 DUP1 REVERT JUMPDEST POP CALLER DUP1 PUSH1 0x0 PUSH1 0x5 PUSH1 0xA SWAP1 SLOAD SWAP1 PUSH2 0x100 EXP SWAP1 DIV PUSH20 0xFFFFFFFFFFFFFFFFFFFFFFFFFFFFFFFFFFFFFFFF AND PUSH1 0x6 PUSH1 0x0 SWAP1 SLOAD SWAP1 PUSH2 0x100 EXP SWAP1 DIV PUSH20 0xFFFFFFFFFFFFFFFFFFFFFFFFFFFFFFFFFFFFFFFF AND DUP2 PUSH20 0xFFFFFFFFFFFFFFFFFFFFFFFFFFFFFFFFFFFFFFFF AND PUSH1 0x80 DUP2 PUSH20 0xFFFFFFFFFFFFFFFFFFFFFFFFFFFFFFFFFFFFFFFF AND PUSH1 0x60 SHL DUP2 MSTORE POP POP DUP1 PUSH20 0xFFFFFFFFFFFFFFFFFFFFFFFFFFFFFFFFFFFFFFFF AND PUSH1 0xA0 DUP2 PUSH20 0xFFFFFFFFFFFFFFFFFFFFFFFFFFFFFFFFFFFFFFFF AND PUSH1 0x60 SHL DUP2 MSTORE POP POP POP POP PUSH1 0x0 PUSH20 0xFFFFFFFFFFFFFFFFFFFFFFFFFFFFFFFFFFFFFFFF AND DUP3 PUSH20 0xFFFFFFFFFFFFFFFFFFFFFFFFFFFFFFFFFFFFFFFF AND EQ ISZERO PUSH3 0x24D JUMPI PUSH1 0x40 MLOAD PUSH32 0x8C379A000000000000000000000000000000000000000000000000000000000 DUP2 MSTORE PUSH1 0x4 ADD PUSH3 0x244 SWAP1 PUSH3 0x45B JUMP JUMPDEST PUSH1 0x40 MLOAD DUP1 SWAP2 SUB SWAP1 REVERT JUMPDEST DUP2 PUSH1 0x0 DUP1 PUSH2 0x100 EXP DUP2 SLOAD DUP2 PUSH20 0xFFFFFFFFFFFFFFFFFFFFFFFFFFFFFFFFFFFFFFFF MUL NOT AND SWAP1 DUP4 PUSH20 0xFFFFFFFFFFFFFFFFFFFFFFFFFFFFFFFFFFFFFFFF AND MUL OR SWAP1 SSTORE POP PUSH1 0x0 PUSH20 0xFFFFFFFFFFFFFFFFFFFFFFFFFFFFFFFFFFFFFFFF AND DUP2 PUSH20 0xFFFFFFFFFFFFFFFFFFFFFFFFFFFFFFFFFFFFFFFF AND EQ PUSH3 0x2D4 JUMPI PUSH3 0x2D3 DUP2 PUSH3 0x2DD PUSH1 0x20 SHL PUSH1 0x20 SHR JUMP JUMPDEST JUMPDEST POP POP POP PUSH3 0x502 JUMP JUMPDEST CALLER PUSH20 0xFFFFFFFFFFFFFFFFFFFFFFFFFFFFFFFFFFFFFFFF AND DUP2 PUSH20 0xFFFFFFFFFFFFFFFFFFFFFFFFFFFFFFFFFFFFFFFF AND EQ ISZERO PUSH3 0x34F JUMPI PUSH1 0x40 MLOAD PUSH32 0x8C379A000000000000000000000000000000000000000000000000000000000 DUP2 MSTORE PUSH1 0x4 ADD PUSH3 0x346 SWAP1 PUSH3 0x47D JUMP JUMPDEST PUSH1 0x40 MLOAD DUP1 SWAP2 SUB SWAP1 REVERT JUMPDEST DUP1 PUSH1 0x1 PUSH1 0x0 PUSH2 0x100 EXP DUP2 SLOAD DUP2 PUSH20 0xFFFFFFFFFFFFFFFFFFFFFFFFFFFFFFFFFFFFFFFF MUL NOT AND SWAP1 DUP4 PUSH20 0xFFFFFFFFFFFFFFFFFFFFFFFFFFFFFFFFFFFFFFFF AND MUL OR SWAP1 SSTORE POP DUP1 PUSH20 0xFFFFFFFFFFFFFFFFFFFFFFFFFFFFFFFFFFFFFFFF AND PUSH1 0x0 DUP1 SLOAD SWAP1 PUSH2 0x100 EXP SWAP1 DIV PUSH20 0xFFFFFFFFFFFFFFFFFFFFFFFFFFFFFFFFFFFFFFFF AND PUSH20 0xFFFFFFFFFFFFFFFFFFFFFFFFFFFFFFFFFFFFFFFF AND PUSH32 0xED8889F560326EB138920D842192F0EB3DD22B4F139C87A2C57538E05BAE1278 PUSH1 0x40 MLOAD PUSH1 0x40 MLOAD DUP1 SWAP2 SUB SWAP1 LOG3 POP JUMP JUMPDEST PUSH1 0x0 PUSH3 0x41C PUSH1 0x18 DUP4 PUSH3 0x49F JUMP JUMPDEST SWAP2 POP PUSH3 0x429 DUP3 PUSH3 0x4B0 JUMP JUMPDEST PUSH1 0x20 DUP3 ADD SWAP1 POP SWAP2 SWAP1 POP JUMP JUMPDEST PUSH1 0x0 PUSH3 0x443 PUSH1 0x17 DUP4 PUSH3 0x49F JUMP JUMPDEST SWAP2 POP PUSH3 0x450 DUP3 PUSH3 0x4D9 JUMP JUMPDEST PUSH1 0x20 DUP3 ADD SWAP1 POP SWAP2 SWAP1 POP JUMP JUMPDEST PUSH1 0x0 PUSH1 0x20 DUP3 ADD SWAP1 POP DUP2 DUP2 SUB PUSH1 0x0 DUP4 ADD MSTORE PUSH3 0x476 DUP2 PUSH3 0x40D JUMP JUMPDEST SWAP1 POP SWAP2 SWAP1 POP JUMP JUMPDEST PUSH1 0x0 PUSH1 0x20 DUP3 ADD SWAP1 POP DUP2 DUP2 SUB PUSH1 0x0 DUP4 ADD MSTORE PUSH3 0x498 DUP2 PUSH3 0x434 JUMP JUMPDEST SWAP1 POP SWAP2 SWAP1 POP JUMP JUMPDEST PUSH1 0x0 DUP3 DUP3 MSTORE PUSH1 0x20 DUP3 ADD SWAP1 POP SWAP3 SWAP2 POP POP JUMP JUMPDEST PUSH32 0x43616E6E6F7420736574206F776E657220746F207A65726F0000000000000000 PUSH1 0x0 DUP3 ADD MSTORE POP JUMP JUMPDEST PUSH32 0x43616E6E6F74207472616E7366657220746F2073656C66000000000000000000 PUSH1 0x0 DUP3 ADD MSTORE POP JUMP JUMPDEST PUSH1 0x80 MLOAD PUSH1 0x60 SHR PUSH1 0xA0 MLOAD PUSH1 0x60 SHR PUSH2 0x1DB6 PUSH3 0x54A PUSH1 0x0 CODECOPY PUSH1 0x0 DUP2 DUP2 PUSH2 0x2C4 ADD MSTORE DUP2 DUP2 PUSH2 0xC06 ADD MSTORE DUP2 DUP2 PUSH2 0xFF2 ADD MSTORE DUP2 DUP2 PUSH2 0x1013 ADD MSTORE PUSH2 0x1151 ADD MSTORE PUSH1 0x0 PUSH2 0xFB6 ADD MSTORE PUSH2 0x1DB6 PUSH1 0x0 RETURN INVALID PUSH1 0x80 PUSH1 0x40 MSTORE PUSH1 0x4 CALLDATASIZE LT PUSH2 0xA7 JUMPI PUSH1 0x0 CALLDATALOAD PUSH1 0xE0 SHR DUP1 PUSH4 0x8DC654A2 GT PUSH2 0x64 JUMPI DUP1 PUSH4 0x8DC654A2 EQ PUSH2 0x1AF JUMPI DUP1 PUSH4 0xA168FA89 EQ PUSH2 0x1C6 JUMPI DUP1 PUSH4 0xBFB3047F EQ PUSH2 0x204 JUMPI DUP1 PUSH4 0xD8A4676F EQ PUSH2 0x22F JUMPI DUP1 PUSH4 0xF2FDE38B EQ PUSH2 0x26E JUMPI DUP1 PUSH4 0xFC2A88C3 EQ PUSH2 0x297 JUMPI PUSH2 0xA7 JUMP JUMPDEST DUP1 PUSH4 0x1FE543E3 EQ PUSH2 0xAC JUMPI DUP1 PUSH4 0x34461067 EQ PUSH2 0xD5 JUMPI DUP1 PUSH4 0x5873533D EQ PUSH2 0x114 JUMPI DUP1 PUSH4 0x79BA5097 EQ PUSH2 0x130 JUMPI DUP1 PUSH4 0x8796BA8C EQ PUSH2 0x147 JUMPI DUP1 PUSH4 0x8DA5CB5B EQ PUSH2 0x184 JUMPI JUMPDEST PUSH1 0x0 DUP1 REVERT JUMPDEST CALLVALUE DUP1 ISZERO PUSH2 0xB8 JUMPI PUSH1 0x0 DUP1 REVERT JUMPDEST POP PUSH2 0xD3 PUSH1 0x4 DUP1 CALLDATASIZE SUB DUP2 ADD SWAP1 PUSH2 0xCE SWAP2 SWAP1 PUSH2 0x1406 JUMP JUMPDEST PUSH2 0x2C2 JUMP JUMPDEST STOP JUMPDEST CALLVALUE DUP1 ISZERO PUSH2 0xE1 JUMPI PUSH1 0x0 DUP1 REVERT JUMPDEST POP PUSH2 0xFC PUSH1 0x4 DUP1 CALLDATASIZE SUB DUP2 ADD SWAP1 PUSH2 0xF7 SWAP2 SWAP1 PUSH2 0x13AC JUMP JUMPDEST PUSH2 0x35E JUMP JUMPDEST PUSH1 0x40 MLOAD PUSH2 0x10B SWAP4 SWAP3 SWAP2 SWAP1 PUSH2 0x169F JUMP JUMPDEST PUSH1 0x40 MLOAD DUP1 SWAP2 SUB SWAP1 RETURN JUMPDEST PUSH2 0x12E PUSH1 0x4 DUP1 CALLDATASIZE SUB DUP2 ADD SWAP1 PUSH2 0x129 SWAP2 SWAP1 PUSH2 0x13AC JUMP JUMPDEST PUSH2 0x3A8 JUMP JUMPDEST STOP JUMPDEST CALLVALUE DUP1 ISZERO PUSH2 0x13C JUMPI PUSH1 0x0 DUP1 REVERT JUMPDEST POP PUSH2 0x145 PUSH2 0x466 JUMP JUMPDEST STOP JUMPDEST CALLVALUE DUP1 ISZERO PUSH2 0x153 JUMPI PUSH1 0x0 DUP1 REVERT JUMPDEST POP PUSH2 0x16E PUSH1 0x4 DUP1 CALLDATASIZE SUB DUP2 ADD SWAP1 PUSH2 0x169 SWAP2 SWAP1 PUSH2 0x13AC JUMP JUMPDEST PUSH2 0x5FB JUMP JUMPDEST PUSH1 0x40 MLOAD PUSH2 0x17B SWAP2 SWAP1 PUSH2 0x17FD JUMP JUMPDEST PUSH1 0x40 MLOAD DUP1 SWAP2 SUB SWAP1 RETURN JUMPDEST CALLVALUE DUP1 ISZERO PUSH2 0x190 JUMPI PUSH1 0x0 DUP1 REVERT JUMPDEST POP PUSH2 0x199 PUSH2 0x61F JUMP JUMPDEST PUSH1 0x40 MLOAD PUSH2 0x1A6 SWAP2 SWAP1 PUSH2 0x1684 JUMP JUMPDEST PUSH1 0x40 MLOAD DUP1 SWAP2 SUB SWAP1 RETURN JUMPDEST CALLVALUE DUP1 ISZERO PUSH2 0x1BB JUMPI PUSH1 0x0 DUP1 REVERT JUMPDEST POP PUSH2 0x1C4 PUSH2 0x648 JUMP JUMPDEST STOP JUMPDEST CALLVALUE DUP1 ISZERO PUSH2 0x1D2 JUMPI PUSH1 0x0 DUP1 REVERT JUMPDEST POP PUSH2 0x1ED PUSH1 0x4 DUP1 CALLDATASIZE SUB DUP2 ADD SWAP1 PUSH2 0x1E8 SWAP2 SWAP1 PUSH2 0x13AC JUMP JUMPDEST PUSH2 0x7CE JUMP JUMPDEST PUSH1 0x40 MLOAD PUSH2 0x1FB SWAP3 SWAP2 SWAP1 PUSH2 0x1856 JUMP JUMPDEST PUSH1 0x40 MLOAD DUP1 SWAP2 SUB SWAP1 RETURN JUMPDEST CALLVALUE DUP1 ISZERO PUSH2 0x210 JUMPI PUSH1 0x0 DUP1 REVERT JUMPDEST POP PUSH2 0x219 PUSH2 0x7FF JUMP JUMPDEST PUSH1 0x40 MLOAD PUSH2 0x226 SWAP2 SWAP1 PUSH2 0x17FD JUMP JUMPDEST PUSH1 0x40 MLOAD DUP1 SWAP2 SUB SWAP1 RETURN JUMPDEST CALLVALUE DUP1 ISZERO PUSH2 0x23B JUMPI PUSH1 0x0 DUP1 REVERT JUMPDEST POP PUSH2 0x256 PUSH1 0x4 DUP1 CALLDATASIZE SUB DUP2 ADD SWAP1 PUSH2 0x251 SWAP2 SWAP1 PUSH2 0x13AC JUMP JUMPDEST PUSH2 0x805 JUMP JUMPDEST PUSH1 0x40 MLOAD PUSH2 0x265 SWAP4 SWAP3 SWAP2 SWAP1 PUSH2 0x187F JUMP JUMPDEST PUSH1 0x40 MLOAD DUP1 SWAP2 SUB SWAP1 RETURN JUMPDEST CALLVALUE DUP1 ISZERO PUSH2 0x27A JUMPI PUSH1 0x0 DUP1 REVERT JUMPDEST POP PUSH2 0x295 PUSH1 0x4 DUP1 CALLDATASIZE SUB DUP2 ADD SWAP1 PUSH2 0x290 SWAP2 SWAP1 PUSH2 0x1352 JUMP JUMPDEST PUSH2 0x91F JUMP JUMPDEST STOP JUMPDEST CALLVALUE DUP1 ISZERO PUSH2 0x2A3 JUMPI PUSH1 0x0 DUP1 REVERT JUMPDEST POP PUSH2 0x2AC PUSH2 0x933 JUMP JUMPDEST PUSH1 0x40 MLOAD PUSH2 0x2B9 SWAP2 SWAP1 PUSH2 0x17FD JUMP JUMPDEST PUSH1 0x40 MLOAD DUP1 SWAP2 SUB SWAP1 RETURN JUMPDEST PUSH32 0x0 PUSH20 0xFFFFFFFFFFFFFFFFFFFFFFFFFFFFFFFFFFFFFFFF AND CALLER PUSH20 0xFFFFFFFFFFFFFFFFFFFFFFFFFFFFFFFFFFFFFFFF AND EQ PUSH2 0x350 JUMPI PUSH1 0x40 MLOAD PUSH32 0x8C379A000000000000000000000000000000000000000000000000000000000 DUP2 MSTORE PUSH1 0x4 ADD PUSH2 0x347 SWAP1 PUSH2 0x17DD JUMP JUMPDEST PUSH1 0x40 MLOAD DUP1 SWAP2 SUB SWAP1 REVERT JUMPDEST PUSH2 0x35A DUP3 DUP3 PUSH2 0x939 JUMP JUMPDEST POP POP JUMP JUMPDEST PUSH1 0x7 PUSH1 0x20 MSTORE DUP1 PUSH1 0x0 MSTORE PUSH1 0x40 PUSH1 0x0 KECCAK256 PUSH1 0x0 SWAP2 POP SWAP1 POP DUP1 PUSH1 0x0 ADD PUSH1 0x0 SWAP1 SLOAD SWAP1 PUSH2 0x100 EXP SWAP1 DIV PUSH20 0xFFFFFFFFFFFFFFFFFFFFFFFFFFFFFFFFFFFFFFFF AND SWAP1 DUP1 PUSH1 0x1 ADD SLOAD SWAP1 DUP1 PUSH1 0x2 ADD SLOAD SWAP1 POP DUP4 JUMP JUMPDEST PUSH1 0x0 CALLER SWAP1 POP PUSH1 0x0 PUSH2 0x3B7 PUSH2 0xBAE JUMP JUMPDEST SWAP1 POP PUSH1 0x0 PUSH1 0x40 MLOAD DUP1 PUSH1 0x60 ADD PUSH1 0x40 MSTORE DUP1 DUP5 PUSH20 0xFFFFFFFFFFFFFFFFFFFFFFFFFFFFFFFFFFFFFFFF AND DUP2 MSTORE PUSH1 0x20 ADD DUP6 DUP2 MSTORE PUSH1 0x20 ADD CALLVALUE DUP2 MSTORE POP SWAP1 POP DUP1 PUSH1 0x7 PUSH1 0x0 DUP5 DUP2 MSTORE PUSH1 0x20 ADD SWAP1 DUP2 MSTORE PUSH1 0x20 ADD PUSH1 0x0 KECCAK256 PUSH1 0x0 DUP3 ADD MLOAD DUP2 PUSH1 0x0 ADD PUSH1 0x0 PUSH2 0x100 EXP DUP2 SLOAD DUP2 PUSH20 0xFFFFFFFFFFFFFFFFFFFFFFFFFFFFFFFFFFFFFFFF MUL NOT AND SWAP1 DUP4 PUSH20 0xFFFFFFFFFFFFFFFFFFFFFFFFFFFFFFFFFFFFFFFF AND MUL OR SWAP1 SSTORE POP PUSH1 0x20 DUP3 ADD MLOAD DUP2 PUSH1 0x1 ADD SSTORE PUSH1 0x40 DUP3 ADD MLOAD DUP2 PUSH1 0x2 ADD SSTORE SWAP1 POP POP POP POP POP POP JUMP JUMPDEST PUSH1 0x1 PUSH1 0x0 SWAP1 SLOAD SWAP1 PUSH2 0x100 EXP SWAP1 DIV PUSH20 0xFFFFFFFFFFFFFFFFFFFFFFFFFFFFFFFFFFFFFFFF AND PUSH20 0xFFFFFFFFFFFFFFFFFFFFFFFFFFFFFFFFFFFFFFFF AND CALLER PUSH20 0xFFFFFFFFFFFFFFFFFFFFFFFFFFFFFFFFFFFFFFFF AND EQ PUSH2 0x4F6 JUMPI PUSH1 0x40 MLOAD PUSH32 0x8C379A000000000000000000000000000000000000000000000000000000000 DUP2 MSTORE PUSH1 0x4 ADD PUSH2 0x4ED SWAP1 PUSH2 0x175D JUMP JUMPDEST PUSH1 0x40 MLOAD DUP1 SWAP2 SUB SWAP1 REVERT JUMPDEST PUSH1 0x0 DUP1 PUSH1 0x0 SWAP1 SLOAD SWAP1 PUSH2 0x100 EXP SWAP1 DIV PUSH20 0xFFFFFFFFFFFFFFFFFFFFFFFFFFFFFFFFFFFFFFFF AND SWAP1 POP CALLER PUSH1 0x0 DUP1 PUSH2 0x100 EXP DUP2 SLOAD DUP2 PUSH20 0xFFFFFFFFFFFFFFFFFFFFFFFFFFFFFFFFFFFFFFFF MUL NOT AND SWAP1 DUP4 PUSH20 0xFFFFFFFFFFFFFFFFFFFFFFFFFFFFFFFFFFFFFFFF AND MUL OR SWAP1 SSTORE POP PUSH1 0x0 PUSH1 0x1 PUSH1 0x0 PUSH2 0x100 EXP DUP2 SLOAD DUP2 PUSH20 0xFFFFFFFFFFFFFFFFFFFFFFFFFFFFFFFFFFFFFFFF MUL NOT AND SWAP1 DUP4 PUSH20 0xFFFFFFFFFFFFFFFFFFFFFFFFFFFFFFFFFFFFFFFF AND MUL OR SWAP1 SSTORE POP CALLER PUSH20 0xFFFFFFFFFFFFFFFFFFFFFFFFFFFFFFFFFFFFFFFF AND DUP2 PUSH20 0xFFFFFFFFFFFFFFFFFFFFFFFFFFFFFFFFFFFFFFFF AND PUSH32 0x8BE0079C531659141344CD1FD0A4F28419497F9722A3DAAFE3B4186F6B6457E0 PUSH1 0x40 MLOAD PUSH1 0x40 MLOAD DUP1 SWAP2 SUB SWAP1 LOG3 POP JUMP JUMPDEST PUSH1 0x3 DUP2 DUP2 SLOAD DUP2 LT PUSH2 0x60B JUMPI PUSH1 0x0 DUP1 REVERT JUMPDEST SWAP1 PUSH1 0x0 MSTORE PUSH1 0x20 PUSH1 0x0 KECCAK256 ADD PUSH1 0x0 SWAP2 POP SWAP1 POP SLOAD DUP2 JUMP JUMPDEST PUSH1 0x0 DUP1 PUSH1 0x0 SWAP1 SLOAD SWAP1 PUSH2 0x100 EXP SWAP1 DIV PUSH20 0xFFFFFFFFFFFFFFFFFFFFFFFFFFFFFFFFFFFFFFFF AND SWAP1 POP SWAP1 JUMP JUMPDEST PUSH2 0x650 PUSH2 0xDF5 JUMP JUMPDEST PUSH1 0x0 PUSH1 0x5 PUSH1 0xA SWAP1 SLOAD SWAP1 PUSH2 0x100 EXP SWAP1 DIV PUSH20 0xFFFFFFFFFFFFFFFFFFFFFFFFFFFFFFFFFFFFFFFF AND SWAP1 POP DUP1 PUSH20 0xFFFFFFFFFFFFFFFFFFFFFFFFFFFFFFFFFFFFFFFF AND PUSH4 0xA9059CBB CALLER DUP4 PUSH20 0xFFFFFFFFFFFFFFFFFFFFFFFFFFFFFFFFFFFFFFFF AND PUSH4 0x70A08231 ADDRESS PUSH1 0x40 MLOAD DUP3 PUSH4 0xFFFFFFFF AND PUSH1 0xE0 SHL DUP2 MSTORE PUSH1 0x4 ADD PUSH2 0x6CD SWAP2 SWAP1 PUSH2 0x1684 JUMP JUMPDEST PUSH1 0x20 PUSH1 0x40 MLOAD DUP1 DUP4 SUB DUP2 DUP7 DUP1 EXTCODESIZE ISZERO DUP1 ISZERO PUSH2 0x6E5 JUMPI PUSH1 0x0 DUP1 REVERT JUMPDEST POP GAS STATICCALL ISZERO DUP1 ISZERO PUSH2 0x6F9 JUMPI RETURNDATASIZE PUSH1 0x0 DUP1 RETURNDATACOPY RETURNDATASIZE PUSH1 0x0 REVERT JUMPDEST POP POP POP POP PUSH1 0x40 MLOAD RETURNDATASIZE PUSH1 0x1F NOT PUSH1 0x1F DUP3 ADD AND DUP3 ADD DUP1 PUSH1 0x40 MSTORE POP DUP2 ADD SWAP1 PUSH2 0x71D SWAP2 SWAP1 PUSH2 0x13D9 JUMP JUMPDEST PUSH1 0x40 MLOAD DUP4 PUSH4 0xFFFFFFFF AND PUSH1 0xE0 SHL DUP2 MSTORE PUSH1 0x4 ADD PUSH2 0x73A SWAP3 SWAP2 SWAP1 PUSH2 0x16D6 JUMP JUMPDEST PUSH1 0x20 PUSH1 0x40 MLOAD DUP1 DUP4 SUB DUP2 PUSH1 0x0 DUP8 DUP1 EXTCODESIZE ISZERO DUP1 ISZERO PUSH2 0x754 JUMPI PUSH1 0x0 DUP1 REVERT JUMPDEST POP GAS CALL ISZERO DUP1 ISZERO PUSH2 0x768 JUMPI RETURNDATASIZE PUSH1 0x0 DUP1 RETURNDATACOPY RETURNDATASIZE PUSH1 0x0 REVERT JUMPDEST POP POP POP POP PUSH1 0x40 MLOAD RETURNDATASIZE PUSH1 0x1F NOT PUSH1 0x1F DUP3 ADD AND DUP3 ADD DUP1 PUSH1 0x40 MSTORE POP DUP2 ADD SWAP1 PUSH2 0x78C SWAP2 SWAP1 PUSH2 0x137F JUMP JUMPDEST PUSH2 0x7CB JUMPI PUSH1 0x40 MLOAD PUSH32 0x8C379A000000000000000000000000000000000000000000000000000000000 DUP2 MSTORE PUSH1 0x4 ADD PUSH2 0x7C2 SWAP1 PUSH2 0x179D JUMP JUMPDEST PUSH1 0x40 MLOAD DUP1 SWAP2 SUB SWAP1 REVERT JUMPDEST POP JUMP JUMPDEST PUSH1 0x2 PUSH1 0x20 MSTORE DUP1 PUSH1 0x0 MSTORE PUSH1 0x40 PUSH1 0x0 KECCAK256 PUSH1 0x0 SWAP2 POP SWAP1 POP DUP1 PUSH1 0x0 ADD SLOAD SWAP1 DUP1 PUSH1 0x1 ADD PUSH1 0x0 SWAP1 SLOAD SWAP1 PUSH2 0x100 EXP SWAP1 DIV PUSH1 0xFF AND SWAP1 POP DUP3 JUMP JUMPDEST PUSH1 0x8 SLOAD DUP2 JUMP JUMPDEST PUSH1 0x0 DUP1 PUSH1 0x60 PUSH1 0x0 PUSH1 0x2 PUSH1 0x0 DUP7 DUP2 MSTORE PUSH1 0x20 ADD SWAP1 DUP2 MSTORE PUSH1 0x20 ADD PUSH1 0x0 KECCAK256 PUSH1 0x0 ADD SLOAD GT PUSH2 0x863 JUMPI PUSH1 0x40 MLOAD PUSH32 0x8C379A000000000000000000000000000000000000000000000000000000000 DUP2 MSTORE PUSH1 0x4 ADD PUSH2 0x85A SWAP1 PUSH2 0x173D JUMP JUMPDEST PUSH1 0x40 MLOAD DUP1 SWAP2 SUB SWAP1 REVERT JUMPDEST PUSH1 0x0 PUSH1 0x2 PUSH1 0x0 DUP7 DUP2 MSTORE PUSH1 0x20 ADD SWAP1 DUP2 MSTORE PUSH1 0x20 ADD PUSH1 0x0 KECCAK256 PUSH1 0x40 MLOAD DUP1 PUSH1 0x60 ADD PUSH1 0x40 MSTORE SWAP1 DUP2 PUSH1 0x0 DUP3 ADD SLOAD DUP2 MSTORE PUSH1 0x20 ADD PUSH1 0x1 DUP3 ADD PUSH1 0x0 SWAP1 SLOAD SWAP1 PUSH2 0x100 EXP SWAP1 DIV PUSH1 0xFF AND ISZERO ISZERO ISZERO ISZERO DUP2 MSTORE PUSH1 0x20 ADD PUSH1 0x2 DUP3 ADD DUP1 SLOAD DUP1 PUSH1 0x20 MUL PUSH1 0x20 ADD PUSH1 0x40 MLOAD SWAP1 DUP2 ADD PUSH1 0x40 MSTORE DUP1 SWAP3 SWAP2 SWAP1 DUP2 DUP2 MSTORE PUSH1 0x20 ADD DUP3 DUP1 SLOAD DUP1 ISZERO PUSH2 0x8F7 JUMPI PUSH1 0x20 MUL DUP3 ADD SWAP2 SWAP1 PUSH1 0x0 MSTORE PUSH1 0x20 PUSH1 0x0 KECCAK256 SWAP1 JUMPDEST DUP2 SLOAD DUP2 MSTORE PUSH1 0x20 ADD SWAP1 PUSH1 0x1 ADD SWAP1 DUP1 DUP4 GT PUSH2 0x8E3 JUMPI JUMPDEST POP POP POP POP POP DUP2 MSTORE POP POP SWAP1 POP DUP1 PUSH1 0x0 ADD MLOAD DUP2 PUSH1 0x20 ADD MLOAD DUP3 PUSH1 0x40 ADD MLOAD SWAP4 POP SWAP4 POP SWAP4 POP POP SWAP2 SWAP4 SWAP1 SWAP3 POP JUMP JUMPDEST PUSH2 0x927 PUSH2 0xDF5 JUMP JUMPDEST PUSH2 0x930 DUP2 PUSH2 0xE85 JUMP JUMPDEST POP JUMP JUMPDEST PUSH1 0x4 SLOAD DUP2 JUMP JUMPDEST PUSH1 0x0 PUSH1 0x2 PUSH1 0x0 DUP5 DUP2 MSTORE PUSH1 0x20 ADD SWAP1 DUP2 MSTORE PUSH1 0x20 ADD PUSH1 0x0 KECCAK256 PUSH1 0x0 ADD SLOAD GT PUSH2 0x992 JUMPI PUSH1 0x40 MLOAD PUSH32 0x8C379A000000000000000000000000000000000000000000000000000000000 DUP2 MSTORE PUSH1 0x4 ADD PUSH2 0x989 SWAP1 PUSH2 0x173D JUMP JUMPDEST PUSH1 0x40 MLOAD DUP1 SWAP2 SUB SWAP1 REVERT JUMPDEST PUSH1 0x1 PUSH1 0x2 PUSH1 0x0 DUP5 DUP2 MSTORE PUSH1 0x20 ADD SWAP1 DUP2 MSTORE PUSH1 0x20 ADD PUSH1 0x0 KECCAK256 PUSH1 0x1 ADD PUSH1 0x0 PUSH2 0x100 EXP DUP2 SLOAD DUP2 PUSH1 0xFF MUL NOT AND SWAP1 DUP4 ISZERO ISZERO MUL OR SWAP1 SSTORE POP DUP1 PUSH1 0x2 PUSH1 0x0 DUP5 DUP2 MSTORE PUSH1 0x20 ADD SWAP1 DUP2 MSTORE PUSH1 0x20 ADD PUSH1 0x0 KECCAK256 PUSH1 0x2 ADD SWAP1 DUP1 MLOAD SWAP1 PUSH1 0x20 ADD SWAP1 PUSH2 0x9EB SWAP3 SWAP2 SWAP1 PUSH2 0x11F6 JUMP JUMPDEST POP PUSH32 0x147EB1FF0C82F87F2B03E2C43F5A36488FF63EC6B730195FDE4605F612F8DB51 DUP3 DUP3 PUSH1 0x2 PUSH1 0x0 DUP7 DUP2 MSTORE PUSH1 0x20 ADD SWAP1 DUP2 MSTORE PUSH1 0x20 ADD PUSH1 0x0 KECCAK256 PUSH1 0x0 ADD SLOAD PUSH1 0x40 MLOAD PUSH2 0xA35 SWAP4 SWAP3 SWAP2 SWAP1 PUSH2 0x1818 JUMP JUMPDEST PUSH1 0x40 MLOAD DUP1 SWAP2 SUB SWAP1 LOG1 PUSH1 0x0 DUP2 PUSH1 0x0 DUP2 MLOAD DUP2 LT PUSH2 0xA53 JUMPI PUSH2 0xA52 PUSH2 0x1BBF JUMP JUMPDEST JUMPDEST PUSH1 0x20 MUL PUSH1 0x20 ADD ADD MLOAD SWAP1 POP PUSH1 0x0 PUSH1 0x7 PUSH1 0x0 DUP6 DUP2 MSTORE PUSH1 0x20 ADD SWAP1 DUP2 MSTORE PUSH1 0x20 ADD PUSH1 0x0 KECCAK256 PUSH1 0x40 MLOAD DUP1 PUSH1 0x60 ADD PUSH1 0x40 MSTORE SWAP1 DUP2 PUSH1 0x0 DUP3 ADD PUSH1 0x0 SWAP1 SLOAD SWAP1 PUSH2 0x100 EXP SWAP1 DIV PUSH20 0xFFFFFFFFFFFFFFFFFFFFFFFFFFFFFFFFFFFFFFFF AND PUSH20 0xFFFFFFFFFFFFFFFFFFFFFFFFFFFFFFFFFFFFFFFF AND PUSH20 0xFFFFFFFFFFFFFFFFFFFFFFFFFFFFFFFFFFFFFFFF AND DUP2 MSTORE PUSH1 0x20 ADD PUSH1 0x1 DUP3 ADD SLOAD DUP2 MSTORE PUSH1 0x20 ADD PUSH1 0x2 DUP3 ADD SLOAD DUP2 MSTORE POP POP SWAP1 POP PUSH1 0x0 DUP2 PUSH1 0x40 ADD MLOAD SWAP1 POP PUSH1 0x0 DUP3 PUSH1 0x20 ADD MLOAD SWAP1 POP PUSH1 0x0 DUP4 PUSH1 0x0 ADD MLOAD SWAP1 POP PUSH1 0x0 PUSH1 0x6 DUP7 PUSH2 0xB13 SWAP2 SWAP1 PUSH2 0x1B30 JUMP JUMPDEST SWAP1 POP DUP1 PUSH1 0x8 DUP2 SWAP1 SSTORE POP DUP3 DUP2 EQ ISZERO PUSH2 0xBA4 JUMPI PUSH1 0x0 PUSH1 0x2 DUP6 PUSH2 0xB33 SWAP2 SWAP1 PUSH2 0x19FA JUMP JUMPDEST SWAP1 POP PUSH1 0x0 DUP4 PUSH20 0xFFFFFFFFFFFFFFFFFFFFFFFFFFFFFFFFFFFFFFFF AND DUP3 PUSH1 0x40 MLOAD PUSH2 0xB5B SWAP1 PUSH2 0x166F JUMP JUMPDEST PUSH1 0x0 PUSH1 0x40 MLOAD DUP1 DUP4 SUB DUP2 DUP6 DUP8 GAS CALL SWAP3 POP POP POP RETURNDATASIZE DUP1 PUSH1 0x0 DUP2 EQ PUSH2 0xB98 JUMPI PUSH1 0x40 MLOAD SWAP2 POP PUSH1 0x1F NOT PUSH1 0x3F RETURNDATASIZE ADD AND DUP3 ADD PUSH1 0x40 MSTORE RETURNDATASIZE DUP3 MSTORE RETURNDATASIZE PUSH1 0x0 PUSH1 0x20 DUP5 ADD RETURNDATACOPY PUSH2 0xB9D JUMP JUMPDEST PUSH1 0x60 SWAP2 POP JUMPDEST POP POP SWAP1 POP POP POP JUMPDEST POP POP POP POP POP POP POP POP JUMP JUMPDEST PUSH1 0x0 PUSH2 0xBB8 PUSH2 0xDF5 JUMP JUMPDEST PUSH2 0xBF7 PUSH1 0x5 PUSH1 0x0 SWAP1 SLOAD SWAP1 PUSH2 0x100 EXP SWAP1 DIV PUSH4 0xFFFFFFFF AND PUSH1 0x5 PUSH1 0x4 SWAP1 SLOAD SWAP1 PUSH2 0x100 EXP SWAP1 DIV PUSH2 0xFFFF AND PUSH1 0x5 PUSH1 0x6 SWAP1 SLOAD SWAP1 PUSH2 0x100 EXP SWAP1 DIV PUSH4 0xFFFFFFFF AND PUSH2 0xFB2 JUMP JUMPDEST SWAP1 POP PUSH1 0x40 MLOAD DUP1 PUSH1 0x60 ADD PUSH1 0x40 MSTORE DUP1 PUSH32 0x0 PUSH20 0xFFFFFFFFFFFFFFFFFFFFFFFFFFFFFFFFFFFFFFFF AND PUSH4 0x4306D354 PUSH1 0x5 PUSH1 0x0 SWAP1 SLOAD SWAP1 PUSH2 0x100 EXP SWAP1 DIV PUSH4 0xFFFFFFFF AND PUSH1 0x40 MLOAD DUP3 PUSH4 0xFFFFFFFF AND PUSH1 0xE0 SHL DUP2 MSTORE PUSH1 0x4 ADD PUSH2 0xC6F SWAP2 SWAP1 PUSH2 0x18E6 JUMP JUMPDEST PUSH1 0x20 PUSH1 0x40 MLOAD DUP1 DUP4 SUB DUP2 DUP7 DUP1 EXTCODESIZE ISZERO DUP1 ISZERO PUSH2 0xC87 JUMPI PUSH1 0x0 DUP1 REVERT JUMPDEST POP GAS STATICCALL ISZERO DUP1 ISZERO PUSH2 0xC9B JUMPI RETURNDATASIZE PUSH1 0x0 DUP1 RETURNDATACOPY RETURNDATASIZE PUSH1 0x0 REVERT JUMPDEST POP POP POP POP PUSH1 0x40 MLOAD RETURNDATASIZE PUSH1 0x1F NOT PUSH1 0x1F DUP3 ADD AND DUP3 ADD DUP1 PUSH1 0x40 MSTORE POP DUP2 ADD SWAP1 PUSH2 0xCBF SWAP2 SWAP1 PUSH2 0x13D9 JUMP JUMPDEST DUP2 MSTORE PUSH1 0x20 ADD PUSH1 0x0 ISZERO ISZERO DUP2 MSTORE PUSH1 0x20 ADD PUSH1 0x0 PUSH8 0xFFFFFFFFFFFFFFFF DUP2 GT ISZERO PUSH2 0xCE8 JUMPI PUSH2 0xCE7 PUSH2 0x1BEE JUMP JUMPDEST JUMPDEST PUSH1 0x40 MLOAD SWAP1 DUP1 DUP3 MSTORE DUP1 PUSH1 0x20 MUL PUSH1 0x20 ADD DUP3 ADD PUSH1 0x40 MSTORE DUP1 ISZERO PUSH2 0xD16 JUMPI DUP2 PUSH1 0x20 ADD PUSH1 0x20 DUP3 MUL DUP1 CALLDATASIZE DUP4 CALLDATACOPY DUP1 DUP3 ADD SWAP2 POP POP SWAP1 POP JUMPDEST POP DUP2 MSTORE POP PUSH1 0x2 PUSH1 0x0 DUP4 DUP2 MSTORE PUSH1 0x20 ADD SWAP1 DUP2 MSTORE PUSH1 0x20 ADD PUSH1 0x0 KECCAK256 PUSH1 0x0 DUP3 ADD MLOAD DUP2 PUSH1 0x0 ADD SSTORE PUSH1 0x20 DUP3 ADD MLOAD DUP2 PUSH1 0x1 ADD PUSH1 0x0 PUSH2 0x100 EXP DUP2 SLOAD DUP2 PUSH1 0xFF MUL NOT AND SWAP1 DUP4 ISZERO ISZERO MUL OR SWAP1 SSTORE POP PUSH1 0x40 DUP3 ADD MLOAD DUP2 PUSH1 0x2 ADD SWAP1 DUP1 MLOAD SWAP1 PUSH1 0x20 ADD SWAP1 PUSH2 0xD73 SWAP3 SWAP2 SWAP1 PUSH2 0x11F6 JUMP JUMPDEST POP SWAP1 POP POP PUSH1 0x3 DUP2 SWAP1 DUP1 PUSH1 0x1 DUP2 SLOAD ADD DUP1 DUP3 SSTORE DUP1 SWAP2 POP POP PUSH1 0x1 SWAP1 SUB SWAP1 PUSH1 0x0 MSTORE PUSH1 0x20 PUSH1 0x0 KECCAK256 ADD PUSH1 0x0 SWAP1 SWAP2 SWAP1 SWAP2 SWAP1 SWAP2 POP SSTORE DUP1 PUSH1 0x4 DUP2 SWAP1 SSTORE POP PUSH32 0xCC58B13AD3EAB50626C6A6300B1D139CD6EBB1688A7CCED9461C2F7E762665EE DUP2 PUSH1 0x5 PUSH1 0x6 SWAP1 SLOAD SWAP1 PUSH2 0x100 EXP SWAP1 DIV PUSH4 0xFFFFFFFF AND PUSH1 0x40 MLOAD PUSH2 0xDEA SWAP3 SWAP2 SWAP1 PUSH2 0x18BD JUMP JUMPDEST PUSH1 0x40 MLOAD DUP1 SWAP2 SUB SWAP1 LOG1 SWAP1 JUMP JUMPDEST PUSH1 0x0 DUP1 SLOAD SWAP1 PUSH2 0x100 EXP SWAP1 DIV PUSH20 0xFFFFFFFFFFFFFFFFFFFFFFFFFFFFFFFFFFFFFFFF AND PUSH20 0xFFFFFFFFFFFFFFFFFFFFFFFFFFFFFFFFFFFFFFFF AND CALLER PUSH20 0xFFFFFFFFFFFFFFFFFFFFFFFFFFFFFFFFFFFFFFFF AND EQ PUSH2 0xE83 JUMPI PUSH1 0x40 MLOAD PUSH32 0x8C379A000000000000000000000000000000000000000000000000000000000 DUP2 MSTORE PUSH1 0x4 ADD PUSH2 0xE7A SWAP1 PUSH2 0x177D JUMP JUMPDEST PUSH1 0x40 MLOAD DUP1 SWAP2 SUB SWAP1 REVERT JUMPDEST JUMP JUMPDEST CALLER PUSH20 0xFFFFFFFFFFFFFFFFFFFFFFFFFFFFFFFFFFFFFFFF AND DUP2 PUSH20 0xFFFFFFFFFFFFFFFFFFFFFFFFFFFFFFFFFFFFFFFF AND EQ ISZERO PUSH2 0xEF4 JUMPI PUSH1 0x40 MLOAD PUSH32 0x8C379A000000000000000000000000000000000000000000000000000000000 DUP2 MSTORE PUSH1 0x4 ADD PUSH2 0xEEB SWAP1 PUSH2 0x17BD JUMP JUMPDEST PUSH1 0x40 MLOAD DUP1 SWAP2 SUB SWAP1 REVERT JUMPDEST DUP1 PUSH1 0x1 PUSH1 0x0 PUSH2 0x100 EXP DUP2 SLOAD DUP2 PUSH20 0xFFFFFFFFFFFFFFFFFFFFFFFFFFFFFFFFFFFFFFFF MUL NOT AND SWAP1 DUP4 PUSH20 0xFFFFFFFFFFFFFFFFFFFFFFFFFFFFFFFFFFFFFFFF AND MUL OR SWAP1 SSTORE POP DUP1 PUSH20 0xFFFFFFFFFFFFFFFFFFFFFFFFFFFFFFFFFFFFFFFF AND PUSH1 0x0 DUP1 SLOAD SWAP1 PUSH2 0x100 EXP SWAP1 DIV PUSH20 0xFFFFFFFFFFFFFFFFFFFFFFFFFFFFFFFFFFFFFFFF AND PUSH20 0xFFFFFFFFFFFFFFFFFFFFFFFFFFFFFFFFFFFFFFFF AND PUSH32 0xED8889F560326EB138920D842192F0EB3DD22B4F139C87A2C57538E05BAE1278 PUSH1 0x40 MLOAD PUSH1 0x40 MLOAD DUP1 SWAP2 SUB SWAP1 LOG3 POP JUMP JUMPDEST PUSH1 0x0 PUSH32 0x0 PUSH20 0xFFFFFFFFFFFFFFFFFFFFFFFFFFFFFFFFFFFFFFFF AND PUSH4 0x4000AEA0 PUSH32 0x0 PUSH32 0x0 PUSH20 0xFFFFFFFFFFFFFFFFFFFFFFFFFFFFFFFFFFFFFFFF AND PUSH4 0x4306D354 DUP9 PUSH1 0x40 MLOAD DUP3 PUSH4 0xFFFFFFFF AND PUSH1 0xE0 SHL DUP2 MSTORE PUSH1 0x4 ADD PUSH2 0x106A SWAP2 SWAP1 PUSH2 0x18E6 JUMP JUMPDEST PUSH1 0x20 PUSH1 0x40 MLOAD DUP1 DUP4 SUB DUP2 DUP7 DUP1 EXTCODESIZE ISZERO DUP1 ISZERO PUSH2 0x1082 JUMPI PUSH1 0x0 DUP1 REVERT JUMPDEST POP GAS STATICCALL ISZERO DUP1 ISZERO PUSH2 0x1096 JUMPI RETURNDATASIZE PUSH1 0x0 DUP1 RETURNDATACOPY RETURNDATASIZE PUSH1 0x0 REVERT JUMPDEST POP POP POP POP PUSH1 0x40 MLOAD RETURNDATASIZE PUSH1 0x1F NOT PUSH1 0x1F DUP3 ADD AND DUP3 ADD DUP1 PUSH1 0x40 MSTORE POP DUP2 ADD SWAP1 PUSH2 0x10BA SWAP2 SWAP1 PUSH2 0x13D9 JUMP JUMPDEST DUP8 DUP8 DUP8 PUSH1 0x40 MLOAD PUSH1 0x20 ADD PUSH2 0x10CF SWAP4 SWAP3 SWAP2 SWAP1 PUSH2 0x1901 JUMP JUMPDEST PUSH1 0x40 MLOAD PUSH1 0x20 DUP2 DUP4 SUB SUB DUP2 MSTORE SWAP1 PUSH1 0x40 MSTORE PUSH1 0x40 MLOAD DUP5 PUSH4 0xFFFFFFFF AND PUSH1 0xE0 SHL DUP2 MSTORE PUSH1 0x4 ADD PUSH2 0x10FC SWAP4 SWAP3 SWAP2 SWAP1 PUSH2 0x16FF JUMP JUMPDEST PUSH1 0x20 PUSH1 0x40 MLOAD DUP1 DUP4 SUB DUP2 PUSH1 0x0 DUP8 DUP1 EXTCODESIZE ISZERO DUP1 ISZERO PUSH2 0x1116 JUMPI PUSH1 0x0 DUP1 REVERT JUMPDEST POP GAS CALL ISZERO DUP1 ISZERO PUSH2 0x112A JUMPI RETURNDATASIZE PUSH1 0x0 DUP1 RETURNDATACOPY RETURNDATASIZE PUSH1 0x0 REVERT JUMPDEST POP POP POP POP PUSH1 0x40 MLOAD RETURNDATASIZE PUSH1 0x1F NOT PUSH1 0x1F DUP3 ADD AND DUP3 ADD DUP1 PUSH1 0x40 MSTORE POP DUP2 ADD SWAP1 PUSH2 0x114E SWAP2 SWAP1 PUSH2 0x137F JUMP JUMPDEST POP PUSH32 0x0 PUSH20 0xFFFFFFFFFFFFFFFFFFFFFFFFFFFFFFFFFFFFFFFF AND PUSH4 0xFC2A88C3 PUSH1 0x40 MLOAD DUP2 PUSH4 0xFFFFFFFF AND PUSH1 0xE0 SHL DUP2 MSTORE PUSH1 0x4 ADD PUSH1 0x20 PUSH1 0x40 MLOAD DUP1 DUP4 SUB DUP2 DUP7 DUP1 EXTCODESIZE ISZERO DUP1 ISZERO PUSH2 0x11B5 JUMPI PUSH1 0x0 DUP1 REVERT JUMPDEST POP GAS STATICCALL ISZERO DUP1 ISZERO PUSH2 0x11C9 JUMPI RETURNDATASIZE PUSH1 0x0 DUP1 RETURNDATACOPY RETURNDATASIZE PUSH1 0x0 REVERT JUMPDEST POP POP POP POP PUSH1 0x40 MLOAD RETURNDATASIZE PUSH1 0x1F NOT PUSH1 0x1F DUP3 ADD AND DUP3 ADD DUP1 PUSH1 0x40 MSTORE POP DUP2 ADD SWAP1 PUSH2 0x11ED SWAP2 SWAP1 PUSH2 0x13D9 JUMP JUMPDEST SWAP1 POP SWAP4 SWAP3 POP POP POP JUMP JUMPDEST DUP3 DUP1 SLOAD DUP3 DUP3 SSTORE SWAP1 PUSH1 0x0 MSTORE PUSH1 0x20 PUSH1 0x0 KECCAK256 SWAP1 DUP2 ADD SWAP3 DUP3 ISZERO PUSH2 0x1232 JUMPI SWAP2 PUSH1 0x20 MUL DUP3 ADD JUMPDEST DUP3 DUP2 GT ISZERO PUSH2 0x1231 JUMPI DUP3 MLOAD DUP3 SSTORE SWAP2 PUSH1 0x20 ADD SWAP2 SWAP1 PUSH1 0x1 ADD SWAP1 PUSH2 0x1216 JUMP JUMPDEST JUMPDEST POP SWAP1 POP PUSH2 0x123F SWAP2 SWAP1 PUSH2 0x1243 JUMP JUMPDEST POP SWAP1 JUMP JUMPDEST JUMPDEST DUP1 DUP3 GT ISZERO PUSH2 0x125C JUMPI PUSH1 0x0 DUP2 PUSH1 0x0 SWAP1 SSTORE POP PUSH1 0x1 ADD PUSH2 0x1244 JUMP JUMPDEST POP SWAP1 JUMP JUMPDEST PUSH1 0x0 PUSH2 0x1273 PUSH2 0x126E DUP5 PUSH2 0x195D JUMP JUMPDEST PUSH2 0x1938 JUMP JUMPDEST SWAP1 POP DUP1 DUP4 DUP3 MSTORE PUSH1 0x20 DUP3 ADD SWAP1 POP DUP3 DUP6 PUSH1 0x20 DUP7 MUL DUP3 ADD GT ISZERO PUSH2 0x1296 JUMPI PUSH2 0x1295 PUSH2 0x1C22 JUMP JUMPDEST JUMPDEST PUSH1 0x0 JUMPDEST DUP6 DUP2 LT ISZERO PUSH2 0x12C6 JUMPI DUP2 PUSH2 0x12AC DUP9 DUP3 PUSH2 0x1328 JUMP JUMPDEST DUP5 MSTORE PUSH1 0x20 DUP5 ADD SWAP4 POP PUSH1 0x20 DUP4 ADD SWAP3 POP POP PUSH1 0x1 DUP2 ADD SWAP1 POP PUSH2 0x1299 JUMP JUMPDEST POP POP POP SWAP4 SWAP3 POP POP POP JUMP JUMPDEST PUSH1 0x0 DUP2 CALLDATALOAD SWAP1 POP PUSH2 0x12DF DUP2 PUSH2 0x1D3B JUMP JUMPDEST SWAP3 SWAP2 POP POP JUMP JUMPDEST PUSH1 0x0 DUP3 PUSH1 0x1F DUP4 ADD SLT PUSH2 0x12FA JUMPI PUSH2 0x12F9 PUSH2 0x1C1D JUMP JUMPDEST JUMPDEST DUP2 CALLDATALOAD PUSH2 0x130A DUP5 DUP3 PUSH1 0x20 DUP7 ADD PUSH2 0x1260 JUMP JUMPDEST SWAP2 POP POP SWAP3 SWAP2 POP POP JUMP JUMPDEST PUSH1 0x0 DUP2 MLOAD SWAP1 POP PUSH2 0x1322 DUP2 PUSH2 0x1D52 JUMP JUMPDEST SWAP3 SWAP2 POP POP JUMP JUMPDEST PUSH1 0x0 DUP2 CALLDATALOAD SWAP1 POP PUSH2 0x1337 DUP2 PUSH2 0x1D69 JUMP JUMPDEST SWAP3 SWAP2 POP POP JUMP JUMPDEST PUSH1 0x0 DUP2 MLOAD SWAP1 POP PUSH2 0x134C DUP2 PUSH2 0x1D69 JUMP JUMPDEST SWAP3 SWAP2 POP POP JUMP JUMPDEST PUSH1 0x0 PUSH1 0x20 DUP3 DUP5 SUB SLT ISZERO PUSH2 0x1368 JUMPI PUSH2 0x1367 PUSH2 0x1C2C JUMP JUMPDEST JUMPDEST PUSH1 0x0 PUSH2 0x1376 DUP5 DUP3 DUP6 ADD PUSH2 0x12D0 JUMP JUMPDEST SWAP2 POP POP SWAP3 SWAP2 POP POP JUMP JUMPDEST PUSH1 0x0 PUSH1 0x20 DUP3 DUP5 SUB SLT ISZERO PUSH2 0x1395 JUMPI PUSH2 0x1394 PUSH2 0x1C2C JUMP JUMPDEST JUMPDEST PUSH1 0x0 PUSH2 0x13A3 DUP5 DUP3 DUP6 ADD PUSH2 0x1313 JUMP JUMPDEST SWAP2 POP POP SWAP3 SWAP2 POP POP JUMP JUMPDEST PUSH1 0x0 PUSH1 0x20 DUP3 DUP5 SUB SLT ISZERO PUSH2 0x13C2 JUMPI PUSH2 0x13C1 PUSH2 0x1C2C JUMP JUMPDEST JUMPDEST PUSH1 0x0 PUSH2 0x13D0 DUP5 DUP3 DUP6 ADD PUSH2 0x1328 JUMP JUMPDEST SWAP2 POP POP SWAP3 SWAP2 POP POP JUMP JUMPDEST PUSH1 0x0 PUSH1 0x20 DUP3 DUP5 SUB SLT ISZERO PUSH2 0x13EF JUMPI PUSH2 0x13EE PUSH2 0x1C2C JUMP JUMPDEST JUMPDEST PUSH1 0x0 PUSH2 0x13FD DUP5 DUP3 DUP6 ADD PUSH2 0x133D JUMP JUMPDEST SWAP2 POP POP SWAP3 SWAP2 POP POP JUMP JUMPDEST PUSH1 0x0 DUP1 PUSH1 0x40 DUP4 DUP6 SUB SLT ISZERO PUSH2 0x141D JUMPI PUSH2 0x141C PUSH2 0x1C2C JUMP JUMPDEST JUMPDEST PUSH1 0x0 PUSH2 0x142B DUP6 DUP3 DUP7 ADD PUSH2 0x1328 JUMP JUMPDEST SWAP3 POP POP PUSH1 0x20 DUP4 ADD CALLDATALOAD PUSH8 0xFFFFFFFFFFFFFFFF DUP2 GT ISZERO PUSH2 0x144C JUMPI PUSH2 0x144B PUSH2 0x1C27 JUMP JUMPDEST JUMPDEST PUSH2 0x1458 DUP6 DUP3 DUP7 ADD PUSH2 0x12E5 JUMP JUMPDEST SWAP2 POP POP SWAP3 POP SWAP3 SWAP1 POP JUMP JUMPDEST PUSH1 0x0 PUSH2 0x146E DUP4 DUP4 PUSH2 0x1642 JUMP JUMPDEST PUSH1 0x20 DUP4 ADD SWAP1 POP SWAP3 SWAP2 POP POP JUMP JUMPDEST PUSH2 0x1483 DUP2 PUSH2 0x1A66 JUMP JUMPDEST DUP3 MSTORE POP POP JUMP JUMPDEST PUSH2 0x1492 DUP2 PUSH2 0x1A54 JUMP JUMPDEST DUP3 MSTORE POP POP JUMP JUMPDEST PUSH1 0x0 PUSH2 0x14A3 DUP3 PUSH2 0x1999 JUMP JUMPDEST PUSH2 0x14AD DUP2 DUP6 PUSH2 0x19BC JUMP JUMPDEST SWAP4 POP PUSH2 0x14B8 DUP4 PUSH2 0x1989 JUMP JUMPDEST DUP1 PUSH1 0x0 JUMPDEST DUP4 DUP2 LT ISZERO PUSH2 0x14E9 JUMPI DUP2 MLOAD PUSH2 0x14D0 DUP9 DUP3 PUSH2 0x1462 JUMP JUMPDEST SWAP8 POP PUSH2 0x14DB DUP4 PUSH2 0x19AF JUMP JUMPDEST SWAP3 POP POP PUSH1 0x1 DUP2 ADD SWAP1 POP PUSH2 0x14BC JUMP JUMPDEST POP DUP6 SWAP4 POP POP POP POP SWAP3 SWAP2 POP POP JUMP JUMPDEST PUSH2 0x14FF DUP2 PUSH2 0x1A78 JUMP JUMPDEST DUP3 MSTORE POP POP JUMP JUMPDEST PUSH1 0x0 PUSH2 0x1510 DUP3 PUSH2 0x19A4 JUMP JUMPDEST PUSH2 0x151A DUP2 DUP6 PUSH2 0x19CD JUMP JUMPDEST SWAP4 POP PUSH2 0x152A DUP2 DUP6 PUSH1 0x20 DUP7 ADD PUSH2 0x1ACC JUMP JUMPDEST PUSH2 0x1533 DUP2 PUSH2 0x1C31 JUMP JUMPDEST DUP5 ADD SWAP2 POP POP SWAP3 SWAP2 POP POP JUMP JUMPDEST PUSH1 0x0 PUSH2 0x154B PUSH1 0x11 DUP4 PUSH2 0x19E9 JUMP JUMPDEST SWAP2 POP PUSH2 0x1556 DUP3 PUSH2 0x1C42 JUMP JUMPDEST PUSH1 0x20 DUP3 ADD SWAP1 POP SWAP2 SWAP1 POP JUMP JUMPDEST PUSH1 0x0 PUSH2 0x156E PUSH1 0x16 DUP4 PUSH2 0x19E9 JUMP JUMPDEST SWAP2 POP PUSH2 0x1579 DUP3 PUSH2 0x1C6B JUMP JUMPDEST PUSH1 0x20 DUP3 ADD SWAP1 POP SWAP2 SWAP1 POP JUMP JUMPDEST PUSH1 0x0 PUSH2 0x1591 PUSH1 0x16 DUP4 PUSH2 0x19E9 JUMP JUMPDEST SWAP2 POP PUSH2 0x159C DUP3 PUSH2 0x1C94 JUMP JUMPDEST PUSH1 0x20 DUP3 ADD SWAP1 POP SWAP2 SWAP1 POP JUMP JUMPDEST PUSH1 0x0 PUSH2 0x15B4 PUSH1 0x12 DUP4 PUSH2 0x19E9 JUMP JUMPDEST SWAP2 POP PUSH2 0x15BF DUP3 PUSH2 0x1CBD JUMP JUMPDEST PUSH1 0x20 DUP3 ADD SWAP1 POP SWAP2 SWAP1 POP JUMP JUMPDEST PUSH1 0x0 PUSH2 0x15D7 PUSH1 0x0 DUP4 PUSH2 0x19DE JUMP JUMPDEST SWAP2 POP PUSH2 0x15E2 DUP3 PUSH2 0x1CE6 JUMP JUMPDEST PUSH1 0x0 DUP3 ADD SWAP1 POP SWAP2 SWAP1 POP JUMP JUMPDEST PUSH1 0x0 PUSH2 0x15FA PUSH1 0x17 DUP4 PUSH2 0x19E9 JUMP JUMPDEST SWAP2 POP PUSH2 0x1605 DUP3 PUSH2 0x1CE9 JUMP JUMPDEST PUSH1 0x20 DUP3 ADD SWAP1 POP SWAP2 SWAP1 POP JUMP JUMPDEST PUSH1 0x0 PUSH2 0x161D PUSH1 0x1F DUP4 PUSH2 0x19E9 JUMP JUMPDEST SWAP2 POP PUSH2 0x1628 DUP3 PUSH2 0x1D12 JUMP JUMPDEST PUSH1 0x20 DUP3 ADD SWAP1 POP SWAP2 SWAP1 POP JUMP JUMPDEST PUSH2 0x163C DUP2 PUSH2 0x1A84 JUMP JUMPDEST DUP3 MSTORE POP POP JUMP JUMPDEST PUSH2 0x164B DUP2 PUSH2 0x1AB2 JUMP JUMPDEST DUP3 MSTORE POP POP JUMP JUMPDEST PUSH2 0x165A DUP2 PUSH2 0x1AB2 JUMP JUMPDEST DUP3 MSTORE POP POP JUMP JUMPDEST PUSH2 0x1669 DUP2 PUSH2 0x1ABC JUMP JUMPDEST DUP3 MSTORE POP POP JUMP JUMPDEST PUSH1 0x0 PUSH2 0x167A DUP3 PUSH2 0x15CA JUMP JUMPDEST SWAP2 POP DUP2 SWAP1 POP SWAP2 SWAP1 POP JUMP JUMPDEST PUSH1 0x0 PUSH1 0x20 DUP3 ADD SWAP1 POP PUSH2 0x1699 PUSH1 0x0 DUP4 ADD DUP5 PUSH2 0x1489 JUMP JUMPDEST SWAP3 SWAP2 POP POP JUMP JUMPDEST PUSH1 0x0 PUSH1 0x60 DUP3 ADD SWAP1 POP PUSH2 0x16B4 PUSH1 0x0 DUP4 ADD DUP7 PUSH2 0x147A JUMP JUMPDEST PUSH2 0x16C1 PUSH1 0x20 DUP4 ADD DUP6 PUSH2 0x1651 JUMP JUMPDEST PUSH2 0x16CE PUSH1 0x40 DUP4 ADD DUP5 PUSH2 0x1651 JUMP JUMPDEST SWAP5 SWAP4 POP POP POP POP JUMP JUMPDEST PUSH1 0x0 PUSH1 0x40 DUP3 ADD SWAP1 POP PUSH2 0x16EB PUSH1 0x0 DUP4 ADD DUP6 PUSH2 0x1489 JUMP JUMPDEST PUSH2 0x16F8 PUSH1 0x20 DUP4 ADD DUP5 PUSH2 0x1651 JUMP JUMPDEST SWAP4 SWAP3 POP POP POP JUMP JUMPDEST PUSH1 0x0 PUSH1 0x60 DUP3 ADD SWAP1 POP PUSH2 0x1714 PUSH1 0x0 DUP4 ADD DUP7 PUSH2 0x1489 JUMP JUMPDEST PUSH2 0x1721 PUSH1 0x20 DUP4 ADD DUP6 PUSH2 0x1651 JUMP JUMPDEST DUP2 DUP2 SUB PUSH1 0x40 DUP4 ADD MSTORE PUSH2 0x1733 DUP2 DUP5 PUSH2 0x1505 JUMP JUMPDEST SWAP1 POP SWAP5 SWAP4 POP POP POP POP JUMP JUMPDEST PUSH1 0x0 PUSH1 0x20 DUP3 ADD SWAP1 POP DUP2 DUP2 SUB PUSH1 0x0 DUP4 ADD MSTORE PUSH2 0x1756 DUP2 PUSH2 0x153E JUMP JUMPDEST SWAP1 POP SWAP2 SWAP1 POP JUMP JUMPDEST PUSH1 0x0 PUSH1 0x20 DUP3 ADD SWAP1 POP DUP2 DUP2 SUB PUSH1 0x0 DUP4 ADD MSTORE PUSH2 0x1776 DUP2 PUSH2 0x1561 JUMP JUMPDEST SWAP1 POP SWAP2 SWAP1 POP JUMP JUMPDEST PUSH1 0x0 PUSH1 0x20 DUP3 ADD SWAP1 POP DUP2 DUP2 SUB PUSH1 0x0 DUP4 ADD MSTORE PUSH2 0x1796 DUP2 PUSH2 0x1584 JUMP JUMPDEST SWAP1 POP SWAP2 SWAP1 POP JUMP JUMPDEST PUSH1 0x0 PUSH1 0x20 DUP3 ADD SWAP1 POP DUP2 DUP2 SUB PUSH1 0x0 DUP4 ADD MSTORE PUSH2 0x17B6 DUP2 PUSH2 0x15A7 JUMP JUMPDEST SWAP1 POP SWAP2 SWAP1 POP JUMP JUMPDEST PUSH1 0x0 PUSH1 0x20 DUP3 ADD SWAP1 POP DUP2 DUP2 SUB PUSH1 0x0 DUP4 ADD MSTORE PUSH2 0x17D6 DUP2 PUSH2 0x15ED JUMP JUMPDEST SWAP1 POP SWAP2 SWAP1 POP JUMP JUMPDEST PUSH1 0x0 PUSH1 0x20 DUP3 ADD SWAP1 POP DUP2 DUP2 SUB PUSH1 0x0 DUP4 ADD MSTORE PUSH2 0x17F6 DUP2 PUSH2 0x1610 JUMP JUMPDEST SWAP1 POP SWAP2 SWAP1 POP JUMP JUMPDEST PUSH1 0x0 PUSH1 0x20 DUP3 ADD SWAP1 POP PUSH2 0x1812 PUSH1 0x0 DUP4 ADD DUP5 PUSH2 0x1651 JUMP JUMPDEST SWAP3 SWAP2 POP POP JUMP JUMPDEST PUSH1 0x0 PUSH1 0x60 DUP3 ADD SWAP1 POP PUSH2 0x182D PUSH1 0x0 DUP4 ADD DUP7 PUSH2 0x1651 JUMP JUMPDEST DUP2 DUP2 SUB PUSH1 0x20 DUP4 ADD MSTORE PUSH2 0x183F DUP2 DUP6 PUSH2 0x1498 JUMP JUMPDEST SWAP1 POP PUSH2 0x184E PUSH1 0x40 DUP4 ADD DUP5 PUSH2 0x1651 JUMP JUMPDEST SWAP5 SWAP4 POP POP POP POP JUMP JUMPDEST PUSH1 0x0 PUSH1 0x40 DUP3 ADD SWAP1 POP PUSH2 0x186B PUSH1 0x0 DUP4 ADD DUP6 PUSH2 0x1651 JUMP JUMPDEST PUSH2 0x1878 PUSH1 0x20 DUP4 ADD DUP5 PUSH2 0x14F6 JUMP JUMPDEST SWAP4 SWAP3 POP POP POP JUMP JUMPDEST PUSH1 0x0 PUSH1 0x60 DUP3 ADD SWAP1 POP PUSH2 0x1894 PUSH1 0x0 DUP4 ADD DUP7 PUSH2 0x1651 JUMP JUMPDEST PUSH2 0x18A1 PUSH1 0x20 DUP4 ADD DUP6 PUSH2 0x14F6 JUMP JUMPDEST DUP2 DUP2 SUB PUSH1 0x40 DUP4 ADD MSTORE PUSH2 0x18B3 DUP2 DUP5 PUSH2 0x1498 JUMP JUMPDEST SWAP1 POP SWAP5 SWAP4 POP POP POP POP JUMP JUMPDEST PUSH1 0x0 PUSH1 0x40 DUP3 ADD SWAP1 POP PUSH2 0x18D2 PUSH1 0x0 DUP4 ADD DUP6 PUSH2 0x1651 JUMP JUMPDEST PUSH2 0x18DF PUSH1 0x20 DUP4 ADD DUP5 PUSH2 0x1660 JUMP JUMPDEST SWAP4 SWAP3 POP POP POP JUMP JUMPDEST PUSH1 0x0 PUSH1 0x20 DUP3 ADD SWAP1 POP PUSH2 0x18FB PUSH1 0x0 DUP4 ADD DUP5 PUSH2 0x1660 JUMP JUMPDEST SWAP3 SWAP2 POP POP JUMP JUMPDEST PUSH1 0x0 PUSH1 0x60 DUP3 ADD SWAP1 POP PUSH2 0x1916 PUSH1 0x0 DUP4 ADD DUP7 PUSH2 0x1660 JUMP JUMPDEST PUSH2 0x1923 PUSH1 0x20 DUP4 ADD DUP6 PUSH2 0x1633 JUMP JUMPDEST PUSH2 0x1930 PUSH1 0x40 DUP4 ADD DUP5 PUSH2 0x1660 JUMP JUMPDEST SWAP5 SWAP4 POP POP POP POP JUMP JUMPDEST PUSH1 0x0 PUSH2 0x1942 PUSH2 0x1953 JUMP JUMPDEST SWAP1 POP PUSH2 0x194E DUP3 DUP3 PUSH2 0x1AFF JUMP JUMPDEST SWAP2 SWAP1 POP JUMP JUMPDEST PUSH1 0x0 PUSH1 0x40 MLOAD SWAP1 POP SWAP1 JUMP JUMPDEST PUSH1 0x0 PUSH8 0xFFFFFFFFFFFFFFFF DUP3 GT ISZERO PUSH2 0x1978 JUMPI PUSH2 0x1977 PUSH2 0x1BEE JUMP JUMPDEST JUMPDEST PUSH1 0x20 DUP3 MUL SWAP1 POP PUSH1 0x20 DUP2 ADD SWAP1 POP SWAP2 SWAP1 POP JUMP JUMPDEST PUSH1 0x0 DUP2 SWAP1 POP PUSH1 0x20 DUP3 ADD SWAP1 POP SWAP2 SWAP1 POP JUMP JUMPDEST PUSH1 0x0 DUP2 MLOAD SWAP1 POP SWAP2 SWAP1 POP JUMP JUMPDEST PUSH1 0x0 DUP2 MLOAD SWAP1 POP SWAP2 SWAP1 POP JUMP JUMPDEST PUSH1 0x0 PUSH1 0x20 DUP3 ADD SWAP1 POP SWAP2 SWAP1 POP JUMP JUMPDEST PUSH1 0x0 DUP3 DUP3 MSTORE PUSH1 0x20 DUP3 ADD SWAP1 POP SWAP3 SWAP2 POP POP JUMP JUMPDEST PUSH1 0x0 DUP3 DUP3 MSTORE PUSH1 0x20 DUP3 ADD SWAP1 POP SWAP3 SWAP2 POP POP JUMP JUMPDEST PUSH1 0x0 DUP2 SWAP1 POP SWAP3 SWAP2 POP POP JUMP JUMPDEST PUSH1 0x0 DUP3 DUP3 MSTORE PUSH1 0x20 DUP3 ADD SWAP1 POP SWAP3 SWAP2 POP POP JUMP JUMPDEST PUSH1 0x0 PUSH2 0x1A05 DUP3 PUSH2 0x1AB2 JUMP JUMPDEST SWAP2 POP PUSH2 0x1A10 DUP4 PUSH2 0x1AB2 JUMP JUMPDEST SWAP3 POP DUP2 PUSH32 0xFFFFFFFFFFFFFFFFFFFFFFFFFFFFFFFFFFFFFFFFFFFFFFFFFFFFFFFFFFFFFFFF DIV DUP4 GT DUP3 ISZERO ISZERO AND ISZERO PUSH2 0x1A49 JUMPI PUSH2 0x1A48 PUSH2 0x1B61 JUMP JUMPDEST JUMPDEST DUP3 DUP3 MUL SWAP1 POP SWAP3 SWAP2 POP POP JUMP JUMPDEST PUSH1 0x0 PUSH2 0x1A5F DUP3 PUSH2 0x1A92 JUMP JUMPDEST SWAP1 POP SWAP2 SWAP1 POP JUMP JUMPDEST PUSH1 0x0 PUSH2 0x1A71 DUP3 PUSH2 0x1A92 JUMP JUMPDEST SWAP1 POP SWAP2 SWAP1 POP JUMP JUMPDEST PUSH1 0x0 DUP2 ISZERO ISZERO SWAP1 POP SWAP2 SWAP1 POP JUMP JUMPDEST PUSH1 0x0 PUSH2 0xFFFF DUP3 AND SWAP1 POP SWAP2 SWAP1 POP JUMP JUMPDEST PUSH1 0x0 PUSH20 0xFFFFFFFFFFFFFFFFFFFFFFFFFFFFFFFFFFFFFFFF DUP3 AND SWAP1 POP SWAP2 SWAP1 POP JUMP JUMPDEST PUSH1 0x0 DUP2 SWAP1 POP SWAP2 SWAP1 POP JUMP JUMPDEST PUSH1 0x0 PUSH4 0xFFFFFFFF DUP3 AND SWAP1 POP SWAP2 SWAP1 POP JUMP JUMPDEST PUSH1 0x0 JUMPDEST DUP4 DUP2 LT ISZERO PUSH2 0x1AEA JUMPI DUP1 DUP3 ADD MLOAD DUP2 DUP5 ADD MSTORE PUSH1 0x20 DUP2 ADD SWAP1 POP PUSH2 0x1ACF JUMP JUMPDEST DUP4 DUP2 GT ISZERO PUSH2 0x1AF9 JUMPI PUSH1 0x0 DUP5 DUP5 ADD MSTORE JUMPDEST POP POP POP POP JUMP JUMPDEST PUSH2 0x1B08 DUP3 PUSH2 0x1C31 JUMP JUMPDEST DUP2 ADD DUP2 DUP2 LT PUSH8 0xFFFFFFFFFFFFFFFF DUP3 GT OR ISZERO PUSH2 0x1B27 JUMPI PUSH2 0x1B26 PUSH2 0x1BEE JUMP JUMPDEST JUMPDEST DUP1 PUSH1 0x40 MSTORE POP POP POP JUMP JUMPDEST PUSH1 0x0 PUSH2 0x1B3B DUP3 PUSH2 0x1AB2 JUMP JUMPDEST SWAP2 POP PUSH2 0x1B46 DUP4 PUSH2 0x1AB2 JUMP JUMPDEST SWAP3 POP DUP3 PUSH2 0x1B56 JUMPI PUSH2 0x1B55 PUSH2 0x1B90 JUMP JUMPDEST JUMPDEST DUP3 DUP3 MOD SWAP1 POP SWAP3 SWAP2 POP POP JUMP JUMPDEST PUSH32 0x4E487B7100000000000000000000000000000000000000000000000000000000 PUSH1 0x0 MSTORE PUSH1 0x11 PUSH1 0x4 MSTORE PUSH1 0x24 PUSH1 0x0 REVERT JUMPDEST PUSH32 0x4E487B7100000000000000000000000000000000000000000000000000000000 PUSH1 0x0 MSTORE PUSH1 0x12 PUSH1 0x4 MSTORE PUSH1 0x24 PUSH1 0x0 REVERT JUMPDEST PUSH32 0x4E487B7100000000000000000000000000000000000000000000000000000000 PUSH1 0x0 MSTORE PUSH1 0x32 PUSH1 0x4 MSTORE PUSH1 0x24 PUSH1 0x0 REVERT JUMPDEST PUSH32 0x4E487B7100000000000000000000000000000000000000000000000000000000 PUSH1 0x0 MSTORE PUSH1 0x41 PUSH1 0x4 MSTORE PUSH1 0x24 PUSH1 0x0 REVERT JUMPDEST PUSH1 0x0 DUP1 REVERT JUMPDEST PUSH1 0x0 DUP1 REVERT JUMPDEST PUSH1 0x0 DUP1 REVERT JUMPDEST PUSH1 0x0 DUP1 REVERT JUMPDEST PUSH1 0x0 PUSH1 0x1F NOT PUSH1 0x1F DUP4 ADD AND SWAP1 POP SWAP2 SWAP1 POP JUMP JUMPDEST PUSH32 0x72657175657374206E6F7420666F756E64000000000000000000000000000000 PUSH1 0x0 DUP3 ADD MSTORE POP JUMP JUMPDEST PUSH32 0x4D7573742062652070726F706F736564206F776E657200000000000000000000 PUSH1 0x0 DUP3 ADD MSTORE POP JUMP JUMPDEST PUSH32 0x4F6E6C792063616C6C61626C65206279206F776E657200000000000000000000 PUSH1 0x0 DUP3 ADD MSTORE POP JUMP JUMPDEST PUSH32 0x556E61626C6520746F207472616E736665720000000000000000000000000000 PUSH1 0x0 DUP3 ADD MSTORE POP JUMP JUMPDEST POP JUMP JUMPDEST PUSH32 0x43616E6E6F74207472616E7366657220746F2073656C66000000000000000000 PUSH1 0x0 DUP3 ADD MSTORE POP JUMP JUMPDEST PUSH32 0x6F6E6C792056524620563220777261707065722063616E2066756C66696C6C00 PUSH1 0x0 DUP3 ADD MSTORE POP JUMP JUMPDEST PUSH2 0x1D44 DUP2 PUSH2 0x1A54 JUMP JUMPDEST DUP2 EQ PUSH2 0x1D4F JUMPI PUSH1 0x0 DUP1 REVERT JUMPDEST POP JUMP JUMPDEST PUSH2 0x1D5B DUP2 PUSH2 0x1A78 JUMP JUMPDEST DUP2 EQ PUSH2 0x1D66 JUMPI PUSH1 0x0 DUP1 REVERT JUMPDEST POP JUMP JUMPDEST PUSH2 0x1D72 DUP2 PUSH2 0x1AB2 JUMP JUMPDEST DUP2 EQ PUSH2 0x1D7D JUMPI PUSH1 0x0 DUP1 REVERT JUMPDEST POP JUMP INVALID LOG2 PUSH5 0x6970667358 0x22 SLT KECCAK256 DUP4 0xE6 0xBD DUP8 SWAP5 0xC2 RETURNDATASIZE MUL 0x27 SLOAD SWAP9 SWAP15 PUSH11 0xF5F3EA4483DECE303799EB 0x2A PUSH21 0x7C9936B488EE64736F6C6343000807003300000000 "
				},
				"gasEstimates": {
					"creation": {
						"codeDepositCost": "1521200",
						"executionCost": "infinite",
						"totalCost": "infinite"
					},
					"external": {
						"acceptOwnership()": "54607",
						"betResult()": "2473",
						"getRequestStatus(uint256)": "infinite",
						"lastRequestId()": "2539",
						"owner()": "2633",
						"playGame(uint256)": "infinite",
						"rawFulfillRandomWords(uint256,uint256[])": "infinite",
						"records(uint256)": "infinite",
						"requestIds(uint256)": "infinite",
						"s_requests(uint256)": "infinite",
						"transferOwnership(address)": "30745",
						"withdrawLink()": "infinite"
					},
					"internal": {
						"fulfillRandomWords(uint256,uint256[] memory)": "infinite",
						"requestRandomWords()": "infinite"
					}
				},
				"methodIdentifiers": {
					"acceptOwnership()": "79ba5097",
					"betResult()": "bfb3047f",
					"getRequestStatus(uint256)": "d8a4676f",
					"lastRequestId()": "fc2a88c3",
					"owner()": "8da5cb5b",
					"playGame(uint256)": "5873533d",
					"rawFulfillRandomWords(uint256,uint256[])": "1fe543e3",
					"records(uint256)": "34461067",
					"requestIds(uint256)": "8796ba8c",
					"s_requests(uint256)": "a168fa89",
					"transferOwnership(address)": "f2fde38b",
					"withdrawLink()": "8dc654a2"
				}
			},
			"storageLayout": {
				"storage": [
					{
						"astId": 27,
						"contract": "docs.chain.link/samples/VRF/VRFv2DirectFundingConsumer.sol:VRFv2DirectFundingConsumer",
						"label": "s_owner",
						"offset": 0,
						"slot": "0",
						"type": "t_address"
					},
					{
						"astId": 29,
						"contract": "docs.chain.link/samples/VRF/VRFv2DirectFundingConsumer.sol:VRFv2DirectFundingConsumer",
						"label": "s_pendingOwner",
						"offset": 0,
						"slot": "1",
						"type": "t_address"
					},
					{
						"astId": 459,
						"contract": "docs.chain.link/samples/VRF/VRFv2DirectFundingConsumer.sol:VRFv2DirectFundingConsumer",
						"label": "s_requests",
						"offset": 0,
						"slot": "2",
						"type": "t_mapping(t_uint256,t_struct(RequestStatus)454_storage)"
					},
					{
						"astId": 462,
						"contract": "docs.chain.link/samples/VRF/VRFv2DirectFundingConsumer.sol:VRFv2DirectFundingConsumer",
						"label": "requestIds",
						"offset": 0,
						"slot": "3",
						"type": "t_array(t_uint256)dyn_storage"
					},
					{
						"astId": 464,
						"contract": "docs.chain.link/samples/VRF/VRFv2DirectFundingConsumer.sol:VRFv2DirectFundingConsumer",
						"label": "lastRequestId",
						"offset": 0,
						"slot": "4",
						"type": "t_uint256"
					},
					{
						"astId": 467,
						"contract": "docs.chain.link/samples/VRF/VRFv2DirectFundingConsumer.sol:VRFv2DirectFundingConsumer",
						"label": "callbackGasLimit",
						"offset": 0,
						"slot": "5",
						"type": "t_uint32"
					},
					{
						"astId": 470,
						"contract": "docs.chain.link/samples/VRF/VRFv2DirectFundingConsumer.sol:VRFv2DirectFundingConsumer",
						"label": "requestConfirmations",
						"offset": 4,
						"slot": "5",
						"type": "t_uint16"
					},
					{
						"astId": 473,
						"contract": "docs.chain.link/samples/VRF/VRFv2DirectFundingConsumer.sol:VRFv2DirectFundingConsumer",
						"label": "numWords",
						"offset": 6,
						"slot": "5",
						"type": "t_uint32"
					},
					{
						"astId": 476,
						"contract": "docs.chain.link/samples/VRF/VRFv2DirectFundingConsumer.sol:VRFv2DirectFundingConsumer",
						"label": "linkAddress",
						"offset": 10,
						"slot": "5",
						"type": "t_address"
					},
					{
						"astId": 479,
						"contract": "docs.chain.link/samples/VRF/VRFv2DirectFundingConsumer.sol:VRFv2DirectFundingConsumer",
						"label": "wrapperAddress",
						"offset": 0,
						"slot": "6",
						"type": "t_address"
					},
					{
						"astId": 491,
						"contract": "docs.chain.link/samples/VRF/VRFv2DirectFundingConsumer.sol:VRFv2DirectFundingConsumer",
						"label": "records",
						"offset": 0,
						"slot": "7",
						"type": "t_mapping(t_uint256,t_struct(Player)486_storage)"
					},
					{
						"astId": 493,
						"contract": "docs.chain.link/samples/VRF/VRFv2DirectFundingConsumer.sol:VRFv2DirectFundingConsumer",
						"label": "betResult",
						"offset": 0,
						"slot": "8",
						"type": "t_uint256"
					}
				],
				"types": {
					"t_address": {
						"encoding": "inplace",
						"label": "address",
						"numberOfBytes": "20"
					},
					"t_address_payable": {
						"encoding": "inplace",
						"label": "address payable",
						"numberOfBytes": "20"
					},
					"t_array(t_uint256)dyn_storage": {
						"base": "t_uint256",
						"encoding": "dynamic_array",
						"label": "uint256[]",
						"numberOfBytes": "32"
					},
					"t_bool": {
						"encoding": "inplace",
						"label": "bool",
						"numberOfBytes": "1"
					},
					"t_mapping(t_uint256,t_struct(Player)486_storage)": {
						"encoding": "mapping",
						"key": "t_uint256",
						"label": "mapping(uint256 => struct VRFv2DirectFundingConsumer.Player)",
						"numberOfBytes": "32",
						"value": "t_struct(Player)486_storage"
					},
					"t_mapping(t_uint256,t_struct(RequestStatus)454_storage)": {
						"encoding": "mapping",
						"key": "t_uint256",
						"label": "mapping(uint256 => struct VRFv2DirectFundingConsumer.RequestStatus)",
						"numberOfBytes": "32",
						"value": "t_struct(RequestStatus)454_storage"
					},
					"t_struct(Player)486_storage": {
						"encoding": "inplace",
						"label": "struct VRFv2DirectFundingConsumer.Player",
						"members": [
							{
								"astId": 481,
								"contract": "docs.chain.link/samples/VRF/VRFv2DirectFundingConsumer.sol:VRFv2DirectFundingConsumer",
								"label": "playerAddress",
								"offset": 0,
								"slot": "0",
								"type": "t_address_payable"
							},
							{
								"astId": 483,
								"contract": "docs.chain.link/samples/VRF/VRFv2DirectFundingConsumer.sol:VRFv2DirectFundingConsumer",
								"label": "betNumber",
								"offset": 0,
								"slot": "1",
								"type": "t_uint256"
							},
							{
								"astId": 485,
								"contract": "docs.chain.link/samples/VRF/VRFv2DirectFundingConsumer.sol:VRFv2DirectFundingConsumer",
								"label": "betAmount",
								"offset": 0,
								"slot": "2",
								"type": "t_uint256"
							}
						],
						"numberOfBytes": "96"
					},
					"t_struct(RequestStatus)454_storage": {
						"encoding": "inplace",
						"label": "struct VRFv2DirectFundingConsumer.RequestStatus",
						"members": [
							{
								"astId": 448,
								"contract": "docs.chain.link/samples/VRF/VRFv2DirectFundingConsumer.sol:VRFv2DirectFundingConsumer",
								"label": "paid",
								"offset": 0,
								"slot": "0",
								"type": "t_uint256"
							},
							{
								"astId": 450,
								"contract": "docs.chain.link/samples/VRF/VRFv2DirectFundingConsumer.sol:VRFv2DirectFundingConsumer",
								"label": "fulfilled",
								"offset": 0,
								"slot": "1",
								"type": "t_bool"
							},
							{
								"astId": 453,
								"contract": "docs.chain.link/samples/VRF/VRFv2DirectFundingConsumer.sol:VRFv2DirectFundingConsumer",
								"label": "randomWords",
								"offset": 0,
								"slot": "2",
								"type": "t_array(t_uint256)dyn_storage"
							}
						],
						"numberOfBytes": "96"
					},
					"t_uint16": {
						"encoding": "inplace",
						"label": "uint16",
						"numberOfBytes": "2"
					},
					"t_uint256": {
						"encoding": "inplace",
						"label": "uint256",
						"numberOfBytes": "32"
					},
					"t_uint32": {
						"encoding": "inplace",
						"label": "uint32",
						"numberOfBytes": "4"
					}
				}
			},
			"userdoc": {
				"kind": "user",
				"methods": {
					"acceptOwnership()": {
						"notice": "Allows an ownership transfer to be completed by the recipient."
					},
					"owner()": {
						"notice": "Get the current owner"
					},
					"transferOwnership(address)": {
						"notice": "Allows an owner to begin transferring ownership to a new address, pending."
					},
					"withdrawLink()": {
						"notice": "Allow withdraw of Link tokens from the contract"
					}
				},
				"notice": "THIS IS AN EXAMPLE CONTRACT THAT USES HARDCODED VALUES FOR CLARITY. THIS IS AN EXAMPLE CONTRACT THAT USES UN-AUDITED CODE. DO NOT USE THIS CODE IN PRODUCTION.",
				"version": 1
			}
		}
	}
}