{
	"docs.chain.link/samples/VRF/VRFv2DirectFundingConsumer.sol": {
		"VRFv2DirectFundingConsumer": {
			"abi": [
				{
					"inputs": [],
					"stateMutability": "nonpayable",
					"type": "constructor"
				},
				{
					"anonymous": false,
					"inputs": [
						{
							"indexed": true,
							"internalType": "address",
							"name": "from",
							"type": "address"
						},
						{
							"indexed": true,
							"internalType": "address",
							"name": "to",
							"type": "address"
						}
					],
					"name": "OwnershipTransferRequested",
					"type": "event"
				},
				{
					"anonymous": false,
					"inputs": [
						{
							"indexed": true,
							"internalType": "address",
							"name": "from",
							"type": "address"
						},
						{
							"indexed": true,
							"internalType": "address",
							"name": "to",
							"type": "address"
						}
					],
					"name": "OwnershipTransferred",
					"type": "event"
				},
				{
					"anonymous": false,
					"inputs": [
						{
							"indexed": false,
							"internalType": "uint256",
							"name": "requestId",
							"type": "uint256"
						},
						{
							"indexed": false,
							"internalType": "uint256[]",
							"name": "randomWords",
							"type": "uint256[]"
						},
						{
							"indexed": false,
							"internalType": "uint256",
							"name": "payment",
							"type": "uint256"
						}
					],
					"name": "RequestFulfilled",
					"type": "event"
				},
				{
					"anonymous": false,
					"inputs": [
						{
							"indexed": false,
							"internalType": "uint256",
							"name": "requestId",
							"type": "uint256"
						},
						{
							"indexed": false,
							"internalType": "uint32",
							"name": "numWords",
							"type": "uint32"
						}
					],
					"name": "RequestSent",
					"type": "event"
				},
				{
					"inputs": [],
					"name": "acceptOwnership",
					"outputs": [],
					"stateMutability": "nonpayable",
					"type": "function"
				},
				{
					"inputs": [],
					"name": "betResult",
					"outputs": [
						{
							"internalType": "uint256",
							"name": "",
							"type": "uint256"
						}
					],
					"stateMutability": "view",
					"type": "function"
				},
				{
					"inputs": [
						{
							"internalType": "uint256",
							"name": "_requestId",
							"type": "uint256"
						}
					],
					"name": "getRequestStatus",
					"outputs": [
						{
							"internalType": "uint256",
							"name": "paid",
							"type": "uint256"
						},
						{
							"internalType": "bool",
							"name": "fulfilled",
							"type": "bool"
						},
						{
							"internalType": "uint256[]",
							"name": "randomWords",
							"type": "uint256[]"
						}
					],
					"stateMutability": "view",
					"type": "function"
				},
				{
					"inputs": [],
					"name": "lastRequestId",
					"outputs": [
						{
							"internalType": "uint256",
							"name": "",
							"type": "uint256"
						}
					],
					"stateMutability": "view",
					"type": "function"
				},
				{
					"inputs": [],
					"name": "maxBet",
					"outputs": [
						{
							"internalType": "uint256",
							"name": "",
							"type": "uint256"
						}
					],
					"stateMutability": "view",
					"type": "function"
				},
				{
					"inputs": [],
					"name": "maxBetRatio",
					"outputs": [
						{
							"internalType": "uint256",
							"name": "",
							"type": "uint256"
						}
					],
					"stateMutability": "view",
					"type": "function"
				},
				{
					"inputs": [],
					"name": "owner",
					"outputs": [
						{
							"internalType": "address",
							"name": "",
							"type": "address"
						}
					],
					"stateMutability": "view",
					"type": "function"
				},
				{
					"inputs": [
						{
							"internalType": "uint256",
							"name": "betNumber",
							"type": "uint256"
						}
					],
					"name": "playGame",
					"outputs": [],
					"stateMutability": "payable",
					"type": "function"
				},
				{
					"inputs": [
						{
							"internalType": "uint256",
							"name": "_requestId",
							"type": "uint256"
						},
						{
							"internalType": "uint256[]",
							"name": "_randomWords",
							"type": "uint256[]"
						}
					],
					"name": "rawFulfillRandomWords",
					"outputs": [],
					"stateMutability": "nonpayable",
					"type": "function"
				},
				{
					"inputs": [
						{
							"internalType": "uint256",
							"name": "",
							"type": "uint256"
						}
					],
					"name": "records",
					"outputs": [
						{
							"internalType": "address payable",
							"name": "playerAddress",
							"type": "address"
						},
						{
							"internalType": "uint256",
							"name": "betNumber",
							"type": "uint256"
						},
						{
							"internalType": "uint256",
							"name": "betAmount",
							"type": "uint256"
						}
					],
					"stateMutability": "view",
					"type": "function"
				},
				{
					"inputs": [
						{
							"internalType": "uint256",
							"name": "",
							"type": "uint256"
						}
					],
					"name": "requestIds",
					"outputs": [
						{
							"internalType": "uint256",
							"name": "",
							"type": "uint256"
						}
					],
					"stateMutability": "view",
					"type": "function"
				},
				{
					"inputs": [
						{
							"internalType": "uint256",
							"name": "",
							"type": "uint256"
						}
					],
					"name": "s_requests",
					"outputs": [
						{
							"internalType": "uint256",
							"name": "paid",
							"type": "uint256"
						},
						{
							"internalType": "bool",
							"name": "fulfilled",
							"type": "bool"
						}
					],
					"stateMutability": "view",
					"type": "function"
				},
				{
					"inputs": [
						{
							"internalType": "address",
							"name": "to",
							"type": "address"
						}
					],
					"name": "transferOwnership",
					"outputs": [],
					"stateMutability": "nonpayable",
					"type": "function"
				},
				{
					"inputs": [],
					"name": "withdrawLink",
					"outputs": [],
					"stateMutability": "nonpayable",
					"type": "function"
				}
			],
			"devdoc": {
				"kind": "dev",
				"methods": {},
				"version": 1
			},
			"evm": {
				"assembly": "    /* \"docs.chain.link/samples/VRF/VRFv2DirectFundingConsumer.sol\":653:5257  contract VRFv2DirectFundingConsumer is VRFV2WrapperConsumerBase, ConfirmedOwner {... */\n  mstore(0x40, 0xc0)\n    /* \"docs.chain.link/samples/VRF/VRFv2DirectFundingConsumer.sol\":1590:1596  100000 */\n  0x0186a0\n    /* \"docs.chain.link/samples/VRF/VRFv2DirectFundingConsumer.sol\":1564:1596  uint32 callbackGasLimit = 100000 */\n  0x05\n  exp(0x0100, 0x00)\n  dup2\n  sload\n  dup2\n  0xffffffff\n  mul\n  not\n  and\n  swap1\n  dup4\n  0xffffffff\n  and\n  mul\n  or\n  swap1\n  sstore\n  pop\n    /* \"docs.chain.link/samples/VRF/VRFv2DirectFundingConsumer.sol\":1687:1688  3 */\n  0x03\n    /* \"docs.chain.link/samples/VRF/VRFv2DirectFundingConsumer.sol\":1657:1688  uint16 requestConfirmations = 3 */\n  0x05\n  exp(0x0100, 0x04)\n  dup2\n  sload\n  dup2\n  0xffff\n  mul\n  not\n  and\n  swap1\n  dup4\n  0xffff\n  and\n  mul\n  or\n  swap1\n  sstore\n  pop\n    /* \"docs.chain.link/samples/VRF/VRFv2DirectFundingConsumer.sol\":1838:1839  2 */\n  0x02\n    /* \"docs.chain.link/samples/VRF/VRFv2DirectFundingConsumer.sol\":1820:1839  uint32 numWords = 2 */\n  0x05\n  exp(0x0100, 0x06)\n  dup2\n  sload\n  dup2\n  0xffffffff\n  mul\n  not\n  and\n  swap1\n  dup4\n  0xffffffff\n  and\n  mul\n  or\n  swap1\n  sstore\n  pop\n    /* \"docs.chain.link/samples/VRF/VRFv2DirectFundingConsumer.sol\":1911:1953  0x8AC089a6fc01a9F831858acae2be7e32C23ae1C0 */\n  0x8ac089a6fc01a9f831858acae2be7e32c23ae1c0\n    /* \"docs.chain.link/samples/VRF/VRFv2DirectFundingConsumer.sol\":1889:1953  address linkAddress = 0x8AC089a6fc01a9F831858acae2be7e32C23ae1C0 */\n  0x05\n  exp(0x0100, 0x0a)\n  dup2\n  sload\n  dup2\n  0xffffffffffffffffffffffffffffffffffffffff\n  mul\n  not\n  and\n  swap1\n  dup4\n  0xffffffffffffffffffffffffffffffffffffffff\n  and\n  mul\n  or\n  swap1\n  sstore\n  pop\n    /* \"docs.chain.link/samples/VRF/VRFv2DirectFundingConsumer.sol\":2031:2073  0x708701a1DfF4f478de54383E49a627eD4852C816 */\n  0x708701a1dff4f478de54383e49a627ed4852c816\n    /* \"docs.chain.link/samples/VRF/VRFv2DirectFundingConsumer.sol\":2006:2073  address wrapperAddress = 0x708701a1DfF4f478de54383E49a627eD4852C816 */\n  0x06\n  exp(0x0100, 0x00)\n  dup2\n  sload\n  dup2\n  0xffffffffffffffffffffffffffffffffffffffff\n  mul\n  not\n  and\n  swap1\n  dup4\n  0xffffffffffffffffffffffffffffffffffffffff\n  and\n  mul\n  or\n  swap1\n  sstore\n  pop\n    /* \"docs.chain.link/samples/VRF/VRFv2DirectFundingConsumer.sol\":2304:2311  1 ether */\n  0x0de0b6b3a7640000\n    /* \"docs.chain.link/samples/VRF/VRFv2DirectFundingConsumer.sol\":2280:2311  uint256 public maxBet = 1 ether */\n  0x09\n  sstore\n    /* \"docs.chain.link/samples/VRF/VRFv2DirectFundingConsumer.sol\":2347:2351  1000 */\n  0x03e8\n    /* \"docs.chain.link/samples/VRF/VRFv2DirectFundingConsumer.sol\":2318:2351  uint256 public maxBetRatio = 1000 */\n  0x0a\n  sstore\n    /* \"docs.chain.link/samples/VRF/VRFv2DirectFundingConsumer.sol\":2363:2460  constructor() ConfirmedOwner(msg.sender) VRFV2WrapperConsumerBase(linkAddress, wrapperAddress) {} */\n  callvalue\n  dup1\n  iszero\n  tag_1\n  jumpi\n  0x00\n  dup1\n  revert\ntag_1:\n  pop\n    /* \"docs.chain.link/samples/VRF/VRFv2DirectFundingConsumer.sol\":2392:2402  msg.sender */\n  caller\n    /* \"@chainlink/contracts/src/v0.8/ConfirmedOwner.sol\":327:335  newOwner */\n  dup1\n    /* \"@chainlink/contracts/src/v0.8/ConfirmedOwner.sol\":345:346  0 */\n  0x00\n    /* \"docs.chain.link/samples/VRF/VRFv2DirectFundingConsumer.sol\":2429:2440  linkAddress */\n  0x05\n  0x0a\n  swap1\n  sload\n  swap1\n  0x0100\n  exp\n  swap1\n  div\n  0xffffffffffffffffffffffffffffffffffffffff\n  and\n    /* \"docs.chain.link/samples/VRF/VRFv2DirectFundingConsumer.sol\":2442:2456  wrapperAddress */\n  0x06\n  0x00\n  swap1\n  sload\n  swap1\n  0x0100\n  exp\n  swap1\n  div\n  0xffffffffffffffffffffffffffffffffffffffff\n  and\n    /* \"@chainlink/contracts/src/v0.8/VRFV2WrapperConsumerBase.sol\":1938:1943  _link */\n  dup2\n    /* \"@chainlink/contracts/src/v0.8/VRFV2WrapperConsumerBase.sol\":1912:1944  LINK = LinkTokenInterface(_link) */\n  0xffffffffffffffffffffffffffffffffffffffff\n  and\n  0x80\n  dup2\n  0xffffffffffffffffffffffffffffffffffffffff\n  and\n  0x60\n  shl\n  dup2\n  mstore\n  pop\n  pop\n    /* \"@chainlink/contracts/src/v0.8/VRFV2WrapperConsumerBase.sol\":1989:2002  _vrfV2Wrapper */\n  dup1\n    /* \"@chainlink/contracts/src/v0.8/VRFV2WrapperConsumerBase.sol\":1950:2003  VRF_V2_WRAPPER = VRFV2WrapperInterface(_vrfV2Wrapper) */\n  0xffffffffffffffffffffffffffffffffffffffff\n  and\n  0xa0\n  dup2\n  0xffffffffffffffffffffffffffffffffffffffff\n  and\n  0x60\n  shl\n  dup2\n  mstore\n  pop\n  pop\n    /* \"@chainlink/contracts/src/v0.8/VRFV2WrapperConsumerBase.sol\":1856:2008  constructor(address _link, address _vrfV2Wrapper) {... */\n  pop\n  pop\n    /* \"@chainlink/contracts/src/v0.8/ConfirmedOwnerWithProposal.sol\":572:573  0 */\n  0x00\n    /* \"@chainlink/contracts/src/v0.8/ConfirmedOwnerWithProposal.sol\":552:574  newOwner != address(0) */\n  0xffffffffffffffffffffffffffffffffffffffff\n  and\n    /* \"@chainlink/contracts/src/v0.8/ConfirmedOwnerWithProposal.sol\":552:560  newOwner */\n  dup3\n    /* \"@chainlink/contracts/src/v0.8/ConfirmedOwnerWithProposal.sol\":552:574  newOwner != address(0) */\n  0xffffffffffffffffffffffffffffffffffffffff\n  and\n  eq\n  iszero\n    /* \"@chainlink/contracts/src/v0.8/ConfirmedOwnerWithProposal.sol\":544:603  require(newOwner != address(0), \"Cannot set owner to zero\") */\n  tag_8\n  jumpi\n  mload(0x40)\n  0x08c379a000000000000000000000000000000000000000000000000000000000\n  dup2\n  mstore\n  0x04\n  add\n  tag_9\n  swap1\n  tag_10\n  jump\t// in\ntag_9:\n  mload(0x40)\n  dup1\n  swap2\n  sub\n  swap1\n  revert\ntag_8:\n    /* \"@chainlink/contracts/src/v0.8/ConfirmedOwnerWithProposal.sol\":620:628  newOwner */\n  dup2\n    /* \"@chainlink/contracts/src/v0.8/ConfirmedOwnerWithProposal.sol\":610:617  s_owner */\n  0x00\n  dup1\n    /* \"@chainlink/contracts/src/v0.8/ConfirmedOwnerWithProposal.sol\":610:628  s_owner = newOwner */\n  0x0100\n  exp\n  dup2\n  sload\n  dup2\n  0xffffffffffffffffffffffffffffffffffffffff\n  mul\n  not\n  and\n  swap1\n  dup4\n  0xffffffffffffffffffffffffffffffffffffffff\n  and\n  mul\n  or\n  swap1\n  sstore\n  pop\n    /* \"@chainlink/contracts/src/v0.8/ConfirmedOwnerWithProposal.sol\":662:663  0 */\n  0x00\n    /* \"@chainlink/contracts/src/v0.8/ConfirmedOwnerWithProposal.sol\":638:664  pendingOwner != address(0) */\n  0xffffffffffffffffffffffffffffffffffffffff\n  and\n    /* \"@chainlink/contracts/src/v0.8/ConfirmedOwnerWithProposal.sol\":638:650  pendingOwner */\n  dup2\n    /* \"@chainlink/contracts/src/v0.8/ConfirmedOwnerWithProposal.sol\":638:664  pendingOwner != address(0) */\n  0xffffffffffffffffffffffffffffffffffffffff\n  and\n  eq\n    /* \"@chainlink/contracts/src/v0.8/ConfirmedOwnerWithProposal.sol\":634:713  if (pendingOwner != address(0)) {... */\n  tag_11\n  jumpi\n    /* \"@chainlink/contracts/src/v0.8/ConfirmedOwnerWithProposal.sol\":674:706  _transferOwnership(pendingOwner) */\n  tag_12\n    /* \"@chainlink/contracts/src/v0.8/ConfirmedOwnerWithProposal.sol\":693:705  pendingOwner */\n  dup2\n    /* \"@chainlink/contracts/src/v0.8/ConfirmedOwnerWithProposal.sol\":674:692  _transferOwnership */\n  shl(0x20, tag_13)\n    /* \"@chainlink/contracts/src/v0.8/ConfirmedOwnerWithProposal.sol\":674:706  _transferOwnership(pendingOwner) */\n  0x20\n  shr\n  jump\t// in\ntag_12:\n    /* \"@chainlink/contracts/src/v0.8/ConfirmedOwnerWithProposal.sol\":634:713  if (pendingOwner != address(0)) {... */\ntag_11:\n    /* \"@chainlink/contracts/src/v0.8/ConfirmedOwnerWithProposal.sol\":486:717  constructor(address newOwner, address pendingOwner) {... */\n  pop\n  pop\n    /* \"@chainlink/contracts/src/v0.8/ConfirmedOwner.sol\":270:351  constructor(address newOwner) ConfirmedOwnerWithProposal(newOwner, address(0)) {} */\n  pop\n    /* \"docs.chain.link/samples/VRF/VRFv2DirectFundingConsumer.sol\":653:5257  contract VRFv2DirectFundingConsumer is VRFV2WrapperConsumerBase, ConfirmedOwner {... */\n  jump(tag_16)\n    /* \"@chainlink/contracts/src/v0.8/ConfirmedOwnerWithProposal.sol\":1497:1685  function _transferOwnership(address to) private {... */\ntag_13:\n    /* \"@chainlink/contracts/src/v0.8/ConfirmedOwnerWithProposal.sol\":1565:1575  msg.sender */\n  caller\n    /* \"@chainlink/contracts/src/v0.8/ConfirmedOwnerWithProposal.sol\":1559:1575  to != msg.sender */\n  0xffffffffffffffffffffffffffffffffffffffff\n  and\n    /* \"@chainlink/contracts/src/v0.8/ConfirmedOwnerWithProposal.sol\":1559:1561  to */\n  dup2\n    /* \"@chainlink/contracts/src/v0.8/ConfirmedOwnerWithProposal.sol\":1559:1575  to != msg.sender */\n  0xffffffffffffffffffffffffffffffffffffffff\n  and\n  eq\n  iszero\n    /* \"@chainlink/contracts/src/v0.8/ConfirmedOwnerWithProposal.sol\":1551:1603  require(to != msg.sender, \"Cannot transfer to self\") */\n  tag_18\n  jumpi\n  mload(0x40)\n  0x08c379a000000000000000000000000000000000000000000000000000000000\n  dup2\n  mstore\n  0x04\n  add\n  tag_19\n  swap1\n  tag_20\n  jump\t// in\ntag_19:\n  mload(0x40)\n  dup1\n  swap2\n  sub\n  swap1\n  revert\ntag_18:\n    /* \"@chainlink/contracts/src/v0.8/ConfirmedOwnerWithProposal.sol\":1627:1629  to */\n  dup1\n    /* \"@chainlink/contracts/src/v0.8/ConfirmedOwnerWithProposal.sol\":1610:1624  s_pendingOwner */\n  0x01\n  0x00\n    /* \"@chainlink/contracts/src/v0.8/ConfirmedOwnerWithProposal.sol\":1610:1629  s_pendingOwner = to */\n  0x0100\n  exp\n  dup2\n  sload\n  dup2\n  0xffffffffffffffffffffffffffffffffffffffff\n  mul\n  not\n  and\n  swap1\n  dup4\n  0xffffffffffffffffffffffffffffffffffffffff\n  and\n  mul\n  or\n  swap1\n  sstore\n  pop\n    /* \"@chainlink/contracts/src/v0.8/ConfirmedOwnerWithProposal.sol\":1677:1679  to */\n  dup1\n    /* \"@chainlink/contracts/src/v0.8/ConfirmedOwnerWithProposal.sol\":1641:1680  OwnershipTransferRequested(s_owner, to) */\n  0xffffffffffffffffffffffffffffffffffffffff\n  and\n    /* \"@chainlink/contracts/src/v0.8/ConfirmedOwnerWithProposal.sol\":1668:1675  s_owner */\n  0x00\n  dup1\n  sload\n  swap1\n  0x0100\n  exp\n  swap1\n  div\n  0xffffffffffffffffffffffffffffffffffffffff\n  and\n    /* \"@chainlink/contracts/src/v0.8/ConfirmedOwnerWithProposal.sol\":1641:1680  OwnershipTransferRequested(s_owner, to) */\n  0xffffffffffffffffffffffffffffffffffffffff\n  and\n  0xed8889f560326eb138920d842192f0eb3dd22b4f139c87a2c57538e05bae1278\n  mload(0x40)\n  mload(0x40)\n  dup1\n  swap2\n  sub\n  swap1\n  log3\n    /* \"@chainlink/contracts/src/v0.8/ConfirmedOwnerWithProposal.sol\":1497:1685  function _transferOwnership(address to) private {... */\n  pop\n  jump\t// out\n    /* \"#utility.yul\":7:373   */\ntag_22:\n    /* \"#utility.yul\":149:152   */\n  0x00\n    /* \"#utility.yul\":170:237   */\n  tag_24\n    /* \"#utility.yul\":234:236   */\n  0x18\n    /* \"#utility.yul\":229:232   */\n  dup4\n    /* \"#utility.yul\":170:237   */\n  tag_25\n  jump\t// in\ntag_24:\n    /* \"#utility.yul\":163:237   */\n  swap2\n  pop\n    /* \"#utility.yul\":246:339   */\n  tag_26\n    /* \"#utility.yul\":335:338   */\n  dup3\n    /* \"#utility.yul\":246:339   */\n  tag_27\n  jump\t// in\ntag_26:\n    /* \"#utility.yul\":364:366   */\n  0x20\n    /* \"#utility.yul\":359:362   */\n  dup3\n    /* \"#utility.yul\":355:367   */\n  add\n    /* \"#utility.yul\":348:367   */\n  swap1\n  pop\n    /* \"#utility.yul\":7:373   */\n  swap2\n  swap1\n  pop\n  jump\t// out\n    /* \"#utility.yul\":379:745   */\ntag_28:\n    /* \"#utility.yul\":521:524   */\n  0x00\n    /* \"#utility.yul\":542:609   */\n  tag_30\n    /* \"#utility.yul\":606:608   */\n  0x17\n    /* \"#utility.yul\":601:604   */\n  dup4\n    /* \"#utility.yul\":542:609   */\n  tag_25\n  jump\t// in\ntag_30:\n    /* \"#utility.yul\":535:609   */\n  swap2\n  pop\n    /* \"#utility.yul\":618:711   */\n  tag_31\n    /* \"#utility.yul\":707:710   */\n  dup3\n    /* \"#utility.yul\":618:711   */\n  tag_32\n  jump\t// in\ntag_31:\n    /* \"#utility.yul\":736:738   */\n  0x20\n    /* \"#utility.yul\":731:734   */\n  dup3\n    /* \"#utility.yul\":727:739   */\n  add\n    /* \"#utility.yul\":720:739   */\n  swap1\n  pop\n    /* \"#utility.yul\":379:745   */\n  swap2\n  swap1\n  pop\n  jump\t// out\n    /* \"#utility.yul\":751:1170   */\ntag_10:\n    /* \"#utility.yul\":917:921   */\n  0x00\n    /* \"#utility.yul\":955:957   */\n  0x20\n    /* \"#utility.yul\":944:953   */\n  dup3\n    /* \"#utility.yul\":940:958   */\n  add\n    /* \"#utility.yul\":932:958   */\n  swap1\n  pop\n    /* \"#utility.yul\":1004:1013   */\n  dup2\n    /* \"#utility.yul\":998:1002   */\n  dup2\n    /* \"#utility.yul\":994:1014   */\n  sub\n    /* \"#utility.yul\":990:991   */\n  0x00\n    /* \"#utility.yul\":979:988   */\n  dup4\n    /* \"#utility.yul\":975:992   */\n  add\n    /* \"#utility.yul\":968:1015   */\n  mstore\n    /* \"#utility.yul\":1032:1163   */\n  tag_34\n    /* \"#utility.yul\":1158:1162   */\n  dup2\n    /* \"#utility.yul\":1032:1163   */\n  tag_22\n  jump\t// in\ntag_34:\n    /* \"#utility.yul\":1024:1163   */\n  swap1\n  pop\n    /* \"#utility.yul\":751:1170   */\n  swap2\n  swap1\n  pop\n  jump\t// out\n    /* \"#utility.yul\":1176:1595   */\ntag_20:\n    /* \"#utility.yul\":1342:1346   */\n  0x00\n    /* \"#utility.yul\":1380:1382   */\n  0x20\n    /* \"#utility.yul\":1369:1378   */\n  dup3\n    /* \"#utility.yul\":1365:1383   */\n  add\n    /* \"#utility.yul\":1357:1383   */\n  swap1\n  pop\n    /* \"#utility.yul\":1429:1438   */\n  dup2\n    /* \"#utility.yul\":1423:1427   */\n  dup2\n    /* \"#utility.yul\":1419:1439   */\n  sub\n    /* \"#utility.yul\":1415:1416   */\n  0x00\n    /* \"#utility.yul\":1404:1413   */\n  dup4\n    /* \"#utility.yul\":1400:1417   */\n  add\n    /* \"#utility.yul\":1393:1440   */\n  mstore\n    /* \"#utility.yul\":1457:1588   */\n  tag_36\n    /* \"#utility.yul\":1583:1587   */\n  dup2\n    /* \"#utility.yul\":1457:1588   */\n  tag_28\n  jump\t// in\ntag_36:\n    /* \"#utility.yul\":1449:1588   */\n  swap1\n  pop\n    /* \"#utility.yul\":1176:1595   */\n  swap2\n  swap1\n  pop\n  jump\t// out\n    /* \"#utility.yul\":1601:1770   */\ntag_25:\n    /* \"#utility.yul\":1685:1696   */\n  0x00\n    /* \"#utility.yul\":1719:1725   */\n  dup3\n    /* \"#utility.yul\":1714:1717   */\n  dup3\n    /* \"#utility.yul\":1707:1726   */\n  mstore\n    /* \"#utility.yul\":1759:1763   */\n  0x20\n    /* \"#utility.yul\":1754:1757   */\n  dup3\n    /* \"#utility.yul\":1750:1764   */\n  add\n    /* \"#utility.yul\":1735:1764   */\n  swap1\n  pop\n    /* \"#utility.yul\":1601:1770   */\n  swap3\n  swap2\n  pop\n  pop\n  jump\t// out\n    /* \"#utility.yul\":1776:1950   */\ntag_27:\n    /* \"#utility.yul\":1916:1942   */\n  0x43616e6e6f7420736574206f776e657220746f207a65726f0000000000000000\n    /* \"#utility.yul\":1912:1913   */\n  0x00\n    /* \"#utility.yul\":1904:1910   */\n  dup3\n    /* \"#utility.yul\":1900:1914   */\n  add\n    /* \"#utility.yul\":1893:1943   */\n  mstore\n    /* \"#utility.yul\":1776:1950   */\n  pop\n  jump\t// out\n    /* \"#utility.yul\":1956:2129   */\ntag_32:\n    /* \"#utility.yul\":2096:2121   */\n  0x43616e6e6f74207472616e7366657220746f2073656c66000000000000000000\n    /* \"#utility.yul\":2092:2093   */\n  0x00\n    /* \"#utility.yul\":2084:2090   */\n  dup3\n    /* \"#utility.yul\":2080:2094   */\n  add\n    /* \"#utility.yul\":2073:2122   */\n  mstore\n    /* \"#utility.yul\":1956:2129   */\n  pop\n  jump\t// out\n    /* \"docs.chain.link/samples/VRF/VRFv2DirectFundingConsumer.sol\":653:5257  contract VRFv2DirectFundingConsumer is VRFV2WrapperConsumerBase, ConfirmedOwner {... */\ntag_16:\n  shr(0x60, mload(0x80))\n  shr(0x60, mload(0xa0))\n  codecopy(0x00, dataOffset(sub_0), dataSize(sub_0))\n  0x00\n  assignImmutable(\"0xa75e2cf51d42f4164e4624f425e61448777a748393b6f6a5bcb1d94d1e8e5e98\")\n  0x00\n  assignImmutable(\"0x266b1640ade99b2f22d24bd1f0c6c2736890e0398a5a0b97b63a35856ae65c2b\")\n  return(0x00, dataSize(sub_0))\nstop\n\nsub_0: assembly {\n        /* \"docs.chain.link/samples/VRF/VRFv2DirectFundingConsumer.sol\":653:5257  contract VRFv2DirectFundingConsumer is VRFV2WrapperConsumerBase, ConfirmedOwner {... */\n      mstore(0x40, 0x80)\n      jumpi(tag_1, lt(calldatasize, 0x04))\n      shr(0xe0, calldataload(0x00))\n      dup1\n      0x8dc654a2\n      gt\n      tag_16\n      jumpi\n      dup1\n      0xc17bcdee\n      gt\n      tag_17\n      jumpi\n      dup1\n      0xc17bcdee\n      eq\n      tag_12\n      jumpi\n      dup1\n      0xd8a4676f\n      eq\n      tag_13\n      jumpi\n      dup1\n      0xf2fde38b\n      eq\n      tag_14\n      jumpi\n      dup1\n      0xfc2a88c3\n      eq\n      tag_15\n      jumpi\n      jump(tag_1)\n    tag_17:\n      dup1\n      0x8dc654a2\n      eq\n      tag_9\n      jumpi\n      dup1\n      0xa168fa89\n      eq\n      tag_10\n      jumpi\n      dup1\n      0xbfb3047f\n      eq\n      tag_11\n      jumpi\n      jump(tag_1)\n    tag_16:\n      dup1\n      0x5873533d\n      gt\n      tag_18\n      jumpi\n      dup1\n      0x5873533d\n      eq\n      tag_5\n      jumpi\n      dup1\n      0x79ba5097\n      eq\n      tag_6\n      jumpi\n      dup1\n      0x8796ba8c\n      eq\n      tag_7\n      jumpi\n      dup1\n      0x8da5cb5b\n      eq\n      tag_8\n      jumpi\n      jump(tag_1)\n    tag_18:\n      dup1\n      0x1fe543e3\n      eq\n      tag_2\n      jumpi\n      dup1\n      0x2e5b2168\n      eq\n      tag_3\n      jumpi\n      dup1\n      0x34461067\n      eq\n      tag_4\n      jumpi\n    tag_1:\n      0x00\n      dup1\n      revert\n        /* \"@chainlink/contracts/src/v0.8/VRFV2WrapperConsumerBase.sol\":3389:3622  function rawFulfillRandomWords(uint256 _requestId, uint256[] memory _randomWords) external {... */\n    tag_2:\n      callvalue\n      dup1\n      iszero\n      tag_19\n      jumpi\n      0x00\n      dup1\n      revert\n    tag_19:\n      pop\n      tag_20\n      0x04\n      dup1\n      calldatasize\n      sub\n      dup2\n      add\n      swap1\n      tag_21\n      swap2\n      swap1\n      tag_22\n      jump\t// in\n    tag_21:\n      tag_23\n      jump\t// in\n    tag_20:\n      stop\n        /* \"docs.chain.link/samples/VRF/VRFv2DirectFundingConsumer.sol\":2280:2311  uint256 public maxBet = 1 ether */\n    tag_3:\n      callvalue\n      dup1\n      iszero\n      tag_24\n      jumpi\n      0x00\n      dup1\n      revert\n    tag_24:\n      pop\n      tag_25\n      tag_26\n      jump\t// in\n    tag_25:\n      mload(0x40)\n      tag_27\n      swap2\n      swap1\n      tag_28\n      jump\t// in\n    tag_27:\n      mload(0x40)\n      dup1\n      swap2\n      sub\n      swap1\n      return\n        /* \"docs.chain.link/samples/VRF/VRFv2DirectFundingConsumer.sol\":2200:2242  mapping (uint256 => Player) public records */\n    tag_4:\n      callvalue\n      dup1\n      iszero\n      tag_29\n      jumpi\n      0x00\n      dup1\n      revert\n    tag_29:\n      pop\n      tag_30\n      0x04\n      dup1\n      calldatasize\n      sub\n      dup2\n      add\n      swap1\n      tag_31\n      swap2\n      swap1\n      tag_32\n      jump\t// in\n    tag_31:\n      tag_33\n      jump\t// in\n    tag_30:\n      mload(0x40)\n      tag_34\n      swap4\n      swap3\n      swap2\n      swap1\n      tag_35\n      jump\t// in\n    tag_34:\n      mload(0x40)\n      dup1\n      swap2\n      sub\n      swap1\n      return\n        /* \"docs.chain.link/samples/VRF/VRFv2DirectFundingConsumer.sol\":3118:3547  function playGame(uint256 betNumber)  payable public checkMaxBet {... */\n    tag_5:\n      tag_36\n      0x04\n      dup1\n      calldatasize\n      sub\n      dup2\n      add\n      swap1\n      tag_37\n      swap2\n      swap1\n      tag_32\n      jump\t// in\n    tag_37:\n      tag_38\n      jump\t// in\n    tag_36:\n      stop\n        /* \"@chainlink/contracts/src/v0.8/ConfirmedOwnerWithProposal.sol\":1016:1281  function acceptOwnership() external override {... */\n    tag_6:\n      callvalue\n      dup1\n      iszero\n      tag_39\n      jumpi\n      0x00\n      dup1\n      revert\n    tag_39:\n      pop\n      tag_40\n      tag_41\n      jump\t// in\n    tag_40:\n      stop\n        /* \"docs.chain.link/samples/VRF/VRFv2DirectFundingConsumer.sol\":1191:1218  uint256[] public requestIds */\n    tag_7:\n      callvalue\n      dup1\n      iszero\n      tag_42\n      jumpi\n      0x00\n      dup1\n      revert\n    tag_42:\n      pop\n      tag_43\n      0x04\n      dup1\n      calldatasize\n      sub\n      dup2\n      add\n      swap1\n      tag_44\n      swap2\n      swap1\n      tag_32\n      jump\t// in\n    tag_44:\n      tag_45\n      jump\t// in\n    tag_43:\n      mload(0x40)\n      tag_46\n      swap2\n      swap1\n      tag_28\n      jump\t// in\n    tag_46:\n      mload(0x40)\n      dup1\n      swap2\n      sub\n      swap1\n      return\n        /* \"@chainlink/contracts/src/v0.8/ConfirmedOwnerWithProposal.sol\":1332:1413  function owner() public view override returns (address) {... */\n    tag_8:\n      callvalue\n      dup1\n      iszero\n      tag_47\n      jumpi\n      0x00\n      dup1\n      revert\n    tag_47:\n      pop\n      tag_48\n      tag_49\n      jump\t// in\n    tag_48:\n      mload(0x40)\n      tag_50\n      swap2\n      swap1\n      tag_51\n      jump\t// in\n    tag_50:\n      mload(0x40)\n      dup1\n      swap2\n      sub\n      swap1\n      return\n        /* \"docs.chain.link/samples/VRF/VRFv2DirectFundingConsumer.sol\":5043:5255  function withdrawLink() public onlyOwner {... */\n    tag_9:\n      callvalue\n      dup1\n      iszero\n      tag_52\n      jumpi\n      0x00\n      dup1\n      revert\n    tag_52:\n      pop\n      tag_53\n      tag_54\n      jump\t// in\n    tag_53:\n      stop\n        /* \"docs.chain.link/samples/VRF/VRFv2DirectFundingConsumer.sol\":1074:1125  mapping(uint256 => RequestStatus) public s_requests */\n    tag_10:\n      callvalue\n      dup1\n      iszero\n      tag_55\n      jumpi\n      0x00\n      dup1\n      revert\n    tag_55:\n      pop\n      tag_56\n      0x04\n      dup1\n      calldatasize\n      sub\n      dup2\n      add\n      swap1\n      tag_57\n      swap2\n      swap1\n      tag_32\n      jump\t// in\n    tag_57:\n      tag_58\n      jump\t// in\n    tag_56:\n      mload(0x40)\n      tag_59\n      swap3\n      swap2\n      swap1\n      tag_60\n      jump\t// in\n    tag_59:\n      mload(0x40)\n      dup1\n      swap2\n      sub\n      swap1\n      return\n        /* \"docs.chain.link/samples/VRF/VRFv2DirectFundingConsumer.sol\":2249:2273  uint256 public betResult */\n    tag_11:\n      callvalue\n      dup1\n      iszero\n      tag_61\n      jumpi\n      0x00\n      dup1\n      revert\n    tag_61:\n      pop\n      tag_62\n      tag_63\n      jump\t// in\n    tag_62:\n      mload(0x40)\n      tag_64\n      swap2\n      swap1\n      tag_28\n      jump\t// in\n    tag_64:\n      mload(0x40)\n      dup1\n      swap2\n      sub\n      swap1\n      return\n        /* \"docs.chain.link/samples/VRF/VRFv2DirectFundingConsumer.sol\":2318:2351  uint256 public maxBetRatio = 1000 */\n    tag_12:\n      callvalue\n      dup1\n      iszero\n      tag_65\n      jumpi\n      0x00\n      dup1\n      revert\n    tag_65:\n      pop\n      tag_66\n      tag_67\n      jump\t// in\n    tag_66:\n      mload(0x40)\n      tag_68\n      swap2\n      swap1\n      tag_28\n      jump\t// in\n    tag_68:\n      mload(0x40)\n      dup1\n      swap2\n      sub\n      swap1\n      return\n        /* \"docs.chain.link/samples/VRF/VRFv2DirectFundingConsumer.sol\":4538:4966  function getRequestStatus(uint256 _requestId)... */\n    tag_13:\n      callvalue\n      dup1\n      iszero\n      tag_69\n      jumpi\n      0x00\n      dup1\n      revert\n    tag_69:\n      pop\n      tag_70\n      0x04\n      dup1\n      calldatasize\n      sub\n      dup2\n      add\n      swap1\n      tag_71\n      swap2\n      swap1\n      tag_32\n      jump\t// in\n    tag_71:\n      tag_72\n      jump\t// in\n    tag_70:\n      mload(0x40)\n      tag_73\n      swap4\n      swap3\n      swap2\n      swap1\n      tag_74\n      jump\t// in\n    tag_73:\n      mload(0x40)\n      dup1\n      swap2\n      sub\n      swap1\n      return\n        /* \"@chainlink/contracts/src/v0.8/ConfirmedOwnerWithProposal.sol\":826:924  function transferOwnership(address to) public override onlyOwner {... */\n    tag_14:\n      callvalue\n      dup1\n      iszero\n      tag_75\n      jumpi\n      0x00\n      dup1\n      revert\n    tag_75:\n      pop\n      tag_76\n      0x04\n      dup1\n      calldatasize\n      sub\n      dup2\n      add\n      swap1\n      tag_77\n      swap2\n      swap1\n      tag_78\n      jump\t// in\n    tag_77:\n      tag_79\n      jump\t// in\n    tag_76:\n      stop\n        /* \"docs.chain.link/samples/VRF/VRFv2DirectFundingConsumer.sol\":1224:1252  uint256 public lastRequestId */\n    tag_15:\n      callvalue\n      dup1\n      iszero\n      tag_80\n      jumpi\n      0x00\n      dup1\n      revert\n    tag_80:\n      pop\n      tag_81\n      tag_82\n      jump\t// in\n    tag_81:\n      mload(0x40)\n      tag_83\n      swap2\n      swap1\n      tag_28\n      jump\t// in\n    tag_83:\n      mload(0x40)\n      dup1\n      swap2\n      sub\n      swap1\n      return\n        /* \"@chainlink/contracts/src/v0.8/VRFV2WrapperConsumerBase.sol\":3389:3622  function rawFulfillRandomWords(uint256 _requestId, uint256[] memory _randomWords) external {... */\n    tag_23:\n        /* \"@chainlink/contracts/src/v0.8/VRFV2WrapperConsumerBase.sol\":3516:3530  VRF_V2_WRAPPER */\n      immutable(\"0xa75e2cf51d42f4164e4624f425e61448777a748393b6f6a5bcb1d94d1e8e5e98\")\n        /* \"@chainlink/contracts/src/v0.8/VRFV2WrapperConsumerBase.sol\":3494:3531  msg.sender == address(VRF_V2_WRAPPER) */\n      0xffffffffffffffffffffffffffffffffffffffff\n      and\n        /* \"@chainlink/contracts/src/v0.8/VRFV2WrapperConsumerBase.sol\":3494:3504  msg.sender */\n      caller\n        /* \"@chainlink/contracts/src/v0.8/VRFV2WrapperConsumerBase.sol\":3494:3531  msg.sender == address(VRF_V2_WRAPPER) */\n      0xffffffffffffffffffffffffffffffffffffffff\n      and\n      eq\n        /* \"@chainlink/contracts/src/v0.8/VRFV2WrapperConsumerBase.sol\":3486:3567  require(msg.sender == address(VRF_V2_WRAPPER), \"only VRF V2 wrapper can fulfill\") */\n      tag_85\n      jumpi\n      mload(0x40)\n      0x08c379a000000000000000000000000000000000000000000000000000000000\n      dup2\n      mstore\n      0x04\n      add\n      tag_86\n      swap1\n      tag_87\n      jump\t// in\n    tag_86:\n      mload(0x40)\n      dup1\n      swap2\n      sub\n      swap1\n      revert\n    tag_85:\n        /* \"@chainlink/contracts/src/v0.8/VRFV2WrapperConsumerBase.sol\":3573:3617  fulfillRandomWords(_requestId, _randomWords) */\n      tag_88\n        /* \"@chainlink/contracts/src/v0.8/VRFV2WrapperConsumerBase.sol\":3592:3602  _requestId */\n      dup3\n        /* \"@chainlink/contracts/src/v0.8/VRFV2WrapperConsumerBase.sol\":3604:3616  _randomWords */\n      dup3\n        /* \"@chainlink/contracts/src/v0.8/VRFV2WrapperConsumerBase.sol\":3573:3591  fulfillRandomWords */\n      tag_89\n        /* \"@chainlink/contracts/src/v0.8/VRFV2WrapperConsumerBase.sol\":3573:3617  fulfillRandomWords(_requestId, _randomWords) */\n      jump\t// in\n    tag_88:\n        /* \"@chainlink/contracts/src/v0.8/VRFV2WrapperConsumerBase.sol\":3389:3622  function rawFulfillRandomWords(uint256 _requestId, uint256[] memory _randomWords) external {... */\n      pop\n      pop\n      jump\t// out\n        /* \"docs.chain.link/samples/VRF/VRFv2DirectFundingConsumer.sol\":2280:2311  uint256 public maxBet = 1 ether */\n    tag_26:\n      sload(0x09)\n      dup2\n      jump\t// out\n        /* \"docs.chain.link/samples/VRF/VRFv2DirectFundingConsumer.sol\":2200:2242  mapping (uint256 => Player) public records */\n    tag_33:\n      mstore(0x20, 0x07)\n      dup1\n      0x00\n      mstore\n      keccak256(0x00, 0x40)\n      0x00\n      swap2\n      pop\n      swap1\n      pop\n      dup1\n      0x00\n      add\n      0x00\n      swap1\n      sload\n      swap1\n      0x0100\n      exp\n      swap1\n      div\n      0xffffffffffffffffffffffffffffffffffffffff\n      and\n      swap1\n      dup1\n      0x01\n      add\n      sload\n      swap1\n      dup1\n      0x02\n      add\n      sload\n      swap1\n      pop\n      dup4\n      jump\t// out\n        /* \"docs.chain.link/samples/VRF/VRFv2DirectFundingConsumer.sol\":3118:3547  function playGame(uint256 betNumber)  payable public checkMaxBet {... */\n    tag_38:\n        /* \"docs.chain.link/samples/VRF/VRFv2DirectFundingConsumer.sol\":2517:2523  maxBet */\n      sload(0x09)\n        /* \"docs.chain.link/samples/VRF/VRFv2DirectFundingConsumer.sol\":2504:2513  msg.value */\n      callvalue\n        /* \"docs.chain.link/samples/VRF/VRFv2DirectFundingConsumer.sol\":2504:2523  msg.value <= maxBet */\n      gt\n      iszero\n        /* \"docs.chain.link/samples/VRF/VRFv2DirectFundingConsumer.sol\":2496:2565  require(msg.value <= maxBet, \"This bet exceeds maximum possible bet\") */\n      tag_91\n      jumpi\n      mload(0x40)\n      0x08c379a000000000000000000000000000000000000000000000000000000000\n      dup2\n      mstore\n      0x04\n      add\n      tag_92\n      swap1\n      tag_93\n      jump\t// in\n    tag_92:\n      mload(0x40)\n      dup1\n      swap2\n      sub\n      swap1\n      revert\n    tag_91:\n        /* \"docs.chain.link/samples/VRF/VRFv2DirectFundingConsumer.sol\":3214:3215  6 */\n      0x06\n        /* \"docs.chain.link/samples/VRF/VRFv2DirectFundingConsumer.sol\":3201:3210  betNumber */\n      dup2\n        /* \"docs.chain.link/samples/VRF/VRFv2DirectFundingConsumer.sol\":3201:3215  betNumber <= 6 */\n      gt\n      iszero\n        /* \"docs.chain.link/samples/VRF/VRFv2DirectFundingConsumer.sol\":3201:3232  betNumber <= 6 && betNumber > 0 */\n      dup1\n      iszero\n      tag_95\n      jumpi\n      pop\n        /* \"docs.chain.link/samples/VRF/VRFv2DirectFundingConsumer.sol\":3231:3232  0 */\n      0x00\n        /* \"docs.chain.link/samples/VRF/VRFv2DirectFundingConsumer.sol\":3219:3228  betNumber */\n      dup2\n        /* \"docs.chain.link/samples/VRF/VRFv2DirectFundingConsumer.sol\":3219:3232  betNumber > 0 */\n      gt\n        /* \"docs.chain.link/samples/VRF/VRFv2DirectFundingConsumer.sol\":3201:3232  betNumber <= 6 && betNumber > 0 */\n    tag_95:\n        /* \"docs.chain.link/samples/VRF/VRFv2DirectFundingConsumer.sol\":3193:3265  require(betNumber <= 6 && betNumber > 0, \"Bet any value between 1 to 6\") */\n      tag_96\n      jumpi\n      mload(0x40)\n      0x08c379a000000000000000000000000000000000000000000000000000000000\n      dup2\n      mstore\n      0x04\n      add\n      tag_97\n      swap1\n      tag_98\n      jump\t// in\n    tag_97:\n      mload(0x40)\n      dup1\n      swap2\n      sub\n      swap1\n      revert\n    tag_96:\n        /* \"docs.chain.link/samples/VRF/VRFv2DirectFundingConsumer.sol\":3275:3312  address payable cuurrentPlayerAddress */\n      0x00\n        /* \"docs.chain.link/samples/VRF/VRFv2DirectFundingConsumer.sol\":3324:3334  msg.sender */\n      caller\n        /* \"docs.chain.link/samples/VRF/VRFv2DirectFundingConsumer.sol\":3275:3335  address payable cuurrentPlayerAddress = payable (msg.sender) */\n      swap1\n      pop\n        /* \"docs.chain.link/samples/VRF/VRFv2DirectFundingConsumer.sol\":3345:3370  uint256 current_requestId */\n      0x00\n        /* \"docs.chain.link/samples/VRF/VRFv2DirectFundingConsumer.sol\":3373:3393  requestRandomWords() */\n      tag_99\n        /* \"docs.chain.link/samples/VRF/VRFv2DirectFundingConsumer.sol\":3373:3391  requestRandomWords */\n      tag_100\n        /* \"docs.chain.link/samples/VRF/VRFv2DirectFundingConsumer.sol\":3373:3393  requestRandomWords() */\n      jump\t// in\n    tag_99:\n        /* \"docs.chain.link/samples/VRF/VRFv2DirectFundingConsumer.sol\":3345:3393  uint256 current_requestId = requestRandomWords() */\n      swap1\n      pop\n        /* \"docs.chain.link/samples/VRF/VRFv2DirectFundingConsumer.sol\":3403:3431  Player memory current_player */\n      0x00\n        /* \"docs.chain.link/samples/VRF/VRFv2DirectFundingConsumer.sol\":3434:3485  Player(cuurrentPlayerAddress, betNumber, msg.value) */\n      mload(0x40)\n      dup1\n      0x60\n      add\n      0x40\n      mstore\n      dup1\n        /* \"docs.chain.link/samples/VRF/VRFv2DirectFundingConsumer.sol\":3441:3462  cuurrentPlayerAddress */\n      dup5\n        /* \"docs.chain.link/samples/VRF/VRFv2DirectFundingConsumer.sol\":3434:3485  Player(cuurrentPlayerAddress, betNumber, msg.value) */\n      0xffffffffffffffffffffffffffffffffffffffff\n      and\n      dup2\n      mstore\n      0x20\n      add\n        /* \"docs.chain.link/samples/VRF/VRFv2DirectFundingConsumer.sol\":3464:3473  betNumber */\n      dup6\n        /* \"docs.chain.link/samples/VRF/VRFv2DirectFundingConsumer.sol\":3434:3485  Player(cuurrentPlayerAddress, betNumber, msg.value) */\n      dup2\n      mstore\n      0x20\n      add\n        /* \"docs.chain.link/samples/VRF/VRFv2DirectFundingConsumer.sol\":3475:3484  msg.value */\n      callvalue\n        /* \"docs.chain.link/samples/VRF/VRFv2DirectFundingConsumer.sol\":3434:3485  Player(cuurrentPlayerAddress, betNumber, msg.value) */\n      dup2\n      mstore\n      pop\n        /* \"docs.chain.link/samples/VRF/VRFv2DirectFundingConsumer.sol\":3403:3485  Player memory current_player = Player(cuurrentPlayerAddress, betNumber, msg.value) */\n      swap1\n      pop\n        /* \"docs.chain.link/samples/VRF/VRFv2DirectFundingConsumer.sol\":3524:3538  current_player */\n      dup1\n        /* \"docs.chain.link/samples/VRF/VRFv2DirectFundingConsumer.sol\":3495:3502  records */\n      0x07\n        /* \"docs.chain.link/samples/VRF/VRFv2DirectFundingConsumer.sol\":3495:3521  records[current_requestId] */\n      0x00\n        /* \"docs.chain.link/samples/VRF/VRFv2DirectFundingConsumer.sol\":3503:3520  current_requestId */\n      dup5\n        /* \"docs.chain.link/samples/VRF/VRFv2DirectFundingConsumer.sol\":3495:3521  records[current_requestId] */\n      dup2\n      mstore\n      0x20\n      add\n      swap1\n      dup2\n      mstore\n      0x20\n      add\n      0x00\n      keccak256\n        /* \"docs.chain.link/samples/VRF/VRFv2DirectFundingConsumer.sol\":3495:3538  records[current_requestId] = current_player */\n      0x00\n      dup3\n      add\n      mload\n      dup2\n      0x00\n      add\n      exp(0x0100, 0x00)\n      dup2\n      sload\n      dup2\n      0xffffffffffffffffffffffffffffffffffffffff\n      mul\n      not\n      and\n      swap1\n      dup4\n      0xffffffffffffffffffffffffffffffffffffffff\n      and\n      mul\n      or\n      swap1\n      sstore\n      pop\n      0x20\n      dup3\n      add\n      mload\n      dup2\n      0x01\n      add\n      sstore\n      0x40\n      dup3\n      add\n      mload\n      dup2\n      0x02\n      add\n      sstore\n      swap1\n      pop\n      pop\n        /* \"docs.chain.link/samples/VRF/VRFv2DirectFundingConsumer.sol\":3183:3547  {... */\n      pop\n      pop\n      pop\n        /* \"docs.chain.link/samples/VRF/VRFv2DirectFundingConsumer.sol\":3118:3547  function playGame(uint256 betNumber)  payable public checkMaxBet {... */\n      pop\n      jump\t// out\n        /* \"@chainlink/contracts/src/v0.8/ConfirmedOwnerWithProposal.sol\":1016:1281  function acceptOwnership() external override {... */\n    tag_41:\n        /* \"@chainlink/contracts/src/v0.8/ConfirmedOwnerWithProposal.sol\":1089:1103  s_pendingOwner */\n      0x01\n      0x00\n      swap1\n      sload\n      swap1\n      0x0100\n      exp\n      swap1\n      div\n      0xffffffffffffffffffffffffffffffffffffffff\n      and\n        /* \"@chainlink/contracts/src/v0.8/ConfirmedOwnerWithProposal.sol\":1075:1103  msg.sender == s_pendingOwner */\n      0xffffffffffffffffffffffffffffffffffffffff\n      and\n        /* \"@chainlink/contracts/src/v0.8/ConfirmedOwnerWithProposal.sol\":1075:1085  msg.sender */\n      caller\n        /* \"@chainlink/contracts/src/v0.8/ConfirmedOwnerWithProposal.sol\":1075:1103  msg.sender == s_pendingOwner */\n      0xffffffffffffffffffffffffffffffffffffffff\n      and\n      eq\n        /* \"@chainlink/contracts/src/v0.8/ConfirmedOwnerWithProposal.sol\":1067:1130  require(msg.sender == s_pendingOwner, \"Must be proposed owner\") */\n      tag_102\n      jumpi\n      mload(0x40)\n      0x08c379a000000000000000000000000000000000000000000000000000000000\n      dup2\n      mstore\n      0x04\n      add\n      tag_103\n      swap1\n      tag_104\n      jump\t// in\n    tag_103:\n      mload(0x40)\n      dup1\n      swap2\n      sub\n      swap1\n      revert\n    tag_102:\n        /* \"@chainlink/contracts/src/v0.8/ConfirmedOwnerWithProposal.sol\":1137:1153  address oldOwner */\n      0x00\n        /* \"@chainlink/contracts/src/v0.8/ConfirmedOwnerWithProposal.sol\":1156:1163  s_owner */\n      dup1\n      0x00\n      swap1\n      sload\n      swap1\n      0x0100\n      exp\n      swap1\n      div\n      0xffffffffffffffffffffffffffffffffffffffff\n      and\n        /* \"@chainlink/contracts/src/v0.8/ConfirmedOwnerWithProposal.sol\":1137:1163  address oldOwner = s_owner */\n      swap1\n      pop\n        /* \"@chainlink/contracts/src/v0.8/ConfirmedOwnerWithProposal.sol\":1179:1189  msg.sender */\n      caller\n        /* \"@chainlink/contracts/src/v0.8/ConfirmedOwnerWithProposal.sol\":1169:1176  s_owner */\n      0x00\n      dup1\n        /* \"@chainlink/contracts/src/v0.8/ConfirmedOwnerWithProposal.sol\":1169:1189  s_owner = msg.sender */\n      0x0100\n      exp\n      dup2\n      sload\n      dup2\n      0xffffffffffffffffffffffffffffffffffffffff\n      mul\n      not\n      and\n      swap1\n      dup4\n      0xffffffffffffffffffffffffffffffffffffffff\n      and\n      mul\n      or\n      swap1\n      sstore\n      pop\n        /* \"@chainlink/contracts/src/v0.8/ConfirmedOwnerWithProposal.sol\":1220:1221  0 */\n      0x00\n        /* \"@chainlink/contracts/src/v0.8/ConfirmedOwnerWithProposal.sol\":1195:1209  s_pendingOwner */\n      0x01\n      0x00\n        /* \"@chainlink/contracts/src/v0.8/ConfirmedOwnerWithProposal.sol\":1195:1222  s_pendingOwner = address(0) */\n      0x0100\n      exp\n      dup2\n      sload\n      dup2\n      0xffffffffffffffffffffffffffffffffffffffff\n      mul\n      not\n      and\n      swap1\n      dup4\n      0xffffffffffffffffffffffffffffffffffffffff\n      and\n      mul\n      or\n      swap1\n      sstore\n      pop\n        /* \"@chainlink/contracts/src/v0.8/ConfirmedOwnerWithProposal.sol\":1265:1275  msg.sender */\n      caller\n        /* \"@chainlink/contracts/src/v0.8/ConfirmedOwnerWithProposal.sol\":1234:1276  OwnershipTransferred(oldOwner, msg.sender) */\n      0xffffffffffffffffffffffffffffffffffffffff\n      and\n        /* \"@chainlink/contracts/src/v0.8/ConfirmedOwnerWithProposal.sol\":1255:1263  oldOwner */\n      dup2\n        /* \"@chainlink/contracts/src/v0.8/ConfirmedOwnerWithProposal.sol\":1234:1276  OwnershipTransferred(oldOwner, msg.sender) */\n      0xffffffffffffffffffffffffffffffffffffffff\n      and\n      0x8be0079c531659141344cd1fd0a4f28419497f9722a3daafe3b4186f6b6457e0\n      mload(0x40)\n      mload(0x40)\n      dup1\n      swap2\n      sub\n      swap1\n      log3\n        /* \"@chainlink/contracts/src/v0.8/ConfirmedOwnerWithProposal.sol\":1061:1281  {... */\n      pop\n        /* \"@chainlink/contracts/src/v0.8/ConfirmedOwnerWithProposal.sol\":1016:1281  function acceptOwnership() external override {... */\n      jump\t// out\n        /* \"docs.chain.link/samples/VRF/VRFv2DirectFundingConsumer.sol\":1191:1218  uint256[] public requestIds */\n    tag_45:\n      0x03\n      dup2\n      dup2\n      sload\n      dup2\n      lt\n      tag_105\n      jumpi\n      0x00\n      dup1\n      revert\n    tag_105:\n      swap1\n      0x00\n      mstore\n      keccak256(0x00, 0x20)\n      add\n      0x00\n      swap2\n      pop\n      swap1\n      pop\n      sload\n      dup2\n      jump\t// out\n        /* \"@chainlink/contracts/src/v0.8/ConfirmedOwnerWithProposal.sol\":1332:1413  function owner() public view override returns (address) {... */\n    tag_49:\n        /* \"@chainlink/contracts/src/v0.8/ConfirmedOwnerWithProposal.sol\":1379:1386  address */\n      0x00\n        /* \"@chainlink/contracts/src/v0.8/ConfirmedOwnerWithProposal.sol\":1401:1408  s_owner */\n      dup1\n      0x00\n      swap1\n      sload\n      swap1\n      0x0100\n      exp\n      swap1\n      div\n      0xffffffffffffffffffffffffffffffffffffffff\n      and\n        /* \"@chainlink/contracts/src/v0.8/ConfirmedOwnerWithProposal.sol\":1394:1408  return s_owner */\n      swap1\n      pop\n        /* \"@chainlink/contracts/src/v0.8/ConfirmedOwnerWithProposal.sol\":1332:1413  function owner() public view override returns (address) {... */\n      swap1\n      jump\t// out\n        /* \"docs.chain.link/samples/VRF/VRFv2DirectFundingConsumer.sol\":5043:5255  function withdrawLink() public onlyOwner {... */\n    tag_54:\n        /* \"@chainlink/contracts/src/v0.8/ConfirmedOwnerWithProposal.sol\":1956:1976  _validateOwnership() */\n      tag_109\n        /* \"@chainlink/contracts/src/v0.8/ConfirmedOwnerWithProposal.sol\":1956:1974  _validateOwnership */\n      tag_110\n        /* \"@chainlink/contracts/src/v0.8/ConfirmedOwnerWithProposal.sol\":1956:1976  _validateOwnership() */\n      jump\t// in\n    tag_109:\n        /* \"docs.chain.link/samples/VRF/VRFv2DirectFundingConsumer.sol\":5094:5117  LinkTokenInterface link */\n      0x00\n        /* \"docs.chain.link/samples/VRF/VRFv2DirectFundingConsumer.sol\":5139:5150  linkAddress */\n      0x05\n      0x0a\n      swap1\n      sload\n      swap1\n      0x0100\n      exp\n      swap1\n      div\n      0xffffffffffffffffffffffffffffffffffffffff\n      and\n        /* \"docs.chain.link/samples/VRF/VRFv2DirectFundingConsumer.sol\":5094:5151  LinkTokenInterface link = LinkTokenInterface(linkAddress) */\n      swap1\n      pop\n        /* \"docs.chain.link/samples/VRF/VRFv2DirectFundingConsumer.sol\":5169:5173  link */\n      dup1\n        /* \"docs.chain.link/samples/VRF/VRFv2DirectFundingConsumer.sol\":5169:5182  link.transfer */\n      0xffffffffffffffffffffffffffffffffffffffff\n      and\n      0xa9059cbb\n        /* \"docs.chain.link/samples/VRF/VRFv2DirectFundingConsumer.sol\":5183:5193  msg.sender */\n      caller\n        /* \"docs.chain.link/samples/VRF/VRFv2DirectFundingConsumer.sol\":5195:5199  link */\n      dup4\n        /* \"docs.chain.link/samples/VRF/VRFv2DirectFundingConsumer.sol\":5195:5209  link.balanceOf */\n      0xffffffffffffffffffffffffffffffffffffffff\n      and\n      0x70a08231\n        /* \"docs.chain.link/samples/VRF/VRFv2DirectFundingConsumer.sol\":5218:5222  this */\n      address\n        /* \"docs.chain.link/samples/VRF/VRFv2DirectFundingConsumer.sol\":5195:5224  link.balanceOf(address(this)) */\n      mload(0x40)\n      dup3\n      0xffffffff\n      and\n      0xe0\n      shl\n      dup2\n      mstore\n      0x04\n      add\n      tag_112\n      swap2\n      swap1\n      tag_51\n      jump\t// in\n    tag_112:\n      0x20\n      mload(0x40)\n      dup1\n      dup4\n      sub\n      dup2\n      dup7\n      dup1\n      extcodesize\n      iszero\n      dup1\n      iszero\n      tag_113\n      jumpi\n      0x00\n      dup1\n      revert\n    tag_113:\n      pop\n      gas\n      staticcall\n      iszero\n      dup1\n      iszero\n      tag_115\n      jumpi\n      returndatasize\n      0x00\n      dup1\n      returndatacopy\n      revert(0x00, returndatasize)\n    tag_115:\n      pop\n      pop\n      pop\n      pop\n      mload(0x40)\n      returndatasize\n      not(0x1f)\n      0x1f\n      dup3\n      add\n      and\n      dup3\n      add\n      dup1\n      0x40\n      mstore\n      pop\n      dup2\n      add\n      swap1\n      tag_116\n      swap2\n      swap1\n      tag_117\n      jump\t// in\n    tag_116:\n        /* \"docs.chain.link/samples/VRF/VRFv2DirectFundingConsumer.sol\":5169:5225  link.transfer(msg.sender, link.balanceOf(address(this))) */\n      mload(0x40)\n      dup4\n      0xffffffff\n      and\n      0xe0\n      shl\n      dup2\n      mstore\n      0x04\n      add\n      tag_118\n      swap3\n      swap2\n      swap1\n      tag_119\n      jump\t// in\n    tag_118:\n      0x20\n      mload(0x40)\n      dup1\n      dup4\n      sub\n      dup2\n      0x00\n      dup8\n      dup1\n      extcodesize\n      iszero\n      dup1\n      iszero\n      tag_120\n      jumpi\n      0x00\n      dup1\n      revert\n    tag_120:\n      pop\n      gas\n      call\n      iszero\n      dup1\n      iszero\n      tag_122\n      jumpi\n      returndatasize\n      0x00\n      dup1\n      returndatacopy\n      revert(0x00, returndatasize)\n    tag_122:\n      pop\n      pop\n      pop\n      pop\n      mload(0x40)\n      returndatasize\n      not(0x1f)\n      0x1f\n      dup3\n      add\n      and\n      dup3\n      add\n      dup1\n      0x40\n      mstore\n      pop\n      dup2\n      add\n      swap1\n      tag_123\n      swap2\n      swap1\n      tag_124\n      jump\t// in\n    tag_123:\n        /* \"docs.chain.link/samples/VRF/VRFv2DirectFundingConsumer.sol\":5161:5248  require(link.transfer(msg.sender, link.balanceOf(address(this))), 'Unable to transfer') */\n      tag_125\n      jumpi\n      mload(0x40)\n      0x08c379a000000000000000000000000000000000000000000000000000000000\n      dup2\n      mstore\n      0x04\n      add\n      tag_126\n      swap1\n      tag_127\n      jump\t// in\n    tag_126:\n      mload(0x40)\n      dup1\n      swap2\n      sub\n      swap1\n      revert\n    tag_125:\n        /* \"docs.chain.link/samples/VRF/VRFv2DirectFundingConsumer.sol\":5084:5255  {... */\n      pop\n        /* \"docs.chain.link/samples/VRF/VRFv2DirectFundingConsumer.sol\":5043:5255  function withdrawLink() public onlyOwner {... */\n      jump\t// out\n        /* \"docs.chain.link/samples/VRF/VRFv2DirectFundingConsumer.sol\":1074:1125  mapping(uint256 => RequestStatus) public s_requests */\n    tag_58:\n      mstore(0x20, 0x02)\n      dup1\n      0x00\n      mstore\n      keccak256(0x00, 0x40)\n      0x00\n      swap2\n      pop\n      swap1\n      pop\n      dup1\n      0x00\n      add\n      sload\n      swap1\n      dup1\n      0x01\n      add\n      0x00\n      swap1\n      sload\n      swap1\n      0x0100\n      exp\n      swap1\n      div\n      0xff\n      and\n      swap1\n      pop\n      dup3\n      jump\t// out\n        /* \"docs.chain.link/samples/VRF/VRFv2DirectFundingConsumer.sol\":2249:2273  uint256 public betResult */\n    tag_63:\n      sload(0x08)\n      dup2\n      jump\t// out\n        /* \"docs.chain.link/samples/VRF/VRFv2DirectFundingConsumer.sol\":2318:2351  uint256 public maxBetRatio = 1000 */\n    tag_67:\n      sload(0x0a)\n      dup2\n      jump\t// out\n        /* \"docs.chain.link/samples/VRF/VRFv2DirectFundingConsumer.sol\":4538:4966  function getRequestStatus(uint256 _requestId)... */\n    tag_72:\n        /* \"docs.chain.link/samples/VRF/VRFv2DirectFundingConsumer.sol\":4644:4656  uint256 paid */\n      0x00\n        /* \"docs.chain.link/samples/VRF/VRFv2DirectFundingConsumer.sol\":4670:4684  bool fulfilled */\n      dup1\n        /* \"docs.chain.link/samples/VRF/VRFv2DirectFundingConsumer.sol\":4698:4726  uint256[] memory randomWords */\n      0x60\n        /* \"docs.chain.link/samples/VRF/VRFv2DirectFundingConsumer.sol\":4802:4803  0 */\n      0x00\n        /* \"docs.chain.link/samples/VRF/VRFv2DirectFundingConsumer.sol\":4772:4782  s_requests */\n      0x02\n        /* \"docs.chain.link/samples/VRF/VRFv2DirectFundingConsumer.sol\":4772:4794  s_requests[_requestId] */\n      0x00\n        /* \"docs.chain.link/samples/VRF/VRFv2DirectFundingConsumer.sol\":4783:4793  _requestId */\n      dup7\n        /* \"docs.chain.link/samples/VRF/VRFv2DirectFundingConsumer.sol\":4772:4794  s_requests[_requestId] */\n      dup2\n      mstore\n      0x20\n      add\n      swap1\n      dup2\n      mstore\n      0x20\n      add\n      0x00\n      keccak256\n        /* \"docs.chain.link/samples/VRF/VRFv2DirectFundingConsumer.sol\":4772:4799  s_requests[_requestId].paid */\n      0x00\n      add\n      sload\n        /* \"docs.chain.link/samples/VRF/VRFv2DirectFundingConsumer.sol\":4772:4803  s_requests[_requestId].paid > 0 */\n      gt\n        /* \"docs.chain.link/samples/VRF/VRFv2DirectFundingConsumer.sol\":4764:4825  require(s_requests[_requestId].paid > 0, 'request not found') */\n      tag_129\n      jumpi\n      mload(0x40)\n      0x08c379a000000000000000000000000000000000000000000000000000000000\n      dup2\n      mstore\n      0x04\n      add\n      tag_130\n      swap1\n      tag_131\n      jump\t// in\n    tag_130:\n      mload(0x40)\n      dup1\n      swap2\n      sub\n      swap1\n      revert\n    tag_129:\n        /* \"docs.chain.link/samples/VRF/VRFv2DirectFundingConsumer.sol\":4835:4863  RequestStatus memory request */\n      0x00\n        /* \"docs.chain.link/samples/VRF/VRFv2DirectFundingConsumer.sol\":4866:4876  s_requests */\n      0x02\n        /* \"docs.chain.link/samples/VRF/VRFv2DirectFundingConsumer.sol\":4866:4888  s_requests[_requestId] */\n      0x00\n        /* \"docs.chain.link/samples/VRF/VRFv2DirectFundingConsumer.sol\":4877:4887  _requestId */\n      dup7\n        /* \"docs.chain.link/samples/VRF/VRFv2DirectFundingConsumer.sol\":4866:4888  s_requests[_requestId] */\n      dup2\n      mstore\n      0x20\n      add\n      swap1\n      dup2\n      mstore\n      0x20\n      add\n      0x00\n      keccak256\n        /* \"docs.chain.link/samples/VRF/VRFv2DirectFundingConsumer.sol\":4835:4888  RequestStatus memory request = s_requests[_requestId] */\n      mload(0x40)\n      dup1\n      0x60\n      add\n      0x40\n      mstore\n      swap1\n      dup2\n      0x00\n      dup3\n      add\n      sload\n      dup2\n      mstore\n      0x20\n      add\n      0x01\n      dup3\n      add\n      0x00\n      swap1\n      sload\n      swap1\n      0x0100\n      exp\n      swap1\n      div\n      0xff\n      and\n      iszero\n      iszero\n      iszero\n      iszero\n      dup2\n      mstore\n      0x20\n      add\n      0x02\n      dup3\n      add\n      dup1\n      sload\n      dup1\n      0x20\n      mul\n      0x20\n      add\n      mload(0x40)\n      swap1\n      dup2\n      add\n      0x40\n      mstore\n      dup1\n      swap3\n      swap2\n      swap1\n      dup2\n      dup2\n      mstore\n      0x20\n      add\n      dup3\n      dup1\n      sload\n      dup1\n      iszero\n      tag_132\n      jumpi\n      0x20\n      mul\n      dup3\n      add\n      swap2\n      swap1\n      0x00\n      mstore\n      keccak256(0x00, 0x20)\n      swap1\n    tag_133:\n      dup2\n      sload\n      dup2\n      mstore\n      0x20\n      add\n      swap1\n      0x01\n      add\n      swap1\n      dup1\n      dup4\n      gt\n      tag_133\n      jumpi\n    tag_132:\n      pop\n      pop\n      pop\n      pop\n      pop\n      dup2\n      mstore\n      pop\n      pop\n      swap1\n      pop\n        /* \"docs.chain.link/samples/VRF/VRFv2DirectFundingConsumer.sol\":4906:4913  request */\n      dup1\n        /* \"docs.chain.link/samples/VRF/VRFv2DirectFundingConsumer.sol\":4906:4918  request.paid */\n      0x00\n      add\n      mload\n        /* \"docs.chain.link/samples/VRF/VRFv2DirectFundingConsumer.sol\":4920:4927  request */\n      dup2\n        /* \"docs.chain.link/samples/VRF/VRFv2DirectFundingConsumer.sol\":4920:4937  request.fulfilled */\n      0x20\n      add\n      mload\n        /* \"docs.chain.link/samples/VRF/VRFv2DirectFundingConsumer.sol\":4939:4946  request */\n      dup3\n        /* \"docs.chain.link/samples/VRF/VRFv2DirectFundingConsumer.sol\":4939:4958  request.randomWords */\n      0x40\n      add\n      mload\n        /* \"docs.chain.link/samples/VRF/VRFv2DirectFundingConsumer.sol\":4898:4959  return (request.paid, request.fulfilled, request.randomWords) */\n      swap4\n      pop\n      swap4\n      pop\n      swap4\n      pop\n      pop\n        /* \"docs.chain.link/samples/VRF/VRFv2DirectFundingConsumer.sol\":4538:4966  function getRequestStatus(uint256 _requestId)... */\n      swap2\n      swap4\n      swap1\n      swap3\n      pop\n      jump\t// out\n        /* \"@chainlink/contracts/src/v0.8/ConfirmedOwnerWithProposal.sol\":826:924  function transferOwnership(address to) public override onlyOwner {... */\n    tag_79:\n        /* \"@chainlink/contracts/src/v0.8/ConfirmedOwnerWithProposal.sol\":1956:1976  _validateOwnership() */\n      tag_135\n        /* \"@chainlink/contracts/src/v0.8/ConfirmedOwnerWithProposal.sol\":1956:1974  _validateOwnership */\n      tag_110\n        /* \"@chainlink/contracts/src/v0.8/ConfirmedOwnerWithProposal.sol\":1956:1976  _validateOwnership() */\n      jump\t// in\n    tag_135:\n        /* \"@chainlink/contracts/src/v0.8/ConfirmedOwnerWithProposal.sol\":897:919  _transferOwnership(to) */\n      tag_137\n        /* \"@chainlink/contracts/src/v0.8/ConfirmedOwnerWithProposal.sol\":916:918  to */\n      dup2\n        /* \"@chainlink/contracts/src/v0.8/ConfirmedOwnerWithProposal.sol\":897:915  _transferOwnership */\n      tag_138\n        /* \"@chainlink/contracts/src/v0.8/ConfirmedOwnerWithProposal.sol\":897:919  _transferOwnership(to) */\n      jump\t// in\n    tag_137:\n        /* \"@chainlink/contracts/src/v0.8/ConfirmedOwnerWithProposal.sol\":826:924  function transferOwnership(address to) public override onlyOwner {... */\n      pop\n      jump\t// out\n        /* \"docs.chain.link/samples/VRF/VRFv2DirectFundingConsumer.sol\":1224:1252  uint256 public lastRequestId */\n    tag_82:\n      sload(0x04)\n      dup2\n      jump\t// out\n        /* \"docs.chain.link/samples/VRF/VRFv2DirectFundingConsumer.sol\":3553:4532  function fulfillRandomWords(uint256 _requestId, uint256[] memory _randomWords) internal override {... */\n    tag_89:\n        /* \"docs.chain.link/samples/VRF/VRFv2DirectFundingConsumer.sol\":3698:3699  0 */\n      0x00\n        /* \"docs.chain.link/samples/VRF/VRFv2DirectFundingConsumer.sol\":3668:3678  s_requests */\n      0x02\n        /* \"docs.chain.link/samples/VRF/VRFv2DirectFundingConsumer.sol\":3668:3690  s_requests[_requestId] */\n      0x00\n        /* \"docs.chain.link/samples/VRF/VRFv2DirectFundingConsumer.sol\":3679:3689  _requestId */\n      dup5\n        /* \"docs.chain.link/samples/VRF/VRFv2DirectFundingConsumer.sol\":3668:3690  s_requests[_requestId] */\n      dup2\n      mstore\n      0x20\n      add\n      swap1\n      dup2\n      mstore\n      0x20\n      add\n      0x00\n      keccak256\n        /* \"docs.chain.link/samples/VRF/VRFv2DirectFundingConsumer.sol\":3668:3695  s_requests[_requestId].paid */\n      0x00\n      add\n      sload\n        /* \"docs.chain.link/samples/VRF/VRFv2DirectFundingConsumer.sol\":3668:3699  s_requests[_requestId].paid > 0 */\n      gt\n        /* \"docs.chain.link/samples/VRF/VRFv2DirectFundingConsumer.sol\":3660:3721  require(s_requests[_requestId].paid > 0, 'request not found') */\n      tag_140\n      jumpi\n      mload(0x40)\n      0x08c379a000000000000000000000000000000000000000000000000000000000\n      dup2\n      mstore\n      0x04\n      add\n      tag_141\n      swap1\n      tag_131\n      jump\t// in\n    tag_141:\n      mload(0x40)\n      dup1\n      swap2\n      sub\n      swap1\n      revert\n    tag_140:\n        /* \"docs.chain.link/samples/VRF/VRFv2DirectFundingConsumer.sol\":3766:3770  true */\n      0x01\n        /* \"docs.chain.link/samples/VRF/VRFv2DirectFundingConsumer.sol\":3731:3741  s_requests */\n      0x02\n        /* \"docs.chain.link/samples/VRF/VRFv2DirectFundingConsumer.sol\":3731:3753  s_requests[_requestId] */\n      0x00\n        /* \"docs.chain.link/samples/VRF/VRFv2DirectFundingConsumer.sol\":3742:3752  _requestId */\n      dup5\n        /* \"docs.chain.link/samples/VRF/VRFv2DirectFundingConsumer.sol\":3731:3753  s_requests[_requestId] */\n      dup2\n      mstore\n      0x20\n      add\n      swap1\n      dup2\n      mstore\n      0x20\n      add\n      0x00\n      keccak256\n        /* \"docs.chain.link/samples/VRF/VRFv2DirectFundingConsumer.sol\":3731:3763  s_requests[_requestId].fulfilled */\n      0x01\n      add\n      0x00\n        /* \"docs.chain.link/samples/VRF/VRFv2DirectFundingConsumer.sol\":3731:3770  s_requests[_requestId].fulfilled = true */\n      0x0100\n      exp\n      dup2\n      sload\n      dup2\n      0xff\n      mul\n      not\n      and\n      swap1\n      dup4\n      iszero\n      iszero\n      mul\n      or\n      swap1\n      sstore\n      pop\n        /* \"docs.chain.link/samples/VRF/VRFv2DirectFundingConsumer.sol\":3817:3829  _randomWords */\n      dup1\n        /* \"docs.chain.link/samples/VRF/VRFv2DirectFundingConsumer.sol\":3780:3790  s_requests */\n      0x02\n        /* \"docs.chain.link/samples/VRF/VRFv2DirectFundingConsumer.sol\":3780:3802  s_requests[_requestId] */\n      0x00\n        /* \"docs.chain.link/samples/VRF/VRFv2DirectFundingConsumer.sol\":3791:3801  _requestId */\n      dup5\n        /* \"docs.chain.link/samples/VRF/VRFv2DirectFundingConsumer.sol\":3780:3802  s_requests[_requestId] */\n      dup2\n      mstore\n      0x20\n      add\n      swap1\n      dup2\n      mstore\n      0x20\n      add\n      0x00\n      keccak256\n        /* \"docs.chain.link/samples/VRF/VRFv2DirectFundingConsumer.sol\":3780:3814  s_requests[_requestId].randomWords */\n      0x02\n      add\n        /* \"docs.chain.link/samples/VRF/VRFv2DirectFundingConsumer.sol\":3780:3829  s_requests[_requestId].randomWords = _randomWords */\n      swap1\n      dup1\n      mload\n      swap1\n      0x20\n      add\n      swap1\n      tag_142\n      swap3\n      swap2\n      swap1\n      tag_143\n      jump\t// in\n    tag_142:\n      pop\n        /* \"docs.chain.link/samples/VRF/VRFv2DirectFundingConsumer.sol\":3844:3915  RequestFulfilled(_requestId, _randomWords, s_requests[_requestId].paid) */\n      0x147eb1ff0c82f87f2b03e2c43f5a36488ff63ec6b730195fde4605f612f8db51\n        /* \"docs.chain.link/samples/VRF/VRFv2DirectFundingConsumer.sol\":3861:3871  _requestId */\n      dup3\n        /* \"docs.chain.link/samples/VRF/VRFv2DirectFundingConsumer.sol\":3873:3885  _randomWords */\n      dup3\n        /* \"docs.chain.link/samples/VRF/VRFv2DirectFundingConsumer.sol\":3887:3897  s_requests */\n      0x02\n        /* \"docs.chain.link/samples/VRF/VRFv2DirectFundingConsumer.sol\":3887:3909  s_requests[_requestId] */\n      0x00\n        /* \"docs.chain.link/samples/VRF/VRFv2DirectFundingConsumer.sol\":3898:3908  _requestId */\n      dup7\n        /* \"docs.chain.link/samples/VRF/VRFv2DirectFundingConsumer.sol\":3887:3909  s_requests[_requestId] */\n      dup2\n      mstore\n      0x20\n      add\n      swap1\n      dup2\n      mstore\n      0x20\n      add\n      0x00\n      keccak256\n        /* \"docs.chain.link/samples/VRF/VRFv2DirectFundingConsumer.sol\":3887:3914  s_requests[_requestId].paid */\n      0x00\n      add\n      sload\n        /* \"docs.chain.link/samples/VRF/VRFv2DirectFundingConsumer.sol\":3844:3915  RequestFulfilled(_requestId, _randomWords, s_requests[_requestId].paid) */\n      mload(0x40)\n      tag_144\n      swap4\n      swap3\n      swap2\n      swap1\n      tag_145\n      jump\t// in\n    tag_144:\n      mload(0x40)\n      dup1\n      swap2\n      sub\n      swap1\n      log1\n        /* \"docs.chain.link/samples/VRF/VRFv2DirectFundingConsumer.sol\":3925:3943  uint256 randomness */\n      0x00\n        /* \"docs.chain.link/samples/VRF/VRFv2DirectFundingConsumer.sol\":3946:3958  _randomWords */\n      dup2\n        /* \"docs.chain.link/samples/VRF/VRFv2DirectFundingConsumer.sol\":3959:3960  0 */\n      0x00\n        /* \"docs.chain.link/samples/VRF/VRFv2DirectFundingConsumer.sol\":3946:3961  _randomWords[0] */\n      dup2\n      mload\n      dup2\n      lt\n      tag_146\n      jumpi\n      tag_147\n      tag_148\n      jump\t// in\n    tag_147:\n    tag_146:\n      0x20\n      mul\n      0x20\n      add\n      add\n      mload\n        /* \"docs.chain.link/samples/VRF/VRFv2DirectFundingConsumer.sol\":3925:3961  uint256 randomness = _randomWords[0] */\n      swap1\n      pop\n        /* \"docs.chain.link/samples/VRF/VRFv2DirectFundingConsumer.sol\":3971:3996  Player memory curr_player */\n      0x00\n        /* \"docs.chain.link/samples/VRF/VRFv2DirectFundingConsumer.sol\":3999:4006  records */\n      0x07\n        /* \"docs.chain.link/samples/VRF/VRFv2DirectFundingConsumer.sol\":3999:4018  records[_requestId] */\n      0x00\n        /* \"docs.chain.link/samples/VRF/VRFv2DirectFundingConsumer.sol\":4007:4017  _requestId */\n      dup6\n        /* \"docs.chain.link/samples/VRF/VRFv2DirectFundingConsumer.sol\":3999:4018  records[_requestId] */\n      dup2\n      mstore\n      0x20\n      add\n      swap1\n      dup2\n      mstore\n      0x20\n      add\n      0x00\n      keccak256\n        /* \"docs.chain.link/samples/VRF/VRFv2DirectFundingConsumer.sol\":3971:4018  Player memory curr_player = records[_requestId] */\n      mload(0x40)\n      dup1\n      0x60\n      add\n      0x40\n      mstore\n      swap1\n      dup2\n      0x00\n      dup3\n      add\n      0x00\n      swap1\n      sload\n      swap1\n      0x0100\n      exp\n      swap1\n      div\n      0xffffffffffffffffffffffffffffffffffffffff\n      and\n      0xffffffffffffffffffffffffffffffffffffffff\n      and\n      0xffffffffffffffffffffffffffffffffffffffff\n      and\n      dup2\n      mstore\n      0x20\n      add\n      0x01\n      dup3\n      add\n      sload\n      dup2\n      mstore\n      0x20\n      add\n      0x02\n      dup3\n      add\n      sload\n      dup2\n      mstore\n      pop\n      pop\n      swap1\n      pop\n        /* \"docs.chain.link/samples/VRF/VRFv2DirectFundingConsumer.sol\":4028:4046  uint256 _betAmount */\n      0x00\n        /* \"docs.chain.link/samples/VRF/VRFv2DirectFundingConsumer.sol\":4049:4060  curr_player */\n      dup2\n        /* \"docs.chain.link/samples/VRF/VRFv2DirectFundingConsumer.sol\":4049:4070  curr_player.betAmount */\n      0x40\n      add\n      mload\n        /* \"docs.chain.link/samples/VRF/VRFv2DirectFundingConsumer.sol\":4028:4070  uint256 _betAmount = curr_player.betAmount */\n      swap1\n      pop\n        /* \"docs.chain.link/samples/VRF/VRFv2DirectFundingConsumer.sol\":4080:4098  uint256 _betNumber */\n      0x00\n        /* \"docs.chain.link/samples/VRF/VRFv2DirectFundingConsumer.sol\":4101:4112  curr_player */\n      dup3\n        /* \"docs.chain.link/samples/VRF/VRFv2DirectFundingConsumer.sol\":4101:4122  curr_player.betNumber */\n      0x20\n      add\n      mload\n        /* \"docs.chain.link/samples/VRF/VRFv2DirectFundingConsumer.sol\":4080:4122  uint256 _betNumber = curr_player.betNumber */\n      swap1\n      pop\n        /* \"docs.chain.link/samples/VRF/VRFv2DirectFundingConsumer.sol\":4132:4168  address payable _curr_player_address */\n      0x00\n        /* \"docs.chain.link/samples/VRF/VRFv2DirectFundingConsumer.sol\":4171:4182  curr_player */\n      dup4\n        /* \"docs.chain.link/samples/VRF/VRFv2DirectFundingConsumer.sol\":4171:4196  curr_player.playerAddress */\n      0x00\n      add\n      mload\n        /* \"docs.chain.link/samples/VRF/VRFv2DirectFundingConsumer.sol\":4132:4196  address payable _curr_player_address = curr_player.playerAddress */\n      swap1\n      pop\n        /* \"docs.chain.link/samples/VRF/VRFv2DirectFundingConsumer.sol\":4206:4221  uint _betResult */\n      0x00\n        /* \"docs.chain.link/samples/VRF/VRFv2DirectFundingConsumer.sol\":4237:4238  6 */\n      0x06\n        /* \"docs.chain.link/samples/VRF/VRFv2DirectFundingConsumer.sol\":4224:4234  randomness */\n      dup7\n        /* \"docs.chain.link/samples/VRF/VRFv2DirectFundingConsumer.sol\":4224:4238  randomness % 6 */\n      tag_149\n      swap2\n      swap1\n      tag_150\n      jump\t// in\n    tag_149:\n        /* \"docs.chain.link/samples/VRF/VRFv2DirectFundingConsumer.sol\":4206:4238  uint _betResult = randomness % 6 */\n      swap1\n      pop\n        /* \"docs.chain.link/samples/VRF/VRFv2DirectFundingConsumer.sol\":4260:4270  _betResult */\n      dup1\n        /* \"docs.chain.link/samples/VRF/VRFv2DirectFundingConsumer.sol\":4248:4257  betResult */\n      0x08\n        /* \"docs.chain.link/samples/VRF/VRFv2DirectFundingConsumer.sol\":4248:4270  betResult = _betResult */\n      dup2\n      swap1\n      sstore\n      pop\n        /* \"docs.chain.link/samples/VRF/VRFv2DirectFundingConsumer.sol\":4298:4308  _betNumber */\n      dup3\n        /* \"docs.chain.link/samples/VRF/VRFv2DirectFundingConsumer.sol\":4284:4294  _betResult */\n      dup2\n        /* \"docs.chain.link/samples/VRF/VRFv2DirectFundingConsumer.sol\":4284:4308  _betResult == _betNumber */\n      eq\n        /* \"docs.chain.link/samples/VRF/VRFv2DirectFundingConsumer.sol\":4281:4516  if(_betResult == _betNumber){... */\n      iszero\n      tag_151\n      jumpi\n        /* \"docs.chain.link/samples/VRF/VRFv2DirectFundingConsumer.sol\":4323:4342  uint256 _win_amount */\n      0x00\n        /* \"docs.chain.link/samples/VRF/VRFv2DirectFundingConsumer.sol\":4357:4358  2 */\n      0x02\n        /* \"docs.chain.link/samples/VRF/VRFv2DirectFundingConsumer.sol\":4345:4355  _betAmount */\n      dup6\n        /* \"docs.chain.link/samples/VRF/VRFv2DirectFundingConsumer.sol\":4345:4358  _betAmount *2 */\n      tag_152\n      swap2\n      swap1\n      tag_153\n      jump\t// in\n    tag_152:\n        /* \"docs.chain.link/samples/VRF/VRFv2DirectFundingConsumer.sol\":4323:4358  uint256 _win_amount = _betAmount *2 */\n      swap1\n      pop\n        /* \"docs.chain.link/samples/VRF/VRFv2DirectFundingConsumer.sol\":4374:4386  bool success */\n      0x00\n        /* \"docs.chain.link/samples/VRF/VRFv2DirectFundingConsumer.sol\":4391:4411  _curr_player_address */\n      dup4\n        /* \"docs.chain.link/samples/VRF/VRFv2DirectFundingConsumer.sol\":4391:4416  _curr_player_address.call */\n      0xffffffffffffffffffffffffffffffffffffffff\n      and\n        /* \"docs.chain.link/samples/VRF/VRFv2DirectFundingConsumer.sol\":4424:4435  _win_amount */\n      dup3\n        /* \"docs.chain.link/samples/VRF/VRFv2DirectFundingConsumer.sol\":4391:4441  _curr_player_address.call{value: _win_amount} (\"\") */\n      mload(0x40)\n      tag_154\n      swap1\n      tag_155\n      jump\t// in\n    tag_154:\n      0x00\n      mload(0x40)\n      dup1\n      dup4\n      sub\n      dup2\n      dup6\n      dup8\n      gas\n      call\n      swap3\n      pop\n      pop\n      pop\n      returndatasize\n      dup1\n      0x00\n      dup2\n      eq\n      tag_158\n      jumpi\n      mload(0x40)\n      swap2\n      pop\n      and(add(returndatasize, 0x3f), not(0x1f))\n      dup3\n      add\n      0x40\n      mstore\n      returndatasize\n      dup3\n      mstore\n      returndatasize\n      0x00\n      0x20\n      dup5\n      add\n      returndatacopy\n      jump(tag_157)\n    tag_158:\n      0x60\n      swap2\n      pop\n    tag_157:\n      pop\n        /* \"docs.chain.link/samples/VRF/VRFv2DirectFundingConsumer.sol\":4373:4441  (bool success,) = _curr_player_address.call{value: _win_amount} (\"\") */\n      pop\n      swap1\n      pop\n        /* \"docs.chain.link/samples/VRF/VRFv2DirectFundingConsumer.sol\":4464:4471  success */\n      dup1\n        /* \"docs.chain.link/samples/VRF/VRFv2DirectFundingConsumer.sol\":4456:4505  require(success, \"Casino: Winning payout failed\") */\n      tag_159\n      jumpi\n      mload(0x40)\n      0x08c379a000000000000000000000000000000000000000000000000000000000\n      dup2\n      mstore\n      0x04\n      add\n      tag_160\n      swap1\n      tag_161\n      jump\t// in\n    tag_160:\n      mload(0x40)\n      dup1\n      swap2\n      sub\n      swap1\n      revert\n    tag_159:\n        /* \"docs.chain.link/samples/VRF/VRFv2DirectFundingConsumer.sol\":4309:4516  {... */\n      pop\n      pop\n        /* \"docs.chain.link/samples/VRF/VRFv2DirectFundingConsumer.sol\":4281:4516  if(_betResult == _betNumber){... */\n    tag_151:\n        /* \"docs.chain.link/samples/VRF/VRFv2DirectFundingConsumer.sol\":3650:4532  {... */\n      pop\n      pop\n      pop\n      pop\n      pop\n      pop\n        /* \"docs.chain.link/samples/VRF/VRFv2DirectFundingConsumer.sol\":3553:4532  function fulfillRandomWords(uint256 _requestId, uint256[] memory _randomWords) internal override {... */\n      pop\n      pop\n      jump\t// out\n        /* \"docs.chain.link/samples/VRF/VRFv2DirectFundingConsumer.sol\":2589:3112  function requestRandomWords() internal onlyOwner returns (uint256 requestId) {... */\n    tag_100:\n        /* \"docs.chain.link/samples/VRF/VRFv2DirectFundingConsumer.sol\":2647:2664  uint256 requestId */\n      0x00\n        /* \"@chainlink/contracts/src/v0.8/ConfirmedOwnerWithProposal.sol\":1956:1976  _validateOwnership() */\n      tag_163\n        /* \"@chainlink/contracts/src/v0.8/ConfirmedOwnerWithProposal.sol\":1956:1974  _validateOwnership */\n      tag_110\n        /* \"@chainlink/contracts/src/v0.8/ConfirmedOwnerWithProposal.sol\":1956:1976  _validateOwnership() */\n      jump\t// in\n    tag_163:\n        /* \"docs.chain.link/samples/VRF/VRFv2DirectFundingConsumer.sol\":2688:2755  requestRandomness(callbackGasLimit, requestConfirmations, numWords) */\n      tag_165\n        /* \"docs.chain.link/samples/VRF/VRFv2DirectFundingConsumer.sol\":2706:2722  callbackGasLimit */\n      0x05\n      0x00\n      swap1\n      sload\n      swap1\n      0x0100\n      exp\n      swap1\n      div\n      0xffffffff\n      and\n        /* \"docs.chain.link/samples/VRF/VRFv2DirectFundingConsumer.sol\":2724:2744  requestConfirmations */\n      0x05\n      0x04\n      swap1\n      sload\n      swap1\n      0x0100\n      exp\n      swap1\n      div\n      0xffff\n      and\n        /* \"docs.chain.link/samples/VRF/VRFv2DirectFundingConsumer.sol\":2746:2754  numWords */\n      0x05\n      0x06\n      swap1\n      sload\n      swap1\n      0x0100\n      exp\n      swap1\n      div\n      0xffffffff\n      and\n        /* \"docs.chain.link/samples/VRF/VRFv2DirectFundingConsumer.sol\":2688:2705  requestRandomness */\n      tag_166\n        /* \"docs.chain.link/samples/VRF/VRFv2DirectFundingConsumer.sol\":2688:2755  requestRandomness(callbackGasLimit, requestConfirmations, numWords) */\n      jump\t// in\n    tag_165:\n        /* \"docs.chain.link/samples/VRF/VRFv2DirectFundingConsumer.sol\":2676:2755  requestId = requestRandomness(callbackGasLimit, requestConfirmations, numWords) */\n      swap1\n      pop\n        /* \"docs.chain.link/samples/VRF/VRFv2DirectFundingConsumer.sol\":2789:2961  RequestStatus({... */\n      mload(0x40)\n      dup1\n      0x60\n      add\n      0x40\n      mstore\n      dup1\n        /* \"docs.chain.link/samples/VRF/VRFv2DirectFundingConsumer.sol\":2823:2837  VRF_V2_WRAPPER */\n      immutable(\"0xa75e2cf51d42f4164e4624f425e61448777a748393b6f6a5bcb1d94d1e8e5e98\")\n        /* \"docs.chain.link/samples/VRF/VRFv2DirectFundingConsumer.sol\":2823:2859  VRF_V2_WRAPPER.calculateRequestPrice */\n      0xffffffffffffffffffffffffffffffffffffffff\n      and\n      0x4306d354\n        /* \"docs.chain.link/samples/VRF/VRFv2DirectFundingConsumer.sol\":2860:2876  callbackGasLimit */\n      0x05\n      0x00\n      swap1\n      sload\n      swap1\n      0x0100\n      exp\n      swap1\n      div\n      0xffffffff\n      and\n        /* \"docs.chain.link/samples/VRF/VRFv2DirectFundingConsumer.sol\":2823:2877  VRF_V2_WRAPPER.calculateRequestPrice(callbackGasLimit) */\n      mload(0x40)\n      dup3\n      0xffffffff\n      and\n      0xe0\n      shl\n      dup2\n      mstore\n      0x04\n      add\n      tag_167\n      swap2\n      swap1\n      tag_168\n      jump\t// in\n    tag_167:\n      0x20\n      mload(0x40)\n      dup1\n      dup4\n      sub\n      dup2\n      dup7\n      dup1\n      extcodesize\n      iszero\n      dup1\n      iszero\n      tag_169\n      jumpi\n      0x00\n      dup1\n      revert\n    tag_169:\n      pop\n      gas\n      staticcall\n      iszero\n      dup1\n      iszero\n      tag_171\n      jumpi\n      returndatasize\n      0x00\n      dup1\n      returndatacopy\n      revert(0x00, returndatasize)\n    tag_171:\n      pop\n      pop\n      pop\n      pop\n      mload(0x40)\n      returndatasize\n      not(0x1f)\n      0x1f\n      dup3\n      add\n      and\n      dup3\n      add\n      dup1\n      0x40\n      mstore\n      pop\n      dup2\n      add\n      swap1\n      tag_172\n      swap2\n      swap1\n      tag_117\n      jump\t// in\n    tag_172:\n        /* \"docs.chain.link/samples/VRF/VRFv2DirectFundingConsumer.sol\":2789:2961  RequestStatus({... */\n      dup2\n      mstore\n      0x20\n      add\n        /* \"docs.chain.link/samples/VRF/VRFv2DirectFundingConsumer.sol\":2945:2950  false */\n      0x00\n        /* \"docs.chain.link/samples/VRF/VRFv2DirectFundingConsumer.sol\":2789:2961  RequestStatus({... */\n      iszero\n      iszero\n      dup2\n      mstore\n      0x20\n      add\n        /* \"docs.chain.link/samples/VRF/VRFv2DirectFundingConsumer.sol\":2918:2919  0 */\n      0x00\n        /* \"docs.chain.link/samples/VRF/VRFv2DirectFundingConsumer.sol\":2904:2920  new uint256[](0) */\n      0xffffffffffffffff\n      dup2\n      gt\n      iszero\n      tag_173\n      jumpi\n      tag_174\n      tag_175\n      jump\t// in\n    tag_174:\n    tag_173:\n      mload(0x40)\n      swap1\n      dup1\n      dup3\n      mstore\n      dup1\n      0x20\n      mul\n      0x20\n      add\n      dup3\n      add\n      0x40\n      mstore\n      dup1\n      iszero\n      tag_176\n      jumpi\n      dup2\n      0x20\n      add\n      0x20\n      dup3\n      mul\n      dup1\n      calldatasize\n      dup4\n      calldatacopy\n      dup1\n      dup3\n      add\n      swap2\n      pop\n      pop\n      swap1\n      pop\n    tag_176:\n      pop\n        /* \"docs.chain.link/samples/VRF/VRFv2DirectFundingConsumer.sol\":2789:2961  RequestStatus({... */\n      dup2\n      mstore\n      pop\n        /* \"docs.chain.link/samples/VRF/VRFv2DirectFundingConsumer.sol\":2765:2775  s_requests */\n      0x02\n        /* \"docs.chain.link/samples/VRF/VRFv2DirectFundingConsumer.sol\":2765:2786  s_requests[requestId] */\n      0x00\n        /* \"docs.chain.link/samples/VRF/VRFv2DirectFundingConsumer.sol\":2776:2785  requestId */\n      dup4\n        /* \"docs.chain.link/samples/VRF/VRFv2DirectFundingConsumer.sol\":2765:2786  s_requests[requestId] */\n      dup2\n      mstore\n      0x20\n      add\n      swap1\n      dup2\n      mstore\n      0x20\n      add\n      0x00\n      keccak256\n        /* \"docs.chain.link/samples/VRF/VRFv2DirectFundingConsumer.sol\":2765:2961  s_requests[requestId] = RequestStatus({... */\n      0x00\n      dup3\n      add\n      mload\n      dup2\n      0x00\n      add\n      sstore\n      0x20\n      dup3\n      add\n      mload\n      dup2\n      0x01\n      add\n      exp(0x0100, 0x00)\n      dup2\n      sload\n      dup2\n      0xff\n      mul\n      not\n      and\n      swap1\n      dup4\n      iszero\n      iszero\n      mul\n      or\n      swap1\n      sstore\n      pop\n      0x40\n      dup3\n      add\n      mload\n      dup2\n      0x02\n      add\n      swap1\n      dup1\n      mload\n      swap1\n      0x20\n      add\n      swap1\n      tag_177\n      swap3\n      swap2\n      swap1\n      tag_143\n      jump\t// in\n    tag_177:\n      pop\n      swap1\n      pop\n      pop\n        /* \"docs.chain.link/samples/VRF/VRFv2DirectFundingConsumer.sol\":2971:2981  requestIds */\n      0x03\n        /* \"docs.chain.link/samples/VRF/VRFv2DirectFundingConsumer.sol\":2987:2996  requestId */\n      dup2\n        /* \"docs.chain.link/samples/VRF/VRFv2DirectFundingConsumer.sol\":2971:2997  requestIds.push(requestId) */\n      swap1\n      dup1\n      0x01\n      dup2\n      sload\n      add\n      dup1\n      dup3\n      sstore\n      dup1\n      swap2\n      pop\n      pop\n      0x01\n      swap1\n      sub\n      swap1\n      0x00\n      mstore\n      keccak256(0x00, 0x20)\n      add\n      0x00\n      swap1\n      swap2\n      swap1\n      swap2\n      swap1\n      swap2\n      pop\n      sstore\n        /* \"docs.chain.link/samples/VRF/VRFv2DirectFundingConsumer.sol\":3023:3032  requestId */\n      dup1\n        /* \"docs.chain.link/samples/VRF/VRFv2DirectFundingConsumer.sol\":3007:3020  lastRequestId */\n      0x04\n        /* \"docs.chain.link/samples/VRF/VRFv2DirectFundingConsumer.sol\":3007:3032  lastRequestId = requestId */\n      dup2\n      swap1\n      sstore\n      pop\n        /* \"docs.chain.link/samples/VRF/VRFv2DirectFundingConsumer.sol\":3047:3079  RequestSent(requestId, numWords) */\n      0xcc58b13ad3eab50626c6a6300b1d139cd6ebb1688a7cced9461c2f7e762665ee\n        /* \"docs.chain.link/samples/VRF/VRFv2DirectFundingConsumer.sol\":3059:3068  requestId */\n      dup2\n        /* \"docs.chain.link/samples/VRF/VRFv2DirectFundingConsumer.sol\":3070:3078  numWords */\n      0x05\n      0x06\n      swap1\n      sload\n      swap1\n      0x0100\n      exp\n      swap1\n      div\n      0xffffffff\n      and\n        /* \"docs.chain.link/samples/VRF/VRFv2DirectFundingConsumer.sol\":3047:3079  RequestSent(requestId, numWords) */\n      mload(0x40)\n      tag_179\n      swap3\n      swap2\n      swap1\n      tag_180\n      jump\t// in\n    tag_179:\n      mload(0x40)\n      dup1\n      swap2\n      sub\n      swap1\n      log1\n        /* \"docs.chain.link/samples/VRF/VRFv2DirectFundingConsumer.sol\":2589:3112  function requestRandomWords() internal onlyOwner returns (uint256 requestId) {... */\n      swap1\n      jump\t// out\n        /* \"@chainlink/contracts/src/v0.8/ConfirmedOwnerWithProposal.sol\":1730:1841  function _validateOwnership() internal view {... */\n    tag_110:\n        /* \"@chainlink/contracts/src/v0.8/ConfirmedOwnerWithProposal.sol\":1802:1809  s_owner */\n      0x00\n      dup1\n      sload\n      swap1\n      0x0100\n      exp\n      swap1\n      div\n      0xffffffffffffffffffffffffffffffffffffffff\n      and\n        /* \"@chainlink/contracts/src/v0.8/ConfirmedOwnerWithProposal.sol\":1788:1809  msg.sender == s_owner */\n      0xffffffffffffffffffffffffffffffffffffffff\n      and\n        /* \"@chainlink/contracts/src/v0.8/ConfirmedOwnerWithProposal.sol\":1788:1798  msg.sender */\n      caller\n        /* \"@chainlink/contracts/src/v0.8/ConfirmedOwnerWithProposal.sol\":1788:1809  msg.sender == s_owner */\n      0xffffffffffffffffffffffffffffffffffffffff\n      and\n      eq\n        /* \"@chainlink/contracts/src/v0.8/ConfirmedOwnerWithProposal.sol\":1780:1836  require(msg.sender == s_owner, \"Only callable by owner\") */\n      tag_182\n      jumpi\n      mload(0x40)\n      0x08c379a000000000000000000000000000000000000000000000000000000000\n      dup2\n      mstore\n      0x04\n      add\n      tag_183\n      swap1\n      tag_184\n      jump\t// in\n    tag_183:\n      mload(0x40)\n      dup1\n      swap2\n      sub\n      swap1\n      revert\n    tag_182:\n        /* \"@chainlink/contracts/src/v0.8/ConfirmedOwnerWithProposal.sol\":1730:1841  function _validateOwnership() internal view {... */\n      jump\t// out\n        /* \"@chainlink/contracts/src/v0.8/ConfirmedOwnerWithProposal.sol\":1497:1685  function _transferOwnership(address to) private {... */\n    tag_138:\n        /* \"@chainlink/contracts/src/v0.8/ConfirmedOwnerWithProposal.sol\":1565:1575  msg.sender */\n      caller\n        /* \"@chainlink/contracts/src/v0.8/ConfirmedOwnerWithProposal.sol\":1559:1575  to != msg.sender */\n      0xffffffffffffffffffffffffffffffffffffffff\n      and\n        /* \"@chainlink/contracts/src/v0.8/ConfirmedOwnerWithProposal.sol\":1559:1561  to */\n      dup2\n        /* \"@chainlink/contracts/src/v0.8/ConfirmedOwnerWithProposal.sol\":1559:1575  to != msg.sender */\n      0xffffffffffffffffffffffffffffffffffffffff\n      and\n      eq\n      iszero\n        /* \"@chainlink/contracts/src/v0.8/ConfirmedOwnerWithProposal.sol\":1551:1603  require(to != msg.sender, \"Cannot transfer to self\") */\n      tag_186\n      jumpi\n      mload(0x40)\n      0x08c379a000000000000000000000000000000000000000000000000000000000\n      dup2\n      mstore\n      0x04\n      add\n      tag_187\n      swap1\n      tag_188\n      jump\t// in\n    tag_187:\n      mload(0x40)\n      dup1\n      swap2\n      sub\n      swap1\n      revert\n    tag_186:\n        /* \"@chainlink/contracts/src/v0.8/ConfirmedOwnerWithProposal.sol\":1627:1629  to */\n      dup1\n        /* \"@chainlink/contracts/src/v0.8/ConfirmedOwnerWithProposal.sol\":1610:1624  s_pendingOwner */\n      0x01\n      0x00\n        /* \"@chainlink/contracts/src/v0.8/ConfirmedOwnerWithProposal.sol\":1610:1629  s_pendingOwner = to */\n      0x0100\n      exp\n      dup2\n      sload\n      dup2\n      0xffffffffffffffffffffffffffffffffffffffff\n      mul\n      not\n      and\n      swap1\n      dup4\n      0xffffffffffffffffffffffffffffffffffffffff\n      and\n      mul\n      or\n      swap1\n      sstore\n      pop\n        /* \"@chainlink/contracts/src/v0.8/ConfirmedOwnerWithProposal.sol\":1677:1679  to */\n      dup1\n        /* \"@chainlink/contracts/src/v0.8/ConfirmedOwnerWithProposal.sol\":1641:1680  OwnershipTransferRequested(s_owner, to) */\n      0xffffffffffffffffffffffffffffffffffffffff\n      and\n        /* \"@chainlink/contracts/src/v0.8/ConfirmedOwnerWithProposal.sol\":1668:1675  s_owner */\n      0x00\n      dup1\n      sload\n      swap1\n      0x0100\n      exp\n      swap1\n      div\n      0xffffffffffffffffffffffffffffffffffffffff\n      and\n        /* \"@chainlink/contracts/src/v0.8/ConfirmedOwnerWithProposal.sol\":1641:1680  OwnershipTransferRequested(s_owner, to) */\n      0xffffffffffffffffffffffffffffffffffffffff\n      and\n      0xed8889f560326eb138920d842192f0eb3dd22b4f139c87a2c57538e05bae1278\n      mload(0x40)\n      mload(0x40)\n      dup1\n      swap2\n      sub\n      swap1\n      log3\n        /* \"@chainlink/contracts/src/v0.8/ConfirmedOwnerWithProposal.sol\":1497:1685  function _transferOwnership(address to) private {... */\n      pop\n      jump\t// out\n        /* \"@chainlink/contracts/src/v0.8/VRFV2WrapperConsumerBase.sol\":2645:3044  function requestRandomness(... */\n    tag_166:\n        /* \"@chainlink/contracts/src/v0.8/VRFV2WrapperConsumerBase.sol\":2780:2797  uint256 requestId */\n      0x00\n        /* \"@chainlink/contracts/src/v0.8/VRFV2WrapperConsumerBase.sol\":2805:2809  LINK */\n      immutable(\"0x266b1640ade99b2f22d24bd1f0c6c2736890e0398a5a0b97b63a35856ae65c2b\")\n        /* \"@chainlink/contracts/src/v0.8/VRFV2WrapperConsumerBase.sol\":2805:2825  LINK.transferAndCall */\n      0xffffffffffffffffffffffffffffffffffffffff\n      and\n      0x4000aea0\n        /* \"@chainlink/contracts/src/v0.8/VRFV2WrapperConsumerBase.sol\":2841:2855  VRF_V2_WRAPPER */\n      immutable(\"0xa75e2cf51d42f4164e4624f425e61448777a748393b6f6a5bcb1d94d1e8e5e98\")\n        /* \"@chainlink/contracts/src/v0.8/VRFV2WrapperConsumerBase.sol\":2864:2878  VRF_V2_WRAPPER */\n      immutable(\"0xa75e2cf51d42f4164e4624f425e61448777a748393b6f6a5bcb1d94d1e8e5e98\")\n        /* \"@chainlink/contracts/src/v0.8/VRFV2WrapperConsumerBase.sol\":2864:2900  VRF_V2_WRAPPER.calculateRequestPrice */\n      0xffffffffffffffffffffffffffffffffffffffff\n      and\n      0x4306d354\n        /* \"@chainlink/contracts/src/v0.8/VRFV2WrapperConsumerBase.sol\":2901:2918  _callbackGasLimit */\n      dup9\n        /* \"@chainlink/contracts/src/v0.8/VRFV2WrapperConsumerBase.sol\":2864:2919  VRF_V2_WRAPPER.calculateRequestPrice(_callbackGasLimit) */\n      mload(0x40)\n      dup3\n      0xffffffff\n      and\n      0xe0\n      shl\n      dup2\n      mstore\n      0x04\n      add\n      tag_190\n      swap2\n      swap1\n      tag_168\n      jump\t// in\n    tag_190:\n      0x20\n      mload(0x40)\n      dup1\n      dup4\n      sub\n      dup2\n      dup7\n      dup1\n      extcodesize\n      iszero\n      dup1\n      iszero\n      tag_191\n      jumpi\n      0x00\n      dup1\n      revert\n    tag_191:\n      pop\n      gas\n      staticcall\n      iszero\n      dup1\n      iszero\n      tag_193\n      jumpi\n      returndatasize\n      0x00\n      dup1\n      returndatacopy\n      revert(0x00, returndatasize)\n    tag_193:\n      pop\n      pop\n      pop\n      pop\n      mload(0x40)\n      returndatasize\n      not(0x1f)\n      0x1f\n      dup3\n      add\n      and\n      dup3\n      add\n      dup1\n      0x40\n      mstore\n      pop\n      dup2\n      add\n      swap1\n      tag_194\n      swap2\n      swap1\n      tag_117\n      jump\t// in\n    tag_194:\n        /* \"@chainlink/contracts/src/v0.8/VRFV2WrapperConsumerBase.sol\":2938:2955  _callbackGasLimit */\n      dup8\n        /* \"@chainlink/contracts/src/v0.8/VRFV2WrapperConsumerBase.sol\":2957:2978  _requestConfirmations */\n      dup8\n        /* \"@chainlink/contracts/src/v0.8/VRFV2WrapperConsumerBase.sol\":2980:2989  _numWords */\n      dup8\n        /* \"@chainlink/contracts/src/v0.8/VRFV2WrapperConsumerBase.sol\":2927:2990  abi.encode(_callbackGasLimit, _requestConfirmations, _numWords) */\n      add(0x20, mload(0x40))\n      tag_195\n      swap4\n      swap3\n      swap2\n      swap1\n      tag_196\n      jump\t// in\n    tag_195:\n      mload(0x40)\n      0x20\n      dup2\n      dup4\n      sub\n      sub\n      dup2\n      mstore\n      swap1\n      0x40\n      mstore\n        /* \"@chainlink/contracts/src/v0.8/VRFV2WrapperConsumerBase.sol\":2805:2996  LINK.transferAndCall(... */\n      mload(0x40)\n      dup5\n      0xffffffff\n      and\n      0xe0\n      shl\n      dup2\n      mstore\n      0x04\n      add\n      tag_197\n      swap4\n      swap3\n      swap2\n      swap1\n      tag_198\n      jump\t// in\n    tag_197:\n      0x20\n      mload(0x40)\n      dup1\n      dup4\n      sub\n      dup2\n      0x00\n      dup8\n      dup1\n      extcodesize\n      iszero\n      dup1\n      iszero\n      tag_199\n      jumpi\n      0x00\n      dup1\n      revert\n    tag_199:\n      pop\n      gas\n      call\n      iszero\n      dup1\n      iszero\n      tag_201\n      jumpi\n      returndatasize\n      0x00\n      dup1\n      returndatacopy\n      revert(0x00, returndatasize)\n    tag_201:\n      pop\n      pop\n      pop\n      pop\n      mload(0x40)\n      returndatasize\n      not(0x1f)\n      0x1f\n      dup3\n      add\n      and\n      dup3\n      add\n      dup1\n      0x40\n      mstore\n      pop\n      dup2\n      add\n      swap1\n      tag_202\n      swap2\n      swap1\n      tag_124\n      jump\t// in\n    tag_202:\n      pop\n        /* \"@chainlink/contracts/src/v0.8/VRFV2WrapperConsumerBase.sol\":3009:3023  VRF_V2_WRAPPER */\n      immutable(\"0xa75e2cf51d42f4164e4624f425e61448777a748393b6f6a5bcb1d94d1e8e5e98\")\n        /* \"@chainlink/contracts/src/v0.8/VRFV2WrapperConsumerBase.sol\":3009:3037  VRF_V2_WRAPPER.lastRequestId */\n      0xffffffffffffffffffffffffffffffffffffffff\n      and\n      0xfc2a88c3\n        /* \"@chainlink/contracts/src/v0.8/VRFV2WrapperConsumerBase.sol\":3009:3039  VRF_V2_WRAPPER.lastRequestId() */\n      mload(0x40)\n      dup2\n      0xffffffff\n      and\n      0xe0\n      shl\n      dup2\n      mstore\n      0x04\n      add\n      0x20\n      mload(0x40)\n      dup1\n      dup4\n      sub\n      dup2\n      dup7\n      dup1\n      extcodesize\n      iszero\n      dup1\n      iszero\n      tag_203\n      jumpi\n      0x00\n      dup1\n      revert\n    tag_203:\n      pop\n      gas\n      staticcall\n      iszero\n      dup1\n      iszero\n      tag_205\n      jumpi\n      returndatasize\n      0x00\n      dup1\n      returndatacopy\n      revert(0x00, returndatasize)\n    tag_205:\n      pop\n      pop\n      pop\n      pop\n      mload(0x40)\n      returndatasize\n      not(0x1f)\n      0x1f\n      dup3\n      add\n      and\n      dup3\n      add\n      dup1\n      0x40\n      mstore\n      pop\n      dup2\n      add\n      swap1\n      tag_206\n      swap2\n      swap1\n      tag_117\n      jump\t// in\n    tag_206:\n        /* \"@chainlink/contracts/src/v0.8/VRFV2WrapperConsumerBase.sol\":3002:3039  return VRF_V2_WRAPPER.lastRequestId() */\n      swap1\n      pop\n        /* \"@chainlink/contracts/src/v0.8/VRFV2WrapperConsumerBase.sol\":2645:3044  function requestRandomness(... */\n      swap4\n      swap3\n      pop\n      pop\n      pop\n      jump\t// out\n    tag_143:\n      dup3\n      dup1\n      sload\n      dup3\n      dup3\n      sstore\n      swap1\n      0x00\n      mstore\n      keccak256(0x00, 0x20)\n      swap1\n      dup2\n      add\n      swap3\n      dup3\n      iszero\n      tag_207\n      jumpi\n      swap2\n      0x20\n      mul\n      dup3\n      add\n    tag_208:\n      dup3\n      dup2\n      gt\n      iszero\n      tag_209\n      jumpi\n      dup3\n      mload\n      dup3\n      sstore\n      swap2\n      0x20\n      add\n      swap2\n      swap1\n      0x01\n      add\n      swap1\n      jump(tag_208)\n    tag_209:\n    tag_207:\n      pop\n      swap1\n      pop\n      tag_210\n      swap2\n      swap1\n      tag_211\n      jump\t// in\n    tag_210:\n      pop\n      swap1\n      jump\t// out\n    tag_211:\n    tag_212:\n      dup1\n      dup3\n      gt\n      iszero\n      tag_213\n      jumpi\n      0x00\n      dup2\n      0x00\n      swap1\n      sstore\n      pop\n      0x01\n      add\n      jump(tag_212)\n    tag_213:\n      pop\n      swap1\n      jump\t// out\n        /* \"#utility.yul\":24:746   */\n    tag_215:\n        /* \"#utility.yul\":120:125   */\n      0x00\n        /* \"#utility.yul\":145:226   */\n      tag_217\n        /* \"#utility.yul\":161:225   */\n      tag_218\n        /* \"#utility.yul\":218:224   */\n      dup5\n        /* \"#utility.yul\":161:225   */\n      tag_219\n      jump\t// in\n    tag_218:\n        /* \"#utility.yul\":145:226   */\n      tag_220\n      jump\t// in\n    tag_217:\n        /* \"#utility.yul\":136:226   */\n      swap1\n      pop\n        /* \"#utility.yul\":246:251   */\n      dup1\n        /* \"#utility.yul\":275:281   */\n      dup4\n        /* \"#utility.yul\":268:273   */\n      dup3\n        /* \"#utility.yul\":261:282   */\n      mstore\n        /* \"#utility.yul\":309:313   */\n      0x20\n        /* \"#utility.yul\":302:307   */\n      dup3\n        /* \"#utility.yul\":298:314   */\n      add\n        /* \"#utility.yul\":291:314   */\n      swap1\n      pop\n        /* \"#utility.yul\":335:341   */\n      dup3\n        /* \"#utility.yul\":385:388   */\n      dup6\n        /* \"#utility.yul\":377:381   */\n      0x20\n        /* \"#utility.yul\":369:375   */\n      dup7\n        /* \"#utility.yul\":365:382   */\n      mul\n        /* \"#utility.yul\":360:363   */\n      dup3\n        /* \"#utility.yul\":356:383   */\n      add\n        /* \"#utility.yul\":353:389   */\n      gt\n        /* \"#utility.yul\":350:493   */\n      iszero\n      tag_221\n      jumpi\n        /* \"#utility.yul\":404:483   */\n      tag_222\n      tag_223\n      jump\t// in\n    tag_222:\n        /* \"#utility.yul\":350:493   */\n    tag_221:\n        /* \"#utility.yul\":517:518   */\n      0x00\n        /* \"#utility.yul\":502:740   */\n    tag_224:\n        /* \"#utility.yul\":527:533   */\n      dup6\n        /* \"#utility.yul\":524:525   */\n      dup2\n        /* \"#utility.yul\":521:534   */\n      lt\n        /* \"#utility.yul\":502:740   */\n      iszero\n      tag_226\n      jumpi\n        /* \"#utility.yul\":595:598   */\n      dup2\n        /* \"#utility.yul\":624:661   */\n      tag_227\n        /* \"#utility.yul\":657:660   */\n      dup9\n        /* \"#utility.yul\":645:655   */\n      dup3\n        /* \"#utility.yul\":624:661   */\n      tag_228\n      jump\t// in\n    tag_227:\n        /* \"#utility.yul\":619:622   */\n      dup5\n        /* \"#utility.yul\":612:662   */\n      mstore\n        /* \"#utility.yul\":691:695   */\n      0x20\n        /* \"#utility.yul\":686:689   */\n      dup5\n        /* \"#utility.yul\":682:696   */\n      add\n        /* \"#utility.yul\":675:696   */\n      swap4\n      pop\n        /* \"#utility.yul\":725:729   */\n      0x20\n        /* \"#utility.yul\":720:723   */\n      dup4\n        /* \"#utility.yul\":716:730   */\n      add\n        /* \"#utility.yul\":709:730   */\n      swap3\n      pop\n        /* \"#utility.yul\":562:740   */\n      pop\n        /* \"#utility.yul\":549:550   */\n      0x01\n        /* \"#utility.yul\":546:547   */\n      dup2\n        /* \"#utility.yul\":542:551   */\n      add\n        /* \"#utility.yul\":537:551   */\n      swap1\n      pop\n        /* \"#utility.yul\":502:740   */\n      jump(tag_224)\n    tag_226:\n        /* \"#utility.yul\":506:520   */\n      pop\n        /* \"#utility.yul\":126:746   */\n      pop\n      pop\n        /* \"#utility.yul\":24:746   */\n      swap4\n      swap3\n      pop\n      pop\n      pop\n      jump\t// out\n        /* \"#utility.yul\":752:891   */\n    tag_229:\n        /* \"#utility.yul\":798:803   */\n      0x00\n        /* \"#utility.yul\":836:842   */\n      dup2\n        /* \"#utility.yul\":823:843   */\n      calldataload\n        /* \"#utility.yul\":814:843   */\n      swap1\n      pop\n        /* \"#utility.yul\":852:885   */\n      tag_231\n        /* \"#utility.yul\":879:884   */\n      dup2\n        /* \"#utility.yul\":852:885   */\n      tag_232\n      jump\t// in\n    tag_231:\n        /* \"#utility.yul\":752:891   */\n      swap3\n      swap2\n      pop\n      pop\n      jump\t// out\n        /* \"#utility.yul\":914:1284   */\n    tag_233:\n        /* \"#utility.yul\":985:990   */\n      0x00\n        /* \"#utility.yul\":1034:1037   */\n      dup3\n        /* \"#utility.yul\":1027:1031   */\n      0x1f\n        /* \"#utility.yul\":1019:1025   */\n      dup4\n        /* \"#utility.yul\":1015:1032   */\n      add\n        /* \"#utility.yul\":1011:1038   */\n      slt\n        /* \"#utility.yul\":1001:1123   */\n      tag_235\n      jumpi\n        /* \"#utility.yul\":1042:1121   */\n      tag_236\n      tag_237\n      jump\t// in\n    tag_236:\n        /* \"#utility.yul\":1001:1123   */\n    tag_235:\n        /* \"#utility.yul\":1159:1165   */\n      dup2\n        /* \"#utility.yul\":1146:1166   */\n      calldataload\n        /* \"#utility.yul\":1184:1278   */\n      tag_238\n        /* \"#utility.yul\":1274:1277   */\n      dup5\n        /* \"#utility.yul\":1266:1272   */\n      dup3\n        /* \"#utility.yul\":1259:1263   */\n      0x20\n        /* \"#utility.yul\":1251:1257   */\n      dup7\n        /* \"#utility.yul\":1247:1264   */\n      add\n        /* \"#utility.yul\":1184:1278   */\n      tag_215\n      jump\t// in\n    tag_238:\n        /* \"#utility.yul\":1175:1278   */\n      swap2\n      pop\n        /* \"#utility.yul\":991:1284   */\n      pop\n        /* \"#utility.yul\":914:1284   */\n      swap3\n      swap2\n      pop\n      pop\n      jump\t// out\n        /* \"#utility.yul\":1290:1427   */\n    tag_239:\n        /* \"#utility.yul\":1344:1349   */\n      0x00\n        /* \"#utility.yul\":1375:1381   */\n      dup2\n        /* \"#utility.yul\":1369:1382   */\n      mload\n        /* \"#utility.yul\":1360:1382   */\n      swap1\n      pop\n        /* \"#utility.yul\":1391:1421   */\n      tag_241\n        /* \"#utility.yul\":1415:1420   */\n      dup2\n        /* \"#utility.yul\":1391:1421   */\n      tag_242\n      jump\t// in\n    tag_241:\n        /* \"#utility.yul\":1290:1427   */\n      swap3\n      swap2\n      pop\n      pop\n      jump\t// out\n        /* \"#utility.yul\":1433:1572   */\n    tag_228:\n        /* \"#utility.yul\":1479:1484   */\n      0x00\n        /* \"#utility.yul\":1517:1523   */\n      dup2\n        /* \"#utility.yul\":1504:1524   */\n      calldataload\n        /* \"#utility.yul\":1495:1524   */\n      swap1\n      pop\n        /* \"#utility.yul\":1533:1566   */\n      tag_244\n        /* \"#utility.yul\":1560:1565   */\n      dup2\n        /* \"#utility.yul\":1533:1566   */\n      tag_245\n      jump\t// in\n    tag_244:\n        /* \"#utility.yul\":1433:1572   */\n      swap3\n      swap2\n      pop\n      pop\n      jump\t// out\n        /* \"#utility.yul\":1578:1721   */\n    tag_246:\n        /* \"#utility.yul\":1635:1640   */\n      0x00\n        /* \"#utility.yul\":1666:1672   */\n      dup2\n        /* \"#utility.yul\":1660:1673   */\n      mload\n        /* \"#utility.yul\":1651:1673   */\n      swap1\n      pop\n        /* \"#utility.yul\":1682:1715   */\n      tag_248\n        /* \"#utility.yul\":1709:1714   */\n      dup2\n        /* \"#utility.yul\":1682:1715   */\n      tag_245\n      jump\t// in\n    tag_248:\n        /* \"#utility.yul\":1578:1721   */\n      swap3\n      swap2\n      pop\n      pop\n      jump\t// out\n        /* \"#utility.yul\":1727:2056   */\n    tag_78:\n        /* \"#utility.yul\":1786:1792   */\n      0x00\n        /* \"#utility.yul\":1835:1837   */\n      0x20\n        /* \"#utility.yul\":1823:1832   */\n      dup3\n        /* \"#utility.yul\":1814:1821   */\n      dup5\n        /* \"#utility.yul\":1810:1833   */\n      sub\n        /* \"#utility.yul\":1806:1838   */\n      slt\n        /* \"#utility.yul\":1803:1922   */\n      iszero\n      tag_250\n      jumpi\n        /* \"#utility.yul\":1841:1920   */\n      tag_251\n      tag_252\n      jump\t// in\n    tag_251:\n        /* \"#utility.yul\":1803:1922   */\n    tag_250:\n        /* \"#utility.yul\":1961:1962   */\n      0x00\n        /* \"#utility.yul\":1986:2039   */\n      tag_253\n        /* \"#utility.yul\":2031:2038   */\n      dup5\n        /* \"#utility.yul\":2022:2028   */\n      dup3\n        /* \"#utility.yul\":2011:2020   */\n      dup6\n        /* \"#utility.yul\":2007:2029   */\n      add\n        /* \"#utility.yul\":1986:2039   */\n      tag_229\n      jump\t// in\n    tag_253:\n        /* \"#utility.yul\":1976:2039   */\n      swap2\n      pop\n        /* \"#utility.yul\":1932:2049   */\n      pop\n        /* \"#utility.yul\":1727:2056   */\n      swap3\n      swap2\n      pop\n      pop\n      jump\t// out\n        /* \"#utility.yul\":2062:2407   */\n    tag_124:\n        /* \"#utility.yul\":2129:2135   */\n      0x00\n        /* \"#utility.yul\":2178:2180   */\n      0x20\n        /* \"#utility.yul\":2166:2175   */\n      dup3\n        /* \"#utility.yul\":2157:2164   */\n      dup5\n        /* \"#utility.yul\":2153:2176   */\n      sub\n        /* \"#utility.yul\":2149:2181   */\n      slt\n        /* \"#utility.yul\":2146:2265   */\n      iszero\n      tag_255\n      jumpi\n        /* \"#utility.yul\":2184:2263   */\n      tag_256\n      tag_252\n      jump\t// in\n    tag_256:\n        /* \"#utility.yul\":2146:2265   */\n    tag_255:\n        /* \"#utility.yul\":2304:2305   */\n      0x00\n        /* \"#utility.yul\":2329:2390   */\n      tag_257\n        /* \"#utility.yul\":2382:2389   */\n      dup5\n        /* \"#utility.yul\":2373:2379   */\n      dup3\n        /* \"#utility.yul\":2362:2371   */\n      dup6\n        /* \"#utility.yul\":2358:2380   */\n      add\n        /* \"#utility.yul\":2329:2390   */\n      tag_239\n      jump\t// in\n    tag_257:\n        /* \"#utility.yul\":2319:2390   */\n      swap2\n      pop\n        /* \"#utility.yul\":2275:2400   */\n      pop\n        /* \"#utility.yul\":2062:2407   */\n      swap3\n      swap2\n      pop\n      pop\n      jump\t// out\n        /* \"#utility.yul\":2413:2742   */\n    tag_32:\n        /* \"#utility.yul\":2472:2478   */\n      0x00\n        /* \"#utility.yul\":2521:2523   */\n      0x20\n        /* \"#utility.yul\":2509:2518   */\n      dup3\n        /* \"#utility.yul\":2500:2507   */\n      dup5\n        /* \"#utility.yul\":2496:2519   */\n      sub\n        /* \"#utility.yul\":2492:2524   */\n      slt\n        /* \"#utility.yul\":2489:2608   */\n      iszero\n      tag_259\n      jumpi\n        /* \"#utility.yul\":2527:2606   */\n      tag_260\n      tag_252\n      jump\t// in\n    tag_260:\n        /* \"#utility.yul\":2489:2608   */\n    tag_259:\n        /* \"#utility.yul\":2647:2648   */\n      0x00\n        /* \"#utility.yul\":2672:2725   */\n      tag_261\n        /* \"#utility.yul\":2717:2724   */\n      dup5\n        /* \"#utility.yul\":2708:2714   */\n      dup3\n        /* \"#utility.yul\":2697:2706   */\n      dup6\n        /* \"#utility.yul\":2693:2715   */\n      add\n        /* \"#utility.yul\":2672:2725   */\n      tag_228\n      jump\t// in\n    tag_261:\n        /* \"#utility.yul\":2662:2725   */\n      swap2\n      pop\n        /* \"#utility.yul\":2618:2735   */\n      pop\n        /* \"#utility.yul\":2413:2742   */\n      swap3\n      swap2\n      pop\n      pop\n      jump\t// out\n        /* \"#utility.yul\":2748:3099   */\n    tag_117:\n        /* \"#utility.yul\":2818:2824   */\n      0x00\n        /* \"#utility.yul\":2867:2869   */\n      0x20\n        /* \"#utility.yul\":2855:2864   */\n      dup3\n        /* \"#utility.yul\":2846:2853   */\n      dup5\n        /* \"#utility.yul\":2842:2865   */\n      sub\n        /* \"#utility.yul\":2838:2870   */\n      slt\n        /* \"#utility.yul\":2835:2954   */\n      iszero\n      tag_263\n      jumpi\n        /* \"#utility.yul\":2873:2952   */\n      tag_264\n      tag_252\n      jump\t// in\n    tag_264:\n        /* \"#utility.yul\":2835:2954   */\n    tag_263:\n        /* \"#utility.yul\":2993:2994   */\n      0x00\n        /* \"#utility.yul\":3018:3082   */\n      tag_265\n        /* \"#utility.yul\":3074:3081   */\n      dup5\n        /* \"#utility.yul\":3065:3071   */\n      dup3\n        /* \"#utility.yul\":3054:3063   */\n      dup6\n        /* \"#utility.yul\":3050:3072   */\n      add\n        /* \"#utility.yul\":3018:3082   */\n      tag_246\n      jump\t// in\n    tag_265:\n        /* \"#utility.yul\":3008:3082   */\n      swap2\n      pop\n        /* \"#utility.yul\":2964:3092   */\n      pop\n        /* \"#utility.yul\":2748:3099   */\n      swap3\n      swap2\n      pop\n      pop\n      jump\t// out\n        /* \"#utility.yul\":3105:3789   */\n    tag_22:\n        /* \"#utility.yul\":3198:3204   */\n      0x00\n        /* \"#utility.yul\":3206:3212   */\n      dup1\n        /* \"#utility.yul\":3255:3257   */\n      0x40\n        /* \"#utility.yul\":3243:3252   */\n      dup4\n        /* \"#utility.yul\":3234:3241   */\n      dup6\n        /* \"#utility.yul\":3230:3253   */\n      sub\n        /* \"#utility.yul\":3226:3258   */\n      slt\n        /* \"#utility.yul\":3223:3342   */\n      iszero\n      tag_267\n      jumpi\n        /* \"#utility.yul\":3261:3340   */\n      tag_268\n      tag_252\n      jump\t// in\n    tag_268:\n        /* \"#utility.yul\":3223:3342   */\n    tag_267:\n        /* \"#utility.yul\":3381:3382   */\n      0x00\n        /* \"#utility.yul\":3406:3459   */\n      tag_269\n        /* \"#utility.yul\":3451:3458   */\n      dup6\n        /* \"#utility.yul\":3442:3448   */\n      dup3\n        /* \"#utility.yul\":3431:3440   */\n      dup7\n        /* \"#utility.yul\":3427:3449   */\n      add\n        /* \"#utility.yul\":3406:3459   */\n      tag_228\n      jump\t// in\n    tag_269:\n        /* \"#utility.yul\":3396:3459   */\n      swap3\n      pop\n        /* \"#utility.yul\":3352:3469   */\n      pop\n        /* \"#utility.yul\":3536:3538   */\n      0x20\n        /* \"#utility.yul\":3525:3534   */\n      dup4\n        /* \"#utility.yul\":3521:3539   */\n      add\n        /* \"#utility.yul\":3508:3540   */\n      calldataload\n        /* \"#utility.yul\":3567:3585   */\n      0xffffffffffffffff\n        /* \"#utility.yul\":3559:3565   */\n      dup2\n        /* \"#utility.yul\":3556:3586   */\n      gt\n        /* \"#utility.yul\":3553:3670   */\n      iszero\n      tag_270\n      jumpi\n        /* \"#utility.yul\":3589:3668   */\n      tag_271\n      tag_272\n      jump\t// in\n    tag_271:\n        /* \"#utility.yul\":3553:3670   */\n    tag_270:\n        /* \"#utility.yul\":3694:3772   */\n      tag_273\n        /* \"#utility.yul\":3764:3771   */\n      dup6\n        /* \"#utility.yul\":3755:3761   */\n      dup3\n        /* \"#utility.yul\":3744:3753   */\n      dup7\n        /* \"#utility.yul\":3740:3762   */\n      add\n        /* \"#utility.yul\":3694:3772   */\n      tag_233\n      jump\t// in\n    tag_273:\n        /* \"#utility.yul\":3684:3772   */\n      swap2\n      pop\n        /* \"#utility.yul\":3479:3782   */\n      pop\n        /* \"#utility.yul\":3105:3789   */\n      swap3\n      pop\n      swap3\n      swap1\n      pop\n      jump\t// out\n        /* \"#utility.yul\":3795:3974   */\n    tag_274:\n        /* \"#utility.yul\":3864:3874   */\n      0x00\n        /* \"#utility.yul\":3885:3931   */\n      tag_276\n        /* \"#utility.yul\":3927:3930   */\n      dup4\n        /* \"#utility.yul\":3919:3925   */\n      dup4\n        /* \"#utility.yul\":3885:3931   */\n      tag_277\n      jump\t// in\n    tag_276:\n        /* \"#utility.yul\":3963:3967   */\n      0x20\n        /* \"#utility.yul\":3958:3961   */\n      dup4\n        /* \"#utility.yul\":3954:3968   */\n      add\n        /* \"#utility.yul\":3940:3968   */\n      swap1\n      pop\n        /* \"#utility.yul\":3795:3974   */\n      swap3\n      swap2\n      pop\n      pop\n      jump\t// out\n        /* \"#utility.yul\":3980:4122   */\n    tag_278:\n        /* \"#utility.yul\":4083:4115   */\n      tag_280\n        /* \"#utility.yul\":4109:4114   */\n      dup2\n        /* \"#utility.yul\":4083:4115   */\n      tag_281\n      jump\t// in\n    tag_280:\n        /* \"#utility.yul\":4078:4081   */\n      dup3\n        /* \"#utility.yul\":4071:4116   */\n      mstore\n        /* \"#utility.yul\":3980:4122   */\n      pop\n      pop\n      jump\t// out\n        /* \"#utility.yul\":4128:4246   */\n    tag_282:\n        /* \"#utility.yul\":4215:4239   */\n      tag_284\n        /* \"#utility.yul\":4233:4238   */\n      dup2\n        /* \"#utility.yul\":4215:4239   */\n      tag_285\n      jump\t// in\n    tag_284:\n        /* \"#utility.yul\":4210:4213   */\n      dup3\n        /* \"#utility.yul\":4203:4240   */\n      mstore\n        /* \"#utility.yul\":4128:4246   */\n      pop\n      pop\n      jump\t// out\n        /* \"#utility.yul\":4282:5014   */\n    tag_286:\n        /* \"#utility.yul\":4401:4404   */\n      0x00\n        /* \"#utility.yul\":4430:4484   */\n      tag_288\n        /* \"#utility.yul\":4478:4483   */\n      dup3\n        /* \"#utility.yul\":4430:4484   */\n      tag_289\n      jump\t// in\n    tag_288:\n        /* \"#utility.yul\":4500:4586   */\n      tag_290\n        /* \"#utility.yul\":4579:4585   */\n      dup2\n        /* \"#utility.yul\":4574:4577   */\n      dup6\n        /* \"#utility.yul\":4500:4586   */\n      tag_291\n      jump\t// in\n    tag_290:\n        /* \"#utility.yul\":4493:4586   */\n      swap4\n      pop\n        /* \"#utility.yul\":4610:4666   */\n      tag_292\n        /* \"#utility.yul\":4660:4665   */\n      dup4\n        /* \"#utility.yul\":4610:4666   */\n      tag_293\n      jump\t// in\n    tag_292:\n        /* \"#utility.yul\":4689:4696   */\n      dup1\n        /* \"#utility.yul\":4720:4721   */\n      0x00\n        /* \"#utility.yul\":4705:4989   */\n    tag_294:\n        /* \"#utility.yul\":4730:4736   */\n      dup4\n        /* \"#utility.yul\":4727:4728   */\n      dup2\n        /* \"#utility.yul\":4724:4737   */\n      lt\n        /* \"#utility.yul\":4705:4989   */\n      iszero\n      tag_296\n      jumpi\n        /* \"#utility.yul\":4806:4812   */\n      dup2\n        /* \"#utility.yul\":4800:4813   */\n      mload\n        /* \"#utility.yul\":4833:4896   */\n      tag_297\n        /* \"#utility.yul\":4892:4895   */\n      dup9\n        /* \"#utility.yul\":4877:4890   */\n      dup3\n        /* \"#utility.yul\":4833:4896   */\n      tag_274\n      jump\t// in\n    tag_297:\n        /* \"#utility.yul\":4826:4896   */\n      swap8\n      pop\n        /* \"#utility.yul\":4919:4979   */\n      tag_298\n        /* \"#utility.yul\":4972:4978   */\n      dup4\n        /* \"#utility.yul\":4919:4979   */\n      tag_299\n      jump\t// in\n    tag_298:\n        /* \"#utility.yul\":4909:4979   */\n      swap3\n      pop\n        /* \"#utility.yul\":4765:4989   */\n      pop\n        /* \"#utility.yul\":4752:4753   */\n      0x01\n        /* \"#utility.yul\":4749:4750   */\n      dup2\n        /* \"#utility.yul\":4745:4754   */\n      add\n        /* \"#utility.yul\":4740:4754   */\n      swap1\n      pop\n        /* \"#utility.yul\":4705:4989   */\n      jump(tag_294)\n    tag_296:\n        /* \"#utility.yul\":4709:4723   */\n      pop\n        /* \"#utility.yul\":5005:5008   */\n      dup6\n        /* \"#utility.yul\":4998:5008   */\n      swap4\n      pop\n        /* \"#utility.yul\":4406:5014   */\n      pop\n      pop\n      pop\n        /* \"#utility.yul\":4282:5014   */\n      swap3\n      swap2\n      pop\n      pop\n      jump\t// out\n        /* \"#utility.yul\":5020:5129   */\n    tag_300:\n        /* \"#utility.yul\":5101:5122   */\n      tag_302\n        /* \"#utility.yul\":5116:5121   */\n      dup2\n        /* \"#utility.yul\":5101:5122   */\n      tag_303\n      jump\t// in\n    tag_302:\n        /* \"#utility.yul\":5096:5099   */\n      dup3\n        /* \"#utility.yul\":5089:5123   */\n      mstore\n        /* \"#utility.yul\":5020:5129   */\n      pop\n      pop\n      jump\t// out\n        /* \"#utility.yul\":5135:5495   */\n    tag_304:\n        /* \"#utility.yul\":5221:5224   */\n      0x00\n        /* \"#utility.yul\":5249:5287   */\n      tag_306\n        /* \"#utility.yul\":5281:5286   */\n      dup3\n        /* \"#utility.yul\":5249:5287   */\n      tag_307\n      jump\t// in\n    tag_306:\n        /* \"#utility.yul\":5303:5373   */\n      tag_308\n        /* \"#utility.yul\":5366:5372   */\n      dup2\n        /* \"#utility.yul\":5361:5364   */\n      dup6\n        /* \"#utility.yul\":5303:5373   */\n      tag_309\n      jump\t// in\n    tag_308:\n        /* \"#utility.yul\":5296:5373   */\n      swap4\n      pop\n        /* \"#utility.yul\":5382:5434   */\n      tag_310\n        /* \"#utility.yul\":5427:5433   */\n      dup2\n        /* \"#utility.yul\":5422:5425   */\n      dup6\n        /* \"#utility.yul\":5415:5419   */\n      0x20\n        /* \"#utility.yul\":5408:5413   */\n      dup7\n        /* \"#utility.yul\":5404:5420   */\n      add\n        /* \"#utility.yul\":5382:5434   */\n      tag_311\n      jump\t// in\n    tag_310:\n        /* \"#utility.yul\":5459:5488   */\n      tag_312\n        /* \"#utility.yul\":5481:5487   */\n      dup2\n        /* \"#utility.yul\":5459:5488   */\n      tag_313\n      jump\t// in\n    tag_312:\n        /* \"#utility.yul\":5454:5457   */\n      dup5\n        /* \"#utility.yul\":5450:5489   */\n      add\n        /* \"#utility.yul\":5443:5489   */\n      swap2\n      pop\n        /* \"#utility.yul\":5225:5495   */\n      pop\n        /* \"#utility.yul\":5135:5495   */\n      swap3\n      swap2\n      pop\n      pop\n      jump\t// out\n        /* \"#utility.yul\":5501:5867   */\n    tag_314:\n        /* \"#utility.yul\":5643:5646   */\n      0x00\n        /* \"#utility.yul\":5664:5731   */\n      tag_316\n        /* \"#utility.yul\":5728:5730   */\n      0x11\n        /* \"#utility.yul\":5723:5726   */\n      dup4\n        /* \"#utility.yul\":5664:5731   */\n      tag_317\n      jump\t// in\n    tag_316:\n        /* \"#utility.yul\":5657:5731   */\n      swap2\n      pop\n        /* \"#utility.yul\":5740:5833   */\n      tag_318\n        /* \"#utility.yul\":5829:5832   */\n      dup3\n        /* \"#utility.yul\":5740:5833   */\n      tag_319\n      jump\t// in\n    tag_318:\n        /* \"#utility.yul\":5858:5860   */\n      0x20\n        /* \"#utility.yul\":5853:5856   */\n      dup3\n        /* \"#utility.yul\":5849:5861   */\n      add\n        /* \"#utility.yul\":5842:5861   */\n      swap1\n      pop\n        /* \"#utility.yul\":5501:5867   */\n      swap2\n      swap1\n      pop\n      jump\t// out\n        /* \"#utility.yul\":5873:6239   */\n    tag_320:\n        /* \"#utility.yul\":6015:6018   */\n      0x00\n        /* \"#utility.yul\":6036:6103   */\n      tag_322\n        /* \"#utility.yul\":6100:6102   */\n      0x16\n        /* \"#utility.yul\":6095:6098   */\n      dup4\n        /* \"#utility.yul\":6036:6103   */\n      tag_317\n      jump\t// in\n    tag_322:\n        /* \"#utility.yul\":6029:6103   */\n      swap2\n      pop\n        /* \"#utility.yul\":6112:6205   */\n      tag_323\n        /* \"#utility.yul\":6201:6204   */\n      dup3\n        /* \"#utility.yul\":6112:6205   */\n      tag_324\n      jump\t// in\n    tag_323:\n        /* \"#utility.yul\":6230:6232   */\n      0x20\n        /* \"#utility.yul\":6225:6228   */\n      dup3\n        /* \"#utility.yul\":6221:6233   */\n      add\n        /* \"#utility.yul\":6214:6233   */\n      swap1\n      pop\n        /* \"#utility.yul\":5873:6239   */\n      swap2\n      swap1\n      pop\n      jump\t// out\n        /* \"#utility.yul\":6245:6611   */\n    tag_325:\n        /* \"#utility.yul\":6387:6390   */\n      0x00\n        /* \"#utility.yul\":6408:6475   */\n      tag_327\n        /* \"#utility.yul\":6472:6474   */\n      0x16\n        /* \"#utility.yul\":6467:6470   */\n      dup4\n        /* \"#utility.yul\":6408:6475   */\n      tag_317\n      jump\t// in\n    tag_327:\n        /* \"#utility.yul\":6401:6475   */\n      swap2\n      pop\n        /* \"#utility.yul\":6484:6577   */\n      tag_328\n        /* \"#utility.yul\":6573:6576   */\n      dup3\n        /* \"#utility.yul\":6484:6577   */\n      tag_329\n      jump\t// in\n    tag_328:\n        /* \"#utility.yul\":6602:6604   */\n      0x20\n        /* \"#utility.yul\":6597:6600   */\n      dup3\n        /* \"#utility.yul\":6593:6605   */\n      add\n        /* \"#utility.yul\":6586:6605   */\n      swap1\n      pop\n        /* \"#utility.yul\":6245:6611   */\n      swap2\n      swap1\n      pop\n      jump\t// out\n        /* \"#utility.yul\":6617:6983   */\n    tag_330:\n        /* \"#utility.yul\":6759:6762   */\n      0x00\n        /* \"#utility.yul\":6780:6847   */\n      tag_332\n        /* \"#utility.yul\":6844:6846   */\n      0x1d\n        /* \"#utility.yul\":6839:6842   */\n      dup4\n        /* \"#utility.yul\":6780:6847   */\n      tag_317\n      jump\t// in\n    tag_332:\n        /* \"#utility.yul\":6773:6847   */\n      swap2\n      pop\n        /* \"#utility.yul\":6856:6949   */\n      tag_333\n        /* \"#utility.yul\":6945:6948   */\n      dup3\n        /* \"#utility.yul\":6856:6949   */\n      tag_334\n      jump\t// in\n    tag_333:\n        /* \"#utility.yul\":6974:6976   */\n      0x20\n        /* \"#utility.yul\":6969:6972   */\n      dup3\n        /* \"#utility.yul\":6965:6977   */\n      add\n        /* \"#utility.yul\":6958:6977   */\n      swap1\n      pop\n        /* \"#utility.yul\":6617:6983   */\n      swap2\n      swap1\n      pop\n      jump\t// out\n        /* \"#utility.yul\":6989:7355   */\n    tag_335:\n        /* \"#utility.yul\":7131:7134   */\n      0x00\n        /* \"#utility.yul\":7152:7219   */\n      tag_337\n        /* \"#utility.yul\":7216:7218   */\n      0x1c\n        /* \"#utility.yul\":7211:7214   */\n      dup4\n        /* \"#utility.yul\":7152:7219   */\n      tag_317\n      jump\t// in\n    tag_337:\n        /* \"#utility.yul\":7145:7219   */\n      swap2\n      pop\n        /* \"#utility.yul\":7228:7321   */\n      tag_338\n        /* \"#utility.yul\":7317:7320   */\n      dup3\n        /* \"#utility.yul\":7228:7321   */\n      tag_339\n      jump\t// in\n    tag_338:\n        /* \"#utility.yul\":7346:7348   */\n      0x20\n        /* \"#utility.yul\":7341:7344   */\n      dup3\n        /* \"#utility.yul\":7337:7349   */\n      add\n        /* \"#utility.yul\":7330:7349   */\n      swap1\n      pop\n        /* \"#utility.yul\":6989:7355   */\n      swap2\n      swap1\n      pop\n      jump\t// out\n        /* \"#utility.yul\":7361:7727   */\n    tag_340:\n        /* \"#utility.yul\":7503:7506   */\n      0x00\n        /* \"#utility.yul\":7524:7591   */\n      tag_342\n        /* \"#utility.yul\":7588:7590   */\n      0x25\n        /* \"#utility.yul\":7583:7586   */\n      dup4\n        /* \"#utility.yul\":7524:7591   */\n      tag_317\n      jump\t// in\n    tag_342:\n        /* \"#utility.yul\":7517:7591   */\n      swap2\n      pop\n        /* \"#utility.yul\":7600:7693   */\n      tag_343\n        /* \"#utility.yul\":7689:7692   */\n      dup3\n        /* \"#utility.yul\":7600:7693   */\n      tag_344\n      jump\t// in\n    tag_343:\n        /* \"#utility.yul\":7718:7720   */\n      0x40\n        /* \"#utility.yul\":7713:7716   */\n      dup3\n        /* \"#utility.yul\":7709:7721   */\n      add\n        /* \"#utility.yul\":7702:7721   */\n      swap1\n      pop\n        /* \"#utility.yul\":7361:7727   */\n      swap2\n      swap1\n      pop\n      jump\t// out\n        /* \"#utility.yul\":7733:8099   */\n    tag_345:\n        /* \"#utility.yul\":7875:7878   */\n      0x00\n        /* \"#utility.yul\":7896:7963   */\n      tag_347\n        /* \"#utility.yul\":7960:7962   */\n      0x12\n        /* \"#utility.yul\":7955:7958   */\n      dup4\n        /* \"#utility.yul\":7896:7963   */\n      tag_317\n      jump\t// in\n    tag_347:\n        /* \"#utility.yul\":7889:7963   */\n      swap2\n      pop\n        /* \"#utility.yul\":7972:8065   */\n      tag_348\n        /* \"#utility.yul\":8061:8064   */\n      dup3\n        /* \"#utility.yul\":7972:8065   */\n      tag_349\n      jump\t// in\n    tag_348:\n        /* \"#utility.yul\":8090:8092   */\n      0x20\n        /* \"#utility.yul\":8085:8088   */\n      dup3\n        /* \"#utility.yul\":8081:8093   */\n      add\n        /* \"#utility.yul\":8074:8093   */\n      swap1\n      pop\n        /* \"#utility.yul\":7733:8099   */\n      swap2\n      swap1\n      pop\n      jump\t// out\n        /* \"#utility.yul\":8105:8503   */\n    tag_350:\n        /* \"#utility.yul\":8264:8267   */\n      0x00\n        /* \"#utility.yul\":8285:8368   */\n      tag_352\n        /* \"#utility.yul\":8366:8367   */\n      0x00\n        /* \"#utility.yul\":8361:8364   */\n      dup4\n        /* \"#utility.yul\":8285:8368   */\n      tag_353\n      jump\t// in\n    tag_352:\n        /* \"#utility.yul\":8278:8368   */\n      swap2\n      pop\n        /* \"#utility.yul\":8377:8470   */\n      tag_354\n        /* \"#utility.yul\":8466:8469   */\n      dup3\n        /* \"#utility.yul\":8377:8470   */\n      tag_355\n      jump\t// in\n    tag_354:\n        /* \"#utility.yul\":8495:8496   */\n      0x00\n        /* \"#utility.yul\":8490:8493   */\n      dup3\n        /* \"#utility.yul\":8486:8497   */\n      add\n        /* \"#utility.yul\":8479:8497   */\n      swap1\n      pop\n        /* \"#utility.yul\":8105:8503   */\n      swap2\n      swap1\n      pop\n      jump\t// out\n        /* \"#utility.yul\":8509:8875   */\n    tag_356:\n        /* \"#utility.yul\":8651:8654   */\n      0x00\n        /* \"#utility.yul\":8672:8739   */\n      tag_358\n        /* \"#utility.yul\":8736:8738   */\n      0x17\n        /* \"#utility.yul\":8731:8734   */\n      dup4\n        /* \"#utility.yul\":8672:8739   */\n      tag_317\n      jump\t// in\n    tag_358:\n        /* \"#utility.yul\":8665:8739   */\n      swap2\n      pop\n        /* \"#utility.yul\":8748:8841   */\n      tag_359\n        /* \"#utility.yul\":8837:8840   */\n      dup3\n        /* \"#utility.yul\":8748:8841   */\n      tag_360\n      jump\t// in\n    tag_359:\n        /* \"#utility.yul\":8866:8868   */\n      0x20\n        /* \"#utility.yul\":8861:8864   */\n      dup3\n        /* \"#utility.yul\":8857:8869   */\n      add\n        /* \"#utility.yul\":8850:8869   */\n      swap1\n      pop\n        /* \"#utility.yul\":8509:8875   */\n      swap2\n      swap1\n      pop\n      jump\t// out\n        /* \"#utility.yul\":8881:9247   */\n    tag_361:\n        /* \"#utility.yul\":9023:9026   */\n      0x00\n        /* \"#utility.yul\":9044:9111   */\n      tag_363\n        /* \"#utility.yul\":9108:9110   */\n      0x1f\n        /* \"#utility.yul\":9103:9106   */\n      dup4\n        /* \"#utility.yul\":9044:9111   */\n      tag_317\n      jump\t// in\n    tag_363:\n        /* \"#utility.yul\":9037:9111   */\n      swap2\n      pop\n        /* \"#utility.yul\":9120:9213   */\n      tag_364\n        /* \"#utility.yul\":9209:9212   */\n      dup3\n        /* \"#utility.yul\":9120:9213   */\n      tag_365\n      jump\t// in\n    tag_364:\n        /* \"#utility.yul\":9238:9240   */\n      0x20\n        /* \"#utility.yul\":9233:9236   */\n      dup3\n        /* \"#utility.yul\":9229:9241   */\n      add\n        /* \"#utility.yul\":9222:9241   */\n      swap1\n      pop\n        /* \"#utility.yul\":8881:9247   */\n      swap2\n      swap1\n      pop\n      jump\t// out\n        /* \"#utility.yul\":9253:9368   */\n    tag_366:\n        /* \"#utility.yul\":9338:9361   */\n      tag_368\n        /* \"#utility.yul\":9355:9360   */\n      dup2\n        /* \"#utility.yul\":9338:9361   */\n      tag_369\n      jump\t// in\n    tag_368:\n        /* \"#utility.yul\":9333:9336   */\n      dup3\n        /* \"#utility.yul\":9326:9362   */\n      mstore\n        /* \"#utility.yul\":9253:9368   */\n      pop\n      pop\n      jump\t// out\n        /* \"#utility.yul\":9374:9482   */\n    tag_277:\n        /* \"#utility.yul\":9451:9475   */\n      tag_371\n        /* \"#utility.yul\":9469:9474   */\n      dup2\n        /* \"#utility.yul\":9451:9475   */\n      tag_372\n      jump\t// in\n    tag_371:\n        /* \"#utility.yul\":9446:9449   */\n      dup3\n        /* \"#utility.yul\":9439:9476   */\n      mstore\n        /* \"#utility.yul\":9374:9482   */\n      pop\n      pop\n      jump\t// out\n        /* \"#utility.yul\":9488:9606   */\n    tag_373:\n        /* \"#utility.yul\":9575:9599   */\n      tag_375\n        /* \"#utility.yul\":9593:9598   */\n      dup2\n        /* \"#utility.yul\":9575:9599   */\n      tag_372\n      jump\t// in\n    tag_375:\n        /* \"#utility.yul\":9570:9573   */\n      dup3\n        /* \"#utility.yul\":9563:9600   */\n      mstore\n        /* \"#utility.yul\":9488:9606   */\n      pop\n      pop\n      jump\t// out\n        /* \"#utility.yul\":9612:9727   */\n    tag_376:\n        /* \"#utility.yul\":9697:9720   */\n      tag_378\n        /* \"#utility.yul\":9714:9719   */\n      dup2\n        /* \"#utility.yul\":9697:9720   */\n      tag_379\n      jump\t// in\n    tag_378:\n        /* \"#utility.yul\":9692:9695   */\n      dup3\n        /* \"#utility.yul\":9685:9721   */\n      mstore\n        /* \"#utility.yul\":9612:9727   */\n      pop\n      pop\n      jump\t// out\n        /* \"#utility.yul\":9733:10112   */\n    tag_155:\n        /* \"#utility.yul\":9917:9920   */\n      0x00\n        /* \"#utility.yul\":9939:10086   */\n      tag_381\n        /* \"#utility.yul\":10082:10085   */\n      dup3\n        /* \"#utility.yul\":9939:10086   */\n      tag_350\n      jump\t// in\n    tag_381:\n        /* \"#utility.yul\":9932:10086   */\n      swap2\n      pop\n        /* \"#utility.yul\":10103:10106   */\n      dup2\n        /* \"#utility.yul\":10096:10106   */\n      swap1\n      pop\n        /* \"#utility.yul\":9733:10112   */\n      swap2\n      swap1\n      pop\n      jump\t// out\n        /* \"#utility.yul\":10118:10340   */\n    tag_51:\n        /* \"#utility.yul\":10211:10215   */\n      0x00\n        /* \"#utility.yul\":10249:10251   */\n      0x20\n        /* \"#utility.yul\":10238:10247   */\n      dup3\n        /* \"#utility.yul\":10234:10252   */\n      add\n        /* \"#utility.yul\":10226:10252   */\n      swap1\n      pop\n        /* \"#utility.yul\":10262:10333   */\n      tag_383\n        /* \"#utility.yul\":10330:10331   */\n      0x00\n        /* \"#utility.yul\":10319:10328   */\n      dup4\n        /* \"#utility.yul\":10315:10332   */\n      add\n        /* \"#utility.yul\":10306:10312   */\n      dup5\n        /* \"#utility.yul\":10262:10333   */\n      tag_282\n      jump\t// in\n    tag_383:\n        /* \"#utility.yul\":10118:10340   */\n      swap3\n      swap2\n      pop\n      pop\n      jump\t// out\n        /* \"#utility.yul\":10346:10820   */\n    tag_35:\n        /* \"#utility.yul\":10511:10515   */\n      0x00\n        /* \"#utility.yul\":10549:10551   */\n      0x60\n        /* \"#utility.yul\":10538:10547   */\n      dup3\n        /* \"#utility.yul\":10534:10552   */\n      add\n        /* \"#utility.yul\":10526:10552   */\n      swap1\n      pop\n        /* \"#utility.yul\":10562:10649   */\n      tag_385\n        /* \"#utility.yul\":10646:10647   */\n      0x00\n        /* \"#utility.yul\":10635:10644   */\n      dup4\n        /* \"#utility.yul\":10631:10648   */\n      add\n        /* \"#utility.yul\":10622:10628   */\n      dup7\n        /* \"#utility.yul\":10562:10649   */\n      tag_278\n      jump\t// in\n    tag_385:\n        /* \"#utility.yul\":10659:10731   */\n      tag_386\n        /* \"#utility.yul\":10727:10729   */\n      0x20\n        /* \"#utility.yul\":10716:10725   */\n      dup4\n        /* \"#utility.yul\":10712:10730   */\n      add\n        /* \"#utility.yul\":10703:10709   */\n      dup6\n        /* \"#utility.yul\":10659:10731   */\n      tag_373\n      jump\t// in\n    tag_386:\n        /* \"#utility.yul\":10741:10813   */\n      tag_387\n        /* \"#utility.yul\":10809:10811   */\n      0x40\n        /* \"#utility.yul\":10798:10807   */\n      dup4\n        /* \"#utility.yul\":10794:10812   */\n      add\n        /* \"#utility.yul\":10785:10791   */\n      dup5\n        /* \"#utility.yul\":10741:10813   */\n      tag_373\n      jump\t// in\n    tag_387:\n        /* \"#utility.yul\":10346:10820   */\n      swap5\n      swap4\n      pop\n      pop\n      pop\n      pop\n      jump\t// out\n        /* \"#utility.yul\":10826:11158   */\n    tag_119:\n        /* \"#utility.yul\":10947:10951   */\n      0x00\n        /* \"#utility.yul\":10985:10987   */\n      0x40\n        /* \"#utility.yul\":10974:10983   */\n      dup3\n        /* \"#utility.yul\":10970:10988   */\n      add\n        /* \"#utility.yul\":10962:10988   */\n      swap1\n      pop\n        /* \"#utility.yul\":10998:11069   */\n      tag_389\n        /* \"#utility.yul\":11066:11067   */\n      0x00\n        /* \"#utility.yul\":11055:11064   */\n      dup4\n        /* \"#utility.yul\":11051:11068   */\n      add\n        /* \"#utility.yul\":11042:11048   */\n      dup6\n        /* \"#utility.yul\":10998:11069   */\n      tag_282\n      jump\t// in\n    tag_389:\n        /* \"#utility.yul\":11079:11151   */\n      tag_390\n        /* \"#utility.yul\":11147:11149   */\n      0x20\n        /* \"#utility.yul\":11136:11145   */\n      dup4\n        /* \"#utility.yul\":11132:11150   */\n      add\n        /* \"#utility.yul\":11123:11129   */\n      dup5\n        /* \"#utility.yul\":11079:11151   */\n      tag_373\n      jump\t// in\n    tag_390:\n        /* \"#utility.yul\":10826:11158   */\n      swap4\n      swap3\n      pop\n      pop\n      pop\n      jump\t// out\n        /* \"#utility.yul\":11164:11693   */\n    tag_198:\n        /* \"#utility.yul\":11331:11335   */\n      0x00\n        /* \"#utility.yul\":11369:11371   */\n      0x60\n        /* \"#utility.yul\":11358:11367   */\n      dup3\n        /* \"#utility.yul\":11354:11372   */\n      add\n        /* \"#utility.yul\":11346:11372   */\n      swap1\n      pop\n        /* \"#utility.yul\":11382:11453   */\n      tag_392\n        /* \"#utility.yul\":11450:11451   */\n      0x00\n        /* \"#utility.yul\":11439:11448   */\n      dup4\n        /* \"#utility.yul\":11435:11452   */\n      add\n        /* \"#utility.yul\":11426:11432   */\n      dup7\n        /* \"#utility.yul\":11382:11453   */\n      tag_282\n      jump\t// in\n    tag_392:\n        /* \"#utility.yul\":11463:11535   */\n      tag_393\n        /* \"#utility.yul\":11531:11533   */\n      0x20\n        /* \"#utility.yul\":11520:11529   */\n      dup4\n        /* \"#utility.yul\":11516:11534   */\n      add\n        /* \"#utility.yul\":11507:11513   */\n      dup6\n        /* \"#utility.yul\":11463:11535   */\n      tag_373\n      jump\t// in\n    tag_393:\n        /* \"#utility.yul\":11582:11591   */\n      dup2\n        /* \"#utility.yul\":11576:11580   */\n      dup2\n        /* \"#utility.yul\":11572:11592   */\n      sub\n        /* \"#utility.yul\":11567:11569   */\n      0x40\n        /* \"#utility.yul\":11556:11565   */\n      dup4\n        /* \"#utility.yul\":11552:11570   */\n      add\n        /* \"#utility.yul\":11545:11593   */\n      mstore\n        /* \"#utility.yul\":11610:11686   */\n      tag_394\n        /* \"#utility.yul\":11681:11685   */\n      dup2\n        /* \"#utility.yul\":11672:11678   */\n      dup5\n        /* \"#utility.yul\":11610:11686   */\n      tag_304\n      jump\t// in\n    tag_394:\n        /* \"#utility.yul\":11602:11686   */\n      swap1\n      pop\n        /* \"#utility.yul\":11164:11693   */\n      swap5\n      swap4\n      pop\n      pop\n      pop\n      pop\n      jump\t// out\n        /* \"#utility.yul\":11699:12118   */\n    tag_131:\n        /* \"#utility.yul\":11865:11869   */\n      0x00\n        /* \"#utility.yul\":11903:11905   */\n      0x20\n        /* \"#utility.yul\":11892:11901   */\n      dup3\n        /* \"#utility.yul\":11888:11906   */\n      add\n        /* \"#utility.yul\":11880:11906   */\n      swap1\n      pop\n        /* \"#utility.yul\":11952:11961   */\n      dup2\n        /* \"#utility.yul\":11946:11950   */\n      dup2\n        /* \"#utility.yul\":11942:11962   */\n      sub\n        /* \"#utility.yul\":11938:11939   */\n      0x00\n        /* \"#utility.yul\":11927:11936   */\n      dup4\n        /* \"#utility.yul\":11923:11940   */\n      add\n        /* \"#utility.yul\":11916:11963   */\n      mstore\n        /* \"#utility.yul\":11980:12111   */\n      tag_396\n        /* \"#utility.yul\":12106:12110   */\n      dup2\n        /* \"#utility.yul\":11980:12111   */\n      tag_314\n      jump\t// in\n    tag_396:\n        /* \"#utility.yul\":11972:12111   */\n      swap1\n      pop\n        /* \"#utility.yul\":11699:12118   */\n      swap2\n      swap1\n      pop\n      jump\t// out\n        /* \"#utility.yul\":12124:12543   */\n    tag_104:\n        /* \"#utility.yul\":12290:12294   */\n      0x00\n        /* \"#utility.yul\":12328:12330   */\n      0x20\n        /* \"#utility.yul\":12317:12326   */\n      dup3\n        /* \"#utility.yul\":12313:12331   */\n      add\n        /* \"#utility.yul\":12305:12331   */\n      swap1\n      pop\n        /* \"#utility.yul\":12377:12386   */\n      dup2\n        /* \"#utility.yul\":12371:12375   */\n      dup2\n        /* \"#utility.yul\":12367:12387   */\n      sub\n        /* \"#utility.yul\":12363:12364   */\n      0x00\n        /* \"#utility.yul\":12352:12361   */\n      dup4\n        /* \"#utility.yul\":12348:12365   */\n      add\n        /* \"#utility.yul\":12341:12388   */\n      mstore\n        /* \"#utility.yul\":12405:12536   */\n      tag_398\n        /* \"#utility.yul\":12531:12535   */\n      dup2\n        /* \"#utility.yul\":12405:12536   */\n      tag_320\n      jump\t// in\n    tag_398:\n        /* \"#utility.yul\":12397:12536   */\n      swap1\n      pop\n        /* \"#utility.yul\":12124:12543   */\n      swap2\n      swap1\n      pop\n      jump\t// out\n        /* \"#utility.yul\":12549:12968   */\n    tag_184:\n        /* \"#utility.yul\":12715:12719   */\n      0x00\n        /* \"#utility.yul\":12753:12755   */\n      0x20\n        /* \"#utility.yul\":12742:12751   */\n      dup3\n        /* \"#utility.yul\":12738:12756   */\n      add\n        /* \"#utility.yul\":12730:12756   */\n      swap1\n      pop\n        /* \"#utility.yul\":12802:12811   */\n      dup2\n        /* \"#utility.yul\":12796:12800   */\n      dup2\n        /* \"#utility.yul\":12792:12812   */\n      sub\n        /* \"#utility.yul\":12788:12789   */\n      0x00\n        /* \"#utility.yul\":12777:12786   */\n      dup4\n        /* \"#utility.yul\":12773:12790   */\n      add\n        /* \"#utility.yul\":12766:12813   */\n      mstore\n        /* \"#utility.yul\":12830:12961   */\n      tag_400\n        /* \"#utility.yul\":12956:12960   */\n      dup2\n        /* \"#utility.yul\":12830:12961   */\n      tag_325\n      jump\t// in\n    tag_400:\n        /* \"#utility.yul\":12822:12961   */\n      swap1\n      pop\n        /* \"#utility.yul\":12549:12968   */\n      swap2\n      swap1\n      pop\n      jump\t// out\n        /* \"#utility.yul\":12974:13393   */\n    tag_161:\n        /* \"#utility.yul\":13140:13144   */\n      0x00\n        /* \"#utility.yul\":13178:13180   */\n      0x20\n        /* \"#utility.yul\":13167:13176   */\n      dup3\n        /* \"#utility.yul\":13163:13181   */\n      add\n        /* \"#utility.yul\":13155:13181   */\n      swap1\n      pop\n        /* \"#utility.yul\":13227:13236   */\n      dup2\n        /* \"#utility.yul\":13221:13225   */\n      dup2\n        /* \"#utility.yul\":13217:13237   */\n      sub\n        /* \"#utility.yul\":13213:13214   */\n      0x00\n        /* \"#utility.yul\":13202:13211   */\n      dup4\n        /* \"#utility.yul\":13198:13215   */\n      add\n        /* \"#utility.yul\":13191:13238   */\n      mstore\n        /* \"#utility.yul\":13255:13386   */\n      tag_402\n        /* \"#utility.yul\":13381:13385   */\n      dup2\n        /* \"#utility.yul\":13255:13386   */\n      tag_330\n      jump\t// in\n    tag_402:\n        /* \"#utility.yul\":13247:13386   */\n      swap1\n      pop\n        /* \"#utility.yul\":12974:13393   */\n      swap2\n      swap1\n      pop\n      jump\t// out\n        /* \"#utility.yul\":13399:13818   */\n    tag_98:\n        /* \"#utility.yul\":13565:13569   */\n      0x00\n        /* \"#utility.yul\":13603:13605   */\n      0x20\n        /* \"#utility.yul\":13592:13601   */\n      dup3\n        /* \"#utility.yul\":13588:13606   */\n      add\n        /* \"#utility.yul\":13580:13606   */\n      swap1\n      pop\n        /* \"#utility.yul\":13652:13661   */\n      dup2\n        /* \"#utility.yul\":13646:13650   */\n      dup2\n        /* \"#utility.yul\":13642:13662   */\n      sub\n        /* \"#utility.yul\":13638:13639   */\n      0x00\n        /* \"#utility.yul\":13627:13636   */\n      dup4\n        /* \"#utility.yul\":13623:13640   */\n      add\n        /* \"#utility.yul\":13616:13663   */\n      mstore\n        /* \"#utility.yul\":13680:13811   */\n      tag_404\n        /* \"#utility.yul\":13806:13810   */\n      dup2\n        /* \"#utility.yul\":13680:13811   */\n      tag_335\n      jump\t// in\n    tag_404:\n        /* \"#utility.yul\":13672:13811   */\n      swap1\n      pop\n        /* \"#utility.yul\":13399:13818   */\n      swap2\n      swap1\n      pop\n      jump\t// out\n        /* \"#utility.yul\":13824:14243   */\n    tag_93:\n        /* \"#utility.yul\":13990:13994   */\n      0x00\n        /* \"#utility.yul\":14028:14030   */\n      0x20\n        /* \"#utility.yul\":14017:14026   */\n      dup3\n        /* \"#utility.yul\":14013:14031   */\n      add\n        /* \"#utility.yul\":14005:14031   */\n      swap1\n      pop\n        /* \"#utility.yul\":14077:14086   */\n      dup2\n        /* \"#utility.yul\":14071:14075   */\n      dup2\n        /* \"#utility.yul\":14067:14087   */\n      sub\n        /* \"#utility.yul\":14063:14064   */\n      0x00\n        /* \"#utility.yul\":14052:14061   */\n      dup4\n        /* \"#utility.yul\":14048:14065   */\n      add\n        /* \"#utility.yul\":14041:14088   */\n      mstore\n        /* \"#utility.yul\":14105:14236   */\n      tag_406\n        /* \"#utility.yul\":14231:14235   */\n      dup2\n        /* \"#utility.yul\":14105:14236   */\n      tag_340\n      jump\t// in\n    tag_406:\n        /* \"#utility.yul\":14097:14236   */\n      swap1\n      pop\n        /* \"#utility.yul\":13824:14243   */\n      swap2\n      swap1\n      pop\n      jump\t// out\n        /* \"#utility.yul\":14249:14668   */\n    tag_127:\n        /* \"#utility.yul\":14415:14419   */\n      0x00\n        /* \"#utility.yul\":14453:14455   */\n      0x20\n        /* \"#utility.yul\":14442:14451   */\n      dup3\n        /* \"#utility.yul\":14438:14456   */\n      add\n        /* \"#utility.yul\":14430:14456   */\n      swap1\n      pop\n        /* \"#utility.yul\":14502:14511   */\n      dup2\n        /* \"#utility.yul\":14496:14500   */\n      dup2\n        /* \"#utility.yul\":14492:14512   */\n      sub\n        /* \"#utility.yul\":14488:14489   */\n      0x00\n        /* \"#utility.yul\":14477:14486   */\n      dup4\n        /* \"#utility.yul\":14473:14490   */\n      add\n        /* \"#utility.yul\":14466:14513   */\n      mstore\n        /* \"#utility.yul\":14530:14661   */\n      tag_408\n        /* \"#utility.yul\":14656:14660   */\n      dup2\n        /* \"#utility.yul\":14530:14661   */\n      tag_345\n      jump\t// in\n    tag_408:\n        /* \"#utility.yul\":14522:14661   */\n      swap1\n      pop\n        /* \"#utility.yul\":14249:14668   */\n      swap2\n      swap1\n      pop\n      jump\t// out\n        /* \"#utility.yul\":14674:15093   */\n    tag_188:\n        /* \"#utility.yul\":14840:14844   */\n      0x00\n        /* \"#utility.yul\":14878:14880   */\n      0x20\n        /* \"#utility.yul\":14867:14876   */\n      dup3\n        /* \"#utility.yul\":14863:14881   */\n      add\n        /* \"#utility.yul\":14855:14881   */\n      swap1\n      pop\n        /* \"#utility.yul\":14927:14936   */\n      dup2\n        /* \"#utility.yul\":14921:14925   */\n      dup2\n        /* \"#utility.yul\":14917:14937   */\n      sub\n        /* \"#utility.yul\":14913:14914   */\n      0x00\n        /* \"#utility.yul\":14902:14911   */\n      dup4\n        /* \"#utility.yul\":14898:14915   */\n      add\n        /* \"#utility.yul\":14891:14938   */\n      mstore\n        /* \"#utility.yul\":14955:15086   */\n      tag_410\n        /* \"#utility.yul\":15081:15085   */\n      dup2\n        /* \"#utility.yul\":14955:15086   */\n      tag_356\n      jump\t// in\n    tag_410:\n        /* \"#utility.yul\":14947:15086   */\n      swap1\n      pop\n        /* \"#utility.yul\":14674:15093   */\n      swap2\n      swap1\n      pop\n      jump\t// out\n        /* \"#utility.yul\":15099:15518   */\n    tag_87:\n        /* \"#utility.yul\":15265:15269   */\n      0x00\n        /* \"#utility.yul\":15303:15305   */\n      0x20\n        /* \"#utility.yul\":15292:15301   */\n      dup3\n        /* \"#utility.yul\":15288:15306   */\n      add\n        /* \"#utility.yul\":15280:15306   */\n      swap1\n      pop\n        /* \"#utility.yul\":15352:15361   */\n      dup2\n        /* \"#utility.yul\":15346:15350   */\n      dup2\n        /* \"#utility.yul\":15342:15362   */\n      sub\n        /* \"#utility.yul\":15338:15339   */\n      0x00\n        /* \"#utility.yul\":15327:15336   */\n      dup4\n        /* \"#utility.yul\":15323:15340   */\n      add\n        /* \"#utility.yul\":15316:15363   */\n      mstore\n        /* \"#utility.yul\":15380:15511   */\n      tag_412\n        /* \"#utility.yul\":15506:15510   */\n      dup2\n        /* \"#utility.yul\":15380:15511   */\n      tag_361\n      jump\t// in\n    tag_412:\n        /* \"#utility.yul\":15372:15511   */\n      swap1\n      pop\n        /* \"#utility.yul\":15099:15518   */\n      swap2\n      swap1\n      pop\n      jump\t// out\n        /* \"#utility.yul\":15524:15746   */\n    tag_28:\n        /* \"#utility.yul\":15617:15621   */\n      0x00\n        /* \"#utility.yul\":15655:15657   */\n      0x20\n        /* \"#utility.yul\":15644:15653   */\n      dup3\n        /* \"#utility.yul\":15640:15658   */\n      add\n        /* \"#utility.yul\":15632:15658   */\n      swap1\n      pop\n        /* \"#utility.yul\":15668:15739   */\n      tag_414\n        /* \"#utility.yul\":15736:15737   */\n      0x00\n        /* \"#utility.yul\":15725:15734   */\n      dup4\n        /* \"#utility.yul\":15721:15738   */\n      add\n        /* \"#utility.yul\":15712:15718   */\n      dup5\n        /* \"#utility.yul\":15668:15739   */\n      tag_373\n      jump\t// in\n    tag_414:\n        /* \"#utility.yul\":15524:15746   */\n      swap3\n      swap2\n      pop\n      pop\n      jump\t// out\n        /* \"#utility.yul\":15752:16345   */\n    tag_145:\n        /* \"#utility.yul\":15951:15955   */\n      0x00\n        /* \"#utility.yul\":15989:15991   */\n      0x60\n        /* \"#utility.yul\":15978:15987   */\n      dup3\n        /* \"#utility.yul\":15974:15992   */\n      add\n        /* \"#utility.yul\":15966:15992   */\n      swap1\n      pop\n        /* \"#utility.yul\":16002:16073   */\n      tag_416\n        /* \"#utility.yul\":16070:16071   */\n      0x00\n        /* \"#utility.yul\":16059:16068   */\n      dup4\n        /* \"#utility.yul\":16055:16072   */\n      add\n        /* \"#utility.yul\":16046:16052   */\n      dup7\n        /* \"#utility.yul\":16002:16073   */\n      tag_373\n      jump\t// in\n    tag_416:\n        /* \"#utility.yul\":16120:16129   */\n      dup2\n        /* \"#utility.yul\":16114:16118   */\n      dup2\n        /* \"#utility.yul\":16110:16130   */\n      sub\n        /* \"#utility.yul\":16105:16107   */\n      0x20\n        /* \"#utility.yul\":16094:16103   */\n      dup4\n        /* \"#utility.yul\":16090:16108   */\n      add\n        /* \"#utility.yul\":16083:16131   */\n      mstore\n        /* \"#utility.yul\":16148:16256   */\n      tag_417\n        /* \"#utility.yul\":16251:16255   */\n      dup2\n        /* \"#utility.yul\":16242:16248   */\n      dup6\n        /* \"#utility.yul\":16148:16256   */\n      tag_286\n      jump\t// in\n    tag_417:\n        /* \"#utility.yul\":16140:16256   */\n      swap1\n      pop\n        /* \"#utility.yul\":16266:16338   */\n      tag_418\n        /* \"#utility.yul\":16334:16336   */\n      0x40\n        /* \"#utility.yul\":16323:16332   */\n      dup4\n        /* \"#utility.yul\":16319:16337   */\n      add\n        /* \"#utility.yul\":16310:16316   */\n      dup5\n        /* \"#utility.yul\":16266:16338   */\n      tag_373\n      jump\t// in\n    tag_418:\n        /* \"#utility.yul\":15752:16345   */\n      swap5\n      swap4\n      pop\n      pop\n      pop\n      pop\n      jump\t// out\n        /* \"#utility.yul\":16351:16671   */\n    tag_60:\n        /* \"#utility.yul\":16466:16470   */\n      0x00\n        /* \"#utility.yul\":16504:16506   */\n      0x40\n        /* \"#utility.yul\":16493:16502   */\n      dup3\n        /* \"#utility.yul\":16489:16507   */\n      add\n        /* \"#utility.yul\":16481:16507   */\n      swap1\n      pop\n        /* \"#utility.yul\":16517:16588   */\n      tag_420\n        /* \"#utility.yul\":16585:16586   */\n      0x00\n        /* \"#utility.yul\":16574:16583   */\n      dup4\n        /* \"#utility.yul\":16570:16587   */\n      add\n        /* \"#utility.yul\":16561:16567   */\n      dup6\n        /* \"#utility.yul\":16517:16588   */\n      tag_373\n      jump\t// in\n    tag_420:\n        /* \"#utility.yul\":16598:16664   */\n      tag_421\n        /* \"#utility.yul\":16660:16662   */\n      0x20\n        /* \"#utility.yul\":16649:16658   */\n      dup4\n        /* \"#utility.yul\":16645:16663   */\n      add\n        /* \"#utility.yul\":16636:16642   */\n      dup5\n        /* \"#utility.yul\":16598:16664   */\n      tag_300\n      jump\t// in\n    tag_421:\n        /* \"#utility.yul\":16351:16671   */\n      swap4\n      swap3\n      pop\n      pop\n      pop\n      jump\t// out\n        /* \"#utility.yul\":16677:17258   */\n    tag_74:\n        /* \"#utility.yul\":16870:16874   */\n      0x00\n        /* \"#utility.yul\":16908:16910   */\n      0x60\n        /* \"#utility.yul\":16897:16906   */\n      dup3\n        /* \"#utility.yul\":16893:16911   */\n      add\n        /* \"#utility.yul\":16885:16911   */\n      swap1\n      pop\n        /* \"#utility.yul\":16921:16992   */\n      tag_423\n        /* \"#utility.yul\":16989:16990   */\n      0x00\n        /* \"#utility.yul\":16978:16987   */\n      dup4\n        /* \"#utility.yul\":16974:16991   */\n      add\n        /* \"#utility.yul\":16965:16971   */\n      dup7\n        /* \"#utility.yul\":16921:16992   */\n      tag_373\n      jump\t// in\n    tag_423:\n        /* \"#utility.yul\":17002:17068   */\n      tag_424\n        /* \"#utility.yul\":17064:17066   */\n      0x20\n        /* \"#utility.yul\":17053:17062   */\n      dup4\n        /* \"#utility.yul\":17049:17067   */\n      add\n        /* \"#utility.yul\":17040:17046   */\n      dup6\n        /* \"#utility.yul\":17002:17068   */\n      tag_300\n      jump\t// in\n    tag_424:\n        /* \"#utility.yul\":17115:17124   */\n      dup2\n        /* \"#utility.yul\":17109:17113   */\n      dup2\n        /* \"#utility.yul\":17105:17125   */\n      sub\n        /* \"#utility.yul\":17100:17102   */\n      0x40\n        /* \"#utility.yul\":17089:17098   */\n      dup4\n        /* \"#utility.yul\":17085:17103   */\n      add\n        /* \"#utility.yul\":17078:17126   */\n      mstore\n        /* \"#utility.yul\":17143:17251   */\n      tag_425\n        /* \"#utility.yul\":17246:17250   */\n      dup2\n        /* \"#utility.yul\":17237:17243   */\n      dup5\n        /* \"#utility.yul\":17143:17251   */\n      tag_286\n      jump\t// in\n    tag_425:\n        /* \"#utility.yul\":17135:17251   */\n      swap1\n      pop\n        /* \"#utility.yul\":16677:17258   */\n      swap5\n      swap4\n      pop\n      pop\n      pop\n      pop\n      jump\t// out\n        /* \"#utility.yul\":17264:17592   */\n    tag_180:\n        /* \"#utility.yul\":17383:17387   */\n      0x00\n        /* \"#utility.yul\":17421:17423   */\n      0x40\n        /* \"#utility.yul\":17410:17419   */\n      dup3\n        /* \"#utility.yul\":17406:17424   */\n      add\n        /* \"#utility.yul\":17398:17424   */\n      swap1\n      pop\n        /* \"#utility.yul\":17434:17505   */\n      tag_427\n        /* \"#utility.yul\":17502:17503   */\n      0x00\n        /* \"#utility.yul\":17491:17500   */\n      dup4\n        /* \"#utility.yul\":17487:17504   */\n      add\n        /* \"#utility.yul\":17478:17484   */\n      dup6\n        /* \"#utility.yul\":17434:17505   */\n      tag_373\n      jump\t// in\n    tag_427:\n        /* \"#utility.yul\":17515:17585   */\n      tag_428\n        /* \"#utility.yul\":17581:17583   */\n      0x20\n        /* \"#utility.yul\":17570:17579   */\n      dup4\n        /* \"#utility.yul\":17566:17584   */\n      add\n        /* \"#utility.yul\":17557:17563   */\n      dup5\n        /* \"#utility.yul\":17515:17585   */\n      tag_376\n      jump\t// in\n    tag_428:\n        /* \"#utility.yul\":17264:17592   */\n      swap4\n      swap3\n      pop\n      pop\n      pop\n      jump\t// out\n        /* \"#utility.yul\":17598:17816   */\n    tag_168:\n        /* \"#utility.yul\":17689:17693   */\n      0x00\n        /* \"#utility.yul\":17727:17729   */\n      0x20\n        /* \"#utility.yul\":17716:17725   */\n      dup3\n        /* \"#utility.yul\":17712:17730   */\n      add\n        /* \"#utility.yul\":17704:17730   */\n      swap1\n      pop\n        /* \"#utility.yul\":17740:17809   */\n      tag_430\n        /* \"#utility.yul\":17806:17807   */\n      0x00\n        /* \"#utility.yul\":17795:17804   */\n      dup4\n        /* \"#utility.yul\":17791:17808   */\n      add\n        /* \"#utility.yul\":17782:17788   */\n      dup5\n        /* \"#utility.yul\":17740:17809   */\n      tag_376\n      jump\t// in\n    tag_430:\n        /* \"#utility.yul\":17598:17816   */\n      swap3\n      swap2\n      pop\n      pop\n      jump\t// out\n        /* \"#utility.yul\":17822:18252   */\n    tag_196:\n        /* \"#utility.yul\":17965:17969   */\n      0x00\n        /* \"#utility.yul\":18003:18005   */\n      0x60\n        /* \"#utility.yul\":17992:18001   */\n      dup3\n        /* \"#utility.yul\":17988:18006   */\n      add\n        /* \"#utility.yul\":17980:18006   */\n      swap1\n      pop\n        /* \"#utility.yul\":18016:18085   */\n      tag_432\n        /* \"#utility.yul\":18082:18083   */\n      0x00\n        /* \"#utility.yul\":18071:18080   */\n      dup4\n        /* \"#utility.yul\":18067:18084   */\n      add\n        /* \"#utility.yul\":18058:18064   */\n      dup7\n        /* \"#utility.yul\":18016:18085   */\n      tag_376\n      jump\t// in\n    tag_432:\n        /* \"#utility.yul\":18095:18165   */\n      tag_433\n        /* \"#utility.yul\":18161:18163   */\n      0x20\n        /* \"#utility.yul\":18150:18159   */\n      dup4\n        /* \"#utility.yul\":18146:18164   */\n      add\n        /* \"#utility.yul\":18137:18143   */\n      dup6\n        /* \"#utility.yul\":18095:18165   */\n      tag_366\n      jump\t// in\n    tag_433:\n        /* \"#utility.yul\":18175:18245   */\n      tag_434\n        /* \"#utility.yul\":18241:18243   */\n      0x40\n        /* \"#utility.yul\":18230:18239   */\n      dup4\n        /* \"#utility.yul\":18226:18244   */\n      add\n        /* \"#utility.yul\":18217:18223   */\n      dup5\n        /* \"#utility.yul\":18175:18245   */\n      tag_376\n      jump\t// in\n    tag_434:\n        /* \"#utility.yul\":17822:18252   */\n      swap5\n      swap4\n      pop\n      pop\n      pop\n      pop\n      jump\t// out\n        /* \"#utility.yul\":18258:18387   */\n    tag_220:\n        /* \"#utility.yul\":18292:18298   */\n      0x00\n        /* \"#utility.yul\":18319:18339   */\n      tag_436\n      tag_437\n      jump\t// in\n    tag_436:\n        /* \"#utility.yul\":18309:18339   */\n      swap1\n      pop\n        /* \"#utility.yul\":18348:18381   */\n      tag_438\n        /* \"#utility.yul\":18376:18380   */\n      dup3\n        /* \"#utility.yul\":18368:18374   */\n      dup3\n        /* \"#utility.yul\":18348:18381   */\n      tag_439\n      jump\t// in\n    tag_438:\n        /* \"#utility.yul\":18258:18387   */\n      swap2\n      swap1\n      pop\n      jump\t// out\n        /* \"#utility.yul\":18393:18468   */\n    tag_437:\n        /* \"#utility.yul\":18426:18432   */\n      0x00\n        /* \"#utility.yul\":18459:18461   */\n      0x40\n        /* \"#utility.yul\":18453:18462   */\n      mload\n        /* \"#utility.yul\":18443:18462   */\n      swap1\n      pop\n        /* \"#utility.yul\":18393:18468   */\n      swap1\n      jump\t// out\n        /* \"#utility.yul\":18474:18785   */\n    tag_219:\n        /* \"#utility.yul\":18551:18555   */\n      0x00\n        /* \"#utility.yul\":18641:18659   */\n      0xffffffffffffffff\n        /* \"#utility.yul\":18633:18639   */\n      dup3\n        /* \"#utility.yul\":18630:18660   */\n      gt\n        /* \"#utility.yul\":18627:18683   */\n      iszero\n      tag_442\n      jumpi\n        /* \"#utility.yul\":18663:18681   */\n      tag_443\n      tag_175\n      jump\t// in\n    tag_443:\n        /* \"#utility.yul\":18627:18683   */\n    tag_442:\n        /* \"#utility.yul\":18713:18717   */\n      0x20\n        /* \"#utility.yul\":18705:18711   */\n      dup3\n        /* \"#utility.yul\":18701:18718   */\n      mul\n        /* \"#utility.yul\":18693:18718   */\n      swap1\n      pop\n        /* \"#utility.yul\":18773:18777   */\n      0x20\n        /* \"#utility.yul\":18767:18771   */\n      dup2\n        /* \"#utility.yul\":18763:18778   */\n      add\n        /* \"#utility.yul\":18755:18778   */\n      swap1\n      pop\n        /* \"#utility.yul\":18474:18785   */\n      swap2\n      swap1\n      pop\n      jump\t// out\n        /* \"#utility.yul\":18791:18923   */\n    tag_293:\n        /* \"#utility.yul\":18858:18862   */\n      0x00\n        /* \"#utility.yul\":18881:18884   */\n      dup2\n        /* \"#utility.yul\":18873:18884   */\n      swap1\n      pop\n        /* \"#utility.yul\":18911:18915   */\n      0x20\n        /* \"#utility.yul\":18906:18909   */\n      dup3\n        /* \"#utility.yul\":18902:18916   */\n      add\n        /* \"#utility.yul\":18894:18916   */\n      swap1\n      pop\n        /* \"#utility.yul\":18791:18923   */\n      swap2\n      swap1\n      pop\n      jump\t// out\n        /* \"#utility.yul\":18929:19043   */\n    tag_289:\n        /* \"#utility.yul\":18996:19002   */\n      0x00\n        /* \"#utility.yul\":19030:19035   */\n      dup2\n        /* \"#utility.yul\":19024:19036   */\n      mload\n        /* \"#utility.yul\":19014:19036   */\n      swap1\n      pop\n        /* \"#utility.yul\":18929:19043   */\n      swap2\n      swap1\n      pop\n      jump\t// out\n        /* \"#utility.yul\":19049:19147   */\n    tag_307:\n        /* \"#utility.yul\":19100:19106   */\n      0x00\n        /* \"#utility.yul\":19134:19139   */\n      dup2\n        /* \"#utility.yul\":19128:19140   */\n      mload\n        /* \"#utility.yul\":19118:19140   */\n      swap1\n      pop\n        /* \"#utility.yul\":19049:19147   */\n      swap2\n      swap1\n      pop\n      jump\t// out\n        /* \"#utility.yul\":19153:19266   */\n    tag_299:\n        /* \"#utility.yul\":19223:19227   */\n      0x00\n        /* \"#utility.yul\":19255:19259   */\n      0x20\n        /* \"#utility.yul\":19250:19253   */\n      dup3\n        /* \"#utility.yul\":19246:19260   */\n      add\n        /* \"#utility.yul\":19238:19260   */\n      swap1\n      pop\n        /* \"#utility.yul\":19153:19266   */\n      swap2\n      swap1\n      pop\n      jump\t// out\n        /* \"#utility.yul\":19272:19456   */\n    tag_291:\n        /* \"#utility.yul\":19371:19382   */\n      0x00\n        /* \"#utility.yul\":19405:19411   */\n      dup3\n        /* \"#utility.yul\":19400:19403   */\n      dup3\n        /* \"#utility.yul\":19393:19412   */\n      mstore\n        /* \"#utility.yul\":19445:19449   */\n      0x20\n        /* \"#utility.yul\":19440:19443   */\n      dup3\n        /* \"#utility.yul\":19436:19450   */\n      add\n        /* \"#utility.yul\":19421:19450   */\n      swap1\n      pop\n        /* \"#utility.yul\":19272:19456   */\n      swap3\n      swap2\n      pop\n      pop\n      jump\t// out\n        /* \"#utility.yul\":19462:19630   */\n    tag_309:\n        /* \"#utility.yul\":19545:19556   */\n      0x00\n        /* \"#utility.yul\":19579:19585   */\n      dup3\n        /* \"#utility.yul\":19574:19577   */\n      dup3\n        /* \"#utility.yul\":19567:19586   */\n      mstore\n        /* \"#utility.yul\":19619:19623   */\n      0x20\n        /* \"#utility.yul\":19614:19617   */\n      dup3\n        /* \"#utility.yul\":19610:19624   */\n      add\n        /* \"#utility.yul\":19595:19624   */\n      swap1\n      pop\n        /* \"#utility.yul\":19462:19630   */\n      swap3\n      swap2\n      pop\n      pop\n      jump\t// out\n        /* \"#utility.yul\":19636:19783   */\n    tag_353:\n        /* \"#utility.yul\":19737:19748   */\n      0x00\n        /* \"#utility.yul\":19774:19777   */\n      dup2\n        /* \"#utility.yul\":19759:19777   */\n      swap1\n      pop\n        /* \"#utility.yul\":19636:19783   */\n      swap3\n      swap2\n      pop\n      pop\n      jump\t// out\n        /* \"#utility.yul\":19789:19958   */\n    tag_317:\n        /* \"#utility.yul\":19873:19884   */\n      0x00\n        /* \"#utility.yul\":19907:19913   */\n      dup3\n        /* \"#utility.yul\":19902:19905   */\n      dup3\n        /* \"#utility.yul\":19895:19914   */\n      mstore\n        /* \"#utility.yul\":19947:19951   */\n      0x20\n        /* \"#utility.yul\":19942:19945   */\n      dup3\n        /* \"#utility.yul\":19938:19952   */\n      add\n        /* \"#utility.yul\":19923:19952   */\n      swap1\n      pop\n        /* \"#utility.yul\":19789:19958   */\n      swap3\n      swap2\n      pop\n      pop\n      jump\t// out\n        /* \"#utility.yul\":19964:20312   */\n    tag_153:\n        /* \"#utility.yul\":20004:20011   */\n      0x00\n        /* \"#utility.yul\":20027:20047   */\n      tag_453\n        /* \"#utility.yul\":20045:20046   */\n      dup3\n        /* \"#utility.yul\":20027:20047   */\n      tag_372\n      jump\t// in\n    tag_453:\n        /* \"#utility.yul\":20022:20047   */\n      swap2\n      pop\n        /* \"#utility.yul\":20061:20081   */\n      tag_454\n        /* \"#utility.yul\":20079:20080   */\n      dup4\n        /* \"#utility.yul\":20061:20081   */\n      tag_372\n      jump\t// in\n    tag_454:\n        /* \"#utility.yul\":20056:20081   */\n      swap3\n      pop\n        /* \"#utility.yul\":20249:20250   */\n      dup2\n        /* \"#utility.yul\":20181:20247   */\n      0xffffffffffffffffffffffffffffffffffffffffffffffffffffffffffffffff\n        /* \"#utility.yul\":20177:20251   */\n      div\n        /* \"#utility.yul\":20174:20175   */\n      dup4\n        /* \"#utility.yul\":20171:20252   */\n      gt\n        /* \"#utility.yul\":20166:20167   */\n      dup3\n        /* \"#utility.yul\":20159:20168   */\n      iszero\n        /* \"#utility.yul\":20152:20169   */\n      iszero\n        /* \"#utility.yul\":20148:20253   */\n      and\n        /* \"#utility.yul\":20145:20276   */\n      iszero\n      tag_455\n      jumpi\n        /* \"#utility.yul\":20256:20274   */\n      tag_456\n      tag_457\n      jump\t// in\n    tag_456:\n        /* \"#utility.yul\":20145:20276   */\n    tag_455:\n        /* \"#utility.yul\":20304:20305   */\n      dup3\n        /* \"#utility.yul\":20301:20302   */\n      dup3\n        /* \"#utility.yul\":20297:20306   */\n      mul\n        /* \"#utility.yul\":20286:20306   */\n      swap1\n      pop\n        /* \"#utility.yul\":19964:20312   */\n      swap3\n      swap2\n      pop\n      pop\n      jump\t// out\n        /* \"#utility.yul\":20318:20414   */\n    tag_285:\n        /* \"#utility.yul\":20355:20362   */\n      0x00\n        /* \"#utility.yul\":20384:20408   */\n      tag_459\n        /* \"#utility.yul\":20402:20407   */\n      dup3\n        /* \"#utility.yul\":20384:20408   */\n      tag_460\n      jump\t// in\n    tag_459:\n        /* \"#utility.yul\":20373:20408   */\n      swap1\n      pop\n        /* \"#utility.yul\":20318:20414   */\n      swap2\n      swap1\n      pop\n      jump\t// out\n        /* \"#utility.yul\":20420:20524   */\n    tag_281:\n        /* \"#utility.yul\":20465:20472   */\n      0x00\n        /* \"#utility.yul\":20494:20518   */\n      tag_462\n        /* \"#utility.yul\":20512:20517   */\n      dup3\n        /* \"#utility.yul\":20494:20518   */\n      tag_460\n      jump\t// in\n    tag_462:\n        /* \"#utility.yul\":20483:20518   */\n      swap1\n      pop\n        /* \"#utility.yul\":20420:20524   */\n      swap2\n      swap1\n      pop\n      jump\t// out\n        /* \"#utility.yul\":20530:20620   */\n    tag_303:\n        /* \"#utility.yul\":20564:20571   */\n      0x00\n        /* \"#utility.yul\":20607:20612   */\n      dup2\n        /* \"#utility.yul\":20600:20613   */\n      iszero\n        /* \"#utility.yul\":20593:20614   */\n      iszero\n        /* \"#utility.yul\":20582:20614   */\n      swap1\n      pop\n        /* \"#utility.yul\":20530:20620   */\n      swap2\n      swap1\n      pop\n      jump\t// out\n        /* \"#utility.yul\":20626:20715   */\n    tag_369:\n        /* \"#utility.yul\":20662:20669   */\n      0x00\n        /* \"#utility.yul\":20702:20708   */\n      0xffff\n        /* \"#utility.yul\":20695:20700   */\n      dup3\n        /* \"#utility.yul\":20691:20709   */\n      and\n        /* \"#utility.yul\":20680:20709   */\n      swap1\n      pop\n        /* \"#utility.yul\":20626:20715   */\n      swap2\n      swap1\n      pop\n      jump\t// out\n        /* \"#utility.yul\":20721:20847   */\n    tag_460:\n        /* \"#utility.yul\":20758:20765   */\n      0x00\n        /* \"#utility.yul\":20798:20840   */\n      0xffffffffffffffffffffffffffffffffffffffff\n        /* \"#utility.yul\":20791:20796   */\n      dup3\n        /* \"#utility.yul\":20787:20841   */\n      and\n        /* \"#utility.yul\":20776:20841   */\n      swap1\n      pop\n        /* \"#utility.yul\":20721:20847   */\n      swap2\n      swap1\n      pop\n      jump\t// out\n        /* \"#utility.yul\":20853:20930   */\n    tag_372:\n        /* \"#utility.yul\":20890:20897   */\n      0x00\n        /* \"#utility.yul\":20919:20924   */\n      dup2\n        /* \"#utility.yul\":20908:20924   */\n      swap1\n      pop\n        /* \"#utility.yul\":20853:20930   */\n      swap2\n      swap1\n      pop\n      jump\t// out\n        /* \"#utility.yul\":20936:21029   */\n    tag_379:\n        /* \"#utility.yul\":20972:20979   */\n      0x00\n        /* \"#utility.yul\":21012:21022   */\n      0xffffffff\n        /* \"#utility.yul\":21005:21010   */\n      dup3\n        /* \"#utility.yul\":21001:21023   */\n      and\n        /* \"#utility.yul\":20990:21023   */\n      swap1\n      pop\n        /* \"#utility.yul\":20936:21029   */\n      swap2\n      swap1\n      pop\n      jump\t// out\n        /* \"#utility.yul\":21035:21342   */\n    tag_311:\n        /* \"#utility.yul\":21103:21104   */\n      0x00\n        /* \"#utility.yul\":21113:21226   */\n    tag_469:\n        /* \"#utility.yul\":21127:21133   */\n      dup4\n        /* \"#utility.yul\":21124:21125   */\n      dup2\n        /* \"#utility.yul\":21121:21134   */\n      lt\n        /* \"#utility.yul\":21113:21226   */\n      iszero\n      tag_471\n      jumpi\n        /* \"#utility.yul\":21212:21213   */\n      dup1\n        /* \"#utility.yul\":21207:21210   */\n      dup3\n        /* \"#utility.yul\":21203:21214   */\n      add\n        /* \"#utility.yul\":21197:21215   */\n      mload\n        /* \"#utility.yul\":21193:21194   */\n      dup2\n        /* \"#utility.yul\":21188:21191   */\n      dup5\n        /* \"#utility.yul\":21184:21195   */\n      add\n        /* \"#utility.yul\":21177:21216   */\n      mstore\n        /* \"#utility.yul\":21149:21151   */\n      0x20\n        /* \"#utility.yul\":21146:21147   */\n      dup2\n        /* \"#utility.yul\":21142:21152   */\n      add\n        /* \"#utility.yul\":21137:21152   */\n      swap1\n      pop\n        /* \"#utility.yul\":21113:21226   */\n      jump(tag_469)\n    tag_471:\n        /* \"#utility.yul\":21244:21250   */\n      dup4\n        /* \"#utility.yul\":21241:21242   */\n      dup2\n        /* \"#utility.yul\":21238:21251   */\n      gt\n        /* \"#utility.yul\":21235:21336   */\n      iszero\n      tag_472\n      jumpi\n        /* \"#utility.yul\":21324:21325   */\n      0x00\n        /* \"#utility.yul\":21315:21321   */\n      dup5\n        /* \"#utility.yul\":21310:21313   */\n      dup5\n        /* \"#utility.yul\":21306:21322   */\n      add\n        /* \"#utility.yul\":21299:21326   */\n      mstore\n        /* \"#utility.yul\":21235:21336   */\n    tag_472:\n        /* \"#utility.yul\":21084:21342   */\n      pop\n        /* \"#utility.yul\":21035:21342   */\n      pop\n      pop\n      pop\n      jump\t// out\n        /* \"#utility.yul\":21348:21629   */\n    tag_439:\n        /* \"#utility.yul\":21431:21458   */\n      tag_474\n        /* \"#utility.yul\":21453:21457   */\n      dup3\n        /* \"#utility.yul\":21431:21458   */\n      tag_313\n      jump\t// in\n    tag_474:\n        /* \"#utility.yul\":21423:21429   */\n      dup2\n        /* \"#utility.yul\":21419:21459   */\n      add\n        /* \"#utility.yul\":21561:21567   */\n      dup2\n        /* \"#utility.yul\":21549:21559   */\n      dup2\n        /* \"#utility.yul\":21546:21568   */\n      lt\n        /* \"#utility.yul\":21525:21543   */\n      0xffffffffffffffff\n        /* \"#utility.yul\":21513:21523   */\n      dup3\n        /* \"#utility.yul\":21510:21544   */\n      gt\n        /* \"#utility.yul\":21507:21569   */\n      or\n        /* \"#utility.yul\":21504:21592   */\n      iszero\n      tag_475\n      jumpi\n        /* \"#utility.yul\":21572:21590   */\n      tag_476\n      tag_175\n      jump\t// in\n    tag_476:\n        /* \"#utility.yul\":21504:21592   */\n    tag_475:\n        /* \"#utility.yul\":21612:21622   */\n      dup1\n        /* \"#utility.yul\":21608:21610   */\n      0x40\n        /* \"#utility.yul\":21601:21623   */\n      mstore\n        /* \"#utility.yul\":21391:21629   */\n      pop\n        /* \"#utility.yul\":21348:21629   */\n      pop\n      pop\n      jump\t// out\n        /* \"#utility.yul\":21635:21811   */\n    tag_150:\n        /* \"#utility.yul\":21667:21668   */\n      0x00\n        /* \"#utility.yul\":21684:21704   */\n      tag_478\n        /* \"#utility.yul\":21702:21703   */\n      dup3\n        /* \"#utility.yul\":21684:21704   */\n      tag_372\n      jump\t// in\n    tag_478:\n        /* \"#utility.yul\":21679:21704   */\n      swap2\n      pop\n        /* \"#utility.yul\":21718:21738   */\n      tag_479\n        /* \"#utility.yul\":21736:21737   */\n      dup4\n        /* \"#utility.yul\":21718:21738   */\n      tag_372\n      jump\t// in\n    tag_479:\n        /* \"#utility.yul\":21713:21738   */\n      swap3\n      pop\n        /* \"#utility.yul\":21757:21758   */\n      dup3\n        /* \"#utility.yul\":21747:21782   */\n      tag_480\n      jumpi\n        /* \"#utility.yul\":21762:21780   */\n      tag_481\n      tag_482\n      jump\t// in\n    tag_481:\n        /* \"#utility.yul\":21747:21782   */\n    tag_480:\n        /* \"#utility.yul\":21803:21804   */\n      dup3\n        /* \"#utility.yul\":21800:21801   */\n      dup3\n        /* \"#utility.yul\":21796:21805   */\n      mod\n        /* \"#utility.yul\":21791:21805   */\n      swap1\n      pop\n        /* \"#utility.yul\":21635:21811   */\n      swap3\n      swap2\n      pop\n      pop\n      jump\t// out\n        /* \"#utility.yul\":21817:21997   */\n    tag_457:\n        /* \"#utility.yul\":21865:21942   */\n      0x4e487b7100000000000000000000000000000000000000000000000000000000\n        /* \"#utility.yul\":21862:21863   */\n      0x00\n        /* \"#utility.yul\":21855:21943   */\n      mstore\n        /* \"#utility.yul\":21962:21966   */\n      0x11\n        /* \"#utility.yul\":21959:21960   */\n      0x04\n        /* \"#utility.yul\":21952:21967   */\n      mstore\n        /* \"#utility.yul\":21986:21990   */\n      0x24\n        /* \"#utility.yul\":21983:21984   */\n      0x00\n        /* \"#utility.yul\":21976:21991   */\n      revert\n        /* \"#utility.yul\":22003:22183   */\n    tag_482:\n        /* \"#utility.yul\":22051:22128   */\n      0x4e487b7100000000000000000000000000000000000000000000000000000000\n        /* \"#utility.yul\":22048:22049   */\n      0x00\n        /* \"#utility.yul\":22041:22129   */\n      mstore\n        /* \"#utility.yul\":22148:22152   */\n      0x12\n        /* \"#utility.yul\":22145:22146   */\n      0x04\n        /* \"#utility.yul\":22138:22153   */\n      mstore\n        /* \"#utility.yul\":22172:22176   */\n      0x24\n        /* \"#utility.yul\":22169:22170   */\n      0x00\n        /* \"#utility.yul\":22162:22177   */\n      revert\n        /* \"#utility.yul\":22189:22369   */\n    tag_148:\n        /* \"#utility.yul\":22237:22314   */\n      0x4e487b7100000000000000000000000000000000000000000000000000000000\n        /* \"#utility.yul\":22234:22235   */\n      0x00\n        /* \"#utility.yul\":22227:22315   */\n      mstore\n        /* \"#utility.yul\":22334:22338   */\n      0x32\n        /* \"#utility.yul\":22331:22332   */\n      0x04\n        /* \"#utility.yul\":22324:22339   */\n      mstore\n        /* \"#utility.yul\":22358:22362   */\n      0x24\n        /* \"#utility.yul\":22355:22356   */\n      0x00\n        /* \"#utility.yul\":22348:22363   */\n      revert\n        /* \"#utility.yul\":22375:22555   */\n    tag_175:\n        /* \"#utility.yul\":22423:22500   */\n      0x4e487b7100000000000000000000000000000000000000000000000000000000\n        /* \"#utility.yul\":22420:22421   */\n      0x00\n        /* \"#utility.yul\":22413:22501   */\n      mstore\n        /* \"#utility.yul\":22520:22524   */\n      0x41\n        /* \"#utility.yul\":22517:22518   */\n      0x04\n        /* \"#utility.yul\":22510:22525   */\n      mstore\n        /* \"#utility.yul\":22544:22548   */\n      0x24\n        /* \"#utility.yul\":22541:22542   */\n      0x00\n        /* \"#utility.yul\":22534:22549   */\n      revert\n        /* \"#utility.yul\":22561:22678   */\n    tag_237:\n        /* \"#utility.yul\":22670:22671   */\n      0x00\n        /* \"#utility.yul\":22667:22668   */\n      dup1\n        /* \"#utility.yul\":22660:22672   */\n      revert\n        /* \"#utility.yul\":22684:22801   */\n    tag_223:\n        /* \"#utility.yul\":22793:22794   */\n      0x00\n        /* \"#utility.yul\":22790:22791   */\n      dup1\n        /* \"#utility.yul\":22783:22795   */\n      revert\n        /* \"#utility.yul\":22807:22924   */\n    tag_272:\n        /* \"#utility.yul\":22916:22917   */\n      0x00\n        /* \"#utility.yul\":22913:22914   */\n      dup1\n        /* \"#utility.yul\":22906:22918   */\n      revert\n        /* \"#utility.yul\":22930:23047   */\n    tag_252:\n        /* \"#utility.yul\":23039:23040   */\n      0x00\n        /* \"#utility.yul\":23036:23037   */\n      dup1\n        /* \"#utility.yul\":23029:23041   */\n      revert\n        /* \"#utility.yul\":23053:23155   */\n    tag_313:\n        /* \"#utility.yul\":23094:23100   */\n      0x00\n        /* \"#utility.yul\":23145:23147   */\n      0x1f\n        /* \"#utility.yul\":23141:23148   */\n      not\n        /* \"#utility.yul\":23136:23138   */\n      0x1f\n        /* \"#utility.yul\":23129:23134   */\n      dup4\n        /* \"#utility.yul\":23125:23139   */\n      add\n        /* \"#utility.yul\":23121:23149   */\n      and\n        /* \"#utility.yul\":23111:23149   */\n      swap1\n      pop\n        /* \"#utility.yul\":23053:23155   */\n      swap2\n      swap1\n      pop\n      jump\t// out\n        /* \"#utility.yul\":23161:23328   */\n    tag_319:\n        /* \"#utility.yul\":23301:23320   */\n      0x72657175657374206e6f7420666f756e64000000000000000000000000000000\n        /* \"#utility.yul\":23297:23298   */\n      0x00\n        /* \"#utility.yul\":23289:23295   */\n      dup3\n        /* \"#utility.yul\":23285:23299   */\n      add\n        /* \"#utility.yul\":23278:23321   */\n      mstore\n        /* \"#utility.yul\":23161:23328   */\n      pop\n      jump\t// out\n        /* \"#utility.yul\":23334:23506   */\n    tag_324:\n        /* \"#utility.yul\":23474:23498   */\n      0x4d7573742062652070726f706f736564206f776e657200000000000000000000\n        /* \"#utility.yul\":23470:23471   */\n      0x00\n        /* \"#utility.yul\":23462:23468   */\n      dup3\n        /* \"#utility.yul\":23458:23472   */\n      add\n        /* \"#utility.yul\":23451:23499   */\n      mstore\n        /* \"#utility.yul\":23334:23506   */\n      pop\n      jump\t// out\n        /* \"#utility.yul\":23512:23684   */\n    tag_329:\n        /* \"#utility.yul\":23652:23676   */\n      0x4f6e6c792063616c6c61626c65206279206f776e657200000000000000000000\n        /* \"#utility.yul\":23648:23649   */\n      0x00\n        /* \"#utility.yul\":23640:23646   */\n      dup3\n        /* \"#utility.yul\":23636:23650   */\n      add\n        /* \"#utility.yul\":23629:23677   */\n      mstore\n        /* \"#utility.yul\":23512:23684   */\n      pop\n      jump\t// out\n        /* \"#utility.yul\":23690:23869   */\n    tag_334:\n        /* \"#utility.yul\":23830:23861   */\n      0x436173696e6f3a2057696e6e696e67207061796f7574206661696c6564000000\n        /* \"#utility.yul\":23826:23827   */\n      0x00\n        /* \"#utility.yul\":23818:23824   */\n      dup3\n        /* \"#utility.yul\":23814:23828   */\n      add\n        /* \"#utility.yul\":23807:23862   */\n      mstore\n        /* \"#utility.yul\":23690:23869   */\n      pop\n      jump\t// out\n        /* \"#utility.yul\":23875:24053   */\n    tag_339:\n        /* \"#utility.yul\":24015:24045   */\n      0x42657420616e792076616c7565206265747765656e203120746f203600000000\n        /* \"#utility.yul\":24011:24012   */\n      0x00\n        /* \"#utility.yul\":24003:24009   */\n      dup3\n        /* \"#utility.yul\":23999:24013   */\n      add\n        /* \"#utility.yul\":23992:24046   */\n      mstore\n        /* \"#utility.yul\":23875:24053   */\n      pop\n      jump\t// out\n        /* \"#utility.yul\":24059:24283   */\n    tag_344:\n        /* \"#utility.yul\":24199:24233   */\n      0x54686973206265742065786365656473206d6178696d756d20706f737369626c\n        /* \"#utility.yul\":24195:24196   */\n      0x00\n        /* \"#utility.yul\":24187:24193   */\n      dup3\n        /* \"#utility.yul\":24183:24197   */\n      add\n        /* \"#utility.yul\":24176:24234   */\n      mstore\n        /* \"#utility.yul\":24268:24275   */\n      0x6520626574000000000000000000000000000000000000000000000000000000\n        /* \"#utility.yul\":24263:24265   */\n      0x20\n        /* \"#utility.yul\":24255:24261   */\n      dup3\n        /* \"#utility.yul\":24251:24266   */\n      add\n        /* \"#utility.yul\":24244:24276   */\n      mstore\n        /* \"#utility.yul\":24059:24283   */\n      pop\n      jump\t// out\n        /* \"#utility.yul\":24289:24457   */\n    tag_349:\n        /* \"#utility.yul\":24429:24449   */\n      0x556e61626c6520746f207472616e736665720000000000000000000000000000\n        /* \"#utility.yul\":24425:24426   */\n      0x00\n        /* \"#utility.yul\":24417:24423   */\n      dup3\n        /* \"#utility.yul\":24413:24427   */\n      add\n        /* \"#utility.yul\":24406:24450   */\n      mstore\n        /* \"#utility.yul\":24289:24457   */\n      pop\n      jump\t// out\n        /* \"#utility.yul\":24463:24577   */\n    tag_355:\n      pop\n      jump\t// out\n        /* \"#utility.yul\":24583:24756   */\n    tag_360:\n        /* \"#utility.yul\":24723:24748   */\n      0x43616e6e6f74207472616e7366657220746f2073656c66000000000000000000\n        /* \"#utility.yul\":24719:24720   */\n      0x00\n        /* \"#utility.yul\":24711:24717   */\n      dup3\n        /* \"#utility.yul\":24707:24721   */\n      add\n        /* \"#utility.yul\":24700:24749   */\n      mstore\n        /* \"#utility.yul\":24583:24756   */\n      pop\n      jump\t// out\n        /* \"#utility.yul\":24762:24943   */\n    tag_365:\n        /* \"#utility.yul\":24902:24935   */\n      0x6f6e6c792056524620563220777261707065722063616e2066756c66696c6c00\n        /* \"#utility.yul\":24898:24899   */\n      0x00\n        /* \"#utility.yul\":24890:24896   */\n      dup3\n        /* \"#utility.yul\":24886:24900   */\n      add\n        /* \"#utility.yul\":24879:24936   */\n      mstore\n        /* \"#utility.yul\":24762:24943   */\n      pop\n      jump\t// out\n        /* \"#utility.yul\":24949:25071   */\n    tag_232:\n        /* \"#utility.yul\":25022:25046   */\n      tag_503\n        /* \"#utility.yul\":25040:25045   */\n      dup2\n        /* \"#utility.yul\":25022:25046   */\n      tag_285\n      jump\t// in\n    tag_503:\n        /* \"#utility.yul\":25015:25020   */\n      dup2\n        /* \"#utility.yul\":25012:25047   */\n      eq\n        /* \"#utility.yul\":25002:25065   */\n      tag_504\n      jumpi\n        /* \"#utility.yul\":25061:25062   */\n      0x00\n        /* \"#utility.yul\":25058:25059   */\n      dup1\n        /* \"#utility.yul\":25051:25063   */\n      revert\n        /* \"#utility.yul\":25002:25065   */\n    tag_504:\n        /* \"#utility.yul\":24949:25071   */\n      pop\n      jump\t// out\n        /* \"#utility.yul\":25077:25193   */\n    tag_242:\n        /* \"#utility.yul\":25147:25168   */\n      tag_506\n        /* \"#utility.yul\":25162:25167   */\n      dup2\n        /* \"#utility.yul\":25147:25168   */\n      tag_303\n      jump\t// in\n    tag_506:\n        /* \"#utility.yul\":25140:25145   */\n      dup2\n        /* \"#utility.yul\":25137:25169   */\n      eq\n        /* \"#utility.yul\":25127:25187   */\n      tag_507\n      jumpi\n        /* \"#utility.yul\":25183:25184   */\n      0x00\n        /* \"#utility.yul\":25180:25181   */\n      dup1\n        /* \"#utility.yul\":25173:25185   */\n      revert\n        /* \"#utility.yul\":25127:25187   */\n    tag_507:\n        /* \"#utility.yul\":25077:25193   */\n      pop\n      jump\t// out\n        /* \"#utility.yul\":25199:25321   */\n    tag_245:\n        /* \"#utility.yul\":25272:25296   */\n      tag_509\n        /* \"#utility.yul\":25290:25295   */\n      dup2\n        /* \"#utility.yul\":25272:25296   */\n      tag_372\n      jump\t// in\n    tag_509:\n        /* \"#utility.yul\":25265:25270   */\n      dup2\n        /* \"#utility.yul\":25262:25297   */\n      eq\n        /* \"#utility.yul\":25252:25315   */\n      tag_510\n      jumpi\n        /* \"#utility.yul\":25311:25312   */\n      0x00\n        /* \"#utility.yul\":25308:25309   */\n      dup1\n        /* \"#utility.yul\":25301:25313   */\n      revert\n        /* \"#utility.yul\":25252:25315   */\n    tag_510:\n        /* \"#utility.yul\":25199:25321   */\n      pop\n      jump\t// out\n\n    auxdata: 0xa26469706673582212201605725b24d5154b9206dde5fa3739f849e1f3c9d945eebb1afea97f0188e6da64736f6c63430008070033\n}\n",
				"bytecode": {
					"linkReferences": {},
					"object": "60c0604052620186a0600560006101000a81548163ffffffff021916908363ffffffff1602179055506003600560046101000a81548161ffff021916908361ffff1602179055506002600560066101000a81548163ffffffff021916908363ffffffff160217905550738ac089a6fc01a9f831858acae2be7e32c23ae1c06005600a6101000a81548173ffffffffffffffffffffffffffffffffffffffff021916908373ffffffffffffffffffffffffffffffffffffffff16021790555073708701a1dff4f478de54383e49a627ed4852c816600660006101000a81548173ffffffffffffffffffffffffffffffffffffffff021916908373ffffffffffffffffffffffffffffffffffffffff160217905550670de0b6b3a76400006009556103e8600a553480156200013157600080fd5b50338060006005600a9054906101000a900473ffffffffffffffffffffffffffffffffffffffff16600660009054906101000a900473ffffffffffffffffffffffffffffffffffffffff168173ffffffffffffffffffffffffffffffffffffffff1660808173ffffffffffffffffffffffffffffffffffffffff1660601b815250508073ffffffffffffffffffffffffffffffffffffffff1660a08173ffffffffffffffffffffffffffffffffffffffff1660601b815250505050600073ffffffffffffffffffffffffffffffffffffffff168273ffffffffffffffffffffffffffffffffffffffff1614156200025f576040517f08c379a000000000000000000000000000000000000000000000000000000000815260040162000256906200046d565b60405180910390fd5b816000806101000a81548173ffffffffffffffffffffffffffffffffffffffff021916908373ffffffffffffffffffffffffffffffffffffffff160217905550600073ffffffffffffffffffffffffffffffffffffffff168173ffffffffffffffffffffffffffffffffffffffff1614620002e657620002e581620002ef60201b60201c565b5b50505062000514565b3373ffffffffffffffffffffffffffffffffffffffff168173ffffffffffffffffffffffffffffffffffffffff16141562000361576040517f08c379a000000000000000000000000000000000000000000000000000000000815260040162000358906200048f565b60405180910390fd5b80600160006101000a81548173ffffffffffffffffffffffffffffffffffffffff021916908373ffffffffffffffffffffffffffffffffffffffff1602179055508073ffffffffffffffffffffffffffffffffffffffff1660008054906101000a900473ffffffffffffffffffffffffffffffffffffffff1673ffffffffffffffffffffffffffffffffffffffff167fed8889f560326eb138920d842192f0eb3dd22b4f139c87a2c57538e05bae127860405160405180910390a350565b60006200042e601883620004b1565b91506200043b82620004c2565b602082019050919050565b600062000455601783620004b1565b91506200046282620004eb565b602082019050919050565b6000602082019050818103600083015262000488816200041f565b9050919050565b60006020820190508181036000830152620004aa8162000446565b9050919050565b600082825260208201905092915050565b7f43616e6e6f7420736574206f776e657220746f207a65726f0000000000000000600082015250565b7f43616e6e6f74207472616e7366657220746f2073656c66000000000000000000600082015250565b60805160601c60a05160601c61208d6200055c6000396000818161035001528181610d730152818161115f0152818161118001526112be01526000611123015261208d6000f3fe6080604052600436106100dd5760003560e01c80638dc654a21161007f578063c17bcdee11610059578063c17bcdee14610290578063d8a4676f146102bb578063f2fde38b146102fa578063fc2a88c314610323576100dd565b80638dc654a214610210578063a168fa8914610227578063bfb3047f14610265576100dd565b80635873533d116100bb5780635873533d1461017557806379ba5097146101915780638796ba8c146101a85780638da5cb5b146101e5576100dd565b80631fe543e3146100e25780632e5b21681461010b5780633446106714610136575b600080fd5b3480156100ee57600080fd5b5061010960048036038101906101049190611573565b61034e565b005b34801561011757600080fd5b506101206103ea565b60405161012d9190611a33565b60405180910390f35b34801561014257600080fd5b5061015d60048036038101906101589190611519565b6103f0565b60405161016c93929190611875565b60405180910390f35b61018f600480360381019061018a9190611519565b61043a565b005b34801561019d57600080fd5b506101a661058d565b005b3480156101b457600080fd5b506101cf60048036038101906101ca9190611519565b610722565b6040516101dc9190611a33565b60405180910390f35b3480156101f157600080fd5b506101fa610746565b604051610207919061185a565b60405180910390f35b34801561021c57600080fd5b5061022561076f565b005b34801561023357600080fd5b5061024e60048036038101906102499190611519565b6108f5565b60405161025c929190611a8c565b60405180910390f35b34801561027157600080fd5b5061027a610926565b6040516102879190611a33565b60405180910390f35b34801561029c57600080fd5b506102a561092c565b6040516102b29190611a33565b60405180910390f35b3480156102c757600080fd5b506102e260048036038101906102dd9190611519565b610932565b6040516102f193929190611ab5565b60405180910390f35b34801561030657600080fd5b50610321600480360381019061031c91906114bf565b610a4c565b005b34801561032f57600080fd5b50610338610a60565b6040516103459190611a33565b60405180910390f35b7f000000000000000000000000000000000000000000000000000000000000000073ffffffffffffffffffffffffffffffffffffffff163373ffffffffffffffffffffffffffffffffffffffff16146103dc576040517f08c379a00000000000000000000000000000000000000000000000000000000081526004016103d390611a13565b60405180910390fd5b6103e68282610a66565b5050565b60095481565b60076020528060005260406000206000915090508060000160009054906101000a900473ffffffffffffffffffffffffffffffffffffffff16908060010154908060020154905083565b60095434111561047f576040517f08c379a0000000000000000000000000000000000000000000000000000000008152600401610476906119b3565b60405180910390fd5b600681111580156104905750600081115b6104cf576040517f08c379a00000000000000000000000000000000000000000000000000000000081526004016104c690611993565b60405180910390fd5b600033905060006104de610d1b565b9050600060405180606001604052808473ffffffffffffffffffffffffffffffffffffffff168152602001858152602001348152509050806007600084815260200190815260200160002060008201518160000160006101000a81548173ffffffffffffffffffffffffffffffffffffffff021916908373ffffffffffffffffffffffffffffffffffffffff160217905550602082015181600101556040820151816002015590505050505050565b600160009054906101000a900473ffffffffffffffffffffffffffffffffffffffff1673ffffffffffffffffffffffffffffffffffffffff163373ffffffffffffffffffffffffffffffffffffffff161461061d576040517f08c379a000000000000000000000000000000000000000000000000000000000815260040161061490611933565b60405180910390fd5b60008060009054906101000a900473ffffffffffffffffffffffffffffffffffffffff169050336000806101000a81548173ffffffffffffffffffffffffffffffffffffffff021916908373ffffffffffffffffffffffffffffffffffffffff1602179055506000600160006101000a81548173ffffffffffffffffffffffffffffffffffffffff021916908373ffffffffffffffffffffffffffffffffffffffff1602179055503373ffffffffffffffffffffffffffffffffffffffff168173ffffffffffffffffffffffffffffffffffffffff167f8be0079c531659141344cd1fd0a4f28419497f9722a3daafe3b4186f6b6457e060405160405180910390a350565b6003818154811061073257600080fd5b906000526020600020016000915090505481565b60008060009054906101000a900473ffffffffffffffffffffffffffffffffffffffff16905090565b610777610f62565b60006005600a9054906101000a900473ffffffffffffffffffffffffffffffffffffffff1690508073ffffffffffffffffffffffffffffffffffffffff1663a9059cbb338373ffffffffffffffffffffffffffffffffffffffff166370a08231306040518263ffffffff1660e01b81526004016107f4919061185a565b60206040518083038186803b15801561080c57600080fd5b505afa158015610820573d6000803e3d6000fd5b505050506040513d601f19601f820116820180604052508101906108449190611546565b6040518363ffffffff1660e01b81526004016108619291906118ac565b602060405180830381600087803b15801561087b57600080fd5b505af115801561088f573d6000803e3d6000fd5b505050506040513d601f19601f820116820180604052508101906108b391906114ec565b6108f2576040517f08c379a00000000000000000000000000000000000000000000000000000000081526004016108e9906119d3565b60405180910390fd5b50565b60026020528060005260406000206000915090508060000154908060010160009054906101000a900460ff16905082565b60085481565b600a5481565b60008060606000600260008681526020019081526020016000206000015411610990576040517f08c379a000000000000000000000000000000000000000000000000000000000815260040161098790611913565b60405180910390fd5b600060026000868152602001908152602001600020604051806060016040529081600082015481526020016001820160009054906101000a900460ff1615151515815260200160028201805480602002602001604051908101604052809291908181526020018280548015610a2457602002820191906000526020600020905b815481526020019060010190808311610a10575b5050505050815250509050806000015181602001518260400151935093509350509193909250565b610a54610f62565b610a5d81610ff2565b50565b60045481565b6000600260008481526020019081526020016000206000015411610abf576040517f08c379a0000000000000000000000000000000000000000000000000000000008152600401610ab690611913565b60405180910390fd5b60016002600084815260200190815260200160002060010160006101000a81548160ff02191690831515021790555080600260008481526020019081526020016000206002019080519060200190610b18929190611363565b507f147eb1ff0c82f87f2b03e2c43f5a36488ff63ec6b730195fde4605f612f8db5182826002600086815260200190815260200160002060000154604051610b6293929190611a4e565b60405180910390a1600081600081518110610b8057610b7f611df5565b5b602002602001015190506000600760008581526020019081526020016000206040518060600160405290816000820160009054906101000a900473ffffffffffffffffffffffffffffffffffffffff1673ffffffffffffffffffffffffffffffffffffffff1673ffffffffffffffffffffffffffffffffffffffff1681526020016001820154815260200160028201548152505090506000816040015190506000826020015190506000836000015190506000600686610c409190611d66565b90508060088190555082811415610d11576000600285610c609190611c30565b905060008373ffffffffffffffffffffffffffffffffffffffff1682604051610c8890611845565b60006040518083038185875af1925050503d8060008114610cc5576040519150601f19603f3d011682016040523d82523d6000602084013e610cca565b606091505b5050905080610d0e576040517f08c379a0000000000000000000000000000000000000000000000000000000008152600401610d0590611973565b60405180910390fd5b50505b5050505050505050565b6000610d25610f62565b610d64600560009054906101000a900463ffffffff16600560049054906101000a900461ffff16600560069054906101000a900463ffffffff1661111f565b905060405180606001604052807f000000000000000000000000000000000000000000000000000000000000000073ffffffffffffffffffffffffffffffffffffffff16634306d354600560009054906101000a900463ffffffff166040518263ffffffff1660e01b8152600401610ddc9190611b1c565b60206040518083038186803b158015610df457600080fd5b505afa158015610e08573d6000803e3d6000fd5b505050506040513d601f19601f82011682018060405250810190610e2c9190611546565b8152602001600015158152602001600067ffffffffffffffff811115610e5557610e54611e24565b5b604051908082528060200260200182016040528015610e835781602001602082028036833780820191505090505b50815250600260008381526020019081526020016000206000820151816000015560208201518160010160006101000a81548160ff0219169083151502179055506040820151816002019080519060200190610ee0929190611363565b509050506003819080600181540180825580915050600190039060005260206000200160009091909190915055806004819055507fcc58b13ad3eab50626c6a6300b1d139cd6ebb1688a7cced9461c2f7e762665ee81600560069054906101000a900463ffffffff16604051610f57929190611af3565b60405180910390a190565b60008054906101000a900473ffffffffffffffffffffffffffffffffffffffff1673ffffffffffffffffffffffffffffffffffffffff163373ffffffffffffffffffffffffffffffffffffffff1614610ff0576040517f08c379a0000000000000000000000000000000000000000000000000000000008152600401610fe790611953565b60405180910390fd5b565b3373ffffffffffffffffffffffffffffffffffffffff168173ffffffffffffffffffffffffffffffffffffffff161415611061576040517f08c379a0000000000000000000000000000000000000000000000000000000008152600401611058906119f3565b60405180910390fd5b80600160006101000a81548173ffffffffffffffffffffffffffffffffffffffff021916908373ffffffffffffffffffffffffffffffffffffffff1602179055508073ffffffffffffffffffffffffffffffffffffffff1660008054906101000a900473ffffffffffffffffffffffffffffffffffffffff1673ffffffffffffffffffffffffffffffffffffffff167fed8889f560326eb138920d842192f0eb3dd22b4f139c87a2c57538e05bae127860405160405180910390a350565b60007f000000000000000000000000000000000000000000000000000000000000000073ffffffffffffffffffffffffffffffffffffffff16634000aea07f00000000000000000000000000000000000000000000000000000000000000007f000000000000000000000000000000000000000000000000000000000000000073ffffffffffffffffffffffffffffffffffffffff16634306d354886040518263ffffffff1660e01b81526004016111d79190611b1c565b60206040518083038186803b1580156111ef57600080fd5b505afa158015611203573d6000803e3d6000fd5b505050506040513d601f19601f820116820180604052508101906112279190611546565b87878760405160200161123c93929190611b37565b6040516020818303038152906040526040518463ffffffff1660e01b8152600401611269939291906118d5565b602060405180830381600087803b15801561128357600080fd5b505af1158015611297573d6000803e3d6000fd5b505050506040513d601f19601f820116820180604052508101906112bb91906114ec565b507f000000000000000000000000000000000000000000000000000000000000000073ffffffffffffffffffffffffffffffffffffffff1663fc2a88c36040518163ffffffff1660e01b815260040160206040518083038186803b15801561132257600080fd5b505afa158015611336573d6000803e3d6000fd5b505050506040513d601f19601f8201168201806040525081019061135a9190611546565b90509392505050565b82805482825590600052602060002090810192821561139f579160200282015b8281111561139e578251825591602001919060010190611383565b5b5090506113ac91906113b0565b5090565b5b808211156113c95760008160009055506001016113b1565b5090565b60006113e06113db84611b93565b611b6e565b9050808382526020820190508285602086028201111561140357611402611e58565b5b60005b8581101561143357816114198882611495565b845260208401935060208301925050600181019050611406565b5050509392505050565b60008135905061144c81612012565b92915050565b600082601f83011261146757611466611e53565b5b81356114778482602086016113cd565b91505092915050565b60008151905061148f81612029565b92915050565b6000813590506114a481612040565b92915050565b6000815190506114b981612040565b92915050565b6000602082840312156114d5576114d4611e62565b5b60006114e38482850161143d565b91505092915050565b60006020828403121561150257611501611e62565b5b600061151084828501611480565b91505092915050565b60006020828403121561152f5761152e611e62565b5b600061153d84828501611495565b91505092915050565b60006020828403121561155c5761155b611e62565b5b600061156a848285016114aa565b91505092915050565b6000806040838503121561158a57611589611e62565b5b600061159885828601611495565b925050602083013567ffffffffffffffff8111156115b9576115b8611e5d565b5b6115c585828601611452565b9150509250929050565b60006115db8383611818565b60208301905092915050565b6115f081611c9c565b82525050565b6115ff81611c8a565b82525050565b600061161082611bcf565b61161a8185611bf2565b935061162583611bbf565b8060005b8381101561165657815161163d88826115cf565b975061164883611be5565b925050600181019050611629565b5085935050505092915050565b61166c81611cae565b82525050565b600061167d82611bda565b6116878185611c03565b9350611697818560208601611d02565b6116a081611e67565b840191505092915050565b60006116b8601183611c1f565b91506116c382611e78565b602082019050919050565b60006116db601683611c1f565b91506116e682611ea1565b602082019050919050565b60006116fe601683611c1f565b915061170982611eca565b602082019050919050565b6000611721601d83611c1f565b915061172c82611ef3565b602082019050919050565b6000611744601c83611c1f565b915061174f82611f1c565b602082019050919050565b6000611767602583611c1f565b915061177282611f45565b604082019050919050565b600061178a601283611c1f565b915061179582611f94565b602082019050919050565b60006117ad600083611c14565b91506117b882611fbd565b600082019050919050565b60006117d0601783611c1f565b91506117db82611fc0565b602082019050919050565b60006117f3601f83611c1f565b91506117fe82611fe9565b602082019050919050565b61181281611cba565b82525050565b61182181611ce8565b82525050565b61183081611ce8565b82525050565b61183f81611cf2565b82525050565b6000611850826117a0565b9150819050919050565b600060208201905061186f60008301846115f6565b92915050565b600060608201905061188a60008301866115e7565b6118976020830185611827565b6118a46040830184611827565b949350505050565b60006040820190506118c160008301856115f6565b6118ce6020830184611827565b9392505050565b60006060820190506118ea60008301866115f6565b6118f76020830185611827565b81810360408301526119098184611672565b9050949350505050565b6000602082019050818103600083015261192c816116ab565b9050919050565b6000602082019050818103600083015261194c816116ce565b9050919050565b6000602082019050818103600083015261196c816116f1565b9050919050565b6000602082019050818103600083015261198c81611714565b9050919050565b600060208201905081810360008301526119ac81611737565b9050919050565b600060208201905081810360008301526119cc8161175a565b9050919050565b600060208201905081810360008301526119ec8161177d565b9050919050565b60006020820190508181036000830152611a0c816117c3565b9050919050565b60006020820190508181036000830152611a2c816117e6565b9050919050565b6000602082019050611a486000830184611827565b92915050565b6000606082019050611a636000830186611827565b8181036020830152611a758185611605565b9050611a846040830184611827565b949350505050565b6000604082019050611aa16000830185611827565b611aae6020830184611663565b9392505050565b6000606082019050611aca6000830186611827565b611ad76020830185611663565b8181036040830152611ae98184611605565b9050949350505050565b6000604082019050611b086000830185611827565b611b156020830184611836565b9392505050565b6000602082019050611b316000830184611836565b92915050565b6000606082019050611b4c6000830186611836565b611b596020830185611809565b611b666040830184611836565b949350505050565b6000611b78611b89565b9050611b848282611d35565b919050565b6000604051905090565b600067ffffffffffffffff821115611bae57611bad611e24565b5b602082029050602081019050919050565b6000819050602082019050919050565b600081519050919050565b600081519050919050565b6000602082019050919050565b600082825260208201905092915050565b600082825260208201905092915050565b600081905092915050565b600082825260208201905092915050565b6000611c3b82611ce8565b9150611c4683611ce8565b9250817fffffffffffffffffffffffffffffffffffffffffffffffffffffffffffffffff0483118215151615611c7f57611c7e611d97565b5b828202905092915050565b6000611c9582611cc8565b9050919050565b6000611ca782611cc8565b9050919050565b60008115159050919050565b600061ffff82169050919050565b600073ffffffffffffffffffffffffffffffffffffffff82169050919050565b6000819050919050565b600063ffffffff82169050919050565b60005b83811015611d20578082015181840152602081019050611d05565b83811115611d2f576000848401525b50505050565b611d3e82611e67565b810181811067ffffffffffffffff82111715611d5d57611d5c611e24565b5b80604052505050565b6000611d7182611ce8565b9150611d7c83611ce8565b925082611d8c57611d8b611dc6565b5b828206905092915050565b7f4e487b7100000000000000000000000000000000000000000000000000000000600052601160045260246000fd5b7f4e487b7100000000000000000000000000000000000000000000000000000000600052601260045260246000fd5b7f4e487b7100000000000000000000000000000000000000000000000000000000600052603260045260246000fd5b7f4e487b7100000000000000000000000000000000000000000000000000000000600052604160045260246000fd5b600080fd5b600080fd5b600080fd5b600080fd5b6000601f19601f8301169050919050565b7f72657175657374206e6f7420666f756e64000000000000000000000000000000600082015250565b7f4d7573742062652070726f706f736564206f776e657200000000000000000000600082015250565b7f4f6e6c792063616c6c61626c65206279206f776e657200000000000000000000600082015250565b7f436173696e6f3a2057696e6e696e67207061796f7574206661696c6564000000600082015250565b7f42657420616e792076616c7565206265747765656e203120746f203600000000600082015250565b7f54686973206265742065786365656473206d6178696d756d20706f737369626c60008201527f6520626574000000000000000000000000000000000000000000000000000000602082015250565b7f556e61626c6520746f207472616e736665720000000000000000000000000000600082015250565b50565b7f43616e6e6f74207472616e7366657220746f2073656c66000000000000000000600082015250565b7f6f6e6c792056524620563220777261707065722063616e2066756c66696c6c00600082015250565b61201b81611c8a565b811461202657600080fd5b50565b61203281611cae565b811461203d57600080fd5b50565b61204981611ce8565b811461205457600080fd5b5056fea26469706673582212201605725b24d5154b9206dde5fa3739f849e1f3c9d945eebb1afea97f0188e6da64736f6c63430008070033",
					"opcodes": "PUSH1 0xC0 PUSH1 0x40 MSTORE PUSH3 0x186A0 PUSH1 0x5 PUSH1 0x0 PUSH2 0x100 EXP DUP2 SLOAD DUP2 PUSH4 0xFFFFFFFF MUL NOT AND SWAP1 DUP4 PUSH4 0xFFFFFFFF AND MUL OR SWAP1 SSTORE POP PUSH1 0x3 PUSH1 0x5 PUSH1 0x4 PUSH2 0x100 EXP DUP2 SLOAD DUP2 PUSH2 0xFFFF MUL NOT AND SWAP1 DUP4 PUSH2 0xFFFF AND MUL OR SWAP1 SSTORE POP PUSH1 0x2 PUSH1 0x5 PUSH1 0x6 PUSH2 0x100 EXP DUP2 SLOAD DUP2 PUSH4 0xFFFFFFFF MUL NOT AND SWAP1 DUP4 PUSH4 0xFFFFFFFF AND MUL OR SWAP1 SSTORE POP PUSH20 0x8AC089A6FC01A9F831858ACAE2BE7E32C23AE1C0 PUSH1 0x5 PUSH1 0xA PUSH2 0x100 EXP DUP2 SLOAD DUP2 PUSH20 0xFFFFFFFFFFFFFFFFFFFFFFFFFFFFFFFFFFFFFFFF MUL NOT AND SWAP1 DUP4 PUSH20 0xFFFFFFFFFFFFFFFFFFFFFFFFFFFFFFFFFFFFFFFF AND MUL OR SWAP1 SSTORE POP PUSH20 0x708701A1DFF4F478DE54383E49A627ED4852C816 PUSH1 0x6 PUSH1 0x0 PUSH2 0x100 EXP DUP2 SLOAD DUP2 PUSH20 0xFFFFFFFFFFFFFFFFFFFFFFFFFFFFFFFFFFFFFFFF MUL NOT AND SWAP1 DUP4 PUSH20 0xFFFFFFFFFFFFFFFFFFFFFFFFFFFFFFFFFFFFFFFF AND MUL OR SWAP1 SSTORE POP PUSH8 0xDE0B6B3A7640000 PUSH1 0x9 SSTORE PUSH2 0x3E8 PUSH1 0xA SSTORE CALLVALUE DUP1 ISZERO PUSH3 0x131 JUMPI PUSH1 0x0 DUP1 REVERT JUMPDEST POP CALLER DUP1 PUSH1 0x0 PUSH1 0x5 PUSH1 0xA SWAP1 SLOAD SWAP1 PUSH2 0x100 EXP SWAP1 DIV PUSH20 0xFFFFFFFFFFFFFFFFFFFFFFFFFFFFFFFFFFFFFFFF AND PUSH1 0x6 PUSH1 0x0 SWAP1 SLOAD SWAP1 PUSH2 0x100 EXP SWAP1 DIV PUSH20 0xFFFFFFFFFFFFFFFFFFFFFFFFFFFFFFFFFFFFFFFF AND DUP2 PUSH20 0xFFFFFFFFFFFFFFFFFFFFFFFFFFFFFFFFFFFFFFFF AND PUSH1 0x80 DUP2 PUSH20 0xFFFFFFFFFFFFFFFFFFFFFFFFFFFFFFFFFFFFFFFF AND PUSH1 0x60 SHL DUP2 MSTORE POP POP DUP1 PUSH20 0xFFFFFFFFFFFFFFFFFFFFFFFFFFFFFFFFFFFFFFFF AND PUSH1 0xA0 DUP2 PUSH20 0xFFFFFFFFFFFFFFFFFFFFFFFFFFFFFFFFFFFFFFFF AND PUSH1 0x60 SHL DUP2 MSTORE POP POP POP POP PUSH1 0x0 PUSH20 0xFFFFFFFFFFFFFFFFFFFFFFFFFFFFFFFFFFFFFFFF AND DUP3 PUSH20 0xFFFFFFFFFFFFFFFFFFFFFFFFFFFFFFFFFFFFFFFF AND EQ ISZERO PUSH3 0x25F JUMPI PUSH1 0x40 MLOAD PUSH32 0x8C379A000000000000000000000000000000000000000000000000000000000 DUP2 MSTORE PUSH1 0x4 ADD PUSH3 0x256 SWAP1 PUSH3 0x46D JUMP JUMPDEST PUSH1 0x40 MLOAD DUP1 SWAP2 SUB SWAP1 REVERT JUMPDEST DUP2 PUSH1 0x0 DUP1 PUSH2 0x100 EXP DUP2 SLOAD DUP2 PUSH20 0xFFFFFFFFFFFFFFFFFFFFFFFFFFFFFFFFFFFFFFFF MUL NOT AND SWAP1 DUP4 PUSH20 0xFFFFFFFFFFFFFFFFFFFFFFFFFFFFFFFFFFFFFFFF AND MUL OR SWAP1 SSTORE POP PUSH1 0x0 PUSH20 0xFFFFFFFFFFFFFFFFFFFFFFFFFFFFFFFFFFFFFFFF AND DUP2 PUSH20 0xFFFFFFFFFFFFFFFFFFFFFFFFFFFFFFFFFFFFFFFF AND EQ PUSH3 0x2E6 JUMPI PUSH3 0x2E5 DUP2 PUSH3 0x2EF PUSH1 0x20 SHL PUSH1 0x20 SHR JUMP JUMPDEST JUMPDEST POP POP POP PUSH3 0x514 JUMP JUMPDEST CALLER PUSH20 0xFFFFFFFFFFFFFFFFFFFFFFFFFFFFFFFFFFFFFFFF AND DUP2 PUSH20 0xFFFFFFFFFFFFFFFFFFFFFFFFFFFFFFFFFFFFFFFF AND EQ ISZERO PUSH3 0x361 JUMPI PUSH1 0x40 MLOAD PUSH32 0x8C379A000000000000000000000000000000000000000000000000000000000 DUP2 MSTORE PUSH1 0x4 ADD PUSH3 0x358 SWAP1 PUSH3 0x48F JUMP JUMPDEST PUSH1 0x40 MLOAD DUP1 SWAP2 SUB SWAP1 REVERT JUMPDEST DUP1 PUSH1 0x1 PUSH1 0x0 PUSH2 0x100 EXP DUP2 SLOAD DUP2 PUSH20 0xFFFFFFFFFFFFFFFFFFFFFFFFFFFFFFFFFFFFFFFF MUL NOT AND SWAP1 DUP4 PUSH20 0xFFFFFFFFFFFFFFFFFFFFFFFFFFFFFFFFFFFFFFFF AND MUL OR SWAP1 SSTORE POP DUP1 PUSH20 0xFFFFFFFFFFFFFFFFFFFFFFFFFFFFFFFFFFFFFFFF AND PUSH1 0x0 DUP1 SLOAD SWAP1 PUSH2 0x100 EXP SWAP1 DIV PUSH20 0xFFFFFFFFFFFFFFFFFFFFFFFFFFFFFFFFFFFFFFFF AND PUSH20 0xFFFFFFFFFFFFFFFFFFFFFFFFFFFFFFFFFFFFFFFF AND PUSH32 0xED8889F560326EB138920D842192F0EB3DD22B4F139C87A2C57538E05BAE1278 PUSH1 0x40 MLOAD PUSH1 0x40 MLOAD DUP1 SWAP2 SUB SWAP1 LOG3 POP JUMP JUMPDEST PUSH1 0x0 PUSH3 0x42E PUSH1 0x18 DUP4 PUSH3 0x4B1 JUMP JUMPDEST SWAP2 POP PUSH3 0x43B DUP3 PUSH3 0x4C2 JUMP JUMPDEST PUSH1 0x20 DUP3 ADD SWAP1 POP SWAP2 SWAP1 POP JUMP JUMPDEST PUSH1 0x0 PUSH3 0x455 PUSH1 0x17 DUP4 PUSH3 0x4B1 JUMP JUMPDEST SWAP2 POP PUSH3 0x462 DUP3 PUSH3 0x4EB JUMP JUMPDEST PUSH1 0x20 DUP3 ADD SWAP1 POP SWAP2 SWAP1 POP JUMP JUMPDEST PUSH1 0x0 PUSH1 0x20 DUP3 ADD SWAP1 POP DUP2 DUP2 SUB PUSH1 0x0 DUP4 ADD MSTORE PUSH3 0x488 DUP2 PUSH3 0x41F JUMP JUMPDEST SWAP1 POP SWAP2 SWAP1 POP JUMP JUMPDEST PUSH1 0x0 PUSH1 0x20 DUP3 ADD SWAP1 POP DUP2 DUP2 SUB PUSH1 0x0 DUP4 ADD MSTORE PUSH3 0x4AA DUP2 PUSH3 0x446 JUMP JUMPDEST SWAP1 POP SWAP2 SWAP1 POP JUMP JUMPDEST PUSH1 0x0 DUP3 DUP3 MSTORE PUSH1 0x20 DUP3 ADD SWAP1 POP SWAP3 SWAP2 POP POP JUMP JUMPDEST PUSH32 0x43616E6E6F7420736574206F776E657220746F207A65726F0000000000000000 PUSH1 0x0 DUP3 ADD MSTORE POP JUMP JUMPDEST PUSH32 0x43616E6E6F74207472616E7366657220746F2073656C66000000000000000000 PUSH1 0x0 DUP3 ADD MSTORE POP JUMP JUMPDEST PUSH1 0x80 MLOAD PUSH1 0x60 SHR PUSH1 0xA0 MLOAD PUSH1 0x60 SHR PUSH2 0x208D PUSH3 0x55C PUSH1 0x0 CODECOPY PUSH1 0x0 DUP2 DUP2 PUSH2 0x350 ADD MSTORE DUP2 DUP2 PUSH2 0xD73 ADD MSTORE DUP2 DUP2 PUSH2 0x115F ADD MSTORE DUP2 DUP2 PUSH2 0x1180 ADD MSTORE PUSH2 0x12BE ADD MSTORE PUSH1 0x0 PUSH2 0x1123 ADD MSTORE PUSH2 0x208D PUSH1 0x0 RETURN INVALID PUSH1 0x80 PUSH1 0x40 MSTORE PUSH1 0x4 CALLDATASIZE LT PUSH2 0xDD JUMPI PUSH1 0x0 CALLDATALOAD PUSH1 0xE0 SHR DUP1 PUSH4 0x8DC654A2 GT PUSH2 0x7F JUMPI DUP1 PUSH4 0xC17BCDEE GT PUSH2 0x59 JUMPI DUP1 PUSH4 0xC17BCDEE EQ PUSH2 0x290 JUMPI DUP1 PUSH4 0xD8A4676F EQ PUSH2 0x2BB JUMPI DUP1 PUSH4 0xF2FDE38B EQ PUSH2 0x2FA JUMPI DUP1 PUSH4 0xFC2A88C3 EQ PUSH2 0x323 JUMPI PUSH2 0xDD JUMP JUMPDEST DUP1 PUSH4 0x8DC654A2 EQ PUSH2 0x210 JUMPI DUP1 PUSH4 0xA168FA89 EQ PUSH2 0x227 JUMPI DUP1 PUSH4 0xBFB3047F EQ PUSH2 0x265 JUMPI PUSH2 0xDD JUMP JUMPDEST DUP1 PUSH4 0x5873533D GT PUSH2 0xBB JUMPI DUP1 PUSH4 0x5873533D EQ PUSH2 0x175 JUMPI DUP1 PUSH4 0x79BA5097 EQ PUSH2 0x191 JUMPI DUP1 PUSH4 0x8796BA8C EQ PUSH2 0x1A8 JUMPI DUP1 PUSH4 0x8DA5CB5B EQ PUSH2 0x1E5 JUMPI PUSH2 0xDD JUMP JUMPDEST DUP1 PUSH4 0x1FE543E3 EQ PUSH2 0xE2 JUMPI DUP1 PUSH4 0x2E5B2168 EQ PUSH2 0x10B JUMPI DUP1 PUSH4 0x34461067 EQ PUSH2 0x136 JUMPI JUMPDEST PUSH1 0x0 DUP1 REVERT JUMPDEST CALLVALUE DUP1 ISZERO PUSH2 0xEE JUMPI PUSH1 0x0 DUP1 REVERT JUMPDEST POP PUSH2 0x109 PUSH1 0x4 DUP1 CALLDATASIZE SUB DUP2 ADD SWAP1 PUSH2 0x104 SWAP2 SWAP1 PUSH2 0x1573 JUMP JUMPDEST PUSH2 0x34E JUMP JUMPDEST STOP JUMPDEST CALLVALUE DUP1 ISZERO PUSH2 0x117 JUMPI PUSH1 0x0 DUP1 REVERT JUMPDEST POP PUSH2 0x120 PUSH2 0x3EA JUMP JUMPDEST PUSH1 0x40 MLOAD PUSH2 0x12D SWAP2 SWAP1 PUSH2 0x1A33 JUMP JUMPDEST PUSH1 0x40 MLOAD DUP1 SWAP2 SUB SWAP1 RETURN JUMPDEST CALLVALUE DUP1 ISZERO PUSH2 0x142 JUMPI PUSH1 0x0 DUP1 REVERT JUMPDEST POP PUSH2 0x15D PUSH1 0x4 DUP1 CALLDATASIZE SUB DUP2 ADD SWAP1 PUSH2 0x158 SWAP2 SWAP1 PUSH2 0x1519 JUMP JUMPDEST PUSH2 0x3F0 JUMP JUMPDEST PUSH1 0x40 MLOAD PUSH2 0x16C SWAP4 SWAP3 SWAP2 SWAP1 PUSH2 0x1875 JUMP JUMPDEST PUSH1 0x40 MLOAD DUP1 SWAP2 SUB SWAP1 RETURN JUMPDEST PUSH2 0x18F PUSH1 0x4 DUP1 CALLDATASIZE SUB DUP2 ADD SWAP1 PUSH2 0x18A SWAP2 SWAP1 PUSH2 0x1519 JUMP JUMPDEST PUSH2 0x43A JUMP JUMPDEST STOP JUMPDEST CALLVALUE DUP1 ISZERO PUSH2 0x19D JUMPI PUSH1 0x0 DUP1 REVERT JUMPDEST POP PUSH2 0x1A6 PUSH2 0x58D JUMP JUMPDEST STOP JUMPDEST CALLVALUE DUP1 ISZERO PUSH2 0x1B4 JUMPI PUSH1 0x0 DUP1 REVERT JUMPDEST POP PUSH2 0x1CF PUSH1 0x4 DUP1 CALLDATASIZE SUB DUP2 ADD SWAP1 PUSH2 0x1CA SWAP2 SWAP1 PUSH2 0x1519 JUMP JUMPDEST PUSH2 0x722 JUMP JUMPDEST PUSH1 0x40 MLOAD PUSH2 0x1DC SWAP2 SWAP1 PUSH2 0x1A33 JUMP JUMPDEST PUSH1 0x40 MLOAD DUP1 SWAP2 SUB SWAP1 RETURN JUMPDEST CALLVALUE DUP1 ISZERO PUSH2 0x1F1 JUMPI PUSH1 0x0 DUP1 REVERT JUMPDEST POP PUSH2 0x1FA PUSH2 0x746 JUMP JUMPDEST PUSH1 0x40 MLOAD PUSH2 0x207 SWAP2 SWAP1 PUSH2 0x185A JUMP JUMPDEST PUSH1 0x40 MLOAD DUP1 SWAP2 SUB SWAP1 RETURN JUMPDEST CALLVALUE DUP1 ISZERO PUSH2 0x21C JUMPI PUSH1 0x0 DUP1 REVERT JUMPDEST POP PUSH2 0x225 PUSH2 0x76F JUMP JUMPDEST STOP JUMPDEST CALLVALUE DUP1 ISZERO PUSH2 0x233 JUMPI PUSH1 0x0 DUP1 REVERT JUMPDEST POP PUSH2 0x24E PUSH1 0x4 DUP1 CALLDATASIZE SUB DUP2 ADD SWAP1 PUSH2 0x249 SWAP2 SWAP1 PUSH2 0x1519 JUMP JUMPDEST PUSH2 0x8F5 JUMP JUMPDEST PUSH1 0x40 MLOAD PUSH2 0x25C SWAP3 SWAP2 SWAP1 PUSH2 0x1A8C JUMP JUMPDEST PUSH1 0x40 MLOAD DUP1 SWAP2 SUB SWAP1 RETURN JUMPDEST CALLVALUE DUP1 ISZERO PUSH2 0x271 JUMPI PUSH1 0x0 DUP1 REVERT JUMPDEST POP PUSH2 0x27A PUSH2 0x926 JUMP JUMPDEST PUSH1 0x40 MLOAD PUSH2 0x287 SWAP2 SWAP1 PUSH2 0x1A33 JUMP JUMPDEST PUSH1 0x40 MLOAD DUP1 SWAP2 SUB SWAP1 RETURN JUMPDEST CALLVALUE DUP1 ISZERO PUSH2 0x29C JUMPI PUSH1 0x0 DUP1 REVERT JUMPDEST POP PUSH2 0x2A5 PUSH2 0x92C JUMP JUMPDEST PUSH1 0x40 MLOAD PUSH2 0x2B2 SWAP2 SWAP1 PUSH2 0x1A33 JUMP JUMPDEST PUSH1 0x40 MLOAD DUP1 SWAP2 SUB SWAP1 RETURN JUMPDEST CALLVALUE DUP1 ISZERO PUSH2 0x2C7 JUMPI PUSH1 0x0 DUP1 REVERT JUMPDEST POP PUSH2 0x2E2 PUSH1 0x4 DUP1 CALLDATASIZE SUB DUP2 ADD SWAP1 PUSH2 0x2DD SWAP2 SWAP1 PUSH2 0x1519 JUMP JUMPDEST PUSH2 0x932 JUMP JUMPDEST PUSH1 0x40 MLOAD PUSH2 0x2F1 SWAP4 SWAP3 SWAP2 SWAP1 PUSH2 0x1AB5 JUMP JUMPDEST PUSH1 0x40 MLOAD DUP1 SWAP2 SUB SWAP1 RETURN JUMPDEST CALLVALUE DUP1 ISZERO PUSH2 0x306 JUMPI PUSH1 0x0 DUP1 REVERT JUMPDEST POP PUSH2 0x321 PUSH1 0x4 DUP1 CALLDATASIZE SUB DUP2 ADD SWAP1 PUSH2 0x31C SWAP2 SWAP1 PUSH2 0x14BF JUMP JUMPDEST PUSH2 0xA4C JUMP JUMPDEST STOP JUMPDEST CALLVALUE DUP1 ISZERO PUSH2 0x32F JUMPI PUSH1 0x0 DUP1 REVERT JUMPDEST POP PUSH2 0x338 PUSH2 0xA60 JUMP JUMPDEST PUSH1 0x40 MLOAD PUSH2 0x345 SWAP2 SWAP1 PUSH2 0x1A33 JUMP JUMPDEST PUSH1 0x40 MLOAD DUP1 SWAP2 SUB SWAP1 RETURN JUMPDEST PUSH32 0x0 PUSH20 0xFFFFFFFFFFFFFFFFFFFFFFFFFFFFFFFFFFFFFFFF AND CALLER PUSH20 0xFFFFFFFFFFFFFFFFFFFFFFFFFFFFFFFFFFFFFFFF AND EQ PUSH2 0x3DC JUMPI PUSH1 0x40 MLOAD PUSH32 0x8C379A000000000000000000000000000000000000000000000000000000000 DUP2 MSTORE PUSH1 0x4 ADD PUSH2 0x3D3 SWAP1 PUSH2 0x1A13 JUMP JUMPDEST PUSH1 0x40 MLOAD DUP1 SWAP2 SUB SWAP1 REVERT JUMPDEST PUSH2 0x3E6 DUP3 DUP3 PUSH2 0xA66 JUMP JUMPDEST POP POP JUMP JUMPDEST PUSH1 0x9 SLOAD DUP2 JUMP JUMPDEST PUSH1 0x7 PUSH1 0x20 MSTORE DUP1 PUSH1 0x0 MSTORE PUSH1 0x40 PUSH1 0x0 KECCAK256 PUSH1 0x0 SWAP2 POP SWAP1 POP DUP1 PUSH1 0x0 ADD PUSH1 0x0 SWAP1 SLOAD SWAP1 PUSH2 0x100 EXP SWAP1 DIV PUSH20 0xFFFFFFFFFFFFFFFFFFFFFFFFFFFFFFFFFFFFFFFF AND SWAP1 DUP1 PUSH1 0x1 ADD SLOAD SWAP1 DUP1 PUSH1 0x2 ADD SLOAD SWAP1 POP DUP4 JUMP JUMPDEST PUSH1 0x9 SLOAD CALLVALUE GT ISZERO PUSH2 0x47F JUMPI PUSH1 0x40 MLOAD PUSH32 0x8C379A000000000000000000000000000000000000000000000000000000000 DUP2 MSTORE PUSH1 0x4 ADD PUSH2 0x476 SWAP1 PUSH2 0x19B3 JUMP JUMPDEST PUSH1 0x40 MLOAD DUP1 SWAP2 SUB SWAP1 REVERT JUMPDEST PUSH1 0x6 DUP2 GT ISZERO DUP1 ISZERO PUSH2 0x490 JUMPI POP PUSH1 0x0 DUP2 GT JUMPDEST PUSH2 0x4CF JUMPI PUSH1 0x40 MLOAD PUSH32 0x8C379A000000000000000000000000000000000000000000000000000000000 DUP2 MSTORE PUSH1 0x4 ADD PUSH2 0x4C6 SWAP1 PUSH2 0x1993 JUMP JUMPDEST PUSH1 0x40 MLOAD DUP1 SWAP2 SUB SWAP1 REVERT JUMPDEST PUSH1 0x0 CALLER SWAP1 POP PUSH1 0x0 PUSH2 0x4DE PUSH2 0xD1B JUMP JUMPDEST SWAP1 POP PUSH1 0x0 PUSH1 0x40 MLOAD DUP1 PUSH1 0x60 ADD PUSH1 0x40 MSTORE DUP1 DUP5 PUSH20 0xFFFFFFFFFFFFFFFFFFFFFFFFFFFFFFFFFFFFFFFF AND DUP2 MSTORE PUSH1 0x20 ADD DUP6 DUP2 MSTORE PUSH1 0x20 ADD CALLVALUE DUP2 MSTORE POP SWAP1 POP DUP1 PUSH1 0x7 PUSH1 0x0 DUP5 DUP2 MSTORE PUSH1 0x20 ADD SWAP1 DUP2 MSTORE PUSH1 0x20 ADD PUSH1 0x0 KECCAK256 PUSH1 0x0 DUP3 ADD MLOAD DUP2 PUSH1 0x0 ADD PUSH1 0x0 PUSH2 0x100 EXP DUP2 SLOAD DUP2 PUSH20 0xFFFFFFFFFFFFFFFFFFFFFFFFFFFFFFFFFFFFFFFF MUL NOT AND SWAP1 DUP4 PUSH20 0xFFFFFFFFFFFFFFFFFFFFFFFFFFFFFFFFFFFFFFFF AND MUL OR SWAP1 SSTORE POP PUSH1 0x20 DUP3 ADD MLOAD DUP2 PUSH1 0x1 ADD SSTORE PUSH1 0x40 DUP3 ADD MLOAD DUP2 PUSH1 0x2 ADD SSTORE SWAP1 POP POP POP POP POP POP JUMP JUMPDEST PUSH1 0x1 PUSH1 0x0 SWAP1 SLOAD SWAP1 PUSH2 0x100 EXP SWAP1 DIV PUSH20 0xFFFFFFFFFFFFFFFFFFFFFFFFFFFFFFFFFFFFFFFF AND PUSH20 0xFFFFFFFFFFFFFFFFFFFFFFFFFFFFFFFFFFFFFFFF AND CALLER PUSH20 0xFFFFFFFFFFFFFFFFFFFFFFFFFFFFFFFFFFFFFFFF AND EQ PUSH2 0x61D JUMPI PUSH1 0x40 MLOAD PUSH32 0x8C379A000000000000000000000000000000000000000000000000000000000 DUP2 MSTORE PUSH1 0x4 ADD PUSH2 0x614 SWAP1 PUSH2 0x1933 JUMP JUMPDEST PUSH1 0x40 MLOAD DUP1 SWAP2 SUB SWAP1 REVERT JUMPDEST PUSH1 0x0 DUP1 PUSH1 0x0 SWAP1 SLOAD SWAP1 PUSH2 0x100 EXP SWAP1 DIV PUSH20 0xFFFFFFFFFFFFFFFFFFFFFFFFFFFFFFFFFFFFFFFF AND SWAP1 POP CALLER PUSH1 0x0 DUP1 PUSH2 0x100 EXP DUP2 SLOAD DUP2 PUSH20 0xFFFFFFFFFFFFFFFFFFFFFFFFFFFFFFFFFFFFFFFF MUL NOT AND SWAP1 DUP4 PUSH20 0xFFFFFFFFFFFFFFFFFFFFFFFFFFFFFFFFFFFFFFFF AND MUL OR SWAP1 SSTORE POP PUSH1 0x0 PUSH1 0x1 PUSH1 0x0 PUSH2 0x100 EXP DUP2 SLOAD DUP2 PUSH20 0xFFFFFFFFFFFFFFFFFFFFFFFFFFFFFFFFFFFFFFFF MUL NOT AND SWAP1 DUP4 PUSH20 0xFFFFFFFFFFFFFFFFFFFFFFFFFFFFFFFFFFFFFFFF AND MUL OR SWAP1 SSTORE POP CALLER PUSH20 0xFFFFFFFFFFFFFFFFFFFFFFFFFFFFFFFFFFFFFFFF AND DUP2 PUSH20 0xFFFFFFFFFFFFFFFFFFFFFFFFFFFFFFFFFFFFFFFF AND PUSH32 0x8BE0079C531659141344CD1FD0A4F28419497F9722A3DAAFE3B4186F6B6457E0 PUSH1 0x40 MLOAD PUSH1 0x40 MLOAD DUP1 SWAP2 SUB SWAP1 LOG3 POP JUMP JUMPDEST PUSH1 0x3 DUP2 DUP2 SLOAD DUP2 LT PUSH2 0x732 JUMPI PUSH1 0x0 DUP1 REVERT JUMPDEST SWAP1 PUSH1 0x0 MSTORE PUSH1 0x20 PUSH1 0x0 KECCAK256 ADD PUSH1 0x0 SWAP2 POP SWAP1 POP SLOAD DUP2 JUMP JUMPDEST PUSH1 0x0 DUP1 PUSH1 0x0 SWAP1 SLOAD SWAP1 PUSH2 0x100 EXP SWAP1 DIV PUSH20 0xFFFFFFFFFFFFFFFFFFFFFFFFFFFFFFFFFFFFFFFF AND SWAP1 POP SWAP1 JUMP JUMPDEST PUSH2 0x777 PUSH2 0xF62 JUMP JUMPDEST PUSH1 0x0 PUSH1 0x5 PUSH1 0xA SWAP1 SLOAD SWAP1 PUSH2 0x100 EXP SWAP1 DIV PUSH20 0xFFFFFFFFFFFFFFFFFFFFFFFFFFFFFFFFFFFFFFFF AND SWAP1 POP DUP1 PUSH20 0xFFFFFFFFFFFFFFFFFFFFFFFFFFFFFFFFFFFFFFFF AND PUSH4 0xA9059CBB CALLER DUP4 PUSH20 0xFFFFFFFFFFFFFFFFFFFFFFFFFFFFFFFFFFFFFFFF AND PUSH4 0x70A08231 ADDRESS PUSH1 0x40 MLOAD DUP3 PUSH4 0xFFFFFFFF AND PUSH1 0xE0 SHL DUP2 MSTORE PUSH1 0x4 ADD PUSH2 0x7F4 SWAP2 SWAP1 PUSH2 0x185A JUMP JUMPDEST PUSH1 0x20 PUSH1 0x40 MLOAD DUP1 DUP4 SUB DUP2 DUP7 DUP1 EXTCODESIZE ISZERO DUP1 ISZERO PUSH2 0x80C JUMPI PUSH1 0x0 DUP1 REVERT JUMPDEST POP GAS STATICCALL ISZERO DUP1 ISZERO PUSH2 0x820 JUMPI RETURNDATASIZE PUSH1 0x0 DUP1 RETURNDATACOPY RETURNDATASIZE PUSH1 0x0 REVERT JUMPDEST POP POP POP POP PUSH1 0x40 MLOAD RETURNDATASIZE PUSH1 0x1F NOT PUSH1 0x1F DUP3 ADD AND DUP3 ADD DUP1 PUSH1 0x40 MSTORE POP DUP2 ADD SWAP1 PUSH2 0x844 SWAP2 SWAP1 PUSH2 0x1546 JUMP JUMPDEST PUSH1 0x40 MLOAD DUP4 PUSH4 0xFFFFFFFF AND PUSH1 0xE0 SHL DUP2 MSTORE PUSH1 0x4 ADD PUSH2 0x861 SWAP3 SWAP2 SWAP1 PUSH2 0x18AC JUMP JUMPDEST PUSH1 0x20 PUSH1 0x40 MLOAD DUP1 DUP4 SUB DUP2 PUSH1 0x0 DUP8 DUP1 EXTCODESIZE ISZERO DUP1 ISZERO PUSH2 0x87B JUMPI PUSH1 0x0 DUP1 REVERT JUMPDEST POP GAS CALL ISZERO DUP1 ISZERO PUSH2 0x88F JUMPI RETURNDATASIZE PUSH1 0x0 DUP1 RETURNDATACOPY RETURNDATASIZE PUSH1 0x0 REVERT JUMPDEST POP POP POP POP PUSH1 0x40 MLOAD RETURNDATASIZE PUSH1 0x1F NOT PUSH1 0x1F DUP3 ADD AND DUP3 ADD DUP1 PUSH1 0x40 MSTORE POP DUP2 ADD SWAP1 PUSH2 0x8B3 SWAP2 SWAP1 PUSH2 0x14EC JUMP JUMPDEST PUSH2 0x8F2 JUMPI PUSH1 0x40 MLOAD PUSH32 0x8C379A000000000000000000000000000000000000000000000000000000000 DUP2 MSTORE PUSH1 0x4 ADD PUSH2 0x8E9 SWAP1 PUSH2 0x19D3 JUMP JUMPDEST PUSH1 0x40 MLOAD DUP1 SWAP2 SUB SWAP1 REVERT JUMPDEST POP JUMP JUMPDEST PUSH1 0x2 PUSH1 0x20 MSTORE DUP1 PUSH1 0x0 MSTORE PUSH1 0x40 PUSH1 0x0 KECCAK256 PUSH1 0x0 SWAP2 POP SWAP1 POP DUP1 PUSH1 0x0 ADD SLOAD SWAP1 DUP1 PUSH1 0x1 ADD PUSH1 0x0 SWAP1 SLOAD SWAP1 PUSH2 0x100 EXP SWAP1 DIV PUSH1 0xFF AND SWAP1 POP DUP3 JUMP JUMPDEST PUSH1 0x8 SLOAD DUP2 JUMP JUMPDEST PUSH1 0xA SLOAD DUP2 JUMP JUMPDEST PUSH1 0x0 DUP1 PUSH1 0x60 PUSH1 0x0 PUSH1 0x2 PUSH1 0x0 DUP7 DUP2 MSTORE PUSH1 0x20 ADD SWAP1 DUP2 MSTORE PUSH1 0x20 ADD PUSH1 0x0 KECCAK256 PUSH1 0x0 ADD SLOAD GT PUSH2 0x990 JUMPI PUSH1 0x40 MLOAD PUSH32 0x8C379A000000000000000000000000000000000000000000000000000000000 DUP2 MSTORE PUSH1 0x4 ADD PUSH2 0x987 SWAP1 PUSH2 0x1913 JUMP JUMPDEST PUSH1 0x40 MLOAD DUP1 SWAP2 SUB SWAP1 REVERT JUMPDEST PUSH1 0x0 PUSH1 0x2 PUSH1 0x0 DUP7 DUP2 MSTORE PUSH1 0x20 ADD SWAP1 DUP2 MSTORE PUSH1 0x20 ADD PUSH1 0x0 KECCAK256 PUSH1 0x40 MLOAD DUP1 PUSH1 0x60 ADD PUSH1 0x40 MSTORE SWAP1 DUP2 PUSH1 0x0 DUP3 ADD SLOAD DUP2 MSTORE PUSH1 0x20 ADD PUSH1 0x1 DUP3 ADD PUSH1 0x0 SWAP1 SLOAD SWAP1 PUSH2 0x100 EXP SWAP1 DIV PUSH1 0xFF AND ISZERO ISZERO ISZERO ISZERO DUP2 MSTORE PUSH1 0x20 ADD PUSH1 0x2 DUP3 ADD DUP1 SLOAD DUP1 PUSH1 0x20 MUL PUSH1 0x20 ADD PUSH1 0x40 MLOAD SWAP1 DUP2 ADD PUSH1 0x40 MSTORE DUP1 SWAP3 SWAP2 SWAP1 DUP2 DUP2 MSTORE PUSH1 0x20 ADD DUP3 DUP1 SLOAD DUP1 ISZERO PUSH2 0xA24 JUMPI PUSH1 0x20 MUL DUP3 ADD SWAP2 SWAP1 PUSH1 0x0 MSTORE PUSH1 0x20 PUSH1 0x0 KECCAK256 SWAP1 JUMPDEST DUP2 SLOAD DUP2 MSTORE PUSH1 0x20 ADD SWAP1 PUSH1 0x1 ADD SWAP1 DUP1 DUP4 GT PUSH2 0xA10 JUMPI JUMPDEST POP POP POP POP POP DUP2 MSTORE POP POP SWAP1 POP DUP1 PUSH1 0x0 ADD MLOAD DUP2 PUSH1 0x20 ADD MLOAD DUP3 PUSH1 0x40 ADD MLOAD SWAP4 POP SWAP4 POP SWAP4 POP POP SWAP2 SWAP4 SWAP1 SWAP3 POP JUMP JUMPDEST PUSH2 0xA54 PUSH2 0xF62 JUMP JUMPDEST PUSH2 0xA5D DUP2 PUSH2 0xFF2 JUMP JUMPDEST POP JUMP JUMPDEST PUSH1 0x4 SLOAD DUP2 JUMP JUMPDEST PUSH1 0x0 PUSH1 0x2 PUSH1 0x0 DUP5 DUP2 MSTORE PUSH1 0x20 ADD SWAP1 DUP2 MSTORE PUSH1 0x20 ADD PUSH1 0x0 KECCAK256 PUSH1 0x0 ADD SLOAD GT PUSH2 0xABF JUMPI PUSH1 0x40 MLOAD PUSH32 0x8C379A000000000000000000000000000000000000000000000000000000000 DUP2 MSTORE PUSH1 0x4 ADD PUSH2 0xAB6 SWAP1 PUSH2 0x1913 JUMP JUMPDEST PUSH1 0x40 MLOAD DUP1 SWAP2 SUB SWAP1 REVERT JUMPDEST PUSH1 0x1 PUSH1 0x2 PUSH1 0x0 DUP5 DUP2 MSTORE PUSH1 0x20 ADD SWAP1 DUP2 MSTORE PUSH1 0x20 ADD PUSH1 0x0 KECCAK256 PUSH1 0x1 ADD PUSH1 0x0 PUSH2 0x100 EXP DUP2 SLOAD DUP2 PUSH1 0xFF MUL NOT AND SWAP1 DUP4 ISZERO ISZERO MUL OR SWAP1 SSTORE POP DUP1 PUSH1 0x2 PUSH1 0x0 DUP5 DUP2 MSTORE PUSH1 0x20 ADD SWAP1 DUP2 MSTORE PUSH1 0x20 ADD PUSH1 0x0 KECCAK256 PUSH1 0x2 ADD SWAP1 DUP1 MLOAD SWAP1 PUSH1 0x20 ADD SWAP1 PUSH2 0xB18 SWAP3 SWAP2 SWAP1 PUSH2 0x1363 JUMP JUMPDEST POP PUSH32 0x147EB1FF0C82F87F2B03E2C43F5A36488FF63EC6B730195FDE4605F612F8DB51 DUP3 DUP3 PUSH1 0x2 PUSH1 0x0 DUP7 DUP2 MSTORE PUSH1 0x20 ADD SWAP1 DUP2 MSTORE PUSH1 0x20 ADD PUSH1 0x0 KECCAK256 PUSH1 0x0 ADD SLOAD PUSH1 0x40 MLOAD PUSH2 0xB62 SWAP4 SWAP3 SWAP2 SWAP1 PUSH2 0x1A4E JUMP JUMPDEST PUSH1 0x40 MLOAD DUP1 SWAP2 SUB SWAP1 LOG1 PUSH1 0x0 DUP2 PUSH1 0x0 DUP2 MLOAD DUP2 LT PUSH2 0xB80 JUMPI PUSH2 0xB7F PUSH2 0x1DF5 JUMP JUMPDEST JUMPDEST PUSH1 0x20 MUL PUSH1 0x20 ADD ADD MLOAD SWAP1 POP PUSH1 0x0 PUSH1 0x7 PUSH1 0x0 DUP6 DUP2 MSTORE PUSH1 0x20 ADD SWAP1 DUP2 MSTORE PUSH1 0x20 ADD PUSH1 0x0 KECCAK256 PUSH1 0x40 MLOAD DUP1 PUSH1 0x60 ADD PUSH1 0x40 MSTORE SWAP1 DUP2 PUSH1 0x0 DUP3 ADD PUSH1 0x0 SWAP1 SLOAD SWAP1 PUSH2 0x100 EXP SWAP1 DIV PUSH20 0xFFFFFFFFFFFFFFFFFFFFFFFFFFFFFFFFFFFFFFFF AND PUSH20 0xFFFFFFFFFFFFFFFFFFFFFFFFFFFFFFFFFFFFFFFF AND PUSH20 0xFFFFFFFFFFFFFFFFFFFFFFFFFFFFFFFFFFFFFFFF AND DUP2 MSTORE PUSH1 0x20 ADD PUSH1 0x1 DUP3 ADD SLOAD DUP2 MSTORE PUSH1 0x20 ADD PUSH1 0x2 DUP3 ADD SLOAD DUP2 MSTORE POP POP SWAP1 POP PUSH1 0x0 DUP2 PUSH1 0x40 ADD MLOAD SWAP1 POP PUSH1 0x0 DUP3 PUSH1 0x20 ADD MLOAD SWAP1 POP PUSH1 0x0 DUP4 PUSH1 0x0 ADD MLOAD SWAP1 POP PUSH1 0x0 PUSH1 0x6 DUP7 PUSH2 0xC40 SWAP2 SWAP1 PUSH2 0x1D66 JUMP JUMPDEST SWAP1 POP DUP1 PUSH1 0x8 DUP2 SWAP1 SSTORE POP DUP3 DUP2 EQ ISZERO PUSH2 0xD11 JUMPI PUSH1 0x0 PUSH1 0x2 DUP6 PUSH2 0xC60 SWAP2 SWAP1 PUSH2 0x1C30 JUMP JUMPDEST SWAP1 POP PUSH1 0x0 DUP4 PUSH20 0xFFFFFFFFFFFFFFFFFFFFFFFFFFFFFFFFFFFFFFFF AND DUP3 PUSH1 0x40 MLOAD PUSH2 0xC88 SWAP1 PUSH2 0x1845 JUMP JUMPDEST PUSH1 0x0 PUSH1 0x40 MLOAD DUP1 DUP4 SUB DUP2 DUP6 DUP8 GAS CALL SWAP3 POP POP POP RETURNDATASIZE DUP1 PUSH1 0x0 DUP2 EQ PUSH2 0xCC5 JUMPI PUSH1 0x40 MLOAD SWAP2 POP PUSH1 0x1F NOT PUSH1 0x3F RETURNDATASIZE ADD AND DUP3 ADD PUSH1 0x40 MSTORE RETURNDATASIZE DUP3 MSTORE RETURNDATASIZE PUSH1 0x0 PUSH1 0x20 DUP5 ADD RETURNDATACOPY PUSH2 0xCCA JUMP JUMPDEST PUSH1 0x60 SWAP2 POP JUMPDEST POP POP SWAP1 POP DUP1 PUSH2 0xD0E JUMPI PUSH1 0x40 MLOAD PUSH32 0x8C379A000000000000000000000000000000000000000000000000000000000 DUP2 MSTORE PUSH1 0x4 ADD PUSH2 0xD05 SWAP1 PUSH2 0x1973 JUMP JUMPDEST PUSH1 0x40 MLOAD DUP1 SWAP2 SUB SWAP1 REVERT JUMPDEST POP POP JUMPDEST POP POP POP POP POP POP POP POP JUMP JUMPDEST PUSH1 0x0 PUSH2 0xD25 PUSH2 0xF62 JUMP JUMPDEST PUSH2 0xD64 PUSH1 0x5 PUSH1 0x0 SWAP1 SLOAD SWAP1 PUSH2 0x100 EXP SWAP1 DIV PUSH4 0xFFFFFFFF AND PUSH1 0x5 PUSH1 0x4 SWAP1 SLOAD SWAP1 PUSH2 0x100 EXP SWAP1 DIV PUSH2 0xFFFF AND PUSH1 0x5 PUSH1 0x6 SWAP1 SLOAD SWAP1 PUSH2 0x100 EXP SWAP1 DIV PUSH4 0xFFFFFFFF AND PUSH2 0x111F JUMP JUMPDEST SWAP1 POP PUSH1 0x40 MLOAD DUP1 PUSH1 0x60 ADD PUSH1 0x40 MSTORE DUP1 PUSH32 0x0 PUSH20 0xFFFFFFFFFFFFFFFFFFFFFFFFFFFFFFFFFFFFFFFF AND PUSH4 0x4306D354 PUSH1 0x5 PUSH1 0x0 SWAP1 SLOAD SWAP1 PUSH2 0x100 EXP SWAP1 DIV PUSH4 0xFFFFFFFF AND PUSH1 0x40 MLOAD DUP3 PUSH4 0xFFFFFFFF AND PUSH1 0xE0 SHL DUP2 MSTORE PUSH1 0x4 ADD PUSH2 0xDDC SWAP2 SWAP1 PUSH2 0x1B1C JUMP JUMPDEST PUSH1 0x20 PUSH1 0x40 MLOAD DUP1 DUP4 SUB DUP2 DUP7 DUP1 EXTCODESIZE ISZERO DUP1 ISZERO PUSH2 0xDF4 JUMPI PUSH1 0x0 DUP1 REVERT JUMPDEST POP GAS STATICCALL ISZERO DUP1 ISZERO PUSH2 0xE08 JUMPI RETURNDATASIZE PUSH1 0x0 DUP1 RETURNDATACOPY RETURNDATASIZE PUSH1 0x0 REVERT JUMPDEST POP POP POP POP PUSH1 0x40 MLOAD RETURNDATASIZE PUSH1 0x1F NOT PUSH1 0x1F DUP3 ADD AND DUP3 ADD DUP1 PUSH1 0x40 MSTORE POP DUP2 ADD SWAP1 PUSH2 0xE2C SWAP2 SWAP1 PUSH2 0x1546 JUMP JUMPDEST DUP2 MSTORE PUSH1 0x20 ADD PUSH1 0x0 ISZERO ISZERO DUP2 MSTORE PUSH1 0x20 ADD PUSH1 0x0 PUSH8 0xFFFFFFFFFFFFFFFF DUP2 GT ISZERO PUSH2 0xE55 JUMPI PUSH2 0xE54 PUSH2 0x1E24 JUMP JUMPDEST JUMPDEST PUSH1 0x40 MLOAD SWAP1 DUP1 DUP3 MSTORE DUP1 PUSH1 0x20 MUL PUSH1 0x20 ADD DUP3 ADD PUSH1 0x40 MSTORE DUP1 ISZERO PUSH2 0xE83 JUMPI DUP2 PUSH1 0x20 ADD PUSH1 0x20 DUP3 MUL DUP1 CALLDATASIZE DUP4 CALLDATACOPY DUP1 DUP3 ADD SWAP2 POP POP SWAP1 POP JUMPDEST POP DUP2 MSTORE POP PUSH1 0x2 PUSH1 0x0 DUP4 DUP2 MSTORE PUSH1 0x20 ADD SWAP1 DUP2 MSTORE PUSH1 0x20 ADD PUSH1 0x0 KECCAK256 PUSH1 0x0 DUP3 ADD MLOAD DUP2 PUSH1 0x0 ADD SSTORE PUSH1 0x20 DUP3 ADD MLOAD DUP2 PUSH1 0x1 ADD PUSH1 0x0 PUSH2 0x100 EXP DUP2 SLOAD DUP2 PUSH1 0xFF MUL NOT AND SWAP1 DUP4 ISZERO ISZERO MUL OR SWAP1 SSTORE POP PUSH1 0x40 DUP3 ADD MLOAD DUP2 PUSH1 0x2 ADD SWAP1 DUP1 MLOAD SWAP1 PUSH1 0x20 ADD SWAP1 PUSH2 0xEE0 SWAP3 SWAP2 SWAP1 PUSH2 0x1363 JUMP JUMPDEST POP SWAP1 POP POP PUSH1 0x3 DUP2 SWAP1 DUP1 PUSH1 0x1 DUP2 SLOAD ADD DUP1 DUP3 SSTORE DUP1 SWAP2 POP POP PUSH1 0x1 SWAP1 SUB SWAP1 PUSH1 0x0 MSTORE PUSH1 0x20 PUSH1 0x0 KECCAK256 ADD PUSH1 0x0 SWAP1 SWAP2 SWAP1 SWAP2 SWAP1 SWAP2 POP SSTORE DUP1 PUSH1 0x4 DUP2 SWAP1 SSTORE POP PUSH32 0xCC58B13AD3EAB50626C6A6300B1D139CD6EBB1688A7CCED9461C2F7E762665EE DUP2 PUSH1 0x5 PUSH1 0x6 SWAP1 SLOAD SWAP1 PUSH2 0x100 EXP SWAP1 DIV PUSH4 0xFFFFFFFF AND PUSH1 0x40 MLOAD PUSH2 0xF57 SWAP3 SWAP2 SWAP1 PUSH2 0x1AF3 JUMP JUMPDEST PUSH1 0x40 MLOAD DUP1 SWAP2 SUB SWAP1 LOG1 SWAP1 JUMP JUMPDEST PUSH1 0x0 DUP1 SLOAD SWAP1 PUSH2 0x100 EXP SWAP1 DIV PUSH20 0xFFFFFFFFFFFFFFFFFFFFFFFFFFFFFFFFFFFFFFFF AND PUSH20 0xFFFFFFFFFFFFFFFFFFFFFFFFFFFFFFFFFFFFFFFF AND CALLER PUSH20 0xFFFFFFFFFFFFFFFFFFFFFFFFFFFFFFFFFFFFFFFF AND EQ PUSH2 0xFF0 JUMPI PUSH1 0x40 MLOAD PUSH32 0x8C379A000000000000000000000000000000000000000000000000000000000 DUP2 MSTORE PUSH1 0x4 ADD PUSH2 0xFE7 SWAP1 PUSH2 0x1953 JUMP JUMPDEST PUSH1 0x40 MLOAD DUP1 SWAP2 SUB SWAP1 REVERT JUMPDEST JUMP JUMPDEST CALLER PUSH20 0xFFFFFFFFFFFFFFFFFFFFFFFFFFFFFFFFFFFFFFFF AND DUP2 PUSH20 0xFFFFFFFFFFFFFFFFFFFFFFFFFFFFFFFFFFFFFFFF AND EQ ISZERO PUSH2 0x1061 JUMPI PUSH1 0x40 MLOAD PUSH32 0x8C379A000000000000000000000000000000000000000000000000000000000 DUP2 MSTORE PUSH1 0x4 ADD PUSH2 0x1058 SWAP1 PUSH2 0x19F3 JUMP JUMPDEST PUSH1 0x40 MLOAD DUP1 SWAP2 SUB SWAP1 REVERT JUMPDEST DUP1 PUSH1 0x1 PUSH1 0x0 PUSH2 0x100 EXP DUP2 SLOAD DUP2 PUSH20 0xFFFFFFFFFFFFFFFFFFFFFFFFFFFFFFFFFFFFFFFF MUL NOT AND SWAP1 DUP4 PUSH20 0xFFFFFFFFFFFFFFFFFFFFFFFFFFFFFFFFFFFFFFFF AND MUL OR SWAP1 SSTORE POP DUP1 PUSH20 0xFFFFFFFFFFFFFFFFFFFFFFFFFFFFFFFFFFFFFFFF AND PUSH1 0x0 DUP1 SLOAD SWAP1 PUSH2 0x100 EXP SWAP1 DIV PUSH20 0xFFFFFFFFFFFFFFFFFFFFFFFFFFFFFFFFFFFFFFFF AND PUSH20 0xFFFFFFFFFFFFFFFFFFFFFFFFFFFFFFFFFFFFFFFF AND PUSH32 0xED8889F560326EB138920D842192F0EB3DD22B4F139C87A2C57538E05BAE1278 PUSH1 0x40 MLOAD PUSH1 0x40 MLOAD DUP1 SWAP2 SUB SWAP1 LOG3 POP JUMP JUMPDEST PUSH1 0x0 PUSH32 0x0 PUSH20 0xFFFFFFFFFFFFFFFFFFFFFFFFFFFFFFFFFFFFFFFF AND PUSH4 0x4000AEA0 PUSH32 0x0 PUSH32 0x0 PUSH20 0xFFFFFFFFFFFFFFFFFFFFFFFFFFFFFFFFFFFFFFFF AND PUSH4 0x4306D354 DUP9 PUSH1 0x40 MLOAD DUP3 PUSH4 0xFFFFFFFF AND PUSH1 0xE0 SHL DUP2 MSTORE PUSH1 0x4 ADD PUSH2 0x11D7 SWAP2 SWAP1 PUSH2 0x1B1C JUMP JUMPDEST PUSH1 0x20 PUSH1 0x40 MLOAD DUP1 DUP4 SUB DUP2 DUP7 DUP1 EXTCODESIZE ISZERO DUP1 ISZERO PUSH2 0x11EF JUMPI PUSH1 0x0 DUP1 REVERT JUMPDEST POP GAS STATICCALL ISZERO DUP1 ISZERO PUSH2 0x1203 JUMPI RETURNDATASIZE PUSH1 0x0 DUP1 RETURNDATACOPY RETURNDATASIZE PUSH1 0x0 REVERT JUMPDEST POP POP POP POP PUSH1 0x40 MLOAD RETURNDATASIZE PUSH1 0x1F NOT PUSH1 0x1F DUP3 ADD AND DUP3 ADD DUP1 PUSH1 0x40 MSTORE POP DUP2 ADD SWAP1 PUSH2 0x1227 SWAP2 SWAP1 PUSH2 0x1546 JUMP JUMPDEST DUP8 DUP8 DUP8 PUSH1 0x40 MLOAD PUSH1 0x20 ADD PUSH2 0x123C SWAP4 SWAP3 SWAP2 SWAP1 PUSH2 0x1B37 JUMP JUMPDEST PUSH1 0x40 MLOAD PUSH1 0x20 DUP2 DUP4 SUB SUB DUP2 MSTORE SWAP1 PUSH1 0x40 MSTORE PUSH1 0x40 MLOAD DUP5 PUSH4 0xFFFFFFFF AND PUSH1 0xE0 SHL DUP2 MSTORE PUSH1 0x4 ADD PUSH2 0x1269 SWAP4 SWAP3 SWAP2 SWAP1 PUSH2 0x18D5 JUMP JUMPDEST PUSH1 0x20 PUSH1 0x40 MLOAD DUP1 DUP4 SUB DUP2 PUSH1 0x0 DUP8 DUP1 EXTCODESIZE ISZERO DUP1 ISZERO PUSH2 0x1283 JUMPI PUSH1 0x0 DUP1 REVERT JUMPDEST POP GAS CALL ISZERO DUP1 ISZERO PUSH2 0x1297 JUMPI RETURNDATASIZE PUSH1 0x0 DUP1 RETURNDATACOPY RETURNDATASIZE PUSH1 0x0 REVERT JUMPDEST POP POP POP POP PUSH1 0x40 MLOAD RETURNDATASIZE PUSH1 0x1F NOT PUSH1 0x1F DUP3 ADD AND DUP3 ADD DUP1 PUSH1 0x40 MSTORE POP DUP2 ADD SWAP1 PUSH2 0x12BB SWAP2 SWAP1 PUSH2 0x14EC JUMP JUMPDEST POP PUSH32 0x0 PUSH20 0xFFFFFFFFFFFFFFFFFFFFFFFFFFFFFFFFFFFFFFFF AND PUSH4 0xFC2A88C3 PUSH1 0x40 MLOAD DUP2 PUSH4 0xFFFFFFFF AND PUSH1 0xE0 SHL DUP2 MSTORE PUSH1 0x4 ADD PUSH1 0x20 PUSH1 0x40 MLOAD DUP1 DUP4 SUB DUP2 DUP7 DUP1 EXTCODESIZE ISZERO DUP1 ISZERO PUSH2 0x1322 JUMPI PUSH1 0x0 DUP1 REVERT JUMPDEST POP GAS STATICCALL ISZERO DUP1 ISZERO PUSH2 0x1336 JUMPI RETURNDATASIZE PUSH1 0x0 DUP1 RETURNDATACOPY RETURNDATASIZE PUSH1 0x0 REVERT JUMPDEST POP POP POP POP PUSH1 0x40 MLOAD RETURNDATASIZE PUSH1 0x1F NOT PUSH1 0x1F DUP3 ADD AND DUP3 ADD DUP1 PUSH1 0x40 MSTORE POP DUP2 ADD SWAP1 PUSH2 0x135A SWAP2 SWAP1 PUSH2 0x1546 JUMP JUMPDEST SWAP1 POP SWAP4 SWAP3 POP POP POP JUMP JUMPDEST DUP3 DUP1 SLOAD DUP3 DUP3 SSTORE SWAP1 PUSH1 0x0 MSTORE PUSH1 0x20 PUSH1 0x0 KECCAK256 SWAP1 DUP2 ADD SWAP3 DUP3 ISZERO PUSH2 0x139F JUMPI SWAP2 PUSH1 0x20 MUL DUP3 ADD JUMPDEST DUP3 DUP2 GT ISZERO PUSH2 0x139E JUMPI DUP3 MLOAD DUP3 SSTORE SWAP2 PUSH1 0x20 ADD SWAP2 SWAP1 PUSH1 0x1 ADD SWAP1 PUSH2 0x1383 JUMP JUMPDEST JUMPDEST POP SWAP1 POP PUSH2 0x13AC SWAP2 SWAP1 PUSH2 0x13B0 JUMP JUMPDEST POP SWAP1 JUMP JUMPDEST JUMPDEST DUP1 DUP3 GT ISZERO PUSH2 0x13C9 JUMPI PUSH1 0x0 DUP2 PUSH1 0x0 SWAP1 SSTORE POP PUSH1 0x1 ADD PUSH2 0x13B1 JUMP JUMPDEST POP SWAP1 JUMP JUMPDEST PUSH1 0x0 PUSH2 0x13E0 PUSH2 0x13DB DUP5 PUSH2 0x1B93 JUMP JUMPDEST PUSH2 0x1B6E JUMP JUMPDEST SWAP1 POP DUP1 DUP4 DUP3 MSTORE PUSH1 0x20 DUP3 ADD SWAP1 POP DUP3 DUP6 PUSH1 0x20 DUP7 MUL DUP3 ADD GT ISZERO PUSH2 0x1403 JUMPI PUSH2 0x1402 PUSH2 0x1E58 JUMP JUMPDEST JUMPDEST PUSH1 0x0 JUMPDEST DUP6 DUP2 LT ISZERO PUSH2 0x1433 JUMPI DUP2 PUSH2 0x1419 DUP9 DUP3 PUSH2 0x1495 JUMP JUMPDEST DUP5 MSTORE PUSH1 0x20 DUP5 ADD SWAP4 POP PUSH1 0x20 DUP4 ADD SWAP3 POP POP PUSH1 0x1 DUP2 ADD SWAP1 POP PUSH2 0x1406 JUMP JUMPDEST POP POP POP SWAP4 SWAP3 POP POP POP JUMP JUMPDEST PUSH1 0x0 DUP2 CALLDATALOAD SWAP1 POP PUSH2 0x144C DUP2 PUSH2 0x2012 JUMP JUMPDEST SWAP3 SWAP2 POP POP JUMP JUMPDEST PUSH1 0x0 DUP3 PUSH1 0x1F DUP4 ADD SLT PUSH2 0x1467 JUMPI PUSH2 0x1466 PUSH2 0x1E53 JUMP JUMPDEST JUMPDEST DUP2 CALLDATALOAD PUSH2 0x1477 DUP5 DUP3 PUSH1 0x20 DUP7 ADD PUSH2 0x13CD JUMP JUMPDEST SWAP2 POP POP SWAP3 SWAP2 POP POP JUMP JUMPDEST PUSH1 0x0 DUP2 MLOAD SWAP1 POP PUSH2 0x148F DUP2 PUSH2 0x2029 JUMP JUMPDEST SWAP3 SWAP2 POP POP JUMP JUMPDEST PUSH1 0x0 DUP2 CALLDATALOAD SWAP1 POP PUSH2 0x14A4 DUP2 PUSH2 0x2040 JUMP JUMPDEST SWAP3 SWAP2 POP POP JUMP JUMPDEST PUSH1 0x0 DUP2 MLOAD SWAP1 POP PUSH2 0x14B9 DUP2 PUSH2 0x2040 JUMP JUMPDEST SWAP3 SWAP2 POP POP JUMP JUMPDEST PUSH1 0x0 PUSH1 0x20 DUP3 DUP5 SUB SLT ISZERO PUSH2 0x14D5 JUMPI PUSH2 0x14D4 PUSH2 0x1E62 JUMP JUMPDEST JUMPDEST PUSH1 0x0 PUSH2 0x14E3 DUP5 DUP3 DUP6 ADD PUSH2 0x143D JUMP JUMPDEST SWAP2 POP POP SWAP3 SWAP2 POP POP JUMP JUMPDEST PUSH1 0x0 PUSH1 0x20 DUP3 DUP5 SUB SLT ISZERO PUSH2 0x1502 JUMPI PUSH2 0x1501 PUSH2 0x1E62 JUMP JUMPDEST JUMPDEST PUSH1 0x0 PUSH2 0x1510 DUP5 DUP3 DUP6 ADD PUSH2 0x1480 JUMP JUMPDEST SWAP2 POP POP SWAP3 SWAP2 POP POP JUMP JUMPDEST PUSH1 0x0 PUSH1 0x20 DUP3 DUP5 SUB SLT ISZERO PUSH2 0x152F JUMPI PUSH2 0x152E PUSH2 0x1E62 JUMP JUMPDEST JUMPDEST PUSH1 0x0 PUSH2 0x153D DUP5 DUP3 DUP6 ADD PUSH2 0x1495 JUMP JUMPDEST SWAP2 POP POP SWAP3 SWAP2 POP POP JUMP JUMPDEST PUSH1 0x0 PUSH1 0x20 DUP3 DUP5 SUB SLT ISZERO PUSH2 0x155C JUMPI PUSH2 0x155B PUSH2 0x1E62 JUMP JUMPDEST JUMPDEST PUSH1 0x0 PUSH2 0x156A DUP5 DUP3 DUP6 ADD PUSH2 0x14AA JUMP JUMPDEST SWAP2 POP POP SWAP3 SWAP2 POP POP JUMP JUMPDEST PUSH1 0x0 DUP1 PUSH1 0x40 DUP4 DUP6 SUB SLT ISZERO PUSH2 0x158A JUMPI PUSH2 0x1589 PUSH2 0x1E62 JUMP JUMPDEST JUMPDEST PUSH1 0x0 PUSH2 0x1598 DUP6 DUP3 DUP7 ADD PUSH2 0x1495 JUMP JUMPDEST SWAP3 POP POP PUSH1 0x20 DUP4 ADD CALLDATALOAD PUSH8 0xFFFFFFFFFFFFFFFF DUP2 GT ISZERO PUSH2 0x15B9 JUMPI PUSH2 0x15B8 PUSH2 0x1E5D JUMP JUMPDEST JUMPDEST PUSH2 0x15C5 DUP6 DUP3 DUP7 ADD PUSH2 0x1452 JUMP JUMPDEST SWAP2 POP POP SWAP3 POP SWAP3 SWAP1 POP JUMP JUMPDEST PUSH1 0x0 PUSH2 0x15DB DUP4 DUP4 PUSH2 0x1818 JUMP JUMPDEST PUSH1 0x20 DUP4 ADD SWAP1 POP SWAP3 SWAP2 POP POP JUMP JUMPDEST PUSH2 0x15F0 DUP2 PUSH2 0x1C9C JUMP JUMPDEST DUP3 MSTORE POP POP JUMP JUMPDEST PUSH2 0x15FF DUP2 PUSH2 0x1C8A JUMP JUMPDEST DUP3 MSTORE POP POP JUMP JUMPDEST PUSH1 0x0 PUSH2 0x1610 DUP3 PUSH2 0x1BCF JUMP JUMPDEST PUSH2 0x161A DUP2 DUP6 PUSH2 0x1BF2 JUMP JUMPDEST SWAP4 POP PUSH2 0x1625 DUP4 PUSH2 0x1BBF JUMP JUMPDEST DUP1 PUSH1 0x0 JUMPDEST DUP4 DUP2 LT ISZERO PUSH2 0x1656 JUMPI DUP2 MLOAD PUSH2 0x163D DUP9 DUP3 PUSH2 0x15CF JUMP JUMPDEST SWAP8 POP PUSH2 0x1648 DUP4 PUSH2 0x1BE5 JUMP JUMPDEST SWAP3 POP POP PUSH1 0x1 DUP2 ADD SWAP1 POP PUSH2 0x1629 JUMP JUMPDEST POP DUP6 SWAP4 POP POP POP POP SWAP3 SWAP2 POP POP JUMP JUMPDEST PUSH2 0x166C DUP2 PUSH2 0x1CAE JUMP JUMPDEST DUP3 MSTORE POP POP JUMP JUMPDEST PUSH1 0x0 PUSH2 0x167D DUP3 PUSH2 0x1BDA JUMP JUMPDEST PUSH2 0x1687 DUP2 DUP6 PUSH2 0x1C03 JUMP JUMPDEST SWAP4 POP PUSH2 0x1697 DUP2 DUP6 PUSH1 0x20 DUP7 ADD PUSH2 0x1D02 JUMP JUMPDEST PUSH2 0x16A0 DUP2 PUSH2 0x1E67 JUMP JUMPDEST DUP5 ADD SWAP2 POP POP SWAP3 SWAP2 POP POP JUMP JUMPDEST PUSH1 0x0 PUSH2 0x16B8 PUSH1 0x11 DUP4 PUSH2 0x1C1F JUMP JUMPDEST SWAP2 POP PUSH2 0x16C3 DUP3 PUSH2 0x1E78 JUMP JUMPDEST PUSH1 0x20 DUP3 ADD SWAP1 POP SWAP2 SWAP1 POP JUMP JUMPDEST PUSH1 0x0 PUSH2 0x16DB PUSH1 0x16 DUP4 PUSH2 0x1C1F JUMP JUMPDEST SWAP2 POP PUSH2 0x16E6 DUP3 PUSH2 0x1EA1 JUMP JUMPDEST PUSH1 0x20 DUP3 ADD SWAP1 POP SWAP2 SWAP1 POP JUMP JUMPDEST PUSH1 0x0 PUSH2 0x16FE PUSH1 0x16 DUP4 PUSH2 0x1C1F JUMP JUMPDEST SWAP2 POP PUSH2 0x1709 DUP3 PUSH2 0x1ECA JUMP JUMPDEST PUSH1 0x20 DUP3 ADD SWAP1 POP SWAP2 SWAP1 POP JUMP JUMPDEST PUSH1 0x0 PUSH2 0x1721 PUSH1 0x1D DUP4 PUSH2 0x1C1F JUMP JUMPDEST SWAP2 POP PUSH2 0x172C DUP3 PUSH2 0x1EF3 JUMP JUMPDEST PUSH1 0x20 DUP3 ADD SWAP1 POP SWAP2 SWAP1 POP JUMP JUMPDEST PUSH1 0x0 PUSH2 0x1744 PUSH1 0x1C DUP4 PUSH2 0x1C1F JUMP JUMPDEST SWAP2 POP PUSH2 0x174F DUP3 PUSH2 0x1F1C JUMP JUMPDEST PUSH1 0x20 DUP3 ADD SWAP1 POP SWAP2 SWAP1 POP JUMP JUMPDEST PUSH1 0x0 PUSH2 0x1767 PUSH1 0x25 DUP4 PUSH2 0x1C1F JUMP JUMPDEST SWAP2 POP PUSH2 0x1772 DUP3 PUSH2 0x1F45 JUMP JUMPDEST PUSH1 0x40 DUP3 ADD SWAP1 POP SWAP2 SWAP1 POP JUMP JUMPDEST PUSH1 0x0 PUSH2 0x178A PUSH1 0x12 DUP4 PUSH2 0x1C1F JUMP JUMPDEST SWAP2 POP PUSH2 0x1795 DUP3 PUSH2 0x1F94 JUMP JUMPDEST PUSH1 0x20 DUP3 ADD SWAP1 POP SWAP2 SWAP1 POP JUMP JUMPDEST PUSH1 0x0 PUSH2 0x17AD PUSH1 0x0 DUP4 PUSH2 0x1C14 JUMP JUMPDEST SWAP2 POP PUSH2 0x17B8 DUP3 PUSH2 0x1FBD JUMP JUMPDEST PUSH1 0x0 DUP3 ADD SWAP1 POP SWAP2 SWAP1 POP JUMP JUMPDEST PUSH1 0x0 PUSH2 0x17D0 PUSH1 0x17 DUP4 PUSH2 0x1C1F JUMP JUMPDEST SWAP2 POP PUSH2 0x17DB DUP3 PUSH2 0x1FC0 JUMP JUMPDEST PUSH1 0x20 DUP3 ADD SWAP1 POP SWAP2 SWAP1 POP JUMP JUMPDEST PUSH1 0x0 PUSH2 0x17F3 PUSH1 0x1F DUP4 PUSH2 0x1C1F JUMP JUMPDEST SWAP2 POP PUSH2 0x17FE DUP3 PUSH2 0x1FE9 JUMP JUMPDEST PUSH1 0x20 DUP3 ADD SWAP1 POP SWAP2 SWAP1 POP JUMP JUMPDEST PUSH2 0x1812 DUP2 PUSH2 0x1CBA JUMP JUMPDEST DUP3 MSTORE POP POP JUMP JUMPDEST PUSH2 0x1821 DUP2 PUSH2 0x1CE8 JUMP JUMPDEST DUP3 MSTORE POP POP JUMP JUMPDEST PUSH2 0x1830 DUP2 PUSH2 0x1CE8 JUMP JUMPDEST DUP3 MSTORE POP POP JUMP JUMPDEST PUSH2 0x183F DUP2 PUSH2 0x1CF2 JUMP JUMPDEST DUP3 MSTORE POP POP JUMP JUMPDEST PUSH1 0x0 PUSH2 0x1850 DUP3 PUSH2 0x17A0 JUMP JUMPDEST SWAP2 POP DUP2 SWAP1 POP SWAP2 SWAP1 POP JUMP JUMPDEST PUSH1 0x0 PUSH1 0x20 DUP3 ADD SWAP1 POP PUSH2 0x186F PUSH1 0x0 DUP4 ADD DUP5 PUSH2 0x15F6 JUMP JUMPDEST SWAP3 SWAP2 POP POP JUMP JUMPDEST PUSH1 0x0 PUSH1 0x60 DUP3 ADD SWAP1 POP PUSH2 0x188A PUSH1 0x0 DUP4 ADD DUP7 PUSH2 0x15E7 JUMP JUMPDEST PUSH2 0x1897 PUSH1 0x20 DUP4 ADD DUP6 PUSH2 0x1827 JUMP JUMPDEST PUSH2 0x18A4 PUSH1 0x40 DUP4 ADD DUP5 PUSH2 0x1827 JUMP JUMPDEST SWAP5 SWAP4 POP POP POP POP JUMP JUMPDEST PUSH1 0x0 PUSH1 0x40 DUP3 ADD SWAP1 POP PUSH2 0x18C1 PUSH1 0x0 DUP4 ADD DUP6 PUSH2 0x15F6 JUMP JUMPDEST PUSH2 0x18CE PUSH1 0x20 DUP4 ADD DUP5 PUSH2 0x1827 JUMP JUMPDEST SWAP4 SWAP3 POP POP POP JUMP JUMPDEST PUSH1 0x0 PUSH1 0x60 DUP3 ADD SWAP1 POP PUSH2 0x18EA PUSH1 0x0 DUP4 ADD DUP7 PUSH2 0x15F6 JUMP JUMPDEST PUSH2 0x18F7 PUSH1 0x20 DUP4 ADD DUP6 PUSH2 0x1827 JUMP JUMPDEST DUP2 DUP2 SUB PUSH1 0x40 DUP4 ADD MSTORE PUSH2 0x1909 DUP2 DUP5 PUSH2 0x1672 JUMP JUMPDEST SWAP1 POP SWAP5 SWAP4 POP POP POP POP JUMP JUMPDEST PUSH1 0x0 PUSH1 0x20 DUP3 ADD SWAP1 POP DUP2 DUP2 SUB PUSH1 0x0 DUP4 ADD MSTORE PUSH2 0x192C DUP2 PUSH2 0x16AB JUMP JUMPDEST SWAP1 POP SWAP2 SWAP1 POP JUMP JUMPDEST PUSH1 0x0 PUSH1 0x20 DUP3 ADD SWAP1 POP DUP2 DUP2 SUB PUSH1 0x0 DUP4 ADD MSTORE PUSH2 0x194C DUP2 PUSH2 0x16CE JUMP JUMPDEST SWAP1 POP SWAP2 SWAP1 POP JUMP JUMPDEST PUSH1 0x0 PUSH1 0x20 DUP3 ADD SWAP1 POP DUP2 DUP2 SUB PUSH1 0x0 DUP4 ADD MSTORE PUSH2 0x196C DUP2 PUSH2 0x16F1 JUMP JUMPDEST SWAP1 POP SWAP2 SWAP1 POP JUMP JUMPDEST PUSH1 0x0 PUSH1 0x20 DUP3 ADD SWAP1 POP DUP2 DUP2 SUB PUSH1 0x0 DUP4 ADD MSTORE PUSH2 0x198C DUP2 PUSH2 0x1714 JUMP JUMPDEST SWAP1 POP SWAP2 SWAP1 POP JUMP JUMPDEST PUSH1 0x0 PUSH1 0x20 DUP3 ADD SWAP1 POP DUP2 DUP2 SUB PUSH1 0x0 DUP4 ADD MSTORE PUSH2 0x19AC DUP2 PUSH2 0x1737 JUMP JUMPDEST SWAP1 POP SWAP2 SWAP1 POP JUMP JUMPDEST PUSH1 0x0 PUSH1 0x20 DUP3 ADD SWAP1 POP DUP2 DUP2 SUB PUSH1 0x0 DUP4 ADD MSTORE PUSH2 0x19CC DUP2 PUSH2 0x175A JUMP JUMPDEST SWAP1 POP SWAP2 SWAP1 POP JUMP JUMPDEST PUSH1 0x0 PUSH1 0x20 DUP3 ADD SWAP1 POP DUP2 DUP2 SUB PUSH1 0x0 DUP4 ADD MSTORE PUSH2 0x19EC DUP2 PUSH2 0x177D JUMP JUMPDEST SWAP1 POP SWAP2 SWAP1 POP JUMP JUMPDEST PUSH1 0x0 PUSH1 0x20 DUP3 ADD SWAP1 POP DUP2 DUP2 SUB PUSH1 0x0 DUP4 ADD MSTORE PUSH2 0x1A0C DUP2 PUSH2 0x17C3 JUMP JUMPDEST SWAP1 POP SWAP2 SWAP1 POP JUMP JUMPDEST PUSH1 0x0 PUSH1 0x20 DUP3 ADD SWAP1 POP DUP2 DUP2 SUB PUSH1 0x0 DUP4 ADD MSTORE PUSH2 0x1A2C DUP2 PUSH2 0x17E6 JUMP JUMPDEST SWAP1 POP SWAP2 SWAP1 POP JUMP JUMPDEST PUSH1 0x0 PUSH1 0x20 DUP3 ADD SWAP1 POP PUSH2 0x1A48 PUSH1 0x0 DUP4 ADD DUP5 PUSH2 0x1827 JUMP JUMPDEST SWAP3 SWAP2 POP POP JUMP JUMPDEST PUSH1 0x0 PUSH1 0x60 DUP3 ADD SWAP1 POP PUSH2 0x1A63 PUSH1 0x0 DUP4 ADD DUP7 PUSH2 0x1827 JUMP JUMPDEST DUP2 DUP2 SUB PUSH1 0x20 DUP4 ADD MSTORE PUSH2 0x1A75 DUP2 DUP6 PUSH2 0x1605 JUMP JUMPDEST SWAP1 POP PUSH2 0x1A84 PUSH1 0x40 DUP4 ADD DUP5 PUSH2 0x1827 JUMP JUMPDEST SWAP5 SWAP4 POP POP POP POP JUMP JUMPDEST PUSH1 0x0 PUSH1 0x40 DUP3 ADD SWAP1 POP PUSH2 0x1AA1 PUSH1 0x0 DUP4 ADD DUP6 PUSH2 0x1827 JUMP JUMPDEST PUSH2 0x1AAE PUSH1 0x20 DUP4 ADD DUP5 PUSH2 0x1663 JUMP JUMPDEST SWAP4 SWAP3 POP POP POP JUMP JUMPDEST PUSH1 0x0 PUSH1 0x60 DUP3 ADD SWAP1 POP PUSH2 0x1ACA PUSH1 0x0 DUP4 ADD DUP7 PUSH2 0x1827 JUMP JUMPDEST PUSH2 0x1AD7 PUSH1 0x20 DUP4 ADD DUP6 PUSH2 0x1663 JUMP JUMPDEST DUP2 DUP2 SUB PUSH1 0x40 DUP4 ADD MSTORE PUSH2 0x1AE9 DUP2 DUP5 PUSH2 0x1605 JUMP JUMPDEST SWAP1 POP SWAP5 SWAP4 POP POP POP POP JUMP JUMPDEST PUSH1 0x0 PUSH1 0x40 DUP3 ADD SWAP1 POP PUSH2 0x1B08 PUSH1 0x0 DUP4 ADD DUP6 PUSH2 0x1827 JUMP JUMPDEST PUSH2 0x1B15 PUSH1 0x20 DUP4 ADD DUP5 PUSH2 0x1836 JUMP JUMPDEST SWAP4 SWAP3 POP POP POP JUMP JUMPDEST PUSH1 0x0 PUSH1 0x20 DUP3 ADD SWAP1 POP PUSH2 0x1B31 PUSH1 0x0 DUP4 ADD DUP5 PUSH2 0x1836 JUMP JUMPDEST SWAP3 SWAP2 POP POP JUMP JUMPDEST PUSH1 0x0 PUSH1 0x60 DUP3 ADD SWAP1 POP PUSH2 0x1B4C PUSH1 0x0 DUP4 ADD DUP7 PUSH2 0x1836 JUMP JUMPDEST PUSH2 0x1B59 PUSH1 0x20 DUP4 ADD DUP6 PUSH2 0x1809 JUMP JUMPDEST PUSH2 0x1B66 PUSH1 0x40 DUP4 ADD DUP5 PUSH2 0x1836 JUMP JUMPDEST SWAP5 SWAP4 POP POP POP POP JUMP JUMPDEST PUSH1 0x0 PUSH2 0x1B78 PUSH2 0x1B89 JUMP JUMPDEST SWAP1 POP PUSH2 0x1B84 DUP3 DUP3 PUSH2 0x1D35 JUMP JUMPDEST SWAP2 SWAP1 POP JUMP JUMPDEST PUSH1 0x0 PUSH1 0x40 MLOAD SWAP1 POP SWAP1 JUMP JUMPDEST PUSH1 0x0 PUSH8 0xFFFFFFFFFFFFFFFF DUP3 GT ISZERO PUSH2 0x1BAE JUMPI PUSH2 0x1BAD PUSH2 0x1E24 JUMP JUMPDEST JUMPDEST PUSH1 0x20 DUP3 MUL SWAP1 POP PUSH1 0x20 DUP2 ADD SWAP1 POP SWAP2 SWAP1 POP JUMP JUMPDEST PUSH1 0x0 DUP2 SWAP1 POP PUSH1 0x20 DUP3 ADD SWAP1 POP SWAP2 SWAP1 POP JUMP JUMPDEST PUSH1 0x0 DUP2 MLOAD SWAP1 POP SWAP2 SWAP1 POP JUMP JUMPDEST PUSH1 0x0 DUP2 MLOAD SWAP1 POP SWAP2 SWAP1 POP JUMP JUMPDEST PUSH1 0x0 PUSH1 0x20 DUP3 ADD SWAP1 POP SWAP2 SWAP1 POP JUMP JUMPDEST PUSH1 0x0 DUP3 DUP3 MSTORE PUSH1 0x20 DUP3 ADD SWAP1 POP SWAP3 SWAP2 POP POP JUMP JUMPDEST PUSH1 0x0 DUP3 DUP3 MSTORE PUSH1 0x20 DUP3 ADD SWAP1 POP SWAP3 SWAP2 POP POP JUMP JUMPDEST PUSH1 0x0 DUP2 SWAP1 POP SWAP3 SWAP2 POP POP JUMP JUMPDEST PUSH1 0x0 DUP3 DUP3 MSTORE PUSH1 0x20 DUP3 ADD SWAP1 POP SWAP3 SWAP2 POP POP JUMP JUMPDEST PUSH1 0x0 PUSH2 0x1C3B DUP3 PUSH2 0x1CE8 JUMP JUMPDEST SWAP2 POP PUSH2 0x1C46 DUP4 PUSH2 0x1CE8 JUMP JUMPDEST SWAP3 POP DUP2 PUSH32 0xFFFFFFFFFFFFFFFFFFFFFFFFFFFFFFFFFFFFFFFFFFFFFFFFFFFFFFFFFFFFFFFF DIV DUP4 GT DUP3 ISZERO ISZERO AND ISZERO PUSH2 0x1C7F JUMPI PUSH2 0x1C7E PUSH2 0x1D97 JUMP JUMPDEST JUMPDEST DUP3 DUP3 MUL SWAP1 POP SWAP3 SWAP2 POP POP JUMP JUMPDEST PUSH1 0x0 PUSH2 0x1C95 DUP3 PUSH2 0x1CC8 JUMP JUMPDEST SWAP1 POP SWAP2 SWAP1 POP JUMP JUMPDEST PUSH1 0x0 PUSH2 0x1CA7 DUP3 PUSH2 0x1CC8 JUMP JUMPDEST SWAP1 POP SWAP2 SWAP1 POP JUMP JUMPDEST PUSH1 0x0 DUP2 ISZERO ISZERO SWAP1 POP SWAP2 SWAP1 POP JUMP JUMPDEST PUSH1 0x0 PUSH2 0xFFFF DUP3 AND SWAP1 POP SWAP2 SWAP1 POP JUMP JUMPDEST PUSH1 0x0 PUSH20 0xFFFFFFFFFFFFFFFFFFFFFFFFFFFFFFFFFFFFFFFF DUP3 AND SWAP1 POP SWAP2 SWAP1 POP JUMP JUMPDEST PUSH1 0x0 DUP2 SWAP1 POP SWAP2 SWAP1 POP JUMP JUMPDEST PUSH1 0x0 PUSH4 0xFFFFFFFF DUP3 AND SWAP1 POP SWAP2 SWAP1 POP JUMP JUMPDEST PUSH1 0x0 JUMPDEST DUP4 DUP2 LT ISZERO PUSH2 0x1D20 JUMPI DUP1 DUP3 ADD MLOAD DUP2 DUP5 ADD MSTORE PUSH1 0x20 DUP2 ADD SWAP1 POP PUSH2 0x1D05 JUMP JUMPDEST DUP4 DUP2 GT ISZERO PUSH2 0x1D2F JUMPI PUSH1 0x0 DUP5 DUP5 ADD MSTORE JUMPDEST POP POP POP POP JUMP JUMPDEST PUSH2 0x1D3E DUP3 PUSH2 0x1E67 JUMP JUMPDEST DUP2 ADD DUP2 DUP2 LT PUSH8 0xFFFFFFFFFFFFFFFF DUP3 GT OR ISZERO PUSH2 0x1D5D JUMPI PUSH2 0x1D5C PUSH2 0x1E24 JUMP JUMPDEST JUMPDEST DUP1 PUSH1 0x40 MSTORE POP POP POP JUMP JUMPDEST PUSH1 0x0 PUSH2 0x1D71 DUP3 PUSH2 0x1CE8 JUMP JUMPDEST SWAP2 POP PUSH2 0x1D7C DUP4 PUSH2 0x1CE8 JUMP JUMPDEST SWAP3 POP DUP3 PUSH2 0x1D8C JUMPI PUSH2 0x1D8B PUSH2 0x1DC6 JUMP JUMPDEST JUMPDEST DUP3 DUP3 MOD SWAP1 POP SWAP3 SWAP2 POP POP JUMP JUMPDEST PUSH32 0x4E487B7100000000000000000000000000000000000000000000000000000000 PUSH1 0x0 MSTORE PUSH1 0x11 PUSH1 0x4 MSTORE PUSH1 0x24 PUSH1 0x0 REVERT JUMPDEST PUSH32 0x4E487B7100000000000000000000000000000000000000000000000000000000 PUSH1 0x0 MSTORE PUSH1 0x12 PUSH1 0x4 MSTORE PUSH1 0x24 PUSH1 0x0 REVERT JUMPDEST PUSH32 0x4E487B7100000000000000000000000000000000000000000000000000000000 PUSH1 0x0 MSTORE PUSH1 0x32 PUSH1 0x4 MSTORE PUSH1 0x24 PUSH1 0x0 REVERT JUMPDEST PUSH32 0x4E487B7100000000000000000000000000000000000000000000000000000000 PUSH1 0x0 MSTORE PUSH1 0x41 PUSH1 0x4 MSTORE PUSH1 0x24 PUSH1 0x0 REVERT JUMPDEST PUSH1 0x0 DUP1 REVERT JUMPDEST PUSH1 0x0 DUP1 REVERT JUMPDEST PUSH1 0x0 DUP1 REVERT JUMPDEST PUSH1 0x0 DUP1 REVERT JUMPDEST PUSH1 0x0 PUSH1 0x1F NOT PUSH1 0x1F DUP4 ADD AND SWAP1 POP SWAP2 SWAP1 POP JUMP JUMPDEST PUSH32 0x72657175657374206E6F7420666F756E64000000000000000000000000000000 PUSH1 0x0 DUP3 ADD MSTORE POP JUMP JUMPDEST PUSH32 0x4D7573742062652070726F706F736564206F776E657200000000000000000000 PUSH1 0x0 DUP3 ADD MSTORE POP JUMP JUMPDEST PUSH32 0x4F6E6C792063616C6C61626C65206279206F776E657200000000000000000000 PUSH1 0x0 DUP3 ADD MSTORE POP JUMP JUMPDEST PUSH32 0x436173696E6F3A2057696E6E696E67207061796F7574206661696C6564000000 PUSH1 0x0 DUP3 ADD MSTORE POP JUMP JUMPDEST PUSH32 0x42657420616E792076616C7565206265747765656E203120746F203600000000 PUSH1 0x0 DUP3 ADD MSTORE POP JUMP JUMPDEST PUSH32 0x54686973206265742065786365656473206D6178696D756D20706F737369626C PUSH1 0x0 DUP3 ADD MSTORE PUSH32 0x6520626574000000000000000000000000000000000000000000000000000000 PUSH1 0x20 DUP3 ADD MSTORE POP JUMP JUMPDEST PUSH32 0x556E61626C6520746F207472616E736665720000000000000000000000000000 PUSH1 0x0 DUP3 ADD MSTORE POP JUMP JUMPDEST POP JUMP JUMPDEST PUSH32 0x43616E6E6F74207472616E7366657220746F2073656C66000000000000000000 PUSH1 0x0 DUP3 ADD MSTORE POP JUMP JUMPDEST PUSH32 0x6F6E6C792056524620563220777261707065722063616E2066756C66696C6C00 PUSH1 0x0 DUP3 ADD MSTORE POP JUMP JUMPDEST PUSH2 0x201B DUP2 PUSH2 0x1C8A JUMP JUMPDEST DUP2 EQ PUSH2 0x2026 JUMPI PUSH1 0x0 DUP1 REVERT JUMPDEST POP JUMP JUMPDEST PUSH2 0x2032 DUP2 PUSH2 0x1CAE JUMP JUMPDEST DUP2 EQ PUSH2 0x203D JUMPI PUSH1 0x0 DUP1 REVERT JUMPDEST POP JUMP JUMPDEST PUSH2 0x2049 DUP2 PUSH2 0x1CE8 JUMP JUMPDEST DUP2 EQ PUSH2 0x2054 JUMPI PUSH1 0x0 DUP1 REVERT JUMPDEST POP JUMP INVALID LOG2 PUSH5 0x6970667358 0x22 SLT KECCAK256 AND SDIV PUSH19 0x5B24D5154B9206DDE5FA3739F849E1F3C9D945 0xEE 0xBB BYTE INVALID 0xA9 PUSH32 0x188E6DA64736F6C634300080700330000000000000000000000000000000000 "
				},
				"gasEstimates": {
					"creation": {
						"codeDepositCost": "1666600",
						"executionCost": "infinite",
						"totalCost": "infinite"
					},
					"external": {
						"acceptOwnership()": "54585",
						"betResult()": "2496",
						"getRequestStatus(uint256)": "infinite",
						"lastRequestId()": "2517",
						"maxBet()": "2475",
						"maxBetRatio()": "2451",
						"owner()": "2611",
						"playGame(uint256)": "infinite",
						"rawFulfillRandomWords(uint256,uint256[])": "infinite",
						"records(uint256)": "infinite",
						"requestIds(uint256)": "infinite",
						"s_requests(uint256)": "infinite",
						"transferOwnership(address)": "30723",
						"withdrawLink()": "infinite"
					},
					"internal": {
						"fulfillRandomWords(uint256,uint256[] memory)": "infinite",
						"requestRandomWords()": "infinite"
					}
				},
				"methodIdentifiers": {
					"acceptOwnership()": "79ba5097",
					"betResult()": "bfb3047f",
					"getRequestStatus(uint256)": "d8a4676f",
					"lastRequestId()": "fc2a88c3",
					"maxBet()": "2e5b2168",
					"maxBetRatio()": "c17bcdee",
					"owner()": "8da5cb5b",
					"playGame(uint256)": "5873533d",
					"rawFulfillRandomWords(uint256,uint256[])": "1fe543e3",
					"records(uint256)": "34461067",
					"requestIds(uint256)": "8796ba8c",
					"s_requests(uint256)": "a168fa89",
					"transferOwnership(address)": "f2fde38b",
					"withdrawLink()": "8dc654a2"
				}
			},
			"storageLayout": {
				"storage": [
					{
						"astId": 27,
						"contract": "docs.chain.link/samples/VRF/VRFv2DirectFundingConsumer.sol:VRFv2DirectFundingConsumer",
						"label": "s_owner",
						"offset": 0,
						"slot": "0",
						"type": "t_address"
					},
					{
						"astId": 29,
						"contract": "docs.chain.link/samples/VRF/VRFv2DirectFundingConsumer.sol:VRFv2DirectFundingConsumer",
						"label": "s_pendingOwner",
						"offset": 0,
						"slot": "1",
						"type": "t_address"
					},
					{
						"astId": 459,
						"contract": "docs.chain.link/samples/VRF/VRFv2DirectFundingConsumer.sol:VRFv2DirectFundingConsumer",
						"label": "s_requests",
						"offset": 0,
						"slot": "2",
						"type": "t_mapping(t_uint256,t_struct(RequestStatus)454_storage)"
					},
					{
						"astId": 462,
						"contract": "docs.chain.link/samples/VRF/VRFv2DirectFundingConsumer.sol:VRFv2DirectFundingConsumer",
						"label": "requestIds",
						"offset": 0,
						"slot": "3",
						"type": "t_array(t_uint256)dyn_storage"
					},
					{
						"astId": 464,
						"contract": "docs.chain.link/samples/VRF/VRFv2DirectFundingConsumer.sol:VRFv2DirectFundingConsumer",
						"label": "lastRequestId",
						"offset": 0,
						"slot": "4",
						"type": "t_uint256"
					},
					{
						"astId": 467,
						"contract": "docs.chain.link/samples/VRF/VRFv2DirectFundingConsumer.sol:VRFv2DirectFundingConsumer",
						"label": "callbackGasLimit",
						"offset": 0,
						"slot": "5",
						"type": "t_uint32"
					},
					{
						"astId": 470,
						"contract": "docs.chain.link/samples/VRF/VRFv2DirectFundingConsumer.sol:VRFv2DirectFundingConsumer",
						"label": "requestConfirmations",
						"offset": 4,
						"slot": "5",
						"type": "t_uint16"
					},
					{
						"astId": 473,
						"contract": "docs.chain.link/samples/VRF/VRFv2DirectFundingConsumer.sol:VRFv2DirectFundingConsumer",
						"label": "numWords",
						"offset": 6,
						"slot": "5",
						"type": "t_uint32"
					},
					{
						"astId": 476,
						"contract": "docs.chain.link/samples/VRF/VRFv2DirectFundingConsumer.sol:VRFv2DirectFundingConsumer",
						"label": "linkAddress",
						"offset": 10,
						"slot": "5",
						"type": "t_address"
					},
					{
						"astId": 479,
						"contract": "docs.chain.link/samples/VRF/VRFv2DirectFundingConsumer.sol:VRFv2DirectFundingConsumer",
						"label": "wrapperAddress",
						"offset": 0,
						"slot": "6",
						"type": "t_address"
					},
					{
						"astId": 491,
						"contract": "docs.chain.link/samples/VRF/VRFv2DirectFundingConsumer.sol:VRFv2DirectFundingConsumer",
						"label": "records",
						"offset": 0,
						"slot": "7",
						"type": "t_mapping(t_uint256,t_struct(Player)486_storage)"
					},
					{
						"astId": 493,
						"contract": "docs.chain.link/samples/VRF/VRFv2DirectFundingConsumer.sol:VRFv2DirectFundingConsumer",
						"label": "betResult",
						"offset": 0,
						"slot": "8",
						"type": "t_uint256"
					},
					{
						"astId": 496,
						"contract": "docs.chain.link/samples/VRF/VRFv2DirectFundingConsumer.sol:VRFv2DirectFundingConsumer",
						"label": "maxBet",
						"offset": 0,
						"slot": "9",
						"type": "t_uint256"
					},
					{
						"astId": 499,
						"contract": "docs.chain.link/samples/VRF/VRFv2DirectFundingConsumer.sol:VRFv2DirectFundingConsumer",
						"label": "maxBetRatio",
						"offset": 0,
						"slot": "10",
						"type": "t_uint256"
					}
				],
				"types": {
					"t_address": {
						"encoding": "inplace",
						"label": "address",
						"numberOfBytes": "20"
					},
					"t_address_payable": {
						"encoding": "inplace",
						"label": "address payable",
						"numberOfBytes": "20"
					},
					"t_array(t_uint256)dyn_storage": {
						"base": "t_uint256",
						"encoding": "dynamic_array",
						"label": "uint256[]",
						"numberOfBytes": "32"
					},
					"t_bool": {
						"encoding": "inplace",
						"label": "bool",
						"numberOfBytes": "1"
					},
					"t_mapping(t_uint256,t_struct(Player)486_storage)": {
						"encoding": "mapping",
						"key": "t_uint256",
						"label": "mapping(uint256 => struct VRFv2DirectFundingConsumer.Player)",
						"numberOfBytes": "32",
						"value": "t_struct(Player)486_storage"
					},
					"t_mapping(t_uint256,t_struct(RequestStatus)454_storage)": {
						"encoding": "mapping",
						"key": "t_uint256",
						"label": "mapping(uint256 => struct VRFv2DirectFundingConsumer.RequestStatus)",
						"numberOfBytes": "32",
						"value": "t_struct(RequestStatus)454_storage"
					},
					"t_struct(Player)486_storage": {
						"encoding": "inplace",
						"label": "struct VRFv2DirectFundingConsumer.Player",
						"members": [
							{
								"astId": 481,
								"contract": "docs.chain.link/samples/VRF/VRFv2DirectFundingConsumer.sol:VRFv2DirectFundingConsumer",
								"label": "playerAddress",
								"offset": 0,
								"slot": "0",
								"type": "t_address_payable"
							},
							{
								"astId": 483,
								"contract": "docs.chain.link/samples/VRF/VRFv2DirectFundingConsumer.sol:VRFv2DirectFundingConsumer",
								"label": "betNumber",
								"offset": 0,
								"slot": "1",
								"type": "t_uint256"
							},
							{
								"astId": 485,
								"contract": "docs.chain.link/samples/VRF/VRFv2DirectFundingConsumer.sol:VRFv2DirectFundingConsumer",
								"label": "betAmount",
								"offset": 0,
								"slot": "2",
								"type": "t_uint256"
							}
						],
						"numberOfBytes": "96"
					},
					"t_struct(RequestStatus)454_storage": {
						"encoding": "inplace",
						"label": "struct VRFv2DirectFundingConsumer.RequestStatus",
						"members": [
							{
								"astId": 448,
								"contract": "docs.chain.link/samples/VRF/VRFv2DirectFundingConsumer.sol:VRFv2DirectFundingConsumer",
								"label": "paid",
								"offset": 0,
								"slot": "0",
								"type": "t_uint256"
							},
							{
								"astId": 450,
								"contract": "docs.chain.link/samples/VRF/VRFv2DirectFundingConsumer.sol:VRFv2DirectFundingConsumer",
								"label": "fulfilled",
								"offset": 0,
								"slot": "1",
								"type": "t_bool"
							},
							{
								"astId": 453,
								"contract": "docs.chain.link/samples/VRF/VRFv2DirectFundingConsumer.sol:VRFv2DirectFundingConsumer",
								"label": "randomWords",
								"offset": 0,
								"slot": "2",
								"type": "t_array(t_uint256)dyn_storage"
							}
						],
						"numberOfBytes": "96"
					},
					"t_uint16": {
						"encoding": "inplace",
						"label": "uint16",
						"numberOfBytes": "2"
					},
					"t_uint256": {
						"encoding": "inplace",
						"label": "uint256",
						"numberOfBytes": "32"
					},
					"t_uint32": {
						"encoding": "inplace",
						"label": "uint32",
						"numberOfBytes": "4"
					}
				}
			},
			"userdoc": {
				"kind": "user",
				"methods": {
					"acceptOwnership()": {
						"notice": "Allows an ownership transfer to be completed by the recipient."
					},
					"owner()": {
						"notice": "Get the current owner"
					},
					"transferOwnership(address)": {
						"notice": "Allows an owner to begin transferring ownership to a new address, pending."
					},
					"withdrawLink()": {
						"notice": "Allow withdraw of Link tokens from the contract"
					}
				},
				"notice": "THIS IS AN EXAMPLE CONTRACT THAT USES HARDCODED VALUES FOR CLARITY. THIS IS AN EXAMPLE CONTRACT THAT USES UN-AUDITED CODE. DO NOT USE THIS CODE IN PRODUCTION.",
				"version": 1
			}
		}
	}
}