{
	"docs.chain.link/samples/VRF/VRFv2Consumer.sol": {
		"VRFv2Consumer": {
			"abi": [
				{
					"inputs": [
						{
							"internalType": "uint64",
							"name": "subscriptionId",
							"type": "uint64"
						}
					],
					"stateMutability": "nonpayable",
					"type": "constructor"
				},
				{
					"inputs": [
						{
							"internalType": "address",
							"name": "have",
							"type": "address"
						},
						{
							"internalType": "address",
							"name": "want",
							"type": "address"
						}
					],
					"name": "OnlyCoordinatorCanFulfill",
					"type": "error"
				},
				{
					"anonymous": false,
					"inputs": [
						{
							"indexed": true,
							"internalType": "address",
							"name": "from",
							"type": "address"
						},
						{
							"indexed": true,
							"internalType": "address",
							"name": "to",
							"type": "address"
						}
					],
					"name": "OwnershipTransferRequested",
					"type": "event"
				},
				{
					"anonymous": false,
					"inputs": [
						{
							"indexed": true,
							"internalType": "address",
							"name": "from",
							"type": "address"
						},
						{
							"indexed": true,
							"internalType": "address",
							"name": "to",
							"type": "address"
						}
					],
					"name": "OwnershipTransferred",
					"type": "event"
				},
				{
					"anonymous": false,
					"inputs": [
						{
							"indexed": false,
							"internalType": "uint256",
							"name": "requestId",
							"type": "uint256"
						},
						{
							"indexed": false,
							"internalType": "uint256[]",
							"name": "randomWords",
							"type": "uint256[]"
						}
					],
					"name": "RequestFulfilled",
					"type": "event"
				},
				{
					"anonymous": false,
					"inputs": [
						{
							"indexed": false,
							"internalType": "uint256",
							"name": "requestId",
							"type": "uint256"
						},
						{
							"indexed": false,
							"internalType": "uint32",
							"name": "numWords",
							"type": "uint32"
						}
					],
					"name": "RequestSent",
					"type": "event"
				},
				{
					"inputs": [],
					"name": "acceptOwnership",
					"outputs": [],
					"stateMutability": "nonpayable",
					"type": "function"
				},
				{
					"inputs": [],
					"name": "addBalance",
					"outputs": [],
					"stateMutability": "payable",
					"type": "function"
				},
				{
					"inputs": [],
					"name": "casino",
					"outputs": [
						{
							"internalType": "address payable",
							"name": "",
							"type": "address"
						}
					],
					"stateMutability": "view",
					"type": "function"
				},
				{
					"inputs": [
						{
							"internalType": "uint256",
							"name": "_requestId",
							"type": "uint256"
						}
					],
					"name": "getRequestStatus",
					"outputs": [
						{
							"internalType": "bool",
							"name": "fulfilled",
							"type": "bool"
						},
						{
							"internalType": "uint256[]",
							"name": "randomWords",
							"type": "uint256[]"
						}
					],
					"stateMutability": "view",
					"type": "function"
				},
				{
					"inputs": [],
					"name": "lastRequestId",
					"outputs": [
						{
							"internalType": "uint256",
							"name": "",
							"type": "uint256"
						}
					],
					"stateMutability": "view",
					"type": "function"
				},
				{
					"inputs": [],
					"name": "owner",
					"outputs": [
						{
							"internalType": "address",
							"name": "",
							"type": "address"
						}
					],
					"stateMutability": "view",
					"type": "function"
				},
				{
					"inputs": [
						{
							"internalType": "uint256",
							"name": "requestId",
							"type": "uint256"
						},
						{
							"internalType": "uint256[]",
							"name": "randomWords",
							"type": "uint256[]"
						}
					],
					"name": "rawFulfillRandomWords",
					"outputs": [],
					"stateMutability": "nonpayable",
					"type": "function"
				},
				{
					"inputs": [
						{
							"internalType": "uint256",
							"name": "",
							"type": "uint256"
						}
					],
					"name": "requestIds",
					"outputs": [
						{
							"internalType": "uint256",
							"name": "",
							"type": "uint256"
						}
					],
					"stateMutability": "view",
					"type": "function"
				},
				{
					"inputs": [],
					"name": "requestRandomWords",
					"outputs": [
						{
							"internalType": "uint256",
							"name": "requestId",
							"type": "uint256"
						}
					],
					"stateMutability": "nonpayable",
					"type": "function"
				},
				{
					"inputs": [
						{
							"internalType": "uint256",
							"name": "",
							"type": "uint256"
						}
					],
					"name": "s_requests",
					"outputs": [
						{
							"internalType": "bool",
							"name": "fulfilled",
							"type": "bool"
						},
						{
							"internalType": "bool",
							"name": "exists",
							"type": "bool"
						}
					],
					"stateMutability": "view",
					"type": "function"
				},
				{
					"inputs": [
						{
							"internalType": "address",
							"name": "to",
							"type": "address"
						}
					],
					"name": "transferOwnership",
					"outputs": [],
					"stateMutability": "nonpayable",
					"type": "function"
				}
			],
			"devdoc": {
				"kind": "dev",
				"methods": {},
				"version": 1
			},
			"evm": {
				"assembly": "    /* \"docs.chain.link/samples/VRF/VRFv2Consumer.sol\":733:4270  contract VRFv2Consumer is VRFConsumerBaseV2, ConfirmedOwner {... */\n  mstore(0x40, 0xa0)\n    /* \"docs.chain.link/samples/VRF/VRFv2Consumer.sol\":1659:1725  0x79d3d8832d904592c0bf9818b621522c988bb8b0c05cdc3b15aea1b6e8db0c15 */\n  0x79d3d8832d904592c0bf9818b621522c988bb8b0c05cdc3b15aea1b6e8db0c15\n    /* \"docs.chain.link/samples/VRF/VRFv2Consumer.sol\":1641:1725  bytes32 keyHash = 0x79d3d8832d904592c0bf9818b621522c988bb8b0c05cdc3b15aea1b6e8db0c15 */\n  0x00\n  shl\n  0x06\n  sstore\n    /* \"docs.chain.link/samples/VRF/VRFv2Consumer.sol\":2168:2174  100000 */\n  0x0186a0\n    /* \"docs.chain.link/samples/VRF/VRFv2Consumer.sol\":2142:2174  uint32 callbackGasLimit = 100000 */\n  0x07\n  exp(0x0100, 0x00)\n  dup2\n  sload\n  dup2\n  0xffffffff\n  mul\n  not\n  and\n  swap1\n  dup4\n  0xffffffff\n  and\n  mul\n  or\n  swap1\n  sstore\n  pop\n    /* \"docs.chain.link/samples/VRF/VRFv2Consumer.sol\":2265:2266  3 */\n  0x03\n    /* \"docs.chain.link/samples/VRF/VRFv2Consumer.sol\":2235:2266  uint16 requestConfirmations = 3 */\n  0x07\n  exp(0x0100, 0x04)\n  dup2\n  sload\n  dup2\n  0xffff\n  mul\n  not\n  and\n  swap1\n  dup4\n  0xffff\n  and\n  mul\n  or\n  swap1\n  sstore\n  pop\n    /* \"docs.chain.link/samples/VRF/VRFv2Consumer.sol\":2410:2411  1 */\n  0x01\n    /* \"docs.chain.link/samples/VRF/VRFv2Consumer.sol\":2392:2411  uint32 numWords = 1 */\n  0x07\n  exp(0x0100, 0x06)\n  dup2\n  sload\n  dup2\n  0xffffffff\n  mul\n  not\n  and\n  swap1\n  dup4\n  0xffffffff\n  and\n  mul\n  or\n  swap1\n  sstore\n  pop\n    /* \"docs.chain.link/samples/VRF/VRFv2Consumer.sol\":2561:2887  constructor(uint64 subscriptionId)... */\n  callvalue\n  dup1\n  iszero\n  tag_1\n  jumpi\n  0x00\n  dup1\n  revert\ntag_1:\n  pop\n  mload(0x40)\n  sub(codesize, bytecodeSize)\n  dup1\n  bytecodeSize\n  dup4\n  codecopy\n  dup2\n  dup2\n  add\n  0x40\n  mstore\n  dup2\n  add\n  swap1\n  tag_2\n  swap2\n  swap1\n  tag_3\n  jump\t// in\ntag_2:\n    /* \"docs.chain.link/samples/VRF/VRFv2Consumer.sol\":2689:2699  msg.sender */\n  caller\n    /* \"@chainlink/contracts/src/v0.8/ConfirmedOwner.sol\":327:335  newOwner */\n  dup1\n    /* \"@chainlink/contracts/src/v0.8/ConfirmedOwner.sol\":345:346  0 */\n  0x00\n    /* \"docs.chain.link/samples/VRF/VRFv2Consumer.sol\":2622:2664  0x2Ca8E0C643bDe4C2E08ab1fA0da3401AdAD7734D */\n  0x2ca8e0c643bde4c2e08ab1fa0da3401adad7734d\n    /* \"@chainlink/contracts/src/v0.8/VRFConsumerBaseV2.sol\":5616:5631  _vrfCoordinator */\n  dup1\n    /* \"@chainlink/contracts/src/v0.8/VRFConsumerBaseV2.sol\":5599:5631  vrfCoordinator = _vrfCoordinator */\n  0xffffffffffffffffffffffffffffffffffffffff\n  and\n  0x80\n  dup2\n  0xffffffffffffffffffffffffffffffffffffffff\n  and\n  0x60\n  shl\n  dup2\n  mstore\n  pop\n  pop\n    /* \"@chainlink/contracts/src/v0.8/VRFConsumerBaseV2.sol\":5556:5636  constructor(address _vrfCoordinator) {... */\n  pop\n    /* \"@chainlink/contracts/src/v0.8/ConfirmedOwnerWithProposal.sol\":572:573  0 */\n  0x00\n    /* \"@chainlink/contracts/src/v0.8/ConfirmedOwnerWithProposal.sol\":552:574  newOwner != address(0) */\n  0xffffffffffffffffffffffffffffffffffffffff\n  and\n    /* \"@chainlink/contracts/src/v0.8/ConfirmedOwnerWithProposal.sol\":552:560  newOwner */\n  dup3\n    /* \"@chainlink/contracts/src/v0.8/ConfirmedOwnerWithProposal.sol\":552:574  newOwner != address(0) */\n  0xffffffffffffffffffffffffffffffffffffffff\n  and\n  eq\n  iszero\n    /* \"@chainlink/contracts/src/v0.8/ConfirmedOwnerWithProposal.sol\":544:603  require(newOwner != address(0), \"Cannot set owner to zero\") */\n  tag_10\n  jumpi\n  mload(0x40)\n  0x08c379a000000000000000000000000000000000000000000000000000000000\n  dup2\n  mstore\n  0x04\n  add\n  tag_11\n  swap1\n  tag_12\n  jump\t// in\ntag_11:\n  mload(0x40)\n  dup1\n  swap2\n  sub\n  swap1\n  revert\ntag_10:\n    /* \"@chainlink/contracts/src/v0.8/ConfirmedOwnerWithProposal.sol\":620:628  newOwner */\n  dup2\n    /* \"@chainlink/contracts/src/v0.8/ConfirmedOwnerWithProposal.sol\":610:617  s_owner */\n  0x00\n  dup1\n    /* \"@chainlink/contracts/src/v0.8/ConfirmedOwnerWithProposal.sol\":610:628  s_owner = newOwner */\n  0x0100\n  exp\n  dup2\n  sload\n  dup2\n  0xffffffffffffffffffffffffffffffffffffffff\n  mul\n  not\n  and\n  swap1\n  dup4\n  0xffffffffffffffffffffffffffffffffffffffff\n  and\n  mul\n  or\n  swap1\n  sstore\n  pop\n    /* \"@chainlink/contracts/src/v0.8/ConfirmedOwnerWithProposal.sol\":662:663  0 */\n  0x00\n    /* \"@chainlink/contracts/src/v0.8/ConfirmedOwnerWithProposal.sol\":638:664  pendingOwner != address(0) */\n  0xffffffffffffffffffffffffffffffffffffffff\n  and\n    /* \"@chainlink/contracts/src/v0.8/ConfirmedOwnerWithProposal.sol\":638:650  pendingOwner */\n  dup2\n    /* \"@chainlink/contracts/src/v0.8/ConfirmedOwnerWithProposal.sol\":638:664  pendingOwner != address(0) */\n  0xffffffffffffffffffffffffffffffffffffffff\n  and\n  eq\n    /* \"@chainlink/contracts/src/v0.8/ConfirmedOwnerWithProposal.sol\":634:713  if (pendingOwner != address(0)) {... */\n  tag_13\n  jumpi\n    /* \"@chainlink/contracts/src/v0.8/ConfirmedOwnerWithProposal.sol\":674:706  _transferOwnership(pendingOwner) */\n  tag_14\n    /* \"@chainlink/contracts/src/v0.8/ConfirmedOwnerWithProposal.sol\":693:705  pendingOwner */\n  dup2\n    /* \"@chainlink/contracts/src/v0.8/ConfirmedOwnerWithProposal.sol\":674:692  _transferOwnership */\n  shl(0x20, tag_15)\n    /* \"@chainlink/contracts/src/v0.8/ConfirmedOwnerWithProposal.sol\":674:706  _transferOwnership(pendingOwner) */\n  0x20\n  shr\n  jump\t// in\ntag_14:\n    /* \"@chainlink/contracts/src/v0.8/ConfirmedOwnerWithProposal.sol\":634:713  if (pendingOwner != address(0)) {... */\ntag_13:\n    /* \"@chainlink/contracts/src/v0.8/ConfirmedOwnerWithProposal.sol\":486:717  constructor(address newOwner, address pendingOwner) {... */\n  pop\n  pop\n    /* \"@chainlink/contracts/src/v0.8/ConfirmedOwner.sol\":270:351  constructor(address newOwner) ConfirmedOwnerWithProposal(newOwner, address(0)) {} */\n  pop\n    /* \"docs.chain.link/samples/VRF/VRFv2Consumer.sol\":2755:2797  0x2Ca8E0C643bDe4C2E08ab1fA0da3401AdAD7734D */\n  0x2ca8e0c643bde4c2e08ab1fa0da3401adad7734d\n    /* \"docs.chain.link/samples/VRF/VRFv2Consumer.sol\":2715:2726  COORDINATOR */\n  0x03\n  0x00\n    /* \"docs.chain.link/samples/VRF/VRFv2Consumer.sol\":2715:2798  COORDINATOR = VRFCoordinatorV2Interface(0x2Ca8E0C643bDe4C2E08ab1fA0da3401AdAD7734D) */\n  0x0100\n  exp\n  dup2\n  sload\n  dup2\n  0xffffffffffffffffffffffffffffffffffffffff\n  mul\n  not\n  and\n  swap1\n  dup4\n  0xffffffffffffffffffffffffffffffffffffffff\n  and\n  mul\n  or\n  swap1\n  sstore\n  pop\n    /* \"docs.chain.link/samples/VRF/VRFv2Consumer.sol\":2827:2841  subscriptionId */\n  dup1\n    /* \"docs.chain.link/samples/VRF/VRFv2Consumer.sol\":2808:2824  s_subscriptionId */\n  0x03\n  0x14\n    /* \"docs.chain.link/samples/VRF/VRFv2Consumer.sol\":2808:2841  s_subscriptionId = subscriptionId */\n  0x0100\n  exp\n  dup2\n  sload\n  dup2\n  0xffffffffffffffff\n  mul\n  not\n  and\n  swap1\n  dup4\n  0xffffffffffffffff\n  and\n  mul\n  or\n  swap1\n  sstore\n  pop\n    /* \"docs.chain.link/samples/VRF/VRFv2Consumer.sol\":2869:2879  msg.sender */\n  caller\n    /* \"docs.chain.link/samples/VRF/VRFv2Consumer.sol\":2851:2857  casino */\n  0x07\n  0x0a\n    /* \"docs.chain.link/samples/VRF/VRFv2Consumer.sol\":2851:2880  casino = payable (msg.sender) */\n  0x0100\n  exp\n  dup2\n  sload\n  dup2\n  0xffffffffffffffffffffffffffffffffffffffff\n  mul\n  not\n  and\n  swap1\n  dup4\n  0xffffffffffffffffffffffffffffffffffffffff\n  and\n  mul\n  or\n  swap1\n  sstore\n  pop\n    /* \"docs.chain.link/samples/VRF/VRFv2Consumer.sol\":2561:2887  constructor(uint64 subscriptionId)... */\n  pop\n    /* \"docs.chain.link/samples/VRF/VRFv2Consumer.sol\":733:4270  contract VRFv2Consumer is VRFConsumerBaseV2, ConfirmedOwner {... */\n  jump(tag_18)\n    /* \"@chainlink/contracts/src/v0.8/ConfirmedOwnerWithProposal.sol\":1497:1685  function _transferOwnership(address to) private {... */\ntag_15:\n    /* \"@chainlink/contracts/src/v0.8/ConfirmedOwnerWithProposal.sol\":1565:1575  msg.sender */\n  caller\n    /* \"@chainlink/contracts/src/v0.8/ConfirmedOwnerWithProposal.sol\":1559:1575  to != msg.sender */\n  0xffffffffffffffffffffffffffffffffffffffff\n  and\n    /* \"@chainlink/contracts/src/v0.8/ConfirmedOwnerWithProposal.sol\":1559:1561  to */\n  dup2\n    /* \"@chainlink/contracts/src/v0.8/ConfirmedOwnerWithProposal.sol\":1559:1575  to != msg.sender */\n  0xffffffffffffffffffffffffffffffffffffffff\n  and\n  eq\n  iszero\n    /* \"@chainlink/contracts/src/v0.8/ConfirmedOwnerWithProposal.sol\":1551:1603  require(to != msg.sender, \"Cannot transfer to self\") */\n  tag_20\n  jumpi\n  mload(0x40)\n  0x08c379a000000000000000000000000000000000000000000000000000000000\n  dup2\n  mstore\n  0x04\n  add\n  tag_21\n  swap1\n  tag_22\n  jump\t// in\ntag_21:\n  mload(0x40)\n  dup1\n  swap2\n  sub\n  swap1\n  revert\ntag_20:\n    /* \"@chainlink/contracts/src/v0.8/ConfirmedOwnerWithProposal.sol\":1627:1629  to */\n  dup1\n    /* \"@chainlink/contracts/src/v0.8/ConfirmedOwnerWithProposal.sol\":1610:1624  s_pendingOwner */\n  0x01\n  0x00\n    /* \"@chainlink/contracts/src/v0.8/ConfirmedOwnerWithProposal.sol\":1610:1629  s_pendingOwner = to */\n  0x0100\n  exp\n  dup2\n  sload\n  dup2\n  0xffffffffffffffffffffffffffffffffffffffff\n  mul\n  not\n  and\n  swap1\n  dup4\n  0xffffffffffffffffffffffffffffffffffffffff\n  and\n  mul\n  or\n  swap1\n  sstore\n  pop\n    /* \"@chainlink/contracts/src/v0.8/ConfirmedOwnerWithProposal.sol\":1677:1679  to */\n  dup1\n    /* \"@chainlink/contracts/src/v0.8/ConfirmedOwnerWithProposal.sol\":1641:1680  OwnershipTransferRequested(s_owner, to) */\n  0xffffffffffffffffffffffffffffffffffffffff\n  and\n    /* \"@chainlink/contracts/src/v0.8/ConfirmedOwnerWithProposal.sol\":1668:1675  s_owner */\n  0x00\n  dup1\n  sload\n  swap1\n  0x0100\n  exp\n  swap1\n  div\n  0xffffffffffffffffffffffffffffffffffffffff\n  and\n    /* \"@chainlink/contracts/src/v0.8/ConfirmedOwnerWithProposal.sol\":1641:1680  OwnershipTransferRequested(s_owner, to) */\n  0xffffffffffffffffffffffffffffffffffffffff\n  and\n  0xed8889f560326eb138920d842192f0eb3dd22b4f139c87a2c57538e05bae1278\n  mload(0x40)\n  mload(0x40)\n  dup1\n  swap2\n  sub\n  swap1\n  log3\n    /* \"@chainlink/contracts/src/v0.8/ConfirmedOwnerWithProposal.sol\":1497:1685  function _transferOwnership(address to) private {... */\n  pop\n  jump\t// out\n    /* \"#utility.yul\":7:148   */\ntag_24:\n    /* \"#utility.yul\":63:68   */\n  0x00\n    /* \"#utility.yul\":94:100   */\n  dup2\n    /* \"#utility.yul\":88:101   */\n  mload\n    /* \"#utility.yul\":79:101   */\n  swap1\n  pop\n    /* \"#utility.yul\":110:142   */\n  tag_26\n    /* \"#utility.yul\":136:141   */\n  dup2\n    /* \"#utility.yul\":110:142   */\n  tag_27\n  jump\t// in\ntag_26:\n    /* \"#utility.yul\":7:148   */\n  swap3\n  swap2\n  pop\n  pop\n  jump\t// out\n    /* \"#utility.yul\":154:503   */\ntag_3:\n    /* \"#utility.yul\":223:229   */\n  0x00\n    /* \"#utility.yul\":272:274   */\n  0x20\n    /* \"#utility.yul\":260:269   */\n  dup3\n    /* \"#utility.yul\":251:258   */\n  dup5\n    /* \"#utility.yul\":247:270   */\n  sub\n    /* \"#utility.yul\":243:275   */\n  slt\n    /* \"#utility.yul\":240:359   */\n  iszero\n  tag_29\n  jumpi\n    /* \"#utility.yul\":278:357   */\n  tag_30\n  tag_31\n  jump\t// in\ntag_30:\n    /* \"#utility.yul\":240:359   */\ntag_29:\n    /* \"#utility.yul\":398:399   */\n  0x00\n    /* \"#utility.yul\":423:486   */\n  tag_32\n    /* \"#utility.yul\":478:485   */\n  dup5\n    /* \"#utility.yul\":469:475   */\n  dup3\n    /* \"#utility.yul\":458:467   */\n  dup6\n    /* \"#utility.yul\":454:476   */\n  add\n    /* \"#utility.yul\":423:486   */\n  tag_24\n  jump\t// in\ntag_32:\n    /* \"#utility.yul\":413:486   */\n  swap2\n  pop\n    /* \"#utility.yul\":369:496   */\n  pop\n    /* \"#utility.yul\":154:503   */\n  swap3\n  swap2\n  pop\n  pop\n  jump\t// out\n    /* \"#utility.yul\":509:875   */\ntag_33:\n    /* \"#utility.yul\":651:654   */\n  0x00\n    /* \"#utility.yul\":672:739   */\n  tag_35\n    /* \"#utility.yul\":736:738   */\n  0x18\n    /* \"#utility.yul\":731:734   */\n  dup4\n    /* \"#utility.yul\":672:739   */\n  tag_36\n  jump\t// in\ntag_35:\n    /* \"#utility.yul\":665:739   */\n  swap2\n  pop\n    /* \"#utility.yul\":748:841   */\n  tag_37\n    /* \"#utility.yul\":837:840   */\n  dup3\n    /* \"#utility.yul\":748:841   */\n  tag_38\n  jump\t// in\ntag_37:\n    /* \"#utility.yul\":866:868   */\n  0x20\n    /* \"#utility.yul\":861:864   */\n  dup3\n    /* \"#utility.yul\":857:869   */\n  add\n    /* \"#utility.yul\":850:869   */\n  swap1\n  pop\n    /* \"#utility.yul\":509:875   */\n  swap2\n  swap1\n  pop\n  jump\t// out\n    /* \"#utility.yul\":881:1247   */\ntag_39:\n    /* \"#utility.yul\":1023:1026   */\n  0x00\n    /* \"#utility.yul\":1044:1111   */\n  tag_41\n    /* \"#utility.yul\":1108:1110   */\n  0x17\n    /* \"#utility.yul\":1103:1106   */\n  dup4\n    /* \"#utility.yul\":1044:1111   */\n  tag_36\n  jump\t// in\ntag_41:\n    /* \"#utility.yul\":1037:1111   */\n  swap2\n  pop\n    /* \"#utility.yul\":1120:1213   */\n  tag_42\n    /* \"#utility.yul\":1209:1212   */\n  dup3\n    /* \"#utility.yul\":1120:1213   */\n  tag_43\n  jump\t// in\ntag_42:\n    /* \"#utility.yul\":1238:1240   */\n  0x20\n    /* \"#utility.yul\":1233:1236   */\n  dup3\n    /* \"#utility.yul\":1229:1241   */\n  add\n    /* \"#utility.yul\":1222:1241   */\n  swap1\n  pop\n    /* \"#utility.yul\":881:1247   */\n  swap2\n  swap1\n  pop\n  jump\t// out\n    /* \"#utility.yul\":1253:1672   */\ntag_12:\n    /* \"#utility.yul\":1419:1423   */\n  0x00\n    /* \"#utility.yul\":1457:1459   */\n  0x20\n    /* \"#utility.yul\":1446:1455   */\n  dup3\n    /* \"#utility.yul\":1442:1460   */\n  add\n    /* \"#utility.yul\":1434:1460   */\n  swap1\n  pop\n    /* \"#utility.yul\":1506:1515   */\n  dup2\n    /* \"#utility.yul\":1500:1504   */\n  dup2\n    /* \"#utility.yul\":1496:1516   */\n  sub\n    /* \"#utility.yul\":1492:1493   */\n  0x00\n    /* \"#utility.yul\":1481:1490   */\n  dup4\n    /* \"#utility.yul\":1477:1494   */\n  add\n    /* \"#utility.yul\":1470:1517   */\n  mstore\n    /* \"#utility.yul\":1534:1665   */\n  tag_45\n    /* \"#utility.yul\":1660:1664   */\n  dup2\n    /* \"#utility.yul\":1534:1665   */\n  tag_33\n  jump\t// in\ntag_45:\n    /* \"#utility.yul\":1526:1665   */\n  swap1\n  pop\n    /* \"#utility.yul\":1253:1672   */\n  swap2\n  swap1\n  pop\n  jump\t// out\n    /* \"#utility.yul\":1678:2097   */\ntag_22:\n    /* \"#utility.yul\":1844:1848   */\n  0x00\n    /* \"#utility.yul\":1882:1884   */\n  0x20\n    /* \"#utility.yul\":1871:1880   */\n  dup3\n    /* \"#utility.yul\":1867:1885   */\n  add\n    /* \"#utility.yul\":1859:1885   */\n  swap1\n  pop\n    /* \"#utility.yul\":1931:1940   */\n  dup2\n    /* \"#utility.yul\":1925:1929   */\n  dup2\n    /* \"#utility.yul\":1921:1941   */\n  sub\n    /* \"#utility.yul\":1917:1918   */\n  0x00\n    /* \"#utility.yul\":1906:1915   */\n  dup4\n    /* \"#utility.yul\":1902:1919   */\n  add\n    /* \"#utility.yul\":1895:1942   */\n  mstore\n    /* \"#utility.yul\":1959:2090   */\n  tag_47\n    /* \"#utility.yul\":2085:2089   */\n  dup2\n    /* \"#utility.yul\":1959:2090   */\n  tag_39\n  jump\t// in\ntag_47:\n    /* \"#utility.yul\":1951:2090   */\n  swap1\n  pop\n    /* \"#utility.yul\":1678:2097   */\n  swap2\n  swap1\n  pop\n  jump\t// out\n    /* \"#utility.yul\":2184:2353   */\ntag_36:\n    /* \"#utility.yul\":2268:2279   */\n  0x00\n    /* \"#utility.yul\":2302:2308   */\n  dup3\n    /* \"#utility.yul\":2297:2300   */\n  dup3\n    /* \"#utility.yul\":2290:2309   */\n  mstore\n    /* \"#utility.yul\":2342:2346   */\n  0x20\n    /* \"#utility.yul\":2337:2340   */\n  dup3\n    /* \"#utility.yul\":2333:2347   */\n  add\n    /* \"#utility.yul\":2318:2347   */\n  swap1\n  pop\n    /* \"#utility.yul\":2184:2353   */\n  swap3\n  swap2\n  pop\n  pop\n  jump\t// out\n    /* \"#utility.yul\":2359:2460   */\ntag_51:\n    /* \"#utility.yul\":2395:2402   */\n  0x00\n    /* \"#utility.yul\":2435:2453   */\n  0xffffffffffffffff\n    /* \"#utility.yul\":2428:2433   */\n  dup3\n    /* \"#utility.yul\":2424:2454   */\n  and\n    /* \"#utility.yul\":2413:2454   */\n  swap1\n  pop\n    /* \"#utility.yul\":2359:2460   */\n  swap2\n  swap1\n  pop\n  jump\t// out\n    /* \"#utility.yul\":2589:2706   */\ntag_31:\n    /* \"#utility.yul\":2698:2699   */\n  0x00\n    /* \"#utility.yul\":2695:2696   */\n  dup1\n    /* \"#utility.yul\":2688:2700   */\n  revert\n    /* \"#utility.yul\":2712:2886   */\ntag_38:\n    /* \"#utility.yul\":2852:2878   */\n  0x43616e6e6f7420736574206f776e657220746f207a65726f0000000000000000\n    /* \"#utility.yul\":2848:2849   */\n  0x00\n    /* \"#utility.yul\":2840:2846   */\n  dup3\n    /* \"#utility.yul\":2836:2850   */\n  add\n    /* \"#utility.yul\":2829:2879   */\n  mstore\n    /* \"#utility.yul\":2712:2886   */\n  pop\n  jump\t// out\n    /* \"#utility.yul\":2892:3065   */\ntag_43:\n    /* \"#utility.yul\":3032:3057   */\n  0x43616e6e6f74207472616e7366657220746f2073656c66000000000000000000\n    /* \"#utility.yul\":3028:3029   */\n  0x00\n    /* \"#utility.yul\":3020:3026   */\n  dup3\n    /* \"#utility.yul\":3016:3030   */\n  add\n    /* \"#utility.yul\":3009:3058   */\n  mstore\n    /* \"#utility.yul\":2892:3065   */\n  pop\n  jump\t// out\n    /* \"#utility.yul\":3071:3191   */\ntag_27:\n    /* \"#utility.yul\":3143:3166   */\n  tag_59\n    /* \"#utility.yul\":3160:3165   */\n  dup2\n    /* \"#utility.yul\":3143:3166   */\n  tag_51\n  jump\t// in\ntag_59:\n    /* \"#utility.yul\":3136:3141   */\n  dup2\n    /* \"#utility.yul\":3133:3167   */\n  eq\n    /* \"#utility.yul\":3123:3185   */\n  tag_60\n  jumpi\n    /* \"#utility.yul\":3181:3182   */\n  0x00\n    /* \"#utility.yul\":3178:3179   */\n  dup1\n    /* \"#utility.yul\":3171:3183   */\n  revert\n    /* \"#utility.yul\":3123:3185   */\ntag_60:\n    /* \"#utility.yul\":3071:3191   */\n  pop\n  jump\t// out\n    /* \"docs.chain.link/samples/VRF/VRFv2Consumer.sol\":733:4270  contract VRFv2Consumer is VRFConsumerBaseV2, ConfirmedOwner {... */\ntag_18:\n  shr(0x60, mload(0x80))\n  codecopy(0x00, dataOffset(sub_0), dataSize(sub_0))\n  0x00\n  assignImmutable(\"0xa75e2cf51d42f4164e4624f425e61448777a748393b6f6a5bcb1d94d1e8e5e98\")\n  return(0x00, dataSize(sub_0))\nstop\n\nsub_0: assembly {\n        /* \"docs.chain.link/samples/VRF/VRFv2Consumer.sol\":733:4270  contract VRFv2Consumer is VRFConsumerBaseV2, ConfirmedOwner {... */\n      mstore(0x40, 0x80)\n      jumpi(tag_1, lt(calldatasize, 0x04))\n      shr(0xe0, calldataload(0x00))\n      dup1\n      0xa168fa89\n      gt\n      tag_13\n      jumpi\n      dup1\n      0xa168fa89\n      eq\n      tag_7\n      jumpi\n      dup1\n      0xb163cc38\n      eq\n      tag_8\n      jumpi\n      dup1\n      0xd8a4676f\n      eq\n      tag_9\n      jumpi\n      dup1\n      0xe0c86289\n      eq\n      tag_10\n      jumpi\n      dup1\n      0xf2fde38b\n      eq\n      tag_11\n      jumpi\n      dup1\n      0xfc2a88c3\n      eq\n      tag_12\n      jumpi\n      jump(tag_1)\n    tag_13:\n      dup1\n      0x1fe543e3\n      eq\n      tag_2\n      jumpi\n      dup1\n      0x79ba5097\n      eq\n      tag_3\n      jumpi\n      dup1\n      0x8796ba8c\n      eq\n      tag_4\n      jumpi\n      dup1\n      0x8da5cb5b\n      eq\n      tag_5\n      jumpi\n      dup1\n      0x9403e8dd\n      eq\n      tag_6\n      jumpi\n    tag_1:\n      0x00\n      dup1\n      revert\n        /* \"@chainlink/contracts/src/v0.8/VRFConsumerBaseV2.sol\":6618:6874  function rawFulfillRandomWords(uint256 requestId, uint256[] memory randomWords) external {... */\n    tag_2:\n      callvalue\n      dup1\n      iszero\n      tag_14\n      jumpi\n      0x00\n      dup1\n      revert\n    tag_14:\n      pop\n      tag_15\n      0x04\n      dup1\n      calldatasize\n      sub\n      dup2\n      add\n      swap1\n      tag_16\n      swap2\n      swap1\n      tag_17\n      jump\t// in\n    tag_16:\n      tag_18\n      jump\t// in\n    tag_15:\n      stop\n        /* \"@chainlink/contracts/src/v0.8/ConfirmedOwnerWithProposal.sol\":1016:1281  function acceptOwnership() external override {... */\n    tag_3:\n      callvalue\n      dup1\n      iszero\n      tag_19\n      jumpi\n      0x00\n      dup1\n      revert\n    tag_19:\n      pop\n      tag_20\n      tag_21\n      jump\t// in\n    tag_20:\n      stop\n        /* \"docs.chain.link/samples/VRF/VRFv2Consumer.sol\":1342:1369  uint256[] public requestIds */\n    tag_4:\n      callvalue\n      dup1\n      iszero\n      tag_22\n      jumpi\n      0x00\n      dup1\n      revert\n    tag_22:\n      pop\n      tag_23\n      0x04\n      dup1\n      calldatasize\n      sub\n      dup2\n      add\n      swap1\n      tag_24\n      swap2\n      swap1\n      tag_25\n      jump\t// in\n    tag_24:\n      tag_26\n      jump\t// in\n    tag_23:\n      mload(0x40)\n      tag_27\n      swap2\n      swap1\n      tag_28\n      jump\t// in\n    tag_27:\n      mload(0x40)\n      dup1\n      swap2\n      sub\n      swap1\n      return\n        /* \"@chainlink/contracts/src/v0.8/ConfirmedOwnerWithProposal.sol\":1332:1413  function owner() public view override returns (address) {... */\n    tag_5:\n      callvalue\n      dup1\n      iszero\n      tag_29\n      jumpi\n      0x00\n      dup1\n      revert\n    tag_29:\n      pop\n      tag_30\n      tag_31\n      jump\t// in\n    tag_30:\n      mload(0x40)\n      tag_32\n      swap2\n      swap1\n      tag_33\n      jump\t// in\n    tag_32:\n      mload(0x40)\n      dup1\n      swap2\n      sub\n      swap1\n      return\n        /* \"docs.chain.link/samples/VRF/VRFv2Consumer.sol\":2418:2447  address payable public casino */\n    tag_6:\n      callvalue\n      dup1\n      iszero\n      tag_34\n      jumpi\n      0x00\n      dup1\n      revert\n    tag_34:\n      pop\n      tag_35\n      tag_36\n      jump\t// in\n    tag_35:\n      mload(0x40)\n      tag_37\n      swap2\n      swap1\n      tag_38\n      jump\t// in\n    tag_37:\n      mload(0x40)\n      dup1\n      swap2\n      sub\n      swap1\n      return\n        /* \"docs.chain.link/samples/VRF/VRFv2Consumer.sol\":1123:1174  mapping(uint256 => RequestStatus) public s_requests */\n    tag_7:\n      callvalue\n      dup1\n      iszero\n      tag_39\n      jumpi\n      0x00\n      dup1\n      revert\n    tag_39:\n      pop\n      tag_40\n      0x04\n      dup1\n      calldatasize\n      sub\n      dup2\n      add\n      swap1\n      tag_41\n      swap2\n      swap1\n      tag_25\n      jump\t// in\n    tag_41:\n      tag_42\n      jump\t// in\n    tag_40:\n      mload(0x40)\n      tag_43\n      swap3\n      swap2\n      swap1\n      tag_44\n      jump\t// in\n    tag_43:\n      mload(0x40)\n      dup1\n      swap2\n      sub\n      swap1\n      return\n        /* \"docs.chain.link/samples/VRF/VRFv2Consumer.sol\":2893:2939  function addBalance() external payable{... */\n    tag_8:\n      tag_45\n      tag_46\n      jump\t// in\n    tag_45:\n      stop\n        /* \"docs.chain.link/samples/VRF/VRFv2Consumer.sol\":3952:4263  function getRequestStatus(uint256 _requestId) external view returns (bool fulfilled, uint256[] memory randomWords) {... */\n    tag_9:\n      callvalue\n      dup1\n      iszero\n      tag_47\n      jumpi\n      0x00\n      dup1\n      revert\n    tag_47:\n      pop\n      tag_48\n      0x04\n      dup1\n      calldatasize\n      sub\n      dup2\n      add\n      swap1\n      tag_49\n      swap2\n      swap1\n      tag_25\n      jump\t// in\n    tag_49:\n      tag_50\n      jump\t// in\n    tag_48:\n      mload(0x40)\n      tag_51\n      swap3\n      swap2\n      swap1\n      tag_52\n      jump\t// in\n    tag_51:\n      mload(0x40)\n      dup1\n      swap2\n      sub\n      swap1\n      return\n        /* \"docs.chain.link/samples/VRF/VRFv2Consumer.sol\":3001:3602  function requestRandomWords() external onlyOwner returns (uint256 requestId) {... */\n    tag_10:\n      callvalue\n      dup1\n      iszero\n      tag_53\n      jumpi\n      0x00\n      dup1\n      revert\n    tag_53:\n      pop\n      tag_54\n      tag_55\n      jump\t// in\n    tag_54:\n      mload(0x40)\n      tag_56\n      swap2\n      swap1\n      tag_28\n      jump\t// in\n    tag_56:\n      mload(0x40)\n      dup1\n      swap2\n      sub\n      swap1\n      return\n        /* \"@chainlink/contracts/src/v0.8/ConfirmedOwnerWithProposal.sol\":826:924  function transferOwnership(address to) public override onlyOwner {... */\n    tag_11:\n      callvalue\n      dup1\n      iszero\n      tag_57\n      jumpi\n      0x00\n      dup1\n      revert\n    tag_57:\n      pop\n      tag_58\n      0x04\n      dup1\n      calldatasize\n      sub\n      dup2\n      add\n      swap1\n      tag_59\n      swap2\n      swap1\n      tag_60\n      jump\t// in\n    tag_59:\n      tag_61\n      jump\t// in\n    tag_58:\n      stop\n        /* \"docs.chain.link/samples/VRF/VRFv2Consumer.sol\":1375:1403  uint256 public lastRequestId */\n    tag_12:\n      callvalue\n      dup1\n      iszero\n      tag_62\n      jumpi\n      0x00\n      dup1\n      revert\n    tag_62:\n      pop\n      tag_63\n      tag_64\n      jump\t// in\n    tag_63:\n      mload(0x40)\n      tag_65\n      swap2\n      swap1\n      tag_28\n      jump\t// in\n    tag_65:\n      mload(0x40)\n      dup1\n      swap2\n      sub\n      swap1\n      return\n        /* \"@chainlink/contracts/src/v0.8/VRFConsumerBaseV2.sol\":6618:6874  function rawFulfillRandomWords(uint256 requestId, uint256[] memory randomWords) external {... */\n    tag_18:\n        /* \"@chainlink/contracts/src/v0.8/VRFConsumerBaseV2.sol\":6731:6745  vrfCoordinator */\n      immutable(\"0xa75e2cf51d42f4164e4624f425e61448777a748393b6f6a5bcb1d94d1e8e5e98\")\n        /* \"@chainlink/contracts/src/v0.8/VRFConsumerBaseV2.sol\":6717:6745  msg.sender != vrfCoordinator */\n      0xffffffffffffffffffffffffffffffffffffffff\n      and\n        /* \"@chainlink/contracts/src/v0.8/VRFConsumerBaseV2.sol\":6717:6727  msg.sender */\n      caller\n        /* \"@chainlink/contracts/src/v0.8/VRFConsumerBaseV2.sol\":6717:6745  msg.sender != vrfCoordinator */\n      0xffffffffffffffffffffffffffffffffffffffff\n      and\n      eq\n        /* \"@chainlink/contracts/src/v0.8/VRFConsumerBaseV2.sol\":6713:6822  if (msg.sender != vrfCoordinator) {... */\n      tag_67\n      jumpi\n        /* \"@chainlink/contracts/src/v0.8/VRFConsumerBaseV2.sol\":6788:6798  msg.sender */\n      caller\n        /* \"@chainlink/contracts/src/v0.8/VRFConsumerBaseV2.sol\":6800:6814  vrfCoordinator */\n      immutable(\"0xa75e2cf51d42f4164e4624f425e61448777a748393b6f6a5bcb1d94d1e8e5e98\")\n        /* \"@chainlink/contracts/src/v0.8/VRFConsumerBaseV2.sol\":6762:6815  OnlyCoordinatorCanFulfill(msg.sender, vrfCoordinator) */\n      mload(0x40)\n      0x1cf993f400000000000000000000000000000000000000000000000000000000\n      dup2\n      mstore\n      0x04\n      add\n      tag_68\n      swap3\n      swap2\n      swap1\n      tag_69\n      jump\t// in\n    tag_68:\n      mload(0x40)\n      dup1\n      swap2\n      sub\n      swap1\n      revert\n        /* \"@chainlink/contracts/src/v0.8/VRFConsumerBaseV2.sol\":6713:6822  if (msg.sender != vrfCoordinator) {... */\n    tag_67:\n        /* \"@chainlink/contracts/src/v0.8/VRFConsumerBaseV2.sol\":6827:6869  fulfillRandomWords(requestId, randomWords) */\n      tag_70\n        /* \"@chainlink/contracts/src/v0.8/VRFConsumerBaseV2.sol\":6846:6855  requestId */\n      dup3\n        /* \"@chainlink/contracts/src/v0.8/VRFConsumerBaseV2.sol\":6857:6868  randomWords */\n      dup3\n        /* \"@chainlink/contracts/src/v0.8/VRFConsumerBaseV2.sol\":6827:6845  fulfillRandomWords */\n      tag_71\n        /* \"@chainlink/contracts/src/v0.8/VRFConsumerBaseV2.sol\":6827:6869  fulfillRandomWords(requestId, randomWords) */\n      jump\t// in\n    tag_70:\n        /* \"@chainlink/contracts/src/v0.8/VRFConsumerBaseV2.sol\":6618:6874  function rawFulfillRandomWords(uint256 requestId, uint256[] memory randomWords) external {... */\n      pop\n      pop\n      jump\t// out\n        /* \"@chainlink/contracts/src/v0.8/ConfirmedOwnerWithProposal.sol\":1016:1281  function acceptOwnership() external override {... */\n    tag_21:\n        /* \"@chainlink/contracts/src/v0.8/ConfirmedOwnerWithProposal.sol\":1089:1103  s_pendingOwner */\n      0x01\n      0x00\n      swap1\n      sload\n      swap1\n      0x0100\n      exp\n      swap1\n      div\n      0xffffffffffffffffffffffffffffffffffffffff\n      and\n        /* \"@chainlink/contracts/src/v0.8/ConfirmedOwnerWithProposal.sol\":1075:1103  msg.sender == s_pendingOwner */\n      0xffffffffffffffffffffffffffffffffffffffff\n      and\n        /* \"@chainlink/contracts/src/v0.8/ConfirmedOwnerWithProposal.sol\":1075:1085  msg.sender */\n      caller\n        /* \"@chainlink/contracts/src/v0.8/ConfirmedOwnerWithProposal.sol\":1075:1103  msg.sender == s_pendingOwner */\n      0xffffffffffffffffffffffffffffffffffffffff\n      and\n      eq\n        /* \"@chainlink/contracts/src/v0.8/ConfirmedOwnerWithProposal.sol\":1067:1130  require(msg.sender == s_pendingOwner, \"Must be proposed owner\") */\n      tag_73\n      jumpi\n      mload(0x40)\n      0x08c379a000000000000000000000000000000000000000000000000000000000\n      dup2\n      mstore\n      0x04\n      add\n      tag_74\n      swap1\n      tag_75\n      jump\t// in\n    tag_74:\n      mload(0x40)\n      dup1\n      swap2\n      sub\n      swap1\n      revert\n    tag_73:\n        /* \"@chainlink/contracts/src/v0.8/ConfirmedOwnerWithProposal.sol\":1137:1153  address oldOwner */\n      0x00\n        /* \"@chainlink/contracts/src/v0.8/ConfirmedOwnerWithProposal.sol\":1156:1163  s_owner */\n      dup1\n      0x00\n      swap1\n      sload\n      swap1\n      0x0100\n      exp\n      swap1\n      div\n      0xffffffffffffffffffffffffffffffffffffffff\n      and\n        /* \"@chainlink/contracts/src/v0.8/ConfirmedOwnerWithProposal.sol\":1137:1163  address oldOwner = s_owner */\n      swap1\n      pop\n        /* \"@chainlink/contracts/src/v0.8/ConfirmedOwnerWithProposal.sol\":1179:1189  msg.sender */\n      caller\n        /* \"@chainlink/contracts/src/v0.8/ConfirmedOwnerWithProposal.sol\":1169:1176  s_owner */\n      0x00\n      dup1\n        /* \"@chainlink/contracts/src/v0.8/ConfirmedOwnerWithProposal.sol\":1169:1189  s_owner = msg.sender */\n      0x0100\n      exp\n      dup2\n      sload\n      dup2\n      0xffffffffffffffffffffffffffffffffffffffff\n      mul\n      not\n      and\n      swap1\n      dup4\n      0xffffffffffffffffffffffffffffffffffffffff\n      and\n      mul\n      or\n      swap1\n      sstore\n      pop\n        /* \"@chainlink/contracts/src/v0.8/ConfirmedOwnerWithProposal.sol\":1220:1221  0 */\n      0x00\n        /* \"@chainlink/contracts/src/v0.8/ConfirmedOwnerWithProposal.sol\":1195:1209  s_pendingOwner */\n      0x01\n      0x00\n        /* \"@chainlink/contracts/src/v0.8/ConfirmedOwnerWithProposal.sol\":1195:1222  s_pendingOwner = address(0) */\n      0x0100\n      exp\n      dup2\n      sload\n      dup2\n      0xffffffffffffffffffffffffffffffffffffffff\n      mul\n      not\n      and\n      swap1\n      dup4\n      0xffffffffffffffffffffffffffffffffffffffff\n      and\n      mul\n      or\n      swap1\n      sstore\n      pop\n        /* \"@chainlink/contracts/src/v0.8/ConfirmedOwnerWithProposal.sol\":1265:1275  msg.sender */\n      caller\n        /* \"@chainlink/contracts/src/v0.8/ConfirmedOwnerWithProposal.sol\":1234:1276  OwnershipTransferred(oldOwner, msg.sender) */\n      0xffffffffffffffffffffffffffffffffffffffff\n      and\n        /* \"@chainlink/contracts/src/v0.8/ConfirmedOwnerWithProposal.sol\":1255:1263  oldOwner */\n      dup2\n        /* \"@chainlink/contracts/src/v0.8/ConfirmedOwnerWithProposal.sol\":1234:1276  OwnershipTransferred(oldOwner, msg.sender) */\n      0xffffffffffffffffffffffffffffffffffffffff\n      and\n      0x8be0079c531659141344cd1fd0a4f28419497f9722a3daafe3b4186f6b6457e0\n      mload(0x40)\n      mload(0x40)\n      dup1\n      swap2\n      sub\n      swap1\n      log3\n        /* \"@chainlink/contracts/src/v0.8/ConfirmedOwnerWithProposal.sol\":1061:1281  {... */\n      pop\n        /* \"@chainlink/contracts/src/v0.8/ConfirmedOwnerWithProposal.sol\":1016:1281  function acceptOwnership() external override {... */\n      jump\t// out\n        /* \"docs.chain.link/samples/VRF/VRFv2Consumer.sol\":1342:1369  uint256[] public requestIds */\n    tag_26:\n      0x04\n      dup2\n      dup2\n      sload\n      dup2\n      lt\n      tag_76\n      jumpi\n      0x00\n      dup1\n      revert\n    tag_76:\n      swap1\n      0x00\n      mstore\n      keccak256(0x00, 0x20)\n      add\n      0x00\n      swap2\n      pop\n      swap1\n      pop\n      sload\n      dup2\n      jump\t// out\n        /* \"@chainlink/contracts/src/v0.8/ConfirmedOwnerWithProposal.sol\":1332:1413  function owner() public view override returns (address) {... */\n    tag_31:\n        /* \"@chainlink/contracts/src/v0.8/ConfirmedOwnerWithProposal.sol\":1379:1386  address */\n      0x00\n        /* \"@chainlink/contracts/src/v0.8/ConfirmedOwnerWithProposal.sol\":1401:1408  s_owner */\n      dup1\n      0x00\n      swap1\n      sload\n      swap1\n      0x0100\n      exp\n      swap1\n      div\n      0xffffffffffffffffffffffffffffffffffffffff\n      and\n        /* \"@chainlink/contracts/src/v0.8/ConfirmedOwnerWithProposal.sol\":1394:1408  return s_owner */\n      swap1\n      pop\n        /* \"@chainlink/contracts/src/v0.8/ConfirmedOwnerWithProposal.sol\":1332:1413  function owner() public view override returns (address) {... */\n      swap1\n      jump\t// out\n        /* \"docs.chain.link/samples/VRF/VRFv2Consumer.sol\":2418:2447  address payable public casino */\n    tag_36:\n      0x07\n      0x0a\n      swap1\n      sload\n      swap1\n      0x0100\n      exp\n      swap1\n      div\n      0xffffffffffffffffffffffffffffffffffffffff\n      and\n      dup2\n      jump\t// out\n        /* \"docs.chain.link/samples/VRF/VRFv2Consumer.sol\":1123:1174  mapping(uint256 => RequestStatus) public s_requests */\n    tag_42:\n      mstore(0x20, 0x02)\n      dup1\n      0x00\n      mstore\n      keccak256(0x00, 0x40)\n      0x00\n      swap2\n      pop\n      swap1\n      pop\n      dup1\n      0x00\n      add\n      0x00\n      swap1\n      sload\n      swap1\n      0x0100\n      exp\n      swap1\n      div\n      0xff\n      and\n      swap1\n      dup1\n      0x00\n      add\n      0x01\n      swap1\n      sload\n      swap1\n      0x0100\n      exp\n      swap1\n      div\n      0xff\n      and\n      swap1\n      pop\n      dup3\n      jump\t// out\n        /* \"docs.chain.link/samples/VRF/VRFv2Consumer.sol\":2893:2939  function addBalance() external payable{... */\n    tag_46:\n      jump\t// out\n        /* \"docs.chain.link/samples/VRF/VRFv2Consumer.sol\":3952:4263  function getRequestStatus(uint256 _requestId) external view returns (bool fulfilled, uint256[] memory randomWords) {... */\n    tag_50:\n        /* \"docs.chain.link/samples/VRF/VRFv2Consumer.sol\":4021:4035  bool fulfilled */\n      0x00\n        /* \"docs.chain.link/samples/VRF/VRFv2Consumer.sol\":4037:4065  uint256[] memory randomWords */\n      0x60\n        /* \"docs.chain.link/samples/VRF/VRFv2Consumer.sol\":4085:4095  s_requests */\n      0x02\n        /* \"docs.chain.link/samples/VRF/VRFv2Consumer.sol\":4085:4107  s_requests[_requestId] */\n      0x00\n        /* \"docs.chain.link/samples/VRF/VRFv2Consumer.sol\":4096:4106  _requestId */\n      dup5\n        /* \"docs.chain.link/samples/VRF/VRFv2Consumer.sol\":4085:4107  s_requests[_requestId] */\n      dup2\n      mstore\n      0x20\n      add\n      swap1\n      dup2\n      mstore\n      0x20\n      add\n      0x00\n      keccak256\n        /* \"docs.chain.link/samples/VRF/VRFv2Consumer.sol\":4085:4114  s_requests[_requestId].exists */\n      0x00\n      add\n      0x01\n      swap1\n      sload\n      swap1\n      0x0100\n      exp\n      swap1\n      div\n      0xff\n      and\n        /* \"docs.chain.link/samples/VRF/VRFv2Consumer.sol\":4077:4136  require(s_requests[_requestId].exists, 'request not found') */\n      tag_81\n      jumpi\n      mload(0x40)\n      0x08c379a000000000000000000000000000000000000000000000000000000000\n      dup2\n      mstore\n      0x04\n      add\n      tag_82\n      swap1\n      tag_83\n      jump\t// in\n    tag_82:\n      mload(0x40)\n      dup1\n      swap2\n      sub\n      swap1\n      revert\n    tag_81:\n        /* \"docs.chain.link/samples/VRF/VRFv2Consumer.sol\":4146:4174  RequestStatus memory request */\n      0x00\n        /* \"docs.chain.link/samples/VRF/VRFv2Consumer.sol\":4177:4187  s_requests */\n      0x02\n        /* \"docs.chain.link/samples/VRF/VRFv2Consumer.sol\":4177:4199  s_requests[_requestId] */\n      0x00\n        /* \"docs.chain.link/samples/VRF/VRFv2Consumer.sol\":4188:4198  _requestId */\n      dup6\n        /* \"docs.chain.link/samples/VRF/VRFv2Consumer.sol\":4177:4199  s_requests[_requestId] */\n      dup2\n      mstore\n      0x20\n      add\n      swap1\n      dup2\n      mstore\n      0x20\n      add\n      0x00\n      keccak256\n        /* \"docs.chain.link/samples/VRF/VRFv2Consumer.sol\":4146:4199  RequestStatus memory request = s_requests[_requestId] */\n      mload(0x40)\n      dup1\n      0x60\n      add\n      0x40\n      mstore\n      swap1\n      dup2\n      0x00\n      dup3\n      add\n      0x00\n      swap1\n      sload\n      swap1\n      0x0100\n      exp\n      swap1\n      div\n      0xff\n      and\n      iszero\n      iszero\n      iszero\n      iszero\n      dup2\n      mstore\n      0x20\n      add\n      0x00\n      dup3\n      add\n      0x01\n      swap1\n      sload\n      swap1\n      0x0100\n      exp\n      swap1\n      div\n      0xff\n      and\n      iszero\n      iszero\n      iszero\n      iszero\n      dup2\n      mstore\n      0x20\n      add\n      0x01\n      dup3\n      add\n      dup1\n      sload\n      dup1\n      0x20\n      mul\n      0x20\n      add\n      mload(0x40)\n      swap1\n      dup2\n      add\n      0x40\n      mstore\n      dup1\n      swap3\n      swap2\n      swap1\n      dup2\n      dup2\n      mstore\n      0x20\n      add\n      dup3\n      dup1\n      sload\n      dup1\n      iszero\n      tag_84\n      jumpi\n      0x20\n      mul\n      dup3\n      add\n      swap2\n      swap1\n      0x00\n      mstore\n      keccak256(0x00, 0x20)\n      swap1\n    tag_85:\n      dup2\n      sload\n      dup2\n      mstore\n      0x20\n      add\n      swap1\n      0x01\n      add\n      swap1\n      dup1\n      dup4\n      gt\n      tag_85\n      jumpi\n    tag_84:\n      pop\n      pop\n      pop\n      pop\n      pop\n      dup2\n      mstore\n      pop\n      pop\n      swap1\n      pop\n        /* \"docs.chain.link/samples/VRF/VRFv2Consumer.sol\":4217:4224  request */\n      dup1\n        /* \"docs.chain.link/samples/VRF/VRFv2Consumer.sol\":4217:4234  request.fulfilled */\n      0x00\n      add\n      mload\n        /* \"docs.chain.link/samples/VRF/VRFv2Consumer.sol\":4236:4243  request */\n      dup2\n        /* \"docs.chain.link/samples/VRF/VRFv2Consumer.sol\":4236:4255  request.randomWords */\n      0x40\n      add\n      mload\n        /* \"docs.chain.link/samples/VRF/VRFv2Consumer.sol\":4209:4256  return (request.fulfilled, request.randomWords) */\n      swap3\n      pop\n      swap3\n      pop\n      pop\n        /* \"docs.chain.link/samples/VRF/VRFv2Consumer.sol\":3952:4263  function getRequestStatus(uint256 _requestId) external view returns (bool fulfilled, uint256[] memory randomWords) {... */\n      swap2\n      pop\n      swap2\n      jump\t// out\n        /* \"docs.chain.link/samples/VRF/VRFv2Consumer.sol\":3001:3602  function requestRandomWords() external onlyOwner returns (uint256 requestId) {... */\n    tag_55:\n        /* \"docs.chain.link/samples/VRF/VRFv2Consumer.sol\":3059:3076  uint256 requestId */\n      0x00\n        /* \"@chainlink/contracts/src/v0.8/ConfirmedOwnerWithProposal.sol\":1956:1976  _validateOwnership() */\n      tag_87\n        /* \"@chainlink/contracts/src/v0.8/ConfirmedOwnerWithProposal.sol\":1956:1974  _validateOwnership */\n      tag_88\n        /* \"@chainlink/contracts/src/v0.8/ConfirmedOwnerWithProposal.sol\":1956:1976  _validateOwnership() */\n      jump\t// in\n    tag_87:\n        /* \"docs.chain.link/samples/VRF/VRFv2Consumer.sol\":3162:3173  COORDINATOR */\n      0x03\n      0x00\n      swap1\n      sload\n      swap1\n      0x0100\n      exp\n      swap1\n      div\n      0xffffffffffffffffffffffffffffffffffffffff\n      and\n        /* \"docs.chain.link/samples/VRF/VRFv2Consumer.sol\":3162:3192  COORDINATOR.requestRandomWords */\n      0xffffffffffffffffffffffffffffffffffffffff\n      and\n      0x5d3b1d30\n        /* \"docs.chain.link/samples/VRF/VRFv2Consumer.sol\":3206:3213  keyHash */\n      sload(0x06)\n        /* \"docs.chain.link/samples/VRF/VRFv2Consumer.sol\":3227:3243  s_subscriptionId */\n      0x03\n      0x14\n      swap1\n      sload\n      swap1\n      0x0100\n      exp\n      swap1\n      div\n      0xffffffffffffffff\n      and\n        /* \"docs.chain.link/samples/VRF/VRFv2Consumer.sol\":3257:3277  requestConfirmations */\n      0x07\n      0x04\n      swap1\n      sload\n      swap1\n      0x0100\n      exp\n      swap1\n      div\n      0xffff\n      and\n        /* \"docs.chain.link/samples/VRF/VRFv2Consumer.sol\":3291:3307  callbackGasLimit */\n      0x07\n      0x00\n      swap1\n      sload\n      swap1\n      0x0100\n      exp\n      swap1\n      div\n      0xffffffff\n      and\n        /* \"docs.chain.link/samples/VRF/VRFv2Consumer.sol\":3321:3329  numWords */\n      0x07\n      0x06\n      swap1\n      sload\n      swap1\n      0x0100\n      exp\n      swap1\n      div\n      0xffffffff\n      and\n        /* \"docs.chain.link/samples/VRF/VRFv2Consumer.sol\":3162:3339  COORDINATOR.requestRandomWords(... */\n      mload(0x40)\n      dup7\n      0xffffffff\n      and\n      0xe0\n      shl\n      dup2\n      mstore\n      0x04\n      add\n      tag_90\n      swap6\n      swap5\n      swap4\n      swap3\n      swap2\n      swap1\n      tag_91\n      jump\t// in\n    tag_90:\n      0x20\n      mload(0x40)\n      dup1\n      dup4\n      sub\n      dup2\n      0x00\n      dup8\n      dup1\n      extcodesize\n      iszero\n      dup1\n      iszero\n      tag_92\n      jumpi\n      0x00\n      dup1\n      revert\n    tag_92:\n      pop\n      gas\n      call\n      iszero\n      dup1\n      iszero\n      tag_94\n      jumpi\n      returndatasize\n      0x00\n      dup1\n      returndatacopy\n      revert(0x00, returndatasize)\n    tag_94:\n      pop\n      pop\n      pop\n      pop\n      mload(0x40)\n      returndatasize\n      not(0x1f)\n      0x1f\n      dup3\n      add\n      and\n      dup3\n      add\n      dup1\n      0x40\n      mstore\n      pop\n      dup2\n      add\n      swap1\n      tag_95\n      swap2\n      swap1\n      tag_96\n      jump\t// in\n    tag_95:\n        /* \"docs.chain.link/samples/VRF/VRFv2Consumer.sol\":3150:3339  requestId = COORDINATOR.requestRandomWords(... */\n      swap1\n      pop\n        /* \"docs.chain.link/samples/VRF/VRFv2Consumer.sol\":3373:3451  RequestStatus({randomWords: new uint256[](0), exists: true, fulfilled: false}) */\n      mload(0x40)\n      dup1\n      0x60\n      add\n      0x40\n      mstore\n      dup1\n        /* \"docs.chain.link/samples/VRF/VRFv2Consumer.sol\":3444:3449  false */\n      0x00\n        /* \"docs.chain.link/samples/VRF/VRFv2Consumer.sol\":3373:3451  RequestStatus({randomWords: new uint256[](0), exists: true, fulfilled: false}) */\n      iszero\n      iszero\n      dup2\n      mstore\n      0x20\n      add\n        /* \"docs.chain.link/samples/VRF/VRFv2Consumer.sol\":3427:3431  true */\n      0x01\n        /* \"docs.chain.link/samples/VRF/VRFv2Consumer.sol\":3373:3451  RequestStatus({randomWords: new uint256[](0), exists: true, fulfilled: false}) */\n      iszero\n      iszero\n      dup2\n      mstore\n      0x20\n      add\n        /* \"docs.chain.link/samples/VRF/VRFv2Consumer.sol\":3415:3416  0 */\n      0x00\n        /* \"docs.chain.link/samples/VRF/VRFv2Consumer.sol\":3401:3417  new uint256[](0) */\n      0xffffffffffffffff\n      dup2\n      gt\n      iszero\n      tag_97\n      jumpi\n      tag_98\n      tag_99\n      jump\t// in\n    tag_98:\n    tag_97:\n      mload(0x40)\n      swap1\n      dup1\n      dup3\n      mstore\n      dup1\n      0x20\n      mul\n      0x20\n      add\n      dup3\n      add\n      0x40\n      mstore\n      dup1\n      iszero\n      tag_100\n      jumpi\n      dup2\n      0x20\n      add\n      0x20\n      dup3\n      mul\n      dup1\n      calldatasize\n      dup4\n      calldatacopy\n      dup1\n      dup3\n      add\n      swap2\n      pop\n      pop\n      swap1\n      pop\n    tag_100:\n      pop\n        /* \"docs.chain.link/samples/VRF/VRFv2Consumer.sol\":3373:3451  RequestStatus({randomWords: new uint256[](0), exists: true, fulfilled: false}) */\n      dup2\n      mstore\n      pop\n        /* \"docs.chain.link/samples/VRF/VRFv2Consumer.sol\":3349:3359  s_requests */\n      0x02\n        /* \"docs.chain.link/samples/VRF/VRFv2Consumer.sol\":3349:3370  s_requests[requestId] */\n      0x00\n        /* \"docs.chain.link/samples/VRF/VRFv2Consumer.sol\":3360:3369  requestId */\n      dup4\n        /* \"docs.chain.link/samples/VRF/VRFv2Consumer.sol\":3349:3370  s_requests[requestId] */\n      dup2\n      mstore\n      0x20\n      add\n      swap1\n      dup2\n      mstore\n      0x20\n      add\n      0x00\n      keccak256\n        /* \"docs.chain.link/samples/VRF/VRFv2Consumer.sol\":3349:3451  s_requests[requestId] = RequestStatus({randomWords: new uint256[](0), exists: true, fulfilled: false}) */\n      0x00\n      dup3\n      add\n      mload\n      dup2\n      0x00\n      add\n      exp(0x0100, 0x00)\n      dup2\n      sload\n      dup2\n      0xff\n      mul\n      not\n      and\n      swap1\n      dup4\n      iszero\n      iszero\n      mul\n      or\n      swap1\n      sstore\n      pop\n      0x20\n      dup3\n      add\n      mload\n      dup2\n      0x00\n      add\n      exp(0x0100, 0x01)\n      dup2\n      sload\n      dup2\n      0xff\n      mul\n      not\n      and\n      swap1\n      dup4\n      iszero\n      iszero\n      mul\n      or\n      swap1\n      sstore\n      pop\n      0x40\n      dup3\n      add\n      mload\n      dup2\n      0x01\n      add\n      swap1\n      dup1\n      mload\n      swap1\n      0x20\n      add\n      swap1\n      tag_101\n      swap3\n      swap2\n      swap1\n      tag_102\n      jump\t// in\n    tag_101:\n      pop\n      swap1\n      pop\n      pop\n        /* \"docs.chain.link/samples/VRF/VRFv2Consumer.sol\":3461:3471  requestIds */\n      0x04\n        /* \"docs.chain.link/samples/VRF/VRFv2Consumer.sol\":3477:3486  requestId */\n      dup2\n        /* \"docs.chain.link/samples/VRF/VRFv2Consumer.sol\":3461:3487  requestIds.push(requestId) */\n      swap1\n      dup1\n      0x01\n      dup2\n      sload\n      add\n      dup1\n      dup3\n      sstore\n      dup1\n      swap2\n      pop\n      pop\n      0x01\n      swap1\n      sub\n      swap1\n      0x00\n      mstore\n      keccak256(0x00, 0x20)\n      add\n      0x00\n      swap1\n      swap2\n      swap1\n      swap2\n      swap1\n      swap2\n      pop\n      sstore\n        /* \"docs.chain.link/samples/VRF/VRFv2Consumer.sol\":3513:3522  requestId */\n      dup1\n        /* \"docs.chain.link/samples/VRF/VRFv2Consumer.sol\":3497:3510  lastRequestId */\n      0x05\n        /* \"docs.chain.link/samples/VRF/VRFv2Consumer.sol\":3497:3522  lastRequestId = requestId */\n      dup2\n      swap1\n      sstore\n      pop\n        /* \"docs.chain.link/samples/VRF/VRFv2Consumer.sol\":3537:3569  RequestSent(requestId, numWords) */\n      0xcc58b13ad3eab50626c6a6300b1d139cd6ebb1688a7cced9461c2f7e762665ee\n        /* \"docs.chain.link/samples/VRF/VRFv2Consumer.sol\":3549:3558  requestId */\n      dup2\n        /* \"docs.chain.link/samples/VRF/VRFv2Consumer.sol\":3560:3568  numWords */\n      0x07\n      0x06\n      swap1\n      sload\n      swap1\n      0x0100\n      exp\n      swap1\n      div\n      0xffffffff\n      and\n        /* \"docs.chain.link/samples/VRF/VRFv2Consumer.sol\":3537:3569  RequestSent(requestId, numWords) */\n      mload(0x40)\n      tag_104\n      swap3\n      swap2\n      swap1\n      tag_105\n      jump\t// in\n    tag_104:\n      mload(0x40)\n      dup1\n      swap2\n      sub\n      swap1\n      log1\n        /* \"docs.chain.link/samples/VRF/VRFv2Consumer.sol\":3001:3602  function requestRandomWords() external onlyOwner returns (uint256 requestId) {... */\n      swap1\n      jump\t// out\n        /* \"@chainlink/contracts/src/v0.8/ConfirmedOwnerWithProposal.sol\":826:924  function transferOwnership(address to) public override onlyOwner {... */\n    tag_61:\n        /* \"@chainlink/contracts/src/v0.8/ConfirmedOwnerWithProposal.sol\":1956:1976  _validateOwnership() */\n      tag_107\n        /* \"@chainlink/contracts/src/v0.8/ConfirmedOwnerWithProposal.sol\":1956:1974  _validateOwnership */\n      tag_88\n        /* \"@chainlink/contracts/src/v0.8/ConfirmedOwnerWithProposal.sol\":1956:1976  _validateOwnership() */\n      jump\t// in\n    tag_107:\n        /* \"@chainlink/contracts/src/v0.8/ConfirmedOwnerWithProposal.sol\":897:919  _transferOwnership(to) */\n      tag_109\n        /* \"@chainlink/contracts/src/v0.8/ConfirmedOwnerWithProposal.sol\":916:918  to */\n      dup2\n        /* \"@chainlink/contracts/src/v0.8/ConfirmedOwnerWithProposal.sol\":897:915  _transferOwnership */\n      tag_110\n        /* \"@chainlink/contracts/src/v0.8/ConfirmedOwnerWithProposal.sol\":897:919  _transferOwnership(to) */\n      jump\t// in\n    tag_109:\n        /* \"@chainlink/contracts/src/v0.8/ConfirmedOwnerWithProposal.sol\":826:924  function transferOwnership(address to) public override onlyOwner {... */\n      pop\n      jump\t// out\n        /* \"docs.chain.link/samples/VRF/VRFv2Consumer.sol\":1375:1403  uint256 public lastRequestId */\n    tag_64:\n      sload(0x05)\n      dup2\n      jump\t// out\n        /* \"docs.chain.link/samples/VRF/VRFv2Consumer.sol\":3608:3946  function fulfillRandomWords(uint256 _requestId, uint256[] memory _randomWords) internal override {... */\n    tag_71:\n        /* \"docs.chain.link/samples/VRF/VRFv2Consumer.sol\":3723:3733  s_requests */\n      0x02\n        /* \"docs.chain.link/samples/VRF/VRFv2Consumer.sol\":3723:3745  s_requests[_requestId] */\n      0x00\n        /* \"docs.chain.link/samples/VRF/VRFv2Consumer.sol\":3734:3744  _requestId */\n      dup4\n        /* \"docs.chain.link/samples/VRF/VRFv2Consumer.sol\":3723:3745  s_requests[_requestId] */\n      dup2\n      mstore\n      0x20\n      add\n      swap1\n      dup2\n      mstore\n      0x20\n      add\n      0x00\n      keccak256\n        /* \"docs.chain.link/samples/VRF/VRFv2Consumer.sol\":3723:3752  s_requests[_requestId].exists */\n      0x00\n      add\n      0x01\n      swap1\n      sload\n      swap1\n      0x0100\n      exp\n      swap1\n      div\n      0xff\n      and\n        /* \"docs.chain.link/samples/VRF/VRFv2Consumer.sol\":3715:3774  require(s_requests[_requestId].exists, 'request not found') */\n      tag_112\n      jumpi\n      mload(0x40)\n      0x08c379a000000000000000000000000000000000000000000000000000000000\n      dup2\n      mstore\n      0x04\n      add\n      tag_113\n      swap1\n      tag_83\n      jump\t// in\n    tag_113:\n      mload(0x40)\n      dup1\n      swap2\n      sub\n      swap1\n      revert\n    tag_112:\n        /* \"docs.chain.link/samples/VRF/VRFv2Consumer.sol\":3819:3823  true */\n      0x01\n        /* \"docs.chain.link/samples/VRF/VRFv2Consumer.sol\":3784:3794  s_requests */\n      0x02\n        /* \"docs.chain.link/samples/VRF/VRFv2Consumer.sol\":3784:3806  s_requests[_requestId] */\n      0x00\n        /* \"docs.chain.link/samples/VRF/VRFv2Consumer.sol\":3795:3805  _requestId */\n      dup5\n        /* \"docs.chain.link/samples/VRF/VRFv2Consumer.sol\":3784:3806  s_requests[_requestId] */\n      dup2\n      mstore\n      0x20\n      add\n      swap1\n      dup2\n      mstore\n      0x20\n      add\n      0x00\n      keccak256\n        /* \"docs.chain.link/samples/VRF/VRFv2Consumer.sol\":3784:3816  s_requests[_requestId].fulfilled */\n      0x00\n      add\n      0x00\n        /* \"docs.chain.link/samples/VRF/VRFv2Consumer.sol\":3784:3823  s_requests[_requestId].fulfilled = true */\n      0x0100\n      exp\n      dup2\n      sload\n      dup2\n      0xff\n      mul\n      not\n      and\n      swap1\n      dup4\n      iszero\n      iszero\n      mul\n      or\n      swap1\n      sstore\n      pop\n        /* \"docs.chain.link/samples/VRF/VRFv2Consumer.sol\":3870:3882  _randomWords */\n      dup1\n        /* \"docs.chain.link/samples/VRF/VRFv2Consumer.sol\":3833:3843  s_requests */\n      0x02\n        /* \"docs.chain.link/samples/VRF/VRFv2Consumer.sol\":3833:3855  s_requests[_requestId] */\n      0x00\n        /* \"docs.chain.link/samples/VRF/VRFv2Consumer.sol\":3844:3854  _requestId */\n      dup5\n        /* \"docs.chain.link/samples/VRF/VRFv2Consumer.sol\":3833:3855  s_requests[_requestId] */\n      dup2\n      mstore\n      0x20\n      add\n      swap1\n      dup2\n      mstore\n      0x20\n      add\n      0x00\n      keccak256\n        /* \"docs.chain.link/samples/VRF/VRFv2Consumer.sol\":3833:3867  s_requests[_requestId].randomWords */\n      0x01\n      add\n        /* \"docs.chain.link/samples/VRF/VRFv2Consumer.sol\":3833:3882  s_requests[_requestId].randomWords = _randomWords */\n      swap1\n      dup1\n      mload\n      swap1\n      0x20\n      add\n      swap1\n      tag_114\n      swap3\n      swap2\n      swap1\n      tag_102\n      jump\t// in\n    tag_114:\n      pop\n        /* \"docs.chain.link/samples/VRF/VRFv2Consumer.sol\":3897:3939  RequestFulfilled(_requestId, _randomWords) */\n      0xfe2e2d779dba245964d4e3ef9b994be63856fd568bf7d3ca9e224755cb1bd54d\n        /* \"docs.chain.link/samples/VRF/VRFv2Consumer.sol\":3914:3924  _requestId */\n      dup3\n        /* \"docs.chain.link/samples/VRF/VRFv2Consumer.sol\":3926:3938  _randomWords */\n      dup3\n        /* \"docs.chain.link/samples/VRF/VRFv2Consumer.sol\":3897:3939  RequestFulfilled(_requestId, _randomWords) */\n      mload(0x40)\n      tag_115\n      swap3\n      swap2\n      swap1\n      tag_116\n      jump\t// in\n    tag_115:\n      mload(0x40)\n      dup1\n      swap2\n      sub\n      swap1\n      log1\n        /* \"docs.chain.link/samples/VRF/VRFv2Consumer.sol\":3608:3946  function fulfillRandomWords(uint256 _requestId, uint256[] memory _randomWords) internal override {... */\n      pop\n      pop\n      jump\t// out\n        /* \"@chainlink/contracts/src/v0.8/ConfirmedOwnerWithProposal.sol\":1730:1841  function _validateOwnership() internal view {... */\n    tag_88:\n        /* \"@chainlink/contracts/src/v0.8/ConfirmedOwnerWithProposal.sol\":1802:1809  s_owner */\n      0x00\n      dup1\n      sload\n      swap1\n      0x0100\n      exp\n      swap1\n      div\n      0xffffffffffffffffffffffffffffffffffffffff\n      and\n        /* \"@chainlink/contracts/src/v0.8/ConfirmedOwnerWithProposal.sol\":1788:1809  msg.sender == s_owner */\n      0xffffffffffffffffffffffffffffffffffffffff\n      and\n        /* \"@chainlink/contracts/src/v0.8/ConfirmedOwnerWithProposal.sol\":1788:1798  msg.sender */\n      caller\n        /* \"@chainlink/contracts/src/v0.8/ConfirmedOwnerWithProposal.sol\":1788:1809  msg.sender == s_owner */\n      0xffffffffffffffffffffffffffffffffffffffff\n      and\n      eq\n        /* \"@chainlink/contracts/src/v0.8/ConfirmedOwnerWithProposal.sol\":1780:1836  require(msg.sender == s_owner, \"Only callable by owner\") */\n      tag_118\n      jumpi\n      mload(0x40)\n      0x08c379a000000000000000000000000000000000000000000000000000000000\n      dup2\n      mstore\n      0x04\n      add\n      tag_119\n      swap1\n      tag_120\n      jump\t// in\n    tag_119:\n      mload(0x40)\n      dup1\n      swap2\n      sub\n      swap1\n      revert\n    tag_118:\n        /* \"@chainlink/contracts/src/v0.8/ConfirmedOwnerWithProposal.sol\":1730:1841  function _validateOwnership() internal view {... */\n      jump\t// out\n        /* \"@chainlink/contracts/src/v0.8/ConfirmedOwnerWithProposal.sol\":1497:1685  function _transferOwnership(address to) private {... */\n    tag_110:\n        /* \"@chainlink/contracts/src/v0.8/ConfirmedOwnerWithProposal.sol\":1565:1575  msg.sender */\n      caller\n        /* \"@chainlink/contracts/src/v0.8/ConfirmedOwnerWithProposal.sol\":1559:1575  to != msg.sender */\n      0xffffffffffffffffffffffffffffffffffffffff\n      and\n        /* \"@chainlink/contracts/src/v0.8/ConfirmedOwnerWithProposal.sol\":1559:1561  to */\n      dup2\n        /* \"@chainlink/contracts/src/v0.8/ConfirmedOwnerWithProposal.sol\":1559:1575  to != msg.sender */\n      0xffffffffffffffffffffffffffffffffffffffff\n      and\n      eq\n      iszero\n        /* \"@chainlink/contracts/src/v0.8/ConfirmedOwnerWithProposal.sol\":1551:1603  require(to != msg.sender, \"Cannot transfer to self\") */\n      tag_122\n      jumpi\n      mload(0x40)\n      0x08c379a000000000000000000000000000000000000000000000000000000000\n      dup2\n      mstore\n      0x04\n      add\n      tag_123\n      swap1\n      tag_124\n      jump\t// in\n    tag_123:\n      mload(0x40)\n      dup1\n      swap2\n      sub\n      swap1\n      revert\n    tag_122:\n        /* \"@chainlink/contracts/src/v0.8/ConfirmedOwnerWithProposal.sol\":1627:1629  to */\n      dup1\n        /* \"@chainlink/contracts/src/v0.8/ConfirmedOwnerWithProposal.sol\":1610:1624  s_pendingOwner */\n      0x01\n      0x00\n        /* \"@chainlink/contracts/src/v0.8/ConfirmedOwnerWithProposal.sol\":1610:1629  s_pendingOwner = to */\n      0x0100\n      exp\n      dup2\n      sload\n      dup2\n      0xffffffffffffffffffffffffffffffffffffffff\n      mul\n      not\n      and\n      swap1\n      dup4\n      0xffffffffffffffffffffffffffffffffffffffff\n      and\n      mul\n      or\n      swap1\n      sstore\n      pop\n        /* \"@chainlink/contracts/src/v0.8/ConfirmedOwnerWithProposal.sol\":1677:1679  to */\n      dup1\n        /* \"@chainlink/contracts/src/v0.8/ConfirmedOwnerWithProposal.sol\":1641:1680  OwnershipTransferRequested(s_owner, to) */\n      0xffffffffffffffffffffffffffffffffffffffff\n      and\n        /* \"@chainlink/contracts/src/v0.8/ConfirmedOwnerWithProposal.sol\":1668:1675  s_owner */\n      0x00\n      dup1\n      sload\n      swap1\n      0x0100\n      exp\n      swap1\n      div\n      0xffffffffffffffffffffffffffffffffffffffff\n      and\n        /* \"@chainlink/contracts/src/v0.8/ConfirmedOwnerWithProposal.sol\":1641:1680  OwnershipTransferRequested(s_owner, to) */\n      0xffffffffffffffffffffffffffffffffffffffff\n      and\n      0xed8889f560326eb138920d842192f0eb3dd22b4f139c87a2c57538e05bae1278\n      mload(0x40)\n      mload(0x40)\n      dup1\n      swap2\n      sub\n      swap1\n      log3\n        /* \"@chainlink/contracts/src/v0.8/ConfirmedOwnerWithProposal.sol\":1497:1685  function _transferOwnership(address to) private {... */\n      pop\n      jump\t// out\n    tag_102:\n      dup3\n      dup1\n      sload\n      dup3\n      dup3\n      sstore\n      swap1\n      0x00\n      mstore\n      keccak256(0x00, 0x20)\n      swap1\n      dup2\n      add\n      swap3\n      dup3\n      iszero\n      tag_125\n      jumpi\n      swap2\n      0x20\n      mul\n      dup3\n      add\n    tag_126:\n      dup3\n      dup2\n      gt\n      iszero\n      tag_127\n      jumpi\n      dup3\n      mload\n      dup3\n      sstore\n      swap2\n      0x20\n      add\n      swap2\n      swap1\n      0x01\n      add\n      swap1\n      jump(tag_126)\n    tag_127:\n    tag_125:\n      pop\n      swap1\n      pop\n      tag_128\n      swap2\n      swap1\n      tag_129\n      jump\t// in\n    tag_128:\n      pop\n      swap1\n      jump\t// out\n    tag_129:\n    tag_130:\n      dup1\n      dup3\n      gt\n      iszero\n      tag_131\n      jumpi\n      0x00\n      dup2\n      0x00\n      swap1\n      sstore\n      pop\n      0x01\n      add\n      jump(tag_130)\n    tag_131:\n      pop\n      swap1\n      jump\t// out\n        /* \"#utility.yul\":24:746   */\n    tag_133:\n        /* \"#utility.yul\":120:125   */\n      0x00\n        /* \"#utility.yul\":145:226   */\n      tag_135\n        /* \"#utility.yul\":161:225   */\n      tag_136\n        /* \"#utility.yul\":218:224   */\n      dup5\n        /* \"#utility.yul\":161:225   */\n      tag_137\n      jump\t// in\n    tag_136:\n        /* \"#utility.yul\":145:226   */\n      tag_138\n      jump\t// in\n    tag_135:\n        /* \"#utility.yul\":136:226   */\n      swap1\n      pop\n        /* \"#utility.yul\":246:251   */\n      dup1\n        /* \"#utility.yul\":275:281   */\n      dup4\n        /* \"#utility.yul\":268:273   */\n      dup3\n        /* \"#utility.yul\":261:282   */\n      mstore\n        /* \"#utility.yul\":309:313   */\n      0x20\n        /* \"#utility.yul\":302:307   */\n      dup3\n        /* \"#utility.yul\":298:314   */\n      add\n        /* \"#utility.yul\":291:314   */\n      swap1\n      pop\n        /* \"#utility.yul\":335:341   */\n      dup3\n        /* \"#utility.yul\":385:388   */\n      dup6\n        /* \"#utility.yul\":377:381   */\n      0x20\n        /* \"#utility.yul\":369:375   */\n      dup7\n        /* \"#utility.yul\":365:382   */\n      mul\n        /* \"#utility.yul\":360:363   */\n      dup3\n        /* \"#utility.yul\":356:383   */\n      add\n        /* \"#utility.yul\":353:389   */\n      gt\n        /* \"#utility.yul\":350:493   */\n      iszero\n      tag_139\n      jumpi\n        /* \"#utility.yul\":404:483   */\n      tag_140\n      tag_141\n      jump\t// in\n    tag_140:\n        /* \"#utility.yul\":350:493   */\n    tag_139:\n        /* \"#utility.yul\":517:518   */\n      0x00\n        /* \"#utility.yul\":502:740   */\n    tag_142:\n        /* \"#utility.yul\":527:533   */\n      dup6\n        /* \"#utility.yul\":524:525   */\n      dup2\n        /* \"#utility.yul\":521:534   */\n      lt\n        /* \"#utility.yul\":502:740   */\n      iszero\n      tag_144\n      jumpi\n        /* \"#utility.yul\":595:598   */\n      dup2\n        /* \"#utility.yul\":624:661   */\n      tag_145\n        /* \"#utility.yul\":657:660   */\n      dup9\n        /* \"#utility.yul\":645:655   */\n      dup3\n        /* \"#utility.yul\":624:661   */\n      tag_146\n      jump\t// in\n    tag_145:\n        /* \"#utility.yul\":619:622   */\n      dup5\n        /* \"#utility.yul\":612:662   */\n      mstore\n        /* \"#utility.yul\":691:695   */\n      0x20\n        /* \"#utility.yul\":686:689   */\n      dup5\n        /* \"#utility.yul\":682:696   */\n      add\n        /* \"#utility.yul\":675:696   */\n      swap4\n      pop\n        /* \"#utility.yul\":725:729   */\n      0x20\n        /* \"#utility.yul\":720:723   */\n      dup4\n        /* \"#utility.yul\":716:730   */\n      add\n        /* \"#utility.yul\":709:730   */\n      swap3\n      pop\n        /* \"#utility.yul\":562:740   */\n      pop\n        /* \"#utility.yul\":549:550   */\n      0x01\n        /* \"#utility.yul\":546:547   */\n      dup2\n        /* \"#utility.yul\":542:551   */\n      add\n        /* \"#utility.yul\":537:551   */\n      swap1\n      pop\n        /* \"#utility.yul\":502:740   */\n      jump(tag_142)\n    tag_144:\n        /* \"#utility.yul\":506:520   */\n      pop\n        /* \"#utility.yul\":126:746   */\n      pop\n      pop\n        /* \"#utility.yul\":24:746   */\n      swap4\n      swap3\n      pop\n      pop\n      pop\n      jump\t// out\n        /* \"#utility.yul\":752:891   */\n    tag_147:\n        /* \"#utility.yul\":798:803   */\n      0x00\n        /* \"#utility.yul\":836:842   */\n      dup2\n        /* \"#utility.yul\":823:843   */\n      calldataload\n        /* \"#utility.yul\":814:843   */\n      swap1\n      pop\n        /* \"#utility.yul\":852:885   */\n      tag_149\n        /* \"#utility.yul\":879:884   */\n      dup2\n        /* \"#utility.yul\":852:885   */\n      tag_150\n      jump\t// in\n    tag_149:\n        /* \"#utility.yul\":752:891   */\n      swap3\n      swap2\n      pop\n      pop\n      jump\t// out\n        /* \"#utility.yul\":914:1284   */\n    tag_151:\n        /* \"#utility.yul\":985:990   */\n      0x00\n        /* \"#utility.yul\":1034:1037   */\n      dup3\n        /* \"#utility.yul\":1027:1031   */\n      0x1f\n        /* \"#utility.yul\":1019:1025   */\n      dup4\n        /* \"#utility.yul\":1015:1032   */\n      add\n        /* \"#utility.yul\":1011:1038   */\n      slt\n        /* \"#utility.yul\":1001:1123   */\n      tag_153\n      jumpi\n        /* \"#utility.yul\":1042:1121   */\n      tag_154\n      tag_155\n      jump\t// in\n    tag_154:\n        /* \"#utility.yul\":1001:1123   */\n    tag_153:\n        /* \"#utility.yul\":1159:1165   */\n      dup2\n        /* \"#utility.yul\":1146:1166   */\n      calldataload\n        /* \"#utility.yul\":1184:1278   */\n      tag_156\n        /* \"#utility.yul\":1274:1277   */\n      dup5\n        /* \"#utility.yul\":1266:1272   */\n      dup3\n        /* \"#utility.yul\":1259:1263   */\n      0x20\n        /* \"#utility.yul\":1251:1257   */\n      dup7\n        /* \"#utility.yul\":1247:1264   */\n      add\n        /* \"#utility.yul\":1184:1278   */\n      tag_133\n      jump\t// in\n    tag_156:\n        /* \"#utility.yul\":1175:1278   */\n      swap2\n      pop\n        /* \"#utility.yul\":991:1284   */\n      pop\n        /* \"#utility.yul\":914:1284   */\n      swap3\n      swap2\n      pop\n      pop\n      jump\t// out\n        /* \"#utility.yul\":1290:1429   */\n    tag_146:\n        /* \"#utility.yul\":1336:1341   */\n      0x00\n        /* \"#utility.yul\":1374:1380   */\n      dup2\n        /* \"#utility.yul\":1361:1381   */\n      calldataload\n        /* \"#utility.yul\":1352:1381   */\n      swap1\n      pop\n        /* \"#utility.yul\":1390:1423   */\n      tag_158\n        /* \"#utility.yul\":1417:1422   */\n      dup2\n        /* \"#utility.yul\":1390:1423   */\n      tag_159\n      jump\t// in\n    tag_158:\n        /* \"#utility.yul\":1290:1429   */\n      swap3\n      swap2\n      pop\n      pop\n      jump\t// out\n        /* \"#utility.yul\":1435:1578   */\n    tag_160:\n        /* \"#utility.yul\":1492:1497   */\n      0x00\n        /* \"#utility.yul\":1523:1529   */\n      dup2\n        /* \"#utility.yul\":1517:1530   */\n      mload\n        /* \"#utility.yul\":1508:1530   */\n      swap1\n      pop\n        /* \"#utility.yul\":1539:1572   */\n      tag_162\n        /* \"#utility.yul\":1566:1571   */\n      dup2\n        /* \"#utility.yul\":1539:1572   */\n      tag_159\n      jump\t// in\n    tag_162:\n        /* \"#utility.yul\":1435:1578   */\n      swap3\n      swap2\n      pop\n      pop\n      jump\t// out\n        /* \"#utility.yul\":1584:1913   */\n    tag_60:\n        /* \"#utility.yul\":1643:1649   */\n      0x00\n        /* \"#utility.yul\":1692:1694   */\n      0x20\n        /* \"#utility.yul\":1680:1689   */\n      dup3\n        /* \"#utility.yul\":1671:1678   */\n      dup5\n        /* \"#utility.yul\":1667:1690   */\n      sub\n        /* \"#utility.yul\":1663:1695   */\n      slt\n        /* \"#utility.yul\":1660:1779   */\n      iszero\n      tag_164\n      jumpi\n        /* \"#utility.yul\":1698:1777   */\n      tag_165\n      tag_166\n      jump\t// in\n    tag_165:\n        /* \"#utility.yul\":1660:1779   */\n    tag_164:\n        /* \"#utility.yul\":1818:1819   */\n      0x00\n        /* \"#utility.yul\":1843:1896   */\n      tag_167\n        /* \"#utility.yul\":1888:1895   */\n      dup5\n        /* \"#utility.yul\":1879:1885   */\n      dup3\n        /* \"#utility.yul\":1868:1877   */\n      dup6\n        /* \"#utility.yul\":1864:1886   */\n      add\n        /* \"#utility.yul\":1843:1896   */\n      tag_147\n      jump\t// in\n    tag_167:\n        /* \"#utility.yul\":1833:1896   */\n      swap2\n      pop\n        /* \"#utility.yul\":1789:1906   */\n      pop\n        /* \"#utility.yul\":1584:1913   */\n      swap3\n      swap2\n      pop\n      pop\n      jump\t// out\n        /* \"#utility.yul\":1919:2248   */\n    tag_25:\n        /* \"#utility.yul\":1978:1984   */\n      0x00\n        /* \"#utility.yul\":2027:2029   */\n      0x20\n        /* \"#utility.yul\":2015:2024   */\n      dup3\n        /* \"#utility.yul\":2006:2013   */\n      dup5\n        /* \"#utility.yul\":2002:2025   */\n      sub\n        /* \"#utility.yul\":1998:2030   */\n      slt\n        /* \"#utility.yul\":1995:2114   */\n      iszero\n      tag_169\n      jumpi\n        /* \"#utility.yul\":2033:2112   */\n      tag_170\n      tag_166\n      jump\t// in\n    tag_170:\n        /* \"#utility.yul\":1995:2114   */\n    tag_169:\n        /* \"#utility.yul\":2153:2154   */\n      0x00\n        /* \"#utility.yul\":2178:2231   */\n      tag_171\n        /* \"#utility.yul\":2223:2230   */\n      dup5\n        /* \"#utility.yul\":2214:2220   */\n      dup3\n        /* \"#utility.yul\":2203:2212   */\n      dup6\n        /* \"#utility.yul\":2199:2221   */\n      add\n        /* \"#utility.yul\":2178:2231   */\n      tag_146\n      jump\t// in\n    tag_171:\n        /* \"#utility.yul\":2168:2231   */\n      swap2\n      pop\n        /* \"#utility.yul\":2124:2241   */\n      pop\n        /* \"#utility.yul\":1919:2248   */\n      swap3\n      swap2\n      pop\n      pop\n      jump\t// out\n        /* \"#utility.yul\":2254:2605   */\n    tag_96:\n        /* \"#utility.yul\":2324:2330   */\n      0x00\n        /* \"#utility.yul\":2373:2375   */\n      0x20\n        /* \"#utility.yul\":2361:2370   */\n      dup3\n        /* \"#utility.yul\":2352:2359   */\n      dup5\n        /* \"#utility.yul\":2348:2371   */\n      sub\n        /* \"#utility.yul\":2344:2376   */\n      slt\n        /* \"#utility.yul\":2341:2460   */\n      iszero\n      tag_173\n      jumpi\n        /* \"#utility.yul\":2379:2458   */\n      tag_174\n      tag_166\n      jump\t// in\n    tag_174:\n        /* \"#utility.yul\":2341:2460   */\n    tag_173:\n        /* \"#utility.yul\":2499:2500   */\n      0x00\n        /* \"#utility.yul\":2524:2588   */\n      tag_175\n        /* \"#utility.yul\":2580:2587   */\n      dup5\n        /* \"#utility.yul\":2571:2577   */\n      dup3\n        /* \"#utility.yul\":2560:2569   */\n      dup6\n        /* \"#utility.yul\":2556:2578   */\n      add\n        /* \"#utility.yul\":2524:2588   */\n      tag_160\n      jump\t// in\n    tag_175:\n        /* \"#utility.yul\":2514:2588   */\n      swap2\n      pop\n        /* \"#utility.yul\":2470:2598   */\n      pop\n        /* \"#utility.yul\":2254:2605   */\n      swap3\n      swap2\n      pop\n      pop\n      jump\t// out\n        /* \"#utility.yul\":2611:3295   */\n    tag_17:\n        /* \"#utility.yul\":2704:2710   */\n      0x00\n        /* \"#utility.yul\":2712:2718   */\n      dup1\n        /* \"#utility.yul\":2761:2763   */\n      0x40\n        /* \"#utility.yul\":2749:2758   */\n      dup4\n        /* \"#utility.yul\":2740:2747   */\n      dup6\n        /* \"#utility.yul\":2736:2759   */\n      sub\n        /* \"#utility.yul\":2732:2764   */\n      slt\n        /* \"#utility.yul\":2729:2848   */\n      iszero\n      tag_177\n      jumpi\n        /* \"#utility.yul\":2767:2846   */\n      tag_178\n      tag_166\n      jump\t// in\n    tag_178:\n        /* \"#utility.yul\":2729:2848   */\n    tag_177:\n        /* \"#utility.yul\":2887:2888   */\n      0x00\n        /* \"#utility.yul\":2912:2965   */\n      tag_179\n        /* \"#utility.yul\":2957:2964   */\n      dup6\n        /* \"#utility.yul\":2948:2954   */\n      dup3\n        /* \"#utility.yul\":2937:2946   */\n      dup7\n        /* \"#utility.yul\":2933:2955   */\n      add\n        /* \"#utility.yul\":2912:2965   */\n      tag_146\n      jump\t// in\n    tag_179:\n        /* \"#utility.yul\":2902:2965   */\n      swap3\n      pop\n        /* \"#utility.yul\":2858:2975   */\n      pop\n        /* \"#utility.yul\":3042:3044   */\n      0x20\n        /* \"#utility.yul\":3031:3040   */\n      dup4\n        /* \"#utility.yul\":3027:3045   */\n      add\n        /* \"#utility.yul\":3014:3046   */\n      calldataload\n        /* \"#utility.yul\":3073:3091   */\n      0xffffffffffffffff\n        /* \"#utility.yul\":3065:3071   */\n      dup2\n        /* \"#utility.yul\":3062:3092   */\n      gt\n        /* \"#utility.yul\":3059:3176   */\n      iszero\n      tag_180\n      jumpi\n        /* \"#utility.yul\":3095:3174   */\n      tag_181\n      tag_182\n      jump\t// in\n    tag_181:\n        /* \"#utility.yul\":3059:3176   */\n    tag_180:\n        /* \"#utility.yul\":3200:3278   */\n      tag_183\n        /* \"#utility.yul\":3270:3277   */\n      dup6\n        /* \"#utility.yul\":3261:3267   */\n      dup3\n        /* \"#utility.yul\":3250:3259   */\n      dup7\n        /* \"#utility.yul\":3246:3268   */\n      add\n        /* \"#utility.yul\":3200:3278   */\n      tag_151\n      jump\t// in\n    tag_183:\n        /* \"#utility.yul\":3190:3278   */\n      swap2\n      pop\n        /* \"#utility.yul\":2985:3288   */\n      pop\n        /* \"#utility.yul\":2611:3295   */\n      swap3\n      pop\n      swap3\n      swap1\n      pop\n      jump\t// out\n        /* \"#utility.yul\":3301:3480   */\n    tag_184:\n        /* \"#utility.yul\":3370:3380   */\n      0x00\n        /* \"#utility.yul\":3391:3437   */\n      tag_186\n        /* \"#utility.yul\":3433:3436   */\n      dup4\n        /* \"#utility.yul\":3425:3431   */\n      dup4\n        /* \"#utility.yul\":3391:3437   */\n      tag_187\n      jump\t// in\n    tag_186:\n        /* \"#utility.yul\":3469:3473   */\n      0x20\n        /* \"#utility.yul\":3464:3467   */\n      dup4\n        /* \"#utility.yul\":3460:3474   */\n      add\n        /* \"#utility.yul\":3446:3474   */\n      swap1\n      pop\n        /* \"#utility.yul\":3301:3480   */\n      swap3\n      swap2\n      pop\n      pop\n      jump\t// out\n        /* \"#utility.yul\":3486:3628   */\n    tag_188:\n        /* \"#utility.yul\":3589:3621   */\n      tag_190\n        /* \"#utility.yul\":3615:3620   */\n      dup2\n        /* \"#utility.yul\":3589:3621   */\n      tag_191\n      jump\t// in\n    tag_190:\n        /* \"#utility.yul\":3584:3587   */\n      dup3\n        /* \"#utility.yul\":3577:3622   */\n      mstore\n        /* \"#utility.yul\":3486:3628   */\n      pop\n      pop\n      jump\t// out\n        /* \"#utility.yul\":3634:3752   */\n    tag_192:\n        /* \"#utility.yul\":3721:3745   */\n      tag_194\n        /* \"#utility.yul\":3739:3744   */\n      dup2\n        /* \"#utility.yul\":3721:3745   */\n      tag_195\n      jump\t// in\n    tag_194:\n        /* \"#utility.yul\":3716:3719   */\n      dup3\n        /* \"#utility.yul\":3709:3746   */\n      mstore\n        /* \"#utility.yul\":3634:3752   */\n      pop\n      pop\n      jump\t// out\n        /* \"#utility.yul\":3788:4520   */\n    tag_196:\n        /* \"#utility.yul\":3907:3910   */\n      0x00\n        /* \"#utility.yul\":3936:3990   */\n      tag_198\n        /* \"#utility.yul\":3984:3989   */\n      dup3\n        /* \"#utility.yul\":3936:3990   */\n      tag_199\n      jump\t// in\n    tag_198:\n        /* \"#utility.yul\":4006:4092   */\n      tag_200\n        /* \"#utility.yul\":4085:4091   */\n      dup2\n        /* \"#utility.yul\":4080:4083   */\n      dup6\n        /* \"#utility.yul\":4006:4092   */\n      tag_201\n      jump\t// in\n    tag_200:\n        /* \"#utility.yul\":3999:4092   */\n      swap4\n      pop\n        /* \"#utility.yul\":4116:4172   */\n      tag_202\n        /* \"#utility.yul\":4166:4171   */\n      dup4\n        /* \"#utility.yul\":4116:4172   */\n      tag_203\n      jump\t// in\n    tag_202:\n        /* \"#utility.yul\":4195:4202   */\n      dup1\n        /* \"#utility.yul\":4226:4227   */\n      0x00\n        /* \"#utility.yul\":4211:4495   */\n    tag_204:\n        /* \"#utility.yul\":4236:4242   */\n      dup4\n        /* \"#utility.yul\":4233:4234   */\n      dup2\n        /* \"#utility.yul\":4230:4243   */\n      lt\n        /* \"#utility.yul\":4211:4495   */\n      iszero\n      tag_206\n      jumpi\n        /* \"#utility.yul\":4312:4318   */\n      dup2\n        /* \"#utility.yul\":4306:4319   */\n      mload\n        /* \"#utility.yul\":4339:4402   */\n      tag_207\n        /* \"#utility.yul\":4398:4401   */\n      dup9\n        /* \"#utility.yul\":4383:4396   */\n      dup3\n        /* \"#utility.yul\":4339:4402   */\n      tag_184\n      jump\t// in\n    tag_207:\n        /* \"#utility.yul\":4332:4402   */\n      swap8\n      pop\n        /* \"#utility.yul\":4425:4485   */\n      tag_208\n        /* \"#utility.yul\":4478:4484   */\n      dup4\n        /* \"#utility.yul\":4425:4485   */\n      tag_209\n      jump\t// in\n    tag_208:\n        /* \"#utility.yul\":4415:4485   */\n      swap3\n      pop\n        /* \"#utility.yul\":4271:4495   */\n      pop\n        /* \"#utility.yul\":4258:4259   */\n      0x01\n        /* \"#utility.yul\":4255:4256   */\n      dup2\n        /* \"#utility.yul\":4251:4260   */\n      add\n        /* \"#utility.yul\":4246:4260   */\n      swap1\n      pop\n        /* \"#utility.yul\":4211:4495   */\n      jump(tag_204)\n    tag_206:\n        /* \"#utility.yul\":4215:4229   */\n      pop\n        /* \"#utility.yul\":4511:4514   */\n      dup6\n        /* \"#utility.yul\":4504:4514   */\n      swap4\n      pop\n        /* \"#utility.yul\":3912:4520   */\n      pop\n      pop\n      pop\n        /* \"#utility.yul\":3788:4520   */\n      swap3\n      swap2\n      pop\n      pop\n      jump\t// out\n        /* \"#utility.yul\":4526:4635   */\n    tag_210:\n        /* \"#utility.yul\":4607:4628   */\n      tag_212\n        /* \"#utility.yul\":4622:4627   */\n      dup2\n        /* \"#utility.yul\":4607:4628   */\n      tag_213\n      jump\t// in\n    tag_212:\n        /* \"#utility.yul\":4602:4605   */\n      dup3\n        /* \"#utility.yul\":4595:4629   */\n      mstore\n        /* \"#utility.yul\":4526:4635   */\n      pop\n      pop\n      jump\t// out\n        /* \"#utility.yul\":4641:4759   */\n    tag_214:\n        /* \"#utility.yul\":4728:4752   */\n      tag_216\n        /* \"#utility.yul\":4746:4751   */\n      dup2\n        /* \"#utility.yul\":4728:4752   */\n      tag_217\n      jump\t// in\n    tag_216:\n        /* \"#utility.yul\":4723:4726   */\n      dup3\n        /* \"#utility.yul\":4716:4753   */\n      mstore\n        /* \"#utility.yul\":4641:4759   */\n      pop\n      pop\n      jump\t// out\n        /* \"#utility.yul\":4765:5131   */\n    tag_218:\n        /* \"#utility.yul\":4907:4910   */\n      0x00\n        /* \"#utility.yul\":4928:4995   */\n      tag_220\n        /* \"#utility.yul\":4992:4994   */\n      0x11\n        /* \"#utility.yul\":4987:4990   */\n      dup4\n        /* \"#utility.yul\":4928:4995   */\n      tag_221\n      jump\t// in\n    tag_220:\n        /* \"#utility.yul\":4921:4995   */\n      swap2\n      pop\n        /* \"#utility.yul\":5004:5097   */\n      tag_222\n        /* \"#utility.yul\":5093:5096   */\n      dup3\n        /* \"#utility.yul\":5004:5097   */\n      tag_223\n      jump\t// in\n    tag_222:\n        /* \"#utility.yul\":5122:5124   */\n      0x20\n        /* \"#utility.yul\":5117:5120   */\n      dup3\n        /* \"#utility.yul\":5113:5125   */\n      add\n        /* \"#utility.yul\":5106:5125   */\n      swap1\n      pop\n        /* \"#utility.yul\":4765:5131   */\n      swap2\n      swap1\n      pop\n      jump\t// out\n        /* \"#utility.yul\":5137:5503   */\n    tag_224:\n        /* \"#utility.yul\":5279:5282   */\n      0x00\n        /* \"#utility.yul\":5300:5367   */\n      tag_226\n        /* \"#utility.yul\":5364:5366   */\n      0x16\n        /* \"#utility.yul\":5359:5362   */\n      dup4\n        /* \"#utility.yul\":5300:5367   */\n      tag_221\n      jump\t// in\n    tag_226:\n        /* \"#utility.yul\":5293:5367   */\n      swap2\n      pop\n        /* \"#utility.yul\":5376:5469   */\n      tag_227\n        /* \"#utility.yul\":5465:5468   */\n      dup3\n        /* \"#utility.yul\":5376:5469   */\n      tag_228\n      jump\t// in\n    tag_227:\n        /* \"#utility.yul\":5494:5496   */\n      0x20\n        /* \"#utility.yul\":5489:5492   */\n      dup3\n        /* \"#utility.yul\":5485:5497   */\n      add\n        /* \"#utility.yul\":5478:5497   */\n      swap1\n      pop\n        /* \"#utility.yul\":5137:5503   */\n      swap2\n      swap1\n      pop\n      jump\t// out\n        /* \"#utility.yul\":5509:5875   */\n    tag_229:\n        /* \"#utility.yul\":5651:5654   */\n      0x00\n        /* \"#utility.yul\":5672:5739   */\n      tag_231\n        /* \"#utility.yul\":5736:5738   */\n      0x16\n        /* \"#utility.yul\":5731:5734   */\n      dup4\n        /* \"#utility.yul\":5672:5739   */\n      tag_221\n      jump\t// in\n    tag_231:\n        /* \"#utility.yul\":5665:5739   */\n      swap2\n      pop\n        /* \"#utility.yul\":5748:5841   */\n      tag_232\n        /* \"#utility.yul\":5837:5840   */\n      dup3\n        /* \"#utility.yul\":5748:5841   */\n      tag_233\n      jump\t// in\n    tag_232:\n        /* \"#utility.yul\":5866:5868   */\n      0x20\n        /* \"#utility.yul\":5861:5864   */\n      dup3\n        /* \"#utility.yul\":5857:5869   */\n      add\n        /* \"#utility.yul\":5850:5869   */\n      swap1\n      pop\n        /* \"#utility.yul\":5509:5875   */\n      swap2\n      swap1\n      pop\n      jump\t// out\n        /* \"#utility.yul\":5881:6247   */\n    tag_234:\n        /* \"#utility.yul\":6023:6026   */\n      0x00\n        /* \"#utility.yul\":6044:6111   */\n      tag_236\n        /* \"#utility.yul\":6108:6110   */\n      0x17\n        /* \"#utility.yul\":6103:6106   */\n      dup4\n        /* \"#utility.yul\":6044:6111   */\n      tag_221\n      jump\t// in\n    tag_236:\n        /* \"#utility.yul\":6037:6111   */\n      swap2\n      pop\n        /* \"#utility.yul\":6120:6213   */\n      tag_237\n        /* \"#utility.yul\":6209:6212   */\n      dup3\n        /* \"#utility.yul\":6120:6213   */\n      tag_238\n      jump\t// in\n    tag_237:\n        /* \"#utility.yul\":6238:6240   */\n      0x20\n        /* \"#utility.yul\":6233:6236   */\n      dup3\n        /* \"#utility.yul\":6229:6241   */\n      add\n        /* \"#utility.yul\":6222:6241   */\n      swap1\n      pop\n        /* \"#utility.yul\":5881:6247   */\n      swap2\n      swap1\n      pop\n      jump\t// out\n        /* \"#utility.yul\":6253:6368   */\n    tag_239:\n        /* \"#utility.yul\":6338:6361   */\n      tag_241\n        /* \"#utility.yul\":6355:6360   */\n      dup2\n        /* \"#utility.yul\":6338:6361   */\n      tag_242\n      jump\t// in\n    tag_241:\n        /* \"#utility.yul\":6333:6336   */\n      dup3\n        /* \"#utility.yul\":6326:6362   */\n      mstore\n        /* \"#utility.yul\":6253:6368   */\n      pop\n      pop\n      jump\t// out\n        /* \"#utility.yul\":6374:6482   */\n    tag_187:\n        /* \"#utility.yul\":6451:6475   */\n      tag_244\n        /* \"#utility.yul\":6469:6474   */\n      dup2\n        /* \"#utility.yul\":6451:6475   */\n      tag_245\n      jump\t// in\n    tag_244:\n        /* \"#utility.yul\":6446:6449   */\n      dup3\n        /* \"#utility.yul\":6439:6476   */\n      mstore\n        /* \"#utility.yul\":6374:6482   */\n      pop\n      pop\n      jump\t// out\n        /* \"#utility.yul\":6488:6606   */\n    tag_246:\n        /* \"#utility.yul\":6575:6599   */\n      tag_248\n        /* \"#utility.yul\":6593:6598   */\n      dup2\n        /* \"#utility.yul\":6575:6599   */\n      tag_245\n      jump\t// in\n    tag_248:\n        /* \"#utility.yul\":6570:6573   */\n      dup3\n        /* \"#utility.yul\":6563:6600   */\n      mstore\n        /* \"#utility.yul\":6488:6606   */\n      pop\n      pop\n      jump\t// out\n        /* \"#utility.yul\":6612:6727   */\n    tag_249:\n        /* \"#utility.yul\":6697:6720   */\n      tag_251\n        /* \"#utility.yul\":6714:6719   */\n      dup2\n        /* \"#utility.yul\":6697:6720   */\n      tag_252\n      jump\t// in\n    tag_251:\n        /* \"#utility.yul\":6692:6695   */\n      dup3\n        /* \"#utility.yul\":6685:6721   */\n      mstore\n        /* \"#utility.yul\":6612:6727   */\n      pop\n      pop\n      jump\t// out\n        /* \"#utility.yul\":6733:6848   */\n    tag_253:\n        /* \"#utility.yul\":6818:6841   */\n      tag_255\n        /* \"#utility.yul\":6835:6840   */\n      dup2\n        /* \"#utility.yul\":6818:6841   */\n      tag_256\n      jump\t// in\n    tag_255:\n        /* \"#utility.yul\":6813:6816   */\n      dup3\n        /* \"#utility.yul\":6806:6842   */\n      mstore\n        /* \"#utility.yul\":6733:6848   */\n      pop\n      pop\n      jump\t// out\n        /* \"#utility.yul\":6854:7076   */\n    tag_33:\n        /* \"#utility.yul\":6947:6951   */\n      0x00\n        /* \"#utility.yul\":6985:6987   */\n      0x20\n        /* \"#utility.yul\":6974:6983   */\n      dup3\n        /* \"#utility.yul\":6970:6988   */\n      add\n        /* \"#utility.yul\":6962:6988   */\n      swap1\n      pop\n        /* \"#utility.yul\":6998:7069   */\n      tag_258\n        /* \"#utility.yul\":7066:7067   */\n      0x00\n        /* \"#utility.yul\":7055:7064   */\n      dup4\n        /* \"#utility.yul\":7051:7068   */\n      add\n        /* \"#utility.yul\":7042:7048   */\n      dup5\n        /* \"#utility.yul\":6998:7069   */\n      tag_192\n      jump\t// in\n    tag_258:\n        /* \"#utility.yul\":6854:7076   */\n      swap3\n      swap2\n      pop\n      pop\n      jump\t// out\n        /* \"#utility.yul\":7082:7336   */\n    tag_38:\n        /* \"#utility.yul\":7191:7195   */\n      0x00\n        /* \"#utility.yul\":7229:7231   */\n      0x20\n        /* \"#utility.yul\":7218:7227   */\n      dup3\n        /* \"#utility.yul\":7214:7232   */\n      add\n        /* \"#utility.yul\":7206:7232   */\n      swap1\n      pop\n        /* \"#utility.yul\":7242:7329   */\n      tag_260\n        /* \"#utility.yul\":7326:7327   */\n      0x00\n        /* \"#utility.yul\":7315:7324   */\n      dup4\n        /* \"#utility.yul\":7311:7328   */\n      add\n        /* \"#utility.yul\":7302:7308   */\n      dup5\n        /* \"#utility.yul\":7242:7329   */\n      tag_188\n      jump\t// in\n    tag_260:\n        /* \"#utility.yul\":7082:7336   */\n      swap3\n      swap2\n      pop\n      pop\n      jump\t// out\n        /* \"#utility.yul\":7342:7674   */\n    tag_69:\n        /* \"#utility.yul\":7463:7467   */\n      0x00\n        /* \"#utility.yul\":7501:7503   */\n      0x40\n        /* \"#utility.yul\":7490:7499   */\n      dup3\n        /* \"#utility.yul\":7486:7504   */\n      add\n        /* \"#utility.yul\":7478:7504   */\n      swap1\n      pop\n        /* \"#utility.yul\":7514:7585   */\n      tag_262\n        /* \"#utility.yul\":7582:7583   */\n      0x00\n        /* \"#utility.yul\":7571:7580   */\n      dup4\n        /* \"#utility.yul\":7567:7584   */\n      add\n        /* \"#utility.yul\":7558:7564   */\n      dup6\n        /* \"#utility.yul\":7514:7585   */\n      tag_192\n      jump\t// in\n    tag_262:\n        /* \"#utility.yul\":7595:7667   */\n      tag_263\n        /* \"#utility.yul\":7663:7665   */\n      0x20\n        /* \"#utility.yul\":7652:7661   */\n      dup4\n        /* \"#utility.yul\":7648:7666   */\n      add\n        /* \"#utility.yul\":7639:7645   */\n      dup5\n        /* \"#utility.yul\":7595:7667   */\n      tag_192\n      jump\t// in\n    tag_263:\n        /* \"#utility.yul\":7342:7674   */\n      swap4\n      swap3\n      pop\n      pop\n      pop\n      jump\t// out\n        /* \"#utility.yul\":7680:8151   */\n    tag_52:\n        /* \"#utility.yul\":7845:7849   */\n      0x00\n        /* \"#utility.yul\":7883:7885   */\n      0x40\n        /* \"#utility.yul\":7872:7881   */\n      dup3\n        /* \"#utility.yul\":7868:7886   */\n      add\n        /* \"#utility.yul\":7860:7886   */\n      swap1\n      pop\n        /* \"#utility.yul\":7896:7961   */\n      tag_265\n        /* \"#utility.yul\":7958:7959   */\n      0x00\n        /* \"#utility.yul\":7947:7956   */\n      dup4\n        /* \"#utility.yul\":7943:7960   */\n      add\n        /* \"#utility.yul\":7934:7940   */\n      dup6\n        /* \"#utility.yul\":7896:7961   */\n      tag_210\n      jump\t// in\n    tag_265:\n        /* \"#utility.yul\":8008:8017   */\n      dup2\n        /* \"#utility.yul\":8002:8006   */\n      dup2\n        /* \"#utility.yul\":7998:8018   */\n      sub\n        /* \"#utility.yul\":7993:7995   */\n      0x20\n        /* \"#utility.yul\":7982:7991   */\n      dup4\n        /* \"#utility.yul\":7978:7996   */\n      add\n        /* \"#utility.yul\":7971:8019   */\n      mstore\n        /* \"#utility.yul\":8036:8144   */\n      tag_266\n        /* \"#utility.yul\":8139:8143   */\n      dup2\n        /* \"#utility.yul\":8130:8136   */\n      dup5\n        /* \"#utility.yul\":8036:8144   */\n      tag_196\n      jump\t// in\n    tag_266:\n        /* \"#utility.yul\":8028:8144   */\n      swap1\n      pop\n        /* \"#utility.yul\":7680:8151   */\n      swap4\n      swap3\n      pop\n      pop\n      pop\n      jump\t// out\n        /* \"#utility.yul\":8157:8465   */\n    tag_44:\n        /* \"#utility.yul\":8266:8270   */\n      0x00\n        /* \"#utility.yul\":8304:8306   */\n      0x40\n        /* \"#utility.yul\":8293:8302   */\n      dup3\n        /* \"#utility.yul\":8289:8307   */\n      add\n        /* \"#utility.yul\":8281:8307   */\n      swap1\n      pop\n        /* \"#utility.yul\":8317:8382   */\n      tag_268\n        /* \"#utility.yul\":8379:8380   */\n      0x00\n        /* \"#utility.yul\":8368:8377   */\n      dup4\n        /* \"#utility.yul\":8364:8381   */\n      add\n        /* \"#utility.yul\":8355:8361   */\n      dup6\n        /* \"#utility.yul\":8317:8382   */\n      tag_210\n      jump\t// in\n    tag_268:\n        /* \"#utility.yul\":8392:8458   */\n      tag_269\n        /* \"#utility.yul\":8454:8456   */\n      0x20\n        /* \"#utility.yul\":8443:8452   */\n      dup4\n        /* \"#utility.yul\":8439:8457   */\n      add\n        /* \"#utility.yul\":8430:8436   */\n      dup5\n        /* \"#utility.yul\":8392:8458   */\n      tag_210\n      jump\t// in\n    tag_269:\n        /* \"#utility.yul\":8157:8465   */\n      swap4\n      swap3\n      pop\n      pop\n      pop\n      jump\t// out\n        /* \"#utility.yul\":8471:9119   */\n    tag_91:\n        /* \"#utility.yul\":8668:8672   */\n      0x00\n        /* \"#utility.yul\":8706:8709   */\n      0xa0\n        /* \"#utility.yul\":8695:8704   */\n      dup3\n        /* \"#utility.yul\":8691:8710   */\n      add\n        /* \"#utility.yul\":8683:8710   */\n      swap1\n      pop\n        /* \"#utility.yul\":8720:8791   */\n      tag_271\n        /* \"#utility.yul\":8788:8789   */\n      0x00\n        /* \"#utility.yul\":8777:8786   */\n      dup4\n        /* \"#utility.yul\":8773:8790   */\n      add\n        /* \"#utility.yul\":8764:8770   */\n      dup9\n        /* \"#utility.yul\":8720:8791   */\n      tag_214\n      jump\t// in\n    tag_271:\n        /* \"#utility.yul\":8801:8871   */\n      tag_272\n        /* \"#utility.yul\":8867:8869   */\n      0x20\n        /* \"#utility.yul\":8856:8865   */\n      dup4\n        /* \"#utility.yul\":8852:8870   */\n      add\n        /* \"#utility.yul\":8843:8849   */\n      dup8\n        /* \"#utility.yul\":8801:8871   */\n      tag_253\n      jump\t// in\n    tag_272:\n        /* \"#utility.yul\":8881:8951   */\n      tag_273\n        /* \"#utility.yul\":8947:8949   */\n      0x40\n        /* \"#utility.yul\":8936:8945   */\n      dup4\n        /* \"#utility.yul\":8932:8950   */\n      add\n        /* \"#utility.yul\":8923:8929   */\n      dup7\n        /* \"#utility.yul\":8881:8951   */\n      tag_239\n      jump\t// in\n    tag_273:\n        /* \"#utility.yul\":8961:9031   */\n      tag_274\n        /* \"#utility.yul\":9027:9029   */\n      0x60\n        /* \"#utility.yul\":9016:9025   */\n      dup4\n        /* \"#utility.yul\":9012:9030   */\n      add\n        /* \"#utility.yul\":9003:9009   */\n      dup6\n        /* \"#utility.yul\":8961:9031   */\n      tag_249\n      jump\t// in\n    tag_274:\n        /* \"#utility.yul\":9041:9112   */\n      tag_275\n        /* \"#utility.yul\":9107:9110   */\n      0x80\n        /* \"#utility.yul\":9096:9105   */\n      dup4\n        /* \"#utility.yul\":9092:9111   */\n      add\n        /* \"#utility.yul\":9083:9089   */\n      dup5\n        /* \"#utility.yul\":9041:9112   */\n      tag_249\n      jump\t// in\n    tag_275:\n        /* \"#utility.yul\":8471:9119   */\n      swap7\n      swap6\n      pop\n      pop\n      pop\n      pop\n      pop\n      pop\n      jump\t// out\n        /* \"#utility.yul\":9125:9544   */\n    tag_83:\n        /* \"#utility.yul\":9291:9295   */\n      0x00\n        /* \"#utility.yul\":9329:9331   */\n      0x20\n        /* \"#utility.yul\":9318:9327   */\n      dup3\n        /* \"#utility.yul\":9314:9332   */\n      add\n        /* \"#utility.yul\":9306:9332   */\n      swap1\n      pop\n        /* \"#utility.yul\":9378:9387   */\n      dup2\n        /* \"#utility.yul\":9372:9376   */\n      dup2\n        /* \"#utility.yul\":9368:9388   */\n      sub\n        /* \"#utility.yul\":9364:9365   */\n      0x00\n        /* \"#utility.yul\":9353:9362   */\n      dup4\n        /* \"#utility.yul\":9349:9366   */\n      add\n        /* \"#utility.yul\":9342:9389   */\n      mstore\n        /* \"#utility.yul\":9406:9537   */\n      tag_277\n        /* \"#utility.yul\":9532:9536   */\n      dup2\n        /* \"#utility.yul\":9406:9537   */\n      tag_218\n      jump\t// in\n    tag_277:\n        /* \"#utility.yul\":9398:9537   */\n      swap1\n      pop\n        /* \"#utility.yul\":9125:9544   */\n      swap2\n      swap1\n      pop\n      jump\t// out\n        /* \"#utility.yul\":9550:9969   */\n    tag_75:\n        /* \"#utility.yul\":9716:9720   */\n      0x00\n        /* \"#utility.yul\":9754:9756   */\n      0x20\n        /* \"#utility.yul\":9743:9752   */\n      dup3\n        /* \"#utility.yul\":9739:9757   */\n      add\n        /* \"#utility.yul\":9731:9757   */\n      swap1\n      pop\n        /* \"#utility.yul\":9803:9812   */\n      dup2\n        /* \"#utility.yul\":9797:9801   */\n      dup2\n        /* \"#utility.yul\":9793:9813   */\n      sub\n        /* \"#utility.yul\":9789:9790   */\n      0x00\n        /* \"#utility.yul\":9778:9787   */\n      dup4\n        /* \"#utility.yul\":9774:9791   */\n      add\n        /* \"#utility.yul\":9767:9814   */\n      mstore\n        /* \"#utility.yul\":9831:9962   */\n      tag_279\n        /* \"#utility.yul\":9957:9961   */\n      dup2\n        /* \"#utility.yul\":9831:9962   */\n      tag_224\n      jump\t// in\n    tag_279:\n        /* \"#utility.yul\":9823:9962   */\n      swap1\n      pop\n        /* \"#utility.yul\":9550:9969   */\n      swap2\n      swap1\n      pop\n      jump\t// out\n        /* \"#utility.yul\":9975:10394   */\n    tag_120:\n        /* \"#utility.yul\":10141:10145   */\n      0x00\n        /* \"#utility.yul\":10179:10181   */\n      0x20\n        /* \"#utility.yul\":10168:10177   */\n      dup3\n        /* \"#utility.yul\":10164:10182   */\n      add\n        /* \"#utility.yul\":10156:10182   */\n      swap1\n      pop\n        /* \"#utility.yul\":10228:10237   */\n      dup2\n        /* \"#utility.yul\":10222:10226   */\n      dup2\n        /* \"#utility.yul\":10218:10238   */\n      sub\n        /* \"#utility.yul\":10214:10215   */\n      0x00\n        /* \"#utility.yul\":10203:10212   */\n      dup4\n        /* \"#utility.yul\":10199:10216   */\n      add\n        /* \"#utility.yul\":10192:10239   */\n      mstore\n        /* \"#utility.yul\":10256:10387   */\n      tag_281\n        /* \"#utility.yul\":10382:10386   */\n      dup2\n        /* \"#utility.yul\":10256:10387   */\n      tag_229\n      jump\t// in\n    tag_281:\n        /* \"#utility.yul\":10248:10387   */\n      swap1\n      pop\n        /* \"#utility.yul\":9975:10394   */\n      swap2\n      swap1\n      pop\n      jump\t// out\n        /* \"#utility.yul\":10400:10819   */\n    tag_124:\n        /* \"#utility.yul\":10566:10570   */\n      0x00\n        /* \"#utility.yul\":10604:10606   */\n      0x20\n        /* \"#utility.yul\":10593:10602   */\n      dup3\n        /* \"#utility.yul\":10589:10607   */\n      add\n        /* \"#utility.yul\":10581:10607   */\n      swap1\n      pop\n        /* \"#utility.yul\":10653:10662   */\n      dup2\n        /* \"#utility.yul\":10647:10651   */\n      dup2\n        /* \"#utility.yul\":10643:10663   */\n      sub\n        /* \"#utility.yul\":10639:10640   */\n      0x00\n        /* \"#utility.yul\":10628:10637   */\n      dup4\n        /* \"#utility.yul\":10624:10641   */\n      add\n        /* \"#utility.yul\":10617:10664   */\n      mstore\n        /* \"#utility.yul\":10681:10812   */\n      tag_283\n        /* \"#utility.yul\":10807:10811   */\n      dup2\n        /* \"#utility.yul\":10681:10812   */\n      tag_234\n      jump\t// in\n    tag_283:\n        /* \"#utility.yul\":10673:10812   */\n      swap1\n      pop\n        /* \"#utility.yul\":10400:10819   */\n      swap2\n      swap1\n      pop\n      jump\t// out\n        /* \"#utility.yul\":10825:11047   */\n    tag_28:\n        /* \"#utility.yul\":10918:10922   */\n      0x00\n        /* \"#utility.yul\":10956:10958   */\n      0x20\n        /* \"#utility.yul\":10945:10954   */\n      dup3\n        /* \"#utility.yul\":10941:10959   */\n      add\n        /* \"#utility.yul\":10933:10959   */\n      swap1\n      pop\n        /* \"#utility.yul\":10969:11040   */\n      tag_285\n        /* \"#utility.yul\":11037:11038   */\n      0x00\n        /* \"#utility.yul\":11026:11035   */\n      dup4\n        /* \"#utility.yul\":11022:11039   */\n      add\n        /* \"#utility.yul\":11013:11019   */\n      dup5\n        /* \"#utility.yul\":10969:11040   */\n      tag_246\n      jump\t// in\n    tag_285:\n        /* \"#utility.yul\":10825:11047   */\n      swap3\n      swap2\n      pop\n      pop\n      jump\t// out\n        /* \"#utility.yul\":11053:11536   */\n    tag_116:\n        /* \"#utility.yul\":11224:11228   */\n      0x00\n        /* \"#utility.yul\":11262:11264   */\n      0x40\n        /* \"#utility.yul\":11251:11260   */\n      dup3\n        /* \"#utility.yul\":11247:11265   */\n      add\n        /* \"#utility.yul\":11239:11265   */\n      swap1\n      pop\n        /* \"#utility.yul\":11275:11346   */\n      tag_287\n        /* \"#utility.yul\":11343:11344   */\n      0x00\n        /* \"#utility.yul\":11332:11341   */\n      dup4\n        /* \"#utility.yul\":11328:11345   */\n      add\n        /* \"#utility.yul\":11319:11325   */\n      dup6\n        /* \"#utility.yul\":11275:11346   */\n      tag_246\n      jump\t// in\n    tag_287:\n        /* \"#utility.yul\":11393:11402   */\n      dup2\n        /* \"#utility.yul\":11387:11391   */\n      dup2\n        /* \"#utility.yul\":11383:11403   */\n      sub\n        /* \"#utility.yul\":11378:11380   */\n      0x20\n        /* \"#utility.yul\":11367:11376   */\n      dup4\n        /* \"#utility.yul\":11363:11381   */\n      add\n        /* \"#utility.yul\":11356:11404   */\n      mstore\n        /* \"#utility.yul\":11421:11529   */\n      tag_288\n        /* \"#utility.yul\":11524:11528   */\n      dup2\n        /* \"#utility.yul\":11515:11521   */\n      dup5\n        /* \"#utility.yul\":11421:11529   */\n      tag_196\n      jump\t// in\n    tag_288:\n        /* \"#utility.yul\":11413:11529   */\n      swap1\n      pop\n        /* \"#utility.yul\":11053:11536   */\n      swap4\n      swap3\n      pop\n      pop\n      pop\n      jump\t// out\n        /* \"#utility.yul\":11542:11870   */\n    tag_105:\n        /* \"#utility.yul\":11661:11665   */\n      0x00\n        /* \"#utility.yul\":11699:11701   */\n      0x40\n        /* \"#utility.yul\":11688:11697   */\n      dup3\n        /* \"#utility.yul\":11684:11702   */\n      add\n        /* \"#utility.yul\":11676:11702   */\n      swap1\n      pop\n        /* \"#utility.yul\":11712:11783   */\n      tag_290\n        /* \"#utility.yul\":11780:11781   */\n      0x00\n        /* \"#utility.yul\":11769:11778   */\n      dup4\n        /* \"#utility.yul\":11765:11782   */\n      add\n        /* \"#utility.yul\":11756:11762   */\n      dup6\n        /* \"#utility.yul\":11712:11783   */\n      tag_246\n      jump\t// in\n    tag_290:\n        /* \"#utility.yul\":11793:11863   */\n      tag_291\n        /* \"#utility.yul\":11859:11861   */\n      0x20\n        /* \"#utility.yul\":11848:11857   */\n      dup4\n        /* \"#utility.yul\":11844:11862   */\n      add\n        /* \"#utility.yul\":11835:11841   */\n      dup5\n        /* \"#utility.yul\":11793:11863   */\n      tag_249\n      jump\t// in\n    tag_291:\n        /* \"#utility.yul\":11542:11870   */\n      swap4\n      swap3\n      pop\n      pop\n      pop\n      jump\t// out\n        /* \"#utility.yul\":11876:12005   */\n    tag_138:\n        /* \"#utility.yul\":11910:11916   */\n      0x00\n        /* \"#utility.yul\":11937:11957   */\n      tag_293\n      tag_294\n      jump\t// in\n    tag_293:\n        /* \"#utility.yul\":11927:11957   */\n      swap1\n      pop\n        /* \"#utility.yul\":11966:11999   */\n      tag_295\n        /* \"#utility.yul\":11994:11998   */\n      dup3\n        /* \"#utility.yul\":11986:11992   */\n      dup3\n        /* \"#utility.yul\":11966:11999   */\n      tag_296\n      jump\t// in\n    tag_295:\n        /* \"#utility.yul\":11876:12005   */\n      swap2\n      swap1\n      pop\n      jump\t// out\n        /* \"#utility.yul\":12011:12086   */\n    tag_294:\n        /* \"#utility.yul\":12044:12050   */\n      0x00\n        /* \"#utility.yul\":12077:12079   */\n      0x40\n        /* \"#utility.yul\":12071:12080   */\n      mload\n        /* \"#utility.yul\":12061:12080   */\n      swap1\n      pop\n        /* \"#utility.yul\":12011:12086   */\n      swap1\n      jump\t// out\n        /* \"#utility.yul\":12092:12403   */\n    tag_137:\n        /* \"#utility.yul\":12169:12173   */\n      0x00\n        /* \"#utility.yul\":12259:12277   */\n      0xffffffffffffffff\n        /* \"#utility.yul\":12251:12257   */\n      dup3\n        /* \"#utility.yul\":12248:12278   */\n      gt\n        /* \"#utility.yul\":12245:12301   */\n      iszero\n      tag_299\n      jumpi\n        /* \"#utility.yul\":12281:12299   */\n      tag_300\n      tag_99\n      jump\t// in\n    tag_300:\n        /* \"#utility.yul\":12245:12301   */\n    tag_299:\n        /* \"#utility.yul\":12331:12335   */\n      0x20\n        /* \"#utility.yul\":12323:12329   */\n      dup3\n        /* \"#utility.yul\":12319:12336   */\n      mul\n        /* \"#utility.yul\":12311:12336   */\n      swap1\n      pop\n        /* \"#utility.yul\":12391:12395   */\n      0x20\n        /* \"#utility.yul\":12385:12389   */\n      dup2\n        /* \"#utility.yul\":12381:12396   */\n      add\n        /* \"#utility.yul\":12373:12396   */\n      swap1\n      pop\n        /* \"#utility.yul\":12092:12403   */\n      swap2\n      swap1\n      pop\n      jump\t// out\n        /* \"#utility.yul\":12409:12541   */\n    tag_203:\n        /* \"#utility.yul\":12476:12480   */\n      0x00\n        /* \"#utility.yul\":12499:12502   */\n      dup2\n        /* \"#utility.yul\":12491:12502   */\n      swap1\n      pop\n        /* \"#utility.yul\":12529:12533   */\n      0x20\n        /* \"#utility.yul\":12524:12527   */\n      dup3\n        /* \"#utility.yul\":12520:12534   */\n      add\n        /* \"#utility.yul\":12512:12534   */\n      swap1\n      pop\n        /* \"#utility.yul\":12409:12541   */\n      swap2\n      swap1\n      pop\n      jump\t// out\n        /* \"#utility.yul\":12547:12661   */\n    tag_199:\n        /* \"#utility.yul\":12614:12620   */\n      0x00\n        /* \"#utility.yul\":12648:12653   */\n      dup2\n        /* \"#utility.yul\":12642:12654   */\n      mload\n        /* \"#utility.yul\":12632:12654   */\n      swap1\n      pop\n        /* \"#utility.yul\":12547:12661   */\n      swap2\n      swap1\n      pop\n      jump\t// out\n        /* \"#utility.yul\":12667:12780   */\n    tag_209:\n        /* \"#utility.yul\":12737:12741   */\n      0x00\n        /* \"#utility.yul\":12769:12773   */\n      0x20\n        /* \"#utility.yul\":12764:12767   */\n      dup3\n        /* \"#utility.yul\":12760:12774   */\n      add\n        /* \"#utility.yul\":12752:12774   */\n      swap1\n      pop\n        /* \"#utility.yul\":12667:12780   */\n      swap2\n      swap1\n      pop\n      jump\t// out\n        /* \"#utility.yul\":12786:12970   */\n    tag_201:\n        /* \"#utility.yul\":12885:12896   */\n      0x00\n        /* \"#utility.yul\":12919:12925   */\n      dup3\n        /* \"#utility.yul\":12914:12917   */\n      dup3\n        /* \"#utility.yul\":12907:12926   */\n      mstore\n        /* \"#utility.yul\":12959:12963   */\n      0x20\n        /* \"#utility.yul\":12954:12957   */\n      dup3\n        /* \"#utility.yul\":12950:12964   */\n      add\n        /* \"#utility.yul\":12935:12964   */\n      swap1\n      pop\n        /* \"#utility.yul\":12786:12970   */\n      swap3\n      swap2\n      pop\n      pop\n      jump\t// out\n        /* \"#utility.yul\":12976:13145   */\n    tag_221:\n        /* \"#utility.yul\":13060:13071   */\n      0x00\n        /* \"#utility.yul\":13094:13100   */\n      dup3\n        /* \"#utility.yul\":13089:13092   */\n      dup3\n        /* \"#utility.yul\":13082:13101   */\n      mstore\n        /* \"#utility.yul\":13134:13138   */\n      0x20\n        /* \"#utility.yul\":13129:13132   */\n      dup3\n        /* \"#utility.yul\":13125:13139   */\n      add\n        /* \"#utility.yul\":13110:13139   */\n      swap1\n      pop\n        /* \"#utility.yul\":12976:13145   */\n      swap3\n      swap2\n      pop\n      pop\n      jump\t// out\n        /* \"#utility.yul\":13151:13247   */\n    tag_195:\n        /* \"#utility.yul\":13188:13195   */\n      0x00\n        /* \"#utility.yul\":13217:13241   */\n      tag_307\n        /* \"#utility.yul\":13235:13240   */\n      dup3\n        /* \"#utility.yul\":13217:13241   */\n      tag_308\n      jump\t// in\n    tag_307:\n        /* \"#utility.yul\":13206:13241   */\n      swap1\n      pop\n        /* \"#utility.yul\":13151:13247   */\n      swap2\n      swap1\n      pop\n      jump\t// out\n        /* \"#utility.yul\":13253:13357   */\n    tag_191:\n        /* \"#utility.yul\":13298:13305   */\n      0x00\n        /* \"#utility.yul\":13327:13351   */\n      tag_310\n        /* \"#utility.yul\":13345:13350   */\n      dup3\n        /* \"#utility.yul\":13327:13351   */\n      tag_308\n      jump\t// in\n    tag_310:\n        /* \"#utility.yul\":13316:13351   */\n      swap1\n      pop\n        /* \"#utility.yul\":13253:13357   */\n      swap2\n      swap1\n      pop\n      jump\t// out\n        /* \"#utility.yul\":13363:13453   */\n    tag_213:\n        /* \"#utility.yul\":13397:13404   */\n      0x00\n        /* \"#utility.yul\":13440:13445   */\n      dup2\n        /* \"#utility.yul\":13433:13446   */\n      iszero\n        /* \"#utility.yul\":13426:13447   */\n      iszero\n        /* \"#utility.yul\":13415:13447   */\n      swap1\n      pop\n        /* \"#utility.yul\":13363:13453   */\n      swap2\n      swap1\n      pop\n      jump\t// out\n        /* \"#utility.yul\":13459:13536   */\n    tag_217:\n        /* \"#utility.yul\":13496:13503   */\n      0x00\n        /* \"#utility.yul\":13525:13530   */\n      dup2\n        /* \"#utility.yul\":13514:13530   */\n      swap1\n      pop\n        /* \"#utility.yul\":13459:13536   */\n      swap2\n      swap1\n      pop\n      jump\t// out\n        /* \"#utility.yul\":13542:13631   */\n    tag_242:\n        /* \"#utility.yul\":13578:13585   */\n      0x00\n        /* \"#utility.yul\":13618:13624   */\n      0xffff\n        /* \"#utility.yul\":13611:13616   */\n      dup3\n        /* \"#utility.yul\":13607:13625   */\n      and\n        /* \"#utility.yul\":13596:13625   */\n      swap1\n      pop\n        /* \"#utility.yul\":13542:13631   */\n      swap2\n      swap1\n      pop\n      jump\t// out\n        /* \"#utility.yul\":13637:13763   */\n    tag_308:\n        /* \"#utility.yul\":13674:13681   */\n      0x00\n        /* \"#utility.yul\":13714:13756   */\n      0xffffffffffffffffffffffffffffffffffffffff\n        /* \"#utility.yul\":13707:13712   */\n      dup3\n        /* \"#utility.yul\":13703:13757   */\n      and\n        /* \"#utility.yul\":13692:13757   */\n      swap1\n      pop\n        /* \"#utility.yul\":13637:13763   */\n      swap2\n      swap1\n      pop\n      jump\t// out\n        /* \"#utility.yul\":13769:13846   */\n    tag_245:\n        /* \"#utility.yul\":13806:13813   */\n      0x00\n        /* \"#utility.yul\":13835:13840   */\n      dup2\n        /* \"#utility.yul\":13824:13840   */\n      swap1\n      pop\n        /* \"#utility.yul\":13769:13846   */\n      swap2\n      swap1\n      pop\n      jump\t// out\n        /* \"#utility.yul\":13852:13945   */\n    tag_252:\n        /* \"#utility.yul\":13888:13895   */\n      0x00\n        /* \"#utility.yul\":13928:13938   */\n      0xffffffff\n        /* \"#utility.yul\":13921:13926   */\n      dup3\n        /* \"#utility.yul\":13917:13939   */\n      and\n        /* \"#utility.yul\":13906:13939   */\n      swap1\n      pop\n        /* \"#utility.yul\":13852:13945   */\n      swap2\n      swap1\n      pop\n      jump\t// out\n        /* \"#utility.yul\":13951:14052   */\n    tag_256:\n        /* \"#utility.yul\":13987:13994   */\n      0x00\n        /* \"#utility.yul\":14027:14045   */\n      0xffffffffffffffff\n        /* \"#utility.yul\":14020:14025   */\n      dup3\n        /* \"#utility.yul\":14016:14046   */\n      and\n        /* \"#utility.yul\":14005:14046   */\n      swap1\n      pop\n        /* \"#utility.yul\":13951:14052   */\n      swap2\n      swap1\n      pop\n      jump\t// out\n        /* \"#utility.yul\":14058:14339   */\n    tag_296:\n        /* \"#utility.yul\":14141:14168   */\n      tag_319\n        /* \"#utility.yul\":14163:14167   */\n      dup3\n        /* \"#utility.yul\":14141:14168   */\n      tag_320\n      jump\t// in\n    tag_319:\n        /* \"#utility.yul\":14133:14139   */\n      dup2\n        /* \"#utility.yul\":14129:14169   */\n      add\n        /* \"#utility.yul\":14271:14277   */\n      dup2\n        /* \"#utility.yul\":14259:14269   */\n      dup2\n        /* \"#utility.yul\":14256:14278   */\n      lt\n        /* \"#utility.yul\":14235:14253   */\n      0xffffffffffffffff\n        /* \"#utility.yul\":14223:14233   */\n      dup3\n        /* \"#utility.yul\":14220:14254   */\n      gt\n        /* \"#utility.yul\":14217:14279   */\n      or\n        /* \"#utility.yul\":14214:14302   */\n      iszero\n      tag_321\n      jumpi\n        /* \"#utility.yul\":14282:14300   */\n      tag_322\n      tag_99\n      jump\t// in\n    tag_322:\n        /* \"#utility.yul\":14214:14302   */\n    tag_321:\n        /* \"#utility.yul\":14322:14332   */\n      dup1\n        /* \"#utility.yul\":14318:14320   */\n      0x40\n        /* \"#utility.yul\":14311:14333   */\n      mstore\n        /* \"#utility.yul\":14101:14339   */\n      pop\n        /* \"#utility.yul\":14058:14339   */\n      pop\n      pop\n      jump\t// out\n        /* \"#utility.yul\":14345:14525   */\n    tag_99:\n        /* \"#utility.yul\":14393:14470   */\n      0x4e487b7100000000000000000000000000000000000000000000000000000000\n        /* \"#utility.yul\":14390:14391   */\n      0x00\n        /* \"#utility.yul\":14383:14471   */\n      mstore\n        /* \"#utility.yul\":14490:14494   */\n      0x41\n        /* \"#utility.yul\":14487:14488   */\n      0x04\n        /* \"#utility.yul\":14480:14495   */\n      mstore\n        /* \"#utility.yul\":14514:14518   */\n      0x24\n        /* \"#utility.yul\":14511:14512   */\n      0x00\n        /* \"#utility.yul\":14504:14519   */\n      revert\n        /* \"#utility.yul\":14531:14648   */\n    tag_155:\n        /* \"#utility.yul\":14640:14641   */\n      0x00\n        /* \"#utility.yul\":14637:14638   */\n      dup1\n        /* \"#utility.yul\":14630:14642   */\n      revert\n        /* \"#utility.yul\":14654:14771   */\n    tag_141:\n        /* \"#utility.yul\":14763:14764   */\n      0x00\n        /* \"#utility.yul\":14760:14761   */\n      dup1\n        /* \"#utility.yul\":14753:14765   */\n      revert\n        /* \"#utility.yul\":14777:14894   */\n    tag_182:\n        /* \"#utility.yul\":14886:14887   */\n      0x00\n        /* \"#utility.yul\":14883:14884   */\n      dup1\n        /* \"#utility.yul\":14876:14888   */\n      revert\n        /* \"#utility.yul\":14900:15017   */\n    tag_166:\n        /* \"#utility.yul\":15009:15010   */\n      0x00\n        /* \"#utility.yul\":15006:15007   */\n      dup1\n        /* \"#utility.yul\":14999:15011   */\n      revert\n        /* \"#utility.yul\":15023:15125   */\n    tag_320:\n        /* \"#utility.yul\":15064:15070   */\n      0x00\n        /* \"#utility.yul\":15115:15117   */\n      0x1f\n        /* \"#utility.yul\":15111:15118   */\n      not\n        /* \"#utility.yul\":15106:15108   */\n      0x1f\n        /* \"#utility.yul\":15099:15104   */\n      dup4\n        /* \"#utility.yul\":15095:15109   */\n      add\n        /* \"#utility.yul\":15091:15119   */\n      and\n        /* \"#utility.yul\":15081:15119   */\n      swap1\n      pop\n        /* \"#utility.yul\":15023:15125   */\n      swap2\n      swap1\n      pop\n      jump\t// out\n        /* \"#utility.yul\":15131:15298   */\n    tag_223:\n        /* \"#utility.yul\":15271:15290   */\n      0x72657175657374206e6f7420666f756e64000000000000000000000000000000\n        /* \"#utility.yul\":15267:15268   */\n      0x00\n        /* \"#utility.yul\":15259:15265   */\n      dup3\n        /* \"#utility.yul\":15255:15269   */\n      add\n        /* \"#utility.yul\":15248:15291   */\n      mstore\n        /* \"#utility.yul\":15131:15298   */\n      pop\n      jump\t// out\n        /* \"#utility.yul\":15304:15476   */\n    tag_228:\n        /* \"#utility.yul\":15444:15468   */\n      0x4d7573742062652070726f706f736564206f776e657200000000000000000000\n        /* \"#utility.yul\":15440:15441   */\n      0x00\n        /* \"#utility.yul\":15432:15438   */\n      dup3\n        /* \"#utility.yul\":15428:15442   */\n      add\n        /* \"#utility.yul\":15421:15469   */\n      mstore\n        /* \"#utility.yul\":15304:15476   */\n      pop\n      jump\t// out\n        /* \"#utility.yul\":15482:15654   */\n    tag_233:\n        /* \"#utility.yul\":15622:15646   */\n      0x4f6e6c792063616c6c61626c65206279206f776e657200000000000000000000\n        /* \"#utility.yul\":15618:15619   */\n      0x00\n        /* \"#utility.yul\":15610:15616   */\n      dup3\n        /* \"#utility.yul\":15606:15620   */\n      add\n        /* \"#utility.yul\":15599:15647   */\n      mstore\n        /* \"#utility.yul\":15482:15654   */\n      pop\n      jump\t// out\n        /* \"#utility.yul\":15660:15833   */\n    tag_238:\n        /* \"#utility.yul\":15800:15825   */\n      0x43616e6e6f74207472616e7366657220746f2073656c66000000000000000000\n        /* \"#utility.yul\":15796:15797   */\n      0x00\n        /* \"#utility.yul\":15788:15794   */\n      dup3\n        /* \"#utility.yul\":15784:15798   */\n      add\n        /* \"#utility.yul\":15777:15826   */\n      mstore\n        /* \"#utility.yul\":15660:15833   */\n      pop\n      jump\t// out\n        /* \"#utility.yul\":15839:15961   */\n    tag_150:\n        /* \"#utility.yul\":15912:15936   */\n      tag_334\n        /* \"#utility.yul\":15930:15935   */\n      dup2\n        /* \"#utility.yul\":15912:15936   */\n      tag_195\n      jump\t// in\n    tag_334:\n        /* \"#utility.yul\":15905:15910   */\n      dup2\n        /* \"#utility.yul\":15902:15937   */\n      eq\n        /* \"#utility.yul\":15892:15955   */\n      tag_335\n      jumpi\n        /* \"#utility.yul\":15951:15952   */\n      0x00\n        /* \"#utility.yul\":15948:15949   */\n      dup1\n        /* \"#utility.yul\":15941:15953   */\n      revert\n        /* \"#utility.yul\":15892:15955   */\n    tag_335:\n        /* \"#utility.yul\":15839:15961   */\n      pop\n      jump\t// out\n        /* \"#utility.yul\":15967:16089   */\n    tag_159:\n        /* \"#utility.yul\":16040:16064   */\n      tag_337\n        /* \"#utility.yul\":16058:16063   */\n      dup2\n        /* \"#utility.yul\":16040:16064   */\n      tag_245\n      jump\t// in\n    tag_337:\n        /* \"#utility.yul\":16033:16038   */\n      dup2\n        /* \"#utility.yul\":16030:16065   */\n      eq\n        /* \"#utility.yul\":16020:16083   */\n      tag_338\n      jumpi\n        /* \"#utility.yul\":16079:16080   */\n      0x00\n        /* \"#utility.yul\":16076:16077   */\n      dup1\n        /* \"#utility.yul\":16069:16081   */\n      revert\n        /* \"#utility.yul\":16020:16083   */\n    tag_338:\n        /* \"#utility.yul\":15967:16089   */\n      pop\n      jump\t// out\n\n    auxdata: 0xa26469706673582212207016b02758f3d9762b60873c515671c06988d52b76393105087b8304d1a3e3d364736f6c63430008070033\n}\n",
				"bytecode": {
					"linkReferences": {},
					"object": "60a06040527f79d3d8832d904592c0bf9818b621522c988bb8b0c05cdc3b15aea1b6e8db0c1560001b600655620186a0600760006101000a81548163ffffffff021916908363ffffffff1602179055506003600760046101000a81548161ffff021916908361ffff1602179055506001600760066101000a81548163ffffffff021916908363ffffffff1602179055503480156200009c57600080fd5b50604051620019f2380380620019f28339818101604052810190620000c291906200041d565b33806000732ca8e0c643bde4c2e08ab1fa0da3401adad7734d8073ffffffffffffffffffffffffffffffffffffffff1660808173ffffffffffffffffffffffffffffffffffffffff1660601b8152505050600073ffffffffffffffffffffffffffffffffffffffff168273ffffffffffffffffffffffffffffffffffffffff16141562000186576040517f08c379a00000000000000000000000000000000000000000000000000000000081526004016200017d906200049d565b60405180910390fd5b816000806101000a81548173ffffffffffffffffffffffffffffffffffffffff021916908373ffffffffffffffffffffffffffffffffffffffff160217905550600073ffffffffffffffffffffffffffffffffffffffff168173ffffffffffffffffffffffffffffffffffffffff16146200020d576200020c81620002d660201b60201c565b5b505050732ca8e0c643bde4c2e08ab1fa0da3401adad7734d600360006101000a81548173ffffffffffffffffffffffffffffffffffffffff021916908373ffffffffffffffffffffffffffffffffffffffff16021790555080600360146101000a81548167ffffffffffffffff021916908367ffffffffffffffff160217905550336007600a6101000a81548173ffffffffffffffffffffffffffffffffffffffff021916908373ffffffffffffffffffffffffffffffffffffffff1602179055505062000577565b3373ffffffffffffffffffffffffffffffffffffffff168173ffffffffffffffffffffffffffffffffffffffff16141562000348576040517f08c379a00000000000000000000000000000000000000000000000000000000081526004016200033f90620004bf565b60405180910390fd5b80600160006101000a81548173ffffffffffffffffffffffffffffffffffffffff021916908373ffffffffffffffffffffffffffffffffffffffff1602179055508073ffffffffffffffffffffffffffffffffffffffff1660008054906101000a900473ffffffffffffffffffffffffffffffffffffffff1673ffffffffffffffffffffffffffffffffffffffff167fed8889f560326eb138920d842192f0eb3dd22b4f139c87a2c57538e05bae127860405160405180910390a350565b60008151905062000417816200055d565b92915050565b60006020828403121562000436576200043562000506565b5b6000620004468482850162000406565b91505092915050565b60006200045e601883620004e1565b91506200046b826200050b565b602082019050919050565b600062000485601783620004e1565b9150620004928262000534565b602082019050919050565b60006020820190508181036000830152620004b8816200044f565b9050919050565b60006020820190508181036000830152620004da8162000476565b9050919050565b600082825260208201905092915050565b600067ffffffffffffffff82169050919050565b600080fd5b7f43616e6e6f7420736574206f776e657220746f207a65726f0000000000000000600082015250565b7f43616e6e6f74207472616e7366657220746f2073656c66000000000000000000600082015250565b6200056881620004f2565b81146200057457600080fd5b50565b60805160601c6114556200059d6000396000818161027b01526102cf01526114556000f3fe60806040526004361061009c5760003560e01c8063a168fa8911610064578063a168fa8914610174578063b163cc38146101b2578063d8a4676f146101bc578063e0c86289146101fa578063f2fde38b14610225578063fc2a88c31461024e5761009c565b80631fe543e3146100a157806379ba5097146100ca5780638796ba8c146100e15780638da5cb5b1461011e5780639403e8dd14610149575b600080fd5b3480156100ad57600080fd5b506100c860048036038101906100c39190610db3565b610279565b005b3480156100d657600080fd5b506100df610339565b005b3480156100ed57600080fd5b5061010860048036038101906101039190610d59565b6104ce565b6040516101159190611123565b60405180910390f35b34801561012a57600080fd5b506101336104f2565b6040516101409190610f98565b60405180910390f35b34801561015557600080fd5b5061015e61051b565b60405161016b9190610fb3565b60405180910390f35b34801561018057600080fd5b5061019b60048036038101906101969190610d59565b610541565b6040516101a9929190611027565b60405180910390f35b6101ba61057f565b005b3480156101c857600080fd5b506101e360048036038101906101de9190610d59565b610581565b6040516101f1929190610ff7565b60405180910390f35b34801561020657600080fd5b5061020f6106ac565b60405161021c9190611123565b60405180910390f35b34801561023157600080fd5b5061024c60048036038101906102479190610d2c565b610914565b005b34801561025a57600080fd5b50610263610928565b6040516102709190611123565b60405180910390f35b7f000000000000000000000000000000000000000000000000000000000000000073ffffffffffffffffffffffffffffffffffffffff163373ffffffffffffffffffffffffffffffffffffffff161461032b57337f00000000000000000000000000000000000000000000000000000000000000006040517f1cf993f4000000000000000000000000000000000000000000000000000000008152600401610322929190610fce565b60405180910390fd5b610335828261092e565b5050565b600160009054906101000a900473ffffffffffffffffffffffffffffffffffffffff1673ffffffffffffffffffffffffffffffffffffffff163373ffffffffffffffffffffffffffffffffffffffff16146103c9576040517f08c379a00000000000000000000000000000000000000000000000000000000081526004016103c0906110c3565b60405180910390fd5b60008060009054906101000a900473ffffffffffffffffffffffffffffffffffffffff169050336000806101000a81548173ffffffffffffffffffffffffffffffffffffffff021916908373ffffffffffffffffffffffffffffffffffffffff1602179055506000600160006101000a81548173ffffffffffffffffffffffffffffffffffffffff021916908373ffffffffffffffffffffffffffffffffffffffff1602179055503373ffffffffffffffffffffffffffffffffffffffff168173ffffffffffffffffffffffffffffffffffffffff167f8be0079c531659141344cd1fd0a4f28419497f9722a3daafe3b4186f6b6457e060405160405180910390a350565b600481815481106104de57600080fd5b906000526020600020016000915090505481565b60008060009054906101000a900473ffffffffffffffffffffffffffffffffffffffff16905090565b6007600a9054906101000a900473ffffffffffffffffffffffffffffffffffffffff1681565b60026020528060005260406000206000915090508060000160009054906101000a900460ff16908060000160019054906101000a900460ff16905082565b565b600060606002600084815260200190815260200160002060000160019054906101000a900460ff166105e8576040517f08c379a00000000000000000000000000000000000000000000000000000000081526004016105df906110a3565b60405180910390fd5b6000600260008581526020019081526020016000206040518060600160405290816000820160009054906101000a900460ff161515151581526020016000820160019054906101000a900460ff161515151581526020016001820180548060200260200160405190810160405280929190818152602001828054801561068d57602002820191906000526020600020905b815481526020019060010190808311610679575b5050505050815250509050806000015181604001519250925050915091565b60006106b6610a28565b600360009054906101000a900473ffffffffffffffffffffffffffffffffffffffff1673ffffffffffffffffffffffffffffffffffffffff16635d3b1d30600654600360149054906101000a900467ffffffffffffffff16600760049054906101000a900461ffff16600760009054906101000a900463ffffffff16600760069054906101000a900463ffffffff166040518663ffffffff1660e01b8152600401610765959493929190611050565b602060405180830381600087803b15801561077f57600080fd5b505af1158015610793573d6000803e3d6000fd5b505050506040513d601f19601f820116820180604052508101906107b79190610d86565b90506040518060600160405280600015158152602001600115158152602001600067ffffffffffffffff8111156107f1576107f06112f9565b5b60405190808252806020026020018201604052801561081f5781602001602082028036833780820191505090505b508152506002600083815260200190815260200160002060008201518160000160006101000a81548160ff02191690831515021790555060208201518160000160016101000a81548160ff0219169083151502179055506040820151816001019080519060200190610892929190610be5565b509050506004819080600181540180825580915050600190039060005260206000200160009091909190915055806005819055507fcc58b13ad3eab50626c6a6300b1d139cd6ebb1688a7cced9461c2f7e762665ee81600760069054906101000a900463ffffffff1660405161090992919061116e565b60405180910390a190565b61091c610a28565b61092581610ab8565b50565b60055481565b6002600083815260200190815260200160002060000160019054906101000a900460ff16610991576040517f08c379a0000000000000000000000000000000000000000000000000000000008152600401610988906110a3565b60405180910390fd5b60016002600084815260200190815260200160002060000160006101000a81548160ff021916908315150217905550806002600084815260200190815260200160002060010190805190602001906109ea929190610be5565b507ffe2e2d779dba245964d4e3ef9b994be63856fd568bf7d3ca9e224755cb1bd54d8282604051610a1c92919061113e565b60405180910390a15050565b60008054906101000a900473ffffffffffffffffffffffffffffffffffffffff1673ffffffffffffffffffffffffffffffffffffffff163373ffffffffffffffffffffffffffffffffffffffff1614610ab6576040517f08c379a0000000000000000000000000000000000000000000000000000000008152600401610aad906110e3565b60405180910390fd5b565b3373ffffffffffffffffffffffffffffffffffffffff168173ffffffffffffffffffffffffffffffffffffffff161415610b27576040517f08c379a0000000000000000000000000000000000000000000000000000000008152600401610b1e90611103565b60405180910390fd5b80600160006101000a81548173ffffffffffffffffffffffffffffffffffffffff021916908373ffffffffffffffffffffffffffffffffffffffff1602179055508073ffffffffffffffffffffffffffffffffffffffff1660008054906101000a900473ffffffffffffffffffffffffffffffffffffffff1673ffffffffffffffffffffffffffffffffffffffff167fed8889f560326eb138920d842192f0eb3dd22b4f139c87a2c57538e05bae127860405160405180910390a350565b828054828255906000526020600020908101928215610c21579160200282015b82811115610c20578251825591602001919060010190610c05565b5b509050610c2e9190610c32565b5090565b5b80821115610c4b576000816000905550600101610c33565b5090565b6000610c62610c5d846111bc565b611197565b90508083825260208201905082856020860282011115610c8557610c8461132d565b5b60005b85811015610cb55781610c9b8882610d02565b845260208401935060208301925050600181019050610c88565b5050509392505050565b600081359050610cce816113f1565b92915050565b600082601f830112610ce957610ce8611328565b5b8135610cf9848260208601610c4f565b91505092915050565b600081359050610d1181611408565b92915050565b600081519050610d2681611408565b92915050565b600060208284031215610d4257610d41611337565b5b6000610d5084828501610cbf565b91505092915050565b600060208284031215610d6f57610d6e611337565b5b6000610d7d84828501610d02565b91505092915050565b600060208284031215610d9c57610d9b611337565b5b6000610daa84828501610d17565b91505092915050565b60008060408385031215610dca57610dc9611337565b5b6000610dd885828601610d02565b925050602083013567ffffffffffffffff811115610df957610df8611332565b5b610e0585828601610cd4565b9150509250929050565b6000610e1b8383610f5c565b60208301905092915050565b610e3081611244565b82525050565b610e3f81611232565b82525050565b6000610e50826111f8565b610e5a8185611210565b9350610e65836111e8565b8060005b83811015610e96578151610e7d8882610e0f565b9750610e8883611203565b925050600181019050610e69565b5085935050505092915050565b610eac81611256565b82525050565b610ebb81611262565b82525050565b6000610ece601183611221565b9150610ed98261134d565b602082019050919050565b6000610ef1601683611221565b9150610efc82611376565b602082019050919050565b6000610f14601683611221565b9150610f1f8261139f565b602082019050919050565b6000610f37601783611221565b9150610f42826113c8565b602082019050919050565b610f568161126c565b82525050565b610f658161129a565b82525050565b610f748161129a565b82525050565b610f83816112a4565b82525050565b610f92816112b4565b82525050565b6000602082019050610fad6000830184610e36565b92915050565b6000602082019050610fc86000830184610e27565b92915050565b6000604082019050610fe36000830185610e36565b610ff06020830184610e36565b9392505050565b600060408201905061100c6000830185610ea3565b818103602083015261101e8184610e45565b90509392505050565b600060408201905061103c6000830185610ea3565b6110496020830184610ea3565b9392505050565b600060a0820190506110656000830188610eb2565b6110726020830187610f89565b61107f6040830186610f4d565b61108c6060830185610f7a565b6110996080830184610f7a565b9695505050505050565b600060208201905081810360008301526110bc81610ec1565b9050919050565b600060208201905081810360008301526110dc81610ee4565b9050919050565b600060208201905081810360008301526110fc81610f07565b9050919050565b6000602082019050818103600083015261111c81610f2a565b9050919050565b60006020820190506111386000830184610f6b565b92915050565b60006040820190506111536000830185610f6b565b81810360208301526111658184610e45565b90509392505050565b60006040820190506111836000830185610f6b565b6111906020830184610f7a565b9392505050565b60006111a16111b2565b90506111ad82826112c8565b919050565b6000604051905090565b600067ffffffffffffffff8211156111d7576111d66112f9565b5b602082029050602081019050919050565b6000819050602082019050919050565b600081519050919050565b6000602082019050919050565b600082825260208201905092915050565b600082825260208201905092915050565b600061123d8261127a565b9050919050565b600061124f8261127a565b9050919050565b60008115159050919050565b6000819050919050565b600061ffff82169050919050565b600073ffffffffffffffffffffffffffffffffffffffff82169050919050565b6000819050919050565b600063ffffffff82169050919050565b600067ffffffffffffffff82169050919050565b6112d18261133c565b810181811067ffffffffffffffff821117156112f0576112ef6112f9565b5b80604052505050565b7f4e487b7100000000000000000000000000000000000000000000000000000000600052604160045260246000fd5b600080fd5b600080fd5b600080fd5b600080fd5b6000601f19601f8301169050919050565b7f72657175657374206e6f7420666f756e64000000000000000000000000000000600082015250565b7f4d7573742062652070726f706f736564206f776e657200000000000000000000600082015250565b7f4f6e6c792063616c6c61626c65206279206f776e657200000000000000000000600082015250565b7f43616e6e6f74207472616e7366657220746f2073656c66000000000000000000600082015250565b6113fa81611232565b811461140557600080fd5b50565b6114118161129a565b811461141c57600080fd5b5056fea26469706673582212207016b02758f3d9762b60873c515671c06988d52b76393105087b8304d1a3e3d364736f6c63430008070033",
					"opcodes": "PUSH1 0xA0 PUSH1 0x40 MSTORE PUSH32 0x79D3D8832D904592C0BF9818B621522C988BB8B0C05CDC3B15AEA1B6E8DB0C15 PUSH1 0x0 SHL PUSH1 0x6 SSTORE PUSH3 0x186A0 PUSH1 0x7 PUSH1 0x0 PUSH2 0x100 EXP DUP2 SLOAD DUP2 PUSH4 0xFFFFFFFF MUL NOT AND SWAP1 DUP4 PUSH4 0xFFFFFFFF AND MUL OR SWAP1 SSTORE POP PUSH1 0x3 PUSH1 0x7 PUSH1 0x4 PUSH2 0x100 EXP DUP2 SLOAD DUP2 PUSH2 0xFFFF MUL NOT AND SWAP1 DUP4 PUSH2 0xFFFF AND MUL OR SWAP1 SSTORE POP PUSH1 0x1 PUSH1 0x7 PUSH1 0x6 PUSH2 0x100 EXP DUP2 SLOAD DUP2 PUSH4 0xFFFFFFFF MUL NOT AND SWAP1 DUP4 PUSH4 0xFFFFFFFF AND MUL OR SWAP1 SSTORE POP CALLVALUE DUP1 ISZERO PUSH3 0x9C JUMPI PUSH1 0x0 DUP1 REVERT JUMPDEST POP PUSH1 0x40 MLOAD PUSH3 0x19F2 CODESIZE SUB DUP1 PUSH3 0x19F2 DUP4 CODECOPY DUP2 DUP2 ADD PUSH1 0x40 MSTORE DUP2 ADD SWAP1 PUSH3 0xC2 SWAP2 SWAP1 PUSH3 0x41D JUMP JUMPDEST CALLER DUP1 PUSH1 0x0 PUSH20 0x2CA8E0C643BDE4C2E08AB1FA0DA3401ADAD7734D DUP1 PUSH20 0xFFFFFFFFFFFFFFFFFFFFFFFFFFFFFFFFFFFFFFFF AND PUSH1 0x80 DUP2 PUSH20 0xFFFFFFFFFFFFFFFFFFFFFFFFFFFFFFFFFFFFFFFF AND PUSH1 0x60 SHL DUP2 MSTORE POP POP POP PUSH1 0x0 PUSH20 0xFFFFFFFFFFFFFFFFFFFFFFFFFFFFFFFFFFFFFFFF AND DUP3 PUSH20 0xFFFFFFFFFFFFFFFFFFFFFFFFFFFFFFFFFFFFFFFF AND EQ ISZERO PUSH3 0x186 JUMPI PUSH1 0x40 MLOAD PUSH32 0x8C379A000000000000000000000000000000000000000000000000000000000 DUP2 MSTORE PUSH1 0x4 ADD PUSH3 0x17D SWAP1 PUSH3 0x49D JUMP JUMPDEST PUSH1 0x40 MLOAD DUP1 SWAP2 SUB SWAP1 REVERT JUMPDEST DUP2 PUSH1 0x0 DUP1 PUSH2 0x100 EXP DUP2 SLOAD DUP2 PUSH20 0xFFFFFFFFFFFFFFFFFFFFFFFFFFFFFFFFFFFFFFFF MUL NOT AND SWAP1 DUP4 PUSH20 0xFFFFFFFFFFFFFFFFFFFFFFFFFFFFFFFFFFFFFFFF AND MUL OR SWAP1 SSTORE POP PUSH1 0x0 PUSH20 0xFFFFFFFFFFFFFFFFFFFFFFFFFFFFFFFFFFFFFFFF AND DUP2 PUSH20 0xFFFFFFFFFFFFFFFFFFFFFFFFFFFFFFFFFFFFFFFF AND EQ PUSH3 0x20D JUMPI PUSH3 0x20C DUP2 PUSH3 0x2D6 PUSH1 0x20 SHL PUSH1 0x20 SHR JUMP JUMPDEST JUMPDEST POP POP POP PUSH20 0x2CA8E0C643BDE4C2E08AB1FA0DA3401ADAD7734D PUSH1 0x3 PUSH1 0x0 PUSH2 0x100 EXP DUP2 SLOAD DUP2 PUSH20 0xFFFFFFFFFFFFFFFFFFFFFFFFFFFFFFFFFFFFFFFF MUL NOT AND SWAP1 DUP4 PUSH20 0xFFFFFFFFFFFFFFFFFFFFFFFFFFFFFFFFFFFFFFFF AND MUL OR SWAP1 SSTORE POP DUP1 PUSH1 0x3 PUSH1 0x14 PUSH2 0x100 EXP DUP2 SLOAD DUP2 PUSH8 0xFFFFFFFFFFFFFFFF MUL NOT AND SWAP1 DUP4 PUSH8 0xFFFFFFFFFFFFFFFF AND MUL OR SWAP1 SSTORE POP CALLER PUSH1 0x7 PUSH1 0xA PUSH2 0x100 EXP DUP2 SLOAD DUP2 PUSH20 0xFFFFFFFFFFFFFFFFFFFFFFFFFFFFFFFFFFFFFFFF MUL NOT AND SWAP1 DUP4 PUSH20 0xFFFFFFFFFFFFFFFFFFFFFFFFFFFFFFFFFFFFFFFF AND MUL OR SWAP1 SSTORE POP POP PUSH3 0x577 JUMP JUMPDEST CALLER PUSH20 0xFFFFFFFFFFFFFFFFFFFFFFFFFFFFFFFFFFFFFFFF AND DUP2 PUSH20 0xFFFFFFFFFFFFFFFFFFFFFFFFFFFFFFFFFFFFFFFF AND EQ ISZERO PUSH3 0x348 JUMPI PUSH1 0x40 MLOAD PUSH32 0x8C379A000000000000000000000000000000000000000000000000000000000 DUP2 MSTORE PUSH1 0x4 ADD PUSH3 0x33F SWAP1 PUSH3 0x4BF JUMP JUMPDEST PUSH1 0x40 MLOAD DUP1 SWAP2 SUB SWAP1 REVERT JUMPDEST DUP1 PUSH1 0x1 PUSH1 0x0 PUSH2 0x100 EXP DUP2 SLOAD DUP2 PUSH20 0xFFFFFFFFFFFFFFFFFFFFFFFFFFFFFFFFFFFFFFFF MUL NOT AND SWAP1 DUP4 PUSH20 0xFFFFFFFFFFFFFFFFFFFFFFFFFFFFFFFFFFFFFFFF AND MUL OR SWAP1 SSTORE POP DUP1 PUSH20 0xFFFFFFFFFFFFFFFFFFFFFFFFFFFFFFFFFFFFFFFF AND PUSH1 0x0 DUP1 SLOAD SWAP1 PUSH2 0x100 EXP SWAP1 DIV PUSH20 0xFFFFFFFFFFFFFFFFFFFFFFFFFFFFFFFFFFFFFFFF AND PUSH20 0xFFFFFFFFFFFFFFFFFFFFFFFFFFFFFFFFFFFFFFFF AND PUSH32 0xED8889F560326EB138920D842192F0EB3DD22B4F139C87A2C57538E05BAE1278 PUSH1 0x40 MLOAD PUSH1 0x40 MLOAD DUP1 SWAP2 SUB SWAP1 LOG3 POP JUMP JUMPDEST PUSH1 0x0 DUP2 MLOAD SWAP1 POP PUSH3 0x417 DUP2 PUSH3 0x55D JUMP JUMPDEST SWAP3 SWAP2 POP POP JUMP JUMPDEST PUSH1 0x0 PUSH1 0x20 DUP3 DUP5 SUB SLT ISZERO PUSH3 0x436 JUMPI PUSH3 0x435 PUSH3 0x506 JUMP JUMPDEST JUMPDEST PUSH1 0x0 PUSH3 0x446 DUP5 DUP3 DUP6 ADD PUSH3 0x406 JUMP JUMPDEST SWAP2 POP POP SWAP3 SWAP2 POP POP JUMP JUMPDEST PUSH1 0x0 PUSH3 0x45E PUSH1 0x18 DUP4 PUSH3 0x4E1 JUMP JUMPDEST SWAP2 POP PUSH3 0x46B DUP3 PUSH3 0x50B JUMP JUMPDEST PUSH1 0x20 DUP3 ADD SWAP1 POP SWAP2 SWAP1 POP JUMP JUMPDEST PUSH1 0x0 PUSH3 0x485 PUSH1 0x17 DUP4 PUSH3 0x4E1 JUMP JUMPDEST SWAP2 POP PUSH3 0x492 DUP3 PUSH3 0x534 JUMP JUMPDEST PUSH1 0x20 DUP3 ADD SWAP1 POP SWAP2 SWAP1 POP JUMP JUMPDEST PUSH1 0x0 PUSH1 0x20 DUP3 ADD SWAP1 POP DUP2 DUP2 SUB PUSH1 0x0 DUP4 ADD MSTORE PUSH3 0x4B8 DUP2 PUSH3 0x44F JUMP JUMPDEST SWAP1 POP SWAP2 SWAP1 POP JUMP JUMPDEST PUSH1 0x0 PUSH1 0x20 DUP3 ADD SWAP1 POP DUP2 DUP2 SUB PUSH1 0x0 DUP4 ADD MSTORE PUSH3 0x4DA DUP2 PUSH3 0x476 JUMP JUMPDEST SWAP1 POP SWAP2 SWAP1 POP JUMP JUMPDEST PUSH1 0x0 DUP3 DUP3 MSTORE PUSH1 0x20 DUP3 ADD SWAP1 POP SWAP3 SWAP2 POP POP JUMP JUMPDEST PUSH1 0x0 PUSH8 0xFFFFFFFFFFFFFFFF DUP3 AND SWAP1 POP SWAP2 SWAP1 POP JUMP JUMPDEST PUSH1 0x0 DUP1 REVERT JUMPDEST PUSH32 0x43616E6E6F7420736574206F776E657220746F207A65726F0000000000000000 PUSH1 0x0 DUP3 ADD MSTORE POP JUMP JUMPDEST PUSH32 0x43616E6E6F74207472616E7366657220746F2073656C66000000000000000000 PUSH1 0x0 DUP3 ADD MSTORE POP JUMP JUMPDEST PUSH3 0x568 DUP2 PUSH3 0x4F2 JUMP JUMPDEST DUP2 EQ PUSH3 0x574 JUMPI PUSH1 0x0 DUP1 REVERT JUMPDEST POP JUMP JUMPDEST PUSH1 0x80 MLOAD PUSH1 0x60 SHR PUSH2 0x1455 PUSH3 0x59D PUSH1 0x0 CODECOPY PUSH1 0x0 DUP2 DUP2 PUSH2 0x27B ADD MSTORE PUSH2 0x2CF ADD MSTORE PUSH2 0x1455 PUSH1 0x0 RETURN INVALID PUSH1 0x80 PUSH1 0x40 MSTORE PUSH1 0x4 CALLDATASIZE LT PUSH2 0x9C JUMPI PUSH1 0x0 CALLDATALOAD PUSH1 0xE0 SHR DUP1 PUSH4 0xA168FA89 GT PUSH2 0x64 JUMPI DUP1 PUSH4 0xA168FA89 EQ PUSH2 0x174 JUMPI DUP1 PUSH4 0xB163CC38 EQ PUSH2 0x1B2 JUMPI DUP1 PUSH4 0xD8A4676F EQ PUSH2 0x1BC JUMPI DUP1 PUSH4 0xE0C86289 EQ PUSH2 0x1FA JUMPI DUP1 PUSH4 0xF2FDE38B EQ PUSH2 0x225 JUMPI DUP1 PUSH4 0xFC2A88C3 EQ PUSH2 0x24E JUMPI PUSH2 0x9C JUMP JUMPDEST DUP1 PUSH4 0x1FE543E3 EQ PUSH2 0xA1 JUMPI DUP1 PUSH4 0x79BA5097 EQ PUSH2 0xCA JUMPI DUP1 PUSH4 0x8796BA8C EQ PUSH2 0xE1 JUMPI DUP1 PUSH4 0x8DA5CB5B EQ PUSH2 0x11E JUMPI DUP1 PUSH4 0x9403E8DD EQ PUSH2 0x149 JUMPI JUMPDEST PUSH1 0x0 DUP1 REVERT JUMPDEST CALLVALUE DUP1 ISZERO PUSH2 0xAD JUMPI PUSH1 0x0 DUP1 REVERT JUMPDEST POP PUSH2 0xC8 PUSH1 0x4 DUP1 CALLDATASIZE SUB DUP2 ADD SWAP1 PUSH2 0xC3 SWAP2 SWAP1 PUSH2 0xDB3 JUMP JUMPDEST PUSH2 0x279 JUMP JUMPDEST STOP JUMPDEST CALLVALUE DUP1 ISZERO PUSH2 0xD6 JUMPI PUSH1 0x0 DUP1 REVERT JUMPDEST POP PUSH2 0xDF PUSH2 0x339 JUMP JUMPDEST STOP JUMPDEST CALLVALUE DUP1 ISZERO PUSH2 0xED JUMPI PUSH1 0x0 DUP1 REVERT JUMPDEST POP PUSH2 0x108 PUSH1 0x4 DUP1 CALLDATASIZE SUB DUP2 ADD SWAP1 PUSH2 0x103 SWAP2 SWAP1 PUSH2 0xD59 JUMP JUMPDEST PUSH2 0x4CE JUMP JUMPDEST PUSH1 0x40 MLOAD PUSH2 0x115 SWAP2 SWAP1 PUSH2 0x1123 JUMP JUMPDEST PUSH1 0x40 MLOAD DUP1 SWAP2 SUB SWAP1 RETURN JUMPDEST CALLVALUE DUP1 ISZERO PUSH2 0x12A JUMPI PUSH1 0x0 DUP1 REVERT JUMPDEST POP PUSH2 0x133 PUSH2 0x4F2 JUMP JUMPDEST PUSH1 0x40 MLOAD PUSH2 0x140 SWAP2 SWAP1 PUSH2 0xF98 JUMP JUMPDEST PUSH1 0x40 MLOAD DUP1 SWAP2 SUB SWAP1 RETURN JUMPDEST CALLVALUE DUP1 ISZERO PUSH2 0x155 JUMPI PUSH1 0x0 DUP1 REVERT JUMPDEST POP PUSH2 0x15E PUSH2 0x51B JUMP JUMPDEST PUSH1 0x40 MLOAD PUSH2 0x16B SWAP2 SWAP1 PUSH2 0xFB3 JUMP JUMPDEST PUSH1 0x40 MLOAD DUP1 SWAP2 SUB SWAP1 RETURN JUMPDEST CALLVALUE DUP1 ISZERO PUSH2 0x180 JUMPI PUSH1 0x0 DUP1 REVERT JUMPDEST POP PUSH2 0x19B PUSH1 0x4 DUP1 CALLDATASIZE SUB DUP2 ADD SWAP1 PUSH2 0x196 SWAP2 SWAP1 PUSH2 0xD59 JUMP JUMPDEST PUSH2 0x541 JUMP JUMPDEST PUSH1 0x40 MLOAD PUSH2 0x1A9 SWAP3 SWAP2 SWAP1 PUSH2 0x1027 JUMP JUMPDEST PUSH1 0x40 MLOAD DUP1 SWAP2 SUB SWAP1 RETURN JUMPDEST PUSH2 0x1BA PUSH2 0x57F JUMP JUMPDEST STOP JUMPDEST CALLVALUE DUP1 ISZERO PUSH2 0x1C8 JUMPI PUSH1 0x0 DUP1 REVERT JUMPDEST POP PUSH2 0x1E3 PUSH1 0x4 DUP1 CALLDATASIZE SUB DUP2 ADD SWAP1 PUSH2 0x1DE SWAP2 SWAP1 PUSH2 0xD59 JUMP JUMPDEST PUSH2 0x581 JUMP JUMPDEST PUSH1 0x40 MLOAD PUSH2 0x1F1 SWAP3 SWAP2 SWAP1 PUSH2 0xFF7 JUMP JUMPDEST PUSH1 0x40 MLOAD DUP1 SWAP2 SUB SWAP1 RETURN JUMPDEST CALLVALUE DUP1 ISZERO PUSH2 0x206 JUMPI PUSH1 0x0 DUP1 REVERT JUMPDEST POP PUSH2 0x20F PUSH2 0x6AC JUMP JUMPDEST PUSH1 0x40 MLOAD PUSH2 0x21C SWAP2 SWAP1 PUSH2 0x1123 JUMP JUMPDEST PUSH1 0x40 MLOAD DUP1 SWAP2 SUB SWAP1 RETURN JUMPDEST CALLVALUE DUP1 ISZERO PUSH2 0x231 JUMPI PUSH1 0x0 DUP1 REVERT JUMPDEST POP PUSH2 0x24C PUSH1 0x4 DUP1 CALLDATASIZE SUB DUP2 ADD SWAP1 PUSH2 0x247 SWAP2 SWAP1 PUSH2 0xD2C JUMP JUMPDEST PUSH2 0x914 JUMP JUMPDEST STOP JUMPDEST CALLVALUE DUP1 ISZERO PUSH2 0x25A JUMPI PUSH1 0x0 DUP1 REVERT JUMPDEST POP PUSH2 0x263 PUSH2 0x928 JUMP JUMPDEST PUSH1 0x40 MLOAD PUSH2 0x270 SWAP2 SWAP1 PUSH2 0x1123 JUMP JUMPDEST PUSH1 0x40 MLOAD DUP1 SWAP2 SUB SWAP1 RETURN JUMPDEST PUSH32 0x0 PUSH20 0xFFFFFFFFFFFFFFFFFFFFFFFFFFFFFFFFFFFFFFFF AND CALLER PUSH20 0xFFFFFFFFFFFFFFFFFFFFFFFFFFFFFFFFFFFFFFFF AND EQ PUSH2 0x32B JUMPI CALLER PUSH32 0x0 PUSH1 0x40 MLOAD PUSH32 0x1CF993F400000000000000000000000000000000000000000000000000000000 DUP2 MSTORE PUSH1 0x4 ADD PUSH2 0x322 SWAP3 SWAP2 SWAP1 PUSH2 0xFCE JUMP JUMPDEST PUSH1 0x40 MLOAD DUP1 SWAP2 SUB SWAP1 REVERT JUMPDEST PUSH2 0x335 DUP3 DUP3 PUSH2 0x92E JUMP JUMPDEST POP POP JUMP JUMPDEST PUSH1 0x1 PUSH1 0x0 SWAP1 SLOAD SWAP1 PUSH2 0x100 EXP SWAP1 DIV PUSH20 0xFFFFFFFFFFFFFFFFFFFFFFFFFFFFFFFFFFFFFFFF AND PUSH20 0xFFFFFFFFFFFFFFFFFFFFFFFFFFFFFFFFFFFFFFFF AND CALLER PUSH20 0xFFFFFFFFFFFFFFFFFFFFFFFFFFFFFFFFFFFFFFFF AND EQ PUSH2 0x3C9 JUMPI PUSH1 0x40 MLOAD PUSH32 0x8C379A000000000000000000000000000000000000000000000000000000000 DUP2 MSTORE PUSH1 0x4 ADD PUSH2 0x3C0 SWAP1 PUSH2 0x10C3 JUMP JUMPDEST PUSH1 0x40 MLOAD DUP1 SWAP2 SUB SWAP1 REVERT JUMPDEST PUSH1 0x0 DUP1 PUSH1 0x0 SWAP1 SLOAD SWAP1 PUSH2 0x100 EXP SWAP1 DIV PUSH20 0xFFFFFFFFFFFFFFFFFFFFFFFFFFFFFFFFFFFFFFFF AND SWAP1 POP CALLER PUSH1 0x0 DUP1 PUSH2 0x100 EXP DUP2 SLOAD DUP2 PUSH20 0xFFFFFFFFFFFFFFFFFFFFFFFFFFFFFFFFFFFFFFFF MUL NOT AND SWAP1 DUP4 PUSH20 0xFFFFFFFFFFFFFFFFFFFFFFFFFFFFFFFFFFFFFFFF AND MUL OR SWAP1 SSTORE POP PUSH1 0x0 PUSH1 0x1 PUSH1 0x0 PUSH2 0x100 EXP DUP2 SLOAD DUP2 PUSH20 0xFFFFFFFFFFFFFFFFFFFFFFFFFFFFFFFFFFFFFFFF MUL NOT AND SWAP1 DUP4 PUSH20 0xFFFFFFFFFFFFFFFFFFFFFFFFFFFFFFFFFFFFFFFF AND MUL OR SWAP1 SSTORE POP CALLER PUSH20 0xFFFFFFFFFFFFFFFFFFFFFFFFFFFFFFFFFFFFFFFF AND DUP2 PUSH20 0xFFFFFFFFFFFFFFFFFFFFFFFFFFFFFFFFFFFFFFFF AND PUSH32 0x8BE0079C531659141344CD1FD0A4F28419497F9722A3DAAFE3B4186F6B6457E0 PUSH1 0x40 MLOAD PUSH1 0x40 MLOAD DUP1 SWAP2 SUB SWAP1 LOG3 POP JUMP JUMPDEST PUSH1 0x4 DUP2 DUP2 SLOAD DUP2 LT PUSH2 0x4DE JUMPI PUSH1 0x0 DUP1 REVERT JUMPDEST SWAP1 PUSH1 0x0 MSTORE PUSH1 0x20 PUSH1 0x0 KECCAK256 ADD PUSH1 0x0 SWAP2 POP SWAP1 POP SLOAD DUP2 JUMP JUMPDEST PUSH1 0x0 DUP1 PUSH1 0x0 SWAP1 SLOAD SWAP1 PUSH2 0x100 EXP SWAP1 DIV PUSH20 0xFFFFFFFFFFFFFFFFFFFFFFFFFFFFFFFFFFFFFFFF AND SWAP1 POP SWAP1 JUMP JUMPDEST PUSH1 0x7 PUSH1 0xA SWAP1 SLOAD SWAP1 PUSH2 0x100 EXP SWAP1 DIV PUSH20 0xFFFFFFFFFFFFFFFFFFFFFFFFFFFFFFFFFFFFFFFF AND DUP2 JUMP JUMPDEST PUSH1 0x2 PUSH1 0x20 MSTORE DUP1 PUSH1 0x0 MSTORE PUSH1 0x40 PUSH1 0x0 KECCAK256 PUSH1 0x0 SWAP2 POP SWAP1 POP DUP1 PUSH1 0x0 ADD PUSH1 0x0 SWAP1 SLOAD SWAP1 PUSH2 0x100 EXP SWAP1 DIV PUSH1 0xFF AND SWAP1 DUP1 PUSH1 0x0 ADD PUSH1 0x1 SWAP1 SLOAD SWAP1 PUSH2 0x100 EXP SWAP1 DIV PUSH1 0xFF AND SWAP1 POP DUP3 JUMP JUMPDEST JUMP JUMPDEST PUSH1 0x0 PUSH1 0x60 PUSH1 0x2 PUSH1 0x0 DUP5 DUP2 MSTORE PUSH1 0x20 ADD SWAP1 DUP2 MSTORE PUSH1 0x20 ADD PUSH1 0x0 KECCAK256 PUSH1 0x0 ADD PUSH1 0x1 SWAP1 SLOAD SWAP1 PUSH2 0x100 EXP SWAP1 DIV PUSH1 0xFF AND PUSH2 0x5E8 JUMPI PUSH1 0x40 MLOAD PUSH32 0x8C379A000000000000000000000000000000000000000000000000000000000 DUP2 MSTORE PUSH1 0x4 ADD PUSH2 0x5DF SWAP1 PUSH2 0x10A3 JUMP JUMPDEST PUSH1 0x40 MLOAD DUP1 SWAP2 SUB SWAP1 REVERT JUMPDEST PUSH1 0x0 PUSH1 0x2 PUSH1 0x0 DUP6 DUP2 MSTORE PUSH1 0x20 ADD SWAP1 DUP2 MSTORE PUSH1 0x20 ADD PUSH1 0x0 KECCAK256 PUSH1 0x40 MLOAD DUP1 PUSH1 0x60 ADD PUSH1 0x40 MSTORE SWAP1 DUP2 PUSH1 0x0 DUP3 ADD PUSH1 0x0 SWAP1 SLOAD SWAP1 PUSH2 0x100 EXP SWAP1 DIV PUSH1 0xFF AND ISZERO ISZERO ISZERO ISZERO DUP2 MSTORE PUSH1 0x20 ADD PUSH1 0x0 DUP3 ADD PUSH1 0x1 SWAP1 SLOAD SWAP1 PUSH2 0x100 EXP SWAP1 DIV PUSH1 0xFF AND ISZERO ISZERO ISZERO ISZERO DUP2 MSTORE PUSH1 0x20 ADD PUSH1 0x1 DUP3 ADD DUP1 SLOAD DUP1 PUSH1 0x20 MUL PUSH1 0x20 ADD PUSH1 0x40 MLOAD SWAP1 DUP2 ADD PUSH1 0x40 MSTORE DUP1 SWAP3 SWAP2 SWAP1 DUP2 DUP2 MSTORE PUSH1 0x20 ADD DUP3 DUP1 SLOAD DUP1 ISZERO PUSH2 0x68D JUMPI PUSH1 0x20 MUL DUP3 ADD SWAP2 SWAP1 PUSH1 0x0 MSTORE PUSH1 0x20 PUSH1 0x0 KECCAK256 SWAP1 JUMPDEST DUP2 SLOAD DUP2 MSTORE PUSH1 0x20 ADD SWAP1 PUSH1 0x1 ADD SWAP1 DUP1 DUP4 GT PUSH2 0x679 JUMPI JUMPDEST POP POP POP POP POP DUP2 MSTORE POP POP SWAP1 POP DUP1 PUSH1 0x0 ADD MLOAD DUP2 PUSH1 0x40 ADD MLOAD SWAP3 POP SWAP3 POP POP SWAP2 POP SWAP2 JUMP JUMPDEST PUSH1 0x0 PUSH2 0x6B6 PUSH2 0xA28 JUMP JUMPDEST PUSH1 0x3 PUSH1 0x0 SWAP1 SLOAD SWAP1 PUSH2 0x100 EXP SWAP1 DIV PUSH20 0xFFFFFFFFFFFFFFFFFFFFFFFFFFFFFFFFFFFFFFFF AND PUSH20 0xFFFFFFFFFFFFFFFFFFFFFFFFFFFFFFFFFFFFFFFF AND PUSH4 0x5D3B1D30 PUSH1 0x6 SLOAD PUSH1 0x3 PUSH1 0x14 SWAP1 SLOAD SWAP1 PUSH2 0x100 EXP SWAP1 DIV PUSH8 0xFFFFFFFFFFFFFFFF AND PUSH1 0x7 PUSH1 0x4 SWAP1 SLOAD SWAP1 PUSH2 0x100 EXP SWAP1 DIV PUSH2 0xFFFF AND PUSH1 0x7 PUSH1 0x0 SWAP1 SLOAD SWAP1 PUSH2 0x100 EXP SWAP1 DIV PUSH4 0xFFFFFFFF AND PUSH1 0x7 PUSH1 0x6 SWAP1 SLOAD SWAP1 PUSH2 0x100 EXP SWAP1 DIV PUSH4 0xFFFFFFFF AND PUSH1 0x40 MLOAD DUP7 PUSH4 0xFFFFFFFF AND PUSH1 0xE0 SHL DUP2 MSTORE PUSH1 0x4 ADD PUSH2 0x765 SWAP6 SWAP5 SWAP4 SWAP3 SWAP2 SWAP1 PUSH2 0x1050 JUMP JUMPDEST PUSH1 0x20 PUSH1 0x40 MLOAD DUP1 DUP4 SUB DUP2 PUSH1 0x0 DUP8 DUP1 EXTCODESIZE ISZERO DUP1 ISZERO PUSH2 0x77F JUMPI PUSH1 0x0 DUP1 REVERT JUMPDEST POP GAS CALL ISZERO DUP1 ISZERO PUSH2 0x793 JUMPI RETURNDATASIZE PUSH1 0x0 DUP1 RETURNDATACOPY RETURNDATASIZE PUSH1 0x0 REVERT JUMPDEST POP POP POP POP PUSH1 0x40 MLOAD RETURNDATASIZE PUSH1 0x1F NOT PUSH1 0x1F DUP3 ADD AND DUP3 ADD DUP1 PUSH1 0x40 MSTORE POP DUP2 ADD SWAP1 PUSH2 0x7B7 SWAP2 SWAP1 PUSH2 0xD86 JUMP JUMPDEST SWAP1 POP PUSH1 0x40 MLOAD DUP1 PUSH1 0x60 ADD PUSH1 0x40 MSTORE DUP1 PUSH1 0x0 ISZERO ISZERO DUP2 MSTORE PUSH1 0x20 ADD PUSH1 0x1 ISZERO ISZERO DUP2 MSTORE PUSH1 0x20 ADD PUSH1 0x0 PUSH8 0xFFFFFFFFFFFFFFFF DUP2 GT ISZERO PUSH2 0x7F1 JUMPI PUSH2 0x7F0 PUSH2 0x12F9 JUMP JUMPDEST JUMPDEST PUSH1 0x40 MLOAD SWAP1 DUP1 DUP3 MSTORE DUP1 PUSH1 0x20 MUL PUSH1 0x20 ADD DUP3 ADD PUSH1 0x40 MSTORE DUP1 ISZERO PUSH2 0x81F JUMPI DUP2 PUSH1 0x20 ADD PUSH1 0x20 DUP3 MUL DUP1 CALLDATASIZE DUP4 CALLDATACOPY DUP1 DUP3 ADD SWAP2 POP POP SWAP1 POP JUMPDEST POP DUP2 MSTORE POP PUSH1 0x2 PUSH1 0x0 DUP4 DUP2 MSTORE PUSH1 0x20 ADD SWAP1 DUP2 MSTORE PUSH1 0x20 ADD PUSH1 0x0 KECCAK256 PUSH1 0x0 DUP3 ADD MLOAD DUP2 PUSH1 0x0 ADD PUSH1 0x0 PUSH2 0x100 EXP DUP2 SLOAD DUP2 PUSH1 0xFF MUL NOT AND SWAP1 DUP4 ISZERO ISZERO MUL OR SWAP1 SSTORE POP PUSH1 0x20 DUP3 ADD MLOAD DUP2 PUSH1 0x0 ADD PUSH1 0x1 PUSH2 0x100 EXP DUP2 SLOAD DUP2 PUSH1 0xFF MUL NOT AND SWAP1 DUP4 ISZERO ISZERO MUL OR SWAP1 SSTORE POP PUSH1 0x40 DUP3 ADD MLOAD DUP2 PUSH1 0x1 ADD SWAP1 DUP1 MLOAD SWAP1 PUSH1 0x20 ADD SWAP1 PUSH2 0x892 SWAP3 SWAP2 SWAP1 PUSH2 0xBE5 JUMP JUMPDEST POP SWAP1 POP POP PUSH1 0x4 DUP2 SWAP1 DUP1 PUSH1 0x1 DUP2 SLOAD ADD DUP1 DUP3 SSTORE DUP1 SWAP2 POP POP PUSH1 0x1 SWAP1 SUB SWAP1 PUSH1 0x0 MSTORE PUSH1 0x20 PUSH1 0x0 KECCAK256 ADD PUSH1 0x0 SWAP1 SWAP2 SWAP1 SWAP2 SWAP1 SWAP2 POP SSTORE DUP1 PUSH1 0x5 DUP2 SWAP1 SSTORE POP PUSH32 0xCC58B13AD3EAB50626C6A6300B1D139CD6EBB1688A7CCED9461C2F7E762665EE DUP2 PUSH1 0x7 PUSH1 0x6 SWAP1 SLOAD SWAP1 PUSH2 0x100 EXP SWAP1 DIV PUSH4 0xFFFFFFFF AND PUSH1 0x40 MLOAD PUSH2 0x909 SWAP3 SWAP2 SWAP1 PUSH2 0x116E JUMP JUMPDEST PUSH1 0x40 MLOAD DUP1 SWAP2 SUB SWAP1 LOG1 SWAP1 JUMP JUMPDEST PUSH2 0x91C PUSH2 0xA28 JUMP JUMPDEST PUSH2 0x925 DUP2 PUSH2 0xAB8 JUMP JUMPDEST POP JUMP JUMPDEST PUSH1 0x5 SLOAD DUP2 JUMP JUMPDEST PUSH1 0x2 PUSH1 0x0 DUP4 DUP2 MSTORE PUSH1 0x20 ADD SWAP1 DUP2 MSTORE PUSH1 0x20 ADD PUSH1 0x0 KECCAK256 PUSH1 0x0 ADD PUSH1 0x1 SWAP1 SLOAD SWAP1 PUSH2 0x100 EXP SWAP1 DIV PUSH1 0xFF AND PUSH2 0x991 JUMPI PUSH1 0x40 MLOAD PUSH32 0x8C379A000000000000000000000000000000000000000000000000000000000 DUP2 MSTORE PUSH1 0x4 ADD PUSH2 0x988 SWAP1 PUSH2 0x10A3 JUMP JUMPDEST PUSH1 0x40 MLOAD DUP1 SWAP2 SUB SWAP1 REVERT JUMPDEST PUSH1 0x1 PUSH1 0x2 PUSH1 0x0 DUP5 DUP2 MSTORE PUSH1 0x20 ADD SWAP1 DUP2 MSTORE PUSH1 0x20 ADD PUSH1 0x0 KECCAK256 PUSH1 0x0 ADD PUSH1 0x0 PUSH2 0x100 EXP DUP2 SLOAD DUP2 PUSH1 0xFF MUL NOT AND SWAP1 DUP4 ISZERO ISZERO MUL OR SWAP1 SSTORE POP DUP1 PUSH1 0x2 PUSH1 0x0 DUP5 DUP2 MSTORE PUSH1 0x20 ADD SWAP1 DUP2 MSTORE PUSH1 0x20 ADD PUSH1 0x0 KECCAK256 PUSH1 0x1 ADD SWAP1 DUP1 MLOAD SWAP1 PUSH1 0x20 ADD SWAP1 PUSH2 0x9EA SWAP3 SWAP2 SWAP1 PUSH2 0xBE5 JUMP JUMPDEST POP PUSH32 0xFE2E2D779DBA245964D4E3EF9B994BE63856FD568BF7D3CA9E224755CB1BD54D DUP3 DUP3 PUSH1 0x40 MLOAD PUSH2 0xA1C SWAP3 SWAP2 SWAP1 PUSH2 0x113E JUMP JUMPDEST PUSH1 0x40 MLOAD DUP1 SWAP2 SUB SWAP1 LOG1 POP POP JUMP JUMPDEST PUSH1 0x0 DUP1 SLOAD SWAP1 PUSH2 0x100 EXP SWAP1 DIV PUSH20 0xFFFFFFFFFFFFFFFFFFFFFFFFFFFFFFFFFFFFFFFF AND PUSH20 0xFFFFFFFFFFFFFFFFFFFFFFFFFFFFFFFFFFFFFFFF AND CALLER PUSH20 0xFFFFFFFFFFFFFFFFFFFFFFFFFFFFFFFFFFFFFFFF AND EQ PUSH2 0xAB6 JUMPI PUSH1 0x40 MLOAD PUSH32 0x8C379A000000000000000000000000000000000000000000000000000000000 DUP2 MSTORE PUSH1 0x4 ADD PUSH2 0xAAD SWAP1 PUSH2 0x10E3 JUMP JUMPDEST PUSH1 0x40 MLOAD DUP1 SWAP2 SUB SWAP1 REVERT JUMPDEST JUMP JUMPDEST CALLER PUSH20 0xFFFFFFFFFFFFFFFFFFFFFFFFFFFFFFFFFFFFFFFF AND DUP2 PUSH20 0xFFFFFFFFFFFFFFFFFFFFFFFFFFFFFFFFFFFFFFFF AND EQ ISZERO PUSH2 0xB27 JUMPI PUSH1 0x40 MLOAD PUSH32 0x8C379A000000000000000000000000000000000000000000000000000000000 DUP2 MSTORE PUSH1 0x4 ADD PUSH2 0xB1E SWAP1 PUSH2 0x1103 JUMP JUMPDEST PUSH1 0x40 MLOAD DUP1 SWAP2 SUB SWAP1 REVERT JUMPDEST DUP1 PUSH1 0x1 PUSH1 0x0 PUSH2 0x100 EXP DUP2 SLOAD DUP2 PUSH20 0xFFFFFFFFFFFFFFFFFFFFFFFFFFFFFFFFFFFFFFFF MUL NOT AND SWAP1 DUP4 PUSH20 0xFFFFFFFFFFFFFFFFFFFFFFFFFFFFFFFFFFFFFFFF AND MUL OR SWAP1 SSTORE POP DUP1 PUSH20 0xFFFFFFFFFFFFFFFFFFFFFFFFFFFFFFFFFFFFFFFF AND PUSH1 0x0 DUP1 SLOAD SWAP1 PUSH2 0x100 EXP SWAP1 DIV PUSH20 0xFFFFFFFFFFFFFFFFFFFFFFFFFFFFFFFFFFFFFFFF AND PUSH20 0xFFFFFFFFFFFFFFFFFFFFFFFFFFFFFFFFFFFFFFFF AND PUSH32 0xED8889F560326EB138920D842192F0EB3DD22B4F139C87A2C57538E05BAE1278 PUSH1 0x40 MLOAD PUSH1 0x40 MLOAD DUP1 SWAP2 SUB SWAP1 LOG3 POP JUMP JUMPDEST DUP3 DUP1 SLOAD DUP3 DUP3 SSTORE SWAP1 PUSH1 0x0 MSTORE PUSH1 0x20 PUSH1 0x0 KECCAK256 SWAP1 DUP2 ADD SWAP3 DUP3 ISZERO PUSH2 0xC21 JUMPI SWAP2 PUSH1 0x20 MUL DUP3 ADD JUMPDEST DUP3 DUP2 GT ISZERO PUSH2 0xC20 JUMPI DUP3 MLOAD DUP3 SSTORE SWAP2 PUSH1 0x20 ADD SWAP2 SWAP1 PUSH1 0x1 ADD SWAP1 PUSH2 0xC05 JUMP JUMPDEST JUMPDEST POP SWAP1 POP PUSH2 0xC2E SWAP2 SWAP1 PUSH2 0xC32 JUMP JUMPDEST POP SWAP1 JUMP JUMPDEST JUMPDEST DUP1 DUP3 GT ISZERO PUSH2 0xC4B JUMPI PUSH1 0x0 DUP2 PUSH1 0x0 SWAP1 SSTORE POP PUSH1 0x1 ADD PUSH2 0xC33 JUMP JUMPDEST POP SWAP1 JUMP JUMPDEST PUSH1 0x0 PUSH2 0xC62 PUSH2 0xC5D DUP5 PUSH2 0x11BC JUMP JUMPDEST PUSH2 0x1197 JUMP JUMPDEST SWAP1 POP DUP1 DUP4 DUP3 MSTORE PUSH1 0x20 DUP3 ADD SWAP1 POP DUP3 DUP6 PUSH1 0x20 DUP7 MUL DUP3 ADD GT ISZERO PUSH2 0xC85 JUMPI PUSH2 0xC84 PUSH2 0x132D JUMP JUMPDEST JUMPDEST PUSH1 0x0 JUMPDEST DUP6 DUP2 LT ISZERO PUSH2 0xCB5 JUMPI DUP2 PUSH2 0xC9B DUP9 DUP3 PUSH2 0xD02 JUMP JUMPDEST DUP5 MSTORE PUSH1 0x20 DUP5 ADD SWAP4 POP PUSH1 0x20 DUP4 ADD SWAP3 POP POP PUSH1 0x1 DUP2 ADD SWAP1 POP PUSH2 0xC88 JUMP JUMPDEST POP POP POP SWAP4 SWAP3 POP POP POP JUMP JUMPDEST PUSH1 0x0 DUP2 CALLDATALOAD SWAP1 POP PUSH2 0xCCE DUP2 PUSH2 0x13F1 JUMP JUMPDEST SWAP3 SWAP2 POP POP JUMP JUMPDEST PUSH1 0x0 DUP3 PUSH1 0x1F DUP4 ADD SLT PUSH2 0xCE9 JUMPI PUSH2 0xCE8 PUSH2 0x1328 JUMP JUMPDEST JUMPDEST DUP2 CALLDATALOAD PUSH2 0xCF9 DUP5 DUP3 PUSH1 0x20 DUP7 ADD PUSH2 0xC4F JUMP JUMPDEST SWAP2 POP POP SWAP3 SWAP2 POP POP JUMP JUMPDEST PUSH1 0x0 DUP2 CALLDATALOAD SWAP1 POP PUSH2 0xD11 DUP2 PUSH2 0x1408 JUMP JUMPDEST SWAP3 SWAP2 POP POP JUMP JUMPDEST PUSH1 0x0 DUP2 MLOAD SWAP1 POP PUSH2 0xD26 DUP2 PUSH2 0x1408 JUMP JUMPDEST SWAP3 SWAP2 POP POP JUMP JUMPDEST PUSH1 0x0 PUSH1 0x20 DUP3 DUP5 SUB SLT ISZERO PUSH2 0xD42 JUMPI PUSH2 0xD41 PUSH2 0x1337 JUMP JUMPDEST JUMPDEST PUSH1 0x0 PUSH2 0xD50 DUP5 DUP3 DUP6 ADD PUSH2 0xCBF JUMP JUMPDEST SWAP2 POP POP SWAP3 SWAP2 POP POP JUMP JUMPDEST PUSH1 0x0 PUSH1 0x20 DUP3 DUP5 SUB SLT ISZERO PUSH2 0xD6F JUMPI PUSH2 0xD6E PUSH2 0x1337 JUMP JUMPDEST JUMPDEST PUSH1 0x0 PUSH2 0xD7D DUP5 DUP3 DUP6 ADD PUSH2 0xD02 JUMP JUMPDEST SWAP2 POP POP SWAP3 SWAP2 POP POP JUMP JUMPDEST PUSH1 0x0 PUSH1 0x20 DUP3 DUP5 SUB SLT ISZERO PUSH2 0xD9C JUMPI PUSH2 0xD9B PUSH2 0x1337 JUMP JUMPDEST JUMPDEST PUSH1 0x0 PUSH2 0xDAA DUP5 DUP3 DUP6 ADD PUSH2 0xD17 JUMP JUMPDEST SWAP2 POP POP SWAP3 SWAP2 POP POP JUMP JUMPDEST PUSH1 0x0 DUP1 PUSH1 0x40 DUP4 DUP6 SUB SLT ISZERO PUSH2 0xDCA JUMPI PUSH2 0xDC9 PUSH2 0x1337 JUMP JUMPDEST JUMPDEST PUSH1 0x0 PUSH2 0xDD8 DUP6 DUP3 DUP7 ADD PUSH2 0xD02 JUMP JUMPDEST SWAP3 POP POP PUSH1 0x20 DUP4 ADD CALLDATALOAD PUSH8 0xFFFFFFFFFFFFFFFF DUP2 GT ISZERO PUSH2 0xDF9 JUMPI PUSH2 0xDF8 PUSH2 0x1332 JUMP JUMPDEST JUMPDEST PUSH2 0xE05 DUP6 DUP3 DUP7 ADD PUSH2 0xCD4 JUMP JUMPDEST SWAP2 POP POP SWAP3 POP SWAP3 SWAP1 POP JUMP JUMPDEST PUSH1 0x0 PUSH2 0xE1B DUP4 DUP4 PUSH2 0xF5C JUMP JUMPDEST PUSH1 0x20 DUP4 ADD SWAP1 POP SWAP3 SWAP2 POP POP JUMP JUMPDEST PUSH2 0xE30 DUP2 PUSH2 0x1244 JUMP JUMPDEST DUP3 MSTORE POP POP JUMP JUMPDEST PUSH2 0xE3F DUP2 PUSH2 0x1232 JUMP JUMPDEST DUP3 MSTORE POP POP JUMP JUMPDEST PUSH1 0x0 PUSH2 0xE50 DUP3 PUSH2 0x11F8 JUMP JUMPDEST PUSH2 0xE5A DUP2 DUP6 PUSH2 0x1210 JUMP JUMPDEST SWAP4 POP PUSH2 0xE65 DUP4 PUSH2 0x11E8 JUMP JUMPDEST DUP1 PUSH1 0x0 JUMPDEST DUP4 DUP2 LT ISZERO PUSH2 0xE96 JUMPI DUP2 MLOAD PUSH2 0xE7D DUP9 DUP3 PUSH2 0xE0F JUMP JUMPDEST SWAP8 POP PUSH2 0xE88 DUP4 PUSH2 0x1203 JUMP JUMPDEST SWAP3 POP POP PUSH1 0x1 DUP2 ADD SWAP1 POP PUSH2 0xE69 JUMP JUMPDEST POP DUP6 SWAP4 POP POP POP POP SWAP3 SWAP2 POP POP JUMP JUMPDEST PUSH2 0xEAC DUP2 PUSH2 0x1256 JUMP JUMPDEST DUP3 MSTORE POP POP JUMP JUMPDEST PUSH2 0xEBB DUP2 PUSH2 0x1262 JUMP JUMPDEST DUP3 MSTORE POP POP JUMP JUMPDEST PUSH1 0x0 PUSH2 0xECE PUSH1 0x11 DUP4 PUSH2 0x1221 JUMP JUMPDEST SWAP2 POP PUSH2 0xED9 DUP3 PUSH2 0x134D JUMP JUMPDEST PUSH1 0x20 DUP3 ADD SWAP1 POP SWAP2 SWAP1 POP JUMP JUMPDEST PUSH1 0x0 PUSH2 0xEF1 PUSH1 0x16 DUP4 PUSH2 0x1221 JUMP JUMPDEST SWAP2 POP PUSH2 0xEFC DUP3 PUSH2 0x1376 JUMP JUMPDEST PUSH1 0x20 DUP3 ADD SWAP1 POP SWAP2 SWAP1 POP JUMP JUMPDEST PUSH1 0x0 PUSH2 0xF14 PUSH1 0x16 DUP4 PUSH2 0x1221 JUMP JUMPDEST SWAP2 POP PUSH2 0xF1F DUP3 PUSH2 0x139F JUMP JUMPDEST PUSH1 0x20 DUP3 ADD SWAP1 POP SWAP2 SWAP1 POP JUMP JUMPDEST PUSH1 0x0 PUSH2 0xF37 PUSH1 0x17 DUP4 PUSH2 0x1221 JUMP JUMPDEST SWAP2 POP PUSH2 0xF42 DUP3 PUSH2 0x13C8 JUMP JUMPDEST PUSH1 0x20 DUP3 ADD SWAP1 POP SWAP2 SWAP1 POP JUMP JUMPDEST PUSH2 0xF56 DUP2 PUSH2 0x126C JUMP JUMPDEST DUP3 MSTORE POP POP JUMP JUMPDEST PUSH2 0xF65 DUP2 PUSH2 0x129A JUMP JUMPDEST DUP3 MSTORE POP POP JUMP JUMPDEST PUSH2 0xF74 DUP2 PUSH2 0x129A JUMP JUMPDEST DUP3 MSTORE POP POP JUMP JUMPDEST PUSH2 0xF83 DUP2 PUSH2 0x12A4 JUMP JUMPDEST DUP3 MSTORE POP POP JUMP JUMPDEST PUSH2 0xF92 DUP2 PUSH2 0x12B4 JUMP JUMPDEST DUP3 MSTORE POP POP JUMP JUMPDEST PUSH1 0x0 PUSH1 0x20 DUP3 ADD SWAP1 POP PUSH2 0xFAD PUSH1 0x0 DUP4 ADD DUP5 PUSH2 0xE36 JUMP JUMPDEST SWAP3 SWAP2 POP POP JUMP JUMPDEST PUSH1 0x0 PUSH1 0x20 DUP3 ADD SWAP1 POP PUSH2 0xFC8 PUSH1 0x0 DUP4 ADD DUP5 PUSH2 0xE27 JUMP JUMPDEST SWAP3 SWAP2 POP POP JUMP JUMPDEST PUSH1 0x0 PUSH1 0x40 DUP3 ADD SWAP1 POP PUSH2 0xFE3 PUSH1 0x0 DUP4 ADD DUP6 PUSH2 0xE36 JUMP JUMPDEST PUSH2 0xFF0 PUSH1 0x20 DUP4 ADD DUP5 PUSH2 0xE36 JUMP JUMPDEST SWAP4 SWAP3 POP POP POP JUMP JUMPDEST PUSH1 0x0 PUSH1 0x40 DUP3 ADD SWAP1 POP PUSH2 0x100C PUSH1 0x0 DUP4 ADD DUP6 PUSH2 0xEA3 JUMP JUMPDEST DUP2 DUP2 SUB PUSH1 0x20 DUP4 ADD MSTORE PUSH2 0x101E DUP2 DUP5 PUSH2 0xE45 JUMP JUMPDEST SWAP1 POP SWAP4 SWAP3 POP POP POP JUMP JUMPDEST PUSH1 0x0 PUSH1 0x40 DUP3 ADD SWAP1 POP PUSH2 0x103C PUSH1 0x0 DUP4 ADD DUP6 PUSH2 0xEA3 JUMP JUMPDEST PUSH2 0x1049 PUSH1 0x20 DUP4 ADD DUP5 PUSH2 0xEA3 JUMP JUMPDEST SWAP4 SWAP3 POP POP POP JUMP JUMPDEST PUSH1 0x0 PUSH1 0xA0 DUP3 ADD SWAP1 POP PUSH2 0x1065 PUSH1 0x0 DUP4 ADD DUP9 PUSH2 0xEB2 JUMP JUMPDEST PUSH2 0x1072 PUSH1 0x20 DUP4 ADD DUP8 PUSH2 0xF89 JUMP JUMPDEST PUSH2 0x107F PUSH1 0x40 DUP4 ADD DUP7 PUSH2 0xF4D JUMP JUMPDEST PUSH2 0x108C PUSH1 0x60 DUP4 ADD DUP6 PUSH2 0xF7A JUMP JUMPDEST PUSH2 0x1099 PUSH1 0x80 DUP4 ADD DUP5 PUSH2 0xF7A JUMP JUMPDEST SWAP7 SWAP6 POP POP POP POP POP POP JUMP JUMPDEST PUSH1 0x0 PUSH1 0x20 DUP3 ADD SWAP1 POP DUP2 DUP2 SUB PUSH1 0x0 DUP4 ADD MSTORE PUSH2 0x10BC DUP2 PUSH2 0xEC1 JUMP JUMPDEST SWAP1 POP SWAP2 SWAP1 POP JUMP JUMPDEST PUSH1 0x0 PUSH1 0x20 DUP3 ADD SWAP1 POP DUP2 DUP2 SUB PUSH1 0x0 DUP4 ADD MSTORE PUSH2 0x10DC DUP2 PUSH2 0xEE4 JUMP JUMPDEST SWAP1 POP SWAP2 SWAP1 POP JUMP JUMPDEST PUSH1 0x0 PUSH1 0x20 DUP3 ADD SWAP1 POP DUP2 DUP2 SUB PUSH1 0x0 DUP4 ADD MSTORE PUSH2 0x10FC DUP2 PUSH2 0xF07 JUMP JUMPDEST SWAP1 POP SWAP2 SWAP1 POP JUMP JUMPDEST PUSH1 0x0 PUSH1 0x20 DUP3 ADD SWAP1 POP DUP2 DUP2 SUB PUSH1 0x0 DUP4 ADD MSTORE PUSH2 0x111C DUP2 PUSH2 0xF2A JUMP JUMPDEST SWAP1 POP SWAP2 SWAP1 POP JUMP JUMPDEST PUSH1 0x0 PUSH1 0x20 DUP3 ADD SWAP1 POP PUSH2 0x1138 PUSH1 0x0 DUP4 ADD DUP5 PUSH2 0xF6B JUMP JUMPDEST SWAP3 SWAP2 POP POP JUMP JUMPDEST PUSH1 0x0 PUSH1 0x40 DUP3 ADD SWAP1 POP PUSH2 0x1153 PUSH1 0x0 DUP4 ADD DUP6 PUSH2 0xF6B JUMP JUMPDEST DUP2 DUP2 SUB PUSH1 0x20 DUP4 ADD MSTORE PUSH2 0x1165 DUP2 DUP5 PUSH2 0xE45 JUMP JUMPDEST SWAP1 POP SWAP4 SWAP3 POP POP POP JUMP JUMPDEST PUSH1 0x0 PUSH1 0x40 DUP3 ADD SWAP1 POP PUSH2 0x1183 PUSH1 0x0 DUP4 ADD DUP6 PUSH2 0xF6B JUMP JUMPDEST PUSH2 0x1190 PUSH1 0x20 DUP4 ADD DUP5 PUSH2 0xF7A JUMP JUMPDEST SWAP4 SWAP3 POP POP POP JUMP JUMPDEST PUSH1 0x0 PUSH2 0x11A1 PUSH2 0x11B2 JUMP JUMPDEST SWAP1 POP PUSH2 0x11AD DUP3 DUP3 PUSH2 0x12C8 JUMP JUMPDEST SWAP2 SWAP1 POP JUMP JUMPDEST PUSH1 0x0 PUSH1 0x40 MLOAD SWAP1 POP SWAP1 JUMP JUMPDEST PUSH1 0x0 PUSH8 0xFFFFFFFFFFFFFFFF DUP3 GT ISZERO PUSH2 0x11D7 JUMPI PUSH2 0x11D6 PUSH2 0x12F9 JUMP JUMPDEST JUMPDEST PUSH1 0x20 DUP3 MUL SWAP1 POP PUSH1 0x20 DUP2 ADD SWAP1 POP SWAP2 SWAP1 POP JUMP JUMPDEST PUSH1 0x0 DUP2 SWAP1 POP PUSH1 0x20 DUP3 ADD SWAP1 POP SWAP2 SWAP1 POP JUMP JUMPDEST PUSH1 0x0 DUP2 MLOAD SWAP1 POP SWAP2 SWAP1 POP JUMP JUMPDEST PUSH1 0x0 PUSH1 0x20 DUP3 ADD SWAP1 POP SWAP2 SWAP1 POP JUMP JUMPDEST PUSH1 0x0 DUP3 DUP3 MSTORE PUSH1 0x20 DUP3 ADD SWAP1 POP SWAP3 SWAP2 POP POP JUMP JUMPDEST PUSH1 0x0 DUP3 DUP3 MSTORE PUSH1 0x20 DUP3 ADD SWAP1 POP SWAP3 SWAP2 POP POP JUMP JUMPDEST PUSH1 0x0 PUSH2 0x123D DUP3 PUSH2 0x127A JUMP JUMPDEST SWAP1 POP SWAP2 SWAP1 POP JUMP JUMPDEST PUSH1 0x0 PUSH2 0x124F DUP3 PUSH2 0x127A JUMP JUMPDEST SWAP1 POP SWAP2 SWAP1 POP JUMP JUMPDEST PUSH1 0x0 DUP2 ISZERO ISZERO SWAP1 POP SWAP2 SWAP1 POP JUMP JUMPDEST PUSH1 0x0 DUP2 SWAP1 POP SWAP2 SWAP1 POP JUMP JUMPDEST PUSH1 0x0 PUSH2 0xFFFF DUP3 AND SWAP1 POP SWAP2 SWAP1 POP JUMP JUMPDEST PUSH1 0x0 PUSH20 0xFFFFFFFFFFFFFFFFFFFFFFFFFFFFFFFFFFFFFFFF DUP3 AND SWAP1 POP SWAP2 SWAP1 POP JUMP JUMPDEST PUSH1 0x0 DUP2 SWAP1 POP SWAP2 SWAP1 POP JUMP JUMPDEST PUSH1 0x0 PUSH4 0xFFFFFFFF DUP3 AND SWAP1 POP SWAP2 SWAP1 POP JUMP JUMPDEST PUSH1 0x0 PUSH8 0xFFFFFFFFFFFFFFFF DUP3 AND SWAP1 POP SWAP2 SWAP1 POP JUMP JUMPDEST PUSH2 0x12D1 DUP3 PUSH2 0x133C JUMP JUMPDEST DUP2 ADD DUP2 DUP2 LT PUSH8 0xFFFFFFFFFFFFFFFF DUP3 GT OR ISZERO PUSH2 0x12F0 JUMPI PUSH2 0x12EF PUSH2 0x12F9 JUMP JUMPDEST JUMPDEST DUP1 PUSH1 0x40 MSTORE POP POP POP JUMP JUMPDEST PUSH32 0x4E487B7100000000000000000000000000000000000000000000000000000000 PUSH1 0x0 MSTORE PUSH1 0x41 PUSH1 0x4 MSTORE PUSH1 0x24 PUSH1 0x0 REVERT JUMPDEST PUSH1 0x0 DUP1 REVERT JUMPDEST PUSH1 0x0 DUP1 REVERT JUMPDEST PUSH1 0x0 DUP1 REVERT JUMPDEST PUSH1 0x0 DUP1 REVERT JUMPDEST PUSH1 0x0 PUSH1 0x1F NOT PUSH1 0x1F DUP4 ADD AND SWAP1 POP SWAP2 SWAP1 POP JUMP JUMPDEST PUSH32 0x72657175657374206E6F7420666F756E64000000000000000000000000000000 PUSH1 0x0 DUP3 ADD MSTORE POP JUMP JUMPDEST PUSH32 0x4D7573742062652070726F706F736564206F776E657200000000000000000000 PUSH1 0x0 DUP3 ADD MSTORE POP JUMP JUMPDEST PUSH32 0x4F6E6C792063616C6C61626C65206279206F776E657200000000000000000000 PUSH1 0x0 DUP3 ADD MSTORE POP JUMP JUMPDEST PUSH32 0x43616E6E6F74207472616E7366657220746F2073656C66000000000000000000 PUSH1 0x0 DUP3 ADD MSTORE POP JUMP JUMPDEST PUSH2 0x13FA DUP2 PUSH2 0x1232 JUMP JUMPDEST DUP2 EQ PUSH2 0x1405 JUMPI PUSH1 0x0 DUP1 REVERT JUMPDEST POP JUMP JUMPDEST PUSH2 0x1411 DUP2 PUSH2 0x129A JUMP JUMPDEST DUP2 EQ PUSH2 0x141C JUMPI PUSH1 0x0 DUP1 REVERT JUMPDEST POP JUMP INVALID LOG2 PUSH5 0x6970667358 0x22 SLT KECCAK256 PUSH17 0x16B02758F3D9762B60873C515671C06988 0xD5 0x2B PUSH23 0x393105087B8304D1A3E3D364736F6C6343000807003300 "
				},
				"gasEstimates": {
					"creation": {
						"codeDepositCost": "1041000",
						"executionCost": "infinite",
						"totalCost": "infinite"
					},
					"external": {
						"acceptOwnership()": "54563",
						"addBalance()": "142",
						"casino()": "2653",
						"getRequestStatus(uint256)": "infinite",
						"lastRequestId()": "2539",
						"owner()": "2589",
						"rawFulfillRandomWords(uint256,uint256[])": "infinite",
						"requestIds(uint256)": "infinite",
						"requestRandomWords()": "infinite",
						"s_requests(uint256)": "infinite",
						"transferOwnership(address)": "30745"
					},
					"internal": {
						"fulfillRandomWords(uint256,uint256[] memory)": "infinite"
					}
				},
				"methodIdentifiers": {
					"acceptOwnership()": "79ba5097",
					"addBalance()": "b163cc38",
					"casino()": "9403e8dd",
					"getRequestStatus(uint256)": "d8a4676f",
					"lastRequestId()": "fc2a88c3",
					"owner()": "8da5cb5b",
					"rawFulfillRandomWords(uint256,uint256[])": "1fe543e3",
					"requestIds(uint256)": "8796ba8c",
					"requestRandomWords()": "e0c86289",
					"s_requests(uint256)": "a168fa89",
					"transferOwnership(address)": "f2fde38b"
				}
			},
			"storageLayout": {
				"storage": [
					{
						"astId": 27,
						"contract": "docs.chain.link/samples/VRF/VRFv2Consumer.sol:VRFv2Consumer",
						"label": "s_owner",
						"offset": 0,
						"slot": "0",
						"type": "t_address"
					},
					{
						"astId": 29,
						"contract": "docs.chain.link/samples/VRF/VRFv2Consumer.sol:VRFv2Consumer",
						"label": "s_pendingOwner",
						"offset": 0,
						"slot": "1",
						"type": "t_address"
					},
					{
						"astId": 387,
						"contract": "docs.chain.link/samples/VRF/VRFv2Consumer.sol:VRFv2Consumer",
						"label": "s_requests",
						"offset": 0,
						"slot": "2",
						"type": "t_mapping(t_uint256,t_struct(RequestStatus)382_storage)"
					},
					{
						"astId": 390,
						"contract": "docs.chain.link/samples/VRF/VRFv2Consumer.sol:VRFv2Consumer",
						"label": "COORDINATOR",
						"offset": 0,
						"slot": "3",
						"type": "t_contract(VRFCoordinatorV2Interface)351"
					},
					{
						"astId": 392,
						"contract": "docs.chain.link/samples/VRF/VRFv2Consumer.sol:VRFv2Consumer",
						"label": "s_subscriptionId",
						"offset": 20,
						"slot": "3",
						"type": "t_uint64"
					},
					{
						"astId": 395,
						"contract": "docs.chain.link/samples/VRF/VRFv2Consumer.sol:VRFv2Consumer",
						"label": "requestIds",
						"offset": 0,
						"slot": "4",
						"type": "t_array(t_uint256)dyn_storage"
					},
					{
						"astId": 397,
						"contract": "docs.chain.link/samples/VRF/VRFv2Consumer.sol:VRFv2Consumer",
						"label": "lastRequestId",
						"offset": 0,
						"slot": "5",
						"type": "t_uint256"
					},
					{
						"astId": 400,
						"contract": "docs.chain.link/samples/VRF/VRFv2Consumer.sol:VRFv2Consumer",
						"label": "keyHash",
						"offset": 0,
						"slot": "6",
						"type": "t_bytes32"
					},
					{
						"astId": 403,
						"contract": "docs.chain.link/samples/VRF/VRFv2Consumer.sol:VRFv2Consumer",
						"label": "callbackGasLimit",
						"offset": 0,
						"slot": "7",
						"type": "t_uint32"
					},
					{
						"astId": 406,
						"contract": "docs.chain.link/samples/VRF/VRFv2Consumer.sol:VRFv2Consumer",
						"label": "requestConfirmations",
						"offset": 4,
						"slot": "7",
						"type": "t_uint16"
					},
					{
						"astId": 409,
						"contract": "docs.chain.link/samples/VRF/VRFv2Consumer.sol:VRFv2Consumer",
						"label": "numWords",
						"offset": 6,
						"slot": "7",
						"type": "t_uint32"
					},
					{
						"astId": 411,
						"contract": "docs.chain.link/samples/VRF/VRFv2Consumer.sol:VRFv2Consumer",
						"label": "casino",
						"offset": 10,
						"slot": "7",
						"type": "t_address_payable"
					}
				],
				"types": {
					"t_address": {
						"encoding": "inplace",
						"label": "address",
						"numberOfBytes": "20"
					},
					"t_address_payable": {
						"encoding": "inplace",
						"label": "address payable",
						"numberOfBytes": "20"
					},
					"t_array(t_uint256)dyn_storage": {
						"base": "t_uint256",
						"encoding": "dynamic_array",
						"label": "uint256[]",
						"numberOfBytes": "32"
					},
					"t_bool": {
						"encoding": "inplace",
						"label": "bool",
						"numberOfBytes": "1"
					},
					"t_bytes32": {
						"encoding": "inplace",
						"label": "bytes32",
						"numberOfBytes": "32"
					},
					"t_contract(VRFCoordinatorV2Interface)351": {
						"encoding": "inplace",
						"label": "contract VRFCoordinatorV2Interface",
						"numberOfBytes": "20"
					},
					"t_mapping(t_uint256,t_struct(RequestStatus)382_storage)": {
						"encoding": "mapping",
						"key": "t_uint256",
						"label": "mapping(uint256 => struct VRFv2Consumer.RequestStatus)",
						"numberOfBytes": "32",
						"value": "t_struct(RequestStatus)382_storage"
					},
					"t_struct(RequestStatus)382_storage": {
						"encoding": "inplace",
						"label": "struct VRFv2Consumer.RequestStatus",
						"members": [
							{
								"astId": 376,
								"contract": "docs.chain.link/samples/VRF/VRFv2Consumer.sol:VRFv2Consumer",
								"label": "fulfilled",
								"offset": 0,
								"slot": "0",
								"type": "t_bool"
							},
							{
								"astId": 378,
								"contract": "docs.chain.link/samples/VRF/VRFv2Consumer.sol:VRFv2Consumer",
								"label": "exists",
								"offset": 1,
								"slot": "0",
								"type": "t_bool"
							},
							{
								"astId": 381,
								"contract": "docs.chain.link/samples/VRF/VRFv2Consumer.sol:VRFv2Consumer",
								"label": "randomWords",
								"offset": 0,
								"slot": "1",
								"type": "t_array(t_uint256)dyn_storage"
							}
						],
						"numberOfBytes": "64"
					},
					"t_uint16": {
						"encoding": "inplace",
						"label": "uint16",
						"numberOfBytes": "2"
					},
					"t_uint256": {
						"encoding": "inplace",
						"label": "uint256",
						"numberOfBytes": "32"
					},
					"t_uint32": {
						"encoding": "inplace",
						"label": "uint32",
						"numberOfBytes": "4"
					},
					"t_uint64": {
						"encoding": "inplace",
						"label": "uint64",
						"numberOfBytes": "8"
					}
				}
			},
			"userdoc": {
				"kind": "user",
				"methods": {
					"acceptOwnership()": {
						"notice": "Allows an ownership transfer to be completed by the recipient."
					},
					"constructor": {
						"notice": "HARDCODED FOR GOERLI COORDINATOR: 0x2Ca8E0C643bDe4C2E08ab1fA0da3401AdAD7734D"
					},
					"owner()": {
						"notice": "Get the current owner"
					},
					"transferOwnership(address)": {
						"notice": "Allows an owner to begin transferring ownership to a new address, pending."
					}
				},
				"notice": "THIS IS AN EXAMPLE CONTRACT THAT USES HARDCODED VALUES FOR CLARITY. THIS IS AN EXAMPLE CONTRACT THAT USES UN-AUDITED CODE. DO NOT USE THIS CODE IN PRODUCTION.",
				"version": 1
			}
		}
	}
}