{
	"docs.chain.link/samples/VRF/VRFv2DirectFundingConsumer.sol": {
		"VRFv2DirectFundingConsumer": {
			"abi": [
				{
					"inputs": [],
					"stateMutability": "nonpayable",
					"type": "constructor"
				},
				{
					"anonymous": false,
					"inputs": [
						{
							"indexed": true,
							"internalType": "address",
							"name": "from",
							"type": "address"
						},
						{
							"indexed": true,
							"internalType": "address",
							"name": "to",
							"type": "address"
						}
					],
					"name": "OwnershipTransferRequested",
					"type": "event"
				},
				{
					"anonymous": false,
					"inputs": [
						{
							"indexed": true,
							"internalType": "address",
							"name": "from",
							"type": "address"
						},
						{
							"indexed": true,
							"internalType": "address",
							"name": "to",
							"type": "address"
						}
					],
					"name": "OwnershipTransferred",
					"type": "event"
				},
				{
					"anonymous": false,
					"inputs": [
						{
							"indexed": false,
							"internalType": "uint256",
							"name": "requestId",
							"type": "uint256"
						},
						{
							"indexed": false,
							"internalType": "uint256[]",
							"name": "randomWords",
							"type": "uint256[]"
						},
						{
							"indexed": false,
							"internalType": "uint256",
							"name": "payment",
							"type": "uint256"
						}
					],
					"name": "RequestFulfilled",
					"type": "event"
				},
				{
					"anonymous": false,
					"inputs": [
						{
							"indexed": false,
							"internalType": "uint256",
							"name": "requestId",
							"type": "uint256"
						},
						{
							"indexed": false,
							"internalType": "uint32",
							"name": "numWords",
							"type": "uint32"
						}
					],
					"name": "RequestSent",
					"type": "event"
				},
				{
					"inputs": [],
					"name": "acceptOwnership",
					"outputs": [],
					"stateMutability": "nonpayable",
					"type": "function"
				},
				{
					"inputs": [],
					"name": "betResult",
					"outputs": [
						{
							"internalType": "uint256",
							"name": "",
							"type": "uint256"
						}
					],
					"stateMutability": "view",
					"type": "function"
				},
				{
					"inputs": [
						{
							"internalType": "uint256",
							"name": "_requestId",
							"type": "uint256"
						}
					],
					"name": "getRequestStatus",
					"outputs": [
						{
							"internalType": "uint256",
							"name": "paid",
							"type": "uint256"
						},
						{
							"internalType": "bool",
							"name": "fulfilled",
							"type": "bool"
						},
						{
							"internalType": "uint256[]",
							"name": "randomWords",
							"type": "uint256[]"
						}
					],
					"stateMutability": "view",
					"type": "function"
				},
				{
					"inputs": [],
					"name": "lastRequestId",
					"outputs": [
						{
							"internalType": "uint256",
							"name": "",
							"type": "uint256"
						}
					],
					"stateMutability": "view",
					"type": "function"
				},
				{
					"inputs": [],
					"name": "maxBet",
					"outputs": [
						{
							"internalType": "uint256",
							"name": "",
							"type": "uint256"
						}
					],
					"stateMutability": "view",
					"type": "function"
				},
				{
					"inputs": [],
					"name": "owner",
					"outputs": [
						{
							"internalType": "address",
							"name": "",
							"type": "address"
						}
					],
					"stateMutability": "view",
					"type": "function"
				},
				{
					"inputs": [
						{
							"internalType": "uint256",
							"name": "betNumber",
							"type": "uint256"
						}
					],
					"name": "playGame",
					"outputs": [],
					"stateMutability": "payable",
					"type": "function"
				},
				{
					"inputs": [
						{
							"internalType": "uint256",
							"name": "_requestId",
							"type": "uint256"
						},
						{
							"internalType": "uint256[]",
							"name": "_randomWords",
							"type": "uint256[]"
						}
					],
					"name": "rawFulfillRandomWords",
					"outputs": [],
					"stateMutability": "nonpayable",
					"type": "function"
				},
				{
					"inputs": [
						{
							"internalType": "uint256",
							"name": "",
							"type": "uint256"
						}
					],
					"name": "records",
					"outputs": [
						{
							"internalType": "address payable",
							"name": "playerAddress",
							"type": "address"
						},
						{
							"internalType": "uint256",
							"name": "betNumber",
							"type": "uint256"
						},
						{
							"internalType": "uint256",
							"name": "betAmount",
							"type": "uint256"
						}
					],
					"stateMutability": "view",
					"type": "function"
				},
				{
					"inputs": [
						{
							"internalType": "uint256",
							"name": "",
							"type": "uint256"
						}
					],
					"name": "requestIds",
					"outputs": [
						{
							"internalType": "uint256",
							"name": "",
							"type": "uint256"
						}
					],
					"stateMutability": "view",
					"type": "function"
				},
				{
					"inputs": [
						{
							"internalType": "uint256",
							"name": "",
							"type": "uint256"
						}
					],
					"name": "s_requests",
					"outputs": [
						{
							"internalType": "uint256",
							"name": "paid",
							"type": "uint256"
						},
						{
							"internalType": "bool",
							"name": "fulfilled",
							"type": "bool"
						}
					],
					"stateMutability": "view",
					"type": "function"
				},
				{
					"inputs": [
						{
							"internalType": "address",
							"name": "to",
							"type": "address"
						}
					],
					"name": "transferOwnership",
					"outputs": [],
					"stateMutability": "nonpayable",
					"type": "function"
				},
				{
					"inputs": [],
					"name": "withdrawLink",
					"outputs": [],
					"stateMutability": "nonpayable",
					"type": "function"
				}
			],
			"devdoc": {
				"kind": "dev",
				"methods": {},
				"version": 1
			},
			"evm": {
				"assembly": "    /* \"docs.chain.link/samples/VRF/VRFv2DirectFundingConsumer.sol\":653:5205  contract VRFv2DirectFundingConsumer is VRFV2WrapperConsumerBase, ConfirmedOwner {... */\n  mstore(0x40, 0xc0)\n    /* \"docs.chain.link/samples/VRF/VRFv2DirectFundingConsumer.sol\":1590:1596  100000 */\n  0x0186a0\n    /* \"docs.chain.link/samples/VRF/VRFv2DirectFundingConsumer.sol\":1564:1596  uint32 callbackGasLimit = 100000 */\n  0x05\n  exp(0x0100, 0x00)\n  dup2\n  sload\n  dup2\n  0xffffffff\n  mul\n  not\n  and\n  swap1\n  dup4\n  0xffffffff\n  and\n  mul\n  or\n  swap1\n  sstore\n  pop\n    /* \"docs.chain.link/samples/VRF/VRFv2DirectFundingConsumer.sol\":1687:1688  3 */\n  0x03\n    /* \"docs.chain.link/samples/VRF/VRFv2DirectFundingConsumer.sol\":1657:1688  uint16 requestConfirmations = 3 */\n  0x05\n  exp(0x0100, 0x04)\n  dup2\n  sload\n  dup2\n  0xffff\n  mul\n  not\n  and\n  swap1\n  dup4\n  0xffff\n  and\n  mul\n  or\n  swap1\n  sstore\n  pop\n    /* \"docs.chain.link/samples/VRF/VRFv2DirectFundingConsumer.sol\":1838:1839  2 */\n  0x02\n    /* \"docs.chain.link/samples/VRF/VRFv2DirectFundingConsumer.sol\":1820:1839  uint32 numWords = 2 */\n  0x05\n  exp(0x0100, 0x06)\n  dup2\n  sload\n  dup2\n  0xffffffff\n  mul\n  not\n  and\n  swap1\n  dup4\n  0xffffffff\n  and\n  mul\n  or\n  swap1\n  sstore\n  pop\n    /* \"docs.chain.link/samples/VRF/VRFv2DirectFundingConsumer.sol\":1911:1953  0x8AC089a6fc01a9F831858acae2be7e32C23ae1C0 */\n  0x8ac089a6fc01a9f831858acae2be7e32c23ae1c0\n    /* \"docs.chain.link/samples/VRF/VRFv2DirectFundingConsumer.sol\":1889:1953  address linkAddress = 0x8AC089a6fc01a9F831858acae2be7e32C23ae1C0 */\n  0x05\n  exp(0x0100, 0x0a)\n  dup2\n  sload\n  dup2\n  0xffffffffffffffffffffffffffffffffffffffff\n  mul\n  not\n  and\n  swap1\n  dup4\n  0xffffffffffffffffffffffffffffffffffffffff\n  and\n  mul\n  or\n  swap1\n  sstore\n  pop\n    /* \"docs.chain.link/samples/VRF/VRFv2DirectFundingConsumer.sol\":2031:2073  0x708701a1DfF4f478de54383E49a627eD4852C816 */\n  0x708701a1dff4f478de54383e49a627ed4852c816\n    /* \"docs.chain.link/samples/VRF/VRFv2DirectFundingConsumer.sol\":2006:2073  address wrapperAddress = 0x708701a1DfF4f478de54383E49a627eD4852C816 */\n  0x06\n  exp(0x0100, 0x00)\n  dup2\n  sload\n  dup2\n  0xffffffffffffffffffffffffffffffffffffffff\n  mul\n  not\n  and\n  swap1\n  dup4\n  0xffffffffffffffffffffffffffffffffffffffff\n  and\n  mul\n  or\n  swap1\n  sstore\n  pop\n    /* \"docs.chain.link/samples/VRF/VRFv2DirectFundingConsumer.sol\":2304:2311  1 ether */\n  0x0de0b6b3a7640000\n    /* \"docs.chain.link/samples/VRF/VRFv2DirectFundingConsumer.sol\":2280:2311  uint256 public maxBet = 1 ether */\n  0x09\n  sstore\n    /* \"docs.chain.link/samples/VRF/VRFv2DirectFundingConsumer.sol\":2323:2420  constructor() ConfirmedOwner(msg.sender) VRFV2WrapperConsumerBase(linkAddress, wrapperAddress) {} */\n  callvalue\n  dup1\n  iszero\n  tag_1\n  jumpi\n  0x00\n  dup1\n  revert\ntag_1:\n  pop\n    /* \"docs.chain.link/samples/VRF/VRFv2DirectFundingConsumer.sol\":2352:2362  msg.sender */\n  caller\n    /* \"@chainlink/contracts/src/v0.8/ConfirmedOwner.sol\":327:335  newOwner */\n  dup1\n    /* \"@chainlink/contracts/src/v0.8/ConfirmedOwner.sol\":345:346  0 */\n  0x00\n    /* \"docs.chain.link/samples/VRF/VRFv2DirectFundingConsumer.sol\":2389:2400  linkAddress */\n  0x05\n  0x0a\n  swap1\n  sload\n  swap1\n  0x0100\n  exp\n  swap1\n  div\n  0xffffffffffffffffffffffffffffffffffffffff\n  and\n    /* \"docs.chain.link/samples/VRF/VRFv2DirectFundingConsumer.sol\":2402:2416  wrapperAddress */\n  0x06\n  0x00\n  swap1\n  sload\n  swap1\n  0x0100\n  exp\n  swap1\n  div\n  0xffffffffffffffffffffffffffffffffffffffff\n  and\n    /* \"@chainlink/contracts/src/v0.8/VRFV2WrapperConsumerBase.sol\":1938:1943  _link */\n  dup2\n    /* \"@chainlink/contracts/src/v0.8/VRFV2WrapperConsumerBase.sol\":1912:1944  LINK = LinkTokenInterface(_link) */\n  0xffffffffffffffffffffffffffffffffffffffff\n  and\n  0x80\n  dup2\n  0xffffffffffffffffffffffffffffffffffffffff\n  and\n  0x60\n  shl\n  dup2\n  mstore\n  pop\n  pop\n    /* \"@chainlink/contracts/src/v0.8/VRFV2WrapperConsumerBase.sol\":1989:2002  _vrfV2Wrapper */\n  dup1\n    /* \"@chainlink/contracts/src/v0.8/VRFV2WrapperConsumerBase.sol\":1950:2003  VRF_V2_WRAPPER = VRFV2WrapperInterface(_vrfV2Wrapper) */\n  0xffffffffffffffffffffffffffffffffffffffff\n  and\n  0xa0\n  dup2\n  0xffffffffffffffffffffffffffffffffffffffff\n  and\n  0x60\n  shl\n  dup2\n  mstore\n  pop\n  pop\n    /* \"@chainlink/contracts/src/v0.8/VRFV2WrapperConsumerBase.sol\":1856:2008  constructor(address _link, address _vrfV2Wrapper) {... */\n  pop\n  pop\n    /* \"@chainlink/contracts/src/v0.8/ConfirmedOwnerWithProposal.sol\":572:573  0 */\n  0x00\n    /* \"@chainlink/contracts/src/v0.8/ConfirmedOwnerWithProposal.sol\":552:574  newOwner != address(0) */\n  0xffffffffffffffffffffffffffffffffffffffff\n  and\n    /* \"@chainlink/contracts/src/v0.8/ConfirmedOwnerWithProposal.sol\":552:560  newOwner */\n  dup3\n    /* \"@chainlink/contracts/src/v0.8/ConfirmedOwnerWithProposal.sol\":552:574  newOwner != address(0) */\n  0xffffffffffffffffffffffffffffffffffffffff\n  and\n  eq\n  iszero\n    /* \"@chainlink/contracts/src/v0.8/ConfirmedOwnerWithProposal.sol\":544:603  require(newOwner != address(0), \"Cannot set owner to zero\") */\n  tag_8\n  jumpi\n  mload(0x40)\n  0x08c379a000000000000000000000000000000000000000000000000000000000\n  dup2\n  mstore\n  0x04\n  add\n  tag_9\n  swap1\n  tag_10\n  jump\t// in\ntag_9:\n  mload(0x40)\n  dup1\n  swap2\n  sub\n  swap1\n  revert\ntag_8:\n    /* \"@chainlink/contracts/src/v0.8/ConfirmedOwnerWithProposal.sol\":620:628  newOwner */\n  dup2\n    /* \"@chainlink/contracts/src/v0.8/ConfirmedOwnerWithProposal.sol\":610:617  s_owner */\n  0x00\n  dup1\n    /* \"@chainlink/contracts/src/v0.8/ConfirmedOwnerWithProposal.sol\":610:628  s_owner = newOwner */\n  0x0100\n  exp\n  dup2\n  sload\n  dup2\n  0xffffffffffffffffffffffffffffffffffffffff\n  mul\n  not\n  and\n  swap1\n  dup4\n  0xffffffffffffffffffffffffffffffffffffffff\n  and\n  mul\n  or\n  swap1\n  sstore\n  pop\n    /* \"@chainlink/contracts/src/v0.8/ConfirmedOwnerWithProposal.sol\":662:663  0 */\n  0x00\n    /* \"@chainlink/contracts/src/v0.8/ConfirmedOwnerWithProposal.sol\":638:664  pendingOwner != address(0) */\n  0xffffffffffffffffffffffffffffffffffffffff\n  and\n    /* \"@chainlink/contracts/src/v0.8/ConfirmedOwnerWithProposal.sol\":638:650  pendingOwner */\n  dup2\n    /* \"@chainlink/contracts/src/v0.8/ConfirmedOwnerWithProposal.sol\":638:664  pendingOwner != address(0) */\n  0xffffffffffffffffffffffffffffffffffffffff\n  and\n  eq\n    /* \"@chainlink/contracts/src/v0.8/ConfirmedOwnerWithProposal.sol\":634:713  if (pendingOwner != address(0)) {... */\n  tag_11\n  jumpi\n    /* \"@chainlink/contracts/src/v0.8/ConfirmedOwnerWithProposal.sol\":674:706  _transferOwnership(pendingOwner) */\n  tag_12\n    /* \"@chainlink/contracts/src/v0.8/ConfirmedOwnerWithProposal.sol\":693:705  pendingOwner */\n  dup2\n    /* \"@chainlink/contracts/src/v0.8/ConfirmedOwnerWithProposal.sol\":674:692  _transferOwnership */\n  shl(0x20, tag_13)\n    /* \"@chainlink/contracts/src/v0.8/ConfirmedOwnerWithProposal.sol\":674:706  _transferOwnership(pendingOwner) */\n  0x20\n  shr\n  jump\t// in\ntag_12:\n    /* \"@chainlink/contracts/src/v0.8/ConfirmedOwnerWithProposal.sol\":634:713  if (pendingOwner != address(0)) {... */\ntag_11:\n    /* \"@chainlink/contracts/src/v0.8/ConfirmedOwnerWithProposal.sol\":486:717  constructor(address newOwner, address pendingOwner) {... */\n  pop\n  pop\n    /* \"@chainlink/contracts/src/v0.8/ConfirmedOwner.sol\":270:351  constructor(address newOwner) ConfirmedOwnerWithProposal(newOwner, address(0)) {} */\n  pop\n    /* \"docs.chain.link/samples/VRF/VRFv2DirectFundingConsumer.sol\":653:5205  contract VRFv2DirectFundingConsumer is VRFV2WrapperConsumerBase, ConfirmedOwner {... */\n  jump(tag_16)\n    /* \"@chainlink/contracts/src/v0.8/ConfirmedOwnerWithProposal.sol\":1497:1685  function _transferOwnership(address to) private {... */\ntag_13:\n    /* \"@chainlink/contracts/src/v0.8/ConfirmedOwnerWithProposal.sol\":1565:1575  msg.sender */\n  caller\n    /* \"@chainlink/contracts/src/v0.8/ConfirmedOwnerWithProposal.sol\":1559:1575  to != msg.sender */\n  0xffffffffffffffffffffffffffffffffffffffff\n  and\n    /* \"@chainlink/contracts/src/v0.8/ConfirmedOwnerWithProposal.sol\":1559:1561  to */\n  dup2\n    /* \"@chainlink/contracts/src/v0.8/ConfirmedOwnerWithProposal.sol\":1559:1575  to != msg.sender */\n  0xffffffffffffffffffffffffffffffffffffffff\n  and\n  eq\n  iszero\n    /* \"@chainlink/contracts/src/v0.8/ConfirmedOwnerWithProposal.sol\":1551:1603  require(to != msg.sender, \"Cannot transfer to self\") */\n  tag_18\n  jumpi\n  mload(0x40)\n  0x08c379a000000000000000000000000000000000000000000000000000000000\n  dup2\n  mstore\n  0x04\n  add\n  tag_19\n  swap1\n  tag_20\n  jump\t// in\ntag_19:\n  mload(0x40)\n  dup1\n  swap2\n  sub\n  swap1\n  revert\ntag_18:\n    /* \"@chainlink/contracts/src/v0.8/ConfirmedOwnerWithProposal.sol\":1627:1629  to */\n  dup1\n    /* \"@chainlink/contracts/src/v0.8/ConfirmedOwnerWithProposal.sol\":1610:1624  s_pendingOwner */\n  0x01\n  0x00\n    /* \"@chainlink/contracts/src/v0.8/ConfirmedOwnerWithProposal.sol\":1610:1629  s_pendingOwner = to */\n  0x0100\n  exp\n  dup2\n  sload\n  dup2\n  0xffffffffffffffffffffffffffffffffffffffff\n  mul\n  not\n  and\n  swap1\n  dup4\n  0xffffffffffffffffffffffffffffffffffffffff\n  and\n  mul\n  or\n  swap1\n  sstore\n  pop\n    /* \"@chainlink/contracts/src/v0.8/ConfirmedOwnerWithProposal.sol\":1677:1679  to */\n  dup1\n    /* \"@chainlink/contracts/src/v0.8/ConfirmedOwnerWithProposal.sol\":1641:1680  OwnershipTransferRequested(s_owner, to) */\n  0xffffffffffffffffffffffffffffffffffffffff\n  and\n    /* \"@chainlink/contracts/src/v0.8/ConfirmedOwnerWithProposal.sol\":1668:1675  s_owner */\n  0x00\n  dup1\n  sload\n  swap1\n  0x0100\n  exp\n  swap1\n  div\n  0xffffffffffffffffffffffffffffffffffffffff\n  and\n    /* \"@chainlink/contracts/src/v0.8/ConfirmedOwnerWithProposal.sol\":1641:1680  OwnershipTransferRequested(s_owner, to) */\n  0xffffffffffffffffffffffffffffffffffffffff\n  and\n  0xed8889f560326eb138920d842192f0eb3dd22b4f139c87a2c57538e05bae1278\n  mload(0x40)\n  mload(0x40)\n  dup1\n  swap2\n  sub\n  swap1\n  log3\n    /* \"@chainlink/contracts/src/v0.8/ConfirmedOwnerWithProposal.sol\":1497:1685  function _transferOwnership(address to) private {... */\n  pop\n  jump\t// out\n    /* \"#utility.yul\":7:373   */\ntag_22:\n    /* \"#utility.yul\":149:152   */\n  0x00\n    /* \"#utility.yul\":170:237   */\n  tag_24\n    /* \"#utility.yul\":234:236   */\n  0x18\n    /* \"#utility.yul\":229:232   */\n  dup4\n    /* \"#utility.yul\":170:237   */\n  tag_25\n  jump\t// in\ntag_24:\n    /* \"#utility.yul\":163:237   */\n  swap2\n  pop\n    /* \"#utility.yul\":246:339   */\n  tag_26\n    /* \"#utility.yul\":335:338   */\n  dup3\n    /* \"#utility.yul\":246:339   */\n  tag_27\n  jump\t// in\ntag_26:\n    /* \"#utility.yul\":364:366   */\n  0x20\n    /* \"#utility.yul\":359:362   */\n  dup3\n    /* \"#utility.yul\":355:367   */\n  add\n    /* \"#utility.yul\":348:367   */\n  swap1\n  pop\n    /* \"#utility.yul\":7:373   */\n  swap2\n  swap1\n  pop\n  jump\t// out\n    /* \"#utility.yul\":379:745   */\ntag_28:\n    /* \"#utility.yul\":521:524   */\n  0x00\n    /* \"#utility.yul\":542:609   */\n  tag_30\n    /* \"#utility.yul\":606:608   */\n  0x17\n    /* \"#utility.yul\":601:604   */\n  dup4\n    /* \"#utility.yul\":542:609   */\n  tag_25\n  jump\t// in\ntag_30:\n    /* \"#utility.yul\":535:609   */\n  swap2\n  pop\n    /* \"#utility.yul\":618:711   */\n  tag_31\n    /* \"#utility.yul\":707:710   */\n  dup3\n    /* \"#utility.yul\":618:711   */\n  tag_32\n  jump\t// in\ntag_31:\n    /* \"#utility.yul\":736:738   */\n  0x20\n    /* \"#utility.yul\":731:734   */\n  dup3\n    /* \"#utility.yul\":727:739   */\n  add\n    /* \"#utility.yul\":720:739   */\n  swap1\n  pop\n    /* \"#utility.yul\":379:745   */\n  swap2\n  swap1\n  pop\n  jump\t// out\n    /* \"#utility.yul\":751:1170   */\ntag_10:\n    /* \"#utility.yul\":917:921   */\n  0x00\n    /* \"#utility.yul\":955:957   */\n  0x20\n    /* \"#utility.yul\":944:953   */\n  dup3\n    /* \"#utility.yul\":940:958   */\n  add\n    /* \"#utility.yul\":932:958   */\n  swap1\n  pop\n    /* \"#utility.yul\":1004:1013   */\n  dup2\n    /* \"#utility.yul\":998:1002   */\n  dup2\n    /* \"#utility.yul\":994:1014   */\n  sub\n    /* \"#utility.yul\":990:991   */\n  0x00\n    /* \"#utility.yul\":979:988   */\n  dup4\n    /* \"#utility.yul\":975:992   */\n  add\n    /* \"#utility.yul\":968:1015   */\n  mstore\n    /* \"#utility.yul\":1032:1163   */\n  tag_34\n    /* \"#utility.yul\":1158:1162   */\n  dup2\n    /* \"#utility.yul\":1032:1163   */\n  tag_22\n  jump\t// in\ntag_34:\n    /* \"#utility.yul\":1024:1163   */\n  swap1\n  pop\n    /* \"#utility.yul\":751:1170   */\n  swap2\n  swap1\n  pop\n  jump\t// out\n    /* \"#utility.yul\":1176:1595   */\ntag_20:\n    /* \"#utility.yul\":1342:1346   */\n  0x00\n    /* \"#utility.yul\":1380:1382   */\n  0x20\n    /* \"#utility.yul\":1369:1378   */\n  dup3\n    /* \"#utility.yul\":1365:1383   */\n  add\n    /* \"#utility.yul\":1357:1383   */\n  swap1\n  pop\n    /* \"#utility.yul\":1429:1438   */\n  dup2\n    /* \"#utility.yul\":1423:1427   */\n  dup2\n    /* \"#utility.yul\":1419:1439   */\n  sub\n    /* \"#utility.yul\":1415:1416   */\n  0x00\n    /* \"#utility.yul\":1404:1413   */\n  dup4\n    /* \"#utility.yul\":1400:1417   */\n  add\n    /* \"#utility.yul\":1393:1440   */\n  mstore\n    /* \"#utility.yul\":1457:1588   */\n  tag_36\n    /* \"#utility.yul\":1583:1587   */\n  dup2\n    /* \"#utility.yul\":1457:1588   */\n  tag_28\n  jump\t// in\ntag_36:\n    /* \"#utility.yul\":1449:1588   */\n  swap1\n  pop\n    /* \"#utility.yul\":1176:1595   */\n  swap2\n  swap1\n  pop\n  jump\t// out\n    /* \"#utility.yul\":1601:1770   */\ntag_25:\n    /* \"#utility.yul\":1685:1696   */\n  0x00\n    /* \"#utility.yul\":1719:1725   */\n  dup3\n    /* \"#utility.yul\":1714:1717   */\n  dup3\n    /* \"#utility.yul\":1707:1726   */\n  mstore\n    /* \"#utility.yul\":1759:1763   */\n  0x20\n    /* \"#utility.yul\":1754:1757   */\n  dup3\n    /* \"#utility.yul\":1750:1764   */\n  add\n    /* \"#utility.yul\":1735:1764   */\n  swap1\n  pop\n    /* \"#utility.yul\":1601:1770   */\n  swap3\n  swap2\n  pop\n  pop\n  jump\t// out\n    /* \"#utility.yul\":1776:1950   */\ntag_27:\n    /* \"#utility.yul\":1916:1942   */\n  0x43616e6e6f7420736574206f776e657220746f207a65726f0000000000000000\n    /* \"#utility.yul\":1912:1913   */\n  0x00\n    /* \"#utility.yul\":1904:1910   */\n  dup3\n    /* \"#utility.yul\":1900:1914   */\n  add\n    /* \"#utility.yul\":1893:1943   */\n  mstore\n    /* \"#utility.yul\":1776:1950   */\n  pop\n  jump\t// out\n    /* \"#utility.yul\":1956:2129   */\ntag_32:\n    /* \"#utility.yul\":2096:2121   */\n  0x43616e6e6f74207472616e7366657220746f2073656c66000000000000000000\n    /* \"#utility.yul\":2092:2093   */\n  0x00\n    /* \"#utility.yul\":2084:2090   */\n  dup3\n    /* \"#utility.yul\":2080:2094   */\n  add\n    /* \"#utility.yul\":2073:2122   */\n  mstore\n    /* \"#utility.yul\":1956:2129   */\n  pop\n  jump\t// out\n    /* \"docs.chain.link/samples/VRF/VRFv2DirectFundingConsumer.sol\":653:5205  contract VRFv2DirectFundingConsumer is VRFV2WrapperConsumerBase, ConfirmedOwner {... */\ntag_16:\n  shr(0x60, mload(0x80))\n  shr(0x60, mload(0xa0))\n  codecopy(0x00, dataOffset(sub_0), dataSize(sub_0))\n  0x00\n  assignImmutable(\"0xa75e2cf51d42f4164e4624f425e61448777a748393b6f6a5bcb1d94d1e8e5e98\")\n  0x00\n  assignImmutable(\"0x266b1640ade99b2f22d24bd1f0c6c2736890e0398a5a0b97b63a35856ae65c2b\")\n  return(0x00, dataSize(sub_0))\nstop\n\nsub_0: assembly {\n        /* \"docs.chain.link/samples/VRF/VRFv2DirectFundingConsumer.sol\":653:5205  contract VRFv2DirectFundingConsumer is VRFV2WrapperConsumerBase, ConfirmedOwner {... */\n      mstore(0x40, 0x80)\n      jumpi(tag_1, lt(calldatasize, 0x04))\n      shr(0xe0, calldataload(0x00))\n      dup1\n      0x8da5cb5b\n      gt\n      tag_15\n      jumpi\n      dup1\n      0xbfb3047f\n      gt\n      tag_16\n      jumpi\n      dup1\n      0xbfb3047f\n      eq\n      tag_11\n      jumpi\n      dup1\n      0xd8a4676f\n      eq\n      tag_12\n      jumpi\n      dup1\n      0xf2fde38b\n      eq\n      tag_13\n      jumpi\n      dup1\n      0xfc2a88c3\n      eq\n      tag_14\n      jumpi\n      jump(tag_1)\n    tag_16:\n      dup1\n      0x8da5cb5b\n      eq\n      tag_8\n      jumpi\n      dup1\n      0x8dc654a2\n      eq\n      tag_9\n      jumpi\n      dup1\n      0xa168fa89\n      eq\n      tag_10\n      jumpi\n      jump(tag_1)\n    tag_15:\n      dup1\n      0x1fe543e3\n      eq\n      tag_2\n      jumpi\n      dup1\n      0x2e5b2168\n      eq\n      tag_3\n      jumpi\n      dup1\n      0x34461067\n      eq\n      tag_4\n      jumpi\n      dup1\n      0x5873533d\n      eq\n      tag_5\n      jumpi\n      dup1\n      0x79ba5097\n      eq\n      tag_6\n      jumpi\n      dup1\n      0x8796ba8c\n      eq\n      tag_7\n      jumpi\n    tag_1:\n      0x00\n      dup1\n      revert\n        /* \"@chainlink/contracts/src/v0.8/VRFV2WrapperConsumerBase.sol\":3389:3622  function rawFulfillRandomWords(uint256 _requestId, uint256[] memory _randomWords) external {... */\n    tag_2:\n      callvalue\n      dup1\n      iszero\n      tag_17\n      jumpi\n      0x00\n      dup1\n      revert\n    tag_17:\n      pop\n      tag_18\n      0x04\n      dup1\n      calldatasize\n      sub\n      dup2\n      add\n      swap1\n      tag_19\n      swap2\n      swap1\n      tag_20\n      jump\t// in\n    tag_19:\n      tag_21\n      jump\t// in\n    tag_18:\n      stop\n        /* \"docs.chain.link/samples/VRF/VRFv2DirectFundingConsumer.sol\":2280:2311  uint256 public maxBet = 1 ether */\n    tag_3:\n      callvalue\n      dup1\n      iszero\n      tag_22\n      jumpi\n      0x00\n      dup1\n      revert\n    tag_22:\n      pop\n      tag_23\n      tag_24\n      jump\t// in\n    tag_23:\n      mload(0x40)\n      tag_25\n      swap2\n      swap1\n      tag_26\n      jump\t// in\n    tag_25:\n      mload(0x40)\n      dup1\n      swap2\n      sub\n      swap1\n      return\n        /* \"docs.chain.link/samples/VRF/VRFv2DirectFundingConsumer.sol\":2200:2242  mapping (uint256 => Player) public records */\n    tag_4:\n      callvalue\n      dup1\n      iszero\n      tag_27\n      jumpi\n      0x00\n      dup1\n      revert\n    tag_27:\n      pop\n      tag_28\n      0x04\n      dup1\n      calldatasize\n      sub\n      dup2\n      add\n      swap1\n      tag_29\n      swap2\n      swap1\n      tag_30\n      jump\t// in\n    tag_29:\n      tag_31\n      jump\t// in\n    tag_28:\n      mload(0x40)\n      tag_32\n      swap4\n      swap3\n      swap2\n      swap1\n      tag_33\n      jump\t// in\n    tag_32:\n      mload(0x40)\n      dup1\n      swap2\n      sub\n      swap1\n      return\n        /* \"docs.chain.link/samples/VRF/VRFv2DirectFundingConsumer.sol\":3078:3495  function playGame(uint256 betNumber)  payable public {... */\n    tag_5:\n      tag_34\n      0x04\n      dup1\n      calldatasize\n      sub\n      dup2\n      add\n      swap1\n      tag_35\n      swap2\n      swap1\n      tag_30\n      jump\t// in\n    tag_35:\n      tag_36\n      jump\t// in\n    tag_34:\n      stop\n        /* \"@chainlink/contracts/src/v0.8/ConfirmedOwnerWithProposal.sol\":1016:1281  function acceptOwnership() external override {... */\n    tag_6:\n      callvalue\n      dup1\n      iszero\n      tag_37\n      jumpi\n      0x00\n      dup1\n      revert\n    tag_37:\n      pop\n      tag_38\n      tag_39\n      jump\t// in\n    tag_38:\n      stop\n        /* \"docs.chain.link/samples/VRF/VRFv2DirectFundingConsumer.sol\":1191:1218  uint256[] public requestIds */\n    tag_7:\n      callvalue\n      dup1\n      iszero\n      tag_40\n      jumpi\n      0x00\n      dup1\n      revert\n    tag_40:\n      pop\n      tag_41\n      0x04\n      dup1\n      calldatasize\n      sub\n      dup2\n      add\n      swap1\n      tag_42\n      swap2\n      swap1\n      tag_30\n      jump\t// in\n    tag_42:\n      tag_43\n      jump\t// in\n    tag_41:\n      mload(0x40)\n      tag_44\n      swap2\n      swap1\n      tag_26\n      jump\t// in\n    tag_44:\n      mload(0x40)\n      dup1\n      swap2\n      sub\n      swap1\n      return\n        /* \"@chainlink/contracts/src/v0.8/ConfirmedOwnerWithProposal.sol\":1332:1413  function owner() public view override returns (address) {... */\n    tag_8:\n      callvalue\n      dup1\n      iszero\n      tag_45\n      jumpi\n      0x00\n      dup1\n      revert\n    tag_45:\n      pop\n      tag_46\n      tag_47\n      jump\t// in\n    tag_46:\n      mload(0x40)\n      tag_48\n      swap2\n      swap1\n      tag_49\n      jump\t// in\n    tag_48:\n      mload(0x40)\n      dup1\n      swap2\n      sub\n      swap1\n      return\n        /* \"docs.chain.link/samples/VRF/VRFv2DirectFundingConsumer.sol\":4991:5203  function withdrawLink() public onlyOwner {... */\n    tag_9:\n      callvalue\n      dup1\n      iszero\n      tag_50\n      jumpi\n      0x00\n      dup1\n      revert\n    tag_50:\n      pop\n      tag_51\n      tag_52\n      jump\t// in\n    tag_51:\n      stop\n        /* \"docs.chain.link/samples/VRF/VRFv2DirectFundingConsumer.sol\":1074:1125  mapping(uint256 => RequestStatus) public s_requests */\n    tag_10:\n      callvalue\n      dup1\n      iszero\n      tag_53\n      jumpi\n      0x00\n      dup1\n      revert\n    tag_53:\n      pop\n      tag_54\n      0x04\n      dup1\n      calldatasize\n      sub\n      dup2\n      add\n      swap1\n      tag_55\n      swap2\n      swap1\n      tag_30\n      jump\t// in\n    tag_55:\n      tag_56\n      jump\t// in\n    tag_54:\n      mload(0x40)\n      tag_57\n      swap3\n      swap2\n      swap1\n      tag_58\n      jump\t// in\n    tag_57:\n      mload(0x40)\n      dup1\n      swap2\n      sub\n      swap1\n      return\n        /* \"docs.chain.link/samples/VRF/VRFv2DirectFundingConsumer.sol\":2249:2273  uint256 public betResult */\n    tag_11:\n      callvalue\n      dup1\n      iszero\n      tag_59\n      jumpi\n      0x00\n      dup1\n      revert\n    tag_59:\n      pop\n      tag_60\n      tag_61\n      jump\t// in\n    tag_60:\n      mload(0x40)\n      tag_62\n      swap2\n      swap1\n      tag_26\n      jump\t// in\n    tag_62:\n      mload(0x40)\n      dup1\n      swap2\n      sub\n      swap1\n      return\n        /* \"docs.chain.link/samples/VRF/VRFv2DirectFundingConsumer.sol\":4486:4914  function getRequestStatus(uint256 _requestId)... */\n    tag_12:\n      callvalue\n      dup1\n      iszero\n      tag_63\n      jumpi\n      0x00\n      dup1\n      revert\n    tag_63:\n      pop\n      tag_64\n      0x04\n      dup1\n      calldatasize\n      sub\n      dup2\n      add\n      swap1\n      tag_65\n      swap2\n      swap1\n      tag_30\n      jump\t// in\n    tag_65:\n      tag_66\n      jump\t// in\n    tag_64:\n      mload(0x40)\n      tag_67\n      swap4\n      swap3\n      swap2\n      swap1\n      tag_68\n      jump\t// in\n    tag_67:\n      mload(0x40)\n      dup1\n      swap2\n      sub\n      swap1\n      return\n        /* \"@chainlink/contracts/src/v0.8/ConfirmedOwnerWithProposal.sol\":826:924  function transferOwnership(address to) public override onlyOwner {... */\n    tag_13:\n      callvalue\n      dup1\n      iszero\n      tag_69\n      jumpi\n      0x00\n      dup1\n      revert\n    tag_69:\n      pop\n      tag_70\n      0x04\n      dup1\n      calldatasize\n      sub\n      dup2\n      add\n      swap1\n      tag_71\n      swap2\n      swap1\n      tag_72\n      jump\t// in\n    tag_71:\n      tag_73\n      jump\t// in\n    tag_70:\n      stop\n        /* \"docs.chain.link/samples/VRF/VRFv2DirectFundingConsumer.sol\":1224:1252  uint256 public lastRequestId */\n    tag_14:\n      callvalue\n      dup1\n      iszero\n      tag_74\n      jumpi\n      0x00\n      dup1\n      revert\n    tag_74:\n      pop\n      tag_75\n      tag_76\n      jump\t// in\n    tag_75:\n      mload(0x40)\n      tag_77\n      swap2\n      swap1\n      tag_26\n      jump\t// in\n    tag_77:\n      mload(0x40)\n      dup1\n      swap2\n      sub\n      swap1\n      return\n        /* \"@chainlink/contracts/src/v0.8/VRFV2WrapperConsumerBase.sol\":3389:3622  function rawFulfillRandomWords(uint256 _requestId, uint256[] memory _randomWords) external {... */\n    tag_21:\n        /* \"@chainlink/contracts/src/v0.8/VRFV2WrapperConsumerBase.sol\":3516:3530  VRF_V2_WRAPPER */\n      immutable(\"0xa75e2cf51d42f4164e4624f425e61448777a748393b6f6a5bcb1d94d1e8e5e98\")\n        /* \"@chainlink/contracts/src/v0.8/VRFV2WrapperConsumerBase.sol\":3494:3531  msg.sender == address(VRF_V2_WRAPPER) */\n      0xffffffffffffffffffffffffffffffffffffffff\n      and\n        /* \"@chainlink/contracts/src/v0.8/VRFV2WrapperConsumerBase.sol\":3494:3504  msg.sender */\n      caller\n        /* \"@chainlink/contracts/src/v0.8/VRFV2WrapperConsumerBase.sol\":3494:3531  msg.sender == address(VRF_V2_WRAPPER) */\n      0xffffffffffffffffffffffffffffffffffffffff\n      and\n      eq\n        /* \"@chainlink/contracts/src/v0.8/VRFV2WrapperConsumerBase.sol\":3486:3567  require(msg.sender == address(VRF_V2_WRAPPER), \"only VRF V2 wrapper can fulfill\") */\n      tag_79\n      jumpi\n      mload(0x40)\n      0x08c379a000000000000000000000000000000000000000000000000000000000\n      dup2\n      mstore\n      0x04\n      add\n      tag_80\n      swap1\n      tag_81\n      jump\t// in\n    tag_80:\n      mload(0x40)\n      dup1\n      swap2\n      sub\n      swap1\n      revert\n    tag_79:\n        /* \"@chainlink/contracts/src/v0.8/VRFV2WrapperConsumerBase.sol\":3573:3617  fulfillRandomWords(_requestId, _randomWords) */\n      tag_82\n        /* \"@chainlink/contracts/src/v0.8/VRFV2WrapperConsumerBase.sol\":3592:3602  _requestId */\n      dup3\n        /* \"@chainlink/contracts/src/v0.8/VRFV2WrapperConsumerBase.sol\":3604:3616  _randomWords */\n      dup3\n        /* \"@chainlink/contracts/src/v0.8/VRFV2WrapperConsumerBase.sol\":3573:3591  fulfillRandomWords */\n      tag_83\n        /* \"@chainlink/contracts/src/v0.8/VRFV2WrapperConsumerBase.sol\":3573:3617  fulfillRandomWords(_requestId, _randomWords) */\n      jump\t// in\n    tag_82:\n        /* \"@chainlink/contracts/src/v0.8/VRFV2WrapperConsumerBase.sol\":3389:3622  function rawFulfillRandomWords(uint256 _requestId, uint256[] memory _randomWords) external {... */\n      pop\n      pop\n      jump\t// out\n        /* \"docs.chain.link/samples/VRF/VRFv2DirectFundingConsumer.sol\":2280:2311  uint256 public maxBet = 1 ether */\n    tag_24:\n      sload(0x09)\n      dup2\n      jump\t// out\n        /* \"docs.chain.link/samples/VRF/VRFv2DirectFundingConsumer.sol\":2200:2242  mapping (uint256 => Player) public records */\n    tag_31:\n      mstore(0x20, 0x07)\n      dup1\n      0x00\n      mstore\n      keccak256(0x00, 0x40)\n      0x00\n      swap2\n      pop\n      swap1\n      pop\n      dup1\n      0x00\n      add\n      0x00\n      swap1\n      sload\n      swap1\n      0x0100\n      exp\n      swap1\n      div\n      0xffffffffffffffffffffffffffffffffffffffff\n      and\n      swap1\n      dup1\n      0x01\n      add\n      sload\n      swap1\n      dup1\n      0x02\n      add\n      sload\n      swap1\n      pop\n      dup4\n      jump\t// out\n        /* \"docs.chain.link/samples/VRF/VRFv2DirectFundingConsumer.sol\":3078:3495  function playGame(uint256 betNumber)  payable public {... */\n    tag_36:\n        /* \"docs.chain.link/samples/VRF/VRFv2DirectFundingConsumer.sol\":3162:3163  6 */\n      0x06\n        /* \"docs.chain.link/samples/VRF/VRFv2DirectFundingConsumer.sol\":3149:3158  betNumber */\n      dup2\n        /* \"docs.chain.link/samples/VRF/VRFv2DirectFundingConsumer.sol\":3149:3163  betNumber <= 6 */\n      gt\n      iszero\n        /* \"docs.chain.link/samples/VRF/VRFv2DirectFundingConsumer.sol\":3149:3180  betNumber <= 6 && betNumber > 0 */\n      dup1\n      iszero\n      tag_85\n      jumpi\n      pop\n        /* \"docs.chain.link/samples/VRF/VRFv2DirectFundingConsumer.sol\":3179:3180  0 */\n      0x00\n        /* \"docs.chain.link/samples/VRF/VRFv2DirectFundingConsumer.sol\":3167:3176  betNumber */\n      dup2\n        /* \"docs.chain.link/samples/VRF/VRFv2DirectFundingConsumer.sol\":3167:3180  betNumber > 0 */\n      gt\n        /* \"docs.chain.link/samples/VRF/VRFv2DirectFundingConsumer.sol\":3149:3180  betNumber <= 6 && betNumber > 0 */\n    tag_85:\n        /* \"docs.chain.link/samples/VRF/VRFv2DirectFundingConsumer.sol\":3141:3213  require(betNumber <= 6 && betNumber > 0, \"Bet any value between 1 to 6\") */\n      tag_86\n      jumpi\n      mload(0x40)\n      0x08c379a000000000000000000000000000000000000000000000000000000000\n      dup2\n      mstore\n      0x04\n      add\n      tag_87\n      swap1\n      tag_88\n      jump\t// in\n    tag_87:\n      mload(0x40)\n      dup1\n      swap2\n      sub\n      swap1\n      revert\n    tag_86:\n        /* \"docs.chain.link/samples/VRF/VRFv2DirectFundingConsumer.sol\":3223:3260  address payable cuurrentPlayerAddress */\n      0x00\n        /* \"docs.chain.link/samples/VRF/VRFv2DirectFundingConsumer.sol\":3272:3282  msg.sender */\n      caller\n        /* \"docs.chain.link/samples/VRF/VRFv2DirectFundingConsumer.sol\":3223:3283  address payable cuurrentPlayerAddress = payable (msg.sender) */\n      swap1\n      pop\n        /* \"docs.chain.link/samples/VRF/VRFv2DirectFundingConsumer.sol\":3293:3318  uint256 current_requestId */\n      0x00\n        /* \"docs.chain.link/samples/VRF/VRFv2DirectFundingConsumer.sol\":3321:3341  requestRandomWords() */\n      tag_89\n        /* \"docs.chain.link/samples/VRF/VRFv2DirectFundingConsumer.sol\":3321:3339  requestRandomWords */\n      tag_90\n        /* \"docs.chain.link/samples/VRF/VRFv2DirectFundingConsumer.sol\":3321:3341  requestRandomWords() */\n      jump\t// in\n    tag_89:\n        /* \"docs.chain.link/samples/VRF/VRFv2DirectFundingConsumer.sol\":3293:3341  uint256 current_requestId = requestRandomWords() */\n      swap1\n      pop\n        /* \"docs.chain.link/samples/VRF/VRFv2DirectFundingConsumer.sol\":3351:3379  Player memory current_player */\n      0x00\n        /* \"docs.chain.link/samples/VRF/VRFv2DirectFundingConsumer.sol\":3382:3433  Player(cuurrentPlayerAddress, betNumber, msg.value) */\n      mload(0x40)\n      dup1\n      0x60\n      add\n      0x40\n      mstore\n      dup1\n        /* \"docs.chain.link/samples/VRF/VRFv2DirectFundingConsumer.sol\":3389:3410  cuurrentPlayerAddress */\n      dup5\n        /* \"docs.chain.link/samples/VRF/VRFv2DirectFundingConsumer.sol\":3382:3433  Player(cuurrentPlayerAddress, betNumber, msg.value) */\n      0xffffffffffffffffffffffffffffffffffffffff\n      and\n      dup2\n      mstore\n      0x20\n      add\n        /* \"docs.chain.link/samples/VRF/VRFv2DirectFundingConsumer.sol\":3412:3421  betNumber */\n      dup6\n        /* \"docs.chain.link/samples/VRF/VRFv2DirectFundingConsumer.sol\":3382:3433  Player(cuurrentPlayerAddress, betNumber, msg.value) */\n      dup2\n      mstore\n      0x20\n      add\n        /* \"docs.chain.link/samples/VRF/VRFv2DirectFundingConsumer.sol\":3423:3432  msg.value */\n      callvalue\n        /* \"docs.chain.link/samples/VRF/VRFv2DirectFundingConsumer.sol\":3382:3433  Player(cuurrentPlayerAddress, betNumber, msg.value) */\n      dup2\n      mstore\n      pop\n        /* \"docs.chain.link/samples/VRF/VRFv2DirectFundingConsumer.sol\":3351:3433  Player memory current_player = Player(cuurrentPlayerAddress, betNumber, msg.value) */\n      swap1\n      pop\n        /* \"docs.chain.link/samples/VRF/VRFv2DirectFundingConsumer.sol\":3472:3486  current_player */\n      dup1\n        /* \"docs.chain.link/samples/VRF/VRFv2DirectFundingConsumer.sol\":3443:3450  records */\n      0x07\n        /* \"docs.chain.link/samples/VRF/VRFv2DirectFundingConsumer.sol\":3443:3469  records[current_requestId] */\n      0x00\n        /* \"docs.chain.link/samples/VRF/VRFv2DirectFundingConsumer.sol\":3451:3468  current_requestId */\n      dup5\n        /* \"docs.chain.link/samples/VRF/VRFv2DirectFundingConsumer.sol\":3443:3469  records[current_requestId] */\n      dup2\n      mstore\n      0x20\n      add\n      swap1\n      dup2\n      mstore\n      0x20\n      add\n      0x00\n      keccak256\n        /* \"docs.chain.link/samples/VRF/VRFv2DirectFundingConsumer.sol\":3443:3486  records[current_requestId] = current_player */\n      0x00\n      dup3\n      add\n      mload\n      dup2\n      0x00\n      add\n      exp(0x0100, 0x00)\n      dup2\n      sload\n      dup2\n      0xffffffffffffffffffffffffffffffffffffffff\n      mul\n      not\n      and\n      swap1\n      dup4\n      0xffffffffffffffffffffffffffffffffffffffff\n      and\n      mul\n      or\n      swap1\n      sstore\n      pop\n      0x20\n      dup3\n      add\n      mload\n      dup2\n      0x01\n      add\n      sstore\n      0x40\n      dup3\n      add\n      mload\n      dup2\n      0x02\n      add\n      sstore\n      swap1\n      pop\n      pop\n        /* \"docs.chain.link/samples/VRF/VRFv2DirectFundingConsumer.sol\":3131:3495  {... */\n      pop\n      pop\n      pop\n        /* \"docs.chain.link/samples/VRF/VRFv2DirectFundingConsumer.sol\":3078:3495  function playGame(uint256 betNumber)  payable public {... */\n      pop\n      jump\t// out\n        /* \"@chainlink/contracts/src/v0.8/ConfirmedOwnerWithProposal.sol\":1016:1281  function acceptOwnership() external override {... */\n    tag_39:\n        /* \"@chainlink/contracts/src/v0.8/ConfirmedOwnerWithProposal.sol\":1089:1103  s_pendingOwner */\n      0x01\n      0x00\n      swap1\n      sload\n      swap1\n      0x0100\n      exp\n      swap1\n      div\n      0xffffffffffffffffffffffffffffffffffffffff\n      and\n        /* \"@chainlink/contracts/src/v0.8/ConfirmedOwnerWithProposal.sol\":1075:1103  msg.sender == s_pendingOwner */\n      0xffffffffffffffffffffffffffffffffffffffff\n      and\n        /* \"@chainlink/contracts/src/v0.8/ConfirmedOwnerWithProposal.sol\":1075:1085  msg.sender */\n      caller\n        /* \"@chainlink/contracts/src/v0.8/ConfirmedOwnerWithProposal.sol\":1075:1103  msg.sender == s_pendingOwner */\n      0xffffffffffffffffffffffffffffffffffffffff\n      and\n      eq\n        /* \"@chainlink/contracts/src/v0.8/ConfirmedOwnerWithProposal.sol\":1067:1130  require(msg.sender == s_pendingOwner, \"Must be proposed owner\") */\n      tag_92\n      jumpi\n      mload(0x40)\n      0x08c379a000000000000000000000000000000000000000000000000000000000\n      dup2\n      mstore\n      0x04\n      add\n      tag_93\n      swap1\n      tag_94\n      jump\t// in\n    tag_93:\n      mload(0x40)\n      dup1\n      swap2\n      sub\n      swap1\n      revert\n    tag_92:\n        /* \"@chainlink/contracts/src/v0.8/ConfirmedOwnerWithProposal.sol\":1137:1153  address oldOwner */\n      0x00\n        /* \"@chainlink/contracts/src/v0.8/ConfirmedOwnerWithProposal.sol\":1156:1163  s_owner */\n      dup1\n      0x00\n      swap1\n      sload\n      swap1\n      0x0100\n      exp\n      swap1\n      div\n      0xffffffffffffffffffffffffffffffffffffffff\n      and\n        /* \"@chainlink/contracts/src/v0.8/ConfirmedOwnerWithProposal.sol\":1137:1163  address oldOwner = s_owner */\n      swap1\n      pop\n        /* \"@chainlink/contracts/src/v0.8/ConfirmedOwnerWithProposal.sol\":1179:1189  msg.sender */\n      caller\n        /* \"@chainlink/contracts/src/v0.8/ConfirmedOwnerWithProposal.sol\":1169:1176  s_owner */\n      0x00\n      dup1\n        /* \"@chainlink/contracts/src/v0.8/ConfirmedOwnerWithProposal.sol\":1169:1189  s_owner = msg.sender */\n      0x0100\n      exp\n      dup2\n      sload\n      dup2\n      0xffffffffffffffffffffffffffffffffffffffff\n      mul\n      not\n      and\n      swap1\n      dup4\n      0xffffffffffffffffffffffffffffffffffffffff\n      and\n      mul\n      or\n      swap1\n      sstore\n      pop\n        /* \"@chainlink/contracts/src/v0.8/ConfirmedOwnerWithProposal.sol\":1220:1221  0 */\n      0x00\n        /* \"@chainlink/contracts/src/v0.8/ConfirmedOwnerWithProposal.sol\":1195:1209  s_pendingOwner */\n      0x01\n      0x00\n        /* \"@chainlink/contracts/src/v0.8/ConfirmedOwnerWithProposal.sol\":1195:1222  s_pendingOwner = address(0) */\n      0x0100\n      exp\n      dup2\n      sload\n      dup2\n      0xffffffffffffffffffffffffffffffffffffffff\n      mul\n      not\n      and\n      swap1\n      dup4\n      0xffffffffffffffffffffffffffffffffffffffff\n      and\n      mul\n      or\n      swap1\n      sstore\n      pop\n        /* \"@chainlink/contracts/src/v0.8/ConfirmedOwnerWithProposal.sol\":1265:1275  msg.sender */\n      caller\n        /* \"@chainlink/contracts/src/v0.8/ConfirmedOwnerWithProposal.sol\":1234:1276  OwnershipTransferred(oldOwner, msg.sender) */\n      0xffffffffffffffffffffffffffffffffffffffff\n      and\n        /* \"@chainlink/contracts/src/v0.8/ConfirmedOwnerWithProposal.sol\":1255:1263  oldOwner */\n      dup2\n        /* \"@chainlink/contracts/src/v0.8/ConfirmedOwnerWithProposal.sol\":1234:1276  OwnershipTransferred(oldOwner, msg.sender) */\n      0xffffffffffffffffffffffffffffffffffffffff\n      and\n      0x8be0079c531659141344cd1fd0a4f28419497f9722a3daafe3b4186f6b6457e0\n      mload(0x40)\n      mload(0x40)\n      dup1\n      swap2\n      sub\n      swap1\n      log3\n        /* \"@chainlink/contracts/src/v0.8/ConfirmedOwnerWithProposal.sol\":1061:1281  {... */\n      pop\n        /* \"@chainlink/contracts/src/v0.8/ConfirmedOwnerWithProposal.sol\":1016:1281  function acceptOwnership() external override {... */\n      jump\t// out\n        /* \"docs.chain.link/samples/VRF/VRFv2DirectFundingConsumer.sol\":1191:1218  uint256[] public requestIds */\n    tag_43:\n      0x03\n      dup2\n      dup2\n      sload\n      dup2\n      lt\n      tag_95\n      jumpi\n      0x00\n      dup1\n      revert\n    tag_95:\n      swap1\n      0x00\n      mstore\n      keccak256(0x00, 0x20)\n      add\n      0x00\n      swap2\n      pop\n      swap1\n      pop\n      sload\n      dup2\n      jump\t// out\n        /* \"@chainlink/contracts/src/v0.8/ConfirmedOwnerWithProposal.sol\":1332:1413  function owner() public view override returns (address) {... */\n    tag_47:\n        /* \"@chainlink/contracts/src/v0.8/ConfirmedOwnerWithProposal.sol\":1379:1386  address */\n      0x00\n        /* \"@chainlink/contracts/src/v0.8/ConfirmedOwnerWithProposal.sol\":1401:1408  s_owner */\n      dup1\n      0x00\n      swap1\n      sload\n      swap1\n      0x0100\n      exp\n      swap1\n      div\n      0xffffffffffffffffffffffffffffffffffffffff\n      and\n        /* \"@chainlink/contracts/src/v0.8/ConfirmedOwnerWithProposal.sol\":1394:1408  return s_owner */\n      swap1\n      pop\n        /* \"@chainlink/contracts/src/v0.8/ConfirmedOwnerWithProposal.sol\":1332:1413  function owner() public view override returns (address) {... */\n      swap1\n      jump\t// out\n        /* \"docs.chain.link/samples/VRF/VRFv2DirectFundingConsumer.sol\":4991:5203  function withdrawLink() public onlyOwner {... */\n    tag_52:\n        /* \"@chainlink/contracts/src/v0.8/ConfirmedOwnerWithProposal.sol\":1956:1976  _validateOwnership() */\n      tag_99\n        /* \"@chainlink/contracts/src/v0.8/ConfirmedOwnerWithProposal.sol\":1956:1974  _validateOwnership */\n      tag_100\n        /* \"@chainlink/contracts/src/v0.8/ConfirmedOwnerWithProposal.sol\":1956:1976  _validateOwnership() */\n      jump\t// in\n    tag_99:\n        /* \"docs.chain.link/samples/VRF/VRFv2DirectFundingConsumer.sol\":5042:5065  LinkTokenInterface link */\n      0x00\n        /* \"docs.chain.link/samples/VRF/VRFv2DirectFundingConsumer.sol\":5087:5098  linkAddress */\n      0x05\n      0x0a\n      swap1\n      sload\n      swap1\n      0x0100\n      exp\n      swap1\n      div\n      0xffffffffffffffffffffffffffffffffffffffff\n      and\n        /* \"docs.chain.link/samples/VRF/VRFv2DirectFundingConsumer.sol\":5042:5099  LinkTokenInterface link = LinkTokenInterface(linkAddress) */\n      swap1\n      pop\n        /* \"docs.chain.link/samples/VRF/VRFv2DirectFundingConsumer.sol\":5117:5121  link */\n      dup1\n        /* \"docs.chain.link/samples/VRF/VRFv2DirectFundingConsumer.sol\":5117:5130  link.transfer */\n      0xffffffffffffffffffffffffffffffffffffffff\n      and\n      0xa9059cbb\n        /* \"docs.chain.link/samples/VRF/VRFv2DirectFundingConsumer.sol\":5131:5141  msg.sender */\n      caller\n        /* \"docs.chain.link/samples/VRF/VRFv2DirectFundingConsumer.sol\":5143:5147  link */\n      dup4\n        /* \"docs.chain.link/samples/VRF/VRFv2DirectFundingConsumer.sol\":5143:5157  link.balanceOf */\n      0xffffffffffffffffffffffffffffffffffffffff\n      and\n      0x70a08231\n        /* \"docs.chain.link/samples/VRF/VRFv2DirectFundingConsumer.sol\":5166:5170  this */\n      address\n        /* \"docs.chain.link/samples/VRF/VRFv2DirectFundingConsumer.sol\":5143:5172  link.balanceOf(address(this)) */\n      mload(0x40)\n      dup3\n      0xffffffff\n      and\n      0xe0\n      shl\n      dup2\n      mstore\n      0x04\n      add\n      tag_102\n      swap2\n      swap1\n      tag_49\n      jump\t// in\n    tag_102:\n      0x20\n      mload(0x40)\n      dup1\n      dup4\n      sub\n      dup2\n      dup7\n      dup1\n      extcodesize\n      iszero\n      dup1\n      iszero\n      tag_103\n      jumpi\n      0x00\n      dup1\n      revert\n    tag_103:\n      pop\n      gas\n      staticcall\n      iszero\n      dup1\n      iszero\n      tag_105\n      jumpi\n      returndatasize\n      0x00\n      dup1\n      returndatacopy\n      revert(0x00, returndatasize)\n    tag_105:\n      pop\n      pop\n      pop\n      pop\n      mload(0x40)\n      returndatasize\n      not(0x1f)\n      0x1f\n      dup3\n      add\n      and\n      dup3\n      add\n      dup1\n      0x40\n      mstore\n      pop\n      dup2\n      add\n      swap1\n      tag_106\n      swap2\n      swap1\n      tag_107\n      jump\t// in\n    tag_106:\n        /* \"docs.chain.link/samples/VRF/VRFv2DirectFundingConsumer.sol\":5117:5173  link.transfer(msg.sender, link.balanceOf(address(this))) */\n      mload(0x40)\n      dup4\n      0xffffffff\n      and\n      0xe0\n      shl\n      dup2\n      mstore\n      0x04\n      add\n      tag_108\n      swap3\n      swap2\n      swap1\n      tag_109\n      jump\t// in\n    tag_108:\n      0x20\n      mload(0x40)\n      dup1\n      dup4\n      sub\n      dup2\n      0x00\n      dup8\n      dup1\n      extcodesize\n      iszero\n      dup1\n      iszero\n      tag_110\n      jumpi\n      0x00\n      dup1\n      revert\n    tag_110:\n      pop\n      gas\n      call\n      iszero\n      dup1\n      iszero\n      tag_112\n      jumpi\n      returndatasize\n      0x00\n      dup1\n      returndatacopy\n      revert(0x00, returndatasize)\n    tag_112:\n      pop\n      pop\n      pop\n      pop\n      mload(0x40)\n      returndatasize\n      not(0x1f)\n      0x1f\n      dup3\n      add\n      and\n      dup3\n      add\n      dup1\n      0x40\n      mstore\n      pop\n      dup2\n      add\n      swap1\n      tag_113\n      swap2\n      swap1\n      tag_114\n      jump\t// in\n    tag_113:\n        /* \"docs.chain.link/samples/VRF/VRFv2DirectFundingConsumer.sol\":5109:5196  require(link.transfer(msg.sender, link.balanceOf(address(this))), 'Unable to transfer') */\n      tag_115\n      jumpi\n      mload(0x40)\n      0x08c379a000000000000000000000000000000000000000000000000000000000\n      dup2\n      mstore\n      0x04\n      add\n      tag_116\n      swap1\n      tag_117\n      jump\t// in\n    tag_116:\n      mload(0x40)\n      dup1\n      swap2\n      sub\n      swap1\n      revert\n    tag_115:\n        /* \"docs.chain.link/samples/VRF/VRFv2DirectFundingConsumer.sol\":5032:5203  {... */\n      pop\n        /* \"docs.chain.link/samples/VRF/VRFv2DirectFundingConsumer.sol\":4991:5203  function withdrawLink() public onlyOwner {... */\n      jump\t// out\n        /* \"docs.chain.link/samples/VRF/VRFv2DirectFundingConsumer.sol\":1074:1125  mapping(uint256 => RequestStatus) public s_requests */\n    tag_56:\n      mstore(0x20, 0x02)\n      dup1\n      0x00\n      mstore\n      keccak256(0x00, 0x40)\n      0x00\n      swap2\n      pop\n      swap1\n      pop\n      dup1\n      0x00\n      add\n      sload\n      swap1\n      dup1\n      0x01\n      add\n      0x00\n      swap1\n      sload\n      swap1\n      0x0100\n      exp\n      swap1\n      div\n      0xff\n      and\n      swap1\n      pop\n      dup3\n      jump\t// out\n        /* \"docs.chain.link/samples/VRF/VRFv2DirectFundingConsumer.sol\":2249:2273  uint256 public betResult */\n    tag_61:\n      sload(0x08)\n      dup2\n      jump\t// out\n        /* \"docs.chain.link/samples/VRF/VRFv2DirectFundingConsumer.sol\":4486:4914  function getRequestStatus(uint256 _requestId)... */\n    tag_66:\n        /* \"docs.chain.link/samples/VRF/VRFv2DirectFundingConsumer.sol\":4592:4604  uint256 paid */\n      0x00\n        /* \"docs.chain.link/samples/VRF/VRFv2DirectFundingConsumer.sol\":4618:4632  bool fulfilled */\n      dup1\n        /* \"docs.chain.link/samples/VRF/VRFv2DirectFundingConsumer.sol\":4646:4674  uint256[] memory randomWords */\n      0x60\n        /* \"docs.chain.link/samples/VRF/VRFv2DirectFundingConsumer.sol\":4750:4751  0 */\n      0x00\n        /* \"docs.chain.link/samples/VRF/VRFv2DirectFundingConsumer.sol\":4720:4730  s_requests */\n      0x02\n        /* \"docs.chain.link/samples/VRF/VRFv2DirectFundingConsumer.sol\":4720:4742  s_requests[_requestId] */\n      0x00\n        /* \"docs.chain.link/samples/VRF/VRFv2DirectFundingConsumer.sol\":4731:4741  _requestId */\n      dup7\n        /* \"docs.chain.link/samples/VRF/VRFv2DirectFundingConsumer.sol\":4720:4742  s_requests[_requestId] */\n      dup2\n      mstore\n      0x20\n      add\n      swap1\n      dup2\n      mstore\n      0x20\n      add\n      0x00\n      keccak256\n        /* \"docs.chain.link/samples/VRF/VRFv2DirectFundingConsumer.sol\":4720:4747  s_requests[_requestId].paid */\n      0x00\n      add\n      sload\n        /* \"docs.chain.link/samples/VRF/VRFv2DirectFundingConsumer.sol\":4720:4751  s_requests[_requestId].paid > 0 */\n      gt\n        /* \"docs.chain.link/samples/VRF/VRFv2DirectFundingConsumer.sol\":4712:4773  require(s_requests[_requestId].paid > 0, 'request not found') */\n      tag_119\n      jumpi\n      mload(0x40)\n      0x08c379a000000000000000000000000000000000000000000000000000000000\n      dup2\n      mstore\n      0x04\n      add\n      tag_120\n      swap1\n      tag_121\n      jump\t// in\n    tag_120:\n      mload(0x40)\n      dup1\n      swap2\n      sub\n      swap1\n      revert\n    tag_119:\n        /* \"docs.chain.link/samples/VRF/VRFv2DirectFundingConsumer.sol\":4783:4811  RequestStatus memory request */\n      0x00\n        /* \"docs.chain.link/samples/VRF/VRFv2DirectFundingConsumer.sol\":4814:4824  s_requests */\n      0x02\n        /* \"docs.chain.link/samples/VRF/VRFv2DirectFundingConsumer.sol\":4814:4836  s_requests[_requestId] */\n      0x00\n        /* \"docs.chain.link/samples/VRF/VRFv2DirectFundingConsumer.sol\":4825:4835  _requestId */\n      dup7\n        /* \"docs.chain.link/samples/VRF/VRFv2DirectFundingConsumer.sol\":4814:4836  s_requests[_requestId] */\n      dup2\n      mstore\n      0x20\n      add\n      swap1\n      dup2\n      mstore\n      0x20\n      add\n      0x00\n      keccak256\n        /* \"docs.chain.link/samples/VRF/VRFv2DirectFundingConsumer.sol\":4783:4836  RequestStatus memory request = s_requests[_requestId] */\n      mload(0x40)\n      dup1\n      0x60\n      add\n      0x40\n      mstore\n      swap1\n      dup2\n      0x00\n      dup3\n      add\n      sload\n      dup2\n      mstore\n      0x20\n      add\n      0x01\n      dup3\n      add\n      0x00\n      swap1\n      sload\n      swap1\n      0x0100\n      exp\n      swap1\n      div\n      0xff\n      and\n      iszero\n      iszero\n      iszero\n      iszero\n      dup2\n      mstore\n      0x20\n      add\n      0x02\n      dup3\n      add\n      dup1\n      sload\n      dup1\n      0x20\n      mul\n      0x20\n      add\n      mload(0x40)\n      swap1\n      dup2\n      add\n      0x40\n      mstore\n      dup1\n      swap3\n      swap2\n      swap1\n      dup2\n      dup2\n      mstore\n      0x20\n      add\n      dup3\n      dup1\n      sload\n      dup1\n      iszero\n      tag_122\n      jumpi\n      0x20\n      mul\n      dup3\n      add\n      swap2\n      swap1\n      0x00\n      mstore\n      keccak256(0x00, 0x20)\n      swap1\n    tag_123:\n      dup2\n      sload\n      dup2\n      mstore\n      0x20\n      add\n      swap1\n      0x01\n      add\n      swap1\n      dup1\n      dup4\n      gt\n      tag_123\n      jumpi\n    tag_122:\n      pop\n      pop\n      pop\n      pop\n      pop\n      dup2\n      mstore\n      pop\n      pop\n      swap1\n      pop\n        /* \"docs.chain.link/samples/VRF/VRFv2DirectFundingConsumer.sol\":4854:4861  request */\n      dup1\n        /* \"docs.chain.link/samples/VRF/VRFv2DirectFundingConsumer.sol\":4854:4866  request.paid */\n      0x00\n      add\n      mload\n        /* \"docs.chain.link/samples/VRF/VRFv2DirectFundingConsumer.sol\":4868:4875  request */\n      dup2\n        /* \"docs.chain.link/samples/VRF/VRFv2DirectFundingConsumer.sol\":4868:4885  request.fulfilled */\n      0x20\n      add\n      mload\n        /* \"docs.chain.link/samples/VRF/VRFv2DirectFundingConsumer.sol\":4887:4894  request */\n      dup3\n        /* \"docs.chain.link/samples/VRF/VRFv2DirectFundingConsumer.sol\":4887:4906  request.randomWords */\n      0x40\n      add\n      mload\n        /* \"docs.chain.link/samples/VRF/VRFv2DirectFundingConsumer.sol\":4846:4907  return (request.paid, request.fulfilled, request.randomWords) */\n      swap4\n      pop\n      swap4\n      pop\n      swap4\n      pop\n      pop\n        /* \"docs.chain.link/samples/VRF/VRFv2DirectFundingConsumer.sol\":4486:4914  function getRequestStatus(uint256 _requestId)... */\n      swap2\n      swap4\n      swap1\n      swap3\n      pop\n      jump\t// out\n        /* \"@chainlink/contracts/src/v0.8/ConfirmedOwnerWithProposal.sol\":826:924  function transferOwnership(address to) public override onlyOwner {... */\n    tag_73:\n        /* \"@chainlink/contracts/src/v0.8/ConfirmedOwnerWithProposal.sol\":1956:1976  _validateOwnership() */\n      tag_125\n        /* \"@chainlink/contracts/src/v0.8/ConfirmedOwnerWithProposal.sol\":1956:1974  _validateOwnership */\n      tag_100\n        /* \"@chainlink/contracts/src/v0.8/ConfirmedOwnerWithProposal.sol\":1956:1976  _validateOwnership() */\n      jump\t// in\n    tag_125:\n        /* \"@chainlink/contracts/src/v0.8/ConfirmedOwnerWithProposal.sol\":897:919  _transferOwnership(to) */\n      tag_127\n        /* \"@chainlink/contracts/src/v0.8/ConfirmedOwnerWithProposal.sol\":916:918  to */\n      dup2\n        /* \"@chainlink/contracts/src/v0.8/ConfirmedOwnerWithProposal.sol\":897:915  _transferOwnership */\n      tag_128\n        /* \"@chainlink/contracts/src/v0.8/ConfirmedOwnerWithProposal.sol\":897:919  _transferOwnership(to) */\n      jump\t// in\n    tag_127:\n        /* \"@chainlink/contracts/src/v0.8/ConfirmedOwnerWithProposal.sol\":826:924  function transferOwnership(address to) public override onlyOwner {... */\n      pop\n      jump\t// out\n        /* \"docs.chain.link/samples/VRF/VRFv2DirectFundingConsumer.sol\":1224:1252  uint256 public lastRequestId */\n    tag_76:\n      sload(0x04)\n      dup2\n      jump\t// out\n        /* \"docs.chain.link/samples/VRF/VRFv2DirectFundingConsumer.sol\":3501:4480  function fulfillRandomWords(uint256 _requestId, uint256[] memory _randomWords) internal override {... */\n    tag_83:\n        /* \"docs.chain.link/samples/VRF/VRFv2DirectFundingConsumer.sol\":3646:3647  0 */\n      0x00\n        /* \"docs.chain.link/samples/VRF/VRFv2DirectFundingConsumer.sol\":3616:3626  s_requests */\n      0x02\n        /* \"docs.chain.link/samples/VRF/VRFv2DirectFundingConsumer.sol\":3616:3638  s_requests[_requestId] */\n      0x00\n        /* \"docs.chain.link/samples/VRF/VRFv2DirectFundingConsumer.sol\":3627:3637  _requestId */\n      dup5\n        /* \"docs.chain.link/samples/VRF/VRFv2DirectFundingConsumer.sol\":3616:3638  s_requests[_requestId] */\n      dup2\n      mstore\n      0x20\n      add\n      swap1\n      dup2\n      mstore\n      0x20\n      add\n      0x00\n      keccak256\n        /* \"docs.chain.link/samples/VRF/VRFv2DirectFundingConsumer.sol\":3616:3643  s_requests[_requestId].paid */\n      0x00\n      add\n      sload\n        /* \"docs.chain.link/samples/VRF/VRFv2DirectFundingConsumer.sol\":3616:3647  s_requests[_requestId].paid > 0 */\n      gt\n        /* \"docs.chain.link/samples/VRF/VRFv2DirectFundingConsumer.sol\":3608:3669  require(s_requests[_requestId].paid > 0, 'request not found') */\n      tag_130\n      jumpi\n      mload(0x40)\n      0x08c379a000000000000000000000000000000000000000000000000000000000\n      dup2\n      mstore\n      0x04\n      add\n      tag_131\n      swap1\n      tag_121\n      jump\t// in\n    tag_131:\n      mload(0x40)\n      dup1\n      swap2\n      sub\n      swap1\n      revert\n    tag_130:\n        /* \"docs.chain.link/samples/VRF/VRFv2DirectFundingConsumer.sol\":3714:3718  true */\n      0x01\n        /* \"docs.chain.link/samples/VRF/VRFv2DirectFundingConsumer.sol\":3679:3689  s_requests */\n      0x02\n        /* \"docs.chain.link/samples/VRF/VRFv2DirectFundingConsumer.sol\":3679:3701  s_requests[_requestId] */\n      0x00\n        /* \"docs.chain.link/samples/VRF/VRFv2DirectFundingConsumer.sol\":3690:3700  _requestId */\n      dup5\n        /* \"docs.chain.link/samples/VRF/VRFv2DirectFundingConsumer.sol\":3679:3701  s_requests[_requestId] */\n      dup2\n      mstore\n      0x20\n      add\n      swap1\n      dup2\n      mstore\n      0x20\n      add\n      0x00\n      keccak256\n        /* \"docs.chain.link/samples/VRF/VRFv2DirectFundingConsumer.sol\":3679:3711  s_requests[_requestId].fulfilled */\n      0x01\n      add\n      0x00\n        /* \"docs.chain.link/samples/VRF/VRFv2DirectFundingConsumer.sol\":3679:3718  s_requests[_requestId].fulfilled = true */\n      0x0100\n      exp\n      dup2\n      sload\n      dup2\n      0xff\n      mul\n      not\n      and\n      swap1\n      dup4\n      iszero\n      iszero\n      mul\n      or\n      swap1\n      sstore\n      pop\n        /* \"docs.chain.link/samples/VRF/VRFv2DirectFundingConsumer.sol\":3765:3777  _randomWords */\n      dup1\n        /* \"docs.chain.link/samples/VRF/VRFv2DirectFundingConsumer.sol\":3728:3738  s_requests */\n      0x02\n        /* \"docs.chain.link/samples/VRF/VRFv2DirectFundingConsumer.sol\":3728:3750  s_requests[_requestId] */\n      0x00\n        /* \"docs.chain.link/samples/VRF/VRFv2DirectFundingConsumer.sol\":3739:3749  _requestId */\n      dup5\n        /* \"docs.chain.link/samples/VRF/VRFv2DirectFundingConsumer.sol\":3728:3750  s_requests[_requestId] */\n      dup2\n      mstore\n      0x20\n      add\n      swap1\n      dup2\n      mstore\n      0x20\n      add\n      0x00\n      keccak256\n        /* \"docs.chain.link/samples/VRF/VRFv2DirectFundingConsumer.sol\":3728:3762  s_requests[_requestId].randomWords */\n      0x02\n      add\n        /* \"docs.chain.link/samples/VRF/VRFv2DirectFundingConsumer.sol\":3728:3777  s_requests[_requestId].randomWords = _randomWords */\n      swap1\n      dup1\n      mload\n      swap1\n      0x20\n      add\n      swap1\n      tag_132\n      swap3\n      swap2\n      swap1\n      tag_133\n      jump\t// in\n    tag_132:\n      pop\n        /* \"docs.chain.link/samples/VRF/VRFv2DirectFundingConsumer.sol\":3792:3863  RequestFulfilled(_requestId, _randomWords, s_requests[_requestId].paid) */\n      0x147eb1ff0c82f87f2b03e2c43f5a36488ff63ec6b730195fde4605f612f8db51\n        /* \"docs.chain.link/samples/VRF/VRFv2DirectFundingConsumer.sol\":3809:3819  _requestId */\n      dup3\n        /* \"docs.chain.link/samples/VRF/VRFv2DirectFundingConsumer.sol\":3821:3833  _randomWords */\n      dup3\n        /* \"docs.chain.link/samples/VRF/VRFv2DirectFundingConsumer.sol\":3835:3845  s_requests */\n      0x02\n        /* \"docs.chain.link/samples/VRF/VRFv2DirectFundingConsumer.sol\":3835:3857  s_requests[_requestId] */\n      0x00\n        /* \"docs.chain.link/samples/VRF/VRFv2DirectFundingConsumer.sol\":3846:3856  _requestId */\n      dup7\n        /* \"docs.chain.link/samples/VRF/VRFv2DirectFundingConsumer.sol\":3835:3857  s_requests[_requestId] */\n      dup2\n      mstore\n      0x20\n      add\n      swap1\n      dup2\n      mstore\n      0x20\n      add\n      0x00\n      keccak256\n        /* \"docs.chain.link/samples/VRF/VRFv2DirectFundingConsumer.sol\":3835:3862  s_requests[_requestId].paid */\n      0x00\n      add\n      sload\n        /* \"docs.chain.link/samples/VRF/VRFv2DirectFundingConsumer.sol\":3792:3863  RequestFulfilled(_requestId, _randomWords, s_requests[_requestId].paid) */\n      mload(0x40)\n      tag_134\n      swap4\n      swap3\n      swap2\n      swap1\n      tag_135\n      jump\t// in\n    tag_134:\n      mload(0x40)\n      dup1\n      swap2\n      sub\n      swap1\n      log1\n        /* \"docs.chain.link/samples/VRF/VRFv2DirectFundingConsumer.sol\":3873:3891  uint256 randomness */\n      0x00\n        /* \"docs.chain.link/samples/VRF/VRFv2DirectFundingConsumer.sol\":3894:3906  _randomWords */\n      dup2\n        /* \"docs.chain.link/samples/VRF/VRFv2DirectFundingConsumer.sol\":3907:3908  0 */\n      0x00\n        /* \"docs.chain.link/samples/VRF/VRFv2DirectFundingConsumer.sol\":3894:3909  _randomWords[0] */\n      dup2\n      mload\n      dup2\n      lt\n      tag_136\n      jumpi\n      tag_137\n      tag_138\n      jump\t// in\n    tag_137:\n    tag_136:\n      0x20\n      mul\n      0x20\n      add\n      add\n      mload\n        /* \"docs.chain.link/samples/VRF/VRFv2DirectFundingConsumer.sol\":3873:3909  uint256 randomness = _randomWords[0] */\n      swap1\n      pop\n        /* \"docs.chain.link/samples/VRF/VRFv2DirectFundingConsumer.sol\":3919:3944  Player memory curr_player */\n      0x00\n        /* \"docs.chain.link/samples/VRF/VRFv2DirectFundingConsumer.sol\":3947:3954  records */\n      0x07\n        /* \"docs.chain.link/samples/VRF/VRFv2DirectFundingConsumer.sol\":3947:3966  records[_requestId] */\n      0x00\n        /* \"docs.chain.link/samples/VRF/VRFv2DirectFundingConsumer.sol\":3955:3965  _requestId */\n      dup6\n        /* \"docs.chain.link/samples/VRF/VRFv2DirectFundingConsumer.sol\":3947:3966  records[_requestId] */\n      dup2\n      mstore\n      0x20\n      add\n      swap1\n      dup2\n      mstore\n      0x20\n      add\n      0x00\n      keccak256\n        /* \"docs.chain.link/samples/VRF/VRFv2DirectFundingConsumer.sol\":3919:3966  Player memory curr_player = records[_requestId] */\n      mload(0x40)\n      dup1\n      0x60\n      add\n      0x40\n      mstore\n      swap1\n      dup2\n      0x00\n      dup3\n      add\n      0x00\n      swap1\n      sload\n      swap1\n      0x0100\n      exp\n      swap1\n      div\n      0xffffffffffffffffffffffffffffffffffffffff\n      and\n      0xffffffffffffffffffffffffffffffffffffffff\n      and\n      0xffffffffffffffffffffffffffffffffffffffff\n      and\n      dup2\n      mstore\n      0x20\n      add\n      0x01\n      dup3\n      add\n      sload\n      dup2\n      mstore\n      0x20\n      add\n      0x02\n      dup3\n      add\n      sload\n      dup2\n      mstore\n      pop\n      pop\n      swap1\n      pop\n        /* \"docs.chain.link/samples/VRF/VRFv2DirectFundingConsumer.sol\":3976:3994  uint256 _betAmount */\n      0x00\n        /* \"docs.chain.link/samples/VRF/VRFv2DirectFundingConsumer.sol\":3997:4008  curr_player */\n      dup2\n        /* \"docs.chain.link/samples/VRF/VRFv2DirectFundingConsumer.sol\":3997:4018  curr_player.betAmount */\n      0x40\n      add\n      mload\n        /* \"docs.chain.link/samples/VRF/VRFv2DirectFundingConsumer.sol\":3976:4018  uint256 _betAmount = curr_player.betAmount */\n      swap1\n      pop\n        /* \"docs.chain.link/samples/VRF/VRFv2DirectFundingConsumer.sol\":4028:4046  uint256 _betNumber */\n      0x00\n        /* \"docs.chain.link/samples/VRF/VRFv2DirectFundingConsumer.sol\":4049:4060  curr_player */\n      dup3\n        /* \"docs.chain.link/samples/VRF/VRFv2DirectFundingConsumer.sol\":4049:4070  curr_player.betNumber */\n      0x20\n      add\n      mload\n        /* \"docs.chain.link/samples/VRF/VRFv2DirectFundingConsumer.sol\":4028:4070  uint256 _betNumber = curr_player.betNumber */\n      swap1\n      pop\n        /* \"docs.chain.link/samples/VRF/VRFv2DirectFundingConsumer.sol\":4080:4116  address payable _curr_player_address */\n      0x00\n        /* \"docs.chain.link/samples/VRF/VRFv2DirectFundingConsumer.sol\":4119:4130  curr_player */\n      dup4\n        /* \"docs.chain.link/samples/VRF/VRFv2DirectFundingConsumer.sol\":4119:4144  curr_player.playerAddress */\n      0x00\n      add\n      mload\n        /* \"docs.chain.link/samples/VRF/VRFv2DirectFundingConsumer.sol\":4080:4144  address payable _curr_player_address = curr_player.playerAddress */\n      swap1\n      pop\n        /* \"docs.chain.link/samples/VRF/VRFv2DirectFundingConsumer.sol\":4154:4169  uint _betResult */\n      0x00\n        /* \"docs.chain.link/samples/VRF/VRFv2DirectFundingConsumer.sol\":4185:4186  6 */\n      0x06\n        /* \"docs.chain.link/samples/VRF/VRFv2DirectFundingConsumer.sol\":4172:4182  randomness */\n      dup7\n        /* \"docs.chain.link/samples/VRF/VRFv2DirectFundingConsumer.sol\":4172:4186  randomness % 6 */\n      tag_139\n      swap2\n      swap1\n      tag_140\n      jump\t// in\n    tag_139:\n        /* \"docs.chain.link/samples/VRF/VRFv2DirectFundingConsumer.sol\":4154:4186  uint _betResult = randomness % 6 */\n      swap1\n      pop\n        /* \"docs.chain.link/samples/VRF/VRFv2DirectFundingConsumer.sol\":4208:4218  _betResult */\n      dup1\n        /* \"docs.chain.link/samples/VRF/VRFv2DirectFundingConsumer.sol\":4196:4205  betResult */\n      0x08\n        /* \"docs.chain.link/samples/VRF/VRFv2DirectFundingConsumer.sol\":4196:4218  betResult = _betResult */\n      dup2\n      swap1\n      sstore\n      pop\n        /* \"docs.chain.link/samples/VRF/VRFv2DirectFundingConsumer.sol\":4246:4256  _betNumber */\n      dup3\n        /* \"docs.chain.link/samples/VRF/VRFv2DirectFundingConsumer.sol\":4232:4242  _betResult */\n      dup2\n        /* \"docs.chain.link/samples/VRF/VRFv2DirectFundingConsumer.sol\":4232:4256  _betResult == _betNumber */\n      eq\n        /* \"docs.chain.link/samples/VRF/VRFv2DirectFundingConsumer.sol\":4229:4464  if(_betResult == _betNumber){... */\n      iszero\n      tag_141\n      jumpi\n        /* \"docs.chain.link/samples/VRF/VRFv2DirectFundingConsumer.sol\":4271:4290  uint256 _win_amount */\n      0x00\n        /* \"docs.chain.link/samples/VRF/VRFv2DirectFundingConsumer.sol\":4305:4306  2 */\n      0x02\n        /* \"docs.chain.link/samples/VRF/VRFv2DirectFundingConsumer.sol\":4293:4303  _betAmount */\n      dup6\n        /* \"docs.chain.link/samples/VRF/VRFv2DirectFundingConsumer.sol\":4293:4306  _betAmount *2 */\n      tag_142\n      swap2\n      swap1\n      tag_143\n      jump\t// in\n    tag_142:\n        /* \"docs.chain.link/samples/VRF/VRFv2DirectFundingConsumer.sol\":4271:4306  uint256 _win_amount = _betAmount *2 */\n      swap1\n      pop\n        /* \"docs.chain.link/samples/VRF/VRFv2DirectFundingConsumer.sol\":4322:4334  bool success */\n      0x00\n        /* \"docs.chain.link/samples/VRF/VRFv2DirectFundingConsumer.sol\":4339:4359  _curr_player_address */\n      dup4\n        /* \"docs.chain.link/samples/VRF/VRFv2DirectFundingConsumer.sol\":4339:4364  _curr_player_address.call */\n      0xffffffffffffffffffffffffffffffffffffffff\n      and\n        /* \"docs.chain.link/samples/VRF/VRFv2DirectFundingConsumer.sol\":4372:4383  _win_amount */\n      dup3\n        /* \"docs.chain.link/samples/VRF/VRFv2DirectFundingConsumer.sol\":4339:4389  _curr_player_address.call{value: _win_amount} (\"\") */\n      mload(0x40)\n      tag_144\n      swap1\n      tag_145\n      jump\t// in\n    tag_144:\n      0x00\n      mload(0x40)\n      dup1\n      dup4\n      sub\n      dup2\n      dup6\n      dup8\n      gas\n      call\n      swap3\n      pop\n      pop\n      pop\n      returndatasize\n      dup1\n      0x00\n      dup2\n      eq\n      tag_148\n      jumpi\n      mload(0x40)\n      swap2\n      pop\n      and(add(returndatasize, 0x3f), not(0x1f))\n      dup3\n      add\n      0x40\n      mstore\n      returndatasize\n      dup3\n      mstore\n      returndatasize\n      0x00\n      0x20\n      dup5\n      add\n      returndatacopy\n      jump(tag_147)\n    tag_148:\n      0x60\n      swap2\n      pop\n    tag_147:\n      pop\n        /* \"docs.chain.link/samples/VRF/VRFv2DirectFundingConsumer.sol\":4321:4389  (bool success,) = _curr_player_address.call{value: _win_amount} (\"\") */\n      pop\n      swap1\n      pop\n        /* \"docs.chain.link/samples/VRF/VRFv2DirectFundingConsumer.sol\":4412:4419  success */\n      dup1\n        /* \"docs.chain.link/samples/VRF/VRFv2DirectFundingConsumer.sol\":4404:4453  require(success, \"Casino: Winning payout failed\") */\n      tag_149\n      jumpi\n      mload(0x40)\n      0x08c379a000000000000000000000000000000000000000000000000000000000\n      dup2\n      mstore\n      0x04\n      add\n      tag_150\n      swap1\n      tag_151\n      jump\t// in\n    tag_150:\n      mload(0x40)\n      dup1\n      swap2\n      sub\n      swap1\n      revert\n    tag_149:\n        /* \"docs.chain.link/samples/VRF/VRFv2DirectFundingConsumer.sol\":4257:4464  {... */\n      pop\n      pop\n        /* \"docs.chain.link/samples/VRF/VRFv2DirectFundingConsumer.sol\":4229:4464  if(_betResult == _betNumber){... */\n    tag_141:\n        /* \"docs.chain.link/samples/VRF/VRFv2DirectFundingConsumer.sol\":3598:4480  {... */\n      pop\n      pop\n      pop\n      pop\n      pop\n      pop\n        /* \"docs.chain.link/samples/VRF/VRFv2DirectFundingConsumer.sol\":3501:4480  function fulfillRandomWords(uint256 _requestId, uint256[] memory _randomWords) internal override {... */\n      pop\n      pop\n      jump\t// out\n        /* \"docs.chain.link/samples/VRF/VRFv2DirectFundingConsumer.sol\":2549:3072  function requestRandomWords() internal onlyOwner returns (uint256 requestId) {... */\n    tag_90:\n        /* \"docs.chain.link/samples/VRF/VRFv2DirectFundingConsumer.sol\":2607:2624  uint256 requestId */\n      0x00\n        /* \"@chainlink/contracts/src/v0.8/ConfirmedOwnerWithProposal.sol\":1956:1976  _validateOwnership() */\n      tag_153\n        /* \"@chainlink/contracts/src/v0.8/ConfirmedOwnerWithProposal.sol\":1956:1974  _validateOwnership */\n      tag_100\n        /* \"@chainlink/contracts/src/v0.8/ConfirmedOwnerWithProposal.sol\":1956:1976  _validateOwnership() */\n      jump\t// in\n    tag_153:\n        /* \"docs.chain.link/samples/VRF/VRFv2DirectFundingConsumer.sol\":2648:2715  requestRandomness(callbackGasLimit, requestConfirmations, numWords) */\n      tag_155\n        /* \"docs.chain.link/samples/VRF/VRFv2DirectFundingConsumer.sol\":2666:2682  callbackGasLimit */\n      0x05\n      0x00\n      swap1\n      sload\n      swap1\n      0x0100\n      exp\n      swap1\n      div\n      0xffffffff\n      and\n        /* \"docs.chain.link/samples/VRF/VRFv2DirectFundingConsumer.sol\":2684:2704  requestConfirmations */\n      0x05\n      0x04\n      swap1\n      sload\n      swap1\n      0x0100\n      exp\n      swap1\n      div\n      0xffff\n      and\n        /* \"docs.chain.link/samples/VRF/VRFv2DirectFundingConsumer.sol\":2706:2714  numWords */\n      0x05\n      0x06\n      swap1\n      sload\n      swap1\n      0x0100\n      exp\n      swap1\n      div\n      0xffffffff\n      and\n        /* \"docs.chain.link/samples/VRF/VRFv2DirectFundingConsumer.sol\":2648:2665  requestRandomness */\n      tag_156\n        /* \"docs.chain.link/samples/VRF/VRFv2DirectFundingConsumer.sol\":2648:2715  requestRandomness(callbackGasLimit, requestConfirmations, numWords) */\n      jump\t// in\n    tag_155:\n        /* \"docs.chain.link/samples/VRF/VRFv2DirectFundingConsumer.sol\":2636:2715  requestId = requestRandomness(callbackGasLimit, requestConfirmations, numWords) */\n      swap1\n      pop\n        /* \"docs.chain.link/samples/VRF/VRFv2DirectFundingConsumer.sol\":2749:2921  RequestStatus({... */\n      mload(0x40)\n      dup1\n      0x60\n      add\n      0x40\n      mstore\n      dup1\n        /* \"docs.chain.link/samples/VRF/VRFv2DirectFundingConsumer.sol\":2783:2797  VRF_V2_WRAPPER */\n      immutable(\"0xa75e2cf51d42f4164e4624f425e61448777a748393b6f6a5bcb1d94d1e8e5e98\")\n        /* \"docs.chain.link/samples/VRF/VRFv2DirectFundingConsumer.sol\":2783:2819  VRF_V2_WRAPPER.calculateRequestPrice */\n      0xffffffffffffffffffffffffffffffffffffffff\n      and\n      0x4306d354\n        /* \"docs.chain.link/samples/VRF/VRFv2DirectFundingConsumer.sol\":2820:2836  callbackGasLimit */\n      0x05\n      0x00\n      swap1\n      sload\n      swap1\n      0x0100\n      exp\n      swap1\n      div\n      0xffffffff\n      and\n        /* \"docs.chain.link/samples/VRF/VRFv2DirectFundingConsumer.sol\":2783:2837  VRF_V2_WRAPPER.calculateRequestPrice(callbackGasLimit) */\n      mload(0x40)\n      dup3\n      0xffffffff\n      and\n      0xe0\n      shl\n      dup2\n      mstore\n      0x04\n      add\n      tag_157\n      swap2\n      swap1\n      tag_158\n      jump\t// in\n    tag_157:\n      0x20\n      mload(0x40)\n      dup1\n      dup4\n      sub\n      dup2\n      dup7\n      dup1\n      extcodesize\n      iszero\n      dup1\n      iszero\n      tag_159\n      jumpi\n      0x00\n      dup1\n      revert\n    tag_159:\n      pop\n      gas\n      staticcall\n      iszero\n      dup1\n      iszero\n      tag_161\n      jumpi\n      returndatasize\n      0x00\n      dup1\n      returndatacopy\n      revert(0x00, returndatasize)\n    tag_161:\n      pop\n      pop\n      pop\n      pop\n      mload(0x40)\n      returndatasize\n      not(0x1f)\n      0x1f\n      dup3\n      add\n      and\n      dup3\n      add\n      dup1\n      0x40\n      mstore\n      pop\n      dup2\n      add\n      swap1\n      tag_162\n      swap2\n      swap1\n      tag_107\n      jump\t// in\n    tag_162:\n        /* \"docs.chain.link/samples/VRF/VRFv2DirectFundingConsumer.sol\":2749:2921  RequestStatus({... */\n      dup2\n      mstore\n      0x20\n      add\n        /* \"docs.chain.link/samples/VRF/VRFv2DirectFundingConsumer.sol\":2905:2910  false */\n      0x00\n        /* \"docs.chain.link/samples/VRF/VRFv2DirectFundingConsumer.sol\":2749:2921  RequestStatus({... */\n      iszero\n      iszero\n      dup2\n      mstore\n      0x20\n      add\n        /* \"docs.chain.link/samples/VRF/VRFv2DirectFundingConsumer.sol\":2878:2879  0 */\n      0x00\n        /* \"docs.chain.link/samples/VRF/VRFv2DirectFundingConsumer.sol\":2864:2880  new uint256[](0) */\n      0xffffffffffffffff\n      dup2\n      gt\n      iszero\n      tag_163\n      jumpi\n      tag_164\n      tag_165\n      jump\t// in\n    tag_164:\n    tag_163:\n      mload(0x40)\n      swap1\n      dup1\n      dup3\n      mstore\n      dup1\n      0x20\n      mul\n      0x20\n      add\n      dup3\n      add\n      0x40\n      mstore\n      dup1\n      iszero\n      tag_166\n      jumpi\n      dup2\n      0x20\n      add\n      0x20\n      dup3\n      mul\n      dup1\n      calldatasize\n      dup4\n      calldatacopy\n      dup1\n      dup3\n      add\n      swap2\n      pop\n      pop\n      swap1\n      pop\n    tag_166:\n      pop\n        /* \"docs.chain.link/samples/VRF/VRFv2DirectFundingConsumer.sol\":2749:2921  RequestStatus({... */\n      dup2\n      mstore\n      pop\n        /* \"docs.chain.link/samples/VRF/VRFv2DirectFundingConsumer.sol\":2725:2735  s_requests */\n      0x02\n        /* \"docs.chain.link/samples/VRF/VRFv2DirectFundingConsumer.sol\":2725:2746  s_requests[requestId] */\n      0x00\n        /* \"docs.chain.link/samples/VRF/VRFv2DirectFundingConsumer.sol\":2736:2745  requestId */\n      dup4\n        /* \"docs.chain.link/samples/VRF/VRFv2DirectFundingConsumer.sol\":2725:2746  s_requests[requestId] */\n      dup2\n      mstore\n      0x20\n      add\n      swap1\n      dup2\n      mstore\n      0x20\n      add\n      0x00\n      keccak256\n        /* \"docs.chain.link/samples/VRF/VRFv2DirectFundingConsumer.sol\":2725:2921  s_requests[requestId] = RequestStatus({... */\n      0x00\n      dup3\n      add\n      mload\n      dup2\n      0x00\n      add\n      sstore\n      0x20\n      dup3\n      add\n      mload\n      dup2\n      0x01\n      add\n      exp(0x0100, 0x00)\n      dup2\n      sload\n      dup2\n      0xff\n      mul\n      not\n      and\n      swap1\n      dup4\n      iszero\n      iszero\n      mul\n      or\n      swap1\n      sstore\n      pop\n      0x40\n      dup3\n      add\n      mload\n      dup2\n      0x02\n      add\n      swap1\n      dup1\n      mload\n      swap1\n      0x20\n      add\n      swap1\n      tag_167\n      swap3\n      swap2\n      swap1\n      tag_133\n      jump\t// in\n    tag_167:\n      pop\n      swap1\n      pop\n      pop\n        /* \"docs.chain.link/samples/VRF/VRFv2DirectFundingConsumer.sol\":2931:2941  requestIds */\n      0x03\n        /* \"docs.chain.link/samples/VRF/VRFv2DirectFundingConsumer.sol\":2947:2956  requestId */\n      dup2\n        /* \"docs.chain.link/samples/VRF/VRFv2DirectFundingConsumer.sol\":2931:2957  requestIds.push(requestId) */\n      swap1\n      dup1\n      0x01\n      dup2\n      sload\n      add\n      dup1\n      dup3\n      sstore\n      dup1\n      swap2\n      pop\n      pop\n      0x01\n      swap1\n      sub\n      swap1\n      0x00\n      mstore\n      keccak256(0x00, 0x20)\n      add\n      0x00\n      swap1\n      swap2\n      swap1\n      swap2\n      swap1\n      swap2\n      pop\n      sstore\n        /* \"docs.chain.link/samples/VRF/VRFv2DirectFundingConsumer.sol\":2983:2992  requestId */\n      dup1\n        /* \"docs.chain.link/samples/VRF/VRFv2DirectFundingConsumer.sol\":2967:2980  lastRequestId */\n      0x04\n        /* \"docs.chain.link/samples/VRF/VRFv2DirectFundingConsumer.sol\":2967:2992  lastRequestId = requestId */\n      dup2\n      swap1\n      sstore\n      pop\n        /* \"docs.chain.link/samples/VRF/VRFv2DirectFundingConsumer.sol\":3007:3039  RequestSent(requestId, numWords) */\n      0xcc58b13ad3eab50626c6a6300b1d139cd6ebb1688a7cced9461c2f7e762665ee\n        /* \"docs.chain.link/samples/VRF/VRFv2DirectFundingConsumer.sol\":3019:3028  requestId */\n      dup2\n        /* \"docs.chain.link/samples/VRF/VRFv2DirectFundingConsumer.sol\":3030:3038  numWords */\n      0x05\n      0x06\n      swap1\n      sload\n      swap1\n      0x0100\n      exp\n      swap1\n      div\n      0xffffffff\n      and\n        /* \"docs.chain.link/samples/VRF/VRFv2DirectFundingConsumer.sol\":3007:3039  RequestSent(requestId, numWords) */\n      mload(0x40)\n      tag_169\n      swap3\n      swap2\n      swap1\n      tag_170\n      jump\t// in\n    tag_169:\n      mload(0x40)\n      dup1\n      swap2\n      sub\n      swap1\n      log1\n        /* \"docs.chain.link/samples/VRF/VRFv2DirectFundingConsumer.sol\":2549:3072  function requestRandomWords() internal onlyOwner returns (uint256 requestId) {... */\n      swap1\n      jump\t// out\n        /* \"@chainlink/contracts/src/v0.8/ConfirmedOwnerWithProposal.sol\":1730:1841  function _validateOwnership() internal view {... */\n    tag_100:\n        /* \"@chainlink/contracts/src/v0.8/ConfirmedOwnerWithProposal.sol\":1802:1809  s_owner */\n      0x00\n      dup1\n      sload\n      swap1\n      0x0100\n      exp\n      swap1\n      div\n      0xffffffffffffffffffffffffffffffffffffffff\n      and\n        /* \"@chainlink/contracts/src/v0.8/ConfirmedOwnerWithProposal.sol\":1788:1809  msg.sender == s_owner */\n      0xffffffffffffffffffffffffffffffffffffffff\n      and\n        /* \"@chainlink/contracts/src/v0.8/ConfirmedOwnerWithProposal.sol\":1788:1798  msg.sender */\n      caller\n        /* \"@chainlink/contracts/src/v0.8/ConfirmedOwnerWithProposal.sol\":1788:1809  msg.sender == s_owner */\n      0xffffffffffffffffffffffffffffffffffffffff\n      and\n      eq\n        /* \"@chainlink/contracts/src/v0.8/ConfirmedOwnerWithProposal.sol\":1780:1836  require(msg.sender == s_owner, \"Only callable by owner\") */\n      tag_172\n      jumpi\n      mload(0x40)\n      0x08c379a000000000000000000000000000000000000000000000000000000000\n      dup2\n      mstore\n      0x04\n      add\n      tag_173\n      swap1\n      tag_174\n      jump\t// in\n    tag_173:\n      mload(0x40)\n      dup1\n      swap2\n      sub\n      swap1\n      revert\n    tag_172:\n        /* \"@chainlink/contracts/src/v0.8/ConfirmedOwnerWithProposal.sol\":1730:1841  function _validateOwnership() internal view {... */\n      jump\t// out\n        /* \"@chainlink/contracts/src/v0.8/ConfirmedOwnerWithProposal.sol\":1497:1685  function _transferOwnership(address to) private {... */\n    tag_128:\n        /* \"@chainlink/contracts/src/v0.8/ConfirmedOwnerWithProposal.sol\":1565:1575  msg.sender */\n      caller\n        /* \"@chainlink/contracts/src/v0.8/ConfirmedOwnerWithProposal.sol\":1559:1575  to != msg.sender */\n      0xffffffffffffffffffffffffffffffffffffffff\n      and\n        /* \"@chainlink/contracts/src/v0.8/ConfirmedOwnerWithProposal.sol\":1559:1561  to */\n      dup2\n        /* \"@chainlink/contracts/src/v0.8/ConfirmedOwnerWithProposal.sol\":1559:1575  to != msg.sender */\n      0xffffffffffffffffffffffffffffffffffffffff\n      and\n      eq\n      iszero\n        /* \"@chainlink/contracts/src/v0.8/ConfirmedOwnerWithProposal.sol\":1551:1603  require(to != msg.sender, \"Cannot transfer to self\") */\n      tag_176\n      jumpi\n      mload(0x40)\n      0x08c379a000000000000000000000000000000000000000000000000000000000\n      dup2\n      mstore\n      0x04\n      add\n      tag_177\n      swap1\n      tag_178\n      jump\t// in\n    tag_177:\n      mload(0x40)\n      dup1\n      swap2\n      sub\n      swap1\n      revert\n    tag_176:\n        /* \"@chainlink/contracts/src/v0.8/ConfirmedOwnerWithProposal.sol\":1627:1629  to */\n      dup1\n        /* \"@chainlink/contracts/src/v0.8/ConfirmedOwnerWithProposal.sol\":1610:1624  s_pendingOwner */\n      0x01\n      0x00\n        /* \"@chainlink/contracts/src/v0.8/ConfirmedOwnerWithProposal.sol\":1610:1629  s_pendingOwner = to */\n      0x0100\n      exp\n      dup2\n      sload\n      dup2\n      0xffffffffffffffffffffffffffffffffffffffff\n      mul\n      not\n      and\n      swap1\n      dup4\n      0xffffffffffffffffffffffffffffffffffffffff\n      and\n      mul\n      or\n      swap1\n      sstore\n      pop\n        /* \"@chainlink/contracts/src/v0.8/ConfirmedOwnerWithProposal.sol\":1677:1679  to */\n      dup1\n        /* \"@chainlink/contracts/src/v0.8/ConfirmedOwnerWithProposal.sol\":1641:1680  OwnershipTransferRequested(s_owner, to) */\n      0xffffffffffffffffffffffffffffffffffffffff\n      and\n        /* \"@chainlink/contracts/src/v0.8/ConfirmedOwnerWithProposal.sol\":1668:1675  s_owner */\n      0x00\n      dup1\n      sload\n      swap1\n      0x0100\n      exp\n      swap1\n      div\n      0xffffffffffffffffffffffffffffffffffffffff\n      and\n        /* \"@chainlink/contracts/src/v0.8/ConfirmedOwnerWithProposal.sol\":1641:1680  OwnershipTransferRequested(s_owner, to) */\n      0xffffffffffffffffffffffffffffffffffffffff\n      and\n      0xed8889f560326eb138920d842192f0eb3dd22b4f139c87a2c57538e05bae1278\n      mload(0x40)\n      mload(0x40)\n      dup1\n      swap2\n      sub\n      swap1\n      log3\n        /* \"@chainlink/contracts/src/v0.8/ConfirmedOwnerWithProposal.sol\":1497:1685  function _transferOwnership(address to) private {... */\n      pop\n      jump\t// out\n        /* \"@chainlink/contracts/src/v0.8/VRFV2WrapperConsumerBase.sol\":2645:3044  function requestRandomness(... */\n    tag_156:\n        /* \"@chainlink/contracts/src/v0.8/VRFV2WrapperConsumerBase.sol\":2780:2797  uint256 requestId */\n      0x00\n        /* \"@chainlink/contracts/src/v0.8/VRFV2WrapperConsumerBase.sol\":2805:2809  LINK */\n      immutable(\"0x266b1640ade99b2f22d24bd1f0c6c2736890e0398a5a0b97b63a35856ae65c2b\")\n        /* \"@chainlink/contracts/src/v0.8/VRFV2WrapperConsumerBase.sol\":2805:2825  LINK.transferAndCall */\n      0xffffffffffffffffffffffffffffffffffffffff\n      and\n      0x4000aea0\n        /* \"@chainlink/contracts/src/v0.8/VRFV2WrapperConsumerBase.sol\":2841:2855  VRF_V2_WRAPPER */\n      immutable(\"0xa75e2cf51d42f4164e4624f425e61448777a748393b6f6a5bcb1d94d1e8e5e98\")\n        /* \"@chainlink/contracts/src/v0.8/VRFV2WrapperConsumerBase.sol\":2864:2878  VRF_V2_WRAPPER */\n      immutable(\"0xa75e2cf51d42f4164e4624f425e61448777a748393b6f6a5bcb1d94d1e8e5e98\")\n        /* \"@chainlink/contracts/src/v0.8/VRFV2WrapperConsumerBase.sol\":2864:2900  VRF_V2_WRAPPER.calculateRequestPrice */\n      0xffffffffffffffffffffffffffffffffffffffff\n      and\n      0x4306d354\n        /* \"@chainlink/contracts/src/v0.8/VRFV2WrapperConsumerBase.sol\":2901:2918  _callbackGasLimit */\n      dup9\n        /* \"@chainlink/contracts/src/v0.8/VRFV2WrapperConsumerBase.sol\":2864:2919  VRF_V2_WRAPPER.calculateRequestPrice(_callbackGasLimit) */\n      mload(0x40)\n      dup3\n      0xffffffff\n      and\n      0xe0\n      shl\n      dup2\n      mstore\n      0x04\n      add\n      tag_180\n      swap2\n      swap1\n      tag_158\n      jump\t// in\n    tag_180:\n      0x20\n      mload(0x40)\n      dup1\n      dup4\n      sub\n      dup2\n      dup7\n      dup1\n      extcodesize\n      iszero\n      dup1\n      iszero\n      tag_181\n      jumpi\n      0x00\n      dup1\n      revert\n    tag_181:\n      pop\n      gas\n      staticcall\n      iszero\n      dup1\n      iszero\n      tag_183\n      jumpi\n      returndatasize\n      0x00\n      dup1\n      returndatacopy\n      revert(0x00, returndatasize)\n    tag_183:\n      pop\n      pop\n      pop\n      pop\n      mload(0x40)\n      returndatasize\n      not(0x1f)\n      0x1f\n      dup3\n      add\n      and\n      dup3\n      add\n      dup1\n      0x40\n      mstore\n      pop\n      dup2\n      add\n      swap1\n      tag_184\n      swap2\n      swap1\n      tag_107\n      jump\t// in\n    tag_184:\n        /* \"@chainlink/contracts/src/v0.8/VRFV2WrapperConsumerBase.sol\":2938:2955  _callbackGasLimit */\n      dup8\n        /* \"@chainlink/contracts/src/v0.8/VRFV2WrapperConsumerBase.sol\":2957:2978  _requestConfirmations */\n      dup8\n        /* \"@chainlink/contracts/src/v0.8/VRFV2WrapperConsumerBase.sol\":2980:2989  _numWords */\n      dup8\n        /* \"@chainlink/contracts/src/v0.8/VRFV2WrapperConsumerBase.sol\":2927:2990  abi.encode(_callbackGasLimit, _requestConfirmations, _numWords) */\n      add(0x20, mload(0x40))\n      tag_185\n      swap4\n      swap3\n      swap2\n      swap1\n      tag_186\n      jump\t// in\n    tag_185:\n      mload(0x40)\n      0x20\n      dup2\n      dup4\n      sub\n      sub\n      dup2\n      mstore\n      swap1\n      0x40\n      mstore\n        /* \"@chainlink/contracts/src/v0.8/VRFV2WrapperConsumerBase.sol\":2805:2996  LINK.transferAndCall(... */\n      mload(0x40)\n      dup5\n      0xffffffff\n      and\n      0xe0\n      shl\n      dup2\n      mstore\n      0x04\n      add\n      tag_187\n      swap4\n      swap3\n      swap2\n      swap1\n      tag_188\n      jump\t// in\n    tag_187:\n      0x20\n      mload(0x40)\n      dup1\n      dup4\n      sub\n      dup2\n      0x00\n      dup8\n      dup1\n      extcodesize\n      iszero\n      dup1\n      iszero\n      tag_189\n      jumpi\n      0x00\n      dup1\n      revert\n    tag_189:\n      pop\n      gas\n      call\n      iszero\n      dup1\n      iszero\n      tag_191\n      jumpi\n      returndatasize\n      0x00\n      dup1\n      returndatacopy\n      revert(0x00, returndatasize)\n    tag_191:\n      pop\n      pop\n      pop\n      pop\n      mload(0x40)\n      returndatasize\n      not(0x1f)\n      0x1f\n      dup3\n      add\n      and\n      dup3\n      add\n      dup1\n      0x40\n      mstore\n      pop\n      dup2\n      add\n      swap1\n      tag_192\n      swap2\n      swap1\n      tag_114\n      jump\t// in\n    tag_192:\n      pop\n        /* \"@chainlink/contracts/src/v0.8/VRFV2WrapperConsumerBase.sol\":3009:3023  VRF_V2_WRAPPER */\n      immutable(\"0xa75e2cf51d42f4164e4624f425e61448777a748393b6f6a5bcb1d94d1e8e5e98\")\n        /* \"@chainlink/contracts/src/v0.8/VRFV2WrapperConsumerBase.sol\":3009:3037  VRF_V2_WRAPPER.lastRequestId */\n      0xffffffffffffffffffffffffffffffffffffffff\n      and\n      0xfc2a88c3\n        /* \"@chainlink/contracts/src/v0.8/VRFV2WrapperConsumerBase.sol\":3009:3039  VRF_V2_WRAPPER.lastRequestId() */\n      mload(0x40)\n      dup2\n      0xffffffff\n      and\n      0xe0\n      shl\n      dup2\n      mstore\n      0x04\n      add\n      0x20\n      mload(0x40)\n      dup1\n      dup4\n      sub\n      dup2\n      dup7\n      dup1\n      extcodesize\n      iszero\n      dup1\n      iszero\n      tag_193\n      jumpi\n      0x00\n      dup1\n      revert\n    tag_193:\n      pop\n      gas\n      staticcall\n      iszero\n      dup1\n      iszero\n      tag_195\n      jumpi\n      returndatasize\n      0x00\n      dup1\n      returndatacopy\n      revert(0x00, returndatasize)\n    tag_195:\n      pop\n      pop\n      pop\n      pop\n      mload(0x40)\n      returndatasize\n      not(0x1f)\n      0x1f\n      dup3\n      add\n      and\n      dup3\n      add\n      dup1\n      0x40\n      mstore\n      pop\n      dup2\n      add\n      swap1\n      tag_196\n      swap2\n      swap1\n      tag_107\n      jump\t// in\n    tag_196:\n        /* \"@chainlink/contracts/src/v0.8/VRFV2WrapperConsumerBase.sol\":3002:3039  return VRF_V2_WRAPPER.lastRequestId() */\n      swap1\n      pop\n        /* \"@chainlink/contracts/src/v0.8/VRFV2WrapperConsumerBase.sol\":2645:3044  function requestRandomness(... */\n      swap4\n      swap3\n      pop\n      pop\n      pop\n      jump\t// out\n    tag_133:\n      dup3\n      dup1\n      sload\n      dup3\n      dup3\n      sstore\n      swap1\n      0x00\n      mstore\n      keccak256(0x00, 0x20)\n      swap1\n      dup2\n      add\n      swap3\n      dup3\n      iszero\n      tag_197\n      jumpi\n      swap2\n      0x20\n      mul\n      dup3\n      add\n    tag_198:\n      dup3\n      dup2\n      gt\n      iszero\n      tag_199\n      jumpi\n      dup3\n      mload\n      dup3\n      sstore\n      swap2\n      0x20\n      add\n      swap2\n      swap1\n      0x01\n      add\n      swap1\n      jump(tag_198)\n    tag_199:\n    tag_197:\n      pop\n      swap1\n      pop\n      tag_200\n      swap2\n      swap1\n      tag_201\n      jump\t// in\n    tag_200:\n      pop\n      swap1\n      jump\t// out\n    tag_201:\n    tag_202:\n      dup1\n      dup3\n      gt\n      iszero\n      tag_203\n      jumpi\n      0x00\n      dup2\n      0x00\n      swap1\n      sstore\n      pop\n      0x01\n      add\n      jump(tag_202)\n    tag_203:\n      pop\n      swap1\n      jump\t// out\n        /* \"#utility.yul\":24:746   */\n    tag_205:\n        /* \"#utility.yul\":120:125   */\n      0x00\n        /* \"#utility.yul\":145:226   */\n      tag_207\n        /* \"#utility.yul\":161:225   */\n      tag_208\n        /* \"#utility.yul\":218:224   */\n      dup5\n        /* \"#utility.yul\":161:225   */\n      tag_209\n      jump\t// in\n    tag_208:\n        /* \"#utility.yul\":145:226   */\n      tag_210\n      jump\t// in\n    tag_207:\n        /* \"#utility.yul\":136:226   */\n      swap1\n      pop\n        /* \"#utility.yul\":246:251   */\n      dup1\n        /* \"#utility.yul\":275:281   */\n      dup4\n        /* \"#utility.yul\":268:273   */\n      dup3\n        /* \"#utility.yul\":261:282   */\n      mstore\n        /* \"#utility.yul\":309:313   */\n      0x20\n        /* \"#utility.yul\":302:307   */\n      dup3\n        /* \"#utility.yul\":298:314   */\n      add\n        /* \"#utility.yul\":291:314   */\n      swap1\n      pop\n        /* \"#utility.yul\":335:341   */\n      dup3\n        /* \"#utility.yul\":385:388   */\n      dup6\n        /* \"#utility.yul\":377:381   */\n      0x20\n        /* \"#utility.yul\":369:375   */\n      dup7\n        /* \"#utility.yul\":365:382   */\n      mul\n        /* \"#utility.yul\":360:363   */\n      dup3\n        /* \"#utility.yul\":356:383   */\n      add\n        /* \"#utility.yul\":353:389   */\n      gt\n        /* \"#utility.yul\":350:493   */\n      iszero\n      tag_211\n      jumpi\n        /* \"#utility.yul\":404:483   */\n      tag_212\n      tag_213\n      jump\t// in\n    tag_212:\n        /* \"#utility.yul\":350:493   */\n    tag_211:\n        /* \"#utility.yul\":517:518   */\n      0x00\n        /* \"#utility.yul\":502:740   */\n    tag_214:\n        /* \"#utility.yul\":527:533   */\n      dup6\n        /* \"#utility.yul\":524:525   */\n      dup2\n        /* \"#utility.yul\":521:534   */\n      lt\n        /* \"#utility.yul\":502:740   */\n      iszero\n      tag_216\n      jumpi\n        /* \"#utility.yul\":595:598   */\n      dup2\n        /* \"#utility.yul\":624:661   */\n      tag_217\n        /* \"#utility.yul\":657:660   */\n      dup9\n        /* \"#utility.yul\":645:655   */\n      dup3\n        /* \"#utility.yul\":624:661   */\n      tag_218\n      jump\t// in\n    tag_217:\n        /* \"#utility.yul\":619:622   */\n      dup5\n        /* \"#utility.yul\":612:662   */\n      mstore\n        /* \"#utility.yul\":691:695   */\n      0x20\n        /* \"#utility.yul\":686:689   */\n      dup5\n        /* \"#utility.yul\":682:696   */\n      add\n        /* \"#utility.yul\":675:696   */\n      swap4\n      pop\n        /* \"#utility.yul\":725:729   */\n      0x20\n        /* \"#utility.yul\":720:723   */\n      dup4\n        /* \"#utility.yul\":716:730   */\n      add\n        /* \"#utility.yul\":709:730   */\n      swap3\n      pop\n        /* \"#utility.yul\":562:740   */\n      pop\n        /* \"#utility.yul\":549:550   */\n      0x01\n        /* \"#utility.yul\":546:547   */\n      dup2\n        /* \"#utility.yul\":542:551   */\n      add\n        /* \"#utility.yul\":537:551   */\n      swap1\n      pop\n        /* \"#utility.yul\":502:740   */\n      jump(tag_214)\n    tag_216:\n        /* \"#utility.yul\":506:520   */\n      pop\n        /* \"#utility.yul\":126:746   */\n      pop\n      pop\n        /* \"#utility.yul\":24:746   */\n      swap4\n      swap3\n      pop\n      pop\n      pop\n      jump\t// out\n        /* \"#utility.yul\":752:891   */\n    tag_219:\n        /* \"#utility.yul\":798:803   */\n      0x00\n        /* \"#utility.yul\":836:842   */\n      dup2\n        /* \"#utility.yul\":823:843   */\n      calldataload\n        /* \"#utility.yul\":814:843   */\n      swap1\n      pop\n        /* \"#utility.yul\":852:885   */\n      tag_221\n        /* \"#utility.yul\":879:884   */\n      dup2\n        /* \"#utility.yul\":852:885   */\n      tag_222\n      jump\t// in\n    tag_221:\n        /* \"#utility.yul\":752:891   */\n      swap3\n      swap2\n      pop\n      pop\n      jump\t// out\n        /* \"#utility.yul\":914:1284   */\n    tag_223:\n        /* \"#utility.yul\":985:990   */\n      0x00\n        /* \"#utility.yul\":1034:1037   */\n      dup3\n        /* \"#utility.yul\":1027:1031   */\n      0x1f\n        /* \"#utility.yul\":1019:1025   */\n      dup4\n        /* \"#utility.yul\":1015:1032   */\n      add\n        /* \"#utility.yul\":1011:1038   */\n      slt\n        /* \"#utility.yul\":1001:1123   */\n      tag_225\n      jumpi\n        /* \"#utility.yul\":1042:1121   */\n      tag_226\n      tag_227\n      jump\t// in\n    tag_226:\n        /* \"#utility.yul\":1001:1123   */\n    tag_225:\n        /* \"#utility.yul\":1159:1165   */\n      dup2\n        /* \"#utility.yul\":1146:1166   */\n      calldataload\n        /* \"#utility.yul\":1184:1278   */\n      tag_228\n        /* \"#utility.yul\":1274:1277   */\n      dup5\n        /* \"#utility.yul\":1266:1272   */\n      dup3\n        /* \"#utility.yul\":1259:1263   */\n      0x20\n        /* \"#utility.yul\":1251:1257   */\n      dup7\n        /* \"#utility.yul\":1247:1264   */\n      add\n        /* \"#utility.yul\":1184:1278   */\n      tag_205\n      jump\t// in\n    tag_228:\n        /* \"#utility.yul\":1175:1278   */\n      swap2\n      pop\n        /* \"#utility.yul\":991:1284   */\n      pop\n        /* \"#utility.yul\":914:1284   */\n      swap3\n      swap2\n      pop\n      pop\n      jump\t// out\n        /* \"#utility.yul\":1290:1427   */\n    tag_229:\n        /* \"#utility.yul\":1344:1349   */\n      0x00\n        /* \"#utility.yul\":1375:1381   */\n      dup2\n        /* \"#utility.yul\":1369:1382   */\n      mload\n        /* \"#utility.yul\":1360:1382   */\n      swap1\n      pop\n        /* \"#utility.yul\":1391:1421   */\n      tag_231\n        /* \"#utility.yul\":1415:1420   */\n      dup2\n        /* \"#utility.yul\":1391:1421   */\n      tag_232\n      jump\t// in\n    tag_231:\n        /* \"#utility.yul\":1290:1427   */\n      swap3\n      swap2\n      pop\n      pop\n      jump\t// out\n        /* \"#utility.yul\":1433:1572   */\n    tag_218:\n        /* \"#utility.yul\":1479:1484   */\n      0x00\n        /* \"#utility.yul\":1517:1523   */\n      dup2\n        /* \"#utility.yul\":1504:1524   */\n      calldataload\n        /* \"#utility.yul\":1495:1524   */\n      swap1\n      pop\n        /* \"#utility.yul\":1533:1566   */\n      tag_234\n        /* \"#utility.yul\":1560:1565   */\n      dup2\n        /* \"#utility.yul\":1533:1566   */\n      tag_235\n      jump\t// in\n    tag_234:\n        /* \"#utility.yul\":1433:1572   */\n      swap3\n      swap2\n      pop\n      pop\n      jump\t// out\n        /* \"#utility.yul\":1578:1721   */\n    tag_236:\n        /* \"#utility.yul\":1635:1640   */\n      0x00\n        /* \"#utility.yul\":1666:1672   */\n      dup2\n        /* \"#utility.yul\":1660:1673   */\n      mload\n        /* \"#utility.yul\":1651:1673   */\n      swap1\n      pop\n        /* \"#utility.yul\":1682:1715   */\n      tag_238\n        /* \"#utility.yul\":1709:1714   */\n      dup2\n        /* \"#utility.yul\":1682:1715   */\n      tag_235\n      jump\t// in\n    tag_238:\n        /* \"#utility.yul\":1578:1721   */\n      swap3\n      swap2\n      pop\n      pop\n      jump\t// out\n        /* \"#utility.yul\":1727:2056   */\n    tag_72:\n        /* \"#utility.yul\":1786:1792   */\n      0x00\n        /* \"#utility.yul\":1835:1837   */\n      0x20\n        /* \"#utility.yul\":1823:1832   */\n      dup3\n        /* \"#utility.yul\":1814:1821   */\n      dup5\n        /* \"#utility.yul\":1810:1833   */\n      sub\n        /* \"#utility.yul\":1806:1838   */\n      slt\n        /* \"#utility.yul\":1803:1922   */\n      iszero\n      tag_240\n      jumpi\n        /* \"#utility.yul\":1841:1920   */\n      tag_241\n      tag_242\n      jump\t// in\n    tag_241:\n        /* \"#utility.yul\":1803:1922   */\n    tag_240:\n        /* \"#utility.yul\":1961:1962   */\n      0x00\n        /* \"#utility.yul\":1986:2039   */\n      tag_243\n        /* \"#utility.yul\":2031:2038   */\n      dup5\n        /* \"#utility.yul\":2022:2028   */\n      dup3\n        /* \"#utility.yul\":2011:2020   */\n      dup6\n        /* \"#utility.yul\":2007:2029   */\n      add\n        /* \"#utility.yul\":1986:2039   */\n      tag_219\n      jump\t// in\n    tag_243:\n        /* \"#utility.yul\":1976:2039   */\n      swap2\n      pop\n        /* \"#utility.yul\":1932:2049   */\n      pop\n        /* \"#utility.yul\":1727:2056   */\n      swap3\n      swap2\n      pop\n      pop\n      jump\t// out\n        /* \"#utility.yul\":2062:2407   */\n    tag_114:\n        /* \"#utility.yul\":2129:2135   */\n      0x00\n        /* \"#utility.yul\":2178:2180   */\n      0x20\n        /* \"#utility.yul\":2166:2175   */\n      dup3\n        /* \"#utility.yul\":2157:2164   */\n      dup5\n        /* \"#utility.yul\":2153:2176   */\n      sub\n        /* \"#utility.yul\":2149:2181   */\n      slt\n        /* \"#utility.yul\":2146:2265   */\n      iszero\n      tag_245\n      jumpi\n        /* \"#utility.yul\":2184:2263   */\n      tag_246\n      tag_242\n      jump\t// in\n    tag_246:\n        /* \"#utility.yul\":2146:2265   */\n    tag_245:\n        /* \"#utility.yul\":2304:2305   */\n      0x00\n        /* \"#utility.yul\":2329:2390   */\n      tag_247\n        /* \"#utility.yul\":2382:2389   */\n      dup5\n        /* \"#utility.yul\":2373:2379   */\n      dup3\n        /* \"#utility.yul\":2362:2371   */\n      dup6\n        /* \"#utility.yul\":2358:2380   */\n      add\n        /* \"#utility.yul\":2329:2390   */\n      tag_229\n      jump\t// in\n    tag_247:\n        /* \"#utility.yul\":2319:2390   */\n      swap2\n      pop\n        /* \"#utility.yul\":2275:2400   */\n      pop\n        /* \"#utility.yul\":2062:2407   */\n      swap3\n      swap2\n      pop\n      pop\n      jump\t// out\n        /* \"#utility.yul\":2413:2742   */\n    tag_30:\n        /* \"#utility.yul\":2472:2478   */\n      0x00\n        /* \"#utility.yul\":2521:2523   */\n      0x20\n        /* \"#utility.yul\":2509:2518   */\n      dup3\n        /* \"#utility.yul\":2500:2507   */\n      dup5\n        /* \"#utility.yul\":2496:2519   */\n      sub\n        /* \"#utility.yul\":2492:2524   */\n      slt\n        /* \"#utility.yul\":2489:2608   */\n      iszero\n      tag_249\n      jumpi\n        /* \"#utility.yul\":2527:2606   */\n      tag_250\n      tag_242\n      jump\t// in\n    tag_250:\n        /* \"#utility.yul\":2489:2608   */\n    tag_249:\n        /* \"#utility.yul\":2647:2648   */\n      0x00\n        /* \"#utility.yul\":2672:2725   */\n      tag_251\n        /* \"#utility.yul\":2717:2724   */\n      dup5\n        /* \"#utility.yul\":2708:2714   */\n      dup3\n        /* \"#utility.yul\":2697:2706   */\n      dup6\n        /* \"#utility.yul\":2693:2715   */\n      add\n        /* \"#utility.yul\":2672:2725   */\n      tag_218\n      jump\t// in\n    tag_251:\n        /* \"#utility.yul\":2662:2725   */\n      swap2\n      pop\n        /* \"#utility.yul\":2618:2735   */\n      pop\n        /* \"#utility.yul\":2413:2742   */\n      swap3\n      swap2\n      pop\n      pop\n      jump\t// out\n        /* \"#utility.yul\":2748:3099   */\n    tag_107:\n        /* \"#utility.yul\":2818:2824   */\n      0x00\n        /* \"#utility.yul\":2867:2869   */\n      0x20\n        /* \"#utility.yul\":2855:2864   */\n      dup3\n        /* \"#utility.yul\":2846:2853   */\n      dup5\n        /* \"#utility.yul\":2842:2865   */\n      sub\n        /* \"#utility.yul\":2838:2870   */\n      slt\n        /* \"#utility.yul\":2835:2954   */\n      iszero\n      tag_253\n      jumpi\n        /* \"#utility.yul\":2873:2952   */\n      tag_254\n      tag_242\n      jump\t// in\n    tag_254:\n        /* \"#utility.yul\":2835:2954   */\n    tag_253:\n        /* \"#utility.yul\":2993:2994   */\n      0x00\n        /* \"#utility.yul\":3018:3082   */\n      tag_255\n        /* \"#utility.yul\":3074:3081   */\n      dup5\n        /* \"#utility.yul\":3065:3071   */\n      dup3\n        /* \"#utility.yul\":3054:3063   */\n      dup6\n        /* \"#utility.yul\":3050:3072   */\n      add\n        /* \"#utility.yul\":3018:3082   */\n      tag_236\n      jump\t// in\n    tag_255:\n        /* \"#utility.yul\":3008:3082   */\n      swap2\n      pop\n        /* \"#utility.yul\":2964:3092   */\n      pop\n        /* \"#utility.yul\":2748:3099   */\n      swap3\n      swap2\n      pop\n      pop\n      jump\t// out\n        /* \"#utility.yul\":3105:3789   */\n    tag_20:\n        /* \"#utility.yul\":3198:3204   */\n      0x00\n        /* \"#utility.yul\":3206:3212   */\n      dup1\n        /* \"#utility.yul\":3255:3257   */\n      0x40\n        /* \"#utility.yul\":3243:3252   */\n      dup4\n        /* \"#utility.yul\":3234:3241   */\n      dup6\n        /* \"#utility.yul\":3230:3253   */\n      sub\n        /* \"#utility.yul\":3226:3258   */\n      slt\n        /* \"#utility.yul\":3223:3342   */\n      iszero\n      tag_257\n      jumpi\n        /* \"#utility.yul\":3261:3340   */\n      tag_258\n      tag_242\n      jump\t// in\n    tag_258:\n        /* \"#utility.yul\":3223:3342   */\n    tag_257:\n        /* \"#utility.yul\":3381:3382   */\n      0x00\n        /* \"#utility.yul\":3406:3459   */\n      tag_259\n        /* \"#utility.yul\":3451:3458   */\n      dup6\n        /* \"#utility.yul\":3442:3448   */\n      dup3\n        /* \"#utility.yul\":3431:3440   */\n      dup7\n        /* \"#utility.yul\":3427:3449   */\n      add\n        /* \"#utility.yul\":3406:3459   */\n      tag_218\n      jump\t// in\n    tag_259:\n        /* \"#utility.yul\":3396:3459   */\n      swap3\n      pop\n        /* \"#utility.yul\":3352:3469   */\n      pop\n        /* \"#utility.yul\":3536:3538   */\n      0x20\n        /* \"#utility.yul\":3525:3534   */\n      dup4\n        /* \"#utility.yul\":3521:3539   */\n      add\n        /* \"#utility.yul\":3508:3540   */\n      calldataload\n        /* \"#utility.yul\":3567:3585   */\n      0xffffffffffffffff\n        /* \"#utility.yul\":3559:3565   */\n      dup2\n        /* \"#utility.yul\":3556:3586   */\n      gt\n        /* \"#utility.yul\":3553:3670   */\n      iszero\n      tag_260\n      jumpi\n        /* \"#utility.yul\":3589:3668   */\n      tag_261\n      tag_262\n      jump\t// in\n    tag_261:\n        /* \"#utility.yul\":3553:3670   */\n    tag_260:\n        /* \"#utility.yul\":3694:3772   */\n      tag_263\n        /* \"#utility.yul\":3764:3771   */\n      dup6\n        /* \"#utility.yul\":3755:3761   */\n      dup3\n        /* \"#utility.yul\":3744:3753   */\n      dup7\n        /* \"#utility.yul\":3740:3762   */\n      add\n        /* \"#utility.yul\":3694:3772   */\n      tag_223\n      jump\t// in\n    tag_263:\n        /* \"#utility.yul\":3684:3772   */\n      swap2\n      pop\n        /* \"#utility.yul\":3479:3782   */\n      pop\n        /* \"#utility.yul\":3105:3789   */\n      swap3\n      pop\n      swap3\n      swap1\n      pop\n      jump\t// out\n        /* \"#utility.yul\":3795:3974   */\n    tag_264:\n        /* \"#utility.yul\":3864:3874   */\n      0x00\n        /* \"#utility.yul\":3885:3931   */\n      tag_266\n        /* \"#utility.yul\":3927:3930   */\n      dup4\n        /* \"#utility.yul\":3919:3925   */\n      dup4\n        /* \"#utility.yul\":3885:3931   */\n      tag_267\n      jump\t// in\n    tag_266:\n        /* \"#utility.yul\":3963:3967   */\n      0x20\n        /* \"#utility.yul\":3958:3961   */\n      dup4\n        /* \"#utility.yul\":3954:3968   */\n      add\n        /* \"#utility.yul\":3940:3968   */\n      swap1\n      pop\n        /* \"#utility.yul\":3795:3974   */\n      swap3\n      swap2\n      pop\n      pop\n      jump\t// out\n        /* \"#utility.yul\":3980:4122   */\n    tag_268:\n        /* \"#utility.yul\":4083:4115   */\n      tag_270\n        /* \"#utility.yul\":4109:4114   */\n      dup2\n        /* \"#utility.yul\":4083:4115   */\n      tag_271\n      jump\t// in\n    tag_270:\n        /* \"#utility.yul\":4078:4081   */\n      dup3\n        /* \"#utility.yul\":4071:4116   */\n      mstore\n        /* \"#utility.yul\":3980:4122   */\n      pop\n      pop\n      jump\t// out\n        /* \"#utility.yul\":4128:4246   */\n    tag_272:\n        /* \"#utility.yul\":4215:4239   */\n      tag_274\n        /* \"#utility.yul\":4233:4238   */\n      dup2\n        /* \"#utility.yul\":4215:4239   */\n      tag_275\n      jump\t// in\n    tag_274:\n        /* \"#utility.yul\":4210:4213   */\n      dup3\n        /* \"#utility.yul\":4203:4240   */\n      mstore\n        /* \"#utility.yul\":4128:4246   */\n      pop\n      pop\n      jump\t// out\n        /* \"#utility.yul\":4282:5014   */\n    tag_276:\n        /* \"#utility.yul\":4401:4404   */\n      0x00\n        /* \"#utility.yul\":4430:4484   */\n      tag_278\n        /* \"#utility.yul\":4478:4483   */\n      dup3\n        /* \"#utility.yul\":4430:4484   */\n      tag_279\n      jump\t// in\n    tag_278:\n        /* \"#utility.yul\":4500:4586   */\n      tag_280\n        /* \"#utility.yul\":4579:4585   */\n      dup2\n        /* \"#utility.yul\":4574:4577   */\n      dup6\n        /* \"#utility.yul\":4500:4586   */\n      tag_281\n      jump\t// in\n    tag_280:\n        /* \"#utility.yul\":4493:4586   */\n      swap4\n      pop\n        /* \"#utility.yul\":4610:4666   */\n      tag_282\n        /* \"#utility.yul\":4660:4665   */\n      dup4\n        /* \"#utility.yul\":4610:4666   */\n      tag_283\n      jump\t// in\n    tag_282:\n        /* \"#utility.yul\":4689:4696   */\n      dup1\n        /* \"#utility.yul\":4720:4721   */\n      0x00\n        /* \"#utility.yul\":4705:4989   */\n    tag_284:\n        /* \"#utility.yul\":4730:4736   */\n      dup4\n        /* \"#utility.yul\":4727:4728   */\n      dup2\n        /* \"#utility.yul\":4724:4737   */\n      lt\n        /* \"#utility.yul\":4705:4989   */\n      iszero\n      tag_286\n      jumpi\n        /* \"#utility.yul\":4806:4812   */\n      dup2\n        /* \"#utility.yul\":4800:4813   */\n      mload\n        /* \"#utility.yul\":4833:4896   */\n      tag_287\n        /* \"#utility.yul\":4892:4895   */\n      dup9\n        /* \"#utility.yul\":4877:4890   */\n      dup3\n        /* \"#utility.yul\":4833:4896   */\n      tag_264\n      jump\t// in\n    tag_287:\n        /* \"#utility.yul\":4826:4896   */\n      swap8\n      pop\n        /* \"#utility.yul\":4919:4979   */\n      tag_288\n        /* \"#utility.yul\":4972:4978   */\n      dup4\n        /* \"#utility.yul\":4919:4979   */\n      tag_289\n      jump\t// in\n    tag_288:\n        /* \"#utility.yul\":4909:4979   */\n      swap3\n      pop\n        /* \"#utility.yul\":4765:4989   */\n      pop\n        /* \"#utility.yul\":4752:4753   */\n      0x01\n        /* \"#utility.yul\":4749:4750   */\n      dup2\n        /* \"#utility.yul\":4745:4754   */\n      add\n        /* \"#utility.yul\":4740:4754   */\n      swap1\n      pop\n        /* \"#utility.yul\":4705:4989   */\n      jump(tag_284)\n    tag_286:\n        /* \"#utility.yul\":4709:4723   */\n      pop\n        /* \"#utility.yul\":5005:5008   */\n      dup6\n        /* \"#utility.yul\":4998:5008   */\n      swap4\n      pop\n        /* \"#utility.yul\":4406:5014   */\n      pop\n      pop\n      pop\n        /* \"#utility.yul\":4282:5014   */\n      swap3\n      swap2\n      pop\n      pop\n      jump\t// out\n        /* \"#utility.yul\":5020:5129   */\n    tag_290:\n        /* \"#utility.yul\":5101:5122   */\n      tag_292\n        /* \"#utility.yul\":5116:5121   */\n      dup2\n        /* \"#utility.yul\":5101:5122   */\n      tag_293\n      jump\t// in\n    tag_292:\n        /* \"#utility.yul\":5096:5099   */\n      dup3\n        /* \"#utility.yul\":5089:5123   */\n      mstore\n        /* \"#utility.yul\":5020:5129   */\n      pop\n      pop\n      jump\t// out\n        /* \"#utility.yul\":5135:5495   */\n    tag_294:\n        /* \"#utility.yul\":5221:5224   */\n      0x00\n        /* \"#utility.yul\":5249:5287   */\n      tag_296\n        /* \"#utility.yul\":5281:5286   */\n      dup3\n        /* \"#utility.yul\":5249:5287   */\n      tag_297\n      jump\t// in\n    tag_296:\n        /* \"#utility.yul\":5303:5373   */\n      tag_298\n        /* \"#utility.yul\":5366:5372   */\n      dup2\n        /* \"#utility.yul\":5361:5364   */\n      dup6\n        /* \"#utility.yul\":5303:5373   */\n      tag_299\n      jump\t// in\n    tag_298:\n        /* \"#utility.yul\":5296:5373   */\n      swap4\n      pop\n        /* \"#utility.yul\":5382:5434   */\n      tag_300\n        /* \"#utility.yul\":5427:5433   */\n      dup2\n        /* \"#utility.yul\":5422:5425   */\n      dup6\n        /* \"#utility.yul\":5415:5419   */\n      0x20\n        /* \"#utility.yul\":5408:5413   */\n      dup7\n        /* \"#utility.yul\":5404:5420   */\n      add\n        /* \"#utility.yul\":5382:5434   */\n      tag_301\n      jump\t// in\n    tag_300:\n        /* \"#utility.yul\":5459:5488   */\n      tag_302\n        /* \"#utility.yul\":5481:5487   */\n      dup2\n        /* \"#utility.yul\":5459:5488   */\n      tag_303\n      jump\t// in\n    tag_302:\n        /* \"#utility.yul\":5454:5457   */\n      dup5\n        /* \"#utility.yul\":5450:5489   */\n      add\n        /* \"#utility.yul\":5443:5489   */\n      swap2\n      pop\n        /* \"#utility.yul\":5225:5495   */\n      pop\n        /* \"#utility.yul\":5135:5495   */\n      swap3\n      swap2\n      pop\n      pop\n      jump\t// out\n        /* \"#utility.yul\":5501:5867   */\n    tag_304:\n        /* \"#utility.yul\":5643:5646   */\n      0x00\n        /* \"#utility.yul\":5664:5731   */\n      tag_306\n        /* \"#utility.yul\":5728:5730   */\n      0x11\n        /* \"#utility.yul\":5723:5726   */\n      dup4\n        /* \"#utility.yul\":5664:5731   */\n      tag_307\n      jump\t// in\n    tag_306:\n        /* \"#utility.yul\":5657:5731   */\n      swap2\n      pop\n        /* \"#utility.yul\":5740:5833   */\n      tag_308\n        /* \"#utility.yul\":5829:5832   */\n      dup3\n        /* \"#utility.yul\":5740:5833   */\n      tag_309\n      jump\t// in\n    tag_308:\n        /* \"#utility.yul\":5858:5860   */\n      0x20\n        /* \"#utility.yul\":5853:5856   */\n      dup3\n        /* \"#utility.yul\":5849:5861   */\n      add\n        /* \"#utility.yul\":5842:5861   */\n      swap1\n      pop\n        /* \"#utility.yul\":5501:5867   */\n      swap2\n      swap1\n      pop\n      jump\t// out\n        /* \"#utility.yul\":5873:6239   */\n    tag_310:\n        /* \"#utility.yul\":6015:6018   */\n      0x00\n        /* \"#utility.yul\":6036:6103   */\n      tag_312\n        /* \"#utility.yul\":6100:6102   */\n      0x16\n        /* \"#utility.yul\":6095:6098   */\n      dup4\n        /* \"#utility.yul\":6036:6103   */\n      tag_307\n      jump\t// in\n    tag_312:\n        /* \"#utility.yul\":6029:6103   */\n      swap2\n      pop\n        /* \"#utility.yul\":6112:6205   */\n      tag_313\n        /* \"#utility.yul\":6201:6204   */\n      dup3\n        /* \"#utility.yul\":6112:6205   */\n      tag_314\n      jump\t// in\n    tag_313:\n        /* \"#utility.yul\":6230:6232   */\n      0x20\n        /* \"#utility.yul\":6225:6228   */\n      dup3\n        /* \"#utility.yul\":6221:6233   */\n      add\n        /* \"#utility.yul\":6214:6233   */\n      swap1\n      pop\n        /* \"#utility.yul\":5873:6239   */\n      swap2\n      swap1\n      pop\n      jump\t// out\n        /* \"#utility.yul\":6245:6611   */\n    tag_315:\n        /* \"#utility.yul\":6387:6390   */\n      0x00\n        /* \"#utility.yul\":6408:6475   */\n      tag_317\n        /* \"#utility.yul\":6472:6474   */\n      0x16\n        /* \"#utility.yul\":6467:6470   */\n      dup4\n        /* \"#utility.yul\":6408:6475   */\n      tag_307\n      jump\t// in\n    tag_317:\n        /* \"#utility.yul\":6401:6475   */\n      swap2\n      pop\n        /* \"#utility.yul\":6484:6577   */\n      tag_318\n        /* \"#utility.yul\":6573:6576   */\n      dup3\n        /* \"#utility.yul\":6484:6577   */\n      tag_319\n      jump\t// in\n    tag_318:\n        /* \"#utility.yul\":6602:6604   */\n      0x20\n        /* \"#utility.yul\":6597:6600   */\n      dup3\n        /* \"#utility.yul\":6593:6605   */\n      add\n        /* \"#utility.yul\":6586:6605   */\n      swap1\n      pop\n        /* \"#utility.yul\":6245:6611   */\n      swap2\n      swap1\n      pop\n      jump\t// out\n        /* \"#utility.yul\":6617:6983   */\n    tag_320:\n        /* \"#utility.yul\":6759:6762   */\n      0x00\n        /* \"#utility.yul\":6780:6847   */\n      tag_322\n        /* \"#utility.yul\":6844:6846   */\n      0x1d\n        /* \"#utility.yul\":6839:6842   */\n      dup4\n        /* \"#utility.yul\":6780:6847   */\n      tag_307\n      jump\t// in\n    tag_322:\n        /* \"#utility.yul\":6773:6847   */\n      swap2\n      pop\n        /* \"#utility.yul\":6856:6949   */\n      tag_323\n        /* \"#utility.yul\":6945:6948   */\n      dup3\n        /* \"#utility.yul\":6856:6949   */\n      tag_324\n      jump\t// in\n    tag_323:\n        /* \"#utility.yul\":6974:6976   */\n      0x20\n        /* \"#utility.yul\":6969:6972   */\n      dup3\n        /* \"#utility.yul\":6965:6977   */\n      add\n        /* \"#utility.yul\":6958:6977   */\n      swap1\n      pop\n        /* \"#utility.yul\":6617:6983   */\n      swap2\n      swap1\n      pop\n      jump\t// out\n        /* \"#utility.yul\":6989:7355   */\n    tag_325:\n        /* \"#utility.yul\":7131:7134   */\n      0x00\n        /* \"#utility.yul\":7152:7219   */\n      tag_327\n        /* \"#utility.yul\":7216:7218   */\n      0x1c\n        /* \"#utility.yul\":7211:7214   */\n      dup4\n        /* \"#utility.yul\":7152:7219   */\n      tag_307\n      jump\t// in\n    tag_327:\n        /* \"#utility.yul\":7145:7219   */\n      swap2\n      pop\n        /* \"#utility.yul\":7228:7321   */\n      tag_328\n        /* \"#utility.yul\":7317:7320   */\n      dup3\n        /* \"#utility.yul\":7228:7321   */\n      tag_329\n      jump\t// in\n    tag_328:\n        /* \"#utility.yul\":7346:7348   */\n      0x20\n        /* \"#utility.yul\":7341:7344   */\n      dup3\n        /* \"#utility.yul\":7337:7349   */\n      add\n        /* \"#utility.yul\":7330:7349   */\n      swap1\n      pop\n        /* \"#utility.yul\":6989:7355   */\n      swap2\n      swap1\n      pop\n      jump\t// out\n        /* \"#utility.yul\":7361:7727   */\n    tag_330:\n        /* \"#utility.yul\":7503:7506   */\n      0x00\n        /* \"#utility.yul\":7524:7591   */\n      tag_332\n        /* \"#utility.yul\":7588:7590   */\n      0x12\n        /* \"#utility.yul\":7583:7586   */\n      dup4\n        /* \"#utility.yul\":7524:7591   */\n      tag_307\n      jump\t// in\n    tag_332:\n        /* \"#utility.yul\":7517:7591   */\n      swap2\n      pop\n        /* \"#utility.yul\":7600:7693   */\n      tag_333\n        /* \"#utility.yul\":7689:7692   */\n      dup3\n        /* \"#utility.yul\":7600:7693   */\n      tag_334\n      jump\t// in\n    tag_333:\n        /* \"#utility.yul\":7718:7720   */\n      0x20\n        /* \"#utility.yul\":7713:7716   */\n      dup3\n        /* \"#utility.yul\":7709:7721   */\n      add\n        /* \"#utility.yul\":7702:7721   */\n      swap1\n      pop\n        /* \"#utility.yul\":7361:7727   */\n      swap2\n      swap1\n      pop\n      jump\t// out\n        /* \"#utility.yul\":7733:8131   */\n    tag_335:\n        /* \"#utility.yul\":7892:7895   */\n      0x00\n        /* \"#utility.yul\":7913:7996   */\n      tag_337\n        /* \"#utility.yul\":7994:7995   */\n      0x00\n        /* \"#utility.yul\":7989:7992   */\n      dup4\n        /* \"#utility.yul\":7913:7996   */\n      tag_338\n      jump\t// in\n    tag_337:\n        /* \"#utility.yul\":7906:7996   */\n      swap2\n      pop\n        /* \"#utility.yul\":8005:8098   */\n      tag_339\n        /* \"#utility.yul\":8094:8097   */\n      dup3\n        /* \"#utility.yul\":8005:8098   */\n      tag_340\n      jump\t// in\n    tag_339:\n        /* \"#utility.yul\":8123:8124   */\n      0x00\n        /* \"#utility.yul\":8118:8121   */\n      dup3\n        /* \"#utility.yul\":8114:8125   */\n      add\n        /* \"#utility.yul\":8107:8125   */\n      swap1\n      pop\n        /* \"#utility.yul\":7733:8131   */\n      swap2\n      swap1\n      pop\n      jump\t// out\n        /* \"#utility.yul\":8137:8503   */\n    tag_341:\n        /* \"#utility.yul\":8279:8282   */\n      0x00\n        /* \"#utility.yul\":8300:8367   */\n      tag_343\n        /* \"#utility.yul\":8364:8366   */\n      0x17\n        /* \"#utility.yul\":8359:8362   */\n      dup4\n        /* \"#utility.yul\":8300:8367   */\n      tag_307\n      jump\t// in\n    tag_343:\n        /* \"#utility.yul\":8293:8367   */\n      swap2\n      pop\n        /* \"#utility.yul\":8376:8469   */\n      tag_344\n        /* \"#utility.yul\":8465:8468   */\n      dup3\n        /* \"#utility.yul\":8376:8469   */\n      tag_345\n      jump\t// in\n    tag_344:\n        /* \"#utility.yul\":8494:8496   */\n      0x20\n        /* \"#utility.yul\":8489:8492   */\n      dup3\n        /* \"#utility.yul\":8485:8497   */\n      add\n        /* \"#utility.yul\":8478:8497   */\n      swap1\n      pop\n        /* \"#utility.yul\":8137:8503   */\n      swap2\n      swap1\n      pop\n      jump\t// out\n        /* \"#utility.yul\":8509:8875   */\n    tag_346:\n        /* \"#utility.yul\":8651:8654   */\n      0x00\n        /* \"#utility.yul\":8672:8739   */\n      tag_348\n        /* \"#utility.yul\":8736:8738   */\n      0x1f\n        /* \"#utility.yul\":8731:8734   */\n      dup4\n        /* \"#utility.yul\":8672:8739   */\n      tag_307\n      jump\t// in\n    tag_348:\n        /* \"#utility.yul\":8665:8739   */\n      swap2\n      pop\n        /* \"#utility.yul\":8748:8841   */\n      tag_349\n        /* \"#utility.yul\":8837:8840   */\n      dup3\n        /* \"#utility.yul\":8748:8841   */\n      tag_350\n      jump\t// in\n    tag_349:\n        /* \"#utility.yul\":8866:8868   */\n      0x20\n        /* \"#utility.yul\":8861:8864   */\n      dup3\n        /* \"#utility.yul\":8857:8869   */\n      add\n        /* \"#utility.yul\":8850:8869   */\n      swap1\n      pop\n        /* \"#utility.yul\":8509:8875   */\n      swap2\n      swap1\n      pop\n      jump\t// out\n        /* \"#utility.yul\":8881:8996   */\n    tag_351:\n        /* \"#utility.yul\":8966:8989   */\n      tag_353\n        /* \"#utility.yul\":8983:8988   */\n      dup2\n        /* \"#utility.yul\":8966:8989   */\n      tag_354\n      jump\t// in\n    tag_353:\n        /* \"#utility.yul\":8961:8964   */\n      dup3\n        /* \"#utility.yul\":8954:8990   */\n      mstore\n        /* \"#utility.yul\":8881:8996   */\n      pop\n      pop\n      jump\t// out\n        /* \"#utility.yul\":9002:9110   */\n    tag_267:\n        /* \"#utility.yul\":9079:9103   */\n      tag_356\n        /* \"#utility.yul\":9097:9102   */\n      dup2\n        /* \"#utility.yul\":9079:9103   */\n      tag_357\n      jump\t// in\n    tag_356:\n        /* \"#utility.yul\":9074:9077   */\n      dup3\n        /* \"#utility.yul\":9067:9104   */\n      mstore\n        /* \"#utility.yul\":9002:9110   */\n      pop\n      pop\n      jump\t// out\n        /* \"#utility.yul\":9116:9234   */\n    tag_358:\n        /* \"#utility.yul\":9203:9227   */\n      tag_360\n        /* \"#utility.yul\":9221:9226   */\n      dup2\n        /* \"#utility.yul\":9203:9227   */\n      tag_357\n      jump\t// in\n    tag_360:\n        /* \"#utility.yul\":9198:9201   */\n      dup3\n        /* \"#utility.yul\":9191:9228   */\n      mstore\n        /* \"#utility.yul\":9116:9234   */\n      pop\n      pop\n      jump\t// out\n        /* \"#utility.yul\":9240:9355   */\n    tag_361:\n        /* \"#utility.yul\":9325:9348   */\n      tag_363\n        /* \"#utility.yul\":9342:9347   */\n      dup2\n        /* \"#utility.yul\":9325:9348   */\n      tag_364\n      jump\t// in\n    tag_363:\n        /* \"#utility.yul\":9320:9323   */\n      dup3\n        /* \"#utility.yul\":9313:9349   */\n      mstore\n        /* \"#utility.yul\":9240:9355   */\n      pop\n      pop\n      jump\t// out\n        /* \"#utility.yul\":9361:9740   */\n    tag_145:\n        /* \"#utility.yul\":9545:9548   */\n      0x00\n        /* \"#utility.yul\":9567:9714   */\n      tag_366\n        /* \"#utility.yul\":9710:9713   */\n      dup3\n        /* \"#utility.yul\":9567:9714   */\n      tag_335\n      jump\t// in\n    tag_366:\n        /* \"#utility.yul\":9560:9714   */\n      swap2\n      pop\n        /* \"#utility.yul\":9731:9734   */\n      dup2\n        /* \"#utility.yul\":9724:9734   */\n      swap1\n      pop\n        /* \"#utility.yul\":9361:9740   */\n      swap2\n      swap1\n      pop\n      jump\t// out\n        /* \"#utility.yul\":9746:9968   */\n    tag_49:\n        /* \"#utility.yul\":9839:9843   */\n      0x00\n        /* \"#utility.yul\":9877:9879   */\n      0x20\n        /* \"#utility.yul\":9866:9875   */\n      dup3\n        /* \"#utility.yul\":9862:9880   */\n      add\n        /* \"#utility.yul\":9854:9880   */\n      swap1\n      pop\n        /* \"#utility.yul\":9890:9961   */\n      tag_368\n        /* \"#utility.yul\":9958:9959   */\n      0x00\n        /* \"#utility.yul\":9947:9956   */\n      dup4\n        /* \"#utility.yul\":9943:9960   */\n      add\n        /* \"#utility.yul\":9934:9940   */\n      dup5\n        /* \"#utility.yul\":9890:9961   */\n      tag_272\n      jump\t// in\n    tag_368:\n        /* \"#utility.yul\":9746:9968   */\n      swap3\n      swap2\n      pop\n      pop\n      jump\t// out\n        /* \"#utility.yul\":9974:10448   */\n    tag_33:\n        /* \"#utility.yul\":10139:10143   */\n      0x00\n        /* \"#utility.yul\":10177:10179   */\n      0x60\n        /* \"#utility.yul\":10166:10175   */\n      dup3\n        /* \"#utility.yul\":10162:10180   */\n      add\n        /* \"#utility.yul\":10154:10180   */\n      swap1\n      pop\n        /* \"#utility.yul\":10190:10277   */\n      tag_370\n        /* \"#utility.yul\":10274:10275   */\n      0x00\n        /* \"#utility.yul\":10263:10272   */\n      dup4\n        /* \"#utility.yul\":10259:10276   */\n      add\n        /* \"#utility.yul\":10250:10256   */\n      dup7\n        /* \"#utility.yul\":10190:10277   */\n      tag_268\n      jump\t// in\n    tag_370:\n        /* \"#utility.yul\":10287:10359   */\n      tag_371\n        /* \"#utility.yul\":10355:10357   */\n      0x20\n        /* \"#utility.yul\":10344:10353   */\n      dup4\n        /* \"#utility.yul\":10340:10358   */\n      add\n        /* \"#utility.yul\":10331:10337   */\n      dup6\n        /* \"#utility.yul\":10287:10359   */\n      tag_358\n      jump\t// in\n    tag_371:\n        /* \"#utility.yul\":10369:10441   */\n      tag_372\n        /* \"#utility.yul\":10437:10439   */\n      0x40\n        /* \"#utility.yul\":10426:10435   */\n      dup4\n        /* \"#utility.yul\":10422:10440   */\n      add\n        /* \"#utility.yul\":10413:10419   */\n      dup5\n        /* \"#utility.yul\":10369:10441   */\n      tag_358\n      jump\t// in\n    tag_372:\n        /* \"#utility.yul\":9974:10448   */\n      swap5\n      swap4\n      pop\n      pop\n      pop\n      pop\n      jump\t// out\n        /* \"#utility.yul\":10454:10786   */\n    tag_109:\n        /* \"#utility.yul\":10575:10579   */\n      0x00\n        /* \"#utility.yul\":10613:10615   */\n      0x40\n        /* \"#utility.yul\":10602:10611   */\n      dup3\n        /* \"#utility.yul\":10598:10616   */\n      add\n        /* \"#utility.yul\":10590:10616   */\n      swap1\n      pop\n        /* \"#utility.yul\":10626:10697   */\n      tag_374\n        /* \"#utility.yul\":10694:10695   */\n      0x00\n        /* \"#utility.yul\":10683:10692   */\n      dup4\n        /* \"#utility.yul\":10679:10696   */\n      add\n        /* \"#utility.yul\":10670:10676   */\n      dup6\n        /* \"#utility.yul\":10626:10697   */\n      tag_272\n      jump\t// in\n    tag_374:\n        /* \"#utility.yul\":10707:10779   */\n      tag_375\n        /* \"#utility.yul\":10775:10777   */\n      0x20\n        /* \"#utility.yul\":10764:10773   */\n      dup4\n        /* \"#utility.yul\":10760:10778   */\n      add\n        /* \"#utility.yul\":10751:10757   */\n      dup5\n        /* \"#utility.yul\":10707:10779   */\n      tag_358\n      jump\t// in\n    tag_375:\n        /* \"#utility.yul\":10454:10786   */\n      swap4\n      swap3\n      pop\n      pop\n      pop\n      jump\t// out\n        /* \"#utility.yul\":10792:11321   */\n    tag_188:\n        /* \"#utility.yul\":10959:10963   */\n      0x00\n        /* \"#utility.yul\":10997:10999   */\n      0x60\n        /* \"#utility.yul\":10986:10995   */\n      dup3\n        /* \"#utility.yul\":10982:11000   */\n      add\n        /* \"#utility.yul\":10974:11000   */\n      swap1\n      pop\n        /* \"#utility.yul\":11010:11081   */\n      tag_377\n        /* \"#utility.yul\":11078:11079   */\n      0x00\n        /* \"#utility.yul\":11067:11076   */\n      dup4\n        /* \"#utility.yul\":11063:11080   */\n      add\n        /* \"#utility.yul\":11054:11060   */\n      dup7\n        /* \"#utility.yul\":11010:11081   */\n      tag_272\n      jump\t// in\n    tag_377:\n        /* \"#utility.yul\":11091:11163   */\n      tag_378\n        /* \"#utility.yul\":11159:11161   */\n      0x20\n        /* \"#utility.yul\":11148:11157   */\n      dup4\n        /* \"#utility.yul\":11144:11162   */\n      add\n        /* \"#utility.yul\":11135:11141   */\n      dup6\n        /* \"#utility.yul\":11091:11163   */\n      tag_358\n      jump\t// in\n    tag_378:\n        /* \"#utility.yul\":11210:11219   */\n      dup2\n        /* \"#utility.yul\":11204:11208   */\n      dup2\n        /* \"#utility.yul\":11200:11220   */\n      sub\n        /* \"#utility.yul\":11195:11197   */\n      0x40\n        /* \"#utility.yul\":11184:11193   */\n      dup4\n        /* \"#utility.yul\":11180:11198   */\n      add\n        /* \"#utility.yul\":11173:11221   */\n      mstore\n        /* \"#utility.yul\":11238:11314   */\n      tag_379\n        /* \"#utility.yul\":11309:11313   */\n      dup2\n        /* \"#utility.yul\":11300:11306   */\n      dup5\n        /* \"#utility.yul\":11238:11314   */\n      tag_294\n      jump\t// in\n    tag_379:\n        /* \"#utility.yul\":11230:11314   */\n      swap1\n      pop\n        /* \"#utility.yul\":10792:11321   */\n      swap5\n      swap4\n      pop\n      pop\n      pop\n      pop\n      jump\t// out\n        /* \"#utility.yul\":11327:11746   */\n    tag_121:\n        /* \"#utility.yul\":11493:11497   */\n      0x00\n        /* \"#utility.yul\":11531:11533   */\n      0x20\n        /* \"#utility.yul\":11520:11529   */\n      dup3\n        /* \"#utility.yul\":11516:11534   */\n      add\n        /* \"#utility.yul\":11508:11534   */\n      swap1\n      pop\n        /* \"#utility.yul\":11580:11589   */\n      dup2\n        /* \"#utility.yul\":11574:11578   */\n      dup2\n        /* \"#utility.yul\":11570:11590   */\n      sub\n        /* \"#utility.yul\":11566:11567   */\n      0x00\n        /* \"#utility.yul\":11555:11564   */\n      dup4\n        /* \"#utility.yul\":11551:11568   */\n      add\n        /* \"#utility.yul\":11544:11591   */\n      mstore\n        /* \"#utility.yul\":11608:11739   */\n      tag_381\n        /* \"#utility.yul\":11734:11738   */\n      dup2\n        /* \"#utility.yul\":11608:11739   */\n      tag_304\n      jump\t// in\n    tag_381:\n        /* \"#utility.yul\":11600:11739   */\n      swap1\n      pop\n        /* \"#utility.yul\":11327:11746   */\n      swap2\n      swap1\n      pop\n      jump\t// out\n        /* \"#utility.yul\":11752:12171   */\n    tag_94:\n        /* \"#utility.yul\":11918:11922   */\n      0x00\n        /* \"#utility.yul\":11956:11958   */\n      0x20\n        /* \"#utility.yul\":11945:11954   */\n      dup3\n        /* \"#utility.yul\":11941:11959   */\n      add\n        /* \"#utility.yul\":11933:11959   */\n      swap1\n      pop\n        /* \"#utility.yul\":12005:12014   */\n      dup2\n        /* \"#utility.yul\":11999:12003   */\n      dup2\n        /* \"#utility.yul\":11995:12015   */\n      sub\n        /* \"#utility.yul\":11991:11992   */\n      0x00\n        /* \"#utility.yul\":11980:11989   */\n      dup4\n        /* \"#utility.yul\":11976:11993   */\n      add\n        /* \"#utility.yul\":11969:12016   */\n      mstore\n        /* \"#utility.yul\":12033:12164   */\n      tag_383\n        /* \"#utility.yul\":12159:12163   */\n      dup2\n        /* \"#utility.yul\":12033:12164   */\n      tag_310\n      jump\t// in\n    tag_383:\n        /* \"#utility.yul\":12025:12164   */\n      swap1\n      pop\n        /* \"#utility.yul\":11752:12171   */\n      swap2\n      swap1\n      pop\n      jump\t// out\n        /* \"#utility.yul\":12177:12596   */\n    tag_174:\n        /* \"#utility.yul\":12343:12347   */\n      0x00\n        /* \"#utility.yul\":12381:12383   */\n      0x20\n        /* \"#utility.yul\":12370:12379   */\n      dup3\n        /* \"#utility.yul\":12366:12384   */\n      add\n        /* \"#utility.yul\":12358:12384   */\n      swap1\n      pop\n        /* \"#utility.yul\":12430:12439   */\n      dup2\n        /* \"#utility.yul\":12424:12428   */\n      dup2\n        /* \"#utility.yul\":12420:12440   */\n      sub\n        /* \"#utility.yul\":12416:12417   */\n      0x00\n        /* \"#utility.yul\":12405:12414   */\n      dup4\n        /* \"#utility.yul\":12401:12418   */\n      add\n        /* \"#utility.yul\":12394:12441   */\n      mstore\n        /* \"#utility.yul\":12458:12589   */\n      tag_385\n        /* \"#utility.yul\":12584:12588   */\n      dup2\n        /* \"#utility.yul\":12458:12589   */\n      tag_315\n      jump\t// in\n    tag_385:\n        /* \"#utility.yul\":12450:12589   */\n      swap1\n      pop\n        /* \"#utility.yul\":12177:12596   */\n      swap2\n      swap1\n      pop\n      jump\t// out\n        /* \"#utility.yul\":12602:13021   */\n    tag_151:\n        /* \"#utility.yul\":12768:12772   */\n      0x00\n        /* \"#utility.yul\":12806:12808   */\n      0x20\n        /* \"#utility.yul\":12795:12804   */\n      dup3\n        /* \"#utility.yul\":12791:12809   */\n      add\n        /* \"#utility.yul\":12783:12809   */\n      swap1\n      pop\n        /* \"#utility.yul\":12855:12864   */\n      dup2\n        /* \"#utility.yul\":12849:12853   */\n      dup2\n        /* \"#utility.yul\":12845:12865   */\n      sub\n        /* \"#utility.yul\":12841:12842   */\n      0x00\n        /* \"#utility.yul\":12830:12839   */\n      dup4\n        /* \"#utility.yul\":12826:12843   */\n      add\n        /* \"#utility.yul\":12819:12866   */\n      mstore\n        /* \"#utility.yul\":12883:13014   */\n      tag_387\n        /* \"#utility.yul\":13009:13013   */\n      dup2\n        /* \"#utility.yul\":12883:13014   */\n      tag_320\n      jump\t// in\n    tag_387:\n        /* \"#utility.yul\":12875:13014   */\n      swap1\n      pop\n        /* \"#utility.yul\":12602:13021   */\n      swap2\n      swap1\n      pop\n      jump\t// out\n        /* \"#utility.yul\":13027:13446   */\n    tag_88:\n        /* \"#utility.yul\":13193:13197   */\n      0x00\n        /* \"#utility.yul\":13231:13233   */\n      0x20\n        /* \"#utility.yul\":13220:13229   */\n      dup3\n        /* \"#utility.yul\":13216:13234   */\n      add\n        /* \"#utility.yul\":13208:13234   */\n      swap1\n      pop\n        /* \"#utility.yul\":13280:13289   */\n      dup2\n        /* \"#utility.yul\":13274:13278   */\n      dup2\n        /* \"#utility.yul\":13270:13290   */\n      sub\n        /* \"#utility.yul\":13266:13267   */\n      0x00\n        /* \"#utility.yul\":13255:13264   */\n      dup4\n        /* \"#utility.yul\":13251:13268   */\n      add\n        /* \"#utility.yul\":13244:13291   */\n      mstore\n        /* \"#utility.yul\":13308:13439   */\n      tag_389\n        /* \"#utility.yul\":13434:13438   */\n      dup2\n        /* \"#utility.yul\":13308:13439   */\n      tag_325\n      jump\t// in\n    tag_389:\n        /* \"#utility.yul\":13300:13439   */\n      swap1\n      pop\n        /* \"#utility.yul\":13027:13446   */\n      swap2\n      swap1\n      pop\n      jump\t// out\n        /* \"#utility.yul\":13452:13871   */\n    tag_117:\n        /* \"#utility.yul\":13618:13622   */\n      0x00\n        /* \"#utility.yul\":13656:13658   */\n      0x20\n        /* \"#utility.yul\":13645:13654   */\n      dup3\n        /* \"#utility.yul\":13641:13659   */\n      add\n        /* \"#utility.yul\":13633:13659   */\n      swap1\n      pop\n        /* \"#utility.yul\":13705:13714   */\n      dup2\n        /* \"#utility.yul\":13699:13703   */\n      dup2\n        /* \"#utility.yul\":13695:13715   */\n      sub\n        /* \"#utility.yul\":13691:13692   */\n      0x00\n        /* \"#utility.yul\":13680:13689   */\n      dup4\n        /* \"#utility.yul\":13676:13693   */\n      add\n        /* \"#utility.yul\":13669:13716   */\n      mstore\n        /* \"#utility.yul\":13733:13864   */\n      tag_391\n        /* \"#utility.yul\":13859:13863   */\n      dup2\n        /* \"#utility.yul\":13733:13864   */\n      tag_330\n      jump\t// in\n    tag_391:\n        /* \"#utility.yul\":13725:13864   */\n      swap1\n      pop\n        /* \"#utility.yul\":13452:13871   */\n      swap2\n      swap1\n      pop\n      jump\t// out\n        /* \"#utility.yul\":13877:14296   */\n    tag_178:\n        /* \"#utility.yul\":14043:14047   */\n      0x00\n        /* \"#utility.yul\":14081:14083   */\n      0x20\n        /* \"#utility.yul\":14070:14079   */\n      dup3\n        /* \"#utility.yul\":14066:14084   */\n      add\n        /* \"#utility.yul\":14058:14084   */\n      swap1\n      pop\n        /* \"#utility.yul\":14130:14139   */\n      dup2\n        /* \"#utility.yul\":14124:14128   */\n      dup2\n        /* \"#utility.yul\":14120:14140   */\n      sub\n        /* \"#utility.yul\":14116:14117   */\n      0x00\n        /* \"#utility.yul\":14105:14114   */\n      dup4\n        /* \"#utility.yul\":14101:14118   */\n      add\n        /* \"#utility.yul\":14094:14141   */\n      mstore\n        /* \"#utility.yul\":14158:14289   */\n      tag_393\n        /* \"#utility.yul\":14284:14288   */\n      dup2\n        /* \"#utility.yul\":14158:14289   */\n      tag_341\n      jump\t// in\n    tag_393:\n        /* \"#utility.yul\":14150:14289   */\n      swap1\n      pop\n        /* \"#utility.yul\":13877:14296   */\n      swap2\n      swap1\n      pop\n      jump\t// out\n        /* \"#utility.yul\":14302:14721   */\n    tag_81:\n        /* \"#utility.yul\":14468:14472   */\n      0x00\n        /* \"#utility.yul\":14506:14508   */\n      0x20\n        /* \"#utility.yul\":14495:14504   */\n      dup3\n        /* \"#utility.yul\":14491:14509   */\n      add\n        /* \"#utility.yul\":14483:14509   */\n      swap1\n      pop\n        /* \"#utility.yul\":14555:14564   */\n      dup2\n        /* \"#utility.yul\":14549:14553   */\n      dup2\n        /* \"#utility.yul\":14545:14565   */\n      sub\n        /* \"#utility.yul\":14541:14542   */\n      0x00\n        /* \"#utility.yul\":14530:14539   */\n      dup4\n        /* \"#utility.yul\":14526:14543   */\n      add\n        /* \"#utility.yul\":14519:14566   */\n      mstore\n        /* \"#utility.yul\":14583:14714   */\n      tag_395\n        /* \"#utility.yul\":14709:14713   */\n      dup2\n        /* \"#utility.yul\":14583:14714   */\n      tag_346\n      jump\t// in\n    tag_395:\n        /* \"#utility.yul\":14575:14714   */\n      swap1\n      pop\n        /* \"#utility.yul\":14302:14721   */\n      swap2\n      swap1\n      pop\n      jump\t// out\n        /* \"#utility.yul\":14727:14949   */\n    tag_26:\n        /* \"#utility.yul\":14820:14824   */\n      0x00\n        /* \"#utility.yul\":14858:14860   */\n      0x20\n        /* \"#utility.yul\":14847:14856   */\n      dup3\n        /* \"#utility.yul\":14843:14861   */\n      add\n        /* \"#utility.yul\":14835:14861   */\n      swap1\n      pop\n        /* \"#utility.yul\":14871:14942   */\n      tag_397\n        /* \"#utility.yul\":14939:14940   */\n      0x00\n        /* \"#utility.yul\":14928:14937   */\n      dup4\n        /* \"#utility.yul\":14924:14941   */\n      add\n        /* \"#utility.yul\":14915:14921   */\n      dup5\n        /* \"#utility.yul\":14871:14942   */\n      tag_358\n      jump\t// in\n    tag_397:\n        /* \"#utility.yul\":14727:14949   */\n      swap3\n      swap2\n      pop\n      pop\n      jump\t// out\n        /* \"#utility.yul\":14955:15548   */\n    tag_135:\n        /* \"#utility.yul\":15154:15158   */\n      0x00\n        /* \"#utility.yul\":15192:15194   */\n      0x60\n        /* \"#utility.yul\":15181:15190   */\n      dup3\n        /* \"#utility.yul\":15177:15195   */\n      add\n        /* \"#utility.yul\":15169:15195   */\n      swap1\n      pop\n        /* \"#utility.yul\":15205:15276   */\n      tag_399\n        /* \"#utility.yul\":15273:15274   */\n      0x00\n        /* \"#utility.yul\":15262:15271   */\n      dup4\n        /* \"#utility.yul\":15258:15275   */\n      add\n        /* \"#utility.yul\":15249:15255   */\n      dup7\n        /* \"#utility.yul\":15205:15276   */\n      tag_358\n      jump\t// in\n    tag_399:\n        /* \"#utility.yul\":15323:15332   */\n      dup2\n        /* \"#utility.yul\":15317:15321   */\n      dup2\n        /* \"#utility.yul\":15313:15333   */\n      sub\n        /* \"#utility.yul\":15308:15310   */\n      0x20\n        /* \"#utility.yul\":15297:15306   */\n      dup4\n        /* \"#utility.yul\":15293:15311   */\n      add\n        /* \"#utility.yul\":15286:15334   */\n      mstore\n        /* \"#utility.yul\":15351:15459   */\n      tag_400\n        /* \"#utility.yul\":15454:15458   */\n      dup2\n        /* \"#utility.yul\":15445:15451   */\n      dup6\n        /* \"#utility.yul\":15351:15459   */\n      tag_276\n      jump\t// in\n    tag_400:\n        /* \"#utility.yul\":15343:15459   */\n      swap1\n      pop\n        /* \"#utility.yul\":15469:15541   */\n      tag_401\n        /* \"#utility.yul\":15537:15539   */\n      0x40\n        /* \"#utility.yul\":15526:15535   */\n      dup4\n        /* \"#utility.yul\":15522:15540   */\n      add\n        /* \"#utility.yul\":15513:15519   */\n      dup5\n        /* \"#utility.yul\":15469:15541   */\n      tag_358\n      jump\t// in\n    tag_401:\n        /* \"#utility.yul\":14955:15548   */\n      swap5\n      swap4\n      pop\n      pop\n      pop\n      pop\n      jump\t// out\n        /* \"#utility.yul\":15554:15874   */\n    tag_58:\n        /* \"#utility.yul\":15669:15673   */\n      0x00\n        /* \"#utility.yul\":15707:15709   */\n      0x40\n        /* \"#utility.yul\":15696:15705   */\n      dup3\n        /* \"#utility.yul\":15692:15710   */\n      add\n        /* \"#utility.yul\":15684:15710   */\n      swap1\n      pop\n        /* \"#utility.yul\":15720:15791   */\n      tag_403\n        /* \"#utility.yul\":15788:15789   */\n      0x00\n        /* \"#utility.yul\":15777:15786   */\n      dup4\n        /* \"#utility.yul\":15773:15790   */\n      add\n        /* \"#utility.yul\":15764:15770   */\n      dup6\n        /* \"#utility.yul\":15720:15791   */\n      tag_358\n      jump\t// in\n    tag_403:\n        /* \"#utility.yul\":15801:15867   */\n      tag_404\n        /* \"#utility.yul\":15863:15865   */\n      0x20\n        /* \"#utility.yul\":15852:15861   */\n      dup4\n        /* \"#utility.yul\":15848:15866   */\n      add\n        /* \"#utility.yul\":15839:15845   */\n      dup5\n        /* \"#utility.yul\":15801:15867   */\n      tag_290\n      jump\t// in\n    tag_404:\n        /* \"#utility.yul\":15554:15874   */\n      swap4\n      swap3\n      pop\n      pop\n      pop\n      jump\t// out\n        /* \"#utility.yul\":15880:16461   */\n    tag_68:\n        /* \"#utility.yul\":16073:16077   */\n      0x00\n        /* \"#utility.yul\":16111:16113   */\n      0x60\n        /* \"#utility.yul\":16100:16109   */\n      dup3\n        /* \"#utility.yul\":16096:16114   */\n      add\n        /* \"#utility.yul\":16088:16114   */\n      swap1\n      pop\n        /* \"#utility.yul\":16124:16195   */\n      tag_406\n        /* \"#utility.yul\":16192:16193   */\n      0x00\n        /* \"#utility.yul\":16181:16190   */\n      dup4\n        /* \"#utility.yul\":16177:16194   */\n      add\n        /* \"#utility.yul\":16168:16174   */\n      dup7\n        /* \"#utility.yul\":16124:16195   */\n      tag_358\n      jump\t// in\n    tag_406:\n        /* \"#utility.yul\":16205:16271   */\n      tag_407\n        /* \"#utility.yul\":16267:16269   */\n      0x20\n        /* \"#utility.yul\":16256:16265   */\n      dup4\n        /* \"#utility.yul\":16252:16270   */\n      add\n        /* \"#utility.yul\":16243:16249   */\n      dup6\n        /* \"#utility.yul\":16205:16271   */\n      tag_290\n      jump\t// in\n    tag_407:\n        /* \"#utility.yul\":16318:16327   */\n      dup2\n        /* \"#utility.yul\":16312:16316   */\n      dup2\n        /* \"#utility.yul\":16308:16328   */\n      sub\n        /* \"#utility.yul\":16303:16305   */\n      0x40\n        /* \"#utility.yul\":16292:16301   */\n      dup4\n        /* \"#utility.yul\":16288:16306   */\n      add\n        /* \"#utility.yul\":16281:16329   */\n      mstore\n        /* \"#utility.yul\":16346:16454   */\n      tag_408\n        /* \"#utility.yul\":16449:16453   */\n      dup2\n        /* \"#utility.yul\":16440:16446   */\n      dup5\n        /* \"#utility.yul\":16346:16454   */\n      tag_276\n      jump\t// in\n    tag_408:\n        /* \"#utility.yul\":16338:16454   */\n      swap1\n      pop\n        /* \"#utility.yul\":15880:16461   */\n      swap5\n      swap4\n      pop\n      pop\n      pop\n      pop\n      jump\t// out\n        /* \"#utility.yul\":16467:16795   */\n    tag_170:\n        /* \"#utility.yul\":16586:16590   */\n      0x00\n        /* \"#utility.yul\":16624:16626   */\n      0x40\n        /* \"#utility.yul\":16613:16622   */\n      dup3\n        /* \"#utility.yul\":16609:16627   */\n      add\n        /* \"#utility.yul\":16601:16627   */\n      swap1\n      pop\n        /* \"#utility.yul\":16637:16708   */\n      tag_410\n        /* \"#utility.yul\":16705:16706   */\n      0x00\n        /* \"#utility.yul\":16694:16703   */\n      dup4\n        /* \"#utility.yul\":16690:16707   */\n      add\n        /* \"#utility.yul\":16681:16687   */\n      dup6\n        /* \"#utility.yul\":16637:16708   */\n      tag_358\n      jump\t// in\n    tag_410:\n        /* \"#utility.yul\":16718:16788   */\n      tag_411\n        /* \"#utility.yul\":16784:16786   */\n      0x20\n        /* \"#utility.yul\":16773:16782   */\n      dup4\n        /* \"#utility.yul\":16769:16787   */\n      add\n        /* \"#utility.yul\":16760:16766   */\n      dup5\n        /* \"#utility.yul\":16718:16788   */\n      tag_361\n      jump\t// in\n    tag_411:\n        /* \"#utility.yul\":16467:16795   */\n      swap4\n      swap3\n      pop\n      pop\n      pop\n      jump\t// out\n        /* \"#utility.yul\":16801:17019   */\n    tag_158:\n        /* \"#utility.yul\":16892:16896   */\n      0x00\n        /* \"#utility.yul\":16930:16932   */\n      0x20\n        /* \"#utility.yul\":16919:16928   */\n      dup3\n        /* \"#utility.yul\":16915:16933   */\n      add\n        /* \"#utility.yul\":16907:16933   */\n      swap1\n      pop\n        /* \"#utility.yul\":16943:17012   */\n      tag_413\n        /* \"#utility.yul\":17009:17010   */\n      0x00\n        /* \"#utility.yul\":16998:17007   */\n      dup4\n        /* \"#utility.yul\":16994:17011   */\n      add\n        /* \"#utility.yul\":16985:16991   */\n      dup5\n        /* \"#utility.yul\":16943:17012   */\n      tag_361\n      jump\t// in\n    tag_413:\n        /* \"#utility.yul\":16801:17019   */\n      swap3\n      swap2\n      pop\n      pop\n      jump\t// out\n        /* \"#utility.yul\":17025:17455   */\n    tag_186:\n        /* \"#utility.yul\":17168:17172   */\n      0x00\n        /* \"#utility.yul\":17206:17208   */\n      0x60\n        /* \"#utility.yul\":17195:17204   */\n      dup3\n        /* \"#utility.yul\":17191:17209   */\n      add\n        /* \"#utility.yul\":17183:17209   */\n      swap1\n      pop\n        /* \"#utility.yul\":17219:17288   */\n      tag_415\n        /* \"#utility.yul\":17285:17286   */\n      0x00\n        /* \"#utility.yul\":17274:17283   */\n      dup4\n        /* \"#utility.yul\":17270:17287   */\n      add\n        /* \"#utility.yul\":17261:17267   */\n      dup7\n        /* \"#utility.yul\":17219:17288   */\n      tag_361\n      jump\t// in\n    tag_415:\n        /* \"#utility.yul\":17298:17368   */\n      tag_416\n        /* \"#utility.yul\":17364:17366   */\n      0x20\n        /* \"#utility.yul\":17353:17362   */\n      dup4\n        /* \"#utility.yul\":17349:17367   */\n      add\n        /* \"#utility.yul\":17340:17346   */\n      dup6\n        /* \"#utility.yul\":17298:17368   */\n      tag_351\n      jump\t// in\n    tag_416:\n        /* \"#utility.yul\":17378:17448   */\n      tag_417\n        /* \"#utility.yul\":17444:17446   */\n      0x40\n        /* \"#utility.yul\":17433:17442   */\n      dup4\n        /* \"#utility.yul\":17429:17447   */\n      add\n        /* \"#utility.yul\":17420:17426   */\n      dup5\n        /* \"#utility.yul\":17378:17448   */\n      tag_361\n      jump\t// in\n    tag_417:\n        /* \"#utility.yul\":17025:17455   */\n      swap5\n      swap4\n      pop\n      pop\n      pop\n      pop\n      jump\t// out\n        /* \"#utility.yul\":17461:17590   */\n    tag_210:\n        /* \"#utility.yul\":17495:17501   */\n      0x00\n        /* \"#utility.yul\":17522:17542   */\n      tag_419\n      tag_420\n      jump\t// in\n    tag_419:\n        /* \"#utility.yul\":17512:17542   */\n      swap1\n      pop\n        /* \"#utility.yul\":17551:17584   */\n      tag_421\n        /* \"#utility.yul\":17579:17583   */\n      dup3\n        /* \"#utility.yul\":17571:17577   */\n      dup3\n        /* \"#utility.yul\":17551:17584   */\n      tag_422\n      jump\t// in\n    tag_421:\n        /* \"#utility.yul\":17461:17590   */\n      swap2\n      swap1\n      pop\n      jump\t// out\n        /* \"#utility.yul\":17596:17671   */\n    tag_420:\n        /* \"#utility.yul\":17629:17635   */\n      0x00\n        /* \"#utility.yul\":17662:17664   */\n      0x40\n        /* \"#utility.yul\":17656:17665   */\n      mload\n        /* \"#utility.yul\":17646:17665   */\n      swap1\n      pop\n        /* \"#utility.yul\":17596:17671   */\n      swap1\n      jump\t// out\n        /* \"#utility.yul\":17677:17988   */\n    tag_209:\n        /* \"#utility.yul\":17754:17758   */\n      0x00\n        /* \"#utility.yul\":17844:17862   */\n      0xffffffffffffffff\n        /* \"#utility.yul\":17836:17842   */\n      dup3\n        /* \"#utility.yul\":17833:17863   */\n      gt\n        /* \"#utility.yul\":17830:17886   */\n      iszero\n      tag_425\n      jumpi\n        /* \"#utility.yul\":17866:17884   */\n      tag_426\n      tag_165\n      jump\t// in\n    tag_426:\n        /* \"#utility.yul\":17830:17886   */\n    tag_425:\n        /* \"#utility.yul\":17916:17920   */\n      0x20\n        /* \"#utility.yul\":17908:17914   */\n      dup3\n        /* \"#utility.yul\":17904:17921   */\n      mul\n        /* \"#utility.yul\":17896:17921   */\n      swap1\n      pop\n        /* \"#utility.yul\":17976:17980   */\n      0x20\n        /* \"#utility.yul\":17970:17974   */\n      dup2\n        /* \"#utility.yul\":17966:17981   */\n      add\n        /* \"#utility.yul\":17958:17981   */\n      swap1\n      pop\n        /* \"#utility.yul\":17677:17988   */\n      swap2\n      swap1\n      pop\n      jump\t// out\n        /* \"#utility.yul\":17994:18126   */\n    tag_283:\n        /* \"#utility.yul\":18061:18065   */\n      0x00\n        /* \"#utility.yul\":18084:18087   */\n      dup2\n        /* \"#utility.yul\":18076:18087   */\n      swap1\n      pop\n        /* \"#utility.yul\":18114:18118   */\n      0x20\n        /* \"#utility.yul\":18109:18112   */\n      dup3\n        /* \"#utility.yul\":18105:18119   */\n      add\n        /* \"#utility.yul\":18097:18119   */\n      swap1\n      pop\n        /* \"#utility.yul\":17994:18126   */\n      swap2\n      swap1\n      pop\n      jump\t// out\n        /* \"#utility.yul\":18132:18246   */\n    tag_279:\n        /* \"#utility.yul\":18199:18205   */\n      0x00\n        /* \"#utility.yul\":18233:18238   */\n      dup2\n        /* \"#utility.yul\":18227:18239   */\n      mload\n        /* \"#utility.yul\":18217:18239   */\n      swap1\n      pop\n        /* \"#utility.yul\":18132:18246   */\n      swap2\n      swap1\n      pop\n      jump\t// out\n        /* \"#utility.yul\":18252:18350   */\n    tag_297:\n        /* \"#utility.yul\":18303:18309   */\n      0x00\n        /* \"#utility.yul\":18337:18342   */\n      dup2\n        /* \"#utility.yul\":18331:18343   */\n      mload\n        /* \"#utility.yul\":18321:18343   */\n      swap1\n      pop\n        /* \"#utility.yul\":18252:18350   */\n      swap2\n      swap1\n      pop\n      jump\t// out\n        /* \"#utility.yul\":18356:18469   */\n    tag_289:\n        /* \"#utility.yul\":18426:18430   */\n      0x00\n        /* \"#utility.yul\":18458:18462   */\n      0x20\n        /* \"#utility.yul\":18453:18456   */\n      dup3\n        /* \"#utility.yul\":18449:18463   */\n      add\n        /* \"#utility.yul\":18441:18463   */\n      swap1\n      pop\n        /* \"#utility.yul\":18356:18469   */\n      swap2\n      swap1\n      pop\n      jump\t// out\n        /* \"#utility.yul\":18475:18659   */\n    tag_281:\n        /* \"#utility.yul\":18574:18585   */\n      0x00\n        /* \"#utility.yul\":18608:18614   */\n      dup3\n        /* \"#utility.yul\":18603:18606   */\n      dup3\n        /* \"#utility.yul\":18596:18615   */\n      mstore\n        /* \"#utility.yul\":18648:18652   */\n      0x20\n        /* \"#utility.yul\":18643:18646   */\n      dup3\n        /* \"#utility.yul\":18639:18653   */\n      add\n        /* \"#utility.yul\":18624:18653   */\n      swap1\n      pop\n        /* \"#utility.yul\":18475:18659   */\n      swap3\n      swap2\n      pop\n      pop\n      jump\t// out\n        /* \"#utility.yul\":18665:18833   */\n    tag_299:\n        /* \"#utility.yul\":18748:18759   */\n      0x00\n        /* \"#utility.yul\":18782:18788   */\n      dup3\n        /* \"#utility.yul\":18777:18780   */\n      dup3\n        /* \"#utility.yul\":18770:18789   */\n      mstore\n        /* \"#utility.yul\":18822:18826   */\n      0x20\n        /* \"#utility.yul\":18817:18820   */\n      dup3\n        /* \"#utility.yul\":18813:18827   */\n      add\n        /* \"#utility.yul\":18798:18827   */\n      swap1\n      pop\n        /* \"#utility.yul\":18665:18833   */\n      swap3\n      swap2\n      pop\n      pop\n      jump\t// out\n        /* \"#utility.yul\":18839:18986   */\n    tag_338:\n        /* \"#utility.yul\":18940:18951   */\n      0x00\n        /* \"#utility.yul\":18977:18980   */\n      dup2\n        /* \"#utility.yul\":18962:18980   */\n      swap1\n      pop\n        /* \"#utility.yul\":18839:18986   */\n      swap3\n      swap2\n      pop\n      pop\n      jump\t// out\n        /* \"#utility.yul\":18992:19161   */\n    tag_307:\n        /* \"#utility.yul\":19076:19087   */\n      0x00\n        /* \"#utility.yul\":19110:19116   */\n      dup3\n        /* \"#utility.yul\":19105:19108   */\n      dup3\n        /* \"#utility.yul\":19098:19117   */\n      mstore\n        /* \"#utility.yul\":19150:19154   */\n      0x20\n        /* \"#utility.yul\":19145:19148   */\n      dup3\n        /* \"#utility.yul\":19141:19155   */\n      add\n        /* \"#utility.yul\":19126:19155   */\n      swap1\n      pop\n        /* \"#utility.yul\":18992:19161   */\n      swap3\n      swap2\n      pop\n      pop\n      jump\t// out\n        /* \"#utility.yul\":19167:19515   */\n    tag_143:\n        /* \"#utility.yul\":19207:19214   */\n      0x00\n        /* \"#utility.yul\":19230:19250   */\n      tag_436\n        /* \"#utility.yul\":19248:19249   */\n      dup3\n        /* \"#utility.yul\":19230:19250   */\n      tag_357\n      jump\t// in\n    tag_436:\n        /* \"#utility.yul\":19225:19250   */\n      swap2\n      pop\n        /* \"#utility.yul\":19264:19284   */\n      tag_437\n        /* \"#utility.yul\":19282:19283   */\n      dup4\n        /* \"#utility.yul\":19264:19284   */\n      tag_357\n      jump\t// in\n    tag_437:\n        /* \"#utility.yul\":19259:19284   */\n      swap3\n      pop\n        /* \"#utility.yul\":19452:19453   */\n      dup2\n        /* \"#utility.yul\":19384:19450   */\n      0xffffffffffffffffffffffffffffffffffffffffffffffffffffffffffffffff\n        /* \"#utility.yul\":19380:19454   */\n      div\n        /* \"#utility.yul\":19377:19378   */\n      dup4\n        /* \"#utility.yul\":19374:19455   */\n      gt\n        /* \"#utility.yul\":19369:19370   */\n      dup3\n        /* \"#utility.yul\":19362:19371   */\n      iszero\n        /* \"#utility.yul\":19355:19372   */\n      iszero\n        /* \"#utility.yul\":19351:19456   */\n      and\n        /* \"#utility.yul\":19348:19479   */\n      iszero\n      tag_438\n      jumpi\n        /* \"#utility.yul\":19459:19477   */\n      tag_439\n      tag_440\n      jump\t// in\n    tag_439:\n        /* \"#utility.yul\":19348:19479   */\n    tag_438:\n        /* \"#utility.yul\":19507:19508   */\n      dup3\n        /* \"#utility.yul\":19504:19505   */\n      dup3\n        /* \"#utility.yul\":19500:19509   */\n      mul\n        /* \"#utility.yul\":19489:19509   */\n      swap1\n      pop\n        /* \"#utility.yul\":19167:19515   */\n      swap3\n      swap2\n      pop\n      pop\n      jump\t// out\n        /* \"#utility.yul\":19521:19617   */\n    tag_275:\n        /* \"#utility.yul\":19558:19565   */\n      0x00\n        /* \"#utility.yul\":19587:19611   */\n      tag_442\n        /* \"#utility.yul\":19605:19610   */\n      dup3\n        /* \"#utility.yul\":19587:19611   */\n      tag_443\n      jump\t// in\n    tag_442:\n        /* \"#utility.yul\":19576:19611   */\n      swap1\n      pop\n        /* \"#utility.yul\":19521:19617   */\n      swap2\n      swap1\n      pop\n      jump\t// out\n        /* \"#utility.yul\":19623:19727   */\n    tag_271:\n        /* \"#utility.yul\":19668:19675   */\n      0x00\n        /* \"#utility.yul\":19697:19721   */\n      tag_445\n        /* \"#utility.yul\":19715:19720   */\n      dup3\n        /* \"#utility.yul\":19697:19721   */\n      tag_443\n      jump\t// in\n    tag_445:\n        /* \"#utility.yul\":19686:19721   */\n      swap1\n      pop\n        /* \"#utility.yul\":19623:19727   */\n      swap2\n      swap1\n      pop\n      jump\t// out\n        /* \"#utility.yul\":19733:19823   */\n    tag_293:\n        /* \"#utility.yul\":19767:19774   */\n      0x00\n        /* \"#utility.yul\":19810:19815   */\n      dup2\n        /* \"#utility.yul\":19803:19816   */\n      iszero\n        /* \"#utility.yul\":19796:19817   */\n      iszero\n        /* \"#utility.yul\":19785:19817   */\n      swap1\n      pop\n        /* \"#utility.yul\":19733:19823   */\n      swap2\n      swap1\n      pop\n      jump\t// out\n        /* \"#utility.yul\":19829:19918   */\n    tag_354:\n        /* \"#utility.yul\":19865:19872   */\n      0x00\n        /* \"#utility.yul\":19905:19911   */\n      0xffff\n        /* \"#utility.yul\":19898:19903   */\n      dup3\n        /* \"#utility.yul\":19894:19912   */\n      and\n        /* \"#utility.yul\":19883:19912   */\n      swap1\n      pop\n        /* \"#utility.yul\":19829:19918   */\n      swap2\n      swap1\n      pop\n      jump\t// out\n        /* \"#utility.yul\":19924:20050   */\n    tag_443:\n        /* \"#utility.yul\":19961:19968   */\n      0x00\n        /* \"#utility.yul\":20001:20043   */\n      0xffffffffffffffffffffffffffffffffffffffff\n        /* \"#utility.yul\":19994:19999   */\n      dup3\n        /* \"#utility.yul\":19990:20044   */\n      and\n        /* \"#utility.yul\":19979:20044   */\n      swap1\n      pop\n        /* \"#utility.yul\":19924:20050   */\n      swap2\n      swap1\n      pop\n      jump\t// out\n        /* \"#utility.yul\":20056:20133   */\n    tag_357:\n        /* \"#utility.yul\":20093:20100   */\n      0x00\n        /* \"#utility.yul\":20122:20127   */\n      dup2\n        /* \"#utility.yul\":20111:20127   */\n      swap1\n      pop\n        /* \"#utility.yul\":20056:20133   */\n      swap2\n      swap1\n      pop\n      jump\t// out\n        /* \"#utility.yul\":20139:20232   */\n    tag_364:\n        /* \"#utility.yul\":20175:20182   */\n      0x00\n        /* \"#utility.yul\":20215:20225   */\n      0xffffffff\n        /* \"#utility.yul\":20208:20213   */\n      dup3\n        /* \"#utility.yul\":20204:20226   */\n      and\n        /* \"#utility.yul\":20193:20226   */\n      swap1\n      pop\n        /* \"#utility.yul\":20139:20232   */\n      swap2\n      swap1\n      pop\n      jump\t// out\n        /* \"#utility.yul\":20238:20545   */\n    tag_301:\n        /* \"#utility.yul\":20306:20307   */\n      0x00\n        /* \"#utility.yul\":20316:20429   */\n    tag_452:\n        /* \"#utility.yul\":20330:20336   */\n      dup4\n        /* \"#utility.yul\":20327:20328   */\n      dup2\n        /* \"#utility.yul\":20324:20337   */\n      lt\n        /* \"#utility.yul\":20316:20429   */\n      iszero\n      tag_454\n      jumpi\n        /* \"#utility.yul\":20415:20416   */\n      dup1\n        /* \"#utility.yul\":20410:20413   */\n      dup3\n        /* \"#utility.yul\":20406:20417   */\n      add\n        /* \"#utility.yul\":20400:20418   */\n      mload\n        /* \"#utility.yul\":20396:20397   */\n      dup2\n        /* \"#utility.yul\":20391:20394   */\n      dup5\n        /* \"#utility.yul\":20387:20398   */\n      add\n        /* \"#utility.yul\":20380:20419   */\n      mstore\n        /* \"#utility.yul\":20352:20354   */\n      0x20\n        /* \"#utility.yul\":20349:20350   */\n      dup2\n        /* \"#utility.yul\":20345:20355   */\n      add\n        /* \"#utility.yul\":20340:20355   */\n      swap1\n      pop\n        /* \"#utility.yul\":20316:20429   */\n      jump(tag_452)\n    tag_454:\n        /* \"#utility.yul\":20447:20453   */\n      dup4\n        /* \"#utility.yul\":20444:20445   */\n      dup2\n        /* \"#utility.yul\":20441:20454   */\n      gt\n        /* \"#utility.yul\":20438:20539   */\n      iszero\n      tag_455\n      jumpi\n        /* \"#utility.yul\":20527:20528   */\n      0x00\n        /* \"#utility.yul\":20518:20524   */\n      dup5\n        /* \"#utility.yul\":20513:20516   */\n      dup5\n        /* \"#utility.yul\":20509:20525   */\n      add\n        /* \"#utility.yul\":20502:20529   */\n      mstore\n        /* \"#utility.yul\":20438:20539   */\n    tag_455:\n        /* \"#utility.yul\":20287:20545   */\n      pop\n        /* \"#utility.yul\":20238:20545   */\n      pop\n      pop\n      pop\n      jump\t// out\n        /* \"#utility.yul\":20551:20832   */\n    tag_422:\n        /* \"#utility.yul\":20634:20661   */\n      tag_457\n        /* \"#utility.yul\":20656:20660   */\n      dup3\n        /* \"#utility.yul\":20634:20661   */\n      tag_303\n      jump\t// in\n    tag_457:\n        /* \"#utility.yul\":20626:20632   */\n      dup2\n        /* \"#utility.yul\":20622:20662   */\n      add\n        /* \"#utility.yul\":20764:20770   */\n      dup2\n        /* \"#utility.yul\":20752:20762   */\n      dup2\n        /* \"#utility.yul\":20749:20771   */\n      lt\n        /* \"#utility.yul\":20728:20746   */\n      0xffffffffffffffff\n        /* \"#utility.yul\":20716:20726   */\n      dup3\n        /* \"#utility.yul\":20713:20747   */\n      gt\n        /* \"#utility.yul\":20710:20772   */\n      or\n        /* \"#utility.yul\":20707:20795   */\n      iszero\n      tag_458\n      jumpi\n        /* \"#utility.yul\":20775:20793   */\n      tag_459\n      tag_165\n      jump\t// in\n    tag_459:\n        /* \"#utility.yul\":20707:20795   */\n    tag_458:\n        /* \"#utility.yul\":20815:20825   */\n      dup1\n        /* \"#utility.yul\":20811:20813   */\n      0x40\n        /* \"#utility.yul\":20804:20826   */\n      mstore\n        /* \"#utility.yul\":20594:20832   */\n      pop\n        /* \"#utility.yul\":20551:20832   */\n      pop\n      pop\n      jump\t// out\n        /* \"#utility.yul\":20838:21014   */\n    tag_140:\n        /* \"#utility.yul\":20870:20871   */\n      0x00\n        /* \"#utility.yul\":20887:20907   */\n      tag_461\n        /* \"#utility.yul\":20905:20906   */\n      dup3\n        /* \"#utility.yul\":20887:20907   */\n      tag_357\n      jump\t// in\n    tag_461:\n        /* \"#utility.yul\":20882:20907   */\n      swap2\n      pop\n        /* \"#utility.yul\":20921:20941   */\n      tag_462\n        /* \"#utility.yul\":20939:20940   */\n      dup4\n        /* \"#utility.yul\":20921:20941   */\n      tag_357\n      jump\t// in\n    tag_462:\n        /* \"#utility.yul\":20916:20941   */\n      swap3\n      pop\n        /* \"#utility.yul\":20960:20961   */\n      dup3\n        /* \"#utility.yul\":20950:20985   */\n      tag_463\n      jumpi\n        /* \"#utility.yul\":20965:20983   */\n      tag_464\n      tag_465\n      jump\t// in\n    tag_464:\n        /* \"#utility.yul\":20950:20985   */\n    tag_463:\n        /* \"#utility.yul\":21006:21007   */\n      dup3\n        /* \"#utility.yul\":21003:21004   */\n      dup3\n        /* \"#utility.yul\":20999:21008   */\n      mod\n        /* \"#utility.yul\":20994:21008   */\n      swap1\n      pop\n        /* \"#utility.yul\":20838:21014   */\n      swap3\n      swap2\n      pop\n      pop\n      jump\t// out\n        /* \"#utility.yul\":21020:21200   */\n    tag_440:\n        /* \"#utility.yul\":21068:21145   */\n      0x4e487b7100000000000000000000000000000000000000000000000000000000\n        /* \"#utility.yul\":21065:21066   */\n      0x00\n        /* \"#utility.yul\":21058:21146   */\n      mstore\n        /* \"#utility.yul\":21165:21169   */\n      0x11\n        /* \"#utility.yul\":21162:21163   */\n      0x04\n        /* \"#utility.yul\":21155:21170   */\n      mstore\n        /* \"#utility.yul\":21189:21193   */\n      0x24\n        /* \"#utility.yul\":21186:21187   */\n      0x00\n        /* \"#utility.yul\":21179:21194   */\n      revert\n        /* \"#utility.yul\":21206:21386   */\n    tag_465:\n        /* \"#utility.yul\":21254:21331   */\n      0x4e487b7100000000000000000000000000000000000000000000000000000000\n        /* \"#utility.yul\":21251:21252   */\n      0x00\n        /* \"#utility.yul\":21244:21332   */\n      mstore\n        /* \"#utility.yul\":21351:21355   */\n      0x12\n        /* \"#utility.yul\":21348:21349   */\n      0x04\n        /* \"#utility.yul\":21341:21356   */\n      mstore\n        /* \"#utility.yul\":21375:21379   */\n      0x24\n        /* \"#utility.yul\":21372:21373   */\n      0x00\n        /* \"#utility.yul\":21365:21380   */\n      revert\n        /* \"#utility.yul\":21392:21572   */\n    tag_138:\n        /* \"#utility.yul\":21440:21517   */\n      0x4e487b7100000000000000000000000000000000000000000000000000000000\n        /* \"#utility.yul\":21437:21438   */\n      0x00\n        /* \"#utility.yul\":21430:21518   */\n      mstore\n        /* \"#utility.yul\":21537:21541   */\n      0x32\n        /* \"#utility.yul\":21534:21535   */\n      0x04\n        /* \"#utility.yul\":21527:21542   */\n      mstore\n        /* \"#utility.yul\":21561:21565   */\n      0x24\n        /* \"#utility.yul\":21558:21559   */\n      0x00\n        /* \"#utility.yul\":21551:21566   */\n      revert\n        /* \"#utility.yul\":21578:21758   */\n    tag_165:\n        /* \"#utility.yul\":21626:21703   */\n      0x4e487b7100000000000000000000000000000000000000000000000000000000\n        /* \"#utility.yul\":21623:21624   */\n      0x00\n        /* \"#utility.yul\":21616:21704   */\n      mstore\n        /* \"#utility.yul\":21723:21727   */\n      0x41\n        /* \"#utility.yul\":21720:21721   */\n      0x04\n        /* \"#utility.yul\":21713:21728   */\n      mstore\n        /* \"#utility.yul\":21747:21751   */\n      0x24\n        /* \"#utility.yul\":21744:21745   */\n      0x00\n        /* \"#utility.yul\":21737:21752   */\n      revert\n        /* \"#utility.yul\":21764:21881   */\n    tag_227:\n        /* \"#utility.yul\":21873:21874   */\n      0x00\n        /* \"#utility.yul\":21870:21871   */\n      dup1\n        /* \"#utility.yul\":21863:21875   */\n      revert\n        /* \"#utility.yul\":21887:22004   */\n    tag_213:\n        /* \"#utility.yul\":21996:21997   */\n      0x00\n        /* \"#utility.yul\":21993:21994   */\n      dup1\n        /* \"#utility.yul\":21986:21998   */\n      revert\n        /* \"#utility.yul\":22010:22127   */\n    tag_262:\n        /* \"#utility.yul\":22119:22120   */\n      0x00\n        /* \"#utility.yul\":22116:22117   */\n      dup1\n        /* \"#utility.yul\":22109:22121   */\n      revert\n        /* \"#utility.yul\":22133:22250   */\n    tag_242:\n        /* \"#utility.yul\":22242:22243   */\n      0x00\n        /* \"#utility.yul\":22239:22240   */\n      dup1\n        /* \"#utility.yul\":22232:22244   */\n      revert\n        /* \"#utility.yul\":22256:22358   */\n    tag_303:\n        /* \"#utility.yul\":22297:22303   */\n      0x00\n        /* \"#utility.yul\":22348:22350   */\n      0x1f\n        /* \"#utility.yul\":22344:22351   */\n      not\n        /* \"#utility.yul\":22339:22341   */\n      0x1f\n        /* \"#utility.yul\":22332:22337   */\n      dup4\n        /* \"#utility.yul\":22328:22342   */\n      add\n        /* \"#utility.yul\":22324:22352   */\n      and\n        /* \"#utility.yul\":22314:22352   */\n      swap1\n      pop\n        /* \"#utility.yul\":22256:22358   */\n      swap2\n      swap1\n      pop\n      jump\t// out\n        /* \"#utility.yul\":22364:22531   */\n    tag_309:\n        /* \"#utility.yul\":22504:22523   */\n      0x72657175657374206e6f7420666f756e64000000000000000000000000000000\n        /* \"#utility.yul\":22500:22501   */\n      0x00\n        /* \"#utility.yul\":22492:22498   */\n      dup3\n        /* \"#utility.yul\":22488:22502   */\n      add\n        /* \"#utility.yul\":22481:22524   */\n      mstore\n        /* \"#utility.yul\":22364:22531   */\n      pop\n      jump\t// out\n        /* \"#utility.yul\":22537:22709   */\n    tag_314:\n        /* \"#utility.yul\":22677:22701   */\n      0x4d7573742062652070726f706f736564206f776e657200000000000000000000\n        /* \"#utility.yul\":22673:22674   */\n      0x00\n        /* \"#utility.yul\":22665:22671   */\n      dup3\n        /* \"#utility.yul\":22661:22675   */\n      add\n        /* \"#utility.yul\":22654:22702   */\n      mstore\n        /* \"#utility.yul\":22537:22709   */\n      pop\n      jump\t// out\n        /* \"#utility.yul\":22715:22887   */\n    tag_319:\n        /* \"#utility.yul\":22855:22879   */\n      0x4f6e6c792063616c6c61626c65206279206f776e657200000000000000000000\n        /* \"#utility.yul\":22851:22852   */\n      0x00\n        /* \"#utility.yul\":22843:22849   */\n      dup3\n        /* \"#utility.yul\":22839:22853   */\n      add\n        /* \"#utility.yul\":22832:22880   */\n      mstore\n        /* \"#utility.yul\":22715:22887   */\n      pop\n      jump\t// out\n        /* \"#utility.yul\":22893:23072   */\n    tag_324:\n        /* \"#utility.yul\":23033:23064   */\n      0x436173696e6f3a2057696e6e696e67207061796f7574206661696c6564000000\n        /* \"#utility.yul\":23029:23030   */\n      0x00\n        /* \"#utility.yul\":23021:23027   */\n      dup3\n        /* \"#utility.yul\":23017:23031   */\n      add\n        /* \"#utility.yul\":23010:23065   */\n      mstore\n        /* \"#utility.yul\":22893:23072   */\n      pop\n      jump\t// out\n        /* \"#utility.yul\":23078:23256   */\n    tag_329:\n        /* \"#utility.yul\":23218:23248   */\n      0x42657420616e792076616c7565206265747765656e203120746f203600000000\n        /* \"#utility.yul\":23214:23215   */\n      0x00\n        /* \"#utility.yul\":23206:23212   */\n      dup3\n        /* \"#utility.yul\":23202:23216   */\n      add\n        /* \"#utility.yul\":23195:23249   */\n      mstore\n        /* \"#utility.yul\":23078:23256   */\n      pop\n      jump\t// out\n        /* \"#utility.yul\":23262:23430   */\n    tag_334:\n        /* \"#utility.yul\":23402:23422   */\n      0x556e61626c6520746f207472616e736665720000000000000000000000000000\n        /* \"#utility.yul\":23398:23399   */\n      0x00\n        /* \"#utility.yul\":23390:23396   */\n      dup3\n        /* \"#utility.yul\":23386:23400   */\n      add\n        /* \"#utility.yul\":23379:23423   */\n      mstore\n        /* \"#utility.yul\":23262:23430   */\n      pop\n      jump\t// out\n        /* \"#utility.yul\":23436:23550   */\n    tag_340:\n      pop\n      jump\t// out\n        /* \"#utility.yul\":23556:23729   */\n    tag_345:\n        /* \"#utility.yul\":23696:23721   */\n      0x43616e6e6f74207472616e7366657220746f2073656c66000000000000000000\n        /* \"#utility.yul\":23692:23693   */\n      0x00\n        /* \"#utility.yul\":23684:23690   */\n      dup3\n        /* \"#utility.yul\":23680:23694   */\n      add\n        /* \"#utility.yul\":23673:23722   */\n      mstore\n        /* \"#utility.yul\":23556:23729   */\n      pop\n      jump\t// out\n        /* \"#utility.yul\":23735:23916   */\n    tag_350:\n        /* \"#utility.yul\":23875:23908   */\n      0x6f6e6c792056524620563220777261707065722063616e2066756c66696c6c00\n        /* \"#utility.yul\":23871:23872   */\n      0x00\n        /* \"#utility.yul\":23863:23869   */\n      dup3\n        /* \"#utility.yul\":23859:23873   */\n      add\n        /* \"#utility.yul\":23852:23909   */\n      mstore\n        /* \"#utility.yul\":23735:23916   */\n      pop\n      jump\t// out\n        /* \"#utility.yul\":23922:24044   */\n    tag_222:\n        /* \"#utility.yul\":23995:24019   */\n      tag_485\n        /* \"#utility.yul\":24013:24018   */\n      dup2\n        /* \"#utility.yul\":23995:24019   */\n      tag_275\n      jump\t// in\n    tag_485:\n        /* \"#utility.yul\":23988:23993   */\n      dup2\n        /* \"#utility.yul\":23985:24020   */\n      eq\n        /* \"#utility.yul\":23975:24038   */\n      tag_486\n      jumpi\n        /* \"#utility.yul\":24034:24035   */\n      0x00\n        /* \"#utility.yul\":24031:24032   */\n      dup1\n        /* \"#utility.yul\":24024:24036   */\n      revert\n        /* \"#utility.yul\":23975:24038   */\n    tag_486:\n        /* \"#utility.yul\":23922:24044   */\n      pop\n      jump\t// out\n        /* \"#utility.yul\":24050:24166   */\n    tag_232:\n        /* \"#utility.yul\":24120:24141   */\n      tag_488\n        /* \"#utility.yul\":24135:24140   */\n      dup2\n        /* \"#utility.yul\":24120:24141   */\n      tag_293\n      jump\t// in\n    tag_488:\n        /* \"#utility.yul\":24113:24118   */\n      dup2\n        /* \"#utility.yul\":24110:24142   */\n      eq\n        /* \"#utility.yul\":24100:24160   */\n      tag_489\n      jumpi\n        /* \"#utility.yul\":24156:24157   */\n      0x00\n        /* \"#utility.yul\":24153:24154   */\n      dup1\n        /* \"#utility.yul\":24146:24158   */\n      revert\n        /* \"#utility.yul\":24100:24160   */\n    tag_489:\n        /* \"#utility.yul\":24050:24166   */\n      pop\n      jump\t// out\n        /* \"#utility.yul\":24172:24294   */\n    tag_235:\n        /* \"#utility.yul\":24245:24269   */\n      tag_491\n        /* \"#utility.yul\":24263:24268   */\n      dup2\n        /* \"#utility.yul\":24245:24269   */\n      tag_357\n      jump\t// in\n    tag_491:\n        /* \"#utility.yul\":24238:24243   */\n      dup2\n        /* \"#utility.yul\":24235:24270   */\n      eq\n        /* \"#utility.yul\":24225:24288   */\n      tag_492\n      jumpi\n        /* \"#utility.yul\":24284:24285   */\n      0x00\n        /* \"#utility.yul\":24281:24282   */\n      dup1\n        /* \"#utility.yul\":24274:24286   */\n      revert\n        /* \"#utility.yul\":24225:24288   */\n    tag_492:\n        /* \"#utility.yul\":24172:24294   */\n      pop\n      jump\t// out\n\n    auxdata: 0xa2646970667358221220c9e8b2d97ce77c207b6ee401d275a8ec7ad0a26875b160255175b56c11f81df964736f6c63430008070033\n}\n",
				"bytecode": {
					"linkReferences": {},
					"object": "60c0604052620186a0600560006101000a81548163ffffffff021916908363ffffffff1602179055506003600560046101000a81548161ffff021916908361ffff1602179055506002600560066101000a81548163ffffffff021916908363ffffffff160217905550738ac089a6fc01a9f831858acae2be7e32c23ae1c06005600a6101000a81548173ffffffffffffffffffffffffffffffffffffffff021916908373ffffffffffffffffffffffffffffffffffffffff16021790555073708701a1dff4f478de54383e49a627ed4852c816600660006101000a81548173ffffffffffffffffffffffffffffffffffffffff021916908373ffffffffffffffffffffffffffffffffffffffff160217905550670de0b6b3a76400006009553480156200012b57600080fd5b50338060006005600a9054906101000a900473ffffffffffffffffffffffffffffffffffffffff16600660009054906101000a900473ffffffffffffffffffffffffffffffffffffffff168173ffffffffffffffffffffffffffffffffffffffff1660808173ffffffffffffffffffffffffffffffffffffffff1660601b815250508073ffffffffffffffffffffffffffffffffffffffff1660a08173ffffffffffffffffffffffffffffffffffffffff1660601b815250505050600073ffffffffffffffffffffffffffffffffffffffff168273ffffffffffffffffffffffffffffffffffffffff16141562000259576040517f08c379a0000000000000000000000000000000000000000000000000000000008152600401620002509062000467565b60405180910390fd5b816000806101000a81548173ffffffffffffffffffffffffffffffffffffffff021916908373ffffffffffffffffffffffffffffffffffffffff160217905550600073ffffffffffffffffffffffffffffffffffffffff168173ffffffffffffffffffffffffffffffffffffffff1614620002e057620002df81620002e960201b60201c565b5b5050506200050e565b3373ffffffffffffffffffffffffffffffffffffffff168173ffffffffffffffffffffffffffffffffffffffff1614156200035b576040517f08c379a0000000000000000000000000000000000000000000000000000000008152600401620003529062000489565b60405180910390fd5b80600160006101000a81548173ffffffffffffffffffffffffffffffffffffffff021916908373ffffffffffffffffffffffffffffffffffffffff1602179055508073ffffffffffffffffffffffffffffffffffffffff1660008054906101000a900473ffffffffffffffffffffffffffffffffffffffff1673ffffffffffffffffffffffffffffffffffffffff167fed8889f560326eb138920d842192f0eb3dd22b4f139c87a2c57538e05bae127860405160405180910390a350565b600062000428601883620004ab565b91506200043582620004bc565b602082019050919050565b60006200044f601783620004ab565b91506200045c82620004e5565b602082019050919050565b60006020820190508181036000830152620004828162000419565b9050919050565b60006020820190508181036000830152620004a48162000440565b9050919050565b600082825260208201905092915050565b7f43616e6e6f7420736574206f776e657220746f207a65726f0000000000000000600082015250565b7f43616e6e6f74207472616e7366657220746f2073656c66000000000000000000600082015250565b60805160601c60a05160601c611f6a620005566000396000818161030a01528181610ce2015281816110ce015281816110ef015261122d015260006110920152611f6a6000f3fe6080604052600436106100c25760003560e01c80638da5cb5b1161007f578063bfb3047f11610059578063bfb3047f1461024a578063d8a4676f14610275578063f2fde38b146102b4578063fc2a88c3146102dd576100c2565b80638da5cb5b146101ca5780638dc654a2146101f5578063a168fa891461020c576100c2565b80631fe543e3146100c75780632e5b2168146100f0578063344610671461011b5780635873533d1461015a57806379ba5097146101765780638796ba8c1461018d575b600080fd5b3480156100d357600080fd5b506100ee60048036038101906100e991906114e2565b610308565b005b3480156100fc57600080fd5b506101056103a4565b604051610112919061195f565b60405180910390f35b34801561012757600080fd5b50610142600480360381019061013d9190611488565b6103aa565b604051610151939291906117c1565b60405180910390f35b610174600480360381019061016f9190611488565b6103f4565b005b34801561018257600080fd5b5061018b610502565b005b34801561019957600080fd5b506101b460048036038101906101af9190611488565b610697565b6040516101c1919061195f565b60405180910390f35b3480156101d657600080fd5b506101df6106bb565b6040516101ec91906117a6565b60405180910390f35b34801561020157600080fd5b5061020a6106e4565b005b34801561021857600080fd5b50610233600480360381019061022e9190611488565b61086a565b6040516102419291906119b8565b60405180910390f35b34801561025657600080fd5b5061025f61089b565b60405161026c919061195f565b60405180910390f35b34801561028157600080fd5b5061029c60048036038101906102979190611488565b6108a1565b6040516102ab939291906119e1565b60405180910390f35b3480156102c057600080fd5b506102db60048036038101906102d6919061142e565b6109bb565b005b3480156102e957600080fd5b506102f26109cf565b6040516102ff919061195f565b60405180910390f35b7f000000000000000000000000000000000000000000000000000000000000000073ffffffffffffffffffffffffffffffffffffffff163373ffffffffffffffffffffffffffffffffffffffff1614610396576040517f08c379a000000000000000000000000000000000000000000000000000000000815260040161038d9061193f565b60405180910390fd5b6103a082826109d5565b5050565b60095481565b60076020528060005260406000206000915090508060000160009054906101000a900473ffffffffffffffffffffffffffffffffffffffff16908060010154908060020154905083565b600681111580156104055750600081115b610444576040517f08c379a000000000000000000000000000000000000000000000000000000000815260040161043b906118df565b60405180910390fd5b60003390506000610453610c8a565b9050600060405180606001604052808473ffffffffffffffffffffffffffffffffffffffff168152602001858152602001348152509050806007600084815260200190815260200160002060008201518160000160006101000a81548173ffffffffffffffffffffffffffffffffffffffff021916908373ffffffffffffffffffffffffffffffffffffffff160217905550602082015181600101556040820151816002015590505050505050565b600160009054906101000a900473ffffffffffffffffffffffffffffffffffffffff1673ffffffffffffffffffffffffffffffffffffffff163373ffffffffffffffffffffffffffffffffffffffff1614610592576040517f08c379a00000000000000000000000000000000000000000000000000000000081526004016105899061187f565b60405180910390fd5b60008060009054906101000a900473ffffffffffffffffffffffffffffffffffffffff169050336000806101000a81548173ffffffffffffffffffffffffffffffffffffffff021916908373ffffffffffffffffffffffffffffffffffffffff1602179055506000600160006101000a81548173ffffffffffffffffffffffffffffffffffffffff021916908373ffffffffffffffffffffffffffffffffffffffff1602179055503373ffffffffffffffffffffffffffffffffffffffff168173ffffffffffffffffffffffffffffffffffffffff167f8be0079c531659141344cd1fd0a4f28419497f9722a3daafe3b4186f6b6457e060405160405180910390a350565b600381815481106106a757600080fd5b906000526020600020016000915090505481565b60008060009054906101000a900473ffffffffffffffffffffffffffffffffffffffff16905090565b6106ec610ed1565b60006005600a9054906101000a900473ffffffffffffffffffffffffffffffffffffffff1690508073ffffffffffffffffffffffffffffffffffffffff1663a9059cbb338373ffffffffffffffffffffffffffffffffffffffff166370a08231306040518263ffffffff1660e01b815260040161076991906117a6565b60206040518083038186803b15801561078157600080fd5b505afa158015610795573d6000803e3d6000fd5b505050506040513d601f19601f820116820180604052508101906107b991906114b5565b6040518363ffffffff1660e01b81526004016107d69291906117f8565b602060405180830381600087803b1580156107f057600080fd5b505af1158015610804573d6000803e3d6000fd5b505050506040513d601f19601f82011682018060405250810190610828919061145b565b610867576040517f08c379a000000000000000000000000000000000000000000000000000000000815260040161085e906118ff565b60405180910390fd5b50565b60026020528060005260406000206000915090508060000154908060010160009054906101000a900460ff16905082565b60085481565b600080606060006002600086815260200190815260200160002060000154116108ff576040517f08c379a00000000000000000000000000000000000000000000000000000000081526004016108f69061185f565b60405180910390fd5b600060026000868152602001908152602001600020604051806060016040529081600082015481526020016001820160009054906101000a900460ff161515151581526020016002820180548060200260200160405190810160405280929190818152602001828054801561099357602002820191906000526020600020905b81548152602001906001019080831161097f575b5050505050815250509050806000015181602001518260400151935093509350509193909250565b6109c3610ed1565b6109cc81610f61565b50565b60045481565b6000600260008481526020019081526020016000206000015411610a2e576040517f08c379a0000000000000000000000000000000000000000000000000000000008152600401610a259061185f565b60405180910390fd5b60016002600084815260200190815260200160002060010160006101000a81548160ff02191690831515021790555080600260008481526020019081526020016000206002019080519060200190610a879291906112d2565b507f147eb1ff0c82f87f2b03e2c43f5a36488ff63ec6b730195fde4605f612f8db5182826002600086815260200190815260200160002060000154604051610ad19392919061197a565b60405180910390a1600081600081518110610aef57610aee611d21565b5b602002602001015190506000600760008581526020019081526020016000206040518060600160405290816000820160009054906101000a900473ffffffffffffffffffffffffffffffffffffffff1673ffffffffffffffffffffffffffffffffffffffff1673ffffffffffffffffffffffffffffffffffffffff1681526020016001820154815260200160028201548152505090506000816040015190506000826020015190506000836000015190506000600686610baf9190611c92565b90508060088190555082811415610c80576000600285610bcf9190611b5c565b905060008373ffffffffffffffffffffffffffffffffffffffff1682604051610bf790611791565b60006040518083038185875af1925050503d8060008114610c34576040519150601f19603f3d011682016040523d82523d6000602084013e610c39565b606091505b5050905080610c7d576040517f08c379a0000000000000000000000000000000000000000000000000000000008152600401610c74906118bf565b60405180910390fd5b50505b5050505050505050565b6000610c94610ed1565b610cd3600560009054906101000a900463ffffffff16600560049054906101000a900461ffff16600560069054906101000a900463ffffffff1661108e565b905060405180606001604052807f000000000000000000000000000000000000000000000000000000000000000073ffffffffffffffffffffffffffffffffffffffff16634306d354600560009054906101000a900463ffffffff166040518263ffffffff1660e01b8152600401610d4b9190611a48565b60206040518083038186803b158015610d6357600080fd5b505afa158015610d77573d6000803e3d6000fd5b505050506040513d601f19601f82011682018060405250810190610d9b91906114b5565b8152602001600015158152602001600067ffffffffffffffff811115610dc457610dc3611d50565b5b604051908082528060200260200182016040528015610df25781602001602082028036833780820191505090505b50815250600260008381526020019081526020016000206000820151816000015560208201518160010160006101000a81548160ff0219169083151502179055506040820151816002019080519060200190610e4f9291906112d2565b509050506003819080600181540180825580915050600190039060005260206000200160009091909190915055806004819055507fcc58b13ad3eab50626c6a6300b1d139cd6ebb1688a7cced9461c2f7e762665ee81600560069054906101000a900463ffffffff16604051610ec6929190611a1f565b60405180910390a190565b60008054906101000a900473ffffffffffffffffffffffffffffffffffffffff1673ffffffffffffffffffffffffffffffffffffffff163373ffffffffffffffffffffffffffffffffffffffff1614610f5f576040517f08c379a0000000000000000000000000000000000000000000000000000000008152600401610f569061189f565b60405180910390fd5b565b3373ffffffffffffffffffffffffffffffffffffffff168173ffffffffffffffffffffffffffffffffffffffff161415610fd0576040517f08c379a0000000000000000000000000000000000000000000000000000000008152600401610fc79061191f565b60405180910390fd5b80600160006101000a81548173ffffffffffffffffffffffffffffffffffffffff021916908373ffffffffffffffffffffffffffffffffffffffff1602179055508073ffffffffffffffffffffffffffffffffffffffff1660008054906101000a900473ffffffffffffffffffffffffffffffffffffffff1673ffffffffffffffffffffffffffffffffffffffff167fed8889f560326eb138920d842192f0eb3dd22b4f139c87a2c57538e05bae127860405160405180910390a350565b60007f000000000000000000000000000000000000000000000000000000000000000073ffffffffffffffffffffffffffffffffffffffff16634000aea07f00000000000000000000000000000000000000000000000000000000000000007f000000000000000000000000000000000000000000000000000000000000000073ffffffffffffffffffffffffffffffffffffffff16634306d354886040518263ffffffff1660e01b81526004016111469190611a48565b60206040518083038186803b15801561115e57600080fd5b505afa158015611172573d6000803e3d6000fd5b505050506040513d601f19601f8201168201806040525081019061119691906114b5565b8787876040516020016111ab93929190611a63565b6040516020818303038152906040526040518463ffffffff1660e01b81526004016111d893929190611821565b602060405180830381600087803b1580156111f257600080fd5b505af1158015611206573d6000803e3d6000fd5b505050506040513d601f19601f8201168201806040525081019061122a919061145b565b507f000000000000000000000000000000000000000000000000000000000000000073ffffffffffffffffffffffffffffffffffffffff1663fc2a88c36040518163ffffffff1660e01b815260040160206040518083038186803b15801561129157600080fd5b505afa1580156112a5573d6000803e3d6000fd5b505050506040513d601f19601f820116820180604052508101906112c991906114b5565b90509392505050565b82805482825590600052602060002090810192821561130e579160200282015b8281111561130d5782518255916020019190600101906112f2565b5b50905061131b919061131f565b5090565b5b80821115611338576000816000905550600101611320565b5090565b600061134f61134a84611abf565b611a9a565b9050808382526020820190508285602086028201111561137257611371611d84565b5b60005b858110156113a257816113888882611404565b845260208401935060208301925050600181019050611375565b5050509392505050565b6000813590506113bb81611eef565b92915050565b600082601f8301126113d6576113d5611d7f565b5b81356113e684826020860161133c565b91505092915050565b6000815190506113fe81611f06565b92915050565b60008135905061141381611f1d565b92915050565b60008151905061142881611f1d565b92915050565b60006020828403121561144457611443611d8e565b5b6000611452848285016113ac565b91505092915050565b60006020828403121561147157611470611d8e565b5b600061147f848285016113ef565b91505092915050565b60006020828403121561149e5761149d611d8e565b5b60006114ac84828501611404565b91505092915050565b6000602082840312156114cb576114ca611d8e565b5b60006114d984828501611419565b91505092915050565b600080604083850312156114f9576114f8611d8e565b5b600061150785828601611404565b925050602083013567ffffffffffffffff81111561152857611527611d89565b5b611534858286016113c1565b9150509250929050565b600061154a8383611764565b60208301905092915050565b61155f81611bc8565b82525050565b61156e81611bb6565b82525050565b600061157f82611afb565b6115898185611b1e565b935061159483611aeb565b8060005b838110156115c55781516115ac888261153e565b97506115b783611b11565b925050600181019050611598565b5085935050505092915050565b6115db81611bda565b82525050565b60006115ec82611b06565b6115f68185611b2f565b9350611606818560208601611c2e565b61160f81611d93565b840191505092915050565b6000611627601183611b4b565b915061163282611da4565b602082019050919050565b600061164a601683611b4b565b915061165582611dcd565b602082019050919050565b600061166d601683611b4b565b915061167882611df6565b602082019050919050565b6000611690601d83611b4b565b915061169b82611e1f565b602082019050919050565b60006116b3601c83611b4b565b91506116be82611e48565b602082019050919050565b60006116d6601283611b4b565b91506116e182611e71565b602082019050919050565b60006116f9600083611b40565b915061170482611e9a565b600082019050919050565b600061171c601783611b4b565b915061172782611e9d565b602082019050919050565b600061173f601f83611b4b565b915061174a82611ec6565b602082019050919050565b61175e81611be6565b82525050565b61176d81611c14565b82525050565b61177c81611c14565b82525050565b61178b81611c1e565b82525050565b600061179c826116ec565b9150819050919050565b60006020820190506117bb6000830184611565565b92915050565b60006060820190506117d66000830186611556565b6117e36020830185611773565b6117f06040830184611773565b949350505050565b600060408201905061180d6000830185611565565b61181a6020830184611773565b9392505050565b60006060820190506118366000830186611565565b6118436020830185611773565b818103604083015261185581846115e1565b9050949350505050565b600060208201905081810360008301526118788161161a565b9050919050565b600060208201905081810360008301526118988161163d565b9050919050565b600060208201905081810360008301526118b881611660565b9050919050565b600060208201905081810360008301526118d881611683565b9050919050565b600060208201905081810360008301526118f8816116a6565b9050919050565b60006020820190508181036000830152611918816116c9565b9050919050565b600060208201905081810360008301526119388161170f565b9050919050565b6000602082019050818103600083015261195881611732565b9050919050565b60006020820190506119746000830184611773565b92915050565b600060608201905061198f6000830186611773565b81810360208301526119a18185611574565b90506119b06040830184611773565b949350505050565b60006040820190506119cd6000830185611773565b6119da60208301846115d2565b9392505050565b60006060820190506119f66000830186611773565b611a0360208301856115d2565b8181036040830152611a158184611574565b9050949350505050565b6000604082019050611a346000830185611773565b611a416020830184611782565b9392505050565b6000602082019050611a5d6000830184611782565b92915050565b6000606082019050611a786000830186611782565b611a856020830185611755565b611a926040830184611782565b949350505050565b6000611aa4611ab5565b9050611ab08282611c61565b919050565b6000604051905090565b600067ffffffffffffffff821115611ada57611ad9611d50565b5b602082029050602081019050919050565b6000819050602082019050919050565b600081519050919050565b600081519050919050565b6000602082019050919050565b600082825260208201905092915050565b600082825260208201905092915050565b600081905092915050565b600082825260208201905092915050565b6000611b6782611c14565b9150611b7283611c14565b9250817fffffffffffffffffffffffffffffffffffffffffffffffffffffffffffffffff0483118215151615611bab57611baa611cc3565b5b828202905092915050565b6000611bc182611bf4565b9050919050565b6000611bd382611bf4565b9050919050565b60008115159050919050565b600061ffff82169050919050565b600073ffffffffffffffffffffffffffffffffffffffff82169050919050565b6000819050919050565b600063ffffffff82169050919050565b60005b83811015611c4c578082015181840152602081019050611c31565b83811115611c5b576000848401525b50505050565b611c6a82611d93565b810181811067ffffffffffffffff82111715611c8957611c88611d50565b5b80604052505050565b6000611c9d82611c14565b9150611ca883611c14565b925082611cb857611cb7611cf2565b5b828206905092915050565b7f4e487b7100000000000000000000000000000000000000000000000000000000600052601160045260246000fd5b7f4e487b7100000000000000000000000000000000000000000000000000000000600052601260045260246000fd5b7f4e487b7100000000000000000000000000000000000000000000000000000000600052603260045260246000fd5b7f4e487b7100000000000000000000000000000000000000000000000000000000600052604160045260246000fd5b600080fd5b600080fd5b600080fd5b600080fd5b6000601f19601f8301169050919050565b7f72657175657374206e6f7420666f756e64000000000000000000000000000000600082015250565b7f4d7573742062652070726f706f736564206f776e657200000000000000000000600082015250565b7f4f6e6c792063616c6c61626c65206279206f776e657200000000000000000000600082015250565b7f436173696e6f3a2057696e6e696e67207061796f7574206661696c6564000000600082015250565b7f42657420616e792076616c7565206265747765656e203120746f203600000000600082015250565b7f556e61626c6520746f207472616e736665720000000000000000000000000000600082015250565b50565b7f43616e6e6f74207472616e7366657220746f2073656c66000000000000000000600082015250565b7f6f6e6c792056524620563220777261707065722063616e2066756c66696c6c00600082015250565b611ef881611bb6565b8114611f0357600080fd5b50565b611f0f81611bda565b8114611f1a57600080fd5b50565b611f2681611c14565b8114611f3157600080fd5b5056fea2646970667358221220c9e8b2d97ce77c207b6ee401d275a8ec7ad0a26875b160255175b56c11f81df964736f6c63430008070033",
					"opcodes": "PUSH1 0xC0 PUSH1 0x40 MSTORE PUSH3 0x186A0 PUSH1 0x5 PUSH1 0x0 PUSH2 0x100 EXP DUP2 SLOAD DUP2 PUSH4 0xFFFFFFFF MUL NOT AND SWAP1 DUP4 PUSH4 0xFFFFFFFF AND MUL OR SWAP1 SSTORE POP PUSH1 0x3 PUSH1 0x5 PUSH1 0x4 PUSH2 0x100 EXP DUP2 SLOAD DUP2 PUSH2 0xFFFF MUL NOT AND SWAP1 DUP4 PUSH2 0xFFFF AND MUL OR SWAP1 SSTORE POP PUSH1 0x2 PUSH1 0x5 PUSH1 0x6 PUSH2 0x100 EXP DUP2 SLOAD DUP2 PUSH4 0xFFFFFFFF MUL NOT AND SWAP1 DUP4 PUSH4 0xFFFFFFFF AND MUL OR SWAP1 SSTORE POP PUSH20 0x8AC089A6FC01A9F831858ACAE2BE7E32C23AE1C0 PUSH1 0x5 PUSH1 0xA PUSH2 0x100 EXP DUP2 SLOAD DUP2 PUSH20 0xFFFFFFFFFFFFFFFFFFFFFFFFFFFFFFFFFFFFFFFF MUL NOT AND SWAP1 DUP4 PUSH20 0xFFFFFFFFFFFFFFFFFFFFFFFFFFFFFFFFFFFFFFFF AND MUL OR SWAP1 SSTORE POP PUSH20 0x708701A1DFF4F478DE54383E49A627ED4852C816 PUSH1 0x6 PUSH1 0x0 PUSH2 0x100 EXP DUP2 SLOAD DUP2 PUSH20 0xFFFFFFFFFFFFFFFFFFFFFFFFFFFFFFFFFFFFFFFF MUL NOT AND SWAP1 DUP4 PUSH20 0xFFFFFFFFFFFFFFFFFFFFFFFFFFFFFFFFFFFFFFFF AND MUL OR SWAP1 SSTORE POP PUSH8 0xDE0B6B3A7640000 PUSH1 0x9 SSTORE CALLVALUE DUP1 ISZERO PUSH3 0x12B JUMPI PUSH1 0x0 DUP1 REVERT JUMPDEST POP CALLER DUP1 PUSH1 0x0 PUSH1 0x5 PUSH1 0xA SWAP1 SLOAD SWAP1 PUSH2 0x100 EXP SWAP1 DIV PUSH20 0xFFFFFFFFFFFFFFFFFFFFFFFFFFFFFFFFFFFFFFFF AND PUSH1 0x6 PUSH1 0x0 SWAP1 SLOAD SWAP1 PUSH2 0x100 EXP SWAP1 DIV PUSH20 0xFFFFFFFFFFFFFFFFFFFFFFFFFFFFFFFFFFFFFFFF AND DUP2 PUSH20 0xFFFFFFFFFFFFFFFFFFFFFFFFFFFFFFFFFFFFFFFF AND PUSH1 0x80 DUP2 PUSH20 0xFFFFFFFFFFFFFFFFFFFFFFFFFFFFFFFFFFFFFFFF AND PUSH1 0x60 SHL DUP2 MSTORE POP POP DUP1 PUSH20 0xFFFFFFFFFFFFFFFFFFFFFFFFFFFFFFFFFFFFFFFF AND PUSH1 0xA0 DUP2 PUSH20 0xFFFFFFFFFFFFFFFFFFFFFFFFFFFFFFFFFFFFFFFF AND PUSH1 0x60 SHL DUP2 MSTORE POP POP POP POP PUSH1 0x0 PUSH20 0xFFFFFFFFFFFFFFFFFFFFFFFFFFFFFFFFFFFFFFFF AND DUP3 PUSH20 0xFFFFFFFFFFFFFFFFFFFFFFFFFFFFFFFFFFFFFFFF AND EQ ISZERO PUSH3 0x259 JUMPI PUSH1 0x40 MLOAD PUSH32 0x8C379A000000000000000000000000000000000000000000000000000000000 DUP2 MSTORE PUSH1 0x4 ADD PUSH3 0x250 SWAP1 PUSH3 0x467 JUMP JUMPDEST PUSH1 0x40 MLOAD DUP1 SWAP2 SUB SWAP1 REVERT JUMPDEST DUP2 PUSH1 0x0 DUP1 PUSH2 0x100 EXP DUP2 SLOAD DUP2 PUSH20 0xFFFFFFFFFFFFFFFFFFFFFFFFFFFFFFFFFFFFFFFF MUL NOT AND SWAP1 DUP4 PUSH20 0xFFFFFFFFFFFFFFFFFFFFFFFFFFFFFFFFFFFFFFFF AND MUL OR SWAP1 SSTORE POP PUSH1 0x0 PUSH20 0xFFFFFFFFFFFFFFFFFFFFFFFFFFFFFFFFFFFFFFFF AND DUP2 PUSH20 0xFFFFFFFFFFFFFFFFFFFFFFFFFFFFFFFFFFFFFFFF AND EQ PUSH3 0x2E0 JUMPI PUSH3 0x2DF DUP2 PUSH3 0x2E9 PUSH1 0x20 SHL PUSH1 0x20 SHR JUMP JUMPDEST JUMPDEST POP POP POP PUSH3 0x50E JUMP JUMPDEST CALLER PUSH20 0xFFFFFFFFFFFFFFFFFFFFFFFFFFFFFFFFFFFFFFFF AND DUP2 PUSH20 0xFFFFFFFFFFFFFFFFFFFFFFFFFFFFFFFFFFFFFFFF AND EQ ISZERO PUSH3 0x35B JUMPI PUSH1 0x40 MLOAD PUSH32 0x8C379A000000000000000000000000000000000000000000000000000000000 DUP2 MSTORE PUSH1 0x4 ADD PUSH3 0x352 SWAP1 PUSH3 0x489 JUMP JUMPDEST PUSH1 0x40 MLOAD DUP1 SWAP2 SUB SWAP1 REVERT JUMPDEST DUP1 PUSH1 0x1 PUSH1 0x0 PUSH2 0x100 EXP DUP2 SLOAD DUP2 PUSH20 0xFFFFFFFFFFFFFFFFFFFFFFFFFFFFFFFFFFFFFFFF MUL NOT AND SWAP1 DUP4 PUSH20 0xFFFFFFFFFFFFFFFFFFFFFFFFFFFFFFFFFFFFFFFF AND MUL OR SWAP1 SSTORE POP DUP1 PUSH20 0xFFFFFFFFFFFFFFFFFFFFFFFFFFFFFFFFFFFFFFFF AND PUSH1 0x0 DUP1 SLOAD SWAP1 PUSH2 0x100 EXP SWAP1 DIV PUSH20 0xFFFFFFFFFFFFFFFFFFFFFFFFFFFFFFFFFFFFFFFF AND PUSH20 0xFFFFFFFFFFFFFFFFFFFFFFFFFFFFFFFFFFFFFFFF AND PUSH32 0xED8889F560326EB138920D842192F0EB3DD22B4F139C87A2C57538E05BAE1278 PUSH1 0x40 MLOAD PUSH1 0x40 MLOAD DUP1 SWAP2 SUB SWAP1 LOG3 POP JUMP JUMPDEST PUSH1 0x0 PUSH3 0x428 PUSH1 0x18 DUP4 PUSH3 0x4AB JUMP JUMPDEST SWAP2 POP PUSH3 0x435 DUP3 PUSH3 0x4BC JUMP JUMPDEST PUSH1 0x20 DUP3 ADD SWAP1 POP SWAP2 SWAP1 POP JUMP JUMPDEST PUSH1 0x0 PUSH3 0x44F PUSH1 0x17 DUP4 PUSH3 0x4AB JUMP JUMPDEST SWAP2 POP PUSH3 0x45C DUP3 PUSH3 0x4E5 JUMP JUMPDEST PUSH1 0x20 DUP3 ADD SWAP1 POP SWAP2 SWAP1 POP JUMP JUMPDEST PUSH1 0x0 PUSH1 0x20 DUP3 ADD SWAP1 POP DUP2 DUP2 SUB PUSH1 0x0 DUP4 ADD MSTORE PUSH3 0x482 DUP2 PUSH3 0x419 JUMP JUMPDEST SWAP1 POP SWAP2 SWAP1 POP JUMP JUMPDEST PUSH1 0x0 PUSH1 0x20 DUP3 ADD SWAP1 POP DUP2 DUP2 SUB PUSH1 0x0 DUP4 ADD MSTORE PUSH3 0x4A4 DUP2 PUSH3 0x440 JUMP JUMPDEST SWAP1 POP SWAP2 SWAP1 POP JUMP JUMPDEST PUSH1 0x0 DUP3 DUP3 MSTORE PUSH1 0x20 DUP3 ADD SWAP1 POP SWAP3 SWAP2 POP POP JUMP JUMPDEST PUSH32 0x43616E6E6F7420736574206F776E657220746F207A65726F0000000000000000 PUSH1 0x0 DUP3 ADD MSTORE POP JUMP JUMPDEST PUSH32 0x43616E6E6F74207472616E7366657220746F2073656C66000000000000000000 PUSH1 0x0 DUP3 ADD MSTORE POP JUMP JUMPDEST PUSH1 0x80 MLOAD PUSH1 0x60 SHR PUSH1 0xA0 MLOAD PUSH1 0x60 SHR PUSH2 0x1F6A PUSH3 0x556 PUSH1 0x0 CODECOPY PUSH1 0x0 DUP2 DUP2 PUSH2 0x30A ADD MSTORE DUP2 DUP2 PUSH2 0xCE2 ADD MSTORE DUP2 DUP2 PUSH2 0x10CE ADD MSTORE DUP2 DUP2 PUSH2 0x10EF ADD MSTORE PUSH2 0x122D ADD MSTORE PUSH1 0x0 PUSH2 0x1092 ADD MSTORE PUSH2 0x1F6A PUSH1 0x0 RETURN INVALID PUSH1 0x80 PUSH1 0x40 MSTORE PUSH1 0x4 CALLDATASIZE LT PUSH2 0xC2 JUMPI PUSH1 0x0 CALLDATALOAD PUSH1 0xE0 SHR DUP1 PUSH4 0x8DA5CB5B GT PUSH2 0x7F JUMPI DUP1 PUSH4 0xBFB3047F GT PUSH2 0x59 JUMPI DUP1 PUSH4 0xBFB3047F EQ PUSH2 0x24A JUMPI DUP1 PUSH4 0xD8A4676F EQ PUSH2 0x275 JUMPI DUP1 PUSH4 0xF2FDE38B EQ PUSH2 0x2B4 JUMPI DUP1 PUSH4 0xFC2A88C3 EQ PUSH2 0x2DD JUMPI PUSH2 0xC2 JUMP JUMPDEST DUP1 PUSH4 0x8DA5CB5B EQ PUSH2 0x1CA JUMPI DUP1 PUSH4 0x8DC654A2 EQ PUSH2 0x1F5 JUMPI DUP1 PUSH4 0xA168FA89 EQ PUSH2 0x20C JUMPI PUSH2 0xC2 JUMP JUMPDEST DUP1 PUSH4 0x1FE543E3 EQ PUSH2 0xC7 JUMPI DUP1 PUSH4 0x2E5B2168 EQ PUSH2 0xF0 JUMPI DUP1 PUSH4 0x34461067 EQ PUSH2 0x11B JUMPI DUP1 PUSH4 0x5873533D EQ PUSH2 0x15A JUMPI DUP1 PUSH4 0x79BA5097 EQ PUSH2 0x176 JUMPI DUP1 PUSH4 0x8796BA8C EQ PUSH2 0x18D JUMPI JUMPDEST PUSH1 0x0 DUP1 REVERT JUMPDEST CALLVALUE DUP1 ISZERO PUSH2 0xD3 JUMPI PUSH1 0x0 DUP1 REVERT JUMPDEST POP PUSH2 0xEE PUSH1 0x4 DUP1 CALLDATASIZE SUB DUP2 ADD SWAP1 PUSH2 0xE9 SWAP2 SWAP1 PUSH2 0x14E2 JUMP JUMPDEST PUSH2 0x308 JUMP JUMPDEST STOP JUMPDEST CALLVALUE DUP1 ISZERO PUSH2 0xFC JUMPI PUSH1 0x0 DUP1 REVERT JUMPDEST POP PUSH2 0x105 PUSH2 0x3A4 JUMP JUMPDEST PUSH1 0x40 MLOAD PUSH2 0x112 SWAP2 SWAP1 PUSH2 0x195F JUMP JUMPDEST PUSH1 0x40 MLOAD DUP1 SWAP2 SUB SWAP1 RETURN JUMPDEST CALLVALUE DUP1 ISZERO PUSH2 0x127 JUMPI PUSH1 0x0 DUP1 REVERT JUMPDEST POP PUSH2 0x142 PUSH1 0x4 DUP1 CALLDATASIZE SUB DUP2 ADD SWAP1 PUSH2 0x13D SWAP2 SWAP1 PUSH2 0x1488 JUMP JUMPDEST PUSH2 0x3AA JUMP JUMPDEST PUSH1 0x40 MLOAD PUSH2 0x151 SWAP4 SWAP3 SWAP2 SWAP1 PUSH2 0x17C1 JUMP JUMPDEST PUSH1 0x40 MLOAD DUP1 SWAP2 SUB SWAP1 RETURN JUMPDEST PUSH2 0x174 PUSH1 0x4 DUP1 CALLDATASIZE SUB DUP2 ADD SWAP1 PUSH2 0x16F SWAP2 SWAP1 PUSH2 0x1488 JUMP JUMPDEST PUSH2 0x3F4 JUMP JUMPDEST STOP JUMPDEST CALLVALUE DUP1 ISZERO PUSH2 0x182 JUMPI PUSH1 0x0 DUP1 REVERT JUMPDEST POP PUSH2 0x18B PUSH2 0x502 JUMP JUMPDEST STOP JUMPDEST CALLVALUE DUP1 ISZERO PUSH2 0x199 JUMPI PUSH1 0x0 DUP1 REVERT JUMPDEST POP PUSH2 0x1B4 PUSH1 0x4 DUP1 CALLDATASIZE SUB DUP2 ADD SWAP1 PUSH2 0x1AF SWAP2 SWAP1 PUSH2 0x1488 JUMP JUMPDEST PUSH2 0x697 JUMP JUMPDEST PUSH1 0x40 MLOAD PUSH2 0x1C1 SWAP2 SWAP1 PUSH2 0x195F JUMP JUMPDEST PUSH1 0x40 MLOAD DUP1 SWAP2 SUB SWAP1 RETURN JUMPDEST CALLVALUE DUP1 ISZERO PUSH2 0x1D6 JUMPI PUSH1 0x0 DUP1 REVERT JUMPDEST POP PUSH2 0x1DF PUSH2 0x6BB JUMP JUMPDEST PUSH1 0x40 MLOAD PUSH2 0x1EC SWAP2 SWAP1 PUSH2 0x17A6 JUMP JUMPDEST PUSH1 0x40 MLOAD DUP1 SWAP2 SUB SWAP1 RETURN JUMPDEST CALLVALUE DUP1 ISZERO PUSH2 0x201 JUMPI PUSH1 0x0 DUP1 REVERT JUMPDEST POP PUSH2 0x20A PUSH2 0x6E4 JUMP JUMPDEST STOP JUMPDEST CALLVALUE DUP1 ISZERO PUSH2 0x218 JUMPI PUSH1 0x0 DUP1 REVERT JUMPDEST POP PUSH2 0x233 PUSH1 0x4 DUP1 CALLDATASIZE SUB DUP2 ADD SWAP1 PUSH2 0x22E SWAP2 SWAP1 PUSH2 0x1488 JUMP JUMPDEST PUSH2 0x86A JUMP JUMPDEST PUSH1 0x40 MLOAD PUSH2 0x241 SWAP3 SWAP2 SWAP1 PUSH2 0x19B8 JUMP JUMPDEST PUSH1 0x40 MLOAD DUP1 SWAP2 SUB SWAP1 RETURN JUMPDEST CALLVALUE DUP1 ISZERO PUSH2 0x256 JUMPI PUSH1 0x0 DUP1 REVERT JUMPDEST POP PUSH2 0x25F PUSH2 0x89B JUMP JUMPDEST PUSH1 0x40 MLOAD PUSH2 0x26C SWAP2 SWAP1 PUSH2 0x195F JUMP JUMPDEST PUSH1 0x40 MLOAD DUP1 SWAP2 SUB SWAP1 RETURN JUMPDEST CALLVALUE DUP1 ISZERO PUSH2 0x281 JUMPI PUSH1 0x0 DUP1 REVERT JUMPDEST POP PUSH2 0x29C PUSH1 0x4 DUP1 CALLDATASIZE SUB DUP2 ADD SWAP1 PUSH2 0x297 SWAP2 SWAP1 PUSH2 0x1488 JUMP JUMPDEST PUSH2 0x8A1 JUMP JUMPDEST PUSH1 0x40 MLOAD PUSH2 0x2AB SWAP4 SWAP3 SWAP2 SWAP1 PUSH2 0x19E1 JUMP JUMPDEST PUSH1 0x40 MLOAD DUP1 SWAP2 SUB SWAP1 RETURN JUMPDEST CALLVALUE DUP1 ISZERO PUSH2 0x2C0 JUMPI PUSH1 0x0 DUP1 REVERT JUMPDEST POP PUSH2 0x2DB PUSH1 0x4 DUP1 CALLDATASIZE SUB DUP2 ADD SWAP1 PUSH2 0x2D6 SWAP2 SWAP1 PUSH2 0x142E JUMP JUMPDEST PUSH2 0x9BB JUMP JUMPDEST STOP JUMPDEST CALLVALUE DUP1 ISZERO PUSH2 0x2E9 JUMPI PUSH1 0x0 DUP1 REVERT JUMPDEST POP PUSH2 0x2F2 PUSH2 0x9CF JUMP JUMPDEST PUSH1 0x40 MLOAD PUSH2 0x2FF SWAP2 SWAP1 PUSH2 0x195F JUMP JUMPDEST PUSH1 0x40 MLOAD DUP1 SWAP2 SUB SWAP1 RETURN JUMPDEST PUSH32 0x0 PUSH20 0xFFFFFFFFFFFFFFFFFFFFFFFFFFFFFFFFFFFFFFFF AND CALLER PUSH20 0xFFFFFFFFFFFFFFFFFFFFFFFFFFFFFFFFFFFFFFFF AND EQ PUSH2 0x396 JUMPI PUSH1 0x40 MLOAD PUSH32 0x8C379A000000000000000000000000000000000000000000000000000000000 DUP2 MSTORE PUSH1 0x4 ADD PUSH2 0x38D SWAP1 PUSH2 0x193F JUMP JUMPDEST PUSH1 0x40 MLOAD DUP1 SWAP2 SUB SWAP1 REVERT JUMPDEST PUSH2 0x3A0 DUP3 DUP3 PUSH2 0x9D5 JUMP JUMPDEST POP POP JUMP JUMPDEST PUSH1 0x9 SLOAD DUP2 JUMP JUMPDEST PUSH1 0x7 PUSH1 0x20 MSTORE DUP1 PUSH1 0x0 MSTORE PUSH1 0x40 PUSH1 0x0 KECCAK256 PUSH1 0x0 SWAP2 POP SWAP1 POP DUP1 PUSH1 0x0 ADD PUSH1 0x0 SWAP1 SLOAD SWAP1 PUSH2 0x100 EXP SWAP1 DIV PUSH20 0xFFFFFFFFFFFFFFFFFFFFFFFFFFFFFFFFFFFFFFFF AND SWAP1 DUP1 PUSH1 0x1 ADD SLOAD SWAP1 DUP1 PUSH1 0x2 ADD SLOAD SWAP1 POP DUP4 JUMP JUMPDEST PUSH1 0x6 DUP2 GT ISZERO DUP1 ISZERO PUSH2 0x405 JUMPI POP PUSH1 0x0 DUP2 GT JUMPDEST PUSH2 0x444 JUMPI PUSH1 0x40 MLOAD PUSH32 0x8C379A000000000000000000000000000000000000000000000000000000000 DUP2 MSTORE PUSH1 0x4 ADD PUSH2 0x43B SWAP1 PUSH2 0x18DF JUMP JUMPDEST PUSH1 0x40 MLOAD DUP1 SWAP2 SUB SWAP1 REVERT JUMPDEST PUSH1 0x0 CALLER SWAP1 POP PUSH1 0x0 PUSH2 0x453 PUSH2 0xC8A JUMP JUMPDEST SWAP1 POP PUSH1 0x0 PUSH1 0x40 MLOAD DUP1 PUSH1 0x60 ADD PUSH1 0x40 MSTORE DUP1 DUP5 PUSH20 0xFFFFFFFFFFFFFFFFFFFFFFFFFFFFFFFFFFFFFFFF AND DUP2 MSTORE PUSH1 0x20 ADD DUP6 DUP2 MSTORE PUSH1 0x20 ADD CALLVALUE DUP2 MSTORE POP SWAP1 POP DUP1 PUSH1 0x7 PUSH1 0x0 DUP5 DUP2 MSTORE PUSH1 0x20 ADD SWAP1 DUP2 MSTORE PUSH1 0x20 ADD PUSH1 0x0 KECCAK256 PUSH1 0x0 DUP3 ADD MLOAD DUP2 PUSH1 0x0 ADD PUSH1 0x0 PUSH2 0x100 EXP DUP2 SLOAD DUP2 PUSH20 0xFFFFFFFFFFFFFFFFFFFFFFFFFFFFFFFFFFFFFFFF MUL NOT AND SWAP1 DUP4 PUSH20 0xFFFFFFFFFFFFFFFFFFFFFFFFFFFFFFFFFFFFFFFF AND MUL OR SWAP1 SSTORE POP PUSH1 0x20 DUP3 ADD MLOAD DUP2 PUSH1 0x1 ADD SSTORE PUSH1 0x40 DUP3 ADD MLOAD DUP2 PUSH1 0x2 ADD SSTORE SWAP1 POP POP POP POP POP POP JUMP JUMPDEST PUSH1 0x1 PUSH1 0x0 SWAP1 SLOAD SWAP1 PUSH2 0x100 EXP SWAP1 DIV PUSH20 0xFFFFFFFFFFFFFFFFFFFFFFFFFFFFFFFFFFFFFFFF AND PUSH20 0xFFFFFFFFFFFFFFFFFFFFFFFFFFFFFFFFFFFFFFFF AND CALLER PUSH20 0xFFFFFFFFFFFFFFFFFFFFFFFFFFFFFFFFFFFFFFFF AND EQ PUSH2 0x592 JUMPI PUSH1 0x40 MLOAD PUSH32 0x8C379A000000000000000000000000000000000000000000000000000000000 DUP2 MSTORE PUSH1 0x4 ADD PUSH2 0x589 SWAP1 PUSH2 0x187F JUMP JUMPDEST PUSH1 0x40 MLOAD DUP1 SWAP2 SUB SWAP1 REVERT JUMPDEST PUSH1 0x0 DUP1 PUSH1 0x0 SWAP1 SLOAD SWAP1 PUSH2 0x100 EXP SWAP1 DIV PUSH20 0xFFFFFFFFFFFFFFFFFFFFFFFFFFFFFFFFFFFFFFFF AND SWAP1 POP CALLER PUSH1 0x0 DUP1 PUSH2 0x100 EXP DUP2 SLOAD DUP2 PUSH20 0xFFFFFFFFFFFFFFFFFFFFFFFFFFFFFFFFFFFFFFFF MUL NOT AND SWAP1 DUP4 PUSH20 0xFFFFFFFFFFFFFFFFFFFFFFFFFFFFFFFFFFFFFFFF AND MUL OR SWAP1 SSTORE POP PUSH1 0x0 PUSH1 0x1 PUSH1 0x0 PUSH2 0x100 EXP DUP2 SLOAD DUP2 PUSH20 0xFFFFFFFFFFFFFFFFFFFFFFFFFFFFFFFFFFFFFFFF MUL NOT AND SWAP1 DUP4 PUSH20 0xFFFFFFFFFFFFFFFFFFFFFFFFFFFFFFFFFFFFFFFF AND MUL OR SWAP1 SSTORE POP CALLER PUSH20 0xFFFFFFFFFFFFFFFFFFFFFFFFFFFFFFFFFFFFFFFF AND DUP2 PUSH20 0xFFFFFFFFFFFFFFFFFFFFFFFFFFFFFFFFFFFFFFFF AND PUSH32 0x8BE0079C531659141344CD1FD0A4F28419497F9722A3DAAFE3B4186F6B6457E0 PUSH1 0x40 MLOAD PUSH1 0x40 MLOAD DUP1 SWAP2 SUB SWAP1 LOG3 POP JUMP JUMPDEST PUSH1 0x3 DUP2 DUP2 SLOAD DUP2 LT PUSH2 0x6A7 JUMPI PUSH1 0x0 DUP1 REVERT JUMPDEST SWAP1 PUSH1 0x0 MSTORE PUSH1 0x20 PUSH1 0x0 KECCAK256 ADD PUSH1 0x0 SWAP2 POP SWAP1 POP SLOAD DUP2 JUMP JUMPDEST PUSH1 0x0 DUP1 PUSH1 0x0 SWAP1 SLOAD SWAP1 PUSH2 0x100 EXP SWAP1 DIV PUSH20 0xFFFFFFFFFFFFFFFFFFFFFFFFFFFFFFFFFFFFFFFF AND SWAP1 POP SWAP1 JUMP JUMPDEST PUSH2 0x6EC PUSH2 0xED1 JUMP JUMPDEST PUSH1 0x0 PUSH1 0x5 PUSH1 0xA SWAP1 SLOAD SWAP1 PUSH2 0x100 EXP SWAP1 DIV PUSH20 0xFFFFFFFFFFFFFFFFFFFFFFFFFFFFFFFFFFFFFFFF AND SWAP1 POP DUP1 PUSH20 0xFFFFFFFFFFFFFFFFFFFFFFFFFFFFFFFFFFFFFFFF AND PUSH4 0xA9059CBB CALLER DUP4 PUSH20 0xFFFFFFFFFFFFFFFFFFFFFFFFFFFFFFFFFFFFFFFF AND PUSH4 0x70A08231 ADDRESS PUSH1 0x40 MLOAD DUP3 PUSH4 0xFFFFFFFF AND PUSH1 0xE0 SHL DUP2 MSTORE PUSH1 0x4 ADD PUSH2 0x769 SWAP2 SWAP1 PUSH2 0x17A6 JUMP JUMPDEST PUSH1 0x20 PUSH1 0x40 MLOAD DUP1 DUP4 SUB DUP2 DUP7 DUP1 EXTCODESIZE ISZERO DUP1 ISZERO PUSH2 0x781 JUMPI PUSH1 0x0 DUP1 REVERT JUMPDEST POP GAS STATICCALL ISZERO DUP1 ISZERO PUSH2 0x795 JUMPI RETURNDATASIZE PUSH1 0x0 DUP1 RETURNDATACOPY RETURNDATASIZE PUSH1 0x0 REVERT JUMPDEST POP POP POP POP PUSH1 0x40 MLOAD RETURNDATASIZE PUSH1 0x1F NOT PUSH1 0x1F DUP3 ADD AND DUP3 ADD DUP1 PUSH1 0x40 MSTORE POP DUP2 ADD SWAP1 PUSH2 0x7B9 SWAP2 SWAP1 PUSH2 0x14B5 JUMP JUMPDEST PUSH1 0x40 MLOAD DUP4 PUSH4 0xFFFFFFFF AND PUSH1 0xE0 SHL DUP2 MSTORE PUSH1 0x4 ADD PUSH2 0x7D6 SWAP3 SWAP2 SWAP1 PUSH2 0x17F8 JUMP JUMPDEST PUSH1 0x20 PUSH1 0x40 MLOAD DUP1 DUP4 SUB DUP2 PUSH1 0x0 DUP8 DUP1 EXTCODESIZE ISZERO DUP1 ISZERO PUSH2 0x7F0 JUMPI PUSH1 0x0 DUP1 REVERT JUMPDEST POP GAS CALL ISZERO DUP1 ISZERO PUSH2 0x804 JUMPI RETURNDATASIZE PUSH1 0x0 DUP1 RETURNDATACOPY RETURNDATASIZE PUSH1 0x0 REVERT JUMPDEST POP POP POP POP PUSH1 0x40 MLOAD RETURNDATASIZE PUSH1 0x1F NOT PUSH1 0x1F DUP3 ADD AND DUP3 ADD DUP1 PUSH1 0x40 MSTORE POP DUP2 ADD SWAP1 PUSH2 0x828 SWAP2 SWAP1 PUSH2 0x145B JUMP JUMPDEST PUSH2 0x867 JUMPI PUSH1 0x40 MLOAD PUSH32 0x8C379A000000000000000000000000000000000000000000000000000000000 DUP2 MSTORE PUSH1 0x4 ADD PUSH2 0x85E SWAP1 PUSH2 0x18FF JUMP JUMPDEST PUSH1 0x40 MLOAD DUP1 SWAP2 SUB SWAP1 REVERT JUMPDEST POP JUMP JUMPDEST PUSH1 0x2 PUSH1 0x20 MSTORE DUP1 PUSH1 0x0 MSTORE PUSH1 0x40 PUSH1 0x0 KECCAK256 PUSH1 0x0 SWAP2 POP SWAP1 POP DUP1 PUSH1 0x0 ADD SLOAD SWAP1 DUP1 PUSH1 0x1 ADD PUSH1 0x0 SWAP1 SLOAD SWAP1 PUSH2 0x100 EXP SWAP1 DIV PUSH1 0xFF AND SWAP1 POP DUP3 JUMP JUMPDEST PUSH1 0x8 SLOAD DUP2 JUMP JUMPDEST PUSH1 0x0 DUP1 PUSH1 0x60 PUSH1 0x0 PUSH1 0x2 PUSH1 0x0 DUP7 DUP2 MSTORE PUSH1 0x20 ADD SWAP1 DUP2 MSTORE PUSH1 0x20 ADD PUSH1 0x0 KECCAK256 PUSH1 0x0 ADD SLOAD GT PUSH2 0x8FF JUMPI PUSH1 0x40 MLOAD PUSH32 0x8C379A000000000000000000000000000000000000000000000000000000000 DUP2 MSTORE PUSH1 0x4 ADD PUSH2 0x8F6 SWAP1 PUSH2 0x185F JUMP JUMPDEST PUSH1 0x40 MLOAD DUP1 SWAP2 SUB SWAP1 REVERT JUMPDEST PUSH1 0x0 PUSH1 0x2 PUSH1 0x0 DUP7 DUP2 MSTORE PUSH1 0x20 ADD SWAP1 DUP2 MSTORE PUSH1 0x20 ADD PUSH1 0x0 KECCAK256 PUSH1 0x40 MLOAD DUP1 PUSH1 0x60 ADD PUSH1 0x40 MSTORE SWAP1 DUP2 PUSH1 0x0 DUP3 ADD SLOAD DUP2 MSTORE PUSH1 0x20 ADD PUSH1 0x1 DUP3 ADD PUSH1 0x0 SWAP1 SLOAD SWAP1 PUSH2 0x100 EXP SWAP1 DIV PUSH1 0xFF AND ISZERO ISZERO ISZERO ISZERO DUP2 MSTORE PUSH1 0x20 ADD PUSH1 0x2 DUP3 ADD DUP1 SLOAD DUP1 PUSH1 0x20 MUL PUSH1 0x20 ADD PUSH1 0x40 MLOAD SWAP1 DUP2 ADD PUSH1 0x40 MSTORE DUP1 SWAP3 SWAP2 SWAP1 DUP2 DUP2 MSTORE PUSH1 0x20 ADD DUP3 DUP1 SLOAD DUP1 ISZERO PUSH2 0x993 JUMPI PUSH1 0x20 MUL DUP3 ADD SWAP2 SWAP1 PUSH1 0x0 MSTORE PUSH1 0x20 PUSH1 0x0 KECCAK256 SWAP1 JUMPDEST DUP2 SLOAD DUP2 MSTORE PUSH1 0x20 ADD SWAP1 PUSH1 0x1 ADD SWAP1 DUP1 DUP4 GT PUSH2 0x97F JUMPI JUMPDEST POP POP POP POP POP DUP2 MSTORE POP POP SWAP1 POP DUP1 PUSH1 0x0 ADD MLOAD DUP2 PUSH1 0x20 ADD MLOAD DUP3 PUSH1 0x40 ADD MLOAD SWAP4 POP SWAP4 POP SWAP4 POP POP SWAP2 SWAP4 SWAP1 SWAP3 POP JUMP JUMPDEST PUSH2 0x9C3 PUSH2 0xED1 JUMP JUMPDEST PUSH2 0x9CC DUP2 PUSH2 0xF61 JUMP JUMPDEST POP JUMP JUMPDEST PUSH1 0x4 SLOAD DUP2 JUMP JUMPDEST PUSH1 0x0 PUSH1 0x2 PUSH1 0x0 DUP5 DUP2 MSTORE PUSH1 0x20 ADD SWAP1 DUP2 MSTORE PUSH1 0x20 ADD PUSH1 0x0 KECCAK256 PUSH1 0x0 ADD SLOAD GT PUSH2 0xA2E JUMPI PUSH1 0x40 MLOAD PUSH32 0x8C379A000000000000000000000000000000000000000000000000000000000 DUP2 MSTORE PUSH1 0x4 ADD PUSH2 0xA25 SWAP1 PUSH2 0x185F JUMP JUMPDEST PUSH1 0x40 MLOAD DUP1 SWAP2 SUB SWAP1 REVERT JUMPDEST PUSH1 0x1 PUSH1 0x2 PUSH1 0x0 DUP5 DUP2 MSTORE PUSH1 0x20 ADD SWAP1 DUP2 MSTORE PUSH1 0x20 ADD PUSH1 0x0 KECCAK256 PUSH1 0x1 ADD PUSH1 0x0 PUSH2 0x100 EXP DUP2 SLOAD DUP2 PUSH1 0xFF MUL NOT AND SWAP1 DUP4 ISZERO ISZERO MUL OR SWAP1 SSTORE POP DUP1 PUSH1 0x2 PUSH1 0x0 DUP5 DUP2 MSTORE PUSH1 0x20 ADD SWAP1 DUP2 MSTORE PUSH1 0x20 ADD PUSH1 0x0 KECCAK256 PUSH1 0x2 ADD SWAP1 DUP1 MLOAD SWAP1 PUSH1 0x20 ADD SWAP1 PUSH2 0xA87 SWAP3 SWAP2 SWAP1 PUSH2 0x12D2 JUMP JUMPDEST POP PUSH32 0x147EB1FF0C82F87F2B03E2C43F5A36488FF63EC6B730195FDE4605F612F8DB51 DUP3 DUP3 PUSH1 0x2 PUSH1 0x0 DUP7 DUP2 MSTORE PUSH1 0x20 ADD SWAP1 DUP2 MSTORE PUSH1 0x20 ADD PUSH1 0x0 KECCAK256 PUSH1 0x0 ADD SLOAD PUSH1 0x40 MLOAD PUSH2 0xAD1 SWAP4 SWAP3 SWAP2 SWAP1 PUSH2 0x197A JUMP JUMPDEST PUSH1 0x40 MLOAD DUP1 SWAP2 SUB SWAP1 LOG1 PUSH1 0x0 DUP2 PUSH1 0x0 DUP2 MLOAD DUP2 LT PUSH2 0xAEF JUMPI PUSH2 0xAEE PUSH2 0x1D21 JUMP JUMPDEST JUMPDEST PUSH1 0x20 MUL PUSH1 0x20 ADD ADD MLOAD SWAP1 POP PUSH1 0x0 PUSH1 0x7 PUSH1 0x0 DUP6 DUP2 MSTORE PUSH1 0x20 ADD SWAP1 DUP2 MSTORE PUSH1 0x20 ADD PUSH1 0x0 KECCAK256 PUSH1 0x40 MLOAD DUP1 PUSH1 0x60 ADD PUSH1 0x40 MSTORE SWAP1 DUP2 PUSH1 0x0 DUP3 ADD PUSH1 0x0 SWAP1 SLOAD SWAP1 PUSH2 0x100 EXP SWAP1 DIV PUSH20 0xFFFFFFFFFFFFFFFFFFFFFFFFFFFFFFFFFFFFFFFF AND PUSH20 0xFFFFFFFFFFFFFFFFFFFFFFFFFFFFFFFFFFFFFFFF AND PUSH20 0xFFFFFFFFFFFFFFFFFFFFFFFFFFFFFFFFFFFFFFFF AND DUP2 MSTORE PUSH1 0x20 ADD PUSH1 0x1 DUP3 ADD SLOAD DUP2 MSTORE PUSH1 0x20 ADD PUSH1 0x2 DUP3 ADD SLOAD DUP2 MSTORE POP POP SWAP1 POP PUSH1 0x0 DUP2 PUSH1 0x40 ADD MLOAD SWAP1 POP PUSH1 0x0 DUP3 PUSH1 0x20 ADD MLOAD SWAP1 POP PUSH1 0x0 DUP4 PUSH1 0x0 ADD MLOAD SWAP1 POP PUSH1 0x0 PUSH1 0x6 DUP7 PUSH2 0xBAF SWAP2 SWAP1 PUSH2 0x1C92 JUMP JUMPDEST SWAP1 POP DUP1 PUSH1 0x8 DUP2 SWAP1 SSTORE POP DUP3 DUP2 EQ ISZERO PUSH2 0xC80 JUMPI PUSH1 0x0 PUSH1 0x2 DUP6 PUSH2 0xBCF SWAP2 SWAP1 PUSH2 0x1B5C JUMP JUMPDEST SWAP1 POP PUSH1 0x0 DUP4 PUSH20 0xFFFFFFFFFFFFFFFFFFFFFFFFFFFFFFFFFFFFFFFF AND DUP3 PUSH1 0x40 MLOAD PUSH2 0xBF7 SWAP1 PUSH2 0x1791 JUMP JUMPDEST PUSH1 0x0 PUSH1 0x40 MLOAD DUP1 DUP4 SUB DUP2 DUP6 DUP8 GAS CALL SWAP3 POP POP POP RETURNDATASIZE DUP1 PUSH1 0x0 DUP2 EQ PUSH2 0xC34 JUMPI PUSH1 0x40 MLOAD SWAP2 POP PUSH1 0x1F NOT PUSH1 0x3F RETURNDATASIZE ADD AND DUP3 ADD PUSH1 0x40 MSTORE RETURNDATASIZE DUP3 MSTORE RETURNDATASIZE PUSH1 0x0 PUSH1 0x20 DUP5 ADD RETURNDATACOPY PUSH2 0xC39 JUMP JUMPDEST PUSH1 0x60 SWAP2 POP JUMPDEST POP POP SWAP1 POP DUP1 PUSH2 0xC7D JUMPI PUSH1 0x40 MLOAD PUSH32 0x8C379A000000000000000000000000000000000000000000000000000000000 DUP2 MSTORE PUSH1 0x4 ADD PUSH2 0xC74 SWAP1 PUSH2 0x18BF JUMP JUMPDEST PUSH1 0x40 MLOAD DUP1 SWAP2 SUB SWAP1 REVERT JUMPDEST POP POP JUMPDEST POP POP POP POP POP POP POP POP JUMP JUMPDEST PUSH1 0x0 PUSH2 0xC94 PUSH2 0xED1 JUMP JUMPDEST PUSH2 0xCD3 PUSH1 0x5 PUSH1 0x0 SWAP1 SLOAD SWAP1 PUSH2 0x100 EXP SWAP1 DIV PUSH4 0xFFFFFFFF AND PUSH1 0x5 PUSH1 0x4 SWAP1 SLOAD SWAP1 PUSH2 0x100 EXP SWAP1 DIV PUSH2 0xFFFF AND PUSH1 0x5 PUSH1 0x6 SWAP1 SLOAD SWAP1 PUSH2 0x100 EXP SWAP1 DIV PUSH4 0xFFFFFFFF AND PUSH2 0x108E JUMP JUMPDEST SWAP1 POP PUSH1 0x40 MLOAD DUP1 PUSH1 0x60 ADD PUSH1 0x40 MSTORE DUP1 PUSH32 0x0 PUSH20 0xFFFFFFFFFFFFFFFFFFFFFFFFFFFFFFFFFFFFFFFF AND PUSH4 0x4306D354 PUSH1 0x5 PUSH1 0x0 SWAP1 SLOAD SWAP1 PUSH2 0x100 EXP SWAP1 DIV PUSH4 0xFFFFFFFF AND PUSH1 0x40 MLOAD DUP3 PUSH4 0xFFFFFFFF AND PUSH1 0xE0 SHL DUP2 MSTORE PUSH1 0x4 ADD PUSH2 0xD4B SWAP2 SWAP1 PUSH2 0x1A48 JUMP JUMPDEST PUSH1 0x20 PUSH1 0x40 MLOAD DUP1 DUP4 SUB DUP2 DUP7 DUP1 EXTCODESIZE ISZERO DUP1 ISZERO PUSH2 0xD63 JUMPI PUSH1 0x0 DUP1 REVERT JUMPDEST POP GAS STATICCALL ISZERO DUP1 ISZERO PUSH2 0xD77 JUMPI RETURNDATASIZE PUSH1 0x0 DUP1 RETURNDATACOPY RETURNDATASIZE PUSH1 0x0 REVERT JUMPDEST POP POP POP POP PUSH1 0x40 MLOAD RETURNDATASIZE PUSH1 0x1F NOT PUSH1 0x1F DUP3 ADD AND DUP3 ADD DUP1 PUSH1 0x40 MSTORE POP DUP2 ADD SWAP1 PUSH2 0xD9B SWAP2 SWAP1 PUSH2 0x14B5 JUMP JUMPDEST DUP2 MSTORE PUSH1 0x20 ADD PUSH1 0x0 ISZERO ISZERO DUP2 MSTORE PUSH1 0x20 ADD PUSH1 0x0 PUSH8 0xFFFFFFFFFFFFFFFF DUP2 GT ISZERO PUSH2 0xDC4 JUMPI PUSH2 0xDC3 PUSH2 0x1D50 JUMP JUMPDEST JUMPDEST PUSH1 0x40 MLOAD SWAP1 DUP1 DUP3 MSTORE DUP1 PUSH1 0x20 MUL PUSH1 0x20 ADD DUP3 ADD PUSH1 0x40 MSTORE DUP1 ISZERO PUSH2 0xDF2 JUMPI DUP2 PUSH1 0x20 ADD PUSH1 0x20 DUP3 MUL DUP1 CALLDATASIZE DUP4 CALLDATACOPY DUP1 DUP3 ADD SWAP2 POP POP SWAP1 POP JUMPDEST POP DUP2 MSTORE POP PUSH1 0x2 PUSH1 0x0 DUP4 DUP2 MSTORE PUSH1 0x20 ADD SWAP1 DUP2 MSTORE PUSH1 0x20 ADD PUSH1 0x0 KECCAK256 PUSH1 0x0 DUP3 ADD MLOAD DUP2 PUSH1 0x0 ADD SSTORE PUSH1 0x20 DUP3 ADD MLOAD DUP2 PUSH1 0x1 ADD PUSH1 0x0 PUSH2 0x100 EXP DUP2 SLOAD DUP2 PUSH1 0xFF MUL NOT AND SWAP1 DUP4 ISZERO ISZERO MUL OR SWAP1 SSTORE POP PUSH1 0x40 DUP3 ADD MLOAD DUP2 PUSH1 0x2 ADD SWAP1 DUP1 MLOAD SWAP1 PUSH1 0x20 ADD SWAP1 PUSH2 0xE4F SWAP3 SWAP2 SWAP1 PUSH2 0x12D2 JUMP JUMPDEST POP SWAP1 POP POP PUSH1 0x3 DUP2 SWAP1 DUP1 PUSH1 0x1 DUP2 SLOAD ADD DUP1 DUP3 SSTORE DUP1 SWAP2 POP POP PUSH1 0x1 SWAP1 SUB SWAP1 PUSH1 0x0 MSTORE PUSH1 0x20 PUSH1 0x0 KECCAK256 ADD PUSH1 0x0 SWAP1 SWAP2 SWAP1 SWAP2 SWAP1 SWAP2 POP SSTORE DUP1 PUSH1 0x4 DUP2 SWAP1 SSTORE POP PUSH32 0xCC58B13AD3EAB50626C6A6300B1D139CD6EBB1688A7CCED9461C2F7E762665EE DUP2 PUSH1 0x5 PUSH1 0x6 SWAP1 SLOAD SWAP1 PUSH2 0x100 EXP SWAP1 DIV PUSH4 0xFFFFFFFF AND PUSH1 0x40 MLOAD PUSH2 0xEC6 SWAP3 SWAP2 SWAP1 PUSH2 0x1A1F JUMP JUMPDEST PUSH1 0x40 MLOAD DUP1 SWAP2 SUB SWAP1 LOG1 SWAP1 JUMP JUMPDEST PUSH1 0x0 DUP1 SLOAD SWAP1 PUSH2 0x100 EXP SWAP1 DIV PUSH20 0xFFFFFFFFFFFFFFFFFFFFFFFFFFFFFFFFFFFFFFFF AND PUSH20 0xFFFFFFFFFFFFFFFFFFFFFFFFFFFFFFFFFFFFFFFF AND CALLER PUSH20 0xFFFFFFFFFFFFFFFFFFFFFFFFFFFFFFFFFFFFFFFF AND EQ PUSH2 0xF5F JUMPI PUSH1 0x40 MLOAD PUSH32 0x8C379A000000000000000000000000000000000000000000000000000000000 DUP2 MSTORE PUSH1 0x4 ADD PUSH2 0xF56 SWAP1 PUSH2 0x189F JUMP JUMPDEST PUSH1 0x40 MLOAD DUP1 SWAP2 SUB SWAP1 REVERT JUMPDEST JUMP JUMPDEST CALLER PUSH20 0xFFFFFFFFFFFFFFFFFFFFFFFFFFFFFFFFFFFFFFFF AND DUP2 PUSH20 0xFFFFFFFFFFFFFFFFFFFFFFFFFFFFFFFFFFFFFFFF AND EQ ISZERO PUSH2 0xFD0 JUMPI PUSH1 0x40 MLOAD PUSH32 0x8C379A000000000000000000000000000000000000000000000000000000000 DUP2 MSTORE PUSH1 0x4 ADD PUSH2 0xFC7 SWAP1 PUSH2 0x191F JUMP JUMPDEST PUSH1 0x40 MLOAD DUP1 SWAP2 SUB SWAP1 REVERT JUMPDEST DUP1 PUSH1 0x1 PUSH1 0x0 PUSH2 0x100 EXP DUP2 SLOAD DUP2 PUSH20 0xFFFFFFFFFFFFFFFFFFFFFFFFFFFFFFFFFFFFFFFF MUL NOT AND SWAP1 DUP4 PUSH20 0xFFFFFFFFFFFFFFFFFFFFFFFFFFFFFFFFFFFFFFFF AND MUL OR SWAP1 SSTORE POP DUP1 PUSH20 0xFFFFFFFFFFFFFFFFFFFFFFFFFFFFFFFFFFFFFFFF AND PUSH1 0x0 DUP1 SLOAD SWAP1 PUSH2 0x100 EXP SWAP1 DIV PUSH20 0xFFFFFFFFFFFFFFFFFFFFFFFFFFFFFFFFFFFFFFFF AND PUSH20 0xFFFFFFFFFFFFFFFFFFFFFFFFFFFFFFFFFFFFFFFF AND PUSH32 0xED8889F560326EB138920D842192F0EB3DD22B4F139C87A2C57538E05BAE1278 PUSH1 0x40 MLOAD PUSH1 0x40 MLOAD DUP1 SWAP2 SUB SWAP1 LOG3 POP JUMP JUMPDEST PUSH1 0x0 PUSH32 0x0 PUSH20 0xFFFFFFFFFFFFFFFFFFFFFFFFFFFFFFFFFFFFFFFF AND PUSH4 0x4000AEA0 PUSH32 0x0 PUSH32 0x0 PUSH20 0xFFFFFFFFFFFFFFFFFFFFFFFFFFFFFFFFFFFFFFFF AND PUSH4 0x4306D354 DUP9 PUSH1 0x40 MLOAD DUP3 PUSH4 0xFFFFFFFF AND PUSH1 0xE0 SHL DUP2 MSTORE PUSH1 0x4 ADD PUSH2 0x1146 SWAP2 SWAP1 PUSH2 0x1A48 JUMP JUMPDEST PUSH1 0x20 PUSH1 0x40 MLOAD DUP1 DUP4 SUB DUP2 DUP7 DUP1 EXTCODESIZE ISZERO DUP1 ISZERO PUSH2 0x115E JUMPI PUSH1 0x0 DUP1 REVERT JUMPDEST POP GAS STATICCALL ISZERO DUP1 ISZERO PUSH2 0x1172 JUMPI RETURNDATASIZE PUSH1 0x0 DUP1 RETURNDATACOPY RETURNDATASIZE PUSH1 0x0 REVERT JUMPDEST POP POP POP POP PUSH1 0x40 MLOAD RETURNDATASIZE PUSH1 0x1F NOT PUSH1 0x1F DUP3 ADD AND DUP3 ADD DUP1 PUSH1 0x40 MSTORE POP DUP2 ADD SWAP1 PUSH2 0x1196 SWAP2 SWAP1 PUSH2 0x14B5 JUMP JUMPDEST DUP8 DUP8 DUP8 PUSH1 0x40 MLOAD PUSH1 0x20 ADD PUSH2 0x11AB SWAP4 SWAP3 SWAP2 SWAP1 PUSH2 0x1A63 JUMP JUMPDEST PUSH1 0x40 MLOAD PUSH1 0x20 DUP2 DUP4 SUB SUB DUP2 MSTORE SWAP1 PUSH1 0x40 MSTORE PUSH1 0x40 MLOAD DUP5 PUSH4 0xFFFFFFFF AND PUSH1 0xE0 SHL DUP2 MSTORE PUSH1 0x4 ADD PUSH2 0x11D8 SWAP4 SWAP3 SWAP2 SWAP1 PUSH2 0x1821 JUMP JUMPDEST PUSH1 0x20 PUSH1 0x40 MLOAD DUP1 DUP4 SUB DUP2 PUSH1 0x0 DUP8 DUP1 EXTCODESIZE ISZERO DUP1 ISZERO PUSH2 0x11F2 JUMPI PUSH1 0x0 DUP1 REVERT JUMPDEST POP GAS CALL ISZERO DUP1 ISZERO PUSH2 0x1206 JUMPI RETURNDATASIZE PUSH1 0x0 DUP1 RETURNDATACOPY RETURNDATASIZE PUSH1 0x0 REVERT JUMPDEST POP POP POP POP PUSH1 0x40 MLOAD RETURNDATASIZE PUSH1 0x1F NOT PUSH1 0x1F DUP3 ADD AND DUP3 ADD DUP1 PUSH1 0x40 MSTORE POP DUP2 ADD SWAP1 PUSH2 0x122A SWAP2 SWAP1 PUSH2 0x145B JUMP JUMPDEST POP PUSH32 0x0 PUSH20 0xFFFFFFFFFFFFFFFFFFFFFFFFFFFFFFFFFFFFFFFF AND PUSH4 0xFC2A88C3 PUSH1 0x40 MLOAD DUP2 PUSH4 0xFFFFFFFF AND PUSH1 0xE0 SHL DUP2 MSTORE PUSH1 0x4 ADD PUSH1 0x20 PUSH1 0x40 MLOAD DUP1 DUP4 SUB DUP2 DUP7 DUP1 EXTCODESIZE ISZERO DUP1 ISZERO PUSH2 0x1291 JUMPI PUSH1 0x0 DUP1 REVERT JUMPDEST POP GAS STATICCALL ISZERO DUP1 ISZERO PUSH2 0x12A5 JUMPI RETURNDATASIZE PUSH1 0x0 DUP1 RETURNDATACOPY RETURNDATASIZE PUSH1 0x0 REVERT JUMPDEST POP POP POP POP PUSH1 0x40 MLOAD RETURNDATASIZE PUSH1 0x1F NOT PUSH1 0x1F DUP3 ADD AND DUP3 ADD DUP1 PUSH1 0x40 MSTORE POP DUP2 ADD SWAP1 PUSH2 0x12C9 SWAP2 SWAP1 PUSH2 0x14B5 JUMP JUMPDEST SWAP1 POP SWAP4 SWAP3 POP POP POP JUMP JUMPDEST DUP3 DUP1 SLOAD DUP3 DUP3 SSTORE SWAP1 PUSH1 0x0 MSTORE PUSH1 0x20 PUSH1 0x0 KECCAK256 SWAP1 DUP2 ADD SWAP3 DUP3 ISZERO PUSH2 0x130E JUMPI SWAP2 PUSH1 0x20 MUL DUP3 ADD JUMPDEST DUP3 DUP2 GT ISZERO PUSH2 0x130D JUMPI DUP3 MLOAD DUP3 SSTORE SWAP2 PUSH1 0x20 ADD SWAP2 SWAP1 PUSH1 0x1 ADD SWAP1 PUSH2 0x12F2 JUMP JUMPDEST JUMPDEST POP SWAP1 POP PUSH2 0x131B SWAP2 SWAP1 PUSH2 0x131F JUMP JUMPDEST POP SWAP1 JUMP JUMPDEST JUMPDEST DUP1 DUP3 GT ISZERO PUSH2 0x1338 JUMPI PUSH1 0x0 DUP2 PUSH1 0x0 SWAP1 SSTORE POP PUSH1 0x1 ADD PUSH2 0x1320 JUMP JUMPDEST POP SWAP1 JUMP JUMPDEST PUSH1 0x0 PUSH2 0x134F PUSH2 0x134A DUP5 PUSH2 0x1ABF JUMP JUMPDEST PUSH2 0x1A9A JUMP JUMPDEST SWAP1 POP DUP1 DUP4 DUP3 MSTORE PUSH1 0x20 DUP3 ADD SWAP1 POP DUP3 DUP6 PUSH1 0x20 DUP7 MUL DUP3 ADD GT ISZERO PUSH2 0x1372 JUMPI PUSH2 0x1371 PUSH2 0x1D84 JUMP JUMPDEST JUMPDEST PUSH1 0x0 JUMPDEST DUP6 DUP2 LT ISZERO PUSH2 0x13A2 JUMPI DUP2 PUSH2 0x1388 DUP9 DUP3 PUSH2 0x1404 JUMP JUMPDEST DUP5 MSTORE PUSH1 0x20 DUP5 ADD SWAP4 POP PUSH1 0x20 DUP4 ADD SWAP3 POP POP PUSH1 0x1 DUP2 ADD SWAP1 POP PUSH2 0x1375 JUMP JUMPDEST POP POP POP SWAP4 SWAP3 POP POP POP JUMP JUMPDEST PUSH1 0x0 DUP2 CALLDATALOAD SWAP1 POP PUSH2 0x13BB DUP2 PUSH2 0x1EEF JUMP JUMPDEST SWAP3 SWAP2 POP POP JUMP JUMPDEST PUSH1 0x0 DUP3 PUSH1 0x1F DUP4 ADD SLT PUSH2 0x13D6 JUMPI PUSH2 0x13D5 PUSH2 0x1D7F JUMP JUMPDEST JUMPDEST DUP2 CALLDATALOAD PUSH2 0x13E6 DUP5 DUP3 PUSH1 0x20 DUP7 ADD PUSH2 0x133C JUMP JUMPDEST SWAP2 POP POP SWAP3 SWAP2 POP POP JUMP JUMPDEST PUSH1 0x0 DUP2 MLOAD SWAP1 POP PUSH2 0x13FE DUP2 PUSH2 0x1F06 JUMP JUMPDEST SWAP3 SWAP2 POP POP JUMP JUMPDEST PUSH1 0x0 DUP2 CALLDATALOAD SWAP1 POP PUSH2 0x1413 DUP2 PUSH2 0x1F1D JUMP JUMPDEST SWAP3 SWAP2 POP POP JUMP JUMPDEST PUSH1 0x0 DUP2 MLOAD SWAP1 POP PUSH2 0x1428 DUP2 PUSH2 0x1F1D JUMP JUMPDEST SWAP3 SWAP2 POP POP JUMP JUMPDEST PUSH1 0x0 PUSH1 0x20 DUP3 DUP5 SUB SLT ISZERO PUSH2 0x1444 JUMPI PUSH2 0x1443 PUSH2 0x1D8E JUMP JUMPDEST JUMPDEST PUSH1 0x0 PUSH2 0x1452 DUP5 DUP3 DUP6 ADD PUSH2 0x13AC JUMP JUMPDEST SWAP2 POP POP SWAP3 SWAP2 POP POP JUMP JUMPDEST PUSH1 0x0 PUSH1 0x20 DUP3 DUP5 SUB SLT ISZERO PUSH2 0x1471 JUMPI PUSH2 0x1470 PUSH2 0x1D8E JUMP JUMPDEST JUMPDEST PUSH1 0x0 PUSH2 0x147F DUP5 DUP3 DUP6 ADD PUSH2 0x13EF JUMP JUMPDEST SWAP2 POP POP SWAP3 SWAP2 POP POP JUMP JUMPDEST PUSH1 0x0 PUSH1 0x20 DUP3 DUP5 SUB SLT ISZERO PUSH2 0x149E JUMPI PUSH2 0x149D PUSH2 0x1D8E JUMP JUMPDEST JUMPDEST PUSH1 0x0 PUSH2 0x14AC DUP5 DUP3 DUP6 ADD PUSH2 0x1404 JUMP JUMPDEST SWAP2 POP POP SWAP3 SWAP2 POP POP JUMP JUMPDEST PUSH1 0x0 PUSH1 0x20 DUP3 DUP5 SUB SLT ISZERO PUSH2 0x14CB JUMPI PUSH2 0x14CA PUSH2 0x1D8E JUMP JUMPDEST JUMPDEST PUSH1 0x0 PUSH2 0x14D9 DUP5 DUP3 DUP6 ADD PUSH2 0x1419 JUMP JUMPDEST SWAP2 POP POP SWAP3 SWAP2 POP POP JUMP JUMPDEST PUSH1 0x0 DUP1 PUSH1 0x40 DUP4 DUP6 SUB SLT ISZERO PUSH2 0x14F9 JUMPI PUSH2 0x14F8 PUSH2 0x1D8E JUMP JUMPDEST JUMPDEST PUSH1 0x0 PUSH2 0x1507 DUP6 DUP3 DUP7 ADD PUSH2 0x1404 JUMP JUMPDEST SWAP3 POP POP PUSH1 0x20 DUP4 ADD CALLDATALOAD PUSH8 0xFFFFFFFFFFFFFFFF DUP2 GT ISZERO PUSH2 0x1528 JUMPI PUSH2 0x1527 PUSH2 0x1D89 JUMP JUMPDEST JUMPDEST PUSH2 0x1534 DUP6 DUP3 DUP7 ADD PUSH2 0x13C1 JUMP JUMPDEST SWAP2 POP POP SWAP3 POP SWAP3 SWAP1 POP JUMP JUMPDEST PUSH1 0x0 PUSH2 0x154A DUP4 DUP4 PUSH2 0x1764 JUMP JUMPDEST PUSH1 0x20 DUP4 ADD SWAP1 POP SWAP3 SWAP2 POP POP JUMP JUMPDEST PUSH2 0x155F DUP2 PUSH2 0x1BC8 JUMP JUMPDEST DUP3 MSTORE POP POP JUMP JUMPDEST PUSH2 0x156E DUP2 PUSH2 0x1BB6 JUMP JUMPDEST DUP3 MSTORE POP POP JUMP JUMPDEST PUSH1 0x0 PUSH2 0x157F DUP3 PUSH2 0x1AFB JUMP JUMPDEST PUSH2 0x1589 DUP2 DUP6 PUSH2 0x1B1E JUMP JUMPDEST SWAP4 POP PUSH2 0x1594 DUP4 PUSH2 0x1AEB JUMP JUMPDEST DUP1 PUSH1 0x0 JUMPDEST DUP4 DUP2 LT ISZERO PUSH2 0x15C5 JUMPI DUP2 MLOAD PUSH2 0x15AC DUP9 DUP3 PUSH2 0x153E JUMP JUMPDEST SWAP8 POP PUSH2 0x15B7 DUP4 PUSH2 0x1B11 JUMP JUMPDEST SWAP3 POP POP PUSH1 0x1 DUP2 ADD SWAP1 POP PUSH2 0x1598 JUMP JUMPDEST POP DUP6 SWAP4 POP POP POP POP SWAP3 SWAP2 POP POP JUMP JUMPDEST PUSH2 0x15DB DUP2 PUSH2 0x1BDA JUMP JUMPDEST DUP3 MSTORE POP POP JUMP JUMPDEST PUSH1 0x0 PUSH2 0x15EC DUP3 PUSH2 0x1B06 JUMP JUMPDEST PUSH2 0x15F6 DUP2 DUP6 PUSH2 0x1B2F JUMP JUMPDEST SWAP4 POP PUSH2 0x1606 DUP2 DUP6 PUSH1 0x20 DUP7 ADD PUSH2 0x1C2E JUMP JUMPDEST PUSH2 0x160F DUP2 PUSH2 0x1D93 JUMP JUMPDEST DUP5 ADD SWAP2 POP POP SWAP3 SWAP2 POP POP JUMP JUMPDEST PUSH1 0x0 PUSH2 0x1627 PUSH1 0x11 DUP4 PUSH2 0x1B4B JUMP JUMPDEST SWAP2 POP PUSH2 0x1632 DUP3 PUSH2 0x1DA4 JUMP JUMPDEST PUSH1 0x20 DUP3 ADD SWAP1 POP SWAP2 SWAP1 POP JUMP JUMPDEST PUSH1 0x0 PUSH2 0x164A PUSH1 0x16 DUP4 PUSH2 0x1B4B JUMP JUMPDEST SWAP2 POP PUSH2 0x1655 DUP3 PUSH2 0x1DCD JUMP JUMPDEST PUSH1 0x20 DUP3 ADD SWAP1 POP SWAP2 SWAP1 POP JUMP JUMPDEST PUSH1 0x0 PUSH2 0x166D PUSH1 0x16 DUP4 PUSH2 0x1B4B JUMP JUMPDEST SWAP2 POP PUSH2 0x1678 DUP3 PUSH2 0x1DF6 JUMP JUMPDEST PUSH1 0x20 DUP3 ADD SWAP1 POP SWAP2 SWAP1 POP JUMP JUMPDEST PUSH1 0x0 PUSH2 0x1690 PUSH1 0x1D DUP4 PUSH2 0x1B4B JUMP JUMPDEST SWAP2 POP PUSH2 0x169B DUP3 PUSH2 0x1E1F JUMP JUMPDEST PUSH1 0x20 DUP3 ADD SWAP1 POP SWAP2 SWAP1 POP JUMP JUMPDEST PUSH1 0x0 PUSH2 0x16B3 PUSH1 0x1C DUP4 PUSH2 0x1B4B JUMP JUMPDEST SWAP2 POP PUSH2 0x16BE DUP3 PUSH2 0x1E48 JUMP JUMPDEST PUSH1 0x20 DUP3 ADD SWAP1 POP SWAP2 SWAP1 POP JUMP JUMPDEST PUSH1 0x0 PUSH2 0x16D6 PUSH1 0x12 DUP4 PUSH2 0x1B4B JUMP JUMPDEST SWAP2 POP PUSH2 0x16E1 DUP3 PUSH2 0x1E71 JUMP JUMPDEST PUSH1 0x20 DUP3 ADD SWAP1 POP SWAP2 SWAP1 POP JUMP JUMPDEST PUSH1 0x0 PUSH2 0x16F9 PUSH1 0x0 DUP4 PUSH2 0x1B40 JUMP JUMPDEST SWAP2 POP PUSH2 0x1704 DUP3 PUSH2 0x1E9A JUMP JUMPDEST PUSH1 0x0 DUP3 ADD SWAP1 POP SWAP2 SWAP1 POP JUMP JUMPDEST PUSH1 0x0 PUSH2 0x171C PUSH1 0x17 DUP4 PUSH2 0x1B4B JUMP JUMPDEST SWAP2 POP PUSH2 0x1727 DUP3 PUSH2 0x1E9D JUMP JUMPDEST PUSH1 0x20 DUP3 ADD SWAP1 POP SWAP2 SWAP1 POP JUMP JUMPDEST PUSH1 0x0 PUSH2 0x173F PUSH1 0x1F DUP4 PUSH2 0x1B4B JUMP JUMPDEST SWAP2 POP PUSH2 0x174A DUP3 PUSH2 0x1EC6 JUMP JUMPDEST PUSH1 0x20 DUP3 ADD SWAP1 POP SWAP2 SWAP1 POP JUMP JUMPDEST PUSH2 0x175E DUP2 PUSH2 0x1BE6 JUMP JUMPDEST DUP3 MSTORE POP POP JUMP JUMPDEST PUSH2 0x176D DUP2 PUSH2 0x1C14 JUMP JUMPDEST DUP3 MSTORE POP POP JUMP JUMPDEST PUSH2 0x177C DUP2 PUSH2 0x1C14 JUMP JUMPDEST DUP3 MSTORE POP POP JUMP JUMPDEST PUSH2 0x178B DUP2 PUSH2 0x1C1E JUMP JUMPDEST DUP3 MSTORE POP POP JUMP JUMPDEST PUSH1 0x0 PUSH2 0x179C DUP3 PUSH2 0x16EC JUMP JUMPDEST SWAP2 POP DUP2 SWAP1 POP SWAP2 SWAP1 POP JUMP JUMPDEST PUSH1 0x0 PUSH1 0x20 DUP3 ADD SWAP1 POP PUSH2 0x17BB PUSH1 0x0 DUP4 ADD DUP5 PUSH2 0x1565 JUMP JUMPDEST SWAP3 SWAP2 POP POP JUMP JUMPDEST PUSH1 0x0 PUSH1 0x60 DUP3 ADD SWAP1 POP PUSH2 0x17D6 PUSH1 0x0 DUP4 ADD DUP7 PUSH2 0x1556 JUMP JUMPDEST PUSH2 0x17E3 PUSH1 0x20 DUP4 ADD DUP6 PUSH2 0x1773 JUMP JUMPDEST PUSH2 0x17F0 PUSH1 0x40 DUP4 ADD DUP5 PUSH2 0x1773 JUMP JUMPDEST SWAP5 SWAP4 POP POP POP POP JUMP JUMPDEST PUSH1 0x0 PUSH1 0x40 DUP3 ADD SWAP1 POP PUSH2 0x180D PUSH1 0x0 DUP4 ADD DUP6 PUSH2 0x1565 JUMP JUMPDEST PUSH2 0x181A PUSH1 0x20 DUP4 ADD DUP5 PUSH2 0x1773 JUMP JUMPDEST SWAP4 SWAP3 POP POP POP JUMP JUMPDEST PUSH1 0x0 PUSH1 0x60 DUP3 ADD SWAP1 POP PUSH2 0x1836 PUSH1 0x0 DUP4 ADD DUP7 PUSH2 0x1565 JUMP JUMPDEST PUSH2 0x1843 PUSH1 0x20 DUP4 ADD DUP6 PUSH2 0x1773 JUMP JUMPDEST DUP2 DUP2 SUB PUSH1 0x40 DUP4 ADD MSTORE PUSH2 0x1855 DUP2 DUP5 PUSH2 0x15E1 JUMP JUMPDEST SWAP1 POP SWAP5 SWAP4 POP POP POP POP JUMP JUMPDEST PUSH1 0x0 PUSH1 0x20 DUP3 ADD SWAP1 POP DUP2 DUP2 SUB PUSH1 0x0 DUP4 ADD MSTORE PUSH2 0x1878 DUP2 PUSH2 0x161A JUMP JUMPDEST SWAP1 POP SWAP2 SWAP1 POP JUMP JUMPDEST PUSH1 0x0 PUSH1 0x20 DUP3 ADD SWAP1 POP DUP2 DUP2 SUB PUSH1 0x0 DUP4 ADD MSTORE PUSH2 0x1898 DUP2 PUSH2 0x163D JUMP JUMPDEST SWAP1 POP SWAP2 SWAP1 POP JUMP JUMPDEST PUSH1 0x0 PUSH1 0x20 DUP3 ADD SWAP1 POP DUP2 DUP2 SUB PUSH1 0x0 DUP4 ADD MSTORE PUSH2 0x18B8 DUP2 PUSH2 0x1660 JUMP JUMPDEST SWAP1 POP SWAP2 SWAP1 POP JUMP JUMPDEST PUSH1 0x0 PUSH1 0x20 DUP3 ADD SWAP1 POP DUP2 DUP2 SUB PUSH1 0x0 DUP4 ADD MSTORE PUSH2 0x18D8 DUP2 PUSH2 0x1683 JUMP JUMPDEST SWAP1 POP SWAP2 SWAP1 POP JUMP JUMPDEST PUSH1 0x0 PUSH1 0x20 DUP3 ADD SWAP1 POP DUP2 DUP2 SUB PUSH1 0x0 DUP4 ADD MSTORE PUSH2 0x18F8 DUP2 PUSH2 0x16A6 JUMP JUMPDEST SWAP1 POP SWAP2 SWAP1 POP JUMP JUMPDEST PUSH1 0x0 PUSH1 0x20 DUP3 ADD SWAP1 POP DUP2 DUP2 SUB PUSH1 0x0 DUP4 ADD MSTORE PUSH2 0x1918 DUP2 PUSH2 0x16C9 JUMP JUMPDEST SWAP1 POP SWAP2 SWAP1 POP JUMP JUMPDEST PUSH1 0x0 PUSH1 0x20 DUP3 ADD SWAP1 POP DUP2 DUP2 SUB PUSH1 0x0 DUP4 ADD MSTORE PUSH2 0x1938 DUP2 PUSH2 0x170F JUMP JUMPDEST SWAP1 POP SWAP2 SWAP1 POP JUMP JUMPDEST PUSH1 0x0 PUSH1 0x20 DUP3 ADD SWAP1 POP DUP2 DUP2 SUB PUSH1 0x0 DUP4 ADD MSTORE PUSH2 0x1958 DUP2 PUSH2 0x1732 JUMP JUMPDEST SWAP1 POP SWAP2 SWAP1 POP JUMP JUMPDEST PUSH1 0x0 PUSH1 0x20 DUP3 ADD SWAP1 POP PUSH2 0x1974 PUSH1 0x0 DUP4 ADD DUP5 PUSH2 0x1773 JUMP JUMPDEST SWAP3 SWAP2 POP POP JUMP JUMPDEST PUSH1 0x0 PUSH1 0x60 DUP3 ADD SWAP1 POP PUSH2 0x198F PUSH1 0x0 DUP4 ADD DUP7 PUSH2 0x1773 JUMP JUMPDEST DUP2 DUP2 SUB PUSH1 0x20 DUP4 ADD MSTORE PUSH2 0x19A1 DUP2 DUP6 PUSH2 0x1574 JUMP JUMPDEST SWAP1 POP PUSH2 0x19B0 PUSH1 0x40 DUP4 ADD DUP5 PUSH2 0x1773 JUMP JUMPDEST SWAP5 SWAP4 POP POP POP POP JUMP JUMPDEST PUSH1 0x0 PUSH1 0x40 DUP3 ADD SWAP1 POP PUSH2 0x19CD PUSH1 0x0 DUP4 ADD DUP6 PUSH2 0x1773 JUMP JUMPDEST PUSH2 0x19DA PUSH1 0x20 DUP4 ADD DUP5 PUSH2 0x15D2 JUMP JUMPDEST SWAP4 SWAP3 POP POP POP JUMP JUMPDEST PUSH1 0x0 PUSH1 0x60 DUP3 ADD SWAP1 POP PUSH2 0x19F6 PUSH1 0x0 DUP4 ADD DUP7 PUSH2 0x1773 JUMP JUMPDEST PUSH2 0x1A03 PUSH1 0x20 DUP4 ADD DUP6 PUSH2 0x15D2 JUMP JUMPDEST DUP2 DUP2 SUB PUSH1 0x40 DUP4 ADD MSTORE PUSH2 0x1A15 DUP2 DUP5 PUSH2 0x1574 JUMP JUMPDEST SWAP1 POP SWAP5 SWAP4 POP POP POP POP JUMP JUMPDEST PUSH1 0x0 PUSH1 0x40 DUP3 ADD SWAP1 POP PUSH2 0x1A34 PUSH1 0x0 DUP4 ADD DUP6 PUSH2 0x1773 JUMP JUMPDEST PUSH2 0x1A41 PUSH1 0x20 DUP4 ADD DUP5 PUSH2 0x1782 JUMP JUMPDEST SWAP4 SWAP3 POP POP POP JUMP JUMPDEST PUSH1 0x0 PUSH1 0x20 DUP3 ADD SWAP1 POP PUSH2 0x1A5D PUSH1 0x0 DUP4 ADD DUP5 PUSH2 0x1782 JUMP JUMPDEST SWAP3 SWAP2 POP POP JUMP JUMPDEST PUSH1 0x0 PUSH1 0x60 DUP3 ADD SWAP1 POP PUSH2 0x1A78 PUSH1 0x0 DUP4 ADD DUP7 PUSH2 0x1782 JUMP JUMPDEST PUSH2 0x1A85 PUSH1 0x20 DUP4 ADD DUP6 PUSH2 0x1755 JUMP JUMPDEST PUSH2 0x1A92 PUSH1 0x40 DUP4 ADD DUP5 PUSH2 0x1782 JUMP JUMPDEST SWAP5 SWAP4 POP POP POP POP JUMP JUMPDEST PUSH1 0x0 PUSH2 0x1AA4 PUSH2 0x1AB5 JUMP JUMPDEST SWAP1 POP PUSH2 0x1AB0 DUP3 DUP3 PUSH2 0x1C61 JUMP JUMPDEST SWAP2 SWAP1 POP JUMP JUMPDEST PUSH1 0x0 PUSH1 0x40 MLOAD SWAP1 POP SWAP1 JUMP JUMPDEST PUSH1 0x0 PUSH8 0xFFFFFFFFFFFFFFFF DUP3 GT ISZERO PUSH2 0x1ADA JUMPI PUSH2 0x1AD9 PUSH2 0x1D50 JUMP JUMPDEST JUMPDEST PUSH1 0x20 DUP3 MUL SWAP1 POP PUSH1 0x20 DUP2 ADD SWAP1 POP SWAP2 SWAP1 POP JUMP JUMPDEST PUSH1 0x0 DUP2 SWAP1 POP PUSH1 0x20 DUP3 ADD SWAP1 POP SWAP2 SWAP1 POP JUMP JUMPDEST PUSH1 0x0 DUP2 MLOAD SWAP1 POP SWAP2 SWAP1 POP JUMP JUMPDEST PUSH1 0x0 DUP2 MLOAD SWAP1 POP SWAP2 SWAP1 POP JUMP JUMPDEST PUSH1 0x0 PUSH1 0x20 DUP3 ADD SWAP1 POP SWAP2 SWAP1 POP JUMP JUMPDEST PUSH1 0x0 DUP3 DUP3 MSTORE PUSH1 0x20 DUP3 ADD SWAP1 POP SWAP3 SWAP2 POP POP JUMP JUMPDEST PUSH1 0x0 DUP3 DUP3 MSTORE PUSH1 0x20 DUP3 ADD SWAP1 POP SWAP3 SWAP2 POP POP JUMP JUMPDEST PUSH1 0x0 DUP2 SWAP1 POP SWAP3 SWAP2 POP POP JUMP JUMPDEST PUSH1 0x0 DUP3 DUP3 MSTORE PUSH1 0x20 DUP3 ADD SWAP1 POP SWAP3 SWAP2 POP POP JUMP JUMPDEST PUSH1 0x0 PUSH2 0x1B67 DUP3 PUSH2 0x1C14 JUMP JUMPDEST SWAP2 POP PUSH2 0x1B72 DUP4 PUSH2 0x1C14 JUMP JUMPDEST SWAP3 POP DUP2 PUSH32 0xFFFFFFFFFFFFFFFFFFFFFFFFFFFFFFFFFFFFFFFFFFFFFFFFFFFFFFFFFFFFFFFF DIV DUP4 GT DUP3 ISZERO ISZERO AND ISZERO PUSH2 0x1BAB JUMPI PUSH2 0x1BAA PUSH2 0x1CC3 JUMP JUMPDEST JUMPDEST DUP3 DUP3 MUL SWAP1 POP SWAP3 SWAP2 POP POP JUMP JUMPDEST PUSH1 0x0 PUSH2 0x1BC1 DUP3 PUSH2 0x1BF4 JUMP JUMPDEST SWAP1 POP SWAP2 SWAP1 POP JUMP JUMPDEST PUSH1 0x0 PUSH2 0x1BD3 DUP3 PUSH2 0x1BF4 JUMP JUMPDEST SWAP1 POP SWAP2 SWAP1 POP JUMP JUMPDEST PUSH1 0x0 DUP2 ISZERO ISZERO SWAP1 POP SWAP2 SWAP1 POP JUMP JUMPDEST PUSH1 0x0 PUSH2 0xFFFF DUP3 AND SWAP1 POP SWAP2 SWAP1 POP JUMP JUMPDEST PUSH1 0x0 PUSH20 0xFFFFFFFFFFFFFFFFFFFFFFFFFFFFFFFFFFFFFFFF DUP3 AND SWAP1 POP SWAP2 SWAP1 POP JUMP JUMPDEST PUSH1 0x0 DUP2 SWAP1 POP SWAP2 SWAP1 POP JUMP JUMPDEST PUSH1 0x0 PUSH4 0xFFFFFFFF DUP3 AND SWAP1 POP SWAP2 SWAP1 POP JUMP JUMPDEST PUSH1 0x0 JUMPDEST DUP4 DUP2 LT ISZERO PUSH2 0x1C4C JUMPI DUP1 DUP3 ADD MLOAD DUP2 DUP5 ADD MSTORE PUSH1 0x20 DUP2 ADD SWAP1 POP PUSH2 0x1C31 JUMP JUMPDEST DUP4 DUP2 GT ISZERO PUSH2 0x1C5B JUMPI PUSH1 0x0 DUP5 DUP5 ADD MSTORE JUMPDEST POP POP POP POP JUMP JUMPDEST PUSH2 0x1C6A DUP3 PUSH2 0x1D93 JUMP JUMPDEST DUP2 ADD DUP2 DUP2 LT PUSH8 0xFFFFFFFFFFFFFFFF DUP3 GT OR ISZERO PUSH2 0x1C89 JUMPI PUSH2 0x1C88 PUSH2 0x1D50 JUMP JUMPDEST JUMPDEST DUP1 PUSH1 0x40 MSTORE POP POP POP JUMP JUMPDEST PUSH1 0x0 PUSH2 0x1C9D DUP3 PUSH2 0x1C14 JUMP JUMPDEST SWAP2 POP PUSH2 0x1CA8 DUP4 PUSH2 0x1C14 JUMP JUMPDEST SWAP3 POP DUP3 PUSH2 0x1CB8 JUMPI PUSH2 0x1CB7 PUSH2 0x1CF2 JUMP JUMPDEST JUMPDEST DUP3 DUP3 MOD SWAP1 POP SWAP3 SWAP2 POP POP JUMP JUMPDEST PUSH32 0x4E487B7100000000000000000000000000000000000000000000000000000000 PUSH1 0x0 MSTORE PUSH1 0x11 PUSH1 0x4 MSTORE PUSH1 0x24 PUSH1 0x0 REVERT JUMPDEST PUSH32 0x4E487B7100000000000000000000000000000000000000000000000000000000 PUSH1 0x0 MSTORE PUSH1 0x12 PUSH1 0x4 MSTORE PUSH1 0x24 PUSH1 0x0 REVERT JUMPDEST PUSH32 0x4E487B7100000000000000000000000000000000000000000000000000000000 PUSH1 0x0 MSTORE PUSH1 0x32 PUSH1 0x4 MSTORE PUSH1 0x24 PUSH1 0x0 REVERT JUMPDEST PUSH32 0x4E487B7100000000000000000000000000000000000000000000000000000000 PUSH1 0x0 MSTORE PUSH1 0x41 PUSH1 0x4 MSTORE PUSH1 0x24 PUSH1 0x0 REVERT JUMPDEST PUSH1 0x0 DUP1 REVERT JUMPDEST PUSH1 0x0 DUP1 REVERT JUMPDEST PUSH1 0x0 DUP1 REVERT JUMPDEST PUSH1 0x0 DUP1 REVERT JUMPDEST PUSH1 0x0 PUSH1 0x1F NOT PUSH1 0x1F DUP4 ADD AND SWAP1 POP SWAP2 SWAP1 POP JUMP JUMPDEST PUSH32 0x72657175657374206E6F7420666F756E64000000000000000000000000000000 PUSH1 0x0 DUP3 ADD MSTORE POP JUMP JUMPDEST PUSH32 0x4D7573742062652070726F706F736564206F776E657200000000000000000000 PUSH1 0x0 DUP3 ADD MSTORE POP JUMP JUMPDEST PUSH32 0x4F6E6C792063616C6C61626C65206279206F776E657200000000000000000000 PUSH1 0x0 DUP3 ADD MSTORE POP JUMP JUMPDEST PUSH32 0x436173696E6F3A2057696E6E696E67207061796F7574206661696C6564000000 PUSH1 0x0 DUP3 ADD MSTORE POP JUMP JUMPDEST PUSH32 0x42657420616E792076616C7565206265747765656E203120746F203600000000 PUSH1 0x0 DUP3 ADD MSTORE POP JUMP JUMPDEST PUSH32 0x556E61626C6520746F207472616E736665720000000000000000000000000000 PUSH1 0x0 DUP3 ADD MSTORE POP JUMP JUMPDEST POP JUMP JUMPDEST PUSH32 0x43616E6E6F74207472616E7366657220746F2073656C66000000000000000000 PUSH1 0x0 DUP3 ADD MSTORE POP JUMP JUMPDEST PUSH32 0x6F6E6C792056524620563220777261707065722063616E2066756C66696C6C00 PUSH1 0x0 DUP3 ADD MSTORE POP JUMP JUMPDEST PUSH2 0x1EF8 DUP2 PUSH2 0x1BB6 JUMP JUMPDEST DUP2 EQ PUSH2 0x1F03 JUMPI PUSH1 0x0 DUP1 REVERT JUMPDEST POP JUMP JUMPDEST PUSH2 0x1F0F DUP2 PUSH2 0x1BDA JUMP JUMPDEST DUP2 EQ PUSH2 0x1F1A JUMPI PUSH1 0x0 DUP1 REVERT JUMPDEST POP JUMP JUMPDEST PUSH2 0x1F26 DUP2 PUSH2 0x1C14 JUMP JUMPDEST DUP2 EQ PUSH2 0x1F31 JUMPI PUSH1 0x0 DUP1 REVERT JUMPDEST POP JUMP INVALID LOG2 PUSH5 0x6970667358 0x22 SLT KECCAK256 0xC9 0xE8 0xB2 0xD9 PUSH29 0xE77C207B6EE401D275A8EC7AD0A26875B160255175B56C11F81DF96473 PUSH16 0x6C634300080700330000000000000000 "
				},
				"gasEstimates": {
					"creation": {
						"codeDepositCost": "1608400",
						"executionCost": "infinite",
						"totalCost": "infinite"
					},
					"external": {
						"acceptOwnership()": "54629",
						"betResult()": "2451",
						"getRequestStatus(uint256)": "infinite",
						"lastRequestId()": "2517",
						"maxBet()": "2452",
						"owner()": "2545",
						"playGame(uint256)": "infinite",
						"rawFulfillRandomWords(uint256,uint256[])": "infinite",
						"records(uint256)": "infinite",
						"requestIds(uint256)": "infinite",
						"s_requests(uint256)": "infinite",
						"transferOwnership(address)": "30723",
						"withdrawLink()": "infinite"
					},
					"internal": {
						"fulfillRandomWords(uint256,uint256[] memory)": "infinite",
						"requestRandomWords()": "infinite"
					}
				},
				"methodIdentifiers": {
					"acceptOwnership()": "79ba5097",
					"betResult()": "bfb3047f",
					"getRequestStatus(uint256)": "d8a4676f",
					"lastRequestId()": "fc2a88c3",
					"maxBet()": "2e5b2168",
					"owner()": "8da5cb5b",
					"playGame(uint256)": "5873533d",
					"rawFulfillRandomWords(uint256,uint256[])": "1fe543e3",
					"records(uint256)": "34461067",
					"requestIds(uint256)": "8796ba8c",
					"s_requests(uint256)": "a168fa89",
					"transferOwnership(address)": "f2fde38b",
					"withdrawLink()": "8dc654a2"
				}
			},
			"storageLayout": {
				"storage": [
					{
						"astId": 27,
						"contract": "docs.chain.link/samples/VRF/VRFv2DirectFundingConsumer.sol:VRFv2DirectFundingConsumer",
						"label": "s_owner",
						"offset": 0,
						"slot": "0",
						"type": "t_address"
					},
					{
						"astId": 29,
						"contract": "docs.chain.link/samples/VRF/VRFv2DirectFundingConsumer.sol:VRFv2DirectFundingConsumer",
						"label": "s_pendingOwner",
						"offset": 0,
						"slot": "1",
						"type": "t_address"
					},
					{
						"astId": 459,
						"contract": "docs.chain.link/samples/VRF/VRFv2DirectFundingConsumer.sol:VRFv2DirectFundingConsumer",
						"label": "s_requests",
						"offset": 0,
						"slot": "2",
						"type": "t_mapping(t_uint256,t_struct(RequestStatus)454_storage)"
					},
					{
						"astId": 462,
						"contract": "docs.chain.link/samples/VRF/VRFv2DirectFundingConsumer.sol:VRFv2DirectFundingConsumer",
						"label": "requestIds",
						"offset": 0,
						"slot": "3",
						"type": "t_array(t_uint256)dyn_storage"
					},
					{
						"astId": 464,
						"contract": "docs.chain.link/samples/VRF/VRFv2DirectFundingConsumer.sol:VRFv2DirectFundingConsumer",
						"label": "lastRequestId",
						"offset": 0,
						"slot": "4",
						"type": "t_uint256"
					},
					{
						"astId": 467,
						"contract": "docs.chain.link/samples/VRF/VRFv2DirectFundingConsumer.sol:VRFv2DirectFundingConsumer",
						"label": "callbackGasLimit",
						"offset": 0,
						"slot": "5",
						"type": "t_uint32"
					},
					{
						"astId": 470,
						"contract": "docs.chain.link/samples/VRF/VRFv2DirectFundingConsumer.sol:VRFv2DirectFundingConsumer",
						"label": "requestConfirmations",
						"offset": 4,
						"slot": "5",
						"type": "t_uint16"
					},
					{
						"astId": 473,
						"contract": "docs.chain.link/samples/VRF/VRFv2DirectFundingConsumer.sol:VRFv2DirectFundingConsumer",
						"label": "numWords",
						"offset": 6,
						"slot": "5",
						"type": "t_uint32"
					},
					{
						"astId": 476,
						"contract": "docs.chain.link/samples/VRF/VRFv2DirectFundingConsumer.sol:VRFv2DirectFundingConsumer",
						"label": "linkAddress",
						"offset": 10,
						"slot": "5",
						"type": "t_address"
					},
					{
						"astId": 479,
						"contract": "docs.chain.link/samples/VRF/VRFv2DirectFundingConsumer.sol:VRFv2DirectFundingConsumer",
						"label": "wrapperAddress",
						"offset": 0,
						"slot": "6",
						"type": "t_address"
					},
					{
						"astId": 491,
						"contract": "docs.chain.link/samples/VRF/VRFv2DirectFundingConsumer.sol:VRFv2DirectFundingConsumer",
						"label": "records",
						"offset": 0,
						"slot": "7",
						"type": "t_mapping(t_uint256,t_struct(Player)486_storage)"
					},
					{
						"astId": 493,
						"contract": "docs.chain.link/samples/VRF/VRFv2DirectFundingConsumer.sol:VRFv2DirectFundingConsumer",
						"label": "betResult",
						"offset": 0,
						"slot": "8",
						"type": "t_uint256"
					},
					{
						"astId": 496,
						"contract": "docs.chain.link/samples/VRF/VRFv2DirectFundingConsumer.sol:VRFv2DirectFundingConsumer",
						"label": "maxBet",
						"offset": 0,
						"slot": "9",
						"type": "t_uint256"
					}
				],
				"types": {
					"t_address": {
						"encoding": "inplace",
						"label": "address",
						"numberOfBytes": "20"
					},
					"t_address_payable": {
						"encoding": "inplace",
						"label": "address payable",
						"numberOfBytes": "20"
					},
					"t_array(t_uint256)dyn_storage": {
						"base": "t_uint256",
						"encoding": "dynamic_array",
						"label": "uint256[]",
						"numberOfBytes": "32"
					},
					"t_bool": {
						"encoding": "inplace",
						"label": "bool",
						"numberOfBytes": "1"
					},
					"t_mapping(t_uint256,t_struct(Player)486_storage)": {
						"encoding": "mapping",
						"key": "t_uint256",
						"label": "mapping(uint256 => struct VRFv2DirectFundingConsumer.Player)",
						"numberOfBytes": "32",
						"value": "t_struct(Player)486_storage"
					},
					"t_mapping(t_uint256,t_struct(RequestStatus)454_storage)": {
						"encoding": "mapping",
						"key": "t_uint256",
						"label": "mapping(uint256 => struct VRFv2DirectFundingConsumer.RequestStatus)",
						"numberOfBytes": "32",
						"value": "t_struct(RequestStatus)454_storage"
					},
					"t_struct(Player)486_storage": {
						"encoding": "inplace",
						"label": "struct VRFv2DirectFundingConsumer.Player",
						"members": [
							{
								"astId": 481,
								"contract": "docs.chain.link/samples/VRF/VRFv2DirectFundingConsumer.sol:VRFv2DirectFundingConsumer",
								"label": "playerAddress",
								"offset": 0,
								"slot": "0",
								"type": "t_address_payable"
							},
							{
								"astId": 483,
								"contract": "docs.chain.link/samples/VRF/VRFv2DirectFundingConsumer.sol:VRFv2DirectFundingConsumer",
								"label": "betNumber",
								"offset": 0,
								"slot": "1",
								"type": "t_uint256"
							},
							{
								"astId": 485,
								"contract": "docs.chain.link/samples/VRF/VRFv2DirectFundingConsumer.sol:VRFv2DirectFundingConsumer",
								"label": "betAmount",
								"offset": 0,
								"slot": "2",
								"type": "t_uint256"
							}
						],
						"numberOfBytes": "96"
					},
					"t_struct(RequestStatus)454_storage": {
						"encoding": "inplace",
						"label": "struct VRFv2DirectFundingConsumer.RequestStatus",
						"members": [
							{
								"astId": 448,
								"contract": "docs.chain.link/samples/VRF/VRFv2DirectFundingConsumer.sol:VRFv2DirectFundingConsumer",
								"label": "paid",
								"offset": 0,
								"slot": "0",
								"type": "t_uint256"
							},
							{
								"astId": 450,
								"contract": "docs.chain.link/samples/VRF/VRFv2DirectFundingConsumer.sol:VRFv2DirectFundingConsumer",
								"label": "fulfilled",
								"offset": 0,
								"slot": "1",
								"type": "t_bool"
							},
							{
								"astId": 453,
								"contract": "docs.chain.link/samples/VRF/VRFv2DirectFundingConsumer.sol:VRFv2DirectFundingConsumer",
								"label": "randomWords",
								"offset": 0,
								"slot": "2",
								"type": "t_array(t_uint256)dyn_storage"
							}
						],
						"numberOfBytes": "96"
					},
					"t_uint16": {
						"encoding": "inplace",
						"label": "uint16",
						"numberOfBytes": "2"
					},
					"t_uint256": {
						"encoding": "inplace",
						"label": "uint256",
						"numberOfBytes": "32"
					},
					"t_uint32": {
						"encoding": "inplace",
						"label": "uint32",
						"numberOfBytes": "4"
					}
				}
			},
			"userdoc": {
				"kind": "user",
				"methods": {
					"acceptOwnership()": {
						"notice": "Allows an ownership transfer to be completed by the recipient."
					},
					"owner()": {
						"notice": "Get the current owner"
					},
					"transferOwnership(address)": {
						"notice": "Allows an owner to begin transferring ownership to a new address, pending."
					},
					"withdrawLink()": {
						"notice": "Allow withdraw of Link tokens from the contract"
					}
				},
				"notice": "THIS IS AN EXAMPLE CONTRACT THAT USES HARDCODED VALUES FOR CLARITY. THIS IS AN EXAMPLE CONTRACT THAT USES UN-AUDITED CODE. DO NOT USE THIS CODE IN PRODUCTION.",
				"version": 1
			}
		}
	}
}