{
	"docs.chain.link/samples/VRF/VRFv2Consumer.sol": {
		"VRFv2Consumer": {
			"abi": [
				{
					"inputs": [
						{
							"internalType": "uint64",
							"name": "subscriptionId",
							"type": "uint64"
						}
					],
					"stateMutability": "nonpayable",
					"type": "constructor"
				},
				{
					"inputs": [
						{
							"internalType": "address",
							"name": "have",
							"type": "address"
						},
						{
							"internalType": "address",
							"name": "want",
							"type": "address"
						}
					],
					"name": "OnlyCoordinatorCanFulfill",
					"type": "error"
				},
				{
					"anonymous": false,
					"inputs": [
						{
							"indexed": true,
							"internalType": "address",
							"name": "from",
							"type": "address"
						},
						{
							"indexed": true,
							"internalType": "address",
							"name": "to",
							"type": "address"
						}
					],
					"name": "OwnershipTransferRequested",
					"type": "event"
				},
				{
					"anonymous": false,
					"inputs": [
						{
							"indexed": true,
							"internalType": "address",
							"name": "from",
							"type": "address"
						},
						{
							"indexed": true,
							"internalType": "address",
							"name": "to",
							"type": "address"
						}
					],
					"name": "OwnershipTransferred",
					"type": "event"
				},
				{
					"anonymous": false,
					"inputs": [
						{
							"indexed": false,
							"internalType": "uint256",
							"name": "requestId",
							"type": "uint256"
						},
						{
							"indexed": false,
							"internalType": "uint256[]",
							"name": "randomWords",
							"type": "uint256[]"
						}
					],
					"name": "RequestFulfilled",
					"type": "event"
				},
				{
					"anonymous": false,
					"inputs": [
						{
							"indexed": false,
							"internalType": "uint256",
							"name": "requestId",
							"type": "uint256"
						},
						{
							"indexed": false,
							"internalType": "uint32",
							"name": "numWords",
							"type": "uint32"
						}
					],
					"name": "RequestSent",
					"type": "event"
				},
				{
					"inputs": [],
					"name": "acceptOwnership",
					"outputs": [],
					"stateMutability": "nonpayable",
					"type": "function"
				},
				{
					"inputs": [],
					"name": "addBalance",
					"outputs": [],
					"stateMutability": "payable",
					"type": "function"
				},
				{
					"inputs": [],
					"name": "betResult",
					"outputs": [
						{
							"internalType": "uint256",
							"name": "",
							"type": "uint256"
						}
					],
					"stateMutability": "view",
					"type": "function"
				},
				{
					"inputs": [],
					"name": "casino",
					"outputs": [
						{
							"internalType": "address payable",
							"name": "",
							"type": "address"
						}
					],
					"stateMutability": "view",
					"type": "function"
				},
				{
					"inputs": [
						{
							"internalType": "uint256",
							"name": "_requestId",
							"type": "uint256"
						}
					],
					"name": "getRequestStatus",
					"outputs": [
						{
							"internalType": "bool",
							"name": "fulfilled",
							"type": "bool"
						},
						{
							"internalType": "uint256[]",
							"name": "randomWords",
							"type": "uint256[]"
						}
					],
					"stateMutability": "view",
					"type": "function"
				},
				{
					"inputs": [],
					"name": "lastRequestId",
					"outputs": [
						{
							"internalType": "uint256",
							"name": "",
							"type": "uint256"
						}
					],
					"stateMutability": "view",
					"type": "function"
				},
				{
					"inputs": [],
					"name": "maxBet",
					"outputs": [
						{
							"internalType": "uint256",
							"name": "",
							"type": "uint256"
						}
					],
					"stateMutability": "view",
					"type": "function"
				},
				{
					"inputs": [],
					"name": "maxBetRatio",
					"outputs": [
						{
							"internalType": "uint256",
							"name": "",
							"type": "uint256"
						}
					],
					"stateMutability": "view",
					"type": "function"
				},
				{
					"inputs": [],
					"name": "owner",
					"outputs": [
						{
							"internalType": "address",
							"name": "",
							"type": "address"
						}
					],
					"stateMutability": "view",
					"type": "function"
				},
				{
					"inputs": [
						{
							"internalType": "uint256",
							"name": "betNumber",
							"type": "uint256"
						}
					],
					"name": "playGame",
					"outputs": [],
					"stateMutability": "payable",
					"type": "function"
				},
				{
					"inputs": [
						{
							"internalType": "uint256",
							"name": "requestId",
							"type": "uint256"
						},
						{
							"internalType": "uint256[]",
							"name": "randomWords",
							"type": "uint256[]"
						}
					],
					"name": "rawFulfillRandomWords",
					"outputs": [],
					"stateMutability": "nonpayable",
					"type": "function"
				},
				{
					"inputs": [
						{
							"internalType": "uint256",
							"name": "",
							"type": "uint256"
						}
					],
					"name": "records",
					"outputs": [
						{
							"internalType": "address payable",
							"name": "playerAddress",
							"type": "address"
						},
						{
							"internalType": "uint256",
							"name": "betNumber",
							"type": "uint256"
						},
						{
							"internalType": "uint256",
							"name": "betAmount",
							"type": "uint256"
						}
					],
					"stateMutability": "view",
					"type": "function"
				},
				{
					"inputs": [
						{
							"internalType": "uint256",
							"name": "",
							"type": "uint256"
						}
					],
					"name": "requestIds",
					"outputs": [
						{
							"internalType": "uint256",
							"name": "",
							"type": "uint256"
						}
					],
					"stateMutability": "view",
					"type": "function"
				},
				{
					"inputs": [],
					"name": "requestRandomWords",
					"outputs": [
						{
							"internalType": "uint256",
							"name": "requestId",
							"type": "uint256"
						}
					],
					"stateMutability": "nonpayable",
					"type": "function"
				},
				{
					"inputs": [
						{
							"internalType": "uint256",
							"name": "",
							"type": "uint256"
						}
					],
					"name": "s_requests",
					"outputs": [
						{
							"internalType": "bool",
							"name": "fulfilled",
							"type": "bool"
						},
						{
							"internalType": "bool",
							"name": "exists",
							"type": "bool"
						}
					],
					"stateMutability": "view",
					"type": "function"
				},
				{
					"inputs": [
						{
							"internalType": "address",
							"name": "to",
							"type": "address"
						}
					],
					"name": "transferOwnership",
					"outputs": [],
					"stateMutability": "nonpayable",
					"type": "function"
				},
				{
					"inputs": [
						{
							"internalType": "uint256",
							"name": "withdraw_wei_amount",
							"type": "uint256"
						}
					],
					"name": "withdrawWei",
					"outputs": [],
					"stateMutability": "nonpayable",
					"type": "function"
				}
			],
			"devdoc": {
				"kind": "dev",
				"methods": {},
				"version": 1
			},
			"evm": {
				"assembly": "    /* \"docs.chain.link/samples/VRF/VRFv2Consumer.sol\":733:5949  contract VRFv2Consumer is VRFConsumerBaseV2, ConfirmedOwner {... */\n  mstore(0x40, 0xa0)\n    /* \"docs.chain.link/samples/VRF/VRFv2Consumer.sol\":1659:1725  0x79d3d8832d904592c0bf9818b621522c988bb8b0c05cdc3b15aea1b6e8db0c15 */\n  0x79d3d8832d904592c0bf9818b621522c988bb8b0c05cdc3b15aea1b6e8db0c15\n    /* \"docs.chain.link/samples/VRF/VRFv2Consumer.sol\":1641:1725  bytes32 keyHash = 0x79d3d8832d904592c0bf9818b621522c988bb8b0c05cdc3b15aea1b6e8db0c15 */\n  0x00\n  shl\n  0x06\n  sstore\n    /* \"docs.chain.link/samples/VRF/VRFv2Consumer.sol\":2168:2174  100000 */\n  0x0186a0\n    /* \"docs.chain.link/samples/VRF/VRFv2Consumer.sol\":2142:2174  uint32 callbackGasLimit = 100000 */\n  0x07\n  exp(0x0100, 0x00)\n  dup2\n  sload\n  dup2\n  0xffffffff\n  mul\n  not\n  and\n  swap1\n  dup4\n  0xffffffff\n  and\n  mul\n  or\n  swap1\n  sstore\n  pop\n    /* \"docs.chain.link/samples/VRF/VRFv2Consumer.sol\":2265:2266  3 */\n  0x03\n    /* \"docs.chain.link/samples/VRF/VRFv2Consumer.sol\":2235:2266  uint16 requestConfirmations = 3 */\n  0x07\n  exp(0x0100, 0x04)\n  dup2\n  sload\n  dup2\n  0xffff\n  mul\n  not\n  and\n  swap1\n  dup4\n  0xffff\n  and\n  mul\n  or\n  swap1\n  sstore\n  pop\n    /* \"docs.chain.link/samples/VRF/VRFv2Consumer.sol\":2410:2411  1 */\n  0x01\n    /* \"docs.chain.link/samples/VRF/VRFv2Consumer.sol\":2392:2411  uint32 numWords = 1 */\n  0x07\n  exp(0x0100, 0x06)\n  dup2\n  sload\n  dup2\n  0xffffffff\n  mul\n  not\n  and\n  swap1\n  dup4\n  0xffffffff\n  and\n  mul\n  or\n  swap1\n  sstore\n  pop\n    /* \"docs.chain.link/samples/VRF/VRFv2Consumer.sol\":2682:2689  1 ether */\n  0x0de0b6b3a7640000\n    /* \"docs.chain.link/samples/VRF/VRFv2Consumer.sol\":2658:2689  uint256 public maxBet = 1 ether */\n  0x0a\n  sstore\n    /* \"docs.chain.link/samples/VRF/VRFv2Consumer.sol\":2725:2729  1000 */\n  0x03e8\n    /* \"docs.chain.link/samples/VRF/VRFv2Consumer.sol\":2696:2729  uint256 public maxBetRatio = 1000 */\n  0x0b\n  sstore\n    /* \"docs.chain.link/samples/VRF/VRFv2Consumer.sol\":2848:3174  constructor(uint64 subscriptionId)... */\n  callvalue\n  dup1\n  iszero\n  tag_1\n  jumpi\n  0x00\n  dup1\n  revert\ntag_1:\n  pop\n  mload(0x40)\n  sub(codesize, bytecodeSize)\n  dup1\n  bytecodeSize\n  dup4\n  codecopy\n  dup2\n  dup2\n  add\n  0x40\n  mstore\n  dup2\n  add\n  swap1\n  tag_2\n  swap2\n  swap1\n  tag_3\n  jump\t// in\ntag_2:\n    /* \"docs.chain.link/samples/VRF/VRFv2Consumer.sol\":2976:2986  msg.sender */\n  caller\n    /* \"@chainlink/contracts/src/v0.8/ConfirmedOwner.sol\":327:335  newOwner */\n  dup1\n    /* \"@chainlink/contracts/src/v0.8/ConfirmedOwner.sol\":345:346  0 */\n  0x00\n    /* \"docs.chain.link/samples/VRF/VRFv2Consumer.sol\":2909:2951  0x2Ca8E0C643bDe4C2E08ab1fA0da3401AdAD7734D */\n  0x2ca8e0c643bde4c2e08ab1fa0da3401adad7734d\n    /* \"@chainlink/contracts/src/v0.8/VRFConsumerBaseV2.sol\":5616:5631  _vrfCoordinator */\n  dup1\n    /* \"@chainlink/contracts/src/v0.8/VRFConsumerBaseV2.sol\":5599:5631  vrfCoordinator = _vrfCoordinator */\n  0xffffffffffffffffffffffffffffffffffffffff\n  and\n  0x80\n  dup2\n  0xffffffffffffffffffffffffffffffffffffffff\n  and\n  0x60\n  shl\n  dup2\n  mstore\n  pop\n  pop\n    /* \"@chainlink/contracts/src/v0.8/VRFConsumerBaseV2.sol\":5556:5636  constructor(address _vrfCoordinator) {... */\n  pop\n    /* \"@chainlink/contracts/src/v0.8/ConfirmedOwnerWithProposal.sol\":572:573  0 */\n  0x00\n    /* \"@chainlink/contracts/src/v0.8/ConfirmedOwnerWithProposal.sol\":552:574  newOwner != address(0) */\n  0xffffffffffffffffffffffffffffffffffffffff\n  and\n    /* \"@chainlink/contracts/src/v0.8/ConfirmedOwnerWithProposal.sol\":552:560  newOwner */\n  dup3\n    /* \"@chainlink/contracts/src/v0.8/ConfirmedOwnerWithProposal.sol\":552:574  newOwner != address(0) */\n  0xffffffffffffffffffffffffffffffffffffffff\n  and\n  eq\n  iszero\n    /* \"@chainlink/contracts/src/v0.8/ConfirmedOwnerWithProposal.sol\":544:603  require(newOwner != address(0), \"Cannot set owner to zero\") */\n  tag_10\n  jumpi\n  mload(0x40)\n  0x08c379a000000000000000000000000000000000000000000000000000000000\n  dup2\n  mstore\n  0x04\n  add\n  tag_11\n  swap1\n  tag_12\n  jump\t// in\ntag_11:\n  mload(0x40)\n  dup1\n  swap2\n  sub\n  swap1\n  revert\ntag_10:\n    /* \"@chainlink/contracts/src/v0.8/ConfirmedOwnerWithProposal.sol\":620:628  newOwner */\n  dup2\n    /* \"@chainlink/contracts/src/v0.8/ConfirmedOwnerWithProposal.sol\":610:617  s_owner */\n  0x00\n  dup1\n    /* \"@chainlink/contracts/src/v0.8/ConfirmedOwnerWithProposal.sol\":610:628  s_owner = newOwner */\n  0x0100\n  exp\n  dup2\n  sload\n  dup2\n  0xffffffffffffffffffffffffffffffffffffffff\n  mul\n  not\n  and\n  swap1\n  dup4\n  0xffffffffffffffffffffffffffffffffffffffff\n  and\n  mul\n  or\n  swap1\n  sstore\n  pop\n    /* \"@chainlink/contracts/src/v0.8/ConfirmedOwnerWithProposal.sol\":662:663  0 */\n  0x00\n    /* \"@chainlink/contracts/src/v0.8/ConfirmedOwnerWithProposal.sol\":638:664  pendingOwner != address(0) */\n  0xffffffffffffffffffffffffffffffffffffffff\n  and\n    /* \"@chainlink/contracts/src/v0.8/ConfirmedOwnerWithProposal.sol\":638:650  pendingOwner */\n  dup2\n    /* \"@chainlink/contracts/src/v0.8/ConfirmedOwnerWithProposal.sol\":638:664  pendingOwner != address(0) */\n  0xffffffffffffffffffffffffffffffffffffffff\n  and\n  eq\n    /* \"@chainlink/contracts/src/v0.8/ConfirmedOwnerWithProposal.sol\":634:713  if (pendingOwner != address(0)) {... */\n  tag_13\n  jumpi\n    /* \"@chainlink/contracts/src/v0.8/ConfirmedOwnerWithProposal.sol\":674:706  _transferOwnership(pendingOwner) */\n  tag_14\n    /* \"@chainlink/contracts/src/v0.8/ConfirmedOwnerWithProposal.sol\":693:705  pendingOwner */\n  dup2\n    /* \"@chainlink/contracts/src/v0.8/ConfirmedOwnerWithProposal.sol\":674:692  _transferOwnership */\n  shl(0x20, tag_15)\n    /* \"@chainlink/contracts/src/v0.8/ConfirmedOwnerWithProposal.sol\":674:706  _transferOwnership(pendingOwner) */\n  0x20\n  shr\n  jump\t// in\ntag_14:\n    /* \"@chainlink/contracts/src/v0.8/ConfirmedOwnerWithProposal.sol\":634:713  if (pendingOwner != address(0)) {... */\ntag_13:\n    /* \"@chainlink/contracts/src/v0.8/ConfirmedOwnerWithProposal.sol\":486:717  constructor(address newOwner, address pendingOwner) {... */\n  pop\n  pop\n    /* \"@chainlink/contracts/src/v0.8/ConfirmedOwner.sol\":270:351  constructor(address newOwner) ConfirmedOwnerWithProposal(newOwner, address(0)) {} */\n  pop\n    /* \"docs.chain.link/samples/VRF/VRFv2Consumer.sol\":3042:3084  0x2Ca8E0C643bDe4C2E08ab1fA0da3401AdAD7734D */\n  0x2ca8e0c643bde4c2e08ab1fa0da3401adad7734d\n    /* \"docs.chain.link/samples/VRF/VRFv2Consumer.sol\":3002:3013  COORDINATOR */\n  0x03\n  0x00\n    /* \"docs.chain.link/samples/VRF/VRFv2Consumer.sol\":3002:3085  COORDINATOR = VRFCoordinatorV2Interface(0x2Ca8E0C643bDe4C2E08ab1fA0da3401AdAD7734D) */\n  0x0100\n  exp\n  dup2\n  sload\n  dup2\n  0xffffffffffffffffffffffffffffffffffffffff\n  mul\n  not\n  and\n  swap1\n  dup4\n  0xffffffffffffffffffffffffffffffffffffffff\n  and\n  mul\n  or\n  swap1\n  sstore\n  pop\n    /* \"docs.chain.link/samples/VRF/VRFv2Consumer.sol\":3114:3128  subscriptionId */\n  dup1\n    /* \"docs.chain.link/samples/VRF/VRFv2Consumer.sol\":3095:3111  s_subscriptionId */\n  0x03\n  0x14\n    /* \"docs.chain.link/samples/VRF/VRFv2Consumer.sol\":3095:3128  s_subscriptionId = subscriptionId */\n  0x0100\n  exp\n  dup2\n  sload\n  dup2\n  0xffffffffffffffff\n  mul\n  not\n  and\n  swap1\n  dup4\n  0xffffffffffffffff\n  and\n  mul\n  or\n  swap1\n  sstore\n  pop\n    /* \"docs.chain.link/samples/VRF/VRFv2Consumer.sol\":3156:3166  msg.sender */\n  caller\n    /* \"docs.chain.link/samples/VRF/VRFv2Consumer.sol\":3138:3144  casino */\n  0x07\n  0x0a\n    /* \"docs.chain.link/samples/VRF/VRFv2Consumer.sol\":3138:3167  casino = payable (msg.sender) */\n  0x0100\n  exp\n  dup2\n  sload\n  dup2\n  0xffffffffffffffffffffffffffffffffffffffff\n  mul\n  not\n  and\n  swap1\n  dup4\n  0xffffffffffffffffffffffffffffffffffffffff\n  and\n  mul\n  or\n  swap1\n  sstore\n  pop\n    /* \"docs.chain.link/samples/VRF/VRFv2Consumer.sol\":2848:3174  constructor(uint64 subscriptionId)... */\n  pop\n    /* \"docs.chain.link/samples/VRF/VRFv2Consumer.sol\":733:5949  contract VRFv2Consumer is VRFConsumerBaseV2, ConfirmedOwner {... */\n  jump(tag_18)\n    /* \"@chainlink/contracts/src/v0.8/ConfirmedOwnerWithProposal.sol\":1497:1685  function _transferOwnership(address to) private {... */\ntag_15:\n    /* \"@chainlink/contracts/src/v0.8/ConfirmedOwnerWithProposal.sol\":1565:1575  msg.sender */\n  caller\n    /* \"@chainlink/contracts/src/v0.8/ConfirmedOwnerWithProposal.sol\":1559:1575  to != msg.sender */\n  0xffffffffffffffffffffffffffffffffffffffff\n  and\n    /* \"@chainlink/contracts/src/v0.8/ConfirmedOwnerWithProposal.sol\":1559:1561  to */\n  dup2\n    /* \"@chainlink/contracts/src/v0.8/ConfirmedOwnerWithProposal.sol\":1559:1575  to != msg.sender */\n  0xffffffffffffffffffffffffffffffffffffffff\n  and\n  eq\n  iszero\n    /* \"@chainlink/contracts/src/v0.8/ConfirmedOwnerWithProposal.sol\":1551:1603  require(to != msg.sender, \"Cannot transfer to self\") */\n  tag_20\n  jumpi\n  mload(0x40)\n  0x08c379a000000000000000000000000000000000000000000000000000000000\n  dup2\n  mstore\n  0x04\n  add\n  tag_21\n  swap1\n  tag_22\n  jump\t// in\ntag_21:\n  mload(0x40)\n  dup1\n  swap2\n  sub\n  swap1\n  revert\ntag_20:\n    /* \"@chainlink/contracts/src/v0.8/ConfirmedOwnerWithProposal.sol\":1627:1629  to */\n  dup1\n    /* \"@chainlink/contracts/src/v0.8/ConfirmedOwnerWithProposal.sol\":1610:1624  s_pendingOwner */\n  0x01\n  0x00\n    /* \"@chainlink/contracts/src/v0.8/ConfirmedOwnerWithProposal.sol\":1610:1629  s_pendingOwner = to */\n  0x0100\n  exp\n  dup2\n  sload\n  dup2\n  0xffffffffffffffffffffffffffffffffffffffff\n  mul\n  not\n  and\n  swap1\n  dup4\n  0xffffffffffffffffffffffffffffffffffffffff\n  and\n  mul\n  or\n  swap1\n  sstore\n  pop\n    /* \"@chainlink/contracts/src/v0.8/ConfirmedOwnerWithProposal.sol\":1677:1679  to */\n  dup1\n    /* \"@chainlink/contracts/src/v0.8/ConfirmedOwnerWithProposal.sol\":1641:1680  OwnershipTransferRequested(s_owner, to) */\n  0xffffffffffffffffffffffffffffffffffffffff\n  and\n    /* \"@chainlink/contracts/src/v0.8/ConfirmedOwnerWithProposal.sol\":1668:1675  s_owner */\n  0x00\n  dup1\n  sload\n  swap1\n  0x0100\n  exp\n  swap1\n  div\n  0xffffffffffffffffffffffffffffffffffffffff\n  and\n    /* \"@chainlink/contracts/src/v0.8/ConfirmedOwnerWithProposal.sol\":1641:1680  OwnershipTransferRequested(s_owner, to) */\n  0xffffffffffffffffffffffffffffffffffffffff\n  and\n  0xed8889f560326eb138920d842192f0eb3dd22b4f139c87a2c57538e05bae1278\n  mload(0x40)\n  mload(0x40)\n  dup1\n  swap2\n  sub\n  swap1\n  log3\n    /* \"@chainlink/contracts/src/v0.8/ConfirmedOwnerWithProposal.sol\":1497:1685  function _transferOwnership(address to) private {... */\n  pop\n  jump\t// out\n    /* \"#utility.yul\":7:148   */\ntag_24:\n    /* \"#utility.yul\":63:68   */\n  0x00\n    /* \"#utility.yul\":94:100   */\n  dup2\n    /* \"#utility.yul\":88:101   */\n  mload\n    /* \"#utility.yul\":79:101   */\n  swap1\n  pop\n    /* \"#utility.yul\":110:142   */\n  tag_26\n    /* \"#utility.yul\":136:141   */\n  dup2\n    /* \"#utility.yul\":110:142   */\n  tag_27\n  jump\t// in\ntag_26:\n    /* \"#utility.yul\":7:148   */\n  swap3\n  swap2\n  pop\n  pop\n  jump\t// out\n    /* \"#utility.yul\":154:503   */\ntag_3:\n    /* \"#utility.yul\":223:229   */\n  0x00\n    /* \"#utility.yul\":272:274   */\n  0x20\n    /* \"#utility.yul\":260:269   */\n  dup3\n    /* \"#utility.yul\":251:258   */\n  dup5\n    /* \"#utility.yul\":247:270   */\n  sub\n    /* \"#utility.yul\":243:275   */\n  slt\n    /* \"#utility.yul\":240:359   */\n  iszero\n  tag_29\n  jumpi\n    /* \"#utility.yul\":278:357   */\n  tag_30\n  tag_31\n  jump\t// in\ntag_30:\n    /* \"#utility.yul\":240:359   */\ntag_29:\n    /* \"#utility.yul\":398:399   */\n  0x00\n    /* \"#utility.yul\":423:486   */\n  tag_32\n    /* \"#utility.yul\":478:485   */\n  dup5\n    /* \"#utility.yul\":469:475   */\n  dup3\n    /* \"#utility.yul\":458:467   */\n  dup6\n    /* \"#utility.yul\":454:476   */\n  add\n    /* \"#utility.yul\":423:486   */\n  tag_24\n  jump\t// in\ntag_32:\n    /* \"#utility.yul\":413:486   */\n  swap2\n  pop\n    /* \"#utility.yul\":369:496   */\n  pop\n    /* \"#utility.yul\":154:503   */\n  swap3\n  swap2\n  pop\n  pop\n  jump\t// out\n    /* \"#utility.yul\":509:875   */\ntag_33:\n    /* \"#utility.yul\":651:654   */\n  0x00\n    /* \"#utility.yul\":672:739   */\n  tag_35\n    /* \"#utility.yul\":736:738   */\n  0x18\n    /* \"#utility.yul\":731:734   */\n  dup4\n    /* \"#utility.yul\":672:739   */\n  tag_36\n  jump\t// in\ntag_35:\n    /* \"#utility.yul\":665:739   */\n  swap2\n  pop\n    /* \"#utility.yul\":748:841   */\n  tag_37\n    /* \"#utility.yul\":837:840   */\n  dup3\n    /* \"#utility.yul\":748:841   */\n  tag_38\n  jump\t// in\ntag_37:\n    /* \"#utility.yul\":866:868   */\n  0x20\n    /* \"#utility.yul\":861:864   */\n  dup3\n    /* \"#utility.yul\":857:869   */\n  add\n    /* \"#utility.yul\":850:869   */\n  swap1\n  pop\n    /* \"#utility.yul\":509:875   */\n  swap2\n  swap1\n  pop\n  jump\t// out\n    /* \"#utility.yul\":881:1247   */\ntag_39:\n    /* \"#utility.yul\":1023:1026   */\n  0x00\n    /* \"#utility.yul\":1044:1111   */\n  tag_41\n    /* \"#utility.yul\":1108:1110   */\n  0x17\n    /* \"#utility.yul\":1103:1106   */\n  dup4\n    /* \"#utility.yul\":1044:1111   */\n  tag_36\n  jump\t// in\ntag_41:\n    /* \"#utility.yul\":1037:1111   */\n  swap2\n  pop\n    /* \"#utility.yul\":1120:1213   */\n  tag_42\n    /* \"#utility.yul\":1209:1212   */\n  dup3\n    /* \"#utility.yul\":1120:1213   */\n  tag_43\n  jump\t// in\ntag_42:\n    /* \"#utility.yul\":1238:1240   */\n  0x20\n    /* \"#utility.yul\":1233:1236   */\n  dup3\n    /* \"#utility.yul\":1229:1241   */\n  add\n    /* \"#utility.yul\":1222:1241   */\n  swap1\n  pop\n    /* \"#utility.yul\":881:1247   */\n  swap2\n  swap1\n  pop\n  jump\t// out\n    /* \"#utility.yul\":1253:1672   */\ntag_12:\n    /* \"#utility.yul\":1419:1423   */\n  0x00\n    /* \"#utility.yul\":1457:1459   */\n  0x20\n    /* \"#utility.yul\":1446:1455   */\n  dup3\n    /* \"#utility.yul\":1442:1460   */\n  add\n    /* \"#utility.yul\":1434:1460   */\n  swap1\n  pop\n    /* \"#utility.yul\":1506:1515   */\n  dup2\n    /* \"#utility.yul\":1500:1504   */\n  dup2\n    /* \"#utility.yul\":1496:1516   */\n  sub\n    /* \"#utility.yul\":1492:1493   */\n  0x00\n    /* \"#utility.yul\":1481:1490   */\n  dup4\n    /* \"#utility.yul\":1477:1494   */\n  add\n    /* \"#utility.yul\":1470:1517   */\n  mstore\n    /* \"#utility.yul\":1534:1665   */\n  tag_45\n    /* \"#utility.yul\":1660:1664   */\n  dup2\n    /* \"#utility.yul\":1534:1665   */\n  tag_33\n  jump\t// in\ntag_45:\n    /* \"#utility.yul\":1526:1665   */\n  swap1\n  pop\n    /* \"#utility.yul\":1253:1672   */\n  swap2\n  swap1\n  pop\n  jump\t// out\n    /* \"#utility.yul\":1678:2097   */\ntag_22:\n    /* \"#utility.yul\":1844:1848   */\n  0x00\n    /* \"#utility.yul\":1882:1884   */\n  0x20\n    /* \"#utility.yul\":1871:1880   */\n  dup3\n    /* \"#utility.yul\":1867:1885   */\n  add\n    /* \"#utility.yul\":1859:1885   */\n  swap1\n  pop\n    /* \"#utility.yul\":1931:1940   */\n  dup2\n    /* \"#utility.yul\":1925:1929   */\n  dup2\n    /* \"#utility.yul\":1921:1941   */\n  sub\n    /* \"#utility.yul\":1917:1918   */\n  0x00\n    /* \"#utility.yul\":1906:1915   */\n  dup4\n    /* \"#utility.yul\":1902:1919   */\n  add\n    /* \"#utility.yul\":1895:1942   */\n  mstore\n    /* \"#utility.yul\":1959:2090   */\n  tag_47\n    /* \"#utility.yul\":2085:2089   */\n  dup2\n    /* \"#utility.yul\":1959:2090   */\n  tag_39\n  jump\t// in\ntag_47:\n    /* \"#utility.yul\":1951:2090   */\n  swap1\n  pop\n    /* \"#utility.yul\":1678:2097   */\n  swap2\n  swap1\n  pop\n  jump\t// out\n    /* \"#utility.yul\":2184:2353   */\ntag_36:\n    /* \"#utility.yul\":2268:2279   */\n  0x00\n    /* \"#utility.yul\":2302:2308   */\n  dup3\n    /* \"#utility.yul\":2297:2300   */\n  dup3\n    /* \"#utility.yul\":2290:2309   */\n  mstore\n    /* \"#utility.yul\":2342:2346   */\n  0x20\n    /* \"#utility.yul\":2337:2340   */\n  dup3\n    /* \"#utility.yul\":2333:2347   */\n  add\n    /* \"#utility.yul\":2318:2347   */\n  swap1\n  pop\n    /* \"#utility.yul\":2184:2353   */\n  swap3\n  swap2\n  pop\n  pop\n  jump\t// out\n    /* \"#utility.yul\":2359:2460   */\ntag_51:\n    /* \"#utility.yul\":2395:2402   */\n  0x00\n    /* \"#utility.yul\":2435:2453   */\n  0xffffffffffffffff\n    /* \"#utility.yul\":2428:2433   */\n  dup3\n    /* \"#utility.yul\":2424:2454   */\n  and\n    /* \"#utility.yul\":2413:2454   */\n  swap1\n  pop\n    /* \"#utility.yul\":2359:2460   */\n  swap2\n  swap1\n  pop\n  jump\t// out\n    /* \"#utility.yul\":2589:2706   */\ntag_31:\n    /* \"#utility.yul\":2698:2699   */\n  0x00\n    /* \"#utility.yul\":2695:2696   */\n  dup1\n    /* \"#utility.yul\":2688:2700   */\n  revert\n    /* \"#utility.yul\":2712:2886   */\ntag_38:\n    /* \"#utility.yul\":2852:2878   */\n  0x43616e6e6f7420736574206f776e657220746f207a65726f0000000000000000\n    /* \"#utility.yul\":2848:2849   */\n  0x00\n    /* \"#utility.yul\":2840:2846   */\n  dup3\n    /* \"#utility.yul\":2836:2850   */\n  add\n    /* \"#utility.yul\":2829:2879   */\n  mstore\n    /* \"#utility.yul\":2712:2886   */\n  pop\n  jump\t// out\n    /* \"#utility.yul\":2892:3065   */\ntag_43:\n    /* \"#utility.yul\":3032:3057   */\n  0x43616e6e6f74207472616e7366657220746f2073656c66000000000000000000\n    /* \"#utility.yul\":3028:3029   */\n  0x00\n    /* \"#utility.yul\":3020:3026   */\n  dup3\n    /* \"#utility.yul\":3016:3030   */\n  add\n    /* \"#utility.yul\":3009:3058   */\n  mstore\n    /* \"#utility.yul\":2892:3065   */\n  pop\n  jump\t// out\n    /* \"#utility.yul\":3071:3191   */\ntag_27:\n    /* \"#utility.yul\":3143:3166   */\n  tag_59\n    /* \"#utility.yul\":3160:3165   */\n  dup2\n    /* \"#utility.yul\":3143:3166   */\n  tag_51\n  jump\t// in\ntag_59:\n    /* \"#utility.yul\":3136:3141   */\n  dup2\n    /* \"#utility.yul\":3133:3167   */\n  eq\n    /* \"#utility.yul\":3123:3185   */\n  tag_60\n  jumpi\n    /* \"#utility.yul\":3181:3182   */\n  0x00\n    /* \"#utility.yul\":3178:3179   */\n  dup1\n    /* \"#utility.yul\":3171:3183   */\n  revert\n    /* \"#utility.yul\":3123:3185   */\ntag_60:\n    /* \"#utility.yul\":3071:3191   */\n  pop\n  jump\t// out\n    /* \"docs.chain.link/samples/VRF/VRFv2Consumer.sol\":733:5949  contract VRFv2Consumer is VRFConsumerBaseV2, ConfirmedOwner {... */\ntag_18:\n  shr(0x60, mload(0x80))\n  codecopy(0x00, dataOffset(sub_0), dataSize(sub_0))\n  0x00\n  assignImmutable(\"0xa75e2cf51d42f4164e4624f425e61448777a748393b6f6a5bcb1d94d1e8e5e98\")\n  return(0x00, dataSize(sub_0))\nstop\n\nsub_0: assembly {\n        /* \"docs.chain.link/samples/VRF/VRFv2Consumer.sol\":733:5949  contract VRFv2Consumer is VRFConsumerBaseV2, ConfirmedOwner {... */\n      mstore(0x40, 0x80)\n      jumpi(tag_1, lt(calldatasize, 0x04))\n      shr(0xe0, calldataload(0x00))\n      dup1\n      0x9403e8dd\n      gt\n      tag_19\n      jumpi\n      dup1\n      0xc17bcdee\n      gt\n      tag_20\n      jumpi\n      dup1\n      0xc17bcdee\n      eq\n      tag_14\n      jumpi\n      dup1\n      0xd8a4676f\n      eq\n      tag_15\n      jumpi\n      dup1\n      0xe0c86289\n      eq\n      tag_16\n      jumpi\n      dup1\n      0xf2fde38b\n      eq\n      tag_17\n      jumpi\n      dup1\n      0xfc2a88c3\n      eq\n      tag_18\n      jumpi\n      jump(tag_1)\n    tag_20:\n      dup1\n      0x9403e8dd\n      eq\n      tag_10\n      jumpi\n      dup1\n      0xa168fa89\n      eq\n      tag_11\n      jumpi\n      dup1\n      0xb163cc38\n      eq\n      tag_12\n      jumpi\n      dup1\n      0xbfb3047f\n      eq\n      tag_13\n      jumpi\n      jump(tag_1)\n    tag_19:\n      dup1\n      0x5873533d\n      gt\n      tag_21\n      jumpi\n      dup1\n      0x5873533d\n      eq\n      tag_6\n      jumpi\n      dup1\n      0x79ba5097\n      eq\n      tag_7\n      jumpi\n      dup1\n      0x8796ba8c\n      eq\n      tag_8\n      jumpi\n      dup1\n      0x8da5cb5b\n      eq\n      tag_9\n      jumpi\n      jump(tag_1)\n    tag_21:\n      dup1\n      0x0d6f8563\n      eq\n      tag_2\n      jumpi\n      dup1\n      0x1fe543e3\n      eq\n      tag_3\n      jumpi\n      dup1\n      0x2e5b2168\n      eq\n      tag_4\n      jumpi\n      dup1\n      0x34461067\n      eq\n      tag_5\n      jumpi\n    tag_1:\n      0x00\n      dup1\n      revert\n        /* \"docs.chain.link/samples/VRF/VRFv2Consumer.sol\":3410:3571  function withdrawWei(uint withdraw_wei_amount) public{... */\n    tag_2:\n      callvalue\n      dup1\n      iszero\n      tag_22\n      jumpi\n      0x00\n      dup1\n      revert\n    tag_22:\n      pop\n      tag_23\n      0x04\n      dup1\n      calldatasize\n      sub\n      dup2\n      add\n      swap1\n      tag_24\n      swap2\n      swap1\n      tag_25\n      jump\t// in\n    tag_24:\n      tag_26\n      jump\t// in\n    tag_23:\n      stop\n        /* \"@chainlink/contracts/src/v0.8/VRFConsumerBaseV2.sol\":6618:6874  function rawFulfillRandomWords(uint256 requestId, uint256[] memory randomWords) external {... */\n    tag_3:\n      callvalue\n      dup1\n      iszero\n      tag_27\n      jumpi\n      0x00\n      dup1\n      revert\n    tag_27:\n      pop\n      tag_28\n      0x04\n      dup1\n      calldatasize\n      sub\n      dup2\n      add\n      swap1\n      tag_29\n      swap2\n      swap1\n      tag_30\n      jump\t// in\n    tag_29:\n      tag_31\n      jump\t// in\n    tag_28:\n      stop\n        /* \"docs.chain.link/samples/VRF/VRFv2Consumer.sol\":2658:2689  uint256 public maxBet = 1 ether */\n    tag_4:\n      callvalue\n      dup1\n      iszero\n      tag_32\n      jumpi\n      0x00\n      dup1\n      revert\n    tag_32:\n      pop\n      tag_33\n      tag_34\n      jump\t// in\n    tag_33:\n      mload(0x40)\n      tag_35\n      swap2\n      swap1\n      tag_36\n      jump\t// in\n    tag_35:\n      mload(0x40)\n      dup1\n      swap2\n      sub\n      swap1\n      return\n        /* \"docs.chain.link/samples/VRF/VRFv2Consumer.sol\":2578:2620  mapping (uint256 => Player) public records */\n    tag_5:\n      callvalue\n      dup1\n      iszero\n      tag_37\n      jumpi\n      0x00\n      dup1\n      revert\n    tag_37:\n      pop\n      tag_38\n      0x04\n      dup1\n      calldatasize\n      sub\n      dup2\n      add\n      swap1\n      tag_39\n      swap2\n      swap1\n      tag_25\n      jump\t// in\n    tag_39:\n      tag_40\n      jump\t// in\n    tag_38:\n      mload(0x40)\n      tag_41\n      swap4\n      swap3\n      swap2\n      swap1\n      tag_42\n      jump\t// in\n    tag_41:\n      mload(0x40)\n      dup1\n      swap2\n      sub\n      swap1\n      return\n        /* \"docs.chain.link/samples/VRF/VRFv2Consumer.sol\":3577:4004  function playGame(uint256 betNumber)  payable public checkMaxBet {... */\n    tag_6:\n      tag_43\n      0x04\n      dup1\n      calldatasize\n      sub\n      dup2\n      add\n      swap1\n      tag_44\n      swap2\n      swap1\n      tag_25\n      jump\t// in\n    tag_44:\n      tag_45\n      jump\t// in\n    tag_43:\n      stop\n        /* \"@chainlink/contracts/src/v0.8/ConfirmedOwnerWithProposal.sol\":1016:1281  function acceptOwnership() external override {... */\n    tag_7:\n      callvalue\n      dup1\n      iszero\n      tag_46\n      jumpi\n      0x00\n      dup1\n      revert\n    tag_46:\n      pop\n      tag_47\n      tag_48\n      jump\t// in\n    tag_47:\n      stop\n        /* \"docs.chain.link/samples/VRF/VRFv2Consumer.sol\":1342:1369  uint256[] public requestIds */\n    tag_8:\n      callvalue\n      dup1\n      iszero\n      tag_49\n      jumpi\n      0x00\n      dup1\n      revert\n    tag_49:\n      pop\n      tag_50\n      0x04\n      dup1\n      calldatasize\n      sub\n      dup2\n      add\n      swap1\n      tag_51\n      swap2\n      swap1\n      tag_25\n      jump\t// in\n    tag_51:\n      tag_52\n      jump\t// in\n    tag_50:\n      mload(0x40)\n      tag_53\n      swap2\n      swap1\n      tag_36\n      jump\t// in\n    tag_53:\n      mload(0x40)\n      dup1\n      swap2\n      sub\n      swap1\n      return\n        /* \"@chainlink/contracts/src/v0.8/ConfirmedOwnerWithProposal.sol\":1332:1413  function owner() public view override returns (address) {... */\n    tag_9:\n      callvalue\n      dup1\n      iszero\n      tag_54\n      jumpi\n      0x00\n      dup1\n      revert\n    tag_54:\n      pop\n      tag_55\n      tag_56\n      jump\t// in\n    tag_55:\n      mload(0x40)\n      tag_57\n      swap2\n      swap1\n      tag_58\n      jump\t// in\n    tag_57:\n      mload(0x40)\n      dup1\n      swap2\n      sub\n      swap1\n      return\n        /* \"docs.chain.link/samples/VRF/VRFv2Consumer.sol\":2418:2447  address payable public casino */\n    tag_10:\n      callvalue\n      dup1\n      iszero\n      tag_59\n      jumpi\n      0x00\n      dup1\n      revert\n    tag_59:\n      pop\n      tag_60\n      tag_61\n      jump\t// in\n    tag_60:\n      mload(0x40)\n      tag_62\n      swap2\n      swap1\n      tag_63\n      jump\t// in\n    tag_62:\n      mload(0x40)\n      dup1\n      swap2\n      sub\n      swap1\n      return\n        /* \"docs.chain.link/samples/VRF/VRFv2Consumer.sol\":1123:1174  mapping(uint256 => RequestStatus) public s_requests */\n    tag_11:\n      callvalue\n      dup1\n      iszero\n      tag_64\n      jumpi\n      0x00\n      dup1\n      revert\n    tag_64:\n      pop\n      tag_65\n      0x04\n      dup1\n      calldatasize\n      sub\n      dup2\n      add\n      swap1\n      tag_66\n      swap2\n      swap1\n      tag_25\n      jump\t// in\n    tag_66:\n      tag_67\n      jump\t// in\n    tag_65:\n      mload(0x40)\n      tag_68\n      swap3\n      swap2\n      swap1\n      tag_69\n      jump\t// in\n    tag_68:\n      mload(0x40)\n      dup1\n      swap2\n      sub\n      swap1\n      return\n        /* \"docs.chain.link/samples/VRF/VRFv2Consumer.sol\":3180:3279  function addBalance() external payable{... */\n    tag_12:\n      tag_70\n      tag_71\n      jump\t// in\n    tag_70:\n      stop\n        /* \"docs.chain.link/samples/VRF/VRFv2Consumer.sol\":2627:2651  uint256 public betResult */\n    tag_13:\n      callvalue\n      dup1\n      iszero\n      tag_72\n      jumpi\n      0x00\n      dup1\n      revert\n    tag_72:\n      pop\n      tag_73\n      tag_74\n      jump\t// in\n    tag_73:\n      mload(0x40)\n      tag_75\n      swap2\n      swap1\n      tag_36\n      jump\t// in\n    tag_75:\n      mload(0x40)\n      dup1\n      swap2\n      sub\n      swap1\n      return\n        /* \"docs.chain.link/samples/VRF/VRFv2Consumer.sol\":2696:2729  uint256 public maxBetRatio = 1000 */\n    tag_14:\n      callvalue\n      dup1\n      iszero\n      tag_76\n      jumpi\n      0x00\n      dup1\n      revert\n    tag_76:\n      pop\n      tag_77\n      tag_78\n      jump\t// in\n    tag_77:\n      mload(0x40)\n      tag_79\n      swap2\n      swap1\n      tag_36\n      jump\t// in\n    tag_79:\n      mload(0x40)\n      dup1\n      swap2\n      sub\n      swap1\n      return\n        /* \"docs.chain.link/samples/VRF/VRFv2Consumer.sol\":5631:5942  function getRequestStatus(uint256 _requestId) external view returns (bool fulfilled, uint256[] memory randomWords) {... */\n    tag_15:\n      callvalue\n      dup1\n      iszero\n      tag_80\n      jumpi\n      0x00\n      dup1\n      revert\n    tag_80:\n      pop\n      tag_81\n      0x04\n      dup1\n      calldatasize\n      sub\n      dup2\n      add\n      swap1\n      tag_82\n      swap2\n      swap1\n      tag_25\n      jump\t// in\n    tag_82:\n      tag_83\n      jump\t// in\n    tag_81:\n      mload(0x40)\n      tag_84\n      swap3\n      swap2\n      swap1\n      tag_85\n      jump\t// in\n    tag_84:\n      mload(0x40)\n      dup1\n      swap2\n      sub\n      swap1\n      return\n        /* \"docs.chain.link/samples/VRF/VRFv2Consumer.sol\":4066:4665  function requestRandomWords() public onlyOwner returns (uint256 requestId) {... */\n    tag_16:\n      callvalue\n      dup1\n      iszero\n      tag_86\n      jumpi\n      0x00\n      dup1\n      revert\n    tag_86:\n      pop\n      tag_87\n      tag_88\n      jump\t// in\n    tag_87:\n      mload(0x40)\n      tag_89\n      swap2\n      swap1\n      tag_36\n      jump\t// in\n    tag_89:\n      mload(0x40)\n      dup1\n      swap2\n      sub\n      swap1\n      return\n        /* \"@chainlink/contracts/src/v0.8/ConfirmedOwnerWithProposal.sol\":826:924  function transferOwnership(address to) public override onlyOwner {... */\n    tag_17:\n      callvalue\n      dup1\n      iszero\n      tag_90\n      jumpi\n      0x00\n      dup1\n      revert\n    tag_90:\n      pop\n      tag_91\n      0x04\n      dup1\n      calldatasize\n      sub\n      dup2\n      add\n      swap1\n      tag_92\n      swap2\n      swap1\n      tag_93\n      jump\t// in\n    tag_92:\n      tag_94\n      jump\t// in\n    tag_91:\n      stop\n        /* \"docs.chain.link/samples/VRF/VRFv2Consumer.sol\":1375:1403  uint256 public lastRequestId */\n    tag_18:\n      callvalue\n      dup1\n      iszero\n      tag_95\n      jumpi\n      0x00\n      dup1\n      revert\n    tag_95:\n      pop\n      tag_96\n      tag_97\n      jump\t// in\n    tag_96:\n      mload(0x40)\n      tag_98\n      swap2\n      swap1\n      tag_36\n      jump\t// in\n    tag_98:\n      mload(0x40)\n      dup1\n      swap2\n      sub\n      swap1\n      return\n        /* \"docs.chain.link/samples/VRF/VRFv2Consumer.sol\":3410:3571  function withdrawWei(uint withdraw_wei_amount) public{... */\n    tag_26:\n        /* \"docs.chain.link/samples/VRF/VRFv2Consumer.sol\":3473:3479  casino */\n      0x07\n      0x0a\n      swap1\n      sload\n      swap1\n      0x0100\n      exp\n      swap1\n      div\n      0xffffffffffffffffffffffffffffffffffffffff\n      and\n        /* \"docs.chain.link/samples/VRF/VRFv2Consumer.sol\":3473:3488  casino.transfer */\n      0xffffffffffffffffffffffffffffffffffffffff\n      and\n        /* \"docs.chain.link/samples/VRF/VRFv2Consumer.sol\":3473:3509  casino.transfer(withdraw_wei_amount) */\n      0x08fc\n        /* \"docs.chain.link/samples/VRF/VRFv2Consumer.sol\":3489:3508  withdraw_wei_amount */\n      dup3\n        /* \"docs.chain.link/samples/VRF/VRFv2Consumer.sol\":3473:3509  casino.transfer(withdraw_wei_amount) */\n      swap1\n      dup2\n      iszero\n      mul\n      swap1\n      mload(0x40)\n      0x00\n      mload(0x40)\n      dup1\n      dup4\n      sub\n      dup2\n      dup6\n      dup9\n      dup9\n      call\n      swap4\n      pop\n      pop\n      pop\n      pop\n      iszero\n      dup1\n      iszero\n      tag_101\n      jumpi\n      returndatasize\n      0x00\n      dup1\n      returndatacopy\n      revert(0x00, returndatasize)\n    tag_101:\n      pop\n        /* \"docs.chain.link/samples/VRF/VRFv2Consumer.sol\":3553:3564  maxBetRatio */\n      sload(0x0b)\n        /* \"docs.chain.link/samples/VRF/VRFv2Consumer.sol\":3529:3550  address(this).balance */\n      selfbalance\n        /* \"docs.chain.link/samples/VRF/VRFv2Consumer.sol\":3529:3564  address(this).balance / maxBetRatio */\n      tag_102\n      swap2\n      swap1\n      tag_103\n      jump\t// in\n    tag_102:\n        /* \"docs.chain.link/samples/VRF/VRFv2Consumer.sol\":3520:3526  maxBet */\n      0x0a\n        /* \"docs.chain.link/samples/VRF/VRFv2Consumer.sol\":3520:3564  maxBet = address(this).balance / maxBetRatio */\n      dup2\n      swap1\n      sstore\n      pop\n        /* \"docs.chain.link/samples/VRF/VRFv2Consumer.sol\":3410:3571  function withdrawWei(uint withdraw_wei_amount) public{... */\n      pop\n      jump\t// out\n        /* \"@chainlink/contracts/src/v0.8/VRFConsumerBaseV2.sol\":6618:6874  function rawFulfillRandomWords(uint256 requestId, uint256[] memory randomWords) external {... */\n    tag_31:\n        /* \"@chainlink/contracts/src/v0.8/VRFConsumerBaseV2.sol\":6731:6745  vrfCoordinator */\n      immutable(\"0xa75e2cf51d42f4164e4624f425e61448777a748393b6f6a5bcb1d94d1e8e5e98\")\n        /* \"@chainlink/contracts/src/v0.8/VRFConsumerBaseV2.sol\":6717:6745  msg.sender != vrfCoordinator */\n      0xffffffffffffffffffffffffffffffffffffffff\n      and\n        /* \"@chainlink/contracts/src/v0.8/VRFConsumerBaseV2.sol\":6717:6727  msg.sender */\n      caller\n        /* \"@chainlink/contracts/src/v0.8/VRFConsumerBaseV2.sol\":6717:6745  msg.sender != vrfCoordinator */\n      0xffffffffffffffffffffffffffffffffffffffff\n      and\n      eq\n        /* \"@chainlink/contracts/src/v0.8/VRFConsumerBaseV2.sol\":6713:6822  if (msg.sender != vrfCoordinator) {... */\n      tag_105\n      jumpi\n        /* \"@chainlink/contracts/src/v0.8/VRFConsumerBaseV2.sol\":6788:6798  msg.sender */\n      caller\n        /* \"@chainlink/contracts/src/v0.8/VRFConsumerBaseV2.sol\":6800:6814  vrfCoordinator */\n      immutable(\"0xa75e2cf51d42f4164e4624f425e61448777a748393b6f6a5bcb1d94d1e8e5e98\")\n        /* \"@chainlink/contracts/src/v0.8/VRFConsumerBaseV2.sol\":6762:6815  OnlyCoordinatorCanFulfill(msg.sender, vrfCoordinator) */\n      mload(0x40)\n      0x1cf993f400000000000000000000000000000000000000000000000000000000\n      dup2\n      mstore\n      0x04\n      add\n      tag_106\n      swap3\n      swap2\n      swap1\n      tag_107\n      jump\t// in\n    tag_106:\n      mload(0x40)\n      dup1\n      swap2\n      sub\n      swap1\n      revert\n        /* \"@chainlink/contracts/src/v0.8/VRFConsumerBaseV2.sol\":6713:6822  if (msg.sender != vrfCoordinator) {... */\n    tag_105:\n        /* \"@chainlink/contracts/src/v0.8/VRFConsumerBaseV2.sol\":6827:6869  fulfillRandomWords(requestId, randomWords) */\n      tag_108\n        /* \"@chainlink/contracts/src/v0.8/VRFConsumerBaseV2.sol\":6846:6855  requestId */\n      dup3\n        /* \"@chainlink/contracts/src/v0.8/VRFConsumerBaseV2.sol\":6857:6868  randomWords */\n      dup3\n        /* \"@chainlink/contracts/src/v0.8/VRFConsumerBaseV2.sol\":6827:6845  fulfillRandomWords */\n      tag_109\n        /* \"@chainlink/contracts/src/v0.8/VRFConsumerBaseV2.sol\":6827:6869  fulfillRandomWords(requestId, randomWords) */\n      jump\t// in\n    tag_108:\n        /* \"@chainlink/contracts/src/v0.8/VRFConsumerBaseV2.sol\":6618:6874  function rawFulfillRandomWords(uint256 requestId, uint256[] memory randomWords) external {... */\n      pop\n      pop\n      jump\t// out\n        /* \"docs.chain.link/samples/VRF/VRFv2Consumer.sol\":2658:2689  uint256 public maxBet = 1 ether */\n    tag_34:\n      sload(0x0a)\n      dup2\n      jump\t// out\n        /* \"docs.chain.link/samples/VRF/VRFv2Consumer.sol\":2578:2620  mapping (uint256 => Player) public records */\n    tag_40:\n      mstore(0x20, 0x08)\n      dup1\n      0x00\n      mstore\n      keccak256(0x00, 0x40)\n      0x00\n      swap2\n      pop\n      swap1\n      pop\n      dup1\n      0x00\n      add\n      0x00\n      swap1\n      sload\n      swap1\n      0x0100\n      exp\n      swap1\n      div\n      0xffffffffffffffffffffffffffffffffffffffff\n      and\n      swap1\n      dup1\n      0x01\n      add\n      sload\n      swap1\n      dup1\n      0x02\n      add\n      sload\n      swap1\n      pop\n      dup4\n      jump\t// out\n        /* \"docs.chain.link/samples/VRF/VRFv2Consumer.sol\":3577:4004  function playGame(uint256 betNumber)  payable public checkMaxBet {... */\n    tag_45:\n        /* \"docs.chain.link/samples/VRF/VRFv2Consumer.sol\":3337:3343  maxBet */\n      sload(0x0a)\n        /* \"docs.chain.link/samples/VRF/VRFv2Consumer.sol\":3324:3333  msg.value */\n      callvalue\n        /* \"docs.chain.link/samples/VRF/VRFv2Consumer.sol\":3324:3343  msg.value <= maxBet */\n      gt\n      iszero\n        /* \"docs.chain.link/samples/VRF/VRFv2Consumer.sol\":3316:3385  require(msg.value <= maxBet, \"This bet exceeds maximum possible bet\") */\n      tag_111\n      jumpi\n      mload(0x40)\n      0x08c379a000000000000000000000000000000000000000000000000000000000\n      dup2\n      mstore\n      0x04\n      add\n      tag_112\n      swap1\n      tag_113\n      jump\t// in\n    tag_112:\n      mload(0x40)\n      dup1\n      swap2\n      sub\n      swap1\n      revert\n    tag_111:\n        /* \"docs.chain.link/samples/VRF/VRFv2Consumer.sol\":3673:3674  6 */\n      0x06\n        /* \"docs.chain.link/samples/VRF/VRFv2Consumer.sol\":3660:3669  betNumber */\n      dup2\n        /* \"docs.chain.link/samples/VRF/VRFv2Consumer.sol\":3660:3674  betNumber <= 6 */\n      gt\n      iszero\n        /* \"docs.chain.link/samples/VRF/VRFv2Consumer.sol\":3660:3691  betNumber <= 6 && betNumber > 0 */\n      dup1\n      iszero\n      tag_115\n      jumpi\n      pop\n        /* \"docs.chain.link/samples/VRF/VRFv2Consumer.sol\":3690:3691  0 */\n      0x00\n        /* \"docs.chain.link/samples/VRF/VRFv2Consumer.sol\":3678:3687  betNumber */\n      dup2\n        /* \"docs.chain.link/samples/VRF/VRFv2Consumer.sol\":3678:3691  betNumber > 0 */\n      gt\n        /* \"docs.chain.link/samples/VRF/VRFv2Consumer.sol\":3660:3691  betNumber <= 6 && betNumber > 0 */\n    tag_115:\n        /* \"docs.chain.link/samples/VRF/VRFv2Consumer.sol\":3652:3724  require(betNumber <= 6 && betNumber > 0, \"Bet any value between 1 to 6\") */\n      tag_116\n      jumpi\n      mload(0x40)\n      0x08c379a000000000000000000000000000000000000000000000000000000000\n      dup2\n      mstore\n      0x04\n      add\n      tag_117\n      swap1\n      tag_118\n      jump\t// in\n    tag_117:\n      mload(0x40)\n      dup1\n      swap2\n      sub\n      swap1\n      revert\n    tag_116:\n        /* \"docs.chain.link/samples/VRF/VRFv2Consumer.sol\":3734:3771  address payable cuurrentPlayerAddress */\n      0x00\n        /* \"docs.chain.link/samples/VRF/VRFv2Consumer.sol\":3783:3793  msg.sender */\n      caller\n        /* \"docs.chain.link/samples/VRF/VRFv2Consumer.sol\":3734:3794  address payable cuurrentPlayerAddress = payable (msg.sender) */\n      swap1\n      pop\n        /* \"docs.chain.link/samples/VRF/VRFv2Consumer.sol\":3804:3829  uint256 current_requestId */\n      0x00\n        /* \"docs.chain.link/samples/VRF/VRFv2Consumer.sol\":3832:3852  requestRandomWords() */\n      tag_119\n        /* \"docs.chain.link/samples/VRF/VRFv2Consumer.sol\":3832:3850  requestRandomWords */\n      tag_88\n        /* \"docs.chain.link/samples/VRF/VRFv2Consumer.sol\":3832:3852  requestRandomWords() */\n      jump\t// in\n    tag_119:\n        /* \"docs.chain.link/samples/VRF/VRFv2Consumer.sol\":3804:3852  uint256 current_requestId = requestRandomWords() */\n      swap1\n      pop\n        /* \"docs.chain.link/samples/VRF/VRFv2Consumer.sol\":3862:3890  Player memory current_player */\n      0x00\n        /* \"docs.chain.link/samples/VRF/VRFv2Consumer.sol\":3893:3944  Player(cuurrentPlayerAddress, betNumber, msg.value) */\n      mload(0x40)\n      dup1\n      0x60\n      add\n      0x40\n      mstore\n      dup1\n        /* \"docs.chain.link/samples/VRF/VRFv2Consumer.sol\":3900:3921  cuurrentPlayerAddress */\n      dup5\n        /* \"docs.chain.link/samples/VRF/VRFv2Consumer.sol\":3893:3944  Player(cuurrentPlayerAddress, betNumber, msg.value) */\n      0xffffffffffffffffffffffffffffffffffffffff\n      and\n      dup2\n      mstore\n      0x20\n      add\n        /* \"docs.chain.link/samples/VRF/VRFv2Consumer.sol\":3923:3932  betNumber */\n      dup6\n        /* \"docs.chain.link/samples/VRF/VRFv2Consumer.sol\":3893:3944  Player(cuurrentPlayerAddress, betNumber, msg.value) */\n      dup2\n      mstore\n      0x20\n      add\n        /* \"docs.chain.link/samples/VRF/VRFv2Consumer.sol\":3934:3943  msg.value */\n      callvalue\n        /* \"docs.chain.link/samples/VRF/VRFv2Consumer.sol\":3893:3944  Player(cuurrentPlayerAddress, betNumber, msg.value) */\n      dup2\n      mstore\n      pop\n        /* \"docs.chain.link/samples/VRF/VRFv2Consumer.sol\":3862:3944  Player memory current_player = Player(cuurrentPlayerAddress, betNumber, msg.value) */\n      swap1\n      pop\n        /* \"docs.chain.link/samples/VRF/VRFv2Consumer.sol\":3983:3997  current_player */\n      dup1\n        /* \"docs.chain.link/samples/VRF/VRFv2Consumer.sol\":3954:3961  records */\n      0x08\n        /* \"docs.chain.link/samples/VRF/VRFv2Consumer.sol\":3954:3980  records[current_requestId] */\n      0x00\n        /* \"docs.chain.link/samples/VRF/VRFv2Consumer.sol\":3962:3979  current_requestId */\n      dup5\n        /* \"docs.chain.link/samples/VRF/VRFv2Consumer.sol\":3954:3980  records[current_requestId] */\n      dup2\n      mstore\n      0x20\n      add\n      swap1\n      dup2\n      mstore\n      0x20\n      add\n      0x00\n      keccak256\n        /* \"docs.chain.link/samples/VRF/VRFv2Consumer.sol\":3954:3997  records[current_requestId] = current_player */\n      0x00\n      dup3\n      add\n      mload\n      dup2\n      0x00\n      add\n      exp(0x0100, 0x00)\n      dup2\n      sload\n      dup2\n      0xffffffffffffffffffffffffffffffffffffffff\n      mul\n      not\n      and\n      swap1\n      dup4\n      0xffffffffffffffffffffffffffffffffffffffff\n      and\n      mul\n      or\n      swap1\n      sstore\n      pop\n      0x20\n      dup3\n      add\n      mload\n      dup2\n      0x01\n      add\n      sstore\n      0x40\n      dup3\n      add\n      mload\n      dup2\n      0x02\n      add\n      sstore\n      swap1\n      pop\n      pop\n        /* \"docs.chain.link/samples/VRF/VRFv2Consumer.sol\":3642:4004  {... */\n      pop\n      pop\n      pop\n        /* \"docs.chain.link/samples/VRF/VRFv2Consumer.sol\":3577:4004  function playGame(uint256 betNumber)  payable public checkMaxBet {... */\n      pop\n      jump\t// out\n        /* \"@chainlink/contracts/src/v0.8/ConfirmedOwnerWithProposal.sol\":1016:1281  function acceptOwnership() external override {... */\n    tag_48:\n        /* \"@chainlink/contracts/src/v0.8/ConfirmedOwnerWithProposal.sol\":1089:1103  s_pendingOwner */\n      0x01\n      0x00\n      swap1\n      sload\n      swap1\n      0x0100\n      exp\n      swap1\n      div\n      0xffffffffffffffffffffffffffffffffffffffff\n      and\n        /* \"@chainlink/contracts/src/v0.8/ConfirmedOwnerWithProposal.sol\":1075:1103  msg.sender == s_pendingOwner */\n      0xffffffffffffffffffffffffffffffffffffffff\n      and\n        /* \"@chainlink/contracts/src/v0.8/ConfirmedOwnerWithProposal.sol\":1075:1085  msg.sender */\n      caller\n        /* \"@chainlink/contracts/src/v0.8/ConfirmedOwnerWithProposal.sol\":1075:1103  msg.sender == s_pendingOwner */\n      0xffffffffffffffffffffffffffffffffffffffff\n      and\n      eq\n        /* \"@chainlink/contracts/src/v0.8/ConfirmedOwnerWithProposal.sol\":1067:1130  require(msg.sender == s_pendingOwner, \"Must be proposed owner\") */\n      tag_121\n      jumpi\n      mload(0x40)\n      0x08c379a000000000000000000000000000000000000000000000000000000000\n      dup2\n      mstore\n      0x04\n      add\n      tag_122\n      swap1\n      tag_123\n      jump\t// in\n    tag_122:\n      mload(0x40)\n      dup1\n      swap2\n      sub\n      swap1\n      revert\n    tag_121:\n        /* \"@chainlink/contracts/src/v0.8/ConfirmedOwnerWithProposal.sol\":1137:1153  address oldOwner */\n      0x00\n        /* \"@chainlink/contracts/src/v0.8/ConfirmedOwnerWithProposal.sol\":1156:1163  s_owner */\n      dup1\n      0x00\n      swap1\n      sload\n      swap1\n      0x0100\n      exp\n      swap1\n      div\n      0xffffffffffffffffffffffffffffffffffffffff\n      and\n        /* \"@chainlink/contracts/src/v0.8/ConfirmedOwnerWithProposal.sol\":1137:1163  address oldOwner = s_owner */\n      swap1\n      pop\n        /* \"@chainlink/contracts/src/v0.8/ConfirmedOwnerWithProposal.sol\":1179:1189  msg.sender */\n      caller\n        /* \"@chainlink/contracts/src/v0.8/ConfirmedOwnerWithProposal.sol\":1169:1176  s_owner */\n      0x00\n      dup1\n        /* \"@chainlink/contracts/src/v0.8/ConfirmedOwnerWithProposal.sol\":1169:1189  s_owner = msg.sender */\n      0x0100\n      exp\n      dup2\n      sload\n      dup2\n      0xffffffffffffffffffffffffffffffffffffffff\n      mul\n      not\n      and\n      swap1\n      dup4\n      0xffffffffffffffffffffffffffffffffffffffff\n      and\n      mul\n      or\n      swap1\n      sstore\n      pop\n        /* \"@chainlink/contracts/src/v0.8/ConfirmedOwnerWithProposal.sol\":1220:1221  0 */\n      0x00\n        /* \"@chainlink/contracts/src/v0.8/ConfirmedOwnerWithProposal.sol\":1195:1209  s_pendingOwner */\n      0x01\n      0x00\n        /* \"@chainlink/contracts/src/v0.8/ConfirmedOwnerWithProposal.sol\":1195:1222  s_pendingOwner = address(0) */\n      0x0100\n      exp\n      dup2\n      sload\n      dup2\n      0xffffffffffffffffffffffffffffffffffffffff\n      mul\n      not\n      and\n      swap1\n      dup4\n      0xffffffffffffffffffffffffffffffffffffffff\n      and\n      mul\n      or\n      swap1\n      sstore\n      pop\n        /* \"@chainlink/contracts/src/v0.8/ConfirmedOwnerWithProposal.sol\":1265:1275  msg.sender */\n      caller\n        /* \"@chainlink/contracts/src/v0.8/ConfirmedOwnerWithProposal.sol\":1234:1276  OwnershipTransferred(oldOwner, msg.sender) */\n      0xffffffffffffffffffffffffffffffffffffffff\n      and\n        /* \"@chainlink/contracts/src/v0.8/ConfirmedOwnerWithProposal.sol\":1255:1263  oldOwner */\n      dup2\n        /* \"@chainlink/contracts/src/v0.8/ConfirmedOwnerWithProposal.sol\":1234:1276  OwnershipTransferred(oldOwner, msg.sender) */\n      0xffffffffffffffffffffffffffffffffffffffff\n      and\n      0x8be0079c531659141344cd1fd0a4f28419497f9722a3daafe3b4186f6b6457e0\n      mload(0x40)\n      mload(0x40)\n      dup1\n      swap2\n      sub\n      swap1\n      log3\n        /* \"@chainlink/contracts/src/v0.8/ConfirmedOwnerWithProposal.sol\":1061:1281  {... */\n      pop\n        /* \"@chainlink/contracts/src/v0.8/ConfirmedOwnerWithProposal.sol\":1016:1281  function acceptOwnership() external override {... */\n      jump\t// out\n        /* \"docs.chain.link/samples/VRF/VRFv2Consumer.sol\":1342:1369  uint256[] public requestIds */\n    tag_52:\n      0x04\n      dup2\n      dup2\n      sload\n      dup2\n      lt\n      tag_124\n      jumpi\n      0x00\n      dup1\n      revert\n    tag_124:\n      swap1\n      0x00\n      mstore\n      keccak256(0x00, 0x20)\n      add\n      0x00\n      swap2\n      pop\n      swap1\n      pop\n      sload\n      dup2\n      jump\t// out\n        /* \"@chainlink/contracts/src/v0.8/ConfirmedOwnerWithProposal.sol\":1332:1413  function owner() public view override returns (address) {... */\n    tag_56:\n        /* \"@chainlink/contracts/src/v0.8/ConfirmedOwnerWithProposal.sol\":1379:1386  address */\n      0x00\n        /* \"@chainlink/contracts/src/v0.8/ConfirmedOwnerWithProposal.sol\":1401:1408  s_owner */\n      dup1\n      0x00\n      swap1\n      sload\n      swap1\n      0x0100\n      exp\n      swap1\n      div\n      0xffffffffffffffffffffffffffffffffffffffff\n      and\n        /* \"@chainlink/contracts/src/v0.8/ConfirmedOwnerWithProposal.sol\":1394:1408  return s_owner */\n      swap1\n      pop\n        /* \"@chainlink/contracts/src/v0.8/ConfirmedOwnerWithProposal.sol\":1332:1413  function owner() public view override returns (address) {... */\n      swap1\n      jump\t// out\n        /* \"docs.chain.link/samples/VRF/VRFv2Consumer.sol\":2418:2447  address payable public casino */\n    tag_61:\n      0x07\n      0x0a\n      swap1\n      sload\n      swap1\n      0x0100\n      exp\n      swap1\n      div\n      0xffffffffffffffffffffffffffffffffffffffff\n      and\n      dup2\n      jump\t// out\n        /* \"docs.chain.link/samples/VRF/VRFv2Consumer.sol\":1123:1174  mapping(uint256 => RequestStatus) public s_requests */\n    tag_67:\n      mstore(0x20, 0x02)\n      dup1\n      0x00\n      mstore\n      keccak256(0x00, 0x40)\n      0x00\n      swap2\n      pop\n      swap1\n      pop\n      dup1\n      0x00\n      add\n      0x00\n      swap1\n      sload\n      swap1\n      0x0100\n      exp\n      swap1\n      div\n      0xff\n      and\n      swap1\n      dup1\n      0x00\n      add\n      0x01\n      swap1\n      sload\n      swap1\n      0x0100\n      exp\n      swap1\n      div\n      0xff\n      and\n      swap1\n      pop\n      dup3\n      jump\t// out\n        /* \"docs.chain.link/samples/VRF/VRFv2Consumer.sol\":3180:3279  function addBalance() external payable{... */\n    tag_71:\n        /* \"docs.chain.link/samples/VRF/VRFv2Consumer.sol\":3261:3272  maxBetRatio */\n      sload(0x0b)\n        /* \"docs.chain.link/samples/VRF/VRFv2Consumer.sol\":3237:3258  address(this).balance */\n      selfbalance\n        /* \"docs.chain.link/samples/VRF/VRFv2Consumer.sol\":3237:3272  address(this).balance / maxBetRatio */\n      tag_128\n      swap2\n      swap1\n      tag_103\n      jump\t// in\n    tag_128:\n        /* \"docs.chain.link/samples/VRF/VRFv2Consumer.sol\":3228:3234  maxBet */\n      0x0a\n        /* \"docs.chain.link/samples/VRF/VRFv2Consumer.sol\":3228:3272  maxBet = address(this).balance / maxBetRatio */\n      dup2\n      swap1\n      sstore\n      pop\n        /* \"docs.chain.link/samples/VRF/VRFv2Consumer.sol\":3180:3279  function addBalance() external payable{... */\n      jump\t// out\n        /* \"docs.chain.link/samples/VRF/VRFv2Consumer.sol\":2627:2651  uint256 public betResult */\n    tag_74:\n      sload(0x09)\n      dup2\n      jump\t// out\n        /* \"docs.chain.link/samples/VRF/VRFv2Consumer.sol\":2696:2729  uint256 public maxBetRatio = 1000 */\n    tag_78:\n      sload(0x0b)\n      dup2\n      jump\t// out\n        /* \"docs.chain.link/samples/VRF/VRFv2Consumer.sol\":5631:5942  function getRequestStatus(uint256 _requestId) external view returns (bool fulfilled, uint256[] memory randomWords) {... */\n    tag_83:\n        /* \"docs.chain.link/samples/VRF/VRFv2Consumer.sol\":5700:5714  bool fulfilled */\n      0x00\n        /* \"docs.chain.link/samples/VRF/VRFv2Consumer.sol\":5716:5744  uint256[] memory randomWords */\n      0x60\n        /* \"docs.chain.link/samples/VRF/VRFv2Consumer.sol\":5764:5774  s_requests */\n      0x02\n        /* \"docs.chain.link/samples/VRF/VRFv2Consumer.sol\":5764:5786  s_requests[_requestId] */\n      0x00\n        /* \"docs.chain.link/samples/VRF/VRFv2Consumer.sol\":5775:5785  _requestId */\n      dup5\n        /* \"docs.chain.link/samples/VRF/VRFv2Consumer.sol\":5764:5786  s_requests[_requestId] */\n      dup2\n      mstore\n      0x20\n      add\n      swap1\n      dup2\n      mstore\n      0x20\n      add\n      0x00\n      keccak256\n        /* \"docs.chain.link/samples/VRF/VRFv2Consumer.sol\":5764:5793  s_requests[_requestId].exists */\n      0x00\n      add\n      0x01\n      swap1\n      sload\n      swap1\n      0x0100\n      exp\n      swap1\n      div\n      0xff\n      and\n        /* \"docs.chain.link/samples/VRF/VRFv2Consumer.sol\":5756:5815  require(s_requests[_requestId].exists, 'request not found') */\n      tag_130\n      jumpi\n      mload(0x40)\n      0x08c379a000000000000000000000000000000000000000000000000000000000\n      dup2\n      mstore\n      0x04\n      add\n      tag_131\n      swap1\n      tag_132\n      jump\t// in\n    tag_131:\n      mload(0x40)\n      dup1\n      swap2\n      sub\n      swap1\n      revert\n    tag_130:\n        /* \"docs.chain.link/samples/VRF/VRFv2Consumer.sol\":5825:5853  RequestStatus memory request */\n      0x00\n        /* \"docs.chain.link/samples/VRF/VRFv2Consumer.sol\":5856:5866  s_requests */\n      0x02\n        /* \"docs.chain.link/samples/VRF/VRFv2Consumer.sol\":5856:5878  s_requests[_requestId] */\n      0x00\n        /* \"docs.chain.link/samples/VRF/VRFv2Consumer.sol\":5867:5877  _requestId */\n      dup6\n        /* \"docs.chain.link/samples/VRF/VRFv2Consumer.sol\":5856:5878  s_requests[_requestId] */\n      dup2\n      mstore\n      0x20\n      add\n      swap1\n      dup2\n      mstore\n      0x20\n      add\n      0x00\n      keccak256\n        /* \"docs.chain.link/samples/VRF/VRFv2Consumer.sol\":5825:5878  RequestStatus memory request = s_requests[_requestId] */\n      mload(0x40)\n      dup1\n      0x60\n      add\n      0x40\n      mstore\n      swap1\n      dup2\n      0x00\n      dup3\n      add\n      0x00\n      swap1\n      sload\n      swap1\n      0x0100\n      exp\n      swap1\n      div\n      0xff\n      and\n      iszero\n      iszero\n      iszero\n      iszero\n      dup2\n      mstore\n      0x20\n      add\n      0x00\n      dup3\n      add\n      0x01\n      swap1\n      sload\n      swap1\n      0x0100\n      exp\n      swap1\n      div\n      0xff\n      and\n      iszero\n      iszero\n      iszero\n      iszero\n      dup2\n      mstore\n      0x20\n      add\n      0x01\n      dup3\n      add\n      dup1\n      sload\n      dup1\n      0x20\n      mul\n      0x20\n      add\n      mload(0x40)\n      swap1\n      dup2\n      add\n      0x40\n      mstore\n      dup1\n      swap3\n      swap2\n      swap1\n      dup2\n      dup2\n      mstore\n      0x20\n      add\n      dup3\n      dup1\n      sload\n      dup1\n      iszero\n      tag_133\n      jumpi\n      0x20\n      mul\n      dup3\n      add\n      swap2\n      swap1\n      0x00\n      mstore\n      keccak256(0x00, 0x20)\n      swap1\n    tag_134:\n      dup2\n      sload\n      dup2\n      mstore\n      0x20\n      add\n      swap1\n      0x01\n      add\n      swap1\n      dup1\n      dup4\n      gt\n      tag_134\n      jumpi\n    tag_133:\n      pop\n      pop\n      pop\n      pop\n      pop\n      dup2\n      mstore\n      pop\n      pop\n      swap1\n      pop\n        /* \"docs.chain.link/samples/VRF/VRFv2Consumer.sol\":5896:5903  request */\n      dup1\n        /* \"docs.chain.link/samples/VRF/VRFv2Consumer.sol\":5896:5913  request.fulfilled */\n      0x00\n      add\n      mload\n        /* \"docs.chain.link/samples/VRF/VRFv2Consumer.sol\":5915:5922  request */\n      dup2\n        /* \"docs.chain.link/samples/VRF/VRFv2Consumer.sol\":5915:5934  request.randomWords */\n      0x40\n      add\n      mload\n        /* \"docs.chain.link/samples/VRF/VRFv2Consumer.sol\":5888:5935  return (request.fulfilled, request.randomWords) */\n      swap3\n      pop\n      swap3\n      pop\n      pop\n        /* \"docs.chain.link/samples/VRF/VRFv2Consumer.sol\":5631:5942  function getRequestStatus(uint256 _requestId) external view returns (bool fulfilled, uint256[] memory randomWords) {... */\n      swap2\n      pop\n      swap2\n      jump\t// out\n        /* \"docs.chain.link/samples/VRF/VRFv2Consumer.sol\":4066:4665  function requestRandomWords() public onlyOwner returns (uint256 requestId) {... */\n    tag_88:\n        /* \"docs.chain.link/samples/VRF/VRFv2Consumer.sol\":4122:4139  uint256 requestId */\n      0x00\n        /* \"@chainlink/contracts/src/v0.8/ConfirmedOwnerWithProposal.sol\":1956:1976  _validateOwnership() */\n      tag_136\n        /* \"@chainlink/contracts/src/v0.8/ConfirmedOwnerWithProposal.sol\":1956:1974  _validateOwnership */\n      tag_137\n        /* \"@chainlink/contracts/src/v0.8/ConfirmedOwnerWithProposal.sol\":1956:1976  _validateOwnership() */\n      jump\t// in\n    tag_136:\n        /* \"docs.chain.link/samples/VRF/VRFv2Consumer.sol\":4225:4236  COORDINATOR */\n      0x03\n      0x00\n      swap1\n      sload\n      swap1\n      0x0100\n      exp\n      swap1\n      div\n      0xffffffffffffffffffffffffffffffffffffffff\n      and\n        /* \"docs.chain.link/samples/VRF/VRFv2Consumer.sol\":4225:4255  COORDINATOR.requestRandomWords */\n      0xffffffffffffffffffffffffffffffffffffffff\n      and\n      0x5d3b1d30\n        /* \"docs.chain.link/samples/VRF/VRFv2Consumer.sol\":4269:4276  keyHash */\n      sload(0x06)\n        /* \"docs.chain.link/samples/VRF/VRFv2Consumer.sol\":4290:4306  s_subscriptionId */\n      0x03\n      0x14\n      swap1\n      sload\n      swap1\n      0x0100\n      exp\n      swap1\n      div\n      0xffffffffffffffff\n      and\n        /* \"docs.chain.link/samples/VRF/VRFv2Consumer.sol\":4320:4340  requestConfirmations */\n      0x07\n      0x04\n      swap1\n      sload\n      swap1\n      0x0100\n      exp\n      swap1\n      div\n      0xffff\n      and\n        /* \"docs.chain.link/samples/VRF/VRFv2Consumer.sol\":4354:4370  callbackGasLimit */\n      0x07\n      0x00\n      swap1\n      sload\n      swap1\n      0x0100\n      exp\n      swap1\n      div\n      0xffffffff\n      and\n        /* \"docs.chain.link/samples/VRF/VRFv2Consumer.sol\":4384:4392  numWords */\n      0x07\n      0x06\n      swap1\n      sload\n      swap1\n      0x0100\n      exp\n      swap1\n      div\n      0xffffffff\n      and\n        /* \"docs.chain.link/samples/VRF/VRFv2Consumer.sol\":4225:4402  COORDINATOR.requestRandomWords(... */\n      mload(0x40)\n      dup7\n      0xffffffff\n      and\n      0xe0\n      shl\n      dup2\n      mstore\n      0x04\n      add\n      tag_139\n      swap6\n      swap5\n      swap4\n      swap3\n      swap2\n      swap1\n      tag_140\n      jump\t// in\n    tag_139:\n      0x20\n      mload(0x40)\n      dup1\n      dup4\n      sub\n      dup2\n      0x00\n      dup8\n      dup1\n      extcodesize\n      iszero\n      dup1\n      iszero\n      tag_141\n      jumpi\n      0x00\n      dup1\n      revert\n    tag_141:\n      pop\n      gas\n      call\n      iszero\n      dup1\n      iszero\n      tag_143\n      jumpi\n      returndatasize\n      0x00\n      dup1\n      returndatacopy\n      revert(0x00, returndatasize)\n    tag_143:\n      pop\n      pop\n      pop\n      pop\n      mload(0x40)\n      returndatasize\n      not(0x1f)\n      0x1f\n      dup3\n      add\n      and\n      dup3\n      add\n      dup1\n      0x40\n      mstore\n      pop\n      dup2\n      add\n      swap1\n      tag_144\n      swap2\n      swap1\n      tag_145\n      jump\t// in\n    tag_144:\n        /* \"docs.chain.link/samples/VRF/VRFv2Consumer.sol\":4213:4402  requestId = COORDINATOR.requestRandomWords(... */\n      swap1\n      pop\n        /* \"docs.chain.link/samples/VRF/VRFv2Consumer.sol\":4436:4514  RequestStatus({randomWords: new uint256[](0), exists: true, fulfilled: false}) */\n      mload(0x40)\n      dup1\n      0x60\n      add\n      0x40\n      mstore\n      dup1\n        /* \"docs.chain.link/samples/VRF/VRFv2Consumer.sol\":4507:4512  false */\n      0x00\n        /* \"docs.chain.link/samples/VRF/VRFv2Consumer.sol\":4436:4514  RequestStatus({randomWords: new uint256[](0), exists: true, fulfilled: false}) */\n      iszero\n      iszero\n      dup2\n      mstore\n      0x20\n      add\n        /* \"docs.chain.link/samples/VRF/VRFv2Consumer.sol\":4490:4494  true */\n      0x01\n        /* \"docs.chain.link/samples/VRF/VRFv2Consumer.sol\":4436:4514  RequestStatus({randomWords: new uint256[](0), exists: true, fulfilled: false}) */\n      iszero\n      iszero\n      dup2\n      mstore\n      0x20\n      add\n        /* \"docs.chain.link/samples/VRF/VRFv2Consumer.sol\":4478:4479  0 */\n      0x00\n        /* \"docs.chain.link/samples/VRF/VRFv2Consumer.sol\":4464:4480  new uint256[](0) */\n      0xffffffffffffffff\n      dup2\n      gt\n      iszero\n      tag_146\n      jumpi\n      tag_147\n      tag_148\n      jump\t// in\n    tag_147:\n    tag_146:\n      mload(0x40)\n      swap1\n      dup1\n      dup3\n      mstore\n      dup1\n      0x20\n      mul\n      0x20\n      add\n      dup3\n      add\n      0x40\n      mstore\n      dup1\n      iszero\n      tag_149\n      jumpi\n      dup2\n      0x20\n      add\n      0x20\n      dup3\n      mul\n      dup1\n      calldatasize\n      dup4\n      calldatacopy\n      dup1\n      dup3\n      add\n      swap2\n      pop\n      pop\n      swap1\n      pop\n    tag_149:\n      pop\n        /* \"docs.chain.link/samples/VRF/VRFv2Consumer.sol\":4436:4514  RequestStatus({randomWords: new uint256[](0), exists: true, fulfilled: false}) */\n      dup2\n      mstore\n      pop\n        /* \"docs.chain.link/samples/VRF/VRFv2Consumer.sol\":4412:4422  s_requests */\n      0x02\n        /* \"docs.chain.link/samples/VRF/VRFv2Consumer.sol\":4412:4433  s_requests[requestId] */\n      0x00\n        /* \"docs.chain.link/samples/VRF/VRFv2Consumer.sol\":4423:4432  requestId */\n      dup4\n        /* \"docs.chain.link/samples/VRF/VRFv2Consumer.sol\":4412:4433  s_requests[requestId] */\n      dup2\n      mstore\n      0x20\n      add\n      swap1\n      dup2\n      mstore\n      0x20\n      add\n      0x00\n      keccak256\n        /* \"docs.chain.link/samples/VRF/VRFv2Consumer.sol\":4412:4514  s_requests[requestId] = RequestStatus({randomWords: new uint256[](0), exists: true, fulfilled: false}) */\n      0x00\n      dup3\n      add\n      mload\n      dup2\n      0x00\n      add\n      exp(0x0100, 0x00)\n      dup2\n      sload\n      dup2\n      0xff\n      mul\n      not\n      and\n      swap1\n      dup4\n      iszero\n      iszero\n      mul\n      or\n      swap1\n      sstore\n      pop\n      0x20\n      dup3\n      add\n      mload\n      dup2\n      0x00\n      add\n      exp(0x0100, 0x01)\n      dup2\n      sload\n      dup2\n      0xff\n      mul\n      not\n      and\n      swap1\n      dup4\n      iszero\n      iszero\n      mul\n      or\n      swap1\n      sstore\n      pop\n      0x40\n      dup3\n      add\n      mload\n      dup2\n      0x01\n      add\n      swap1\n      dup1\n      mload\n      swap1\n      0x20\n      add\n      swap1\n      tag_150\n      swap3\n      swap2\n      swap1\n      tag_151\n      jump\t// in\n    tag_150:\n      pop\n      swap1\n      pop\n      pop\n        /* \"docs.chain.link/samples/VRF/VRFv2Consumer.sol\":4524:4534  requestIds */\n      0x04\n        /* \"docs.chain.link/samples/VRF/VRFv2Consumer.sol\":4540:4549  requestId */\n      dup2\n        /* \"docs.chain.link/samples/VRF/VRFv2Consumer.sol\":4524:4550  requestIds.push(requestId) */\n      swap1\n      dup1\n      0x01\n      dup2\n      sload\n      add\n      dup1\n      dup3\n      sstore\n      dup1\n      swap2\n      pop\n      pop\n      0x01\n      swap1\n      sub\n      swap1\n      0x00\n      mstore\n      keccak256(0x00, 0x20)\n      add\n      0x00\n      swap1\n      swap2\n      swap1\n      swap2\n      swap1\n      swap2\n      pop\n      sstore\n        /* \"docs.chain.link/samples/VRF/VRFv2Consumer.sol\":4576:4585  requestId */\n      dup1\n        /* \"docs.chain.link/samples/VRF/VRFv2Consumer.sol\":4560:4573  lastRequestId */\n      0x05\n        /* \"docs.chain.link/samples/VRF/VRFv2Consumer.sol\":4560:4585  lastRequestId = requestId */\n      dup2\n      swap1\n      sstore\n      pop\n        /* \"docs.chain.link/samples/VRF/VRFv2Consumer.sol\":4600:4632  RequestSent(requestId, numWords) */\n      0xcc58b13ad3eab50626c6a6300b1d139cd6ebb1688a7cced9461c2f7e762665ee\n        /* \"docs.chain.link/samples/VRF/VRFv2Consumer.sol\":4612:4621  requestId */\n      dup2\n        /* \"docs.chain.link/samples/VRF/VRFv2Consumer.sol\":4623:4631  numWords */\n      0x07\n      0x06\n      swap1\n      sload\n      swap1\n      0x0100\n      exp\n      swap1\n      div\n      0xffffffff\n      and\n        /* \"docs.chain.link/samples/VRF/VRFv2Consumer.sol\":4600:4632  RequestSent(requestId, numWords) */\n      mload(0x40)\n      tag_153\n      swap3\n      swap2\n      swap1\n      tag_154\n      jump\t// in\n    tag_153:\n      mload(0x40)\n      dup1\n      swap2\n      sub\n      swap1\n      log1\n        /* \"docs.chain.link/samples/VRF/VRFv2Consumer.sol\":4066:4665  function requestRandomWords() public onlyOwner returns (uint256 requestId) {... */\n      swap1\n      jump\t// out\n        /* \"@chainlink/contracts/src/v0.8/ConfirmedOwnerWithProposal.sol\":826:924  function transferOwnership(address to) public override onlyOwner {... */\n    tag_94:\n        /* \"@chainlink/contracts/src/v0.8/ConfirmedOwnerWithProposal.sol\":1956:1976  _validateOwnership() */\n      tag_156\n        /* \"@chainlink/contracts/src/v0.8/ConfirmedOwnerWithProposal.sol\":1956:1974  _validateOwnership */\n      tag_137\n        /* \"@chainlink/contracts/src/v0.8/ConfirmedOwnerWithProposal.sol\":1956:1976  _validateOwnership() */\n      jump\t// in\n    tag_156:\n        /* \"@chainlink/contracts/src/v0.8/ConfirmedOwnerWithProposal.sol\":897:919  _transferOwnership(to) */\n      tag_158\n        /* \"@chainlink/contracts/src/v0.8/ConfirmedOwnerWithProposal.sol\":916:918  to */\n      dup2\n        /* \"@chainlink/contracts/src/v0.8/ConfirmedOwnerWithProposal.sol\":897:915  _transferOwnership */\n      tag_159\n        /* \"@chainlink/contracts/src/v0.8/ConfirmedOwnerWithProposal.sol\":897:919  _transferOwnership(to) */\n      jump\t// in\n    tag_158:\n        /* \"@chainlink/contracts/src/v0.8/ConfirmedOwnerWithProposal.sol\":826:924  function transferOwnership(address to) public override onlyOwner {... */\n      pop\n      jump\t// out\n        /* \"docs.chain.link/samples/VRF/VRFv2Consumer.sol\":1375:1403  uint256 public lastRequestId */\n    tag_97:\n      sload(0x05)\n      dup2\n      jump\t// out\n        /* \"docs.chain.link/samples/VRF/VRFv2Consumer.sol\":4671:5625  function fulfillRandomWords(uint256 _requestId, uint256[] memory _randomWords) internal override {... */\n    tag_109:\n        /* \"docs.chain.link/samples/VRF/VRFv2Consumer.sol\":4786:4796  s_requests */\n      0x02\n        /* \"docs.chain.link/samples/VRF/VRFv2Consumer.sol\":4786:4808  s_requests[_requestId] */\n      0x00\n        /* \"docs.chain.link/samples/VRF/VRFv2Consumer.sol\":4797:4807  _requestId */\n      dup4\n        /* \"docs.chain.link/samples/VRF/VRFv2Consumer.sol\":4786:4808  s_requests[_requestId] */\n      dup2\n      mstore\n      0x20\n      add\n      swap1\n      dup2\n      mstore\n      0x20\n      add\n      0x00\n      keccak256\n        /* \"docs.chain.link/samples/VRF/VRFv2Consumer.sol\":4786:4815  s_requests[_requestId].exists */\n      0x00\n      add\n      0x01\n      swap1\n      sload\n      swap1\n      0x0100\n      exp\n      swap1\n      div\n      0xff\n      and\n        /* \"docs.chain.link/samples/VRF/VRFv2Consumer.sol\":4778:4837  require(s_requests[_requestId].exists, 'request not found') */\n      tag_161\n      jumpi\n      mload(0x40)\n      0x08c379a000000000000000000000000000000000000000000000000000000000\n      dup2\n      mstore\n      0x04\n      add\n      tag_162\n      swap1\n      tag_132\n      jump\t// in\n    tag_162:\n      mload(0x40)\n      dup1\n      swap2\n      sub\n      swap1\n      revert\n    tag_161:\n        /* \"docs.chain.link/samples/VRF/VRFv2Consumer.sol\":4882:4886  true */\n      0x01\n        /* \"docs.chain.link/samples/VRF/VRFv2Consumer.sol\":4847:4857  s_requests */\n      0x02\n        /* \"docs.chain.link/samples/VRF/VRFv2Consumer.sol\":4847:4869  s_requests[_requestId] */\n      0x00\n        /* \"docs.chain.link/samples/VRF/VRFv2Consumer.sol\":4858:4868  _requestId */\n      dup5\n        /* \"docs.chain.link/samples/VRF/VRFv2Consumer.sol\":4847:4869  s_requests[_requestId] */\n      dup2\n      mstore\n      0x20\n      add\n      swap1\n      dup2\n      mstore\n      0x20\n      add\n      0x00\n      keccak256\n        /* \"docs.chain.link/samples/VRF/VRFv2Consumer.sol\":4847:4879  s_requests[_requestId].fulfilled */\n      0x00\n      add\n      0x00\n        /* \"docs.chain.link/samples/VRF/VRFv2Consumer.sol\":4847:4886  s_requests[_requestId].fulfilled = true */\n      0x0100\n      exp\n      dup2\n      sload\n      dup2\n      0xff\n      mul\n      not\n      and\n      swap1\n      dup4\n      iszero\n      iszero\n      mul\n      or\n      swap1\n      sstore\n      pop\n        /* \"docs.chain.link/samples/VRF/VRFv2Consumer.sol\":4933:4945  _randomWords */\n      dup1\n        /* \"docs.chain.link/samples/VRF/VRFv2Consumer.sol\":4896:4906  s_requests */\n      0x02\n        /* \"docs.chain.link/samples/VRF/VRFv2Consumer.sol\":4896:4918  s_requests[_requestId] */\n      0x00\n        /* \"docs.chain.link/samples/VRF/VRFv2Consumer.sol\":4907:4917  _requestId */\n      dup5\n        /* \"docs.chain.link/samples/VRF/VRFv2Consumer.sol\":4896:4918  s_requests[_requestId] */\n      dup2\n      mstore\n      0x20\n      add\n      swap1\n      dup2\n      mstore\n      0x20\n      add\n      0x00\n      keccak256\n        /* \"docs.chain.link/samples/VRF/VRFv2Consumer.sol\":4896:4930  s_requests[_requestId].randomWords */\n      0x01\n      add\n        /* \"docs.chain.link/samples/VRF/VRFv2Consumer.sol\":4896:4945  s_requests[_requestId].randomWords = _randomWords */\n      swap1\n      dup1\n      mload\n      swap1\n      0x20\n      add\n      swap1\n      tag_163\n      swap3\n      swap2\n      swap1\n      tag_151\n      jump\t// in\n    tag_163:\n      pop\n        /* \"docs.chain.link/samples/VRF/VRFv2Consumer.sol\":4960:5002  RequestFulfilled(_requestId, _randomWords) */\n      0xfe2e2d779dba245964d4e3ef9b994be63856fd568bf7d3ca9e224755cb1bd54d\n        /* \"docs.chain.link/samples/VRF/VRFv2Consumer.sol\":4977:4987  _requestId */\n      dup3\n        /* \"docs.chain.link/samples/VRF/VRFv2Consumer.sol\":4989:5001  _randomWords */\n      dup3\n        /* \"docs.chain.link/samples/VRF/VRFv2Consumer.sol\":4960:5002  RequestFulfilled(_requestId, _randomWords) */\n      mload(0x40)\n      tag_164\n      swap3\n      swap2\n      swap1\n      tag_165\n      jump\t// in\n    tag_164:\n      mload(0x40)\n      dup1\n      swap2\n      sub\n      swap1\n      log1\n        /* \"docs.chain.link/samples/VRF/VRFv2Consumer.sol\":5013:5031  uint256 randomness */\n      0x00\n        /* \"docs.chain.link/samples/VRF/VRFv2Consumer.sol\":5034:5046  _randomWords */\n      dup2\n        /* \"docs.chain.link/samples/VRF/VRFv2Consumer.sol\":5047:5048  0 */\n      0x00\n        /* \"docs.chain.link/samples/VRF/VRFv2Consumer.sol\":5034:5049  _randomWords[0] */\n      dup2\n      mload\n      dup2\n      lt\n      tag_166\n      jumpi\n      tag_167\n      tag_168\n      jump\t// in\n    tag_167:\n    tag_166:\n      0x20\n      mul\n      0x20\n      add\n      add\n      mload\n        /* \"docs.chain.link/samples/VRF/VRFv2Consumer.sol\":5013:5049  uint256 randomness = _randomWords[0] */\n      swap1\n      pop\n        /* \"docs.chain.link/samples/VRF/VRFv2Consumer.sol\":5059:5084  Player memory curr_player */\n      0x00\n        /* \"docs.chain.link/samples/VRF/VRFv2Consumer.sol\":5087:5094  records */\n      0x08\n        /* \"docs.chain.link/samples/VRF/VRFv2Consumer.sol\":5087:5106  records[_requestId] */\n      0x00\n        /* \"docs.chain.link/samples/VRF/VRFv2Consumer.sol\":5095:5105  _requestId */\n      dup6\n        /* \"docs.chain.link/samples/VRF/VRFv2Consumer.sol\":5087:5106  records[_requestId] */\n      dup2\n      mstore\n      0x20\n      add\n      swap1\n      dup2\n      mstore\n      0x20\n      add\n      0x00\n      keccak256\n        /* \"docs.chain.link/samples/VRF/VRFv2Consumer.sol\":5059:5106  Player memory curr_player = records[_requestId] */\n      mload(0x40)\n      dup1\n      0x60\n      add\n      0x40\n      mstore\n      swap1\n      dup2\n      0x00\n      dup3\n      add\n      0x00\n      swap1\n      sload\n      swap1\n      0x0100\n      exp\n      swap1\n      div\n      0xffffffffffffffffffffffffffffffffffffffff\n      and\n      0xffffffffffffffffffffffffffffffffffffffff\n      and\n      0xffffffffffffffffffffffffffffffffffffffff\n      and\n      dup2\n      mstore\n      0x20\n      add\n      0x01\n      dup3\n      add\n      sload\n      dup2\n      mstore\n      0x20\n      add\n      0x02\n      dup3\n      add\n      sload\n      dup2\n      mstore\n      pop\n      pop\n      swap1\n      pop\n        /* \"docs.chain.link/samples/VRF/VRFv2Consumer.sol\":5116:5134  uint256 _betAmount */\n      0x00\n        /* \"docs.chain.link/samples/VRF/VRFv2Consumer.sol\":5137:5148  curr_player */\n      dup2\n        /* \"docs.chain.link/samples/VRF/VRFv2Consumer.sol\":5137:5158  curr_player.betAmount */\n      0x40\n      add\n      mload\n        /* \"docs.chain.link/samples/VRF/VRFv2Consumer.sol\":5116:5158  uint256 _betAmount = curr_player.betAmount */\n      swap1\n      pop\n        /* \"docs.chain.link/samples/VRF/VRFv2Consumer.sol\":5168:5186  uint256 _betNumber */\n      0x00\n        /* \"docs.chain.link/samples/VRF/VRFv2Consumer.sol\":5189:5200  curr_player */\n      dup3\n        /* \"docs.chain.link/samples/VRF/VRFv2Consumer.sol\":5189:5210  curr_player.betNumber */\n      0x20\n      add\n      mload\n        /* \"docs.chain.link/samples/VRF/VRFv2Consumer.sol\":5168:5210  uint256 _betNumber = curr_player.betNumber */\n      swap1\n      pop\n        /* \"docs.chain.link/samples/VRF/VRFv2Consumer.sol\":5220:5256  address payable _curr_player_address */\n      0x00\n        /* \"docs.chain.link/samples/VRF/VRFv2Consumer.sol\":5259:5270  curr_player */\n      dup4\n        /* \"docs.chain.link/samples/VRF/VRFv2Consumer.sol\":5259:5284  curr_player.playerAddress */\n      0x00\n      add\n      mload\n        /* \"docs.chain.link/samples/VRF/VRFv2Consumer.sol\":5220:5284  address payable _curr_player_address = curr_player.playerAddress */\n      swap1\n      pop\n        /* \"docs.chain.link/samples/VRF/VRFv2Consumer.sol\":5294:5309  uint _betResult */\n      0x00\n        /* \"docs.chain.link/samples/VRF/VRFv2Consumer.sol\":5325:5326  6 */\n      0x06\n        /* \"docs.chain.link/samples/VRF/VRFv2Consumer.sol\":5312:5322  randomness */\n      dup7\n        /* \"docs.chain.link/samples/VRF/VRFv2Consumer.sol\":5312:5326  randomness % 6 */\n      tag_169\n      swap2\n      swap1\n      tag_170\n      jump\t// in\n    tag_169:\n        /* \"docs.chain.link/samples/VRF/VRFv2Consumer.sol\":5294:5326  uint _betResult = randomness % 6 */\n      swap1\n      pop\n        /* \"docs.chain.link/samples/VRF/VRFv2Consumer.sol\":5348:5358  _betResult */\n      dup1\n        /* \"docs.chain.link/samples/VRF/VRFv2Consumer.sol\":5336:5345  betResult */\n      0x09\n        /* \"docs.chain.link/samples/VRF/VRFv2Consumer.sol\":5336:5358  betResult = _betResult */\n      dup2\n      swap1\n      sstore\n      pop\n        /* \"docs.chain.link/samples/VRF/VRFv2Consumer.sol\":5386:5396  _betNumber */\n      dup3\n        /* \"docs.chain.link/samples/VRF/VRFv2Consumer.sol\":5372:5382  _betResult */\n      dup2\n        /* \"docs.chain.link/samples/VRF/VRFv2Consumer.sol\":5372:5396  _betResult == _betNumber */\n      eq\n        /* \"docs.chain.link/samples/VRF/VRFv2Consumer.sol\":5369:5619  if(_betResult == _betNumber){... */\n      iszero\n      tag_171\n      jumpi\n        /* \"docs.chain.link/samples/VRF/VRFv2Consumer.sol\":5411:5430  uint256 _win_amount */\n      0x00\n        /* \"docs.chain.link/samples/VRF/VRFv2Consumer.sol\":5446:5447  2 */\n      0x02\n        /* \"docs.chain.link/samples/VRF/VRFv2Consumer.sol\":5433:5443  _betAmount */\n      dup6\n        /* \"docs.chain.link/samples/VRF/VRFv2Consumer.sol\":5433:5447  _betAmount * 2 */\n      tag_172\n      swap2\n      swap1\n      tag_173\n      jump\t// in\n    tag_172:\n        /* \"docs.chain.link/samples/VRF/VRFv2Consumer.sol\":5411:5447  uint256 _win_amount = _betAmount * 2 */\n      swap1\n      pop\n        /* \"docs.chain.link/samples/VRF/VRFv2Consumer.sol\":5463:5475  bool success */\n      0x00\n        /* \"docs.chain.link/samples/VRF/VRFv2Consumer.sol\":5480:5500  _curr_player_address */\n      dup4\n        /* \"docs.chain.link/samples/VRF/VRFv2Consumer.sol\":5480:5505  _curr_player_address.call */\n      0xffffffffffffffffffffffffffffffffffffffff\n      and\n        /* \"docs.chain.link/samples/VRF/VRFv2Consumer.sol\":5513:5524  _win_amount */\n      dup3\n        /* \"docs.chain.link/samples/VRF/VRFv2Consumer.sol\":5480:5530  _curr_player_address.call{value: _win_amount} (\"\") */\n      mload(0x40)\n      tag_174\n      swap1\n      tag_175\n      jump\t// in\n    tag_174:\n      0x00\n      mload(0x40)\n      dup1\n      dup4\n      sub\n      dup2\n      dup6\n      dup8\n      gas\n      call\n      swap3\n      pop\n      pop\n      pop\n      returndatasize\n      dup1\n      0x00\n      dup2\n      eq\n      tag_178\n      jumpi\n      mload(0x40)\n      swap2\n      pop\n      and(add(returndatasize, 0x3f), not(0x1f))\n      dup3\n      add\n      0x40\n      mstore\n      returndatasize\n      dup3\n      mstore\n      returndatasize\n      0x00\n      0x20\n      dup5\n      add\n      returndatacopy\n      jump(tag_177)\n    tag_178:\n      0x60\n      swap2\n      pop\n    tag_177:\n      pop\n        /* \"docs.chain.link/samples/VRF/VRFv2Consumer.sol\":5462:5530  (bool success,) = _curr_player_address.call{value: _win_amount} (\"\") */\n      pop\n      swap1\n      pop\n        /* \"docs.chain.link/samples/VRF/VRFv2Consumer.sol\":5553:5560  success */\n      dup1\n        /* \"docs.chain.link/samples/VRF/VRFv2Consumer.sol\":5545:5594  require(success, \"Casino: Winning payout failed\") */\n      tag_179\n      jumpi\n      mload(0x40)\n      0x08c379a000000000000000000000000000000000000000000000000000000000\n      dup2\n      mstore\n      0x04\n      add\n      tag_180\n      swap1\n      tag_181\n      jump\t// in\n    tag_180:\n      mload(0x40)\n      dup1\n      swap2\n      sub\n      swap1\n      revert\n    tag_179:\n        /* \"docs.chain.link/samples/VRF/VRFv2Consumer.sol\":5397:5619  {... */\n      pop\n      pop\n        /* \"docs.chain.link/samples/VRF/VRFv2Consumer.sol\":5369:5619  if(_betResult == _betNumber){... */\n    tag_171:\n        /* \"docs.chain.link/samples/VRF/VRFv2Consumer.sol\":4768:5625  {... */\n      pop\n      pop\n      pop\n      pop\n      pop\n      pop\n        /* \"docs.chain.link/samples/VRF/VRFv2Consumer.sol\":4671:5625  function fulfillRandomWords(uint256 _requestId, uint256[] memory _randomWords) internal override {... */\n      pop\n      pop\n      jump\t// out\n        /* \"@chainlink/contracts/src/v0.8/ConfirmedOwnerWithProposal.sol\":1730:1841  function _validateOwnership() internal view {... */\n    tag_137:\n        /* \"@chainlink/contracts/src/v0.8/ConfirmedOwnerWithProposal.sol\":1802:1809  s_owner */\n      0x00\n      dup1\n      sload\n      swap1\n      0x0100\n      exp\n      swap1\n      div\n      0xffffffffffffffffffffffffffffffffffffffff\n      and\n        /* \"@chainlink/contracts/src/v0.8/ConfirmedOwnerWithProposal.sol\":1788:1809  msg.sender == s_owner */\n      0xffffffffffffffffffffffffffffffffffffffff\n      and\n        /* \"@chainlink/contracts/src/v0.8/ConfirmedOwnerWithProposal.sol\":1788:1798  msg.sender */\n      caller\n        /* \"@chainlink/contracts/src/v0.8/ConfirmedOwnerWithProposal.sol\":1788:1809  msg.sender == s_owner */\n      0xffffffffffffffffffffffffffffffffffffffff\n      and\n      eq\n        /* \"@chainlink/contracts/src/v0.8/ConfirmedOwnerWithProposal.sol\":1780:1836  require(msg.sender == s_owner, \"Only callable by owner\") */\n      tag_183\n      jumpi\n      mload(0x40)\n      0x08c379a000000000000000000000000000000000000000000000000000000000\n      dup2\n      mstore\n      0x04\n      add\n      tag_184\n      swap1\n      tag_185\n      jump\t// in\n    tag_184:\n      mload(0x40)\n      dup1\n      swap2\n      sub\n      swap1\n      revert\n    tag_183:\n        /* \"@chainlink/contracts/src/v0.8/ConfirmedOwnerWithProposal.sol\":1730:1841  function _validateOwnership() internal view {... */\n      jump\t// out\n        /* \"@chainlink/contracts/src/v0.8/ConfirmedOwnerWithProposal.sol\":1497:1685  function _transferOwnership(address to) private {... */\n    tag_159:\n        /* \"@chainlink/contracts/src/v0.8/ConfirmedOwnerWithProposal.sol\":1565:1575  msg.sender */\n      caller\n        /* \"@chainlink/contracts/src/v0.8/ConfirmedOwnerWithProposal.sol\":1559:1575  to != msg.sender */\n      0xffffffffffffffffffffffffffffffffffffffff\n      and\n        /* \"@chainlink/contracts/src/v0.8/ConfirmedOwnerWithProposal.sol\":1559:1561  to */\n      dup2\n        /* \"@chainlink/contracts/src/v0.8/ConfirmedOwnerWithProposal.sol\":1559:1575  to != msg.sender */\n      0xffffffffffffffffffffffffffffffffffffffff\n      and\n      eq\n      iszero\n        /* \"@chainlink/contracts/src/v0.8/ConfirmedOwnerWithProposal.sol\":1551:1603  require(to != msg.sender, \"Cannot transfer to self\") */\n      tag_187\n      jumpi\n      mload(0x40)\n      0x08c379a000000000000000000000000000000000000000000000000000000000\n      dup2\n      mstore\n      0x04\n      add\n      tag_188\n      swap1\n      tag_189\n      jump\t// in\n    tag_188:\n      mload(0x40)\n      dup1\n      swap2\n      sub\n      swap1\n      revert\n    tag_187:\n        /* \"@chainlink/contracts/src/v0.8/ConfirmedOwnerWithProposal.sol\":1627:1629  to */\n      dup1\n        /* \"@chainlink/contracts/src/v0.8/ConfirmedOwnerWithProposal.sol\":1610:1624  s_pendingOwner */\n      0x01\n      0x00\n        /* \"@chainlink/contracts/src/v0.8/ConfirmedOwnerWithProposal.sol\":1610:1629  s_pendingOwner = to */\n      0x0100\n      exp\n      dup2\n      sload\n      dup2\n      0xffffffffffffffffffffffffffffffffffffffff\n      mul\n      not\n      and\n      swap1\n      dup4\n      0xffffffffffffffffffffffffffffffffffffffff\n      and\n      mul\n      or\n      swap1\n      sstore\n      pop\n        /* \"@chainlink/contracts/src/v0.8/ConfirmedOwnerWithProposal.sol\":1677:1679  to */\n      dup1\n        /* \"@chainlink/contracts/src/v0.8/ConfirmedOwnerWithProposal.sol\":1641:1680  OwnershipTransferRequested(s_owner, to) */\n      0xffffffffffffffffffffffffffffffffffffffff\n      and\n        /* \"@chainlink/contracts/src/v0.8/ConfirmedOwnerWithProposal.sol\":1668:1675  s_owner */\n      0x00\n      dup1\n      sload\n      swap1\n      0x0100\n      exp\n      swap1\n      div\n      0xffffffffffffffffffffffffffffffffffffffff\n      and\n        /* \"@chainlink/contracts/src/v0.8/ConfirmedOwnerWithProposal.sol\":1641:1680  OwnershipTransferRequested(s_owner, to) */\n      0xffffffffffffffffffffffffffffffffffffffff\n      and\n      0xed8889f560326eb138920d842192f0eb3dd22b4f139c87a2c57538e05bae1278\n      mload(0x40)\n      mload(0x40)\n      dup1\n      swap2\n      sub\n      swap1\n      log3\n        /* \"@chainlink/contracts/src/v0.8/ConfirmedOwnerWithProposal.sol\":1497:1685  function _transferOwnership(address to) private {... */\n      pop\n      jump\t// out\n    tag_151:\n      dup3\n      dup1\n      sload\n      dup3\n      dup3\n      sstore\n      swap1\n      0x00\n      mstore\n      keccak256(0x00, 0x20)\n      swap1\n      dup2\n      add\n      swap3\n      dup3\n      iszero\n      tag_190\n      jumpi\n      swap2\n      0x20\n      mul\n      dup3\n      add\n    tag_191:\n      dup3\n      dup2\n      gt\n      iszero\n      tag_192\n      jumpi\n      dup3\n      mload\n      dup3\n      sstore\n      swap2\n      0x20\n      add\n      swap2\n      swap1\n      0x01\n      add\n      swap1\n      jump(tag_191)\n    tag_192:\n    tag_190:\n      pop\n      swap1\n      pop\n      tag_193\n      swap2\n      swap1\n      tag_194\n      jump\t// in\n    tag_193:\n      pop\n      swap1\n      jump\t// out\n    tag_194:\n    tag_195:\n      dup1\n      dup3\n      gt\n      iszero\n      tag_196\n      jumpi\n      0x00\n      dup2\n      0x00\n      swap1\n      sstore\n      pop\n      0x01\n      add\n      jump(tag_195)\n    tag_196:\n      pop\n      swap1\n      jump\t// out\n        /* \"#utility.yul\":24:746   */\n    tag_198:\n        /* \"#utility.yul\":120:125   */\n      0x00\n        /* \"#utility.yul\":145:226   */\n      tag_200\n        /* \"#utility.yul\":161:225   */\n      tag_201\n        /* \"#utility.yul\":218:224   */\n      dup5\n        /* \"#utility.yul\":161:225   */\n      tag_202\n      jump\t// in\n    tag_201:\n        /* \"#utility.yul\":145:226   */\n      tag_203\n      jump\t// in\n    tag_200:\n        /* \"#utility.yul\":136:226   */\n      swap1\n      pop\n        /* \"#utility.yul\":246:251   */\n      dup1\n        /* \"#utility.yul\":275:281   */\n      dup4\n        /* \"#utility.yul\":268:273   */\n      dup3\n        /* \"#utility.yul\":261:282   */\n      mstore\n        /* \"#utility.yul\":309:313   */\n      0x20\n        /* \"#utility.yul\":302:307   */\n      dup3\n        /* \"#utility.yul\":298:314   */\n      add\n        /* \"#utility.yul\":291:314   */\n      swap1\n      pop\n        /* \"#utility.yul\":335:341   */\n      dup3\n        /* \"#utility.yul\":385:388   */\n      dup6\n        /* \"#utility.yul\":377:381   */\n      0x20\n        /* \"#utility.yul\":369:375   */\n      dup7\n        /* \"#utility.yul\":365:382   */\n      mul\n        /* \"#utility.yul\":360:363   */\n      dup3\n        /* \"#utility.yul\":356:383   */\n      add\n        /* \"#utility.yul\":353:389   */\n      gt\n        /* \"#utility.yul\":350:493   */\n      iszero\n      tag_204\n      jumpi\n        /* \"#utility.yul\":404:483   */\n      tag_205\n      tag_206\n      jump\t// in\n    tag_205:\n        /* \"#utility.yul\":350:493   */\n    tag_204:\n        /* \"#utility.yul\":517:518   */\n      0x00\n        /* \"#utility.yul\":502:740   */\n    tag_207:\n        /* \"#utility.yul\":527:533   */\n      dup6\n        /* \"#utility.yul\":524:525   */\n      dup2\n        /* \"#utility.yul\":521:534   */\n      lt\n        /* \"#utility.yul\":502:740   */\n      iszero\n      tag_209\n      jumpi\n        /* \"#utility.yul\":595:598   */\n      dup2\n        /* \"#utility.yul\":624:661   */\n      tag_210\n        /* \"#utility.yul\":657:660   */\n      dup9\n        /* \"#utility.yul\":645:655   */\n      dup3\n        /* \"#utility.yul\":624:661   */\n      tag_211\n      jump\t// in\n    tag_210:\n        /* \"#utility.yul\":619:622   */\n      dup5\n        /* \"#utility.yul\":612:662   */\n      mstore\n        /* \"#utility.yul\":691:695   */\n      0x20\n        /* \"#utility.yul\":686:689   */\n      dup5\n        /* \"#utility.yul\":682:696   */\n      add\n        /* \"#utility.yul\":675:696   */\n      swap4\n      pop\n        /* \"#utility.yul\":725:729   */\n      0x20\n        /* \"#utility.yul\":720:723   */\n      dup4\n        /* \"#utility.yul\":716:730   */\n      add\n        /* \"#utility.yul\":709:730   */\n      swap3\n      pop\n        /* \"#utility.yul\":562:740   */\n      pop\n        /* \"#utility.yul\":549:550   */\n      0x01\n        /* \"#utility.yul\":546:547   */\n      dup2\n        /* \"#utility.yul\":542:551   */\n      add\n        /* \"#utility.yul\":537:551   */\n      swap1\n      pop\n        /* \"#utility.yul\":502:740   */\n      jump(tag_207)\n    tag_209:\n        /* \"#utility.yul\":506:520   */\n      pop\n        /* \"#utility.yul\":126:746   */\n      pop\n      pop\n        /* \"#utility.yul\":24:746   */\n      swap4\n      swap3\n      pop\n      pop\n      pop\n      jump\t// out\n        /* \"#utility.yul\":752:891   */\n    tag_212:\n        /* \"#utility.yul\":798:803   */\n      0x00\n        /* \"#utility.yul\":836:842   */\n      dup2\n        /* \"#utility.yul\":823:843   */\n      calldataload\n        /* \"#utility.yul\":814:843   */\n      swap1\n      pop\n        /* \"#utility.yul\":852:885   */\n      tag_214\n        /* \"#utility.yul\":879:884   */\n      dup2\n        /* \"#utility.yul\":852:885   */\n      tag_215\n      jump\t// in\n    tag_214:\n        /* \"#utility.yul\":752:891   */\n      swap3\n      swap2\n      pop\n      pop\n      jump\t// out\n        /* \"#utility.yul\":914:1284   */\n    tag_216:\n        /* \"#utility.yul\":985:990   */\n      0x00\n        /* \"#utility.yul\":1034:1037   */\n      dup3\n        /* \"#utility.yul\":1027:1031   */\n      0x1f\n        /* \"#utility.yul\":1019:1025   */\n      dup4\n        /* \"#utility.yul\":1015:1032   */\n      add\n        /* \"#utility.yul\":1011:1038   */\n      slt\n        /* \"#utility.yul\":1001:1123   */\n      tag_218\n      jumpi\n        /* \"#utility.yul\":1042:1121   */\n      tag_219\n      tag_220\n      jump\t// in\n    tag_219:\n        /* \"#utility.yul\":1001:1123   */\n    tag_218:\n        /* \"#utility.yul\":1159:1165   */\n      dup2\n        /* \"#utility.yul\":1146:1166   */\n      calldataload\n        /* \"#utility.yul\":1184:1278   */\n      tag_221\n        /* \"#utility.yul\":1274:1277   */\n      dup5\n        /* \"#utility.yul\":1266:1272   */\n      dup3\n        /* \"#utility.yul\":1259:1263   */\n      0x20\n        /* \"#utility.yul\":1251:1257   */\n      dup7\n        /* \"#utility.yul\":1247:1264   */\n      add\n        /* \"#utility.yul\":1184:1278   */\n      tag_198\n      jump\t// in\n    tag_221:\n        /* \"#utility.yul\":1175:1278   */\n      swap2\n      pop\n        /* \"#utility.yul\":991:1284   */\n      pop\n        /* \"#utility.yul\":914:1284   */\n      swap3\n      swap2\n      pop\n      pop\n      jump\t// out\n        /* \"#utility.yul\":1290:1429   */\n    tag_211:\n        /* \"#utility.yul\":1336:1341   */\n      0x00\n        /* \"#utility.yul\":1374:1380   */\n      dup2\n        /* \"#utility.yul\":1361:1381   */\n      calldataload\n        /* \"#utility.yul\":1352:1381   */\n      swap1\n      pop\n        /* \"#utility.yul\":1390:1423   */\n      tag_223\n        /* \"#utility.yul\":1417:1422   */\n      dup2\n        /* \"#utility.yul\":1390:1423   */\n      tag_224\n      jump\t// in\n    tag_223:\n        /* \"#utility.yul\":1290:1429   */\n      swap3\n      swap2\n      pop\n      pop\n      jump\t// out\n        /* \"#utility.yul\":1435:1578   */\n    tag_225:\n        /* \"#utility.yul\":1492:1497   */\n      0x00\n        /* \"#utility.yul\":1523:1529   */\n      dup2\n        /* \"#utility.yul\":1517:1530   */\n      mload\n        /* \"#utility.yul\":1508:1530   */\n      swap1\n      pop\n        /* \"#utility.yul\":1539:1572   */\n      tag_227\n        /* \"#utility.yul\":1566:1571   */\n      dup2\n        /* \"#utility.yul\":1539:1572   */\n      tag_224\n      jump\t// in\n    tag_227:\n        /* \"#utility.yul\":1435:1578   */\n      swap3\n      swap2\n      pop\n      pop\n      jump\t// out\n        /* \"#utility.yul\":1584:1913   */\n    tag_93:\n        /* \"#utility.yul\":1643:1649   */\n      0x00\n        /* \"#utility.yul\":1692:1694   */\n      0x20\n        /* \"#utility.yul\":1680:1689   */\n      dup3\n        /* \"#utility.yul\":1671:1678   */\n      dup5\n        /* \"#utility.yul\":1667:1690   */\n      sub\n        /* \"#utility.yul\":1663:1695   */\n      slt\n        /* \"#utility.yul\":1660:1779   */\n      iszero\n      tag_229\n      jumpi\n        /* \"#utility.yul\":1698:1777   */\n      tag_230\n      tag_231\n      jump\t// in\n    tag_230:\n        /* \"#utility.yul\":1660:1779   */\n    tag_229:\n        /* \"#utility.yul\":1818:1819   */\n      0x00\n        /* \"#utility.yul\":1843:1896   */\n      tag_232\n        /* \"#utility.yul\":1888:1895   */\n      dup5\n        /* \"#utility.yul\":1879:1885   */\n      dup3\n        /* \"#utility.yul\":1868:1877   */\n      dup6\n        /* \"#utility.yul\":1864:1886   */\n      add\n        /* \"#utility.yul\":1843:1896   */\n      tag_212\n      jump\t// in\n    tag_232:\n        /* \"#utility.yul\":1833:1896   */\n      swap2\n      pop\n        /* \"#utility.yul\":1789:1906   */\n      pop\n        /* \"#utility.yul\":1584:1913   */\n      swap3\n      swap2\n      pop\n      pop\n      jump\t// out\n        /* \"#utility.yul\":1919:2248   */\n    tag_25:\n        /* \"#utility.yul\":1978:1984   */\n      0x00\n        /* \"#utility.yul\":2027:2029   */\n      0x20\n        /* \"#utility.yul\":2015:2024   */\n      dup3\n        /* \"#utility.yul\":2006:2013   */\n      dup5\n        /* \"#utility.yul\":2002:2025   */\n      sub\n        /* \"#utility.yul\":1998:2030   */\n      slt\n        /* \"#utility.yul\":1995:2114   */\n      iszero\n      tag_234\n      jumpi\n        /* \"#utility.yul\":2033:2112   */\n      tag_235\n      tag_231\n      jump\t// in\n    tag_235:\n        /* \"#utility.yul\":1995:2114   */\n    tag_234:\n        /* \"#utility.yul\":2153:2154   */\n      0x00\n        /* \"#utility.yul\":2178:2231   */\n      tag_236\n        /* \"#utility.yul\":2223:2230   */\n      dup5\n        /* \"#utility.yul\":2214:2220   */\n      dup3\n        /* \"#utility.yul\":2203:2212   */\n      dup6\n        /* \"#utility.yul\":2199:2221   */\n      add\n        /* \"#utility.yul\":2178:2231   */\n      tag_211\n      jump\t// in\n    tag_236:\n        /* \"#utility.yul\":2168:2231   */\n      swap2\n      pop\n        /* \"#utility.yul\":2124:2241   */\n      pop\n        /* \"#utility.yul\":1919:2248   */\n      swap3\n      swap2\n      pop\n      pop\n      jump\t// out\n        /* \"#utility.yul\":2254:2605   */\n    tag_145:\n        /* \"#utility.yul\":2324:2330   */\n      0x00\n        /* \"#utility.yul\":2373:2375   */\n      0x20\n        /* \"#utility.yul\":2361:2370   */\n      dup3\n        /* \"#utility.yul\":2352:2359   */\n      dup5\n        /* \"#utility.yul\":2348:2371   */\n      sub\n        /* \"#utility.yul\":2344:2376   */\n      slt\n        /* \"#utility.yul\":2341:2460   */\n      iszero\n      tag_238\n      jumpi\n        /* \"#utility.yul\":2379:2458   */\n      tag_239\n      tag_231\n      jump\t// in\n    tag_239:\n        /* \"#utility.yul\":2341:2460   */\n    tag_238:\n        /* \"#utility.yul\":2499:2500   */\n      0x00\n        /* \"#utility.yul\":2524:2588   */\n      tag_240\n        /* \"#utility.yul\":2580:2587   */\n      dup5\n        /* \"#utility.yul\":2571:2577   */\n      dup3\n        /* \"#utility.yul\":2560:2569   */\n      dup6\n        /* \"#utility.yul\":2556:2578   */\n      add\n        /* \"#utility.yul\":2524:2588   */\n      tag_225\n      jump\t// in\n    tag_240:\n        /* \"#utility.yul\":2514:2588   */\n      swap2\n      pop\n        /* \"#utility.yul\":2470:2598   */\n      pop\n        /* \"#utility.yul\":2254:2605   */\n      swap3\n      swap2\n      pop\n      pop\n      jump\t// out\n        /* \"#utility.yul\":2611:3295   */\n    tag_30:\n        /* \"#utility.yul\":2704:2710   */\n      0x00\n        /* \"#utility.yul\":2712:2718   */\n      dup1\n        /* \"#utility.yul\":2761:2763   */\n      0x40\n        /* \"#utility.yul\":2749:2758   */\n      dup4\n        /* \"#utility.yul\":2740:2747   */\n      dup6\n        /* \"#utility.yul\":2736:2759   */\n      sub\n        /* \"#utility.yul\":2732:2764   */\n      slt\n        /* \"#utility.yul\":2729:2848   */\n      iszero\n      tag_242\n      jumpi\n        /* \"#utility.yul\":2767:2846   */\n      tag_243\n      tag_231\n      jump\t// in\n    tag_243:\n        /* \"#utility.yul\":2729:2848   */\n    tag_242:\n        /* \"#utility.yul\":2887:2888   */\n      0x00\n        /* \"#utility.yul\":2912:2965   */\n      tag_244\n        /* \"#utility.yul\":2957:2964   */\n      dup6\n        /* \"#utility.yul\":2948:2954   */\n      dup3\n        /* \"#utility.yul\":2937:2946   */\n      dup7\n        /* \"#utility.yul\":2933:2955   */\n      add\n        /* \"#utility.yul\":2912:2965   */\n      tag_211\n      jump\t// in\n    tag_244:\n        /* \"#utility.yul\":2902:2965   */\n      swap3\n      pop\n        /* \"#utility.yul\":2858:2975   */\n      pop\n        /* \"#utility.yul\":3042:3044   */\n      0x20\n        /* \"#utility.yul\":3031:3040   */\n      dup4\n        /* \"#utility.yul\":3027:3045   */\n      add\n        /* \"#utility.yul\":3014:3046   */\n      calldataload\n        /* \"#utility.yul\":3073:3091   */\n      0xffffffffffffffff\n        /* \"#utility.yul\":3065:3071   */\n      dup2\n        /* \"#utility.yul\":3062:3092   */\n      gt\n        /* \"#utility.yul\":3059:3176   */\n      iszero\n      tag_245\n      jumpi\n        /* \"#utility.yul\":3095:3174   */\n      tag_246\n      tag_247\n      jump\t// in\n    tag_246:\n        /* \"#utility.yul\":3059:3176   */\n    tag_245:\n        /* \"#utility.yul\":3200:3278   */\n      tag_248\n        /* \"#utility.yul\":3270:3277   */\n      dup6\n        /* \"#utility.yul\":3261:3267   */\n      dup3\n        /* \"#utility.yul\":3250:3259   */\n      dup7\n        /* \"#utility.yul\":3246:3268   */\n      add\n        /* \"#utility.yul\":3200:3278   */\n      tag_216\n      jump\t// in\n    tag_248:\n        /* \"#utility.yul\":3190:3278   */\n      swap2\n      pop\n        /* \"#utility.yul\":2985:3288   */\n      pop\n        /* \"#utility.yul\":2611:3295   */\n      swap3\n      pop\n      swap3\n      swap1\n      pop\n      jump\t// out\n        /* \"#utility.yul\":3301:3480   */\n    tag_249:\n        /* \"#utility.yul\":3370:3380   */\n      0x00\n        /* \"#utility.yul\":3391:3437   */\n      tag_251\n        /* \"#utility.yul\":3433:3436   */\n      dup4\n        /* \"#utility.yul\":3425:3431   */\n      dup4\n        /* \"#utility.yul\":3391:3437   */\n      tag_252\n      jump\t// in\n    tag_251:\n        /* \"#utility.yul\":3469:3473   */\n      0x20\n        /* \"#utility.yul\":3464:3467   */\n      dup4\n        /* \"#utility.yul\":3460:3474   */\n      add\n        /* \"#utility.yul\":3446:3474   */\n      swap1\n      pop\n        /* \"#utility.yul\":3301:3480   */\n      swap3\n      swap2\n      pop\n      pop\n      jump\t// out\n        /* \"#utility.yul\":3486:3628   */\n    tag_253:\n        /* \"#utility.yul\":3589:3621   */\n      tag_255\n        /* \"#utility.yul\":3615:3620   */\n      dup2\n        /* \"#utility.yul\":3589:3621   */\n      tag_256\n      jump\t// in\n    tag_255:\n        /* \"#utility.yul\":3584:3587   */\n      dup3\n        /* \"#utility.yul\":3577:3622   */\n      mstore\n        /* \"#utility.yul\":3486:3628   */\n      pop\n      pop\n      jump\t// out\n        /* \"#utility.yul\":3634:3752   */\n    tag_257:\n        /* \"#utility.yul\":3721:3745   */\n      tag_259\n        /* \"#utility.yul\":3739:3744   */\n      dup2\n        /* \"#utility.yul\":3721:3745   */\n      tag_260\n      jump\t// in\n    tag_259:\n        /* \"#utility.yul\":3716:3719   */\n      dup3\n        /* \"#utility.yul\":3709:3746   */\n      mstore\n        /* \"#utility.yul\":3634:3752   */\n      pop\n      pop\n      jump\t// out\n        /* \"#utility.yul\":3788:4520   */\n    tag_261:\n        /* \"#utility.yul\":3907:3910   */\n      0x00\n        /* \"#utility.yul\":3936:3990   */\n      tag_263\n        /* \"#utility.yul\":3984:3989   */\n      dup3\n        /* \"#utility.yul\":3936:3990   */\n      tag_264\n      jump\t// in\n    tag_263:\n        /* \"#utility.yul\":4006:4092   */\n      tag_265\n        /* \"#utility.yul\":4085:4091   */\n      dup2\n        /* \"#utility.yul\":4080:4083   */\n      dup6\n        /* \"#utility.yul\":4006:4092   */\n      tag_266\n      jump\t// in\n    tag_265:\n        /* \"#utility.yul\":3999:4092   */\n      swap4\n      pop\n        /* \"#utility.yul\":4116:4172   */\n      tag_267\n        /* \"#utility.yul\":4166:4171   */\n      dup4\n        /* \"#utility.yul\":4116:4172   */\n      tag_268\n      jump\t// in\n    tag_267:\n        /* \"#utility.yul\":4195:4202   */\n      dup1\n        /* \"#utility.yul\":4226:4227   */\n      0x00\n        /* \"#utility.yul\":4211:4495   */\n    tag_269:\n        /* \"#utility.yul\":4236:4242   */\n      dup4\n        /* \"#utility.yul\":4233:4234   */\n      dup2\n        /* \"#utility.yul\":4230:4243   */\n      lt\n        /* \"#utility.yul\":4211:4495   */\n      iszero\n      tag_271\n      jumpi\n        /* \"#utility.yul\":4312:4318   */\n      dup2\n        /* \"#utility.yul\":4306:4319   */\n      mload\n        /* \"#utility.yul\":4339:4402   */\n      tag_272\n        /* \"#utility.yul\":4398:4401   */\n      dup9\n        /* \"#utility.yul\":4383:4396   */\n      dup3\n        /* \"#utility.yul\":4339:4402   */\n      tag_249\n      jump\t// in\n    tag_272:\n        /* \"#utility.yul\":4332:4402   */\n      swap8\n      pop\n        /* \"#utility.yul\":4425:4485   */\n      tag_273\n        /* \"#utility.yul\":4478:4484   */\n      dup4\n        /* \"#utility.yul\":4425:4485   */\n      tag_274\n      jump\t// in\n    tag_273:\n        /* \"#utility.yul\":4415:4485   */\n      swap3\n      pop\n        /* \"#utility.yul\":4271:4495   */\n      pop\n        /* \"#utility.yul\":4258:4259   */\n      0x01\n        /* \"#utility.yul\":4255:4256   */\n      dup2\n        /* \"#utility.yul\":4251:4260   */\n      add\n        /* \"#utility.yul\":4246:4260   */\n      swap1\n      pop\n        /* \"#utility.yul\":4211:4495   */\n      jump(tag_269)\n    tag_271:\n        /* \"#utility.yul\":4215:4229   */\n      pop\n        /* \"#utility.yul\":4511:4514   */\n      dup6\n        /* \"#utility.yul\":4504:4514   */\n      swap4\n      pop\n        /* \"#utility.yul\":3912:4520   */\n      pop\n      pop\n      pop\n        /* \"#utility.yul\":3788:4520   */\n      swap3\n      swap2\n      pop\n      pop\n      jump\t// out\n        /* \"#utility.yul\":4526:4635   */\n    tag_275:\n        /* \"#utility.yul\":4607:4628   */\n      tag_277\n        /* \"#utility.yul\":4622:4627   */\n      dup2\n        /* \"#utility.yul\":4607:4628   */\n      tag_278\n      jump\t// in\n    tag_277:\n        /* \"#utility.yul\":4602:4605   */\n      dup3\n        /* \"#utility.yul\":4595:4629   */\n      mstore\n        /* \"#utility.yul\":4526:4635   */\n      pop\n      pop\n      jump\t// out\n        /* \"#utility.yul\":4641:4759   */\n    tag_279:\n        /* \"#utility.yul\":4728:4752   */\n      tag_281\n        /* \"#utility.yul\":4746:4751   */\n      dup2\n        /* \"#utility.yul\":4728:4752   */\n      tag_282\n      jump\t// in\n    tag_281:\n        /* \"#utility.yul\":4723:4726   */\n      dup3\n        /* \"#utility.yul\":4716:4753   */\n      mstore\n        /* \"#utility.yul\":4641:4759   */\n      pop\n      pop\n      jump\t// out\n        /* \"#utility.yul\":4765:5131   */\n    tag_283:\n        /* \"#utility.yul\":4907:4910   */\n      0x00\n        /* \"#utility.yul\":4928:4995   */\n      tag_285\n        /* \"#utility.yul\":4992:4994   */\n      0x11\n        /* \"#utility.yul\":4987:4990   */\n      dup4\n        /* \"#utility.yul\":4928:4995   */\n      tag_286\n      jump\t// in\n    tag_285:\n        /* \"#utility.yul\":4921:4995   */\n      swap2\n      pop\n        /* \"#utility.yul\":5004:5097   */\n      tag_287\n        /* \"#utility.yul\":5093:5096   */\n      dup3\n        /* \"#utility.yul\":5004:5097   */\n      tag_288\n      jump\t// in\n    tag_287:\n        /* \"#utility.yul\":5122:5124   */\n      0x20\n        /* \"#utility.yul\":5117:5120   */\n      dup3\n        /* \"#utility.yul\":5113:5125   */\n      add\n        /* \"#utility.yul\":5106:5125   */\n      swap1\n      pop\n        /* \"#utility.yul\":4765:5131   */\n      swap2\n      swap1\n      pop\n      jump\t// out\n        /* \"#utility.yul\":5137:5503   */\n    tag_289:\n        /* \"#utility.yul\":5279:5282   */\n      0x00\n        /* \"#utility.yul\":5300:5367   */\n      tag_291\n        /* \"#utility.yul\":5364:5366   */\n      0x16\n        /* \"#utility.yul\":5359:5362   */\n      dup4\n        /* \"#utility.yul\":5300:5367   */\n      tag_286\n      jump\t// in\n    tag_291:\n        /* \"#utility.yul\":5293:5367   */\n      swap2\n      pop\n        /* \"#utility.yul\":5376:5469   */\n      tag_292\n        /* \"#utility.yul\":5465:5468   */\n      dup3\n        /* \"#utility.yul\":5376:5469   */\n      tag_293\n      jump\t// in\n    tag_292:\n        /* \"#utility.yul\":5494:5496   */\n      0x20\n        /* \"#utility.yul\":5489:5492   */\n      dup3\n        /* \"#utility.yul\":5485:5497   */\n      add\n        /* \"#utility.yul\":5478:5497   */\n      swap1\n      pop\n        /* \"#utility.yul\":5137:5503   */\n      swap2\n      swap1\n      pop\n      jump\t// out\n        /* \"#utility.yul\":5509:5875   */\n    tag_294:\n        /* \"#utility.yul\":5651:5654   */\n      0x00\n        /* \"#utility.yul\":5672:5739   */\n      tag_296\n        /* \"#utility.yul\":5736:5738   */\n      0x16\n        /* \"#utility.yul\":5731:5734   */\n      dup4\n        /* \"#utility.yul\":5672:5739   */\n      tag_286\n      jump\t// in\n    tag_296:\n        /* \"#utility.yul\":5665:5739   */\n      swap2\n      pop\n        /* \"#utility.yul\":5748:5841   */\n      tag_297\n        /* \"#utility.yul\":5837:5840   */\n      dup3\n        /* \"#utility.yul\":5748:5841   */\n      tag_298\n      jump\t// in\n    tag_297:\n        /* \"#utility.yul\":5866:5868   */\n      0x20\n        /* \"#utility.yul\":5861:5864   */\n      dup3\n        /* \"#utility.yul\":5857:5869   */\n      add\n        /* \"#utility.yul\":5850:5869   */\n      swap1\n      pop\n        /* \"#utility.yul\":5509:5875   */\n      swap2\n      swap1\n      pop\n      jump\t// out\n        /* \"#utility.yul\":5881:6247   */\n    tag_299:\n        /* \"#utility.yul\":6023:6026   */\n      0x00\n        /* \"#utility.yul\":6044:6111   */\n      tag_301\n        /* \"#utility.yul\":6108:6110   */\n      0x1d\n        /* \"#utility.yul\":6103:6106   */\n      dup4\n        /* \"#utility.yul\":6044:6111   */\n      tag_286\n      jump\t// in\n    tag_301:\n        /* \"#utility.yul\":6037:6111   */\n      swap2\n      pop\n        /* \"#utility.yul\":6120:6213   */\n      tag_302\n        /* \"#utility.yul\":6209:6212   */\n      dup3\n        /* \"#utility.yul\":6120:6213   */\n      tag_303\n      jump\t// in\n    tag_302:\n        /* \"#utility.yul\":6238:6240   */\n      0x20\n        /* \"#utility.yul\":6233:6236   */\n      dup3\n        /* \"#utility.yul\":6229:6241   */\n      add\n        /* \"#utility.yul\":6222:6241   */\n      swap1\n      pop\n        /* \"#utility.yul\":5881:6247   */\n      swap2\n      swap1\n      pop\n      jump\t// out\n        /* \"#utility.yul\":6253:6619   */\n    tag_304:\n        /* \"#utility.yul\":6395:6398   */\n      0x00\n        /* \"#utility.yul\":6416:6483   */\n      tag_306\n        /* \"#utility.yul\":6480:6482   */\n      0x1c\n        /* \"#utility.yul\":6475:6478   */\n      dup4\n        /* \"#utility.yul\":6416:6483   */\n      tag_286\n      jump\t// in\n    tag_306:\n        /* \"#utility.yul\":6409:6483   */\n      swap2\n      pop\n        /* \"#utility.yul\":6492:6585   */\n      tag_307\n        /* \"#utility.yul\":6581:6584   */\n      dup3\n        /* \"#utility.yul\":6492:6585   */\n      tag_308\n      jump\t// in\n    tag_307:\n        /* \"#utility.yul\":6610:6612   */\n      0x20\n        /* \"#utility.yul\":6605:6608   */\n      dup3\n        /* \"#utility.yul\":6601:6613   */\n      add\n        /* \"#utility.yul\":6594:6613   */\n      swap1\n      pop\n        /* \"#utility.yul\":6253:6619   */\n      swap2\n      swap1\n      pop\n      jump\t// out\n        /* \"#utility.yul\":6625:6991   */\n    tag_309:\n        /* \"#utility.yul\":6767:6770   */\n      0x00\n        /* \"#utility.yul\":6788:6855   */\n      tag_311\n        /* \"#utility.yul\":6852:6854   */\n      0x25\n        /* \"#utility.yul\":6847:6850   */\n      dup4\n        /* \"#utility.yul\":6788:6855   */\n      tag_286\n      jump\t// in\n    tag_311:\n        /* \"#utility.yul\":6781:6855   */\n      swap2\n      pop\n        /* \"#utility.yul\":6864:6957   */\n      tag_312\n        /* \"#utility.yul\":6953:6956   */\n      dup3\n        /* \"#utility.yul\":6864:6957   */\n      tag_313\n      jump\t// in\n    tag_312:\n        /* \"#utility.yul\":6982:6984   */\n      0x40\n        /* \"#utility.yul\":6977:6980   */\n      dup3\n        /* \"#utility.yul\":6973:6985   */\n      add\n        /* \"#utility.yul\":6966:6985   */\n      swap1\n      pop\n        /* \"#utility.yul\":6625:6991   */\n      swap2\n      swap1\n      pop\n      jump\t// out\n        /* \"#utility.yul\":6997:7395   */\n    tag_314:\n        /* \"#utility.yul\":7156:7159   */\n      0x00\n        /* \"#utility.yul\":7177:7260   */\n      tag_316\n        /* \"#utility.yul\":7258:7259   */\n      0x00\n        /* \"#utility.yul\":7253:7256   */\n      dup4\n        /* \"#utility.yul\":7177:7260   */\n      tag_317\n      jump\t// in\n    tag_316:\n        /* \"#utility.yul\":7170:7260   */\n      swap2\n      pop\n        /* \"#utility.yul\":7269:7362   */\n      tag_318\n        /* \"#utility.yul\":7358:7361   */\n      dup3\n        /* \"#utility.yul\":7269:7362   */\n      tag_319\n      jump\t// in\n    tag_318:\n        /* \"#utility.yul\":7387:7388   */\n      0x00\n        /* \"#utility.yul\":7382:7385   */\n      dup3\n        /* \"#utility.yul\":7378:7389   */\n      add\n        /* \"#utility.yul\":7371:7389   */\n      swap1\n      pop\n        /* \"#utility.yul\":6997:7395   */\n      swap2\n      swap1\n      pop\n      jump\t// out\n        /* \"#utility.yul\":7401:7767   */\n    tag_320:\n        /* \"#utility.yul\":7543:7546   */\n      0x00\n        /* \"#utility.yul\":7564:7631   */\n      tag_322\n        /* \"#utility.yul\":7628:7630   */\n      0x17\n        /* \"#utility.yul\":7623:7626   */\n      dup4\n        /* \"#utility.yul\":7564:7631   */\n      tag_286\n      jump\t// in\n    tag_322:\n        /* \"#utility.yul\":7557:7631   */\n      swap2\n      pop\n        /* \"#utility.yul\":7640:7733   */\n      tag_323\n        /* \"#utility.yul\":7729:7732   */\n      dup3\n        /* \"#utility.yul\":7640:7733   */\n      tag_324\n      jump\t// in\n    tag_323:\n        /* \"#utility.yul\":7758:7760   */\n      0x20\n        /* \"#utility.yul\":7753:7756   */\n      dup3\n        /* \"#utility.yul\":7749:7761   */\n      add\n        /* \"#utility.yul\":7742:7761   */\n      swap1\n      pop\n        /* \"#utility.yul\":7401:7767   */\n      swap2\n      swap1\n      pop\n      jump\t// out\n        /* \"#utility.yul\":7773:7888   */\n    tag_325:\n        /* \"#utility.yul\":7858:7881   */\n      tag_327\n        /* \"#utility.yul\":7875:7880   */\n      dup2\n        /* \"#utility.yul\":7858:7881   */\n      tag_328\n      jump\t// in\n    tag_327:\n        /* \"#utility.yul\":7853:7856   */\n      dup3\n        /* \"#utility.yul\":7846:7882   */\n      mstore\n        /* \"#utility.yul\":7773:7888   */\n      pop\n      pop\n      jump\t// out\n        /* \"#utility.yul\":7894:8002   */\n    tag_252:\n        /* \"#utility.yul\":7971:7995   */\n      tag_330\n        /* \"#utility.yul\":7989:7994   */\n      dup2\n        /* \"#utility.yul\":7971:7995   */\n      tag_331\n      jump\t// in\n    tag_330:\n        /* \"#utility.yul\":7966:7969   */\n      dup3\n        /* \"#utility.yul\":7959:7996   */\n      mstore\n        /* \"#utility.yul\":7894:8002   */\n      pop\n      pop\n      jump\t// out\n        /* \"#utility.yul\":8008:8126   */\n    tag_332:\n        /* \"#utility.yul\":8095:8119   */\n      tag_334\n        /* \"#utility.yul\":8113:8118   */\n      dup2\n        /* \"#utility.yul\":8095:8119   */\n      tag_331\n      jump\t// in\n    tag_334:\n        /* \"#utility.yul\":8090:8093   */\n      dup3\n        /* \"#utility.yul\":8083:8120   */\n      mstore\n        /* \"#utility.yul\":8008:8126   */\n      pop\n      pop\n      jump\t// out\n        /* \"#utility.yul\":8132:8247   */\n    tag_335:\n        /* \"#utility.yul\":8217:8240   */\n      tag_337\n        /* \"#utility.yul\":8234:8239   */\n      dup2\n        /* \"#utility.yul\":8217:8240   */\n      tag_338\n      jump\t// in\n    tag_337:\n        /* \"#utility.yul\":8212:8215   */\n      dup3\n        /* \"#utility.yul\":8205:8241   */\n      mstore\n        /* \"#utility.yul\":8132:8247   */\n      pop\n      pop\n      jump\t// out\n        /* \"#utility.yul\":8253:8368   */\n    tag_339:\n        /* \"#utility.yul\":8338:8361   */\n      tag_341\n        /* \"#utility.yul\":8355:8360   */\n      dup2\n        /* \"#utility.yul\":8338:8361   */\n      tag_342\n      jump\t// in\n    tag_341:\n        /* \"#utility.yul\":8333:8336   */\n      dup3\n        /* \"#utility.yul\":8326:8362   */\n      mstore\n        /* \"#utility.yul\":8253:8368   */\n      pop\n      pop\n      jump\t// out\n        /* \"#utility.yul\":8374:8753   */\n    tag_175:\n        /* \"#utility.yul\":8558:8561   */\n      0x00\n        /* \"#utility.yul\":8580:8727   */\n      tag_344\n        /* \"#utility.yul\":8723:8726   */\n      dup3\n        /* \"#utility.yul\":8580:8727   */\n      tag_314\n      jump\t// in\n    tag_344:\n        /* \"#utility.yul\":8573:8727   */\n      swap2\n      pop\n        /* \"#utility.yul\":8744:8747   */\n      dup2\n        /* \"#utility.yul\":8737:8747   */\n      swap1\n      pop\n        /* \"#utility.yul\":8374:8753   */\n      swap2\n      swap1\n      pop\n      jump\t// out\n        /* \"#utility.yul\":8759:8981   */\n    tag_58:\n        /* \"#utility.yul\":8852:8856   */\n      0x00\n        /* \"#utility.yul\":8890:8892   */\n      0x20\n        /* \"#utility.yul\":8879:8888   */\n      dup3\n        /* \"#utility.yul\":8875:8893   */\n      add\n        /* \"#utility.yul\":8867:8893   */\n      swap1\n      pop\n        /* \"#utility.yul\":8903:8974   */\n      tag_346\n        /* \"#utility.yul\":8971:8972   */\n      0x00\n        /* \"#utility.yul\":8960:8969   */\n      dup4\n        /* \"#utility.yul\":8956:8973   */\n      add\n        /* \"#utility.yul\":8947:8953   */\n      dup5\n        /* \"#utility.yul\":8903:8974   */\n      tag_257\n      jump\t// in\n    tag_346:\n        /* \"#utility.yul\":8759:8981   */\n      swap3\n      swap2\n      pop\n      pop\n      jump\t// out\n        /* \"#utility.yul\":8987:9241   */\n    tag_63:\n        /* \"#utility.yul\":9096:9100   */\n      0x00\n        /* \"#utility.yul\":9134:9136   */\n      0x20\n        /* \"#utility.yul\":9123:9132   */\n      dup3\n        /* \"#utility.yul\":9119:9137   */\n      add\n        /* \"#utility.yul\":9111:9137   */\n      swap1\n      pop\n        /* \"#utility.yul\":9147:9234   */\n      tag_348\n        /* \"#utility.yul\":9231:9232   */\n      0x00\n        /* \"#utility.yul\":9220:9229   */\n      dup4\n        /* \"#utility.yul\":9216:9233   */\n      add\n        /* \"#utility.yul\":9207:9213   */\n      dup5\n        /* \"#utility.yul\":9147:9234   */\n      tag_253\n      jump\t// in\n    tag_348:\n        /* \"#utility.yul\":8987:9241   */\n      swap3\n      swap2\n      pop\n      pop\n      jump\t// out\n        /* \"#utility.yul\":9247:9721   */\n    tag_42:\n        /* \"#utility.yul\":9412:9416   */\n      0x00\n        /* \"#utility.yul\":9450:9452   */\n      0x60\n        /* \"#utility.yul\":9439:9448   */\n      dup3\n        /* \"#utility.yul\":9435:9453   */\n      add\n        /* \"#utility.yul\":9427:9453   */\n      swap1\n      pop\n        /* \"#utility.yul\":9463:9550   */\n      tag_350\n        /* \"#utility.yul\":9547:9548   */\n      0x00\n        /* \"#utility.yul\":9536:9545   */\n      dup4\n        /* \"#utility.yul\":9532:9549   */\n      add\n        /* \"#utility.yul\":9523:9529   */\n      dup7\n        /* \"#utility.yul\":9463:9550   */\n      tag_253\n      jump\t// in\n    tag_350:\n        /* \"#utility.yul\":9560:9632   */\n      tag_351\n        /* \"#utility.yul\":9628:9630   */\n      0x20\n        /* \"#utility.yul\":9617:9626   */\n      dup4\n        /* \"#utility.yul\":9613:9631   */\n      add\n        /* \"#utility.yul\":9604:9610   */\n      dup6\n        /* \"#utility.yul\":9560:9632   */\n      tag_332\n      jump\t// in\n    tag_351:\n        /* \"#utility.yul\":9642:9714   */\n      tag_352\n        /* \"#utility.yul\":9710:9712   */\n      0x40\n        /* \"#utility.yul\":9699:9708   */\n      dup4\n        /* \"#utility.yul\":9695:9713   */\n      add\n        /* \"#utility.yul\":9686:9692   */\n      dup5\n        /* \"#utility.yul\":9642:9714   */\n      tag_332\n      jump\t// in\n    tag_352:\n        /* \"#utility.yul\":9247:9721   */\n      swap5\n      swap4\n      pop\n      pop\n      pop\n      pop\n      jump\t// out\n        /* \"#utility.yul\":9727:10059   */\n    tag_107:\n        /* \"#utility.yul\":9848:9852   */\n      0x00\n        /* \"#utility.yul\":9886:9888   */\n      0x40\n        /* \"#utility.yul\":9875:9884   */\n      dup3\n        /* \"#utility.yul\":9871:9889   */\n      add\n        /* \"#utility.yul\":9863:9889   */\n      swap1\n      pop\n        /* \"#utility.yul\":9899:9970   */\n      tag_354\n        /* \"#utility.yul\":9967:9968   */\n      0x00\n        /* \"#utility.yul\":9956:9965   */\n      dup4\n        /* \"#utility.yul\":9952:9969   */\n      add\n        /* \"#utility.yul\":9943:9949   */\n      dup6\n        /* \"#utility.yul\":9899:9970   */\n      tag_257\n      jump\t// in\n    tag_354:\n        /* \"#utility.yul\":9980:10052   */\n      tag_355\n        /* \"#utility.yul\":10048:10050   */\n      0x20\n        /* \"#utility.yul\":10037:10046   */\n      dup4\n        /* \"#utility.yul\":10033:10051   */\n      add\n        /* \"#utility.yul\":10024:10030   */\n      dup5\n        /* \"#utility.yul\":9980:10052   */\n      tag_257\n      jump\t// in\n    tag_355:\n        /* \"#utility.yul\":9727:10059   */\n      swap4\n      swap3\n      pop\n      pop\n      pop\n      jump\t// out\n        /* \"#utility.yul\":10065:10536   */\n    tag_85:\n        /* \"#utility.yul\":10230:10234   */\n      0x00\n        /* \"#utility.yul\":10268:10270   */\n      0x40\n        /* \"#utility.yul\":10257:10266   */\n      dup3\n        /* \"#utility.yul\":10253:10271   */\n      add\n        /* \"#utility.yul\":10245:10271   */\n      swap1\n      pop\n        /* \"#utility.yul\":10281:10346   */\n      tag_357\n        /* \"#utility.yul\":10343:10344   */\n      0x00\n        /* \"#utility.yul\":10332:10341   */\n      dup4\n        /* \"#utility.yul\":10328:10345   */\n      add\n        /* \"#utility.yul\":10319:10325   */\n      dup6\n        /* \"#utility.yul\":10281:10346   */\n      tag_275\n      jump\t// in\n    tag_357:\n        /* \"#utility.yul\":10393:10402   */\n      dup2\n        /* \"#utility.yul\":10387:10391   */\n      dup2\n        /* \"#utility.yul\":10383:10403   */\n      sub\n        /* \"#utility.yul\":10378:10380   */\n      0x20\n        /* \"#utility.yul\":10367:10376   */\n      dup4\n        /* \"#utility.yul\":10363:10381   */\n      add\n        /* \"#utility.yul\":10356:10404   */\n      mstore\n        /* \"#utility.yul\":10421:10529   */\n      tag_358\n        /* \"#utility.yul\":10524:10528   */\n      dup2\n        /* \"#utility.yul\":10515:10521   */\n      dup5\n        /* \"#utility.yul\":10421:10529   */\n      tag_261\n      jump\t// in\n    tag_358:\n        /* \"#utility.yul\":10413:10529   */\n      swap1\n      pop\n        /* \"#utility.yul\":10065:10536   */\n      swap4\n      swap3\n      pop\n      pop\n      pop\n      jump\t// out\n        /* \"#utility.yul\":10542:10850   */\n    tag_69:\n        /* \"#utility.yul\":10651:10655   */\n      0x00\n        /* \"#utility.yul\":10689:10691   */\n      0x40\n        /* \"#utility.yul\":10678:10687   */\n      dup3\n        /* \"#utility.yul\":10674:10692   */\n      add\n        /* \"#utility.yul\":10666:10692   */\n      swap1\n      pop\n        /* \"#utility.yul\":10702:10767   */\n      tag_360\n        /* \"#utility.yul\":10764:10765   */\n      0x00\n        /* \"#utility.yul\":10753:10762   */\n      dup4\n        /* \"#utility.yul\":10749:10766   */\n      add\n        /* \"#utility.yul\":10740:10746   */\n      dup6\n        /* \"#utility.yul\":10702:10767   */\n      tag_275\n      jump\t// in\n    tag_360:\n        /* \"#utility.yul\":10777:10843   */\n      tag_361\n        /* \"#utility.yul\":10839:10841   */\n      0x20\n        /* \"#utility.yul\":10828:10837   */\n      dup4\n        /* \"#utility.yul\":10824:10842   */\n      add\n        /* \"#utility.yul\":10815:10821   */\n      dup5\n        /* \"#utility.yul\":10777:10843   */\n      tag_275\n      jump\t// in\n    tag_361:\n        /* \"#utility.yul\":10542:10850   */\n      swap4\n      swap3\n      pop\n      pop\n      pop\n      jump\t// out\n        /* \"#utility.yul\":10856:11504   */\n    tag_140:\n        /* \"#utility.yul\":11053:11057   */\n      0x00\n        /* \"#utility.yul\":11091:11094   */\n      0xa0\n        /* \"#utility.yul\":11080:11089   */\n      dup3\n        /* \"#utility.yul\":11076:11095   */\n      add\n        /* \"#utility.yul\":11068:11095   */\n      swap1\n      pop\n        /* \"#utility.yul\":11105:11176   */\n      tag_363\n        /* \"#utility.yul\":11173:11174   */\n      0x00\n        /* \"#utility.yul\":11162:11171   */\n      dup4\n        /* \"#utility.yul\":11158:11175   */\n      add\n        /* \"#utility.yul\":11149:11155   */\n      dup9\n        /* \"#utility.yul\":11105:11176   */\n      tag_279\n      jump\t// in\n    tag_363:\n        /* \"#utility.yul\":11186:11256   */\n      tag_364\n        /* \"#utility.yul\":11252:11254   */\n      0x20\n        /* \"#utility.yul\":11241:11250   */\n      dup4\n        /* \"#utility.yul\":11237:11255   */\n      add\n        /* \"#utility.yul\":11228:11234   */\n      dup8\n        /* \"#utility.yul\":11186:11256   */\n      tag_339\n      jump\t// in\n    tag_364:\n        /* \"#utility.yul\":11266:11336   */\n      tag_365\n        /* \"#utility.yul\":11332:11334   */\n      0x40\n        /* \"#utility.yul\":11321:11330   */\n      dup4\n        /* \"#utility.yul\":11317:11335   */\n      add\n        /* \"#utility.yul\":11308:11314   */\n      dup7\n        /* \"#utility.yul\":11266:11336   */\n      tag_325\n      jump\t// in\n    tag_365:\n        /* \"#utility.yul\":11346:11416   */\n      tag_366\n        /* \"#utility.yul\":11412:11414   */\n      0x60\n        /* \"#utility.yul\":11401:11410   */\n      dup4\n        /* \"#utility.yul\":11397:11415   */\n      add\n        /* \"#utility.yul\":11388:11394   */\n      dup6\n        /* \"#utility.yul\":11346:11416   */\n      tag_335\n      jump\t// in\n    tag_366:\n        /* \"#utility.yul\":11426:11497   */\n      tag_367\n        /* \"#utility.yul\":11492:11495   */\n      0x80\n        /* \"#utility.yul\":11481:11490   */\n      dup4\n        /* \"#utility.yul\":11477:11496   */\n      add\n        /* \"#utility.yul\":11468:11474   */\n      dup5\n        /* \"#utility.yul\":11426:11497   */\n      tag_335\n      jump\t// in\n    tag_367:\n        /* \"#utility.yul\":10856:11504   */\n      swap7\n      swap6\n      pop\n      pop\n      pop\n      pop\n      pop\n      pop\n      jump\t// out\n        /* \"#utility.yul\":11510:11929   */\n    tag_132:\n        /* \"#utility.yul\":11676:11680   */\n      0x00\n        /* \"#utility.yul\":11714:11716   */\n      0x20\n        /* \"#utility.yul\":11703:11712   */\n      dup3\n        /* \"#utility.yul\":11699:11717   */\n      add\n        /* \"#utility.yul\":11691:11717   */\n      swap1\n      pop\n        /* \"#utility.yul\":11763:11772   */\n      dup2\n        /* \"#utility.yul\":11757:11761   */\n      dup2\n        /* \"#utility.yul\":11753:11773   */\n      sub\n        /* \"#utility.yul\":11749:11750   */\n      0x00\n        /* \"#utility.yul\":11738:11747   */\n      dup4\n        /* \"#utility.yul\":11734:11751   */\n      add\n        /* \"#utility.yul\":11727:11774   */\n      mstore\n        /* \"#utility.yul\":11791:11922   */\n      tag_369\n        /* \"#utility.yul\":11917:11921   */\n      dup2\n        /* \"#utility.yul\":11791:11922   */\n      tag_283\n      jump\t// in\n    tag_369:\n        /* \"#utility.yul\":11783:11922   */\n      swap1\n      pop\n        /* \"#utility.yul\":11510:11929   */\n      swap2\n      swap1\n      pop\n      jump\t// out\n        /* \"#utility.yul\":11935:12354   */\n    tag_123:\n        /* \"#utility.yul\":12101:12105   */\n      0x00\n        /* \"#utility.yul\":12139:12141   */\n      0x20\n        /* \"#utility.yul\":12128:12137   */\n      dup3\n        /* \"#utility.yul\":12124:12142   */\n      add\n        /* \"#utility.yul\":12116:12142   */\n      swap1\n      pop\n        /* \"#utility.yul\":12188:12197   */\n      dup2\n        /* \"#utility.yul\":12182:12186   */\n      dup2\n        /* \"#utility.yul\":12178:12198   */\n      sub\n        /* \"#utility.yul\":12174:12175   */\n      0x00\n        /* \"#utility.yul\":12163:12172   */\n      dup4\n        /* \"#utility.yul\":12159:12176   */\n      add\n        /* \"#utility.yul\":12152:12199   */\n      mstore\n        /* \"#utility.yul\":12216:12347   */\n      tag_371\n        /* \"#utility.yul\":12342:12346   */\n      dup2\n        /* \"#utility.yul\":12216:12347   */\n      tag_289\n      jump\t// in\n    tag_371:\n        /* \"#utility.yul\":12208:12347   */\n      swap1\n      pop\n        /* \"#utility.yul\":11935:12354   */\n      swap2\n      swap1\n      pop\n      jump\t// out\n        /* \"#utility.yul\":12360:12779   */\n    tag_185:\n        /* \"#utility.yul\":12526:12530   */\n      0x00\n        /* \"#utility.yul\":12564:12566   */\n      0x20\n        /* \"#utility.yul\":12553:12562   */\n      dup3\n        /* \"#utility.yul\":12549:12567   */\n      add\n        /* \"#utility.yul\":12541:12567   */\n      swap1\n      pop\n        /* \"#utility.yul\":12613:12622   */\n      dup2\n        /* \"#utility.yul\":12607:12611   */\n      dup2\n        /* \"#utility.yul\":12603:12623   */\n      sub\n        /* \"#utility.yul\":12599:12600   */\n      0x00\n        /* \"#utility.yul\":12588:12597   */\n      dup4\n        /* \"#utility.yul\":12584:12601   */\n      add\n        /* \"#utility.yul\":12577:12624   */\n      mstore\n        /* \"#utility.yul\":12641:12772   */\n      tag_373\n        /* \"#utility.yul\":12767:12771   */\n      dup2\n        /* \"#utility.yul\":12641:12772   */\n      tag_294\n      jump\t// in\n    tag_373:\n        /* \"#utility.yul\":12633:12772   */\n      swap1\n      pop\n        /* \"#utility.yul\":12360:12779   */\n      swap2\n      swap1\n      pop\n      jump\t// out\n        /* \"#utility.yul\":12785:13204   */\n    tag_181:\n        /* \"#utility.yul\":12951:12955   */\n      0x00\n        /* \"#utility.yul\":12989:12991   */\n      0x20\n        /* \"#utility.yul\":12978:12987   */\n      dup3\n        /* \"#utility.yul\":12974:12992   */\n      add\n        /* \"#utility.yul\":12966:12992   */\n      swap1\n      pop\n        /* \"#utility.yul\":13038:13047   */\n      dup2\n        /* \"#utility.yul\":13032:13036   */\n      dup2\n        /* \"#utility.yul\":13028:13048   */\n      sub\n        /* \"#utility.yul\":13024:13025   */\n      0x00\n        /* \"#utility.yul\":13013:13022   */\n      dup4\n        /* \"#utility.yul\":13009:13026   */\n      add\n        /* \"#utility.yul\":13002:13049   */\n      mstore\n        /* \"#utility.yul\":13066:13197   */\n      tag_375\n        /* \"#utility.yul\":13192:13196   */\n      dup2\n        /* \"#utility.yul\":13066:13197   */\n      tag_299\n      jump\t// in\n    tag_375:\n        /* \"#utility.yul\":13058:13197   */\n      swap1\n      pop\n        /* \"#utility.yul\":12785:13204   */\n      swap2\n      swap1\n      pop\n      jump\t// out\n        /* \"#utility.yul\":13210:13629   */\n    tag_118:\n        /* \"#utility.yul\":13376:13380   */\n      0x00\n        /* \"#utility.yul\":13414:13416   */\n      0x20\n        /* \"#utility.yul\":13403:13412   */\n      dup3\n        /* \"#utility.yul\":13399:13417   */\n      add\n        /* \"#utility.yul\":13391:13417   */\n      swap1\n      pop\n        /* \"#utility.yul\":13463:13472   */\n      dup2\n        /* \"#utility.yul\":13457:13461   */\n      dup2\n        /* \"#utility.yul\":13453:13473   */\n      sub\n        /* \"#utility.yul\":13449:13450   */\n      0x00\n        /* \"#utility.yul\":13438:13447   */\n      dup4\n        /* \"#utility.yul\":13434:13451   */\n      add\n        /* \"#utility.yul\":13427:13474   */\n      mstore\n        /* \"#utility.yul\":13491:13622   */\n      tag_377\n        /* \"#utility.yul\":13617:13621   */\n      dup2\n        /* \"#utility.yul\":13491:13622   */\n      tag_304\n      jump\t// in\n    tag_377:\n        /* \"#utility.yul\":13483:13622   */\n      swap1\n      pop\n        /* \"#utility.yul\":13210:13629   */\n      swap2\n      swap1\n      pop\n      jump\t// out\n        /* \"#utility.yul\":13635:14054   */\n    tag_113:\n        /* \"#utility.yul\":13801:13805   */\n      0x00\n        /* \"#utility.yul\":13839:13841   */\n      0x20\n        /* \"#utility.yul\":13828:13837   */\n      dup3\n        /* \"#utility.yul\":13824:13842   */\n      add\n        /* \"#utility.yul\":13816:13842   */\n      swap1\n      pop\n        /* \"#utility.yul\":13888:13897   */\n      dup2\n        /* \"#utility.yul\":13882:13886   */\n      dup2\n        /* \"#utility.yul\":13878:13898   */\n      sub\n        /* \"#utility.yul\":13874:13875   */\n      0x00\n        /* \"#utility.yul\":13863:13872   */\n      dup4\n        /* \"#utility.yul\":13859:13876   */\n      add\n        /* \"#utility.yul\":13852:13899   */\n      mstore\n        /* \"#utility.yul\":13916:14047   */\n      tag_379\n        /* \"#utility.yul\":14042:14046   */\n      dup2\n        /* \"#utility.yul\":13916:14047   */\n      tag_309\n      jump\t// in\n    tag_379:\n        /* \"#utility.yul\":13908:14047   */\n      swap1\n      pop\n        /* \"#utility.yul\":13635:14054   */\n      swap2\n      swap1\n      pop\n      jump\t// out\n        /* \"#utility.yul\":14060:14479   */\n    tag_189:\n        /* \"#utility.yul\":14226:14230   */\n      0x00\n        /* \"#utility.yul\":14264:14266   */\n      0x20\n        /* \"#utility.yul\":14253:14262   */\n      dup3\n        /* \"#utility.yul\":14249:14267   */\n      add\n        /* \"#utility.yul\":14241:14267   */\n      swap1\n      pop\n        /* \"#utility.yul\":14313:14322   */\n      dup2\n        /* \"#utility.yul\":14307:14311   */\n      dup2\n        /* \"#utility.yul\":14303:14323   */\n      sub\n        /* \"#utility.yul\":14299:14300   */\n      0x00\n        /* \"#utility.yul\":14288:14297   */\n      dup4\n        /* \"#utility.yul\":14284:14301   */\n      add\n        /* \"#utility.yul\":14277:14324   */\n      mstore\n        /* \"#utility.yul\":14341:14472   */\n      tag_381\n        /* \"#utility.yul\":14467:14471   */\n      dup2\n        /* \"#utility.yul\":14341:14472   */\n      tag_320\n      jump\t// in\n    tag_381:\n        /* \"#utility.yul\":14333:14472   */\n      swap1\n      pop\n        /* \"#utility.yul\":14060:14479   */\n      swap2\n      swap1\n      pop\n      jump\t// out\n        /* \"#utility.yul\":14485:14707   */\n    tag_36:\n        /* \"#utility.yul\":14578:14582   */\n      0x00\n        /* \"#utility.yul\":14616:14618   */\n      0x20\n        /* \"#utility.yul\":14605:14614   */\n      dup3\n        /* \"#utility.yul\":14601:14619   */\n      add\n        /* \"#utility.yul\":14593:14619   */\n      swap1\n      pop\n        /* \"#utility.yul\":14629:14700   */\n      tag_383\n        /* \"#utility.yul\":14697:14698   */\n      0x00\n        /* \"#utility.yul\":14686:14695   */\n      dup4\n        /* \"#utility.yul\":14682:14699   */\n      add\n        /* \"#utility.yul\":14673:14679   */\n      dup5\n        /* \"#utility.yul\":14629:14700   */\n      tag_332\n      jump\t// in\n    tag_383:\n        /* \"#utility.yul\":14485:14707   */\n      swap3\n      swap2\n      pop\n      pop\n      jump\t// out\n        /* \"#utility.yul\":14713:15196   */\n    tag_165:\n        /* \"#utility.yul\":14884:14888   */\n      0x00\n        /* \"#utility.yul\":14922:14924   */\n      0x40\n        /* \"#utility.yul\":14911:14920   */\n      dup3\n        /* \"#utility.yul\":14907:14925   */\n      add\n        /* \"#utility.yul\":14899:14925   */\n      swap1\n      pop\n        /* \"#utility.yul\":14935:15006   */\n      tag_385\n        /* \"#utility.yul\":15003:15004   */\n      0x00\n        /* \"#utility.yul\":14992:15001   */\n      dup4\n        /* \"#utility.yul\":14988:15005   */\n      add\n        /* \"#utility.yul\":14979:14985   */\n      dup6\n        /* \"#utility.yul\":14935:15006   */\n      tag_332\n      jump\t// in\n    tag_385:\n        /* \"#utility.yul\":15053:15062   */\n      dup2\n        /* \"#utility.yul\":15047:15051   */\n      dup2\n        /* \"#utility.yul\":15043:15063   */\n      sub\n        /* \"#utility.yul\":15038:15040   */\n      0x20\n        /* \"#utility.yul\":15027:15036   */\n      dup4\n        /* \"#utility.yul\":15023:15041   */\n      add\n        /* \"#utility.yul\":15016:15064   */\n      mstore\n        /* \"#utility.yul\":15081:15189   */\n      tag_386\n        /* \"#utility.yul\":15184:15188   */\n      dup2\n        /* \"#utility.yul\":15175:15181   */\n      dup5\n        /* \"#utility.yul\":15081:15189   */\n      tag_261\n      jump\t// in\n    tag_386:\n        /* \"#utility.yul\":15073:15189   */\n      swap1\n      pop\n        /* \"#utility.yul\":14713:15196   */\n      swap4\n      swap3\n      pop\n      pop\n      pop\n      jump\t// out\n        /* \"#utility.yul\":15202:15530   */\n    tag_154:\n        /* \"#utility.yul\":15321:15325   */\n      0x00\n        /* \"#utility.yul\":15359:15361   */\n      0x40\n        /* \"#utility.yul\":15348:15357   */\n      dup3\n        /* \"#utility.yul\":15344:15362   */\n      add\n        /* \"#utility.yul\":15336:15362   */\n      swap1\n      pop\n        /* \"#utility.yul\":15372:15443   */\n      tag_388\n        /* \"#utility.yul\":15440:15441   */\n      0x00\n        /* \"#utility.yul\":15429:15438   */\n      dup4\n        /* \"#utility.yul\":15425:15442   */\n      add\n        /* \"#utility.yul\":15416:15422   */\n      dup6\n        /* \"#utility.yul\":15372:15443   */\n      tag_332\n      jump\t// in\n    tag_388:\n        /* \"#utility.yul\":15453:15523   */\n      tag_389\n        /* \"#utility.yul\":15519:15521   */\n      0x20\n        /* \"#utility.yul\":15508:15517   */\n      dup4\n        /* \"#utility.yul\":15504:15522   */\n      add\n        /* \"#utility.yul\":15495:15501   */\n      dup5\n        /* \"#utility.yul\":15453:15523   */\n      tag_335\n      jump\t// in\n    tag_389:\n        /* \"#utility.yul\":15202:15530   */\n      swap4\n      swap3\n      pop\n      pop\n      pop\n      jump\t// out\n        /* \"#utility.yul\":15536:15665   */\n    tag_203:\n        /* \"#utility.yul\":15570:15576   */\n      0x00\n        /* \"#utility.yul\":15597:15617   */\n      tag_391\n      tag_392\n      jump\t// in\n    tag_391:\n        /* \"#utility.yul\":15587:15617   */\n      swap1\n      pop\n        /* \"#utility.yul\":15626:15659   */\n      tag_393\n        /* \"#utility.yul\":15654:15658   */\n      dup3\n        /* \"#utility.yul\":15646:15652   */\n      dup3\n        /* \"#utility.yul\":15626:15659   */\n      tag_394\n      jump\t// in\n    tag_393:\n        /* \"#utility.yul\":15536:15665   */\n      swap2\n      swap1\n      pop\n      jump\t// out\n        /* \"#utility.yul\":15671:15746   */\n    tag_392:\n        /* \"#utility.yul\":15704:15710   */\n      0x00\n        /* \"#utility.yul\":15737:15739   */\n      0x40\n        /* \"#utility.yul\":15731:15740   */\n      mload\n        /* \"#utility.yul\":15721:15740   */\n      swap1\n      pop\n        /* \"#utility.yul\":15671:15746   */\n      swap1\n      jump\t// out\n        /* \"#utility.yul\":15752:16063   */\n    tag_202:\n        /* \"#utility.yul\":15829:15833   */\n      0x00\n        /* \"#utility.yul\":15919:15937   */\n      0xffffffffffffffff\n        /* \"#utility.yul\":15911:15917   */\n      dup3\n        /* \"#utility.yul\":15908:15938   */\n      gt\n        /* \"#utility.yul\":15905:15961   */\n      iszero\n      tag_397\n      jumpi\n        /* \"#utility.yul\":15941:15959   */\n      tag_398\n      tag_148\n      jump\t// in\n    tag_398:\n        /* \"#utility.yul\":15905:15961   */\n    tag_397:\n        /* \"#utility.yul\":15991:15995   */\n      0x20\n        /* \"#utility.yul\":15983:15989   */\n      dup3\n        /* \"#utility.yul\":15979:15996   */\n      mul\n        /* \"#utility.yul\":15971:15996   */\n      swap1\n      pop\n        /* \"#utility.yul\":16051:16055   */\n      0x20\n        /* \"#utility.yul\":16045:16049   */\n      dup2\n        /* \"#utility.yul\":16041:16056   */\n      add\n        /* \"#utility.yul\":16033:16056   */\n      swap1\n      pop\n        /* \"#utility.yul\":15752:16063   */\n      swap2\n      swap1\n      pop\n      jump\t// out\n        /* \"#utility.yul\":16069:16201   */\n    tag_268:\n        /* \"#utility.yul\":16136:16140   */\n      0x00\n        /* \"#utility.yul\":16159:16162   */\n      dup2\n        /* \"#utility.yul\":16151:16162   */\n      swap1\n      pop\n        /* \"#utility.yul\":16189:16193   */\n      0x20\n        /* \"#utility.yul\":16184:16187   */\n      dup3\n        /* \"#utility.yul\":16180:16194   */\n      add\n        /* \"#utility.yul\":16172:16194   */\n      swap1\n      pop\n        /* \"#utility.yul\":16069:16201   */\n      swap2\n      swap1\n      pop\n      jump\t// out\n        /* \"#utility.yul\":16207:16321   */\n    tag_264:\n        /* \"#utility.yul\":16274:16280   */\n      0x00\n        /* \"#utility.yul\":16308:16313   */\n      dup2\n        /* \"#utility.yul\":16302:16314   */\n      mload\n        /* \"#utility.yul\":16292:16314   */\n      swap1\n      pop\n        /* \"#utility.yul\":16207:16321   */\n      swap2\n      swap1\n      pop\n      jump\t// out\n        /* \"#utility.yul\":16327:16440   */\n    tag_274:\n        /* \"#utility.yul\":16397:16401   */\n      0x00\n        /* \"#utility.yul\":16429:16433   */\n      0x20\n        /* \"#utility.yul\":16424:16427   */\n      dup3\n        /* \"#utility.yul\":16420:16434   */\n      add\n        /* \"#utility.yul\":16412:16434   */\n      swap1\n      pop\n        /* \"#utility.yul\":16327:16440   */\n      swap2\n      swap1\n      pop\n      jump\t// out\n        /* \"#utility.yul\":16446:16630   */\n    tag_266:\n        /* \"#utility.yul\":16545:16556   */\n      0x00\n        /* \"#utility.yul\":16579:16585   */\n      dup3\n        /* \"#utility.yul\":16574:16577   */\n      dup3\n        /* \"#utility.yul\":16567:16586   */\n      mstore\n        /* \"#utility.yul\":16619:16623   */\n      0x20\n        /* \"#utility.yul\":16614:16617   */\n      dup3\n        /* \"#utility.yul\":16610:16624   */\n      add\n        /* \"#utility.yul\":16595:16624   */\n      swap1\n      pop\n        /* \"#utility.yul\":16446:16630   */\n      swap3\n      swap2\n      pop\n      pop\n      jump\t// out\n        /* \"#utility.yul\":16636:16783   */\n    tag_317:\n        /* \"#utility.yul\":16737:16748   */\n      0x00\n        /* \"#utility.yul\":16774:16777   */\n      dup2\n        /* \"#utility.yul\":16759:16777   */\n      swap1\n      pop\n        /* \"#utility.yul\":16636:16783   */\n      swap3\n      swap2\n      pop\n      pop\n      jump\t// out\n        /* \"#utility.yul\":16789:16958   */\n    tag_286:\n        /* \"#utility.yul\":16873:16884   */\n      0x00\n        /* \"#utility.yul\":16907:16913   */\n      dup3\n        /* \"#utility.yul\":16902:16905   */\n      dup3\n        /* \"#utility.yul\":16895:16914   */\n      mstore\n        /* \"#utility.yul\":16947:16951   */\n      0x20\n        /* \"#utility.yul\":16942:16945   */\n      dup3\n        /* \"#utility.yul\":16938:16952   */\n      add\n        /* \"#utility.yul\":16923:16952   */\n      swap1\n      pop\n        /* \"#utility.yul\":16789:16958   */\n      swap3\n      swap2\n      pop\n      pop\n      jump\t// out\n        /* \"#utility.yul\":16964:17149   */\n    tag_103:\n        /* \"#utility.yul\":17004:17005   */\n      0x00\n        /* \"#utility.yul\":17021:17041   */\n      tag_406\n        /* \"#utility.yul\":17039:17040   */\n      dup3\n        /* \"#utility.yul\":17021:17041   */\n      tag_331\n      jump\t// in\n    tag_406:\n        /* \"#utility.yul\":17016:17041   */\n      swap2\n      pop\n        /* \"#utility.yul\":17055:17075   */\n      tag_407\n        /* \"#utility.yul\":17073:17074   */\n      dup4\n        /* \"#utility.yul\":17055:17075   */\n      tag_331\n      jump\t// in\n    tag_407:\n        /* \"#utility.yul\":17050:17075   */\n      swap3\n      pop\n        /* \"#utility.yul\":17094:17095   */\n      dup3\n        /* \"#utility.yul\":17084:17119   */\n      tag_408\n      jumpi\n        /* \"#utility.yul\":17099:17117   */\n      tag_409\n      tag_410\n      jump\t// in\n    tag_409:\n        /* \"#utility.yul\":17084:17119   */\n    tag_408:\n        /* \"#utility.yul\":17141:17142   */\n      dup3\n        /* \"#utility.yul\":17138:17139   */\n      dup3\n        /* \"#utility.yul\":17134:17143   */\n      div\n        /* \"#utility.yul\":17129:17143   */\n      swap1\n      pop\n        /* \"#utility.yul\":16964:17149   */\n      swap3\n      swap2\n      pop\n      pop\n      jump\t// out\n        /* \"#utility.yul\":17155:17503   */\n    tag_173:\n        /* \"#utility.yul\":17195:17202   */\n      0x00\n        /* \"#utility.yul\":17218:17238   */\n      tag_412\n        /* \"#utility.yul\":17236:17237   */\n      dup3\n        /* \"#utility.yul\":17218:17238   */\n      tag_331\n      jump\t// in\n    tag_412:\n        /* \"#utility.yul\":17213:17238   */\n      swap2\n      pop\n        /* \"#utility.yul\":17252:17272   */\n      tag_413\n        /* \"#utility.yul\":17270:17271   */\n      dup4\n        /* \"#utility.yul\":17252:17272   */\n      tag_331\n      jump\t// in\n    tag_413:\n        /* \"#utility.yul\":17247:17272   */\n      swap3\n      pop\n        /* \"#utility.yul\":17440:17441   */\n      dup2\n        /* \"#utility.yul\":17372:17438   */\n      0xffffffffffffffffffffffffffffffffffffffffffffffffffffffffffffffff\n        /* \"#utility.yul\":17368:17442   */\n      div\n        /* \"#utility.yul\":17365:17366   */\n      dup4\n        /* \"#utility.yul\":17362:17443   */\n      gt\n        /* \"#utility.yul\":17357:17358   */\n      dup3\n        /* \"#utility.yul\":17350:17359   */\n      iszero\n        /* \"#utility.yul\":17343:17360   */\n      iszero\n        /* \"#utility.yul\":17339:17444   */\n      and\n        /* \"#utility.yul\":17336:17467   */\n      iszero\n      tag_414\n      jumpi\n        /* \"#utility.yul\":17447:17465   */\n      tag_415\n      tag_416\n      jump\t// in\n    tag_415:\n        /* \"#utility.yul\":17336:17467   */\n    tag_414:\n        /* \"#utility.yul\":17495:17496   */\n      dup3\n        /* \"#utility.yul\":17492:17493   */\n      dup3\n        /* \"#utility.yul\":17488:17497   */\n      mul\n        /* \"#utility.yul\":17477:17497   */\n      swap1\n      pop\n        /* \"#utility.yul\":17155:17503   */\n      swap3\n      swap2\n      pop\n      pop\n      jump\t// out\n        /* \"#utility.yul\":17509:17605   */\n    tag_260:\n        /* \"#utility.yul\":17546:17553   */\n      0x00\n        /* \"#utility.yul\":17575:17599   */\n      tag_418\n        /* \"#utility.yul\":17593:17598   */\n      dup3\n        /* \"#utility.yul\":17575:17599   */\n      tag_419\n      jump\t// in\n    tag_418:\n        /* \"#utility.yul\":17564:17599   */\n      swap1\n      pop\n        /* \"#utility.yul\":17509:17605   */\n      swap2\n      swap1\n      pop\n      jump\t// out\n        /* \"#utility.yul\":17611:17715   */\n    tag_256:\n        /* \"#utility.yul\":17656:17663   */\n      0x00\n        /* \"#utility.yul\":17685:17709   */\n      tag_421\n        /* \"#utility.yul\":17703:17708   */\n      dup3\n        /* \"#utility.yul\":17685:17709   */\n      tag_419\n      jump\t// in\n    tag_421:\n        /* \"#utility.yul\":17674:17709   */\n      swap1\n      pop\n        /* \"#utility.yul\":17611:17715   */\n      swap2\n      swap1\n      pop\n      jump\t// out\n        /* \"#utility.yul\":17721:17811   */\n    tag_278:\n        /* \"#utility.yul\":17755:17762   */\n      0x00\n        /* \"#utility.yul\":17798:17803   */\n      dup2\n        /* \"#utility.yul\":17791:17804   */\n      iszero\n        /* \"#utility.yul\":17784:17805   */\n      iszero\n        /* \"#utility.yul\":17773:17805   */\n      swap1\n      pop\n        /* \"#utility.yul\":17721:17811   */\n      swap2\n      swap1\n      pop\n      jump\t// out\n        /* \"#utility.yul\":17817:17894   */\n    tag_282:\n        /* \"#utility.yul\":17854:17861   */\n      0x00\n        /* \"#utility.yul\":17883:17888   */\n      dup2\n        /* \"#utility.yul\":17872:17888   */\n      swap1\n      pop\n        /* \"#utility.yul\":17817:17894   */\n      swap2\n      swap1\n      pop\n      jump\t// out\n        /* \"#utility.yul\":17900:17989   */\n    tag_328:\n        /* \"#utility.yul\":17936:17943   */\n      0x00\n        /* \"#utility.yul\":17976:17982   */\n      0xffff\n        /* \"#utility.yul\":17969:17974   */\n      dup3\n        /* \"#utility.yul\":17965:17983   */\n      and\n        /* \"#utility.yul\":17954:17983   */\n      swap1\n      pop\n        /* \"#utility.yul\":17900:17989   */\n      swap2\n      swap1\n      pop\n      jump\t// out\n        /* \"#utility.yul\":17995:18121   */\n    tag_419:\n        /* \"#utility.yul\":18032:18039   */\n      0x00\n        /* \"#utility.yul\":18072:18114   */\n      0xffffffffffffffffffffffffffffffffffffffff\n        /* \"#utility.yul\":18065:18070   */\n      dup3\n        /* \"#utility.yul\":18061:18115   */\n      and\n        /* \"#utility.yul\":18050:18115   */\n      swap1\n      pop\n        /* \"#utility.yul\":17995:18121   */\n      swap2\n      swap1\n      pop\n      jump\t// out\n        /* \"#utility.yul\":18127:18204   */\n    tag_331:\n        /* \"#utility.yul\":18164:18171   */\n      0x00\n        /* \"#utility.yul\":18193:18198   */\n      dup2\n        /* \"#utility.yul\":18182:18198   */\n      swap1\n      pop\n        /* \"#utility.yul\":18127:18204   */\n      swap2\n      swap1\n      pop\n      jump\t// out\n        /* \"#utility.yul\":18210:18303   */\n    tag_338:\n        /* \"#utility.yul\":18246:18253   */\n      0x00\n        /* \"#utility.yul\":18286:18296   */\n      0xffffffff\n        /* \"#utility.yul\":18279:18284   */\n      dup3\n        /* \"#utility.yul\":18275:18297   */\n      and\n        /* \"#utility.yul\":18264:18297   */\n      swap1\n      pop\n        /* \"#utility.yul\":18210:18303   */\n      swap2\n      swap1\n      pop\n      jump\t// out\n        /* \"#utility.yul\":18309:18410   */\n    tag_342:\n        /* \"#utility.yul\":18345:18352   */\n      0x00\n        /* \"#utility.yul\":18385:18403   */\n      0xffffffffffffffff\n        /* \"#utility.yul\":18378:18383   */\n      dup3\n        /* \"#utility.yul\":18374:18404   */\n      and\n        /* \"#utility.yul\":18363:18404   */\n      swap1\n      pop\n        /* \"#utility.yul\":18309:18410   */\n      swap2\n      swap1\n      pop\n      jump\t// out\n        /* \"#utility.yul\":18416:18697   */\n    tag_394:\n        /* \"#utility.yul\":18499:18526   */\n      tag_430\n        /* \"#utility.yul\":18521:18525   */\n      dup3\n        /* \"#utility.yul\":18499:18526   */\n      tag_431\n      jump\t// in\n    tag_430:\n        /* \"#utility.yul\":18491:18497   */\n      dup2\n        /* \"#utility.yul\":18487:18527   */\n      add\n        /* \"#utility.yul\":18629:18635   */\n      dup2\n        /* \"#utility.yul\":18617:18627   */\n      dup2\n        /* \"#utility.yul\":18614:18636   */\n      lt\n        /* \"#utility.yul\":18593:18611   */\n      0xffffffffffffffff\n        /* \"#utility.yul\":18581:18591   */\n      dup3\n        /* \"#utility.yul\":18578:18612   */\n      gt\n        /* \"#utility.yul\":18575:18637   */\n      or\n        /* \"#utility.yul\":18572:18660   */\n      iszero\n      tag_432\n      jumpi\n        /* \"#utility.yul\":18640:18658   */\n      tag_433\n      tag_148\n      jump\t// in\n    tag_433:\n        /* \"#utility.yul\":18572:18660   */\n    tag_432:\n        /* \"#utility.yul\":18680:18690   */\n      dup1\n        /* \"#utility.yul\":18676:18678   */\n      0x40\n        /* \"#utility.yul\":18669:18691   */\n      mstore\n        /* \"#utility.yul\":18459:18697   */\n      pop\n        /* \"#utility.yul\":18416:18697   */\n      pop\n      pop\n      jump\t// out\n        /* \"#utility.yul\":18703:18879   */\n    tag_170:\n        /* \"#utility.yul\":18735:18736   */\n      0x00\n        /* \"#utility.yul\":18752:18772   */\n      tag_435\n        /* \"#utility.yul\":18770:18771   */\n      dup3\n        /* \"#utility.yul\":18752:18772   */\n      tag_331\n      jump\t// in\n    tag_435:\n        /* \"#utility.yul\":18747:18772   */\n      swap2\n      pop\n        /* \"#utility.yul\":18786:18806   */\n      tag_436\n        /* \"#utility.yul\":18804:18805   */\n      dup4\n        /* \"#utility.yul\":18786:18806   */\n      tag_331\n      jump\t// in\n    tag_436:\n        /* \"#utility.yul\":18781:18806   */\n      swap3\n      pop\n        /* \"#utility.yul\":18825:18826   */\n      dup3\n        /* \"#utility.yul\":18815:18850   */\n      tag_437\n      jumpi\n        /* \"#utility.yul\":18830:18848   */\n      tag_438\n      tag_410\n      jump\t// in\n    tag_438:\n        /* \"#utility.yul\":18815:18850   */\n    tag_437:\n        /* \"#utility.yul\":18871:18872   */\n      dup3\n        /* \"#utility.yul\":18868:18869   */\n      dup3\n        /* \"#utility.yul\":18864:18873   */\n      mod\n        /* \"#utility.yul\":18859:18873   */\n      swap1\n      pop\n        /* \"#utility.yul\":18703:18879   */\n      swap3\n      swap2\n      pop\n      pop\n      jump\t// out\n        /* \"#utility.yul\":18885:19065   */\n    tag_416:\n        /* \"#utility.yul\":18933:19010   */\n      0x4e487b7100000000000000000000000000000000000000000000000000000000\n        /* \"#utility.yul\":18930:18931   */\n      0x00\n        /* \"#utility.yul\":18923:19011   */\n      mstore\n        /* \"#utility.yul\":19030:19034   */\n      0x11\n        /* \"#utility.yul\":19027:19028   */\n      0x04\n        /* \"#utility.yul\":19020:19035   */\n      mstore\n        /* \"#utility.yul\":19054:19058   */\n      0x24\n        /* \"#utility.yul\":19051:19052   */\n      0x00\n        /* \"#utility.yul\":19044:19059   */\n      revert\n        /* \"#utility.yul\":19071:19251   */\n    tag_410:\n        /* \"#utility.yul\":19119:19196   */\n      0x4e487b7100000000000000000000000000000000000000000000000000000000\n        /* \"#utility.yul\":19116:19117   */\n      0x00\n        /* \"#utility.yul\":19109:19197   */\n      mstore\n        /* \"#utility.yul\":19216:19220   */\n      0x12\n        /* \"#utility.yul\":19213:19214   */\n      0x04\n        /* \"#utility.yul\":19206:19221   */\n      mstore\n        /* \"#utility.yul\":19240:19244   */\n      0x24\n        /* \"#utility.yul\":19237:19238   */\n      0x00\n        /* \"#utility.yul\":19230:19245   */\n      revert\n        /* \"#utility.yul\":19257:19437   */\n    tag_168:\n        /* \"#utility.yul\":19305:19382   */\n      0x4e487b7100000000000000000000000000000000000000000000000000000000\n        /* \"#utility.yul\":19302:19303   */\n      0x00\n        /* \"#utility.yul\":19295:19383   */\n      mstore\n        /* \"#utility.yul\":19402:19406   */\n      0x32\n        /* \"#utility.yul\":19399:19400   */\n      0x04\n        /* \"#utility.yul\":19392:19407   */\n      mstore\n        /* \"#utility.yul\":19426:19430   */\n      0x24\n        /* \"#utility.yul\":19423:19424   */\n      0x00\n        /* \"#utility.yul\":19416:19431   */\n      revert\n        /* \"#utility.yul\":19443:19623   */\n    tag_148:\n        /* \"#utility.yul\":19491:19568   */\n      0x4e487b7100000000000000000000000000000000000000000000000000000000\n        /* \"#utility.yul\":19488:19489   */\n      0x00\n        /* \"#utility.yul\":19481:19569   */\n      mstore\n        /* \"#utility.yul\":19588:19592   */\n      0x41\n        /* \"#utility.yul\":19585:19586   */\n      0x04\n        /* \"#utility.yul\":19578:19593   */\n      mstore\n        /* \"#utility.yul\":19612:19616   */\n      0x24\n        /* \"#utility.yul\":19609:19610   */\n      0x00\n        /* \"#utility.yul\":19602:19617   */\n      revert\n        /* \"#utility.yul\":19629:19746   */\n    tag_220:\n        /* \"#utility.yul\":19738:19739   */\n      0x00\n        /* \"#utility.yul\":19735:19736   */\n      dup1\n        /* \"#utility.yul\":19728:19740   */\n      revert\n        /* \"#utility.yul\":19752:19869   */\n    tag_206:\n        /* \"#utility.yul\":19861:19862   */\n      0x00\n        /* \"#utility.yul\":19858:19859   */\n      dup1\n        /* \"#utility.yul\":19851:19863   */\n      revert\n        /* \"#utility.yul\":19875:19992   */\n    tag_247:\n        /* \"#utility.yul\":19984:19985   */\n      0x00\n        /* \"#utility.yul\":19981:19982   */\n      dup1\n        /* \"#utility.yul\":19974:19986   */\n      revert\n        /* \"#utility.yul\":19998:20115   */\n    tag_231:\n        /* \"#utility.yul\":20107:20108   */\n      0x00\n        /* \"#utility.yul\":20104:20105   */\n      dup1\n        /* \"#utility.yul\":20097:20109   */\n      revert\n        /* \"#utility.yul\":20121:20223   */\n    tag_431:\n        /* \"#utility.yul\":20162:20168   */\n      0x00\n        /* \"#utility.yul\":20213:20215   */\n      0x1f\n        /* \"#utility.yul\":20209:20216   */\n      not\n        /* \"#utility.yul\":20204:20206   */\n      0x1f\n        /* \"#utility.yul\":20197:20202   */\n      dup4\n        /* \"#utility.yul\":20193:20207   */\n      add\n        /* \"#utility.yul\":20189:20217   */\n      and\n        /* \"#utility.yul\":20179:20217   */\n      swap1\n      pop\n        /* \"#utility.yul\":20121:20223   */\n      swap2\n      swap1\n      pop\n      jump\t// out\n        /* \"#utility.yul\":20229:20396   */\n    tag_288:\n        /* \"#utility.yul\":20369:20388   */\n      0x72657175657374206e6f7420666f756e64000000000000000000000000000000\n        /* \"#utility.yul\":20365:20366   */\n      0x00\n        /* \"#utility.yul\":20357:20363   */\n      dup3\n        /* \"#utility.yul\":20353:20367   */\n      add\n        /* \"#utility.yul\":20346:20389   */\n      mstore\n        /* \"#utility.yul\":20229:20396   */\n      pop\n      jump\t// out\n        /* \"#utility.yul\":20402:20574   */\n    tag_293:\n        /* \"#utility.yul\":20542:20566   */\n      0x4d7573742062652070726f706f736564206f776e657200000000000000000000\n        /* \"#utility.yul\":20538:20539   */\n      0x00\n        /* \"#utility.yul\":20530:20536   */\n      dup3\n        /* \"#utility.yul\":20526:20540   */\n      add\n        /* \"#utility.yul\":20519:20567   */\n      mstore\n        /* \"#utility.yul\":20402:20574   */\n      pop\n      jump\t// out\n        /* \"#utility.yul\":20580:20752   */\n    tag_298:\n        /* \"#utility.yul\":20720:20744   */\n      0x4f6e6c792063616c6c61626c65206279206f776e657200000000000000000000\n        /* \"#utility.yul\":20716:20717   */\n      0x00\n        /* \"#utility.yul\":20708:20714   */\n      dup3\n        /* \"#utility.yul\":20704:20718   */\n      add\n        /* \"#utility.yul\":20697:20745   */\n      mstore\n        /* \"#utility.yul\":20580:20752   */\n      pop\n      jump\t// out\n        /* \"#utility.yul\":20758:20937   */\n    tag_303:\n        /* \"#utility.yul\":20898:20929   */\n      0x436173696e6f3a2057696e6e696e67207061796f7574206661696c6564000000\n        /* \"#utility.yul\":20894:20895   */\n      0x00\n        /* \"#utility.yul\":20886:20892   */\n      dup3\n        /* \"#utility.yul\":20882:20896   */\n      add\n        /* \"#utility.yul\":20875:20930   */\n      mstore\n        /* \"#utility.yul\":20758:20937   */\n      pop\n      jump\t// out\n        /* \"#utility.yul\":20943:21121   */\n    tag_308:\n        /* \"#utility.yul\":21083:21113   */\n      0x42657420616e792076616c7565206265747765656e203120746f203600000000\n        /* \"#utility.yul\":21079:21080   */\n      0x00\n        /* \"#utility.yul\":21071:21077   */\n      dup3\n        /* \"#utility.yul\":21067:21081   */\n      add\n        /* \"#utility.yul\":21060:21114   */\n      mstore\n        /* \"#utility.yul\":20943:21121   */\n      pop\n      jump\t// out\n        /* \"#utility.yul\":21127:21351   */\n    tag_313:\n        /* \"#utility.yul\":21267:21301   */\n      0x54686973206265742065786365656473206d6178696d756d20706f737369626c\n        /* \"#utility.yul\":21263:21264   */\n      0x00\n        /* \"#utility.yul\":21255:21261   */\n      dup3\n        /* \"#utility.yul\":21251:21265   */\n      add\n        /* \"#utility.yul\":21244:21302   */\n      mstore\n        /* \"#utility.yul\":21336:21343   */\n      0x6520626574000000000000000000000000000000000000000000000000000000\n        /* \"#utility.yul\":21331:21333   */\n      0x20\n        /* \"#utility.yul\":21323:21329   */\n      dup3\n        /* \"#utility.yul\":21319:21334   */\n      add\n        /* \"#utility.yul\":21312:21344   */\n      mstore\n        /* \"#utility.yul\":21127:21351   */\n      pop\n      jump\t// out\n        /* \"#utility.yul\":21357:21471   */\n    tag_319:\n      pop\n      jump\t// out\n        /* \"#utility.yul\":21477:21650   */\n    tag_324:\n        /* \"#utility.yul\":21617:21642   */\n      0x43616e6e6f74207472616e7366657220746f2073656c66000000000000000000\n        /* \"#utility.yul\":21613:21614   */\n      0x00\n        /* \"#utility.yul\":21605:21611   */\n      dup3\n        /* \"#utility.yul\":21601:21615   */\n      add\n        /* \"#utility.yul\":21594:21643   */\n      mstore\n        /* \"#utility.yul\":21477:21650   */\n      pop\n      jump\t// out\n        /* \"#utility.yul\":21656:21778   */\n    tag_215:\n        /* \"#utility.yul\":21729:21753   */\n      tag_457\n        /* \"#utility.yul\":21747:21752   */\n      dup2\n        /* \"#utility.yul\":21729:21753   */\n      tag_260\n      jump\t// in\n    tag_457:\n        /* \"#utility.yul\":21722:21727   */\n      dup2\n        /* \"#utility.yul\":21719:21754   */\n      eq\n        /* \"#utility.yul\":21709:21772   */\n      tag_458\n      jumpi\n        /* \"#utility.yul\":21768:21769   */\n      0x00\n        /* \"#utility.yul\":21765:21766   */\n      dup1\n        /* \"#utility.yul\":21758:21770   */\n      revert\n        /* \"#utility.yul\":21709:21772   */\n    tag_458:\n        /* \"#utility.yul\":21656:21778   */\n      pop\n      jump\t// out\n        /* \"#utility.yul\":21784:21906   */\n    tag_224:\n        /* \"#utility.yul\":21857:21881   */\n      tag_460\n        /* \"#utility.yul\":21875:21880   */\n      dup2\n        /* \"#utility.yul\":21857:21881   */\n      tag_331\n      jump\t// in\n    tag_460:\n        /* \"#utility.yul\":21850:21855   */\n      dup2\n        /* \"#utility.yul\":21847:21882   */\n      eq\n        /* \"#utility.yul\":21837:21900   */\n      tag_461\n      jumpi\n        /* \"#utility.yul\":21896:21897   */\n      0x00\n        /* \"#utility.yul\":21893:21894   */\n      dup1\n        /* \"#utility.yul\":21886:21898   */\n      revert\n        /* \"#utility.yul\":21837:21900   */\n    tag_461:\n        /* \"#utility.yul\":21784:21906   */\n      pop\n      jump\t// out\n\n    auxdata: 0xa2646970667358221220e5e6349a200358c03453834638bdd5403c36a4df47b91d5c427f277b83bbd02b64736f6c63430008070033\n}\n",
				"bytecode": {
					"linkReferences": {},
					"object": "60a06040527f79d3d8832d904592c0bf9818b621522c988bb8b0c05cdc3b15aea1b6e8db0c1560001b600655620186a0600760006101000a81548163ffffffff021916908363ffffffff1602179055506003600760046101000a81548161ffff021916908361ffff1602179055506001600760066101000a81548163ffffffff021916908363ffffffff160217905550670de0b6b3a7640000600a556103e8600b55348015620000ae57600080fd5b506040516200228b3803806200228b8339818101604052810190620000d491906200042f565b33806000732ca8e0c643bde4c2e08ab1fa0da3401adad7734d8073ffffffffffffffffffffffffffffffffffffffff1660808173ffffffffffffffffffffffffffffffffffffffff1660601b8152505050600073ffffffffffffffffffffffffffffffffffffffff168273ffffffffffffffffffffffffffffffffffffffff16141562000198576040517f08c379a00000000000000000000000000000000000000000000000000000000081526004016200018f90620004af565b60405180910390fd5b816000806101000a81548173ffffffffffffffffffffffffffffffffffffffff021916908373ffffffffffffffffffffffffffffffffffffffff160217905550600073ffffffffffffffffffffffffffffffffffffffff168173ffffffffffffffffffffffffffffffffffffffff16146200021f576200021e81620002e860201b60201c565b5b505050732ca8e0c643bde4c2e08ab1fa0da3401adad7734d600360006101000a81548173ffffffffffffffffffffffffffffffffffffffff021916908373ffffffffffffffffffffffffffffffffffffffff16021790555080600360146101000a81548167ffffffffffffffff021916908367ffffffffffffffff160217905550336007600a6101000a81548173ffffffffffffffffffffffffffffffffffffffff021916908373ffffffffffffffffffffffffffffffffffffffff1602179055505062000589565b3373ffffffffffffffffffffffffffffffffffffffff168173ffffffffffffffffffffffffffffffffffffffff1614156200035a576040517f08c379a00000000000000000000000000000000000000000000000000000000081526004016200035190620004d1565b60405180910390fd5b80600160006101000a81548173ffffffffffffffffffffffffffffffffffffffff021916908373ffffffffffffffffffffffffffffffffffffffff1602179055508073ffffffffffffffffffffffffffffffffffffffff1660008054906101000a900473ffffffffffffffffffffffffffffffffffffffff1673ffffffffffffffffffffffffffffffffffffffff167fed8889f560326eb138920d842192f0eb3dd22b4f139c87a2c57538e05bae127860405160405180910390a350565b60008151905062000429816200056f565b92915050565b60006020828403121562000448576200044762000518565b5b6000620004588482850162000418565b91505092915050565b600062000470601883620004f3565b91506200047d826200051d565b602082019050919050565b600062000497601783620004f3565b9150620004a48262000546565b602082019050919050565b60006020820190508181036000830152620004ca8162000461565b9050919050565b60006020820190508181036000830152620004ec8162000488565b9050919050565b600082825260208201905092915050565b600067ffffffffffffffff82169050919050565b600080fd5b7f43616e6e6f7420736574206f776e657220746f207a65726f0000000000000000600082015250565b7f43616e6e6f74207472616e7366657220746f2073656c66000000000000000000600082015250565b6200057a8162000504565b81146200058657600080fd5b50565b60805160601c611cdc620005af6000396000818161046201526104b60152611cdc6000f3fe6080604052600436106100fe5760003560e01c80639403e8dd11610095578063c17bcdee11610064578063c17bcdee146102f8578063d8a4676f14610323578063e0c8628914610361578063f2fde38b1461038c578063fc2a88c3146103b5576100fe565b80639403e8dd1461025a578063a168fa8914610285578063b163cc38146102c3578063bfb3047f146102cd576100fe565b80635873533d116100d15780635873533d146101bf57806379ba5097146101db5780638796ba8c146101f25780638da5cb5b1461022f576100fe565b80630d6f8563146101035780631fe543e31461012c5780632e5b2168146101555780633446106714610180575b600080fd5b34801561010f57600080fd5b5061012a600480360381019061012591906112b0565b6103e0565b005b34801561013857600080fd5b50610153600480360381019061014e919061130a565b610460565b005b34801561016157600080fd5b5061016a610520565b60405161017791906117b2565b60405180910390f35b34801561018c57600080fd5b506101a760048036038101906101a291906112b0565b610526565b6040516101b6939291906115c6565b60405180910390f35b6101d960048036038101906101d491906112b0565b610570565b005b3480156101e757600080fd5b506101f06106c3565b005b3480156101fe57600080fd5b50610219600480360381019061021491906112b0565b610858565b60405161022691906117b2565b60405180910390f35b34801561023b57600080fd5b5061024461087c565b6040516102519190611590565b60405180910390f35b34801561026657600080fd5b5061026f6108a5565b60405161027c91906115ab565b60405180910390f35b34801561029157600080fd5b506102ac60048036038101906102a791906112b0565b6108cb565b6040516102ba929190611656565b60405180910390f35b6102cb610909565b005b3480156102d957600080fd5b506102e261091f565b6040516102ef91906117b2565b60405180910390f35b34801561030457600080fd5b5061030d610925565b60405161031a91906117b2565b60405180910390f35b34801561032f57600080fd5b5061034a600480360381019061034591906112b0565b61092b565b604051610358929190611626565b60405180910390f35b34801561036d57600080fd5b50610376610a56565b60405161038391906117b2565b60405180910390f35b34801561039857600080fd5b506103b360048036038101906103ae9190611283565b610cbe565b005b3480156103c157600080fd5b506103ca610cd2565b6040516103d791906117b2565b60405180910390f35b6007600a9054906101000a900473ffffffffffffffffffffffffffffffffffffffff1673ffffffffffffffffffffffffffffffffffffffff166108fc829081150290604051600060405180830381858888f19350505050158015610448573d6000803e3d6000fd5b50600b544761045791906118cc565b600a8190555050565b7f000000000000000000000000000000000000000000000000000000000000000073ffffffffffffffffffffffffffffffffffffffff163373ffffffffffffffffffffffffffffffffffffffff161461051257337f00000000000000000000000000000000000000000000000000000000000000006040517f1cf993f40000000000000000000000000000000000000000000000000000000081526004016105099291906115fd565b60405180910390fd5b61051c8282610cd8565b5050565b600a5481565b60086020528060005260406000206000915090508060000160009054906101000a900473ffffffffffffffffffffffffffffffffffffffff16908060010154908060020154905083565b600a543411156105b5576040517f08c379a00000000000000000000000000000000000000000000000000000000081526004016105ac90611772565b60405180910390fd5b600681111580156105c65750600081115b610605576040517f08c379a00000000000000000000000000000000000000000000000000000000081526004016105fc90611752565b60405180910390fd5b60003390506000610614610a56565b9050600060405180606001604052808473ffffffffffffffffffffffffffffffffffffffff168152602001858152602001348152509050806008600084815260200190815260200160002060008201518160000160006101000a81548173ffffffffffffffffffffffffffffffffffffffff021916908373ffffffffffffffffffffffffffffffffffffffff160217905550602082015181600101556040820151816002015590505050505050565b600160009054906101000a900473ffffffffffffffffffffffffffffffffffffffff1673ffffffffffffffffffffffffffffffffffffffff163373ffffffffffffffffffffffffffffffffffffffff1614610753576040517f08c379a000000000000000000000000000000000000000000000000000000000815260040161074a906116f2565b60405180910390fd5b60008060009054906101000a900473ffffffffffffffffffffffffffffffffffffffff169050336000806101000a81548173ffffffffffffffffffffffffffffffffffffffff021916908373ffffffffffffffffffffffffffffffffffffffff1602179055506000600160006101000a81548173ffffffffffffffffffffffffffffffffffffffff021916908373ffffffffffffffffffffffffffffffffffffffff1602179055503373ffffffffffffffffffffffffffffffffffffffff168173ffffffffffffffffffffffffffffffffffffffff167f8be0079c531659141344cd1fd0a4f28419497f9722a3daafe3b4186f6b6457e060405160405180910390a350565b6004818154811061086857600080fd5b906000526020600020016000915090505481565b60008060009054906101000a900473ffffffffffffffffffffffffffffffffffffffff16905090565b6007600a9054906101000a900473ffffffffffffffffffffffffffffffffffffffff1681565b60026020528060005260406000206000915090508060000160009054906101000a900460ff16908060000160019054906101000a900460ff16905082565b600b544761091791906118cc565b600a81905550565b60095481565b600b5481565b600060606002600084815260200190815260200160002060000160019054906101000a900460ff16610992576040517f08c379a0000000000000000000000000000000000000000000000000000000008152600401610989906116d2565b60405180910390fd5b6000600260008581526020019081526020016000206040518060600160405290816000820160009054906101000a900460ff161515151581526020016000820160019054906101000a900460ff1615151515815260200160018201805480602002602001604051908101604052809291908181526020018280548015610a3757602002820191906000526020600020905b815481526020019060010190808311610a23575b5050505050815250509050806000015181604001519250925050915091565b6000610a60610f7f565b600360009054906101000a900473ffffffffffffffffffffffffffffffffffffffff1673ffffffffffffffffffffffffffffffffffffffff16635d3b1d30600654600360149054906101000a900467ffffffffffffffff16600760049054906101000a900461ffff16600760009054906101000a900463ffffffff16600760069054906101000a900463ffffffff166040518663ffffffff1660e01b8152600401610b0f95949392919061167f565b602060405180830381600087803b158015610b2957600080fd5b505af1158015610b3d573d6000803e3d6000fd5b505050506040513d601f19601f82011682018060405250810190610b6191906112dd565b90506040518060600160405280600015158152602001600115158152602001600067ffffffffffffffff811115610b9b57610b9a611adc565b5b604051908082528060200260200182016040528015610bc95781602001602082028036833780820191505090505b508152506002600083815260200190815260200160002060008201518160000160006101000a81548160ff02191690831515021790555060208201518160000160016101000a81548160ff0219169083151502179055506040820151816001019080519060200190610c3c92919061113c565b509050506004819080600181540180825580915050600190039060005260206000200160009091909190915055806005819055507fcc58b13ad3eab50626c6a6300b1d139cd6ebb1688a7cced9461c2f7e762665ee81600760069054906101000a900463ffffffff16604051610cb39291906117fd565b60405180910390a190565b610cc6610f7f565b610ccf8161100f565b50565b60055481565b6002600083815260200190815260200160002060000160019054906101000a900460ff16610d3b576040517f08c379a0000000000000000000000000000000000000000000000000000000008152600401610d32906116d2565b60405180910390fd5b60016002600084815260200190815260200160002060000160006101000a81548160ff02191690831515021790555080600260008481526020019081526020016000206001019080519060200190610d9492919061113c565b507ffe2e2d779dba245964d4e3ef9b994be63856fd568bf7d3ca9e224755cb1bd54d8282604051610dc69291906117cd565b60405180910390a1600081600081518110610de457610de3611aad565b5b602002602001015190506000600860008581526020019081526020016000206040518060600160405290816000820160009054906101000a900473ffffffffffffffffffffffffffffffffffffffff1673ffffffffffffffffffffffffffffffffffffffff1673ffffffffffffffffffffffffffffffffffffffff1681526020016001820154815260200160028201548152505090506000816040015190506000826020015190506000836000015190506000600686610ea49190611a1e565b90508060098190555082811415610f75576000600285610ec491906118fd565b905060008373ffffffffffffffffffffffffffffffffffffffff1682604051610eec9061157b565b60006040518083038185875af1925050503d8060008114610f29576040519150601f19603f3d011682016040523d82523d6000602084013e610f2e565b606091505b5050905080610f72576040517f08c379a0000000000000000000000000000000000000000000000000000000008152600401610f6990611732565b60405180910390fd5b50505b5050505050505050565b60008054906101000a900473ffffffffffffffffffffffffffffffffffffffff1673ffffffffffffffffffffffffffffffffffffffff163373ffffffffffffffffffffffffffffffffffffffff161461100d576040517f08c379a000000000000000000000000000000000000000000000000000000000815260040161100490611712565b60405180910390fd5b565b3373ffffffffffffffffffffffffffffffffffffffff168173ffffffffffffffffffffffffffffffffffffffff16141561107e576040517f08c379a000000000000000000000000000000000000000000000000000000000815260040161107590611792565b60405180910390fd5b80600160006101000a81548173ffffffffffffffffffffffffffffffffffffffff021916908373ffffffffffffffffffffffffffffffffffffffff1602179055508073ffffffffffffffffffffffffffffffffffffffff1660008054906101000a900473ffffffffffffffffffffffffffffffffffffffff1673ffffffffffffffffffffffffffffffffffffffff167fed8889f560326eb138920d842192f0eb3dd22b4f139c87a2c57538e05bae127860405160405180910390a350565b828054828255906000526020600020908101928215611178579160200282015b8281111561117757825182559160200191906001019061115c565b5b5090506111859190611189565b5090565b5b808211156111a257600081600090555060010161118a565b5090565b60006111b96111b48461184b565b611826565b905080838252602082019050828560208602820111156111dc576111db611b10565b5b60005b8581101561120c57816111f28882611259565b8452602084019350602083019250506001810190506111df565b5050509392505050565b60008135905061122581611c78565b92915050565b600082601f8301126112405761123f611b0b565b5b81356112508482602086016111a6565b91505092915050565b60008135905061126881611c8f565b92915050565b60008151905061127d81611c8f565b92915050565b60006020828403121561129957611298611b1a565b5b60006112a784828501611216565b91505092915050565b6000602082840312156112c6576112c5611b1a565b5b60006112d484828501611259565b91505092915050565b6000602082840312156112f3576112f2611b1a565b5b60006113018482850161126e565b91505092915050565b6000806040838503121561132157611320611b1a565b5b600061132f85828601611259565b925050602083013567ffffffffffffffff8111156113505761134f611b15565b5b61135c8582860161122b565b9150509250929050565b6000611372838361153f565b60208301905092915050565b61138781611969565b82525050565b61139681611957565b82525050565b60006113a782611887565b6113b1818561189f565b93506113bc83611877565b8060005b838110156113ed5781516113d48882611366565b97506113df83611892565b9250506001810190506113c0565b5085935050505092915050565b6114038161197b565b82525050565b61141281611987565b82525050565b60006114256011836118bb565b915061143082611b30565b602082019050919050565b60006114486016836118bb565b915061145382611b59565b602082019050919050565b600061146b6016836118bb565b915061147682611b82565b602082019050919050565b600061148e601d836118bb565b915061149982611bab565b602082019050919050565b60006114b1601c836118bb565b91506114bc82611bd4565b602082019050919050565b60006114d46025836118bb565b91506114df82611bfd565b604082019050919050565b60006114f76000836118b0565b915061150282611c4c565b600082019050919050565b600061151a6017836118bb565b915061152582611c4f565b602082019050919050565b61153981611991565b82525050565b611548816119bf565b82525050565b611557816119bf565b82525050565b611566816119c9565b82525050565b611575816119d9565b82525050565b6000611586826114ea565b9150819050919050565b60006020820190506115a5600083018461138d565b92915050565b60006020820190506115c0600083018461137e565b92915050565b60006060820190506115db600083018661137e565b6115e8602083018561154e565b6115f5604083018461154e565b949350505050565b6000604082019050611612600083018561138d565b61161f602083018461138d565b9392505050565b600060408201905061163b60008301856113fa565b818103602083015261164d818461139c565b90509392505050565b600060408201905061166b60008301856113fa565b61167860208301846113fa565b9392505050565b600060a0820190506116946000830188611409565b6116a1602083018761156c565b6116ae6040830186611530565b6116bb606083018561155d565b6116c8608083018461155d565b9695505050505050565b600060208201905081810360008301526116eb81611418565b9050919050565b6000602082019050818103600083015261170b8161143b565b9050919050565b6000602082019050818103600083015261172b8161145e565b9050919050565b6000602082019050818103600083015261174b81611481565b9050919050565b6000602082019050818103600083015261176b816114a4565b9050919050565b6000602082019050818103600083015261178b816114c7565b9050919050565b600060208201905081810360008301526117ab8161150d565b9050919050565b60006020820190506117c7600083018461154e565b92915050565b60006040820190506117e2600083018561154e565b81810360208301526117f4818461139c565b90509392505050565b6000604082019050611812600083018561154e565b61181f602083018461155d565b9392505050565b6000611830611841565b905061183c82826119ed565b919050565b6000604051905090565b600067ffffffffffffffff82111561186657611865611adc565b5b602082029050602081019050919050565b6000819050602082019050919050565b600081519050919050565b6000602082019050919050565b600082825260208201905092915050565b600081905092915050565b600082825260208201905092915050565b60006118d7826119bf565b91506118e2836119bf565b9250826118f2576118f1611a7e565b5b828204905092915050565b6000611908826119bf565b9150611913836119bf565b9250817fffffffffffffffffffffffffffffffffffffffffffffffffffffffffffffffff048311821515161561194c5761194b611a4f565b5b828202905092915050565b60006119628261199f565b9050919050565b60006119748261199f565b9050919050565b60008115159050919050565b6000819050919050565b600061ffff82169050919050565b600073ffffffffffffffffffffffffffffffffffffffff82169050919050565b6000819050919050565b600063ffffffff82169050919050565b600067ffffffffffffffff82169050919050565b6119f682611b1f565b810181811067ffffffffffffffff82111715611a1557611a14611adc565b5b80604052505050565b6000611a29826119bf565b9150611a34836119bf565b925082611a4457611a43611a7e565b5b828206905092915050565b7f4e487b7100000000000000000000000000000000000000000000000000000000600052601160045260246000fd5b7f4e487b7100000000000000000000000000000000000000000000000000000000600052601260045260246000fd5b7f4e487b7100000000000000000000000000000000000000000000000000000000600052603260045260246000fd5b7f4e487b7100000000000000000000000000000000000000000000000000000000600052604160045260246000fd5b600080fd5b600080fd5b600080fd5b600080fd5b6000601f19601f8301169050919050565b7f72657175657374206e6f7420666f756e64000000000000000000000000000000600082015250565b7f4d7573742062652070726f706f736564206f776e657200000000000000000000600082015250565b7f4f6e6c792063616c6c61626c65206279206f776e657200000000000000000000600082015250565b7f436173696e6f3a2057696e6e696e67207061796f7574206661696c6564000000600082015250565b7f42657420616e792076616c7565206265747765656e203120746f203600000000600082015250565b7f54686973206265742065786365656473206d6178696d756d20706f737369626c60008201527f6520626574000000000000000000000000000000000000000000000000000000602082015250565b50565b7f43616e6e6f74207472616e7366657220746f2073656c66000000000000000000600082015250565b611c8181611957565b8114611c8c57600080fd5b50565b611c98816119bf565b8114611ca357600080fd5b5056fea2646970667358221220e5e6349a200358c03453834638bdd5403c36a4df47b91d5c427f277b83bbd02b64736f6c63430008070033",
					"opcodes": "PUSH1 0xA0 PUSH1 0x40 MSTORE PUSH32 0x79D3D8832D904592C0BF9818B621522C988BB8B0C05CDC3B15AEA1B6E8DB0C15 PUSH1 0x0 SHL PUSH1 0x6 SSTORE PUSH3 0x186A0 PUSH1 0x7 PUSH1 0x0 PUSH2 0x100 EXP DUP2 SLOAD DUP2 PUSH4 0xFFFFFFFF MUL NOT AND SWAP1 DUP4 PUSH4 0xFFFFFFFF AND MUL OR SWAP1 SSTORE POP PUSH1 0x3 PUSH1 0x7 PUSH1 0x4 PUSH2 0x100 EXP DUP2 SLOAD DUP2 PUSH2 0xFFFF MUL NOT AND SWAP1 DUP4 PUSH2 0xFFFF AND MUL OR SWAP1 SSTORE POP PUSH1 0x1 PUSH1 0x7 PUSH1 0x6 PUSH2 0x100 EXP DUP2 SLOAD DUP2 PUSH4 0xFFFFFFFF MUL NOT AND SWAP1 DUP4 PUSH4 0xFFFFFFFF AND MUL OR SWAP1 SSTORE POP PUSH8 0xDE0B6B3A7640000 PUSH1 0xA SSTORE PUSH2 0x3E8 PUSH1 0xB SSTORE CALLVALUE DUP1 ISZERO PUSH3 0xAE JUMPI PUSH1 0x0 DUP1 REVERT JUMPDEST POP PUSH1 0x40 MLOAD PUSH3 0x228B CODESIZE SUB DUP1 PUSH3 0x228B DUP4 CODECOPY DUP2 DUP2 ADD PUSH1 0x40 MSTORE DUP2 ADD SWAP1 PUSH3 0xD4 SWAP2 SWAP1 PUSH3 0x42F JUMP JUMPDEST CALLER DUP1 PUSH1 0x0 PUSH20 0x2CA8E0C643BDE4C2E08AB1FA0DA3401ADAD7734D DUP1 PUSH20 0xFFFFFFFFFFFFFFFFFFFFFFFFFFFFFFFFFFFFFFFF AND PUSH1 0x80 DUP2 PUSH20 0xFFFFFFFFFFFFFFFFFFFFFFFFFFFFFFFFFFFFFFFF AND PUSH1 0x60 SHL DUP2 MSTORE POP POP POP PUSH1 0x0 PUSH20 0xFFFFFFFFFFFFFFFFFFFFFFFFFFFFFFFFFFFFFFFF AND DUP3 PUSH20 0xFFFFFFFFFFFFFFFFFFFFFFFFFFFFFFFFFFFFFFFF AND EQ ISZERO PUSH3 0x198 JUMPI PUSH1 0x40 MLOAD PUSH32 0x8C379A000000000000000000000000000000000000000000000000000000000 DUP2 MSTORE PUSH1 0x4 ADD PUSH3 0x18F SWAP1 PUSH3 0x4AF JUMP JUMPDEST PUSH1 0x40 MLOAD DUP1 SWAP2 SUB SWAP1 REVERT JUMPDEST DUP2 PUSH1 0x0 DUP1 PUSH2 0x100 EXP DUP2 SLOAD DUP2 PUSH20 0xFFFFFFFFFFFFFFFFFFFFFFFFFFFFFFFFFFFFFFFF MUL NOT AND SWAP1 DUP4 PUSH20 0xFFFFFFFFFFFFFFFFFFFFFFFFFFFFFFFFFFFFFFFF AND MUL OR SWAP1 SSTORE POP PUSH1 0x0 PUSH20 0xFFFFFFFFFFFFFFFFFFFFFFFFFFFFFFFFFFFFFFFF AND DUP2 PUSH20 0xFFFFFFFFFFFFFFFFFFFFFFFFFFFFFFFFFFFFFFFF AND EQ PUSH3 0x21F JUMPI PUSH3 0x21E DUP2 PUSH3 0x2E8 PUSH1 0x20 SHL PUSH1 0x20 SHR JUMP JUMPDEST JUMPDEST POP POP POP PUSH20 0x2CA8E0C643BDE4C2E08AB1FA0DA3401ADAD7734D PUSH1 0x3 PUSH1 0x0 PUSH2 0x100 EXP DUP2 SLOAD DUP2 PUSH20 0xFFFFFFFFFFFFFFFFFFFFFFFFFFFFFFFFFFFFFFFF MUL NOT AND SWAP1 DUP4 PUSH20 0xFFFFFFFFFFFFFFFFFFFFFFFFFFFFFFFFFFFFFFFF AND MUL OR SWAP1 SSTORE POP DUP1 PUSH1 0x3 PUSH1 0x14 PUSH2 0x100 EXP DUP2 SLOAD DUP2 PUSH8 0xFFFFFFFFFFFFFFFF MUL NOT AND SWAP1 DUP4 PUSH8 0xFFFFFFFFFFFFFFFF AND MUL OR SWAP1 SSTORE POP CALLER PUSH1 0x7 PUSH1 0xA PUSH2 0x100 EXP DUP2 SLOAD DUP2 PUSH20 0xFFFFFFFFFFFFFFFFFFFFFFFFFFFFFFFFFFFFFFFF MUL NOT AND SWAP1 DUP4 PUSH20 0xFFFFFFFFFFFFFFFFFFFFFFFFFFFFFFFFFFFFFFFF AND MUL OR SWAP1 SSTORE POP POP PUSH3 0x589 JUMP JUMPDEST CALLER PUSH20 0xFFFFFFFFFFFFFFFFFFFFFFFFFFFFFFFFFFFFFFFF AND DUP2 PUSH20 0xFFFFFFFFFFFFFFFFFFFFFFFFFFFFFFFFFFFFFFFF AND EQ ISZERO PUSH3 0x35A JUMPI PUSH1 0x40 MLOAD PUSH32 0x8C379A000000000000000000000000000000000000000000000000000000000 DUP2 MSTORE PUSH1 0x4 ADD PUSH3 0x351 SWAP1 PUSH3 0x4D1 JUMP JUMPDEST PUSH1 0x40 MLOAD DUP1 SWAP2 SUB SWAP1 REVERT JUMPDEST DUP1 PUSH1 0x1 PUSH1 0x0 PUSH2 0x100 EXP DUP2 SLOAD DUP2 PUSH20 0xFFFFFFFFFFFFFFFFFFFFFFFFFFFFFFFFFFFFFFFF MUL NOT AND SWAP1 DUP4 PUSH20 0xFFFFFFFFFFFFFFFFFFFFFFFFFFFFFFFFFFFFFFFF AND MUL OR SWAP1 SSTORE POP DUP1 PUSH20 0xFFFFFFFFFFFFFFFFFFFFFFFFFFFFFFFFFFFFFFFF AND PUSH1 0x0 DUP1 SLOAD SWAP1 PUSH2 0x100 EXP SWAP1 DIV PUSH20 0xFFFFFFFFFFFFFFFFFFFFFFFFFFFFFFFFFFFFFFFF AND PUSH20 0xFFFFFFFFFFFFFFFFFFFFFFFFFFFFFFFFFFFFFFFF AND PUSH32 0xED8889F560326EB138920D842192F0EB3DD22B4F139C87A2C57538E05BAE1278 PUSH1 0x40 MLOAD PUSH1 0x40 MLOAD DUP1 SWAP2 SUB SWAP1 LOG3 POP JUMP JUMPDEST PUSH1 0x0 DUP2 MLOAD SWAP1 POP PUSH3 0x429 DUP2 PUSH3 0x56F JUMP JUMPDEST SWAP3 SWAP2 POP POP JUMP JUMPDEST PUSH1 0x0 PUSH1 0x20 DUP3 DUP5 SUB SLT ISZERO PUSH3 0x448 JUMPI PUSH3 0x447 PUSH3 0x518 JUMP JUMPDEST JUMPDEST PUSH1 0x0 PUSH3 0x458 DUP5 DUP3 DUP6 ADD PUSH3 0x418 JUMP JUMPDEST SWAP2 POP POP SWAP3 SWAP2 POP POP JUMP JUMPDEST PUSH1 0x0 PUSH3 0x470 PUSH1 0x18 DUP4 PUSH3 0x4F3 JUMP JUMPDEST SWAP2 POP PUSH3 0x47D DUP3 PUSH3 0x51D JUMP JUMPDEST PUSH1 0x20 DUP3 ADD SWAP1 POP SWAP2 SWAP1 POP JUMP JUMPDEST PUSH1 0x0 PUSH3 0x497 PUSH1 0x17 DUP4 PUSH3 0x4F3 JUMP JUMPDEST SWAP2 POP PUSH3 0x4A4 DUP3 PUSH3 0x546 JUMP JUMPDEST PUSH1 0x20 DUP3 ADD SWAP1 POP SWAP2 SWAP1 POP JUMP JUMPDEST PUSH1 0x0 PUSH1 0x20 DUP3 ADD SWAP1 POP DUP2 DUP2 SUB PUSH1 0x0 DUP4 ADD MSTORE PUSH3 0x4CA DUP2 PUSH3 0x461 JUMP JUMPDEST SWAP1 POP SWAP2 SWAP1 POP JUMP JUMPDEST PUSH1 0x0 PUSH1 0x20 DUP3 ADD SWAP1 POP DUP2 DUP2 SUB PUSH1 0x0 DUP4 ADD MSTORE PUSH3 0x4EC DUP2 PUSH3 0x488 JUMP JUMPDEST SWAP1 POP SWAP2 SWAP1 POP JUMP JUMPDEST PUSH1 0x0 DUP3 DUP3 MSTORE PUSH1 0x20 DUP3 ADD SWAP1 POP SWAP3 SWAP2 POP POP JUMP JUMPDEST PUSH1 0x0 PUSH8 0xFFFFFFFFFFFFFFFF DUP3 AND SWAP1 POP SWAP2 SWAP1 POP JUMP JUMPDEST PUSH1 0x0 DUP1 REVERT JUMPDEST PUSH32 0x43616E6E6F7420736574206F776E657220746F207A65726F0000000000000000 PUSH1 0x0 DUP3 ADD MSTORE POP JUMP JUMPDEST PUSH32 0x43616E6E6F74207472616E7366657220746F2073656C66000000000000000000 PUSH1 0x0 DUP3 ADD MSTORE POP JUMP JUMPDEST PUSH3 0x57A DUP2 PUSH3 0x504 JUMP JUMPDEST DUP2 EQ PUSH3 0x586 JUMPI PUSH1 0x0 DUP1 REVERT JUMPDEST POP JUMP JUMPDEST PUSH1 0x80 MLOAD PUSH1 0x60 SHR PUSH2 0x1CDC PUSH3 0x5AF PUSH1 0x0 CODECOPY PUSH1 0x0 DUP2 DUP2 PUSH2 0x462 ADD MSTORE PUSH2 0x4B6 ADD MSTORE PUSH2 0x1CDC PUSH1 0x0 RETURN INVALID PUSH1 0x80 PUSH1 0x40 MSTORE PUSH1 0x4 CALLDATASIZE LT PUSH2 0xFE JUMPI PUSH1 0x0 CALLDATALOAD PUSH1 0xE0 SHR DUP1 PUSH4 0x9403E8DD GT PUSH2 0x95 JUMPI DUP1 PUSH4 0xC17BCDEE GT PUSH2 0x64 JUMPI DUP1 PUSH4 0xC17BCDEE EQ PUSH2 0x2F8 JUMPI DUP1 PUSH4 0xD8A4676F EQ PUSH2 0x323 JUMPI DUP1 PUSH4 0xE0C86289 EQ PUSH2 0x361 JUMPI DUP1 PUSH4 0xF2FDE38B EQ PUSH2 0x38C JUMPI DUP1 PUSH4 0xFC2A88C3 EQ PUSH2 0x3B5 JUMPI PUSH2 0xFE JUMP JUMPDEST DUP1 PUSH4 0x9403E8DD EQ PUSH2 0x25A JUMPI DUP1 PUSH4 0xA168FA89 EQ PUSH2 0x285 JUMPI DUP1 PUSH4 0xB163CC38 EQ PUSH2 0x2C3 JUMPI DUP1 PUSH4 0xBFB3047F EQ PUSH2 0x2CD JUMPI PUSH2 0xFE JUMP JUMPDEST DUP1 PUSH4 0x5873533D GT PUSH2 0xD1 JUMPI DUP1 PUSH4 0x5873533D EQ PUSH2 0x1BF JUMPI DUP1 PUSH4 0x79BA5097 EQ PUSH2 0x1DB JUMPI DUP1 PUSH4 0x8796BA8C EQ PUSH2 0x1F2 JUMPI DUP1 PUSH4 0x8DA5CB5B EQ PUSH2 0x22F JUMPI PUSH2 0xFE JUMP JUMPDEST DUP1 PUSH4 0xD6F8563 EQ PUSH2 0x103 JUMPI DUP1 PUSH4 0x1FE543E3 EQ PUSH2 0x12C JUMPI DUP1 PUSH4 0x2E5B2168 EQ PUSH2 0x155 JUMPI DUP1 PUSH4 0x34461067 EQ PUSH2 0x180 JUMPI JUMPDEST PUSH1 0x0 DUP1 REVERT JUMPDEST CALLVALUE DUP1 ISZERO PUSH2 0x10F JUMPI PUSH1 0x0 DUP1 REVERT JUMPDEST POP PUSH2 0x12A PUSH1 0x4 DUP1 CALLDATASIZE SUB DUP2 ADD SWAP1 PUSH2 0x125 SWAP2 SWAP1 PUSH2 0x12B0 JUMP JUMPDEST PUSH2 0x3E0 JUMP JUMPDEST STOP JUMPDEST CALLVALUE DUP1 ISZERO PUSH2 0x138 JUMPI PUSH1 0x0 DUP1 REVERT JUMPDEST POP PUSH2 0x153 PUSH1 0x4 DUP1 CALLDATASIZE SUB DUP2 ADD SWAP1 PUSH2 0x14E SWAP2 SWAP1 PUSH2 0x130A JUMP JUMPDEST PUSH2 0x460 JUMP JUMPDEST STOP JUMPDEST CALLVALUE DUP1 ISZERO PUSH2 0x161 JUMPI PUSH1 0x0 DUP1 REVERT JUMPDEST POP PUSH2 0x16A PUSH2 0x520 JUMP JUMPDEST PUSH1 0x40 MLOAD PUSH2 0x177 SWAP2 SWAP1 PUSH2 0x17B2 JUMP JUMPDEST PUSH1 0x40 MLOAD DUP1 SWAP2 SUB SWAP1 RETURN JUMPDEST CALLVALUE DUP1 ISZERO PUSH2 0x18C JUMPI PUSH1 0x0 DUP1 REVERT JUMPDEST POP PUSH2 0x1A7 PUSH1 0x4 DUP1 CALLDATASIZE SUB DUP2 ADD SWAP1 PUSH2 0x1A2 SWAP2 SWAP1 PUSH2 0x12B0 JUMP JUMPDEST PUSH2 0x526 JUMP JUMPDEST PUSH1 0x40 MLOAD PUSH2 0x1B6 SWAP4 SWAP3 SWAP2 SWAP1 PUSH2 0x15C6 JUMP JUMPDEST PUSH1 0x40 MLOAD DUP1 SWAP2 SUB SWAP1 RETURN JUMPDEST PUSH2 0x1D9 PUSH1 0x4 DUP1 CALLDATASIZE SUB DUP2 ADD SWAP1 PUSH2 0x1D4 SWAP2 SWAP1 PUSH2 0x12B0 JUMP JUMPDEST PUSH2 0x570 JUMP JUMPDEST STOP JUMPDEST CALLVALUE DUP1 ISZERO PUSH2 0x1E7 JUMPI PUSH1 0x0 DUP1 REVERT JUMPDEST POP PUSH2 0x1F0 PUSH2 0x6C3 JUMP JUMPDEST STOP JUMPDEST CALLVALUE DUP1 ISZERO PUSH2 0x1FE JUMPI PUSH1 0x0 DUP1 REVERT JUMPDEST POP PUSH2 0x219 PUSH1 0x4 DUP1 CALLDATASIZE SUB DUP2 ADD SWAP1 PUSH2 0x214 SWAP2 SWAP1 PUSH2 0x12B0 JUMP JUMPDEST PUSH2 0x858 JUMP JUMPDEST PUSH1 0x40 MLOAD PUSH2 0x226 SWAP2 SWAP1 PUSH2 0x17B2 JUMP JUMPDEST PUSH1 0x40 MLOAD DUP1 SWAP2 SUB SWAP1 RETURN JUMPDEST CALLVALUE DUP1 ISZERO PUSH2 0x23B JUMPI PUSH1 0x0 DUP1 REVERT JUMPDEST POP PUSH2 0x244 PUSH2 0x87C JUMP JUMPDEST PUSH1 0x40 MLOAD PUSH2 0x251 SWAP2 SWAP1 PUSH2 0x1590 JUMP JUMPDEST PUSH1 0x40 MLOAD DUP1 SWAP2 SUB SWAP1 RETURN JUMPDEST CALLVALUE DUP1 ISZERO PUSH2 0x266 JUMPI PUSH1 0x0 DUP1 REVERT JUMPDEST POP PUSH2 0x26F PUSH2 0x8A5 JUMP JUMPDEST PUSH1 0x40 MLOAD PUSH2 0x27C SWAP2 SWAP1 PUSH2 0x15AB JUMP JUMPDEST PUSH1 0x40 MLOAD DUP1 SWAP2 SUB SWAP1 RETURN JUMPDEST CALLVALUE DUP1 ISZERO PUSH2 0x291 JUMPI PUSH1 0x0 DUP1 REVERT JUMPDEST POP PUSH2 0x2AC PUSH1 0x4 DUP1 CALLDATASIZE SUB DUP2 ADD SWAP1 PUSH2 0x2A7 SWAP2 SWAP1 PUSH2 0x12B0 JUMP JUMPDEST PUSH2 0x8CB JUMP JUMPDEST PUSH1 0x40 MLOAD PUSH2 0x2BA SWAP3 SWAP2 SWAP1 PUSH2 0x1656 JUMP JUMPDEST PUSH1 0x40 MLOAD DUP1 SWAP2 SUB SWAP1 RETURN JUMPDEST PUSH2 0x2CB PUSH2 0x909 JUMP JUMPDEST STOP JUMPDEST CALLVALUE DUP1 ISZERO PUSH2 0x2D9 JUMPI PUSH1 0x0 DUP1 REVERT JUMPDEST POP PUSH2 0x2E2 PUSH2 0x91F JUMP JUMPDEST PUSH1 0x40 MLOAD PUSH2 0x2EF SWAP2 SWAP1 PUSH2 0x17B2 JUMP JUMPDEST PUSH1 0x40 MLOAD DUP1 SWAP2 SUB SWAP1 RETURN JUMPDEST CALLVALUE DUP1 ISZERO PUSH2 0x304 JUMPI PUSH1 0x0 DUP1 REVERT JUMPDEST POP PUSH2 0x30D PUSH2 0x925 JUMP JUMPDEST PUSH1 0x40 MLOAD PUSH2 0x31A SWAP2 SWAP1 PUSH2 0x17B2 JUMP JUMPDEST PUSH1 0x40 MLOAD DUP1 SWAP2 SUB SWAP1 RETURN JUMPDEST CALLVALUE DUP1 ISZERO PUSH2 0x32F JUMPI PUSH1 0x0 DUP1 REVERT JUMPDEST POP PUSH2 0x34A PUSH1 0x4 DUP1 CALLDATASIZE SUB DUP2 ADD SWAP1 PUSH2 0x345 SWAP2 SWAP1 PUSH2 0x12B0 JUMP JUMPDEST PUSH2 0x92B JUMP JUMPDEST PUSH1 0x40 MLOAD PUSH2 0x358 SWAP3 SWAP2 SWAP1 PUSH2 0x1626 JUMP JUMPDEST PUSH1 0x40 MLOAD DUP1 SWAP2 SUB SWAP1 RETURN JUMPDEST CALLVALUE DUP1 ISZERO PUSH2 0x36D JUMPI PUSH1 0x0 DUP1 REVERT JUMPDEST POP PUSH2 0x376 PUSH2 0xA56 JUMP JUMPDEST PUSH1 0x40 MLOAD PUSH2 0x383 SWAP2 SWAP1 PUSH2 0x17B2 JUMP JUMPDEST PUSH1 0x40 MLOAD DUP1 SWAP2 SUB SWAP1 RETURN JUMPDEST CALLVALUE DUP1 ISZERO PUSH2 0x398 JUMPI PUSH1 0x0 DUP1 REVERT JUMPDEST POP PUSH2 0x3B3 PUSH1 0x4 DUP1 CALLDATASIZE SUB DUP2 ADD SWAP1 PUSH2 0x3AE SWAP2 SWAP1 PUSH2 0x1283 JUMP JUMPDEST PUSH2 0xCBE JUMP JUMPDEST STOP JUMPDEST CALLVALUE DUP1 ISZERO PUSH2 0x3C1 JUMPI PUSH1 0x0 DUP1 REVERT JUMPDEST POP PUSH2 0x3CA PUSH2 0xCD2 JUMP JUMPDEST PUSH1 0x40 MLOAD PUSH2 0x3D7 SWAP2 SWAP1 PUSH2 0x17B2 JUMP JUMPDEST PUSH1 0x40 MLOAD DUP1 SWAP2 SUB SWAP1 RETURN JUMPDEST PUSH1 0x7 PUSH1 0xA SWAP1 SLOAD SWAP1 PUSH2 0x100 EXP SWAP1 DIV PUSH20 0xFFFFFFFFFFFFFFFFFFFFFFFFFFFFFFFFFFFFFFFF AND PUSH20 0xFFFFFFFFFFFFFFFFFFFFFFFFFFFFFFFFFFFFFFFF AND PUSH2 0x8FC DUP3 SWAP1 DUP2 ISZERO MUL SWAP1 PUSH1 0x40 MLOAD PUSH1 0x0 PUSH1 0x40 MLOAD DUP1 DUP4 SUB DUP2 DUP6 DUP9 DUP9 CALL SWAP4 POP POP POP POP ISZERO DUP1 ISZERO PUSH2 0x448 JUMPI RETURNDATASIZE PUSH1 0x0 DUP1 RETURNDATACOPY RETURNDATASIZE PUSH1 0x0 REVERT JUMPDEST POP PUSH1 0xB SLOAD SELFBALANCE PUSH2 0x457 SWAP2 SWAP1 PUSH2 0x18CC JUMP JUMPDEST PUSH1 0xA DUP2 SWAP1 SSTORE POP POP JUMP JUMPDEST PUSH32 0x0 PUSH20 0xFFFFFFFFFFFFFFFFFFFFFFFFFFFFFFFFFFFFFFFF AND CALLER PUSH20 0xFFFFFFFFFFFFFFFFFFFFFFFFFFFFFFFFFFFFFFFF AND EQ PUSH2 0x512 JUMPI CALLER PUSH32 0x0 PUSH1 0x40 MLOAD PUSH32 0x1CF993F400000000000000000000000000000000000000000000000000000000 DUP2 MSTORE PUSH1 0x4 ADD PUSH2 0x509 SWAP3 SWAP2 SWAP1 PUSH2 0x15FD JUMP JUMPDEST PUSH1 0x40 MLOAD DUP1 SWAP2 SUB SWAP1 REVERT JUMPDEST PUSH2 0x51C DUP3 DUP3 PUSH2 0xCD8 JUMP JUMPDEST POP POP JUMP JUMPDEST PUSH1 0xA SLOAD DUP2 JUMP JUMPDEST PUSH1 0x8 PUSH1 0x20 MSTORE DUP1 PUSH1 0x0 MSTORE PUSH1 0x40 PUSH1 0x0 KECCAK256 PUSH1 0x0 SWAP2 POP SWAP1 POP DUP1 PUSH1 0x0 ADD PUSH1 0x0 SWAP1 SLOAD SWAP1 PUSH2 0x100 EXP SWAP1 DIV PUSH20 0xFFFFFFFFFFFFFFFFFFFFFFFFFFFFFFFFFFFFFFFF AND SWAP1 DUP1 PUSH1 0x1 ADD SLOAD SWAP1 DUP1 PUSH1 0x2 ADD SLOAD SWAP1 POP DUP4 JUMP JUMPDEST PUSH1 0xA SLOAD CALLVALUE GT ISZERO PUSH2 0x5B5 JUMPI PUSH1 0x40 MLOAD PUSH32 0x8C379A000000000000000000000000000000000000000000000000000000000 DUP2 MSTORE PUSH1 0x4 ADD PUSH2 0x5AC SWAP1 PUSH2 0x1772 JUMP JUMPDEST PUSH1 0x40 MLOAD DUP1 SWAP2 SUB SWAP1 REVERT JUMPDEST PUSH1 0x6 DUP2 GT ISZERO DUP1 ISZERO PUSH2 0x5C6 JUMPI POP PUSH1 0x0 DUP2 GT JUMPDEST PUSH2 0x605 JUMPI PUSH1 0x40 MLOAD PUSH32 0x8C379A000000000000000000000000000000000000000000000000000000000 DUP2 MSTORE PUSH1 0x4 ADD PUSH2 0x5FC SWAP1 PUSH2 0x1752 JUMP JUMPDEST PUSH1 0x40 MLOAD DUP1 SWAP2 SUB SWAP1 REVERT JUMPDEST PUSH1 0x0 CALLER SWAP1 POP PUSH1 0x0 PUSH2 0x614 PUSH2 0xA56 JUMP JUMPDEST SWAP1 POP PUSH1 0x0 PUSH1 0x40 MLOAD DUP1 PUSH1 0x60 ADD PUSH1 0x40 MSTORE DUP1 DUP5 PUSH20 0xFFFFFFFFFFFFFFFFFFFFFFFFFFFFFFFFFFFFFFFF AND DUP2 MSTORE PUSH1 0x20 ADD DUP6 DUP2 MSTORE PUSH1 0x20 ADD CALLVALUE DUP2 MSTORE POP SWAP1 POP DUP1 PUSH1 0x8 PUSH1 0x0 DUP5 DUP2 MSTORE PUSH1 0x20 ADD SWAP1 DUP2 MSTORE PUSH1 0x20 ADD PUSH1 0x0 KECCAK256 PUSH1 0x0 DUP3 ADD MLOAD DUP2 PUSH1 0x0 ADD PUSH1 0x0 PUSH2 0x100 EXP DUP2 SLOAD DUP2 PUSH20 0xFFFFFFFFFFFFFFFFFFFFFFFFFFFFFFFFFFFFFFFF MUL NOT AND SWAP1 DUP4 PUSH20 0xFFFFFFFFFFFFFFFFFFFFFFFFFFFFFFFFFFFFFFFF AND MUL OR SWAP1 SSTORE POP PUSH1 0x20 DUP3 ADD MLOAD DUP2 PUSH1 0x1 ADD SSTORE PUSH1 0x40 DUP3 ADD MLOAD DUP2 PUSH1 0x2 ADD SSTORE SWAP1 POP POP POP POP POP POP JUMP JUMPDEST PUSH1 0x1 PUSH1 0x0 SWAP1 SLOAD SWAP1 PUSH2 0x100 EXP SWAP1 DIV PUSH20 0xFFFFFFFFFFFFFFFFFFFFFFFFFFFFFFFFFFFFFFFF AND PUSH20 0xFFFFFFFFFFFFFFFFFFFFFFFFFFFFFFFFFFFFFFFF AND CALLER PUSH20 0xFFFFFFFFFFFFFFFFFFFFFFFFFFFFFFFFFFFFFFFF AND EQ PUSH2 0x753 JUMPI PUSH1 0x40 MLOAD PUSH32 0x8C379A000000000000000000000000000000000000000000000000000000000 DUP2 MSTORE PUSH1 0x4 ADD PUSH2 0x74A SWAP1 PUSH2 0x16F2 JUMP JUMPDEST PUSH1 0x40 MLOAD DUP1 SWAP2 SUB SWAP1 REVERT JUMPDEST PUSH1 0x0 DUP1 PUSH1 0x0 SWAP1 SLOAD SWAP1 PUSH2 0x100 EXP SWAP1 DIV PUSH20 0xFFFFFFFFFFFFFFFFFFFFFFFFFFFFFFFFFFFFFFFF AND SWAP1 POP CALLER PUSH1 0x0 DUP1 PUSH2 0x100 EXP DUP2 SLOAD DUP2 PUSH20 0xFFFFFFFFFFFFFFFFFFFFFFFFFFFFFFFFFFFFFFFF MUL NOT AND SWAP1 DUP4 PUSH20 0xFFFFFFFFFFFFFFFFFFFFFFFFFFFFFFFFFFFFFFFF AND MUL OR SWAP1 SSTORE POP PUSH1 0x0 PUSH1 0x1 PUSH1 0x0 PUSH2 0x100 EXP DUP2 SLOAD DUP2 PUSH20 0xFFFFFFFFFFFFFFFFFFFFFFFFFFFFFFFFFFFFFFFF MUL NOT AND SWAP1 DUP4 PUSH20 0xFFFFFFFFFFFFFFFFFFFFFFFFFFFFFFFFFFFFFFFF AND MUL OR SWAP1 SSTORE POP CALLER PUSH20 0xFFFFFFFFFFFFFFFFFFFFFFFFFFFFFFFFFFFFFFFF AND DUP2 PUSH20 0xFFFFFFFFFFFFFFFFFFFFFFFFFFFFFFFFFFFFFFFF AND PUSH32 0x8BE0079C531659141344CD1FD0A4F28419497F9722A3DAAFE3B4186F6B6457E0 PUSH1 0x40 MLOAD PUSH1 0x40 MLOAD DUP1 SWAP2 SUB SWAP1 LOG3 POP JUMP JUMPDEST PUSH1 0x4 DUP2 DUP2 SLOAD DUP2 LT PUSH2 0x868 JUMPI PUSH1 0x0 DUP1 REVERT JUMPDEST SWAP1 PUSH1 0x0 MSTORE PUSH1 0x20 PUSH1 0x0 KECCAK256 ADD PUSH1 0x0 SWAP2 POP SWAP1 POP SLOAD DUP2 JUMP JUMPDEST PUSH1 0x0 DUP1 PUSH1 0x0 SWAP1 SLOAD SWAP1 PUSH2 0x100 EXP SWAP1 DIV PUSH20 0xFFFFFFFFFFFFFFFFFFFFFFFFFFFFFFFFFFFFFFFF AND SWAP1 POP SWAP1 JUMP JUMPDEST PUSH1 0x7 PUSH1 0xA SWAP1 SLOAD SWAP1 PUSH2 0x100 EXP SWAP1 DIV PUSH20 0xFFFFFFFFFFFFFFFFFFFFFFFFFFFFFFFFFFFFFFFF AND DUP2 JUMP JUMPDEST PUSH1 0x2 PUSH1 0x20 MSTORE DUP1 PUSH1 0x0 MSTORE PUSH1 0x40 PUSH1 0x0 KECCAK256 PUSH1 0x0 SWAP2 POP SWAP1 POP DUP1 PUSH1 0x0 ADD PUSH1 0x0 SWAP1 SLOAD SWAP1 PUSH2 0x100 EXP SWAP1 DIV PUSH1 0xFF AND SWAP1 DUP1 PUSH1 0x0 ADD PUSH1 0x1 SWAP1 SLOAD SWAP1 PUSH2 0x100 EXP SWAP1 DIV PUSH1 0xFF AND SWAP1 POP DUP3 JUMP JUMPDEST PUSH1 0xB SLOAD SELFBALANCE PUSH2 0x917 SWAP2 SWAP1 PUSH2 0x18CC JUMP JUMPDEST PUSH1 0xA DUP2 SWAP1 SSTORE POP JUMP JUMPDEST PUSH1 0x9 SLOAD DUP2 JUMP JUMPDEST PUSH1 0xB SLOAD DUP2 JUMP JUMPDEST PUSH1 0x0 PUSH1 0x60 PUSH1 0x2 PUSH1 0x0 DUP5 DUP2 MSTORE PUSH1 0x20 ADD SWAP1 DUP2 MSTORE PUSH1 0x20 ADD PUSH1 0x0 KECCAK256 PUSH1 0x0 ADD PUSH1 0x1 SWAP1 SLOAD SWAP1 PUSH2 0x100 EXP SWAP1 DIV PUSH1 0xFF AND PUSH2 0x992 JUMPI PUSH1 0x40 MLOAD PUSH32 0x8C379A000000000000000000000000000000000000000000000000000000000 DUP2 MSTORE PUSH1 0x4 ADD PUSH2 0x989 SWAP1 PUSH2 0x16D2 JUMP JUMPDEST PUSH1 0x40 MLOAD DUP1 SWAP2 SUB SWAP1 REVERT JUMPDEST PUSH1 0x0 PUSH1 0x2 PUSH1 0x0 DUP6 DUP2 MSTORE PUSH1 0x20 ADD SWAP1 DUP2 MSTORE PUSH1 0x20 ADD PUSH1 0x0 KECCAK256 PUSH1 0x40 MLOAD DUP1 PUSH1 0x60 ADD PUSH1 0x40 MSTORE SWAP1 DUP2 PUSH1 0x0 DUP3 ADD PUSH1 0x0 SWAP1 SLOAD SWAP1 PUSH2 0x100 EXP SWAP1 DIV PUSH1 0xFF AND ISZERO ISZERO ISZERO ISZERO DUP2 MSTORE PUSH1 0x20 ADD PUSH1 0x0 DUP3 ADD PUSH1 0x1 SWAP1 SLOAD SWAP1 PUSH2 0x100 EXP SWAP1 DIV PUSH1 0xFF AND ISZERO ISZERO ISZERO ISZERO DUP2 MSTORE PUSH1 0x20 ADD PUSH1 0x1 DUP3 ADD DUP1 SLOAD DUP1 PUSH1 0x20 MUL PUSH1 0x20 ADD PUSH1 0x40 MLOAD SWAP1 DUP2 ADD PUSH1 0x40 MSTORE DUP1 SWAP3 SWAP2 SWAP1 DUP2 DUP2 MSTORE PUSH1 0x20 ADD DUP3 DUP1 SLOAD DUP1 ISZERO PUSH2 0xA37 JUMPI PUSH1 0x20 MUL DUP3 ADD SWAP2 SWAP1 PUSH1 0x0 MSTORE PUSH1 0x20 PUSH1 0x0 KECCAK256 SWAP1 JUMPDEST DUP2 SLOAD DUP2 MSTORE PUSH1 0x20 ADD SWAP1 PUSH1 0x1 ADD SWAP1 DUP1 DUP4 GT PUSH2 0xA23 JUMPI JUMPDEST POP POP POP POP POP DUP2 MSTORE POP POP SWAP1 POP DUP1 PUSH1 0x0 ADD MLOAD DUP2 PUSH1 0x40 ADD MLOAD SWAP3 POP SWAP3 POP POP SWAP2 POP SWAP2 JUMP JUMPDEST PUSH1 0x0 PUSH2 0xA60 PUSH2 0xF7F JUMP JUMPDEST PUSH1 0x3 PUSH1 0x0 SWAP1 SLOAD SWAP1 PUSH2 0x100 EXP SWAP1 DIV PUSH20 0xFFFFFFFFFFFFFFFFFFFFFFFFFFFFFFFFFFFFFFFF AND PUSH20 0xFFFFFFFFFFFFFFFFFFFFFFFFFFFFFFFFFFFFFFFF AND PUSH4 0x5D3B1D30 PUSH1 0x6 SLOAD PUSH1 0x3 PUSH1 0x14 SWAP1 SLOAD SWAP1 PUSH2 0x100 EXP SWAP1 DIV PUSH8 0xFFFFFFFFFFFFFFFF AND PUSH1 0x7 PUSH1 0x4 SWAP1 SLOAD SWAP1 PUSH2 0x100 EXP SWAP1 DIV PUSH2 0xFFFF AND PUSH1 0x7 PUSH1 0x0 SWAP1 SLOAD SWAP1 PUSH2 0x100 EXP SWAP1 DIV PUSH4 0xFFFFFFFF AND PUSH1 0x7 PUSH1 0x6 SWAP1 SLOAD SWAP1 PUSH2 0x100 EXP SWAP1 DIV PUSH4 0xFFFFFFFF AND PUSH1 0x40 MLOAD DUP7 PUSH4 0xFFFFFFFF AND PUSH1 0xE0 SHL DUP2 MSTORE PUSH1 0x4 ADD PUSH2 0xB0F SWAP6 SWAP5 SWAP4 SWAP3 SWAP2 SWAP1 PUSH2 0x167F JUMP JUMPDEST PUSH1 0x20 PUSH1 0x40 MLOAD DUP1 DUP4 SUB DUP2 PUSH1 0x0 DUP8 DUP1 EXTCODESIZE ISZERO DUP1 ISZERO PUSH2 0xB29 JUMPI PUSH1 0x0 DUP1 REVERT JUMPDEST POP GAS CALL ISZERO DUP1 ISZERO PUSH2 0xB3D JUMPI RETURNDATASIZE PUSH1 0x0 DUP1 RETURNDATACOPY RETURNDATASIZE PUSH1 0x0 REVERT JUMPDEST POP POP POP POP PUSH1 0x40 MLOAD RETURNDATASIZE PUSH1 0x1F NOT PUSH1 0x1F DUP3 ADD AND DUP3 ADD DUP1 PUSH1 0x40 MSTORE POP DUP2 ADD SWAP1 PUSH2 0xB61 SWAP2 SWAP1 PUSH2 0x12DD JUMP JUMPDEST SWAP1 POP PUSH1 0x40 MLOAD DUP1 PUSH1 0x60 ADD PUSH1 0x40 MSTORE DUP1 PUSH1 0x0 ISZERO ISZERO DUP2 MSTORE PUSH1 0x20 ADD PUSH1 0x1 ISZERO ISZERO DUP2 MSTORE PUSH1 0x20 ADD PUSH1 0x0 PUSH8 0xFFFFFFFFFFFFFFFF DUP2 GT ISZERO PUSH2 0xB9B JUMPI PUSH2 0xB9A PUSH2 0x1ADC JUMP JUMPDEST JUMPDEST PUSH1 0x40 MLOAD SWAP1 DUP1 DUP3 MSTORE DUP1 PUSH1 0x20 MUL PUSH1 0x20 ADD DUP3 ADD PUSH1 0x40 MSTORE DUP1 ISZERO PUSH2 0xBC9 JUMPI DUP2 PUSH1 0x20 ADD PUSH1 0x20 DUP3 MUL DUP1 CALLDATASIZE DUP4 CALLDATACOPY DUP1 DUP3 ADD SWAP2 POP POP SWAP1 POP JUMPDEST POP DUP2 MSTORE POP PUSH1 0x2 PUSH1 0x0 DUP4 DUP2 MSTORE PUSH1 0x20 ADD SWAP1 DUP2 MSTORE PUSH1 0x20 ADD PUSH1 0x0 KECCAK256 PUSH1 0x0 DUP3 ADD MLOAD DUP2 PUSH1 0x0 ADD PUSH1 0x0 PUSH2 0x100 EXP DUP2 SLOAD DUP2 PUSH1 0xFF MUL NOT AND SWAP1 DUP4 ISZERO ISZERO MUL OR SWAP1 SSTORE POP PUSH1 0x20 DUP3 ADD MLOAD DUP2 PUSH1 0x0 ADD PUSH1 0x1 PUSH2 0x100 EXP DUP2 SLOAD DUP2 PUSH1 0xFF MUL NOT AND SWAP1 DUP4 ISZERO ISZERO MUL OR SWAP1 SSTORE POP PUSH1 0x40 DUP3 ADD MLOAD DUP2 PUSH1 0x1 ADD SWAP1 DUP1 MLOAD SWAP1 PUSH1 0x20 ADD SWAP1 PUSH2 0xC3C SWAP3 SWAP2 SWAP1 PUSH2 0x113C JUMP JUMPDEST POP SWAP1 POP POP PUSH1 0x4 DUP2 SWAP1 DUP1 PUSH1 0x1 DUP2 SLOAD ADD DUP1 DUP3 SSTORE DUP1 SWAP2 POP POP PUSH1 0x1 SWAP1 SUB SWAP1 PUSH1 0x0 MSTORE PUSH1 0x20 PUSH1 0x0 KECCAK256 ADD PUSH1 0x0 SWAP1 SWAP2 SWAP1 SWAP2 SWAP1 SWAP2 POP SSTORE DUP1 PUSH1 0x5 DUP2 SWAP1 SSTORE POP PUSH32 0xCC58B13AD3EAB50626C6A6300B1D139CD6EBB1688A7CCED9461C2F7E762665EE DUP2 PUSH1 0x7 PUSH1 0x6 SWAP1 SLOAD SWAP1 PUSH2 0x100 EXP SWAP1 DIV PUSH4 0xFFFFFFFF AND PUSH1 0x40 MLOAD PUSH2 0xCB3 SWAP3 SWAP2 SWAP1 PUSH2 0x17FD JUMP JUMPDEST PUSH1 0x40 MLOAD DUP1 SWAP2 SUB SWAP1 LOG1 SWAP1 JUMP JUMPDEST PUSH2 0xCC6 PUSH2 0xF7F JUMP JUMPDEST PUSH2 0xCCF DUP2 PUSH2 0x100F JUMP JUMPDEST POP JUMP JUMPDEST PUSH1 0x5 SLOAD DUP2 JUMP JUMPDEST PUSH1 0x2 PUSH1 0x0 DUP4 DUP2 MSTORE PUSH1 0x20 ADD SWAP1 DUP2 MSTORE PUSH1 0x20 ADD PUSH1 0x0 KECCAK256 PUSH1 0x0 ADD PUSH1 0x1 SWAP1 SLOAD SWAP1 PUSH2 0x100 EXP SWAP1 DIV PUSH1 0xFF AND PUSH2 0xD3B JUMPI PUSH1 0x40 MLOAD PUSH32 0x8C379A000000000000000000000000000000000000000000000000000000000 DUP2 MSTORE PUSH1 0x4 ADD PUSH2 0xD32 SWAP1 PUSH2 0x16D2 JUMP JUMPDEST PUSH1 0x40 MLOAD DUP1 SWAP2 SUB SWAP1 REVERT JUMPDEST PUSH1 0x1 PUSH1 0x2 PUSH1 0x0 DUP5 DUP2 MSTORE PUSH1 0x20 ADD SWAP1 DUP2 MSTORE PUSH1 0x20 ADD PUSH1 0x0 KECCAK256 PUSH1 0x0 ADD PUSH1 0x0 PUSH2 0x100 EXP DUP2 SLOAD DUP2 PUSH1 0xFF MUL NOT AND SWAP1 DUP4 ISZERO ISZERO MUL OR SWAP1 SSTORE POP DUP1 PUSH1 0x2 PUSH1 0x0 DUP5 DUP2 MSTORE PUSH1 0x20 ADD SWAP1 DUP2 MSTORE PUSH1 0x20 ADD PUSH1 0x0 KECCAK256 PUSH1 0x1 ADD SWAP1 DUP1 MLOAD SWAP1 PUSH1 0x20 ADD SWAP1 PUSH2 0xD94 SWAP3 SWAP2 SWAP1 PUSH2 0x113C JUMP JUMPDEST POP PUSH32 0xFE2E2D779DBA245964D4E3EF9B994BE63856FD568BF7D3CA9E224755CB1BD54D DUP3 DUP3 PUSH1 0x40 MLOAD PUSH2 0xDC6 SWAP3 SWAP2 SWAP1 PUSH2 0x17CD JUMP JUMPDEST PUSH1 0x40 MLOAD DUP1 SWAP2 SUB SWAP1 LOG1 PUSH1 0x0 DUP2 PUSH1 0x0 DUP2 MLOAD DUP2 LT PUSH2 0xDE4 JUMPI PUSH2 0xDE3 PUSH2 0x1AAD JUMP JUMPDEST JUMPDEST PUSH1 0x20 MUL PUSH1 0x20 ADD ADD MLOAD SWAP1 POP PUSH1 0x0 PUSH1 0x8 PUSH1 0x0 DUP6 DUP2 MSTORE PUSH1 0x20 ADD SWAP1 DUP2 MSTORE PUSH1 0x20 ADD PUSH1 0x0 KECCAK256 PUSH1 0x40 MLOAD DUP1 PUSH1 0x60 ADD PUSH1 0x40 MSTORE SWAP1 DUP2 PUSH1 0x0 DUP3 ADD PUSH1 0x0 SWAP1 SLOAD SWAP1 PUSH2 0x100 EXP SWAP1 DIV PUSH20 0xFFFFFFFFFFFFFFFFFFFFFFFFFFFFFFFFFFFFFFFF AND PUSH20 0xFFFFFFFFFFFFFFFFFFFFFFFFFFFFFFFFFFFFFFFF AND PUSH20 0xFFFFFFFFFFFFFFFFFFFFFFFFFFFFFFFFFFFFFFFF AND DUP2 MSTORE PUSH1 0x20 ADD PUSH1 0x1 DUP3 ADD SLOAD DUP2 MSTORE PUSH1 0x20 ADD PUSH1 0x2 DUP3 ADD SLOAD DUP2 MSTORE POP POP SWAP1 POP PUSH1 0x0 DUP2 PUSH1 0x40 ADD MLOAD SWAP1 POP PUSH1 0x0 DUP3 PUSH1 0x20 ADD MLOAD SWAP1 POP PUSH1 0x0 DUP4 PUSH1 0x0 ADD MLOAD SWAP1 POP PUSH1 0x0 PUSH1 0x6 DUP7 PUSH2 0xEA4 SWAP2 SWAP1 PUSH2 0x1A1E JUMP JUMPDEST SWAP1 POP DUP1 PUSH1 0x9 DUP2 SWAP1 SSTORE POP DUP3 DUP2 EQ ISZERO PUSH2 0xF75 JUMPI PUSH1 0x0 PUSH1 0x2 DUP6 PUSH2 0xEC4 SWAP2 SWAP1 PUSH2 0x18FD JUMP JUMPDEST SWAP1 POP PUSH1 0x0 DUP4 PUSH20 0xFFFFFFFFFFFFFFFFFFFFFFFFFFFFFFFFFFFFFFFF AND DUP3 PUSH1 0x40 MLOAD PUSH2 0xEEC SWAP1 PUSH2 0x157B JUMP JUMPDEST PUSH1 0x0 PUSH1 0x40 MLOAD DUP1 DUP4 SUB DUP2 DUP6 DUP8 GAS CALL SWAP3 POP POP POP RETURNDATASIZE DUP1 PUSH1 0x0 DUP2 EQ PUSH2 0xF29 JUMPI PUSH1 0x40 MLOAD SWAP2 POP PUSH1 0x1F NOT PUSH1 0x3F RETURNDATASIZE ADD AND DUP3 ADD PUSH1 0x40 MSTORE RETURNDATASIZE DUP3 MSTORE RETURNDATASIZE PUSH1 0x0 PUSH1 0x20 DUP5 ADD RETURNDATACOPY PUSH2 0xF2E JUMP JUMPDEST PUSH1 0x60 SWAP2 POP JUMPDEST POP POP SWAP1 POP DUP1 PUSH2 0xF72 JUMPI PUSH1 0x40 MLOAD PUSH32 0x8C379A000000000000000000000000000000000000000000000000000000000 DUP2 MSTORE PUSH1 0x4 ADD PUSH2 0xF69 SWAP1 PUSH2 0x1732 JUMP JUMPDEST PUSH1 0x40 MLOAD DUP1 SWAP2 SUB SWAP1 REVERT JUMPDEST POP POP JUMPDEST POP POP POP POP POP POP POP POP JUMP JUMPDEST PUSH1 0x0 DUP1 SLOAD SWAP1 PUSH2 0x100 EXP SWAP1 DIV PUSH20 0xFFFFFFFFFFFFFFFFFFFFFFFFFFFFFFFFFFFFFFFF AND PUSH20 0xFFFFFFFFFFFFFFFFFFFFFFFFFFFFFFFFFFFFFFFF AND CALLER PUSH20 0xFFFFFFFFFFFFFFFFFFFFFFFFFFFFFFFFFFFFFFFF AND EQ PUSH2 0x100D JUMPI PUSH1 0x40 MLOAD PUSH32 0x8C379A000000000000000000000000000000000000000000000000000000000 DUP2 MSTORE PUSH1 0x4 ADD PUSH2 0x1004 SWAP1 PUSH2 0x1712 JUMP JUMPDEST PUSH1 0x40 MLOAD DUP1 SWAP2 SUB SWAP1 REVERT JUMPDEST JUMP JUMPDEST CALLER PUSH20 0xFFFFFFFFFFFFFFFFFFFFFFFFFFFFFFFFFFFFFFFF AND DUP2 PUSH20 0xFFFFFFFFFFFFFFFFFFFFFFFFFFFFFFFFFFFFFFFF AND EQ ISZERO PUSH2 0x107E JUMPI PUSH1 0x40 MLOAD PUSH32 0x8C379A000000000000000000000000000000000000000000000000000000000 DUP2 MSTORE PUSH1 0x4 ADD PUSH2 0x1075 SWAP1 PUSH2 0x1792 JUMP JUMPDEST PUSH1 0x40 MLOAD DUP1 SWAP2 SUB SWAP1 REVERT JUMPDEST DUP1 PUSH1 0x1 PUSH1 0x0 PUSH2 0x100 EXP DUP2 SLOAD DUP2 PUSH20 0xFFFFFFFFFFFFFFFFFFFFFFFFFFFFFFFFFFFFFFFF MUL NOT AND SWAP1 DUP4 PUSH20 0xFFFFFFFFFFFFFFFFFFFFFFFFFFFFFFFFFFFFFFFF AND MUL OR SWAP1 SSTORE POP DUP1 PUSH20 0xFFFFFFFFFFFFFFFFFFFFFFFFFFFFFFFFFFFFFFFF AND PUSH1 0x0 DUP1 SLOAD SWAP1 PUSH2 0x100 EXP SWAP1 DIV PUSH20 0xFFFFFFFFFFFFFFFFFFFFFFFFFFFFFFFFFFFFFFFF AND PUSH20 0xFFFFFFFFFFFFFFFFFFFFFFFFFFFFFFFFFFFFFFFF AND PUSH32 0xED8889F560326EB138920D842192F0EB3DD22B4F139C87A2C57538E05BAE1278 PUSH1 0x40 MLOAD PUSH1 0x40 MLOAD DUP1 SWAP2 SUB SWAP1 LOG3 POP JUMP JUMPDEST DUP3 DUP1 SLOAD DUP3 DUP3 SSTORE SWAP1 PUSH1 0x0 MSTORE PUSH1 0x20 PUSH1 0x0 KECCAK256 SWAP1 DUP2 ADD SWAP3 DUP3 ISZERO PUSH2 0x1178 JUMPI SWAP2 PUSH1 0x20 MUL DUP3 ADD JUMPDEST DUP3 DUP2 GT ISZERO PUSH2 0x1177 JUMPI DUP3 MLOAD DUP3 SSTORE SWAP2 PUSH1 0x20 ADD SWAP2 SWAP1 PUSH1 0x1 ADD SWAP1 PUSH2 0x115C JUMP JUMPDEST JUMPDEST POP SWAP1 POP PUSH2 0x1185 SWAP2 SWAP1 PUSH2 0x1189 JUMP JUMPDEST POP SWAP1 JUMP JUMPDEST JUMPDEST DUP1 DUP3 GT ISZERO PUSH2 0x11A2 JUMPI PUSH1 0x0 DUP2 PUSH1 0x0 SWAP1 SSTORE POP PUSH1 0x1 ADD PUSH2 0x118A JUMP JUMPDEST POP SWAP1 JUMP JUMPDEST PUSH1 0x0 PUSH2 0x11B9 PUSH2 0x11B4 DUP5 PUSH2 0x184B JUMP JUMPDEST PUSH2 0x1826 JUMP JUMPDEST SWAP1 POP DUP1 DUP4 DUP3 MSTORE PUSH1 0x20 DUP3 ADD SWAP1 POP DUP3 DUP6 PUSH1 0x20 DUP7 MUL DUP3 ADD GT ISZERO PUSH2 0x11DC JUMPI PUSH2 0x11DB PUSH2 0x1B10 JUMP JUMPDEST JUMPDEST PUSH1 0x0 JUMPDEST DUP6 DUP2 LT ISZERO PUSH2 0x120C JUMPI DUP2 PUSH2 0x11F2 DUP9 DUP3 PUSH2 0x1259 JUMP JUMPDEST DUP5 MSTORE PUSH1 0x20 DUP5 ADD SWAP4 POP PUSH1 0x20 DUP4 ADD SWAP3 POP POP PUSH1 0x1 DUP2 ADD SWAP1 POP PUSH2 0x11DF JUMP JUMPDEST POP POP POP SWAP4 SWAP3 POP POP POP JUMP JUMPDEST PUSH1 0x0 DUP2 CALLDATALOAD SWAP1 POP PUSH2 0x1225 DUP2 PUSH2 0x1C78 JUMP JUMPDEST SWAP3 SWAP2 POP POP JUMP JUMPDEST PUSH1 0x0 DUP3 PUSH1 0x1F DUP4 ADD SLT PUSH2 0x1240 JUMPI PUSH2 0x123F PUSH2 0x1B0B JUMP JUMPDEST JUMPDEST DUP2 CALLDATALOAD PUSH2 0x1250 DUP5 DUP3 PUSH1 0x20 DUP7 ADD PUSH2 0x11A6 JUMP JUMPDEST SWAP2 POP POP SWAP3 SWAP2 POP POP JUMP JUMPDEST PUSH1 0x0 DUP2 CALLDATALOAD SWAP1 POP PUSH2 0x1268 DUP2 PUSH2 0x1C8F JUMP JUMPDEST SWAP3 SWAP2 POP POP JUMP JUMPDEST PUSH1 0x0 DUP2 MLOAD SWAP1 POP PUSH2 0x127D DUP2 PUSH2 0x1C8F JUMP JUMPDEST SWAP3 SWAP2 POP POP JUMP JUMPDEST PUSH1 0x0 PUSH1 0x20 DUP3 DUP5 SUB SLT ISZERO PUSH2 0x1299 JUMPI PUSH2 0x1298 PUSH2 0x1B1A JUMP JUMPDEST JUMPDEST PUSH1 0x0 PUSH2 0x12A7 DUP5 DUP3 DUP6 ADD PUSH2 0x1216 JUMP JUMPDEST SWAP2 POP POP SWAP3 SWAP2 POP POP JUMP JUMPDEST PUSH1 0x0 PUSH1 0x20 DUP3 DUP5 SUB SLT ISZERO PUSH2 0x12C6 JUMPI PUSH2 0x12C5 PUSH2 0x1B1A JUMP JUMPDEST JUMPDEST PUSH1 0x0 PUSH2 0x12D4 DUP5 DUP3 DUP6 ADD PUSH2 0x1259 JUMP JUMPDEST SWAP2 POP POP SWAP3 SWAP2 POP POP JUMP JUMPDEST PUSH1 0x0 PUSH1 0x20 DUP3 DUP5 SUB SLT ISZERO PUSH2 0x12F3 JUMPI PUSH2 0x12F2 PUSH2 0x1B1A JUMP JUMPDEST JUMPDEST PUSH1 0x0 PUSH2 0x1301 DUP5 DUP3 DUP6 ADD PUSH2 0x126E JUMP JUMPDEST SWAP2 POP POP SWAP3 SWAP2 POP POP JUMP JUMPDEST PUSH1 0x0 DUP1 PUSH1 0x40 DUP4 DUP6 SUB SLT ISZERO PUSH2 0x1321 JUMPI PUSH2 0x1320 PUSH2 0x1B1A JUMP JUMPDEST JUMPDEST PUSH1 0x0 PUSH2 0x132F DUP6 DUP3 DUP7 ADD PUSH2 0x1259 JUMP JUMPDEST SWAP3 POP POP PUSH1 0x20 DUP4 ADD CALLDATALOAD PUSH8 0xFFFFFFFFFFFFFFFF DUP2 GT ISZERO PUSH2 0x1350 JUMPI PUSH2 0x134F PUSH2 0x1B15 JUMP JUMPDEST JUMPDEST PUSH2 0x135C DUP6 DUP3 DUP7 ADD PUSH2 0x122B JUMP JUMPDEST SWAP2 POP POP SWAP3 POP SWAP3 SWAP1 POP JUMP JUMPDEST PUSH1 0x0 PUSH2 0x1372 DUP4 DUP4 PUSH2 0x153F JUMP JUMPDEST PUSH1 0x20 DUP4 ADD SWAP1 POP SWAP3 SWAP2 POP POP JUMP JUMPDEST PUSH2 0x1387 DUP2 PUSH2 0x1969 JUMP JUMPDEST DUP3 MSTORE POP POP JUMP JUMPDEST PUSH2 0x1396 DUP2 PUSH2 0x1957 JUMP JUMPDEST DUP3 MSTORE POP POP JUMP JUMPDEST PUSH1 0x0 PUSH2 0x13A7 DUP3 PUSH2 0x1887 JUMP JUMPDEST PUSH2 0x13B1 DUP2 DUP6 PUSH2 0x189F JUMP JUMPDEST SWAP4 POP PUSH2 0x13BC DUP4 PUSH2 0x1877 JUMP JUMPDEST DUP1 PUSH1 0x0 JUMPDEST DUP4 DUP2 LT ISZERO PUSH2 0x13ED JUMPI DUP2 MLOAD PUSH2 0x13D4 DUP9 DUP3 PUSH2 0x1366 JUMP JUMPDEST SWAP8 POP PUSH2 0x13DF DUP4 PUSH2 0x1892 JUMP JUMPDEST SWAP3 POP POP PUSH1 0x1 DUP2 ADD SWAP1 POP PUSH2 0x13C0 JUMP JUMPDEST POP DUP6 SWAP4 POP POP POP POP SWAP3 SWAP2 POP POP JUMP JUMPDEST PUSH2 0x1403 DUP2 PUSH2 0x197B JUMP JUMPDEST DUP3 MSTORE POP POP JUMP JUMPDEST PUSH2 0x1412 DUP2 PUSH2 0x1987 JUMP JUMPDEST DUP3 MSTORE POP POP JUMP JUMPDEST PUSH1 0x0 PUSH2 0x1425 PUSH1 0x11 DUP4 PUSH2 0x18BB JUMP JUMPDEST SWAP2 POP PUSH2 0x1430 DUP3 PUSH2 0x1B30 JUMP JUMPDEST PUSH1 0x20 DUP3 ADD SWAP1 POP SWAP2 SWAP1 POP JUMP JUMPDEST PUSH1 0x0 PUSH2 0x1448 PUSH1 0x16 DUP4 PUSH2 0x18BB JUMP JUMPDEST SWAP2 POP PUSH2 0x1453 DUP3 PUSH2 0x1B59 JUMP JUMPDEST PUSH1 0x20 DUP3 ADD SWAP1 POP SWAP2 SWAP1 POP JUMP JUMPDEST PUSH1 0x0 PUSH2 0x146B PUSH1 0x16 DUP4 PUSH2 0x18BB JUMP JUMPDEST SWAP2 POP PUSH2 0x1476 DUP3 PUSH2 0x1B82 JUMP JUMPDEST PUSH1 0x20 DUP3 ADD SWAP1 POP SWAP2 SWAP1 POP JUMP JUMPDEST PUSH1 0x0 PUSH2 0x148E PUSH1 0x1D DUP4 PUSH2 0x18BB JUMP JUMPDEST SWAP2 POP PUSH2 0x1499 DUP3 PUSH2 0x1BAB JUMP JUMPDEST PUSH1 0x20 DUP3 ADD SWAP1 POP SWAP2 SWAP1 POP JUMP JUMPDEST PUSH1 0x0 PUSH2 0x14B1 PUSH1 0x1C DUP4 PUSH2 0x18BB JUMP JUMPDEST SWAP2 POP PUSH2 0x14BC DUP3 PUSH2 0x1BD4 JUMP JUMPDEST PUSH1 0x20 DUP3 ADD SWAP1 POP SWAP2 SWAP1 POP JUMP JUMPDEST PUSH1 0x0 PUSH2 0x14D4 PUSH1 0x25 DUP4 PUSH2 0x18BB JUMP JUMPDEST SWAP2 POP PUSH2 0x14DF DUP3 PUSH2 0x1BFD JUMP JUMPDEST PUSH1 0x40 DUP3 ADD SWAP1 POP SWAP2 SWAP1 POP JUMP JUMPDEST PUSH1 0x0 PUSH2 0x14F7 PUSH1 0x0 DUP4 PUSH2 0x18B0 JUMP JUMPDEST SWAP2 POP PUSH2 0x1502 DUP3 PUSH2 0x1C4C JUMP JUMPDEST PUSH1 0x0 DUP3 ADD SWAP1 POP SWAP2 SWAP1 POP JUMP JUMPDEST PUSH1 0x0 PUSH2 0x151A PUSH1 0x17 DUP4 PUSH2 0x18BB JUMP JUMPDEST SWAP2 POP PUSH2 0x1525 DUP3 PUSH2 0x1C4F JUMP JUMPDEST PUSH1 0x20 DUP3 ADD SWAP1 POP SWAP2 SWAP1 POP JUMP JUMPDEST PUSH2 0x1539 DUP2 PUSH2 0x1991 JUMP JUMPDEST DUP3 MSTORE POP POP JUMP JUMPDEST PUSH2 0x1548 DUP2 PUSH2 0x19BF JUMP JUMPDEST DUP3 MSTORE POP POP JUMP JUMPDEST PUSH2 0x1557 DUP2 PUSH2 0x19BF JUMP JUMPDEST DUP3 MSTORE POP POP JUMP JUMPDEST PUSH2 0x1566 DUP2 PUSH2 0x19C9 JUMP JUMPDEST DUP3 MSTORE POP POP JUMP JUMPDEST PUSH2 0x1575 DUP2 PUSH2 0x19D9 JUMP JUMPDEST DUP3 MSTORE POP POP JUMP JUMPDEST PUSH1 0x0 PUSH2 0x1586 DUP3 PUSH2 0x14EA JUMP JUMPDEST SWAP2 POP DUP2 SWAP1 POP SWAP2 SWAP1 POP JUMP JUMPDEST PUSH1 0x0 PUSH1 0x20 DUP3 ADD SWAP1 POP PUSH2 0x15A5 PUSH1 0x0 DUP4 ADD DUP5 PUSH2 0x138D JUMP JUMPDEST SWAP3 SWAP2 POP POP JUMP JUMPDEST PUSH1 0x0 PUSH1 0x20 DUP3 ADD SWAP1 POP PUSH2 0x15C0 PUSH1 0x0 DUP4 ADD DUP5 PUSH2 0x137E JUMP JUMPDEST SWAP3 SWAP2 POP POP JUMP JUMPDEST PUSH1 0x0 PUSH1 0x60 DUP3 ADD SWAP1 POP PUSH2 0x15DB PUSH1 0x0 DUP4 ADD DUP7 PUSH2 0x137E JUMP JUMPDEST PUSH2 0x15E8 PUSH1 0x20 DUP4 ADD DUP6 PUSH2 0x154E JUMP JUMPDEST PUSH2 0x15F5 PUSH1 0x40 DUP4 ADD DUP5 PUSH2 0x154E JUMP JUMPDEST SWAP5 SWAP4 POP POP POP POP JUMP JUMPDEST PUSH1 0x0 PUSH1 0x40 DUP3 ADD SWAP1 POP PUSH2 0x1612 PUSH1 0x0 DUP4 ADD DUP6 PUSH2 0x138D JUMP JUMPDEST PUSH2 0x161F PUSH1 0x20 DUP4 ADD DUP5 PUSH2 0x138D JUMP JUMPDEST SWAP4 SWAP3 POP POP POP JUMP JUMPDEST PUSH1 0x0 PUSH1 0x40 DUP3 ADD SWAP1 POP PUSH2 0x163B PUSH1 0x0 DUP4 ADD DUP6 PUSH2 0x13FA JUMP JUMPDEST DUP2 DUP2 SUB PUSH1 0x20 DUP4 ADD MSTORE PUSH2 0x164D DUP2 DUP5 PUSH2 0x139C JUMP JUMPDEST SWAP1 POP SWAP4 SWAP3 POP POP POP JUMP JUMPDEST PUSH1 0x0 PUSH1 0x40 DUP3 ADD SWAP1 POP PUSH2 0x166B PUSH1 0x0 DUP4 ADD DUP6 PUSH2 0x13FA JUMP JUMPDEST PUSH2 0x1678 PUSH1 0x20 DUP4 ADD DUP5 PUSH2 0x13FA JUMP JUMPDEST SWAP4 SWAP3 POP POP POP JUMP JUMPDEST PUSH1 0x0 PUSH1 0xA0 DUP3 ADD SWAP1 POP PUSH2 0x1694 PUSH1 0x0 DUP4 ADD DUP9 PUSH2 0x1409 JUMP JUMPDEST PUSH2 0x16A1 PUSH1 0x20 DUP4 ADD DUP8 PUSH2 0x156C JUMP JUMPDEST PUSH2 0x16AE PUSH1 0x40 DUP4 ADD DUP7 PUSH2 0x1530 JUMP JUMPDEST PUSH2 0x16BB PUSH1 0x60 DUP4 ADD DUP6 PUSH2 0x155D JUMP JUMPDEST PUSH2 0x16C8 PUSH1 0x80 DUP4 ADD DUP5 PUSH2 0x155D JUMP JUMPDEST SWAP7 SWAP6 POP POP POP POP POP POP JUMP JUMPDEST PUSH1 0x0 PUSH1 0x20 DUP3 ADD SWAP1 POP DUP2 DUP2 SUB PUSH1 0x0 DUP4 ADD MSTORE PUSH2 0x16EB DUP2 PUSH2 0x1418 JUMP JUMPDEST SWAP1 POP SWAP2 SWAP1 POP JUMP JUMPDEST PUSH1 0x0 PUSH1 0x20 DUP3 ADD SWAP1 POP DUP2 DUP2 SUB PUSH1 0x0 DUP4 ADD MSTORE PUSH2 0x170B DUP2 PUSH2 0x143B JUMP JUMPDEST SWAP1 POP SWAP2 SWAP1 POP JUMP JUMPDEST PUSH1 0x0 PUSH1 0x20 DUP3 ADD SWAP1 POP DUP2 DUP2 SUB PUSH1 0x0 DUP4 ADD MSTORE PUSH2 0x172B DUP2 PUSH2 0x145E JUMP JUMPDEST SWAP1 POP SWAP2 SWAP1 POP JUMP JUMPDEST PUSH1 0x0 PUSH1 0x20 DUP3 ADD SWAP1 POP DUP2 DUP2 SUB PUSH1 0x0 DUP4 ADD MSTORE PUSH2 0x174B DUP2 PUSH2 0x1481 JUMP JUMPDEST SWAP1 POP SWAP2 SWAP1 POP JUMP JUMPDEST PUSH1 0x0 PUSH1 0x20 DUP3 ADD SWAP1 POP DUP2 DUP2 SUB PUSH1 0x0 DUP4 ADD MSTORE PUSH2 0x176B DUP2 PUSH2 0x14A4 JUMP JUMPDEST SWAP1 POP SWAP2 SWAP1 POP JUMP JUMPDEST PUSH1 0x0 PUSH1 0x20 DUP3 ADD SWAP1 POP DUP2 DUP2 SUB PUSH1 0x0 DUP4 ADD MSTORE PUSH2 0x178B DUP2 PUSH2 0x14C7 JUMP JUMPDEST SWAP1 POP SWAP2 SWAP1 POP JUMP JUMPDEST PUSH1 0x0 PUSH1 0x20 DUP3 ADD SWAP1 POP DUP2 DUP2 SUB PUSH1 0x0 DUP4 ADD MSTORE PUSH2 0x17AB DUP2 PUSH2 0x150D JUMP JUMPDEST SWAP1 POP SWAP2 SWAP1 POP JUMP JUMPDEST PUSH1 0x0 PUSH1 0x20 DUP3 ADD SWAP1 POP PUSH2 0x17C7 PUSH1 0x0 DUP4 ADD DUP5 PUSH2 0x154E JUMP JUMPDEST SWAP3 SWAP2 POP POP JUMP JUMPDEST PUSH1 0x0 PUSH1 0x40 DUP3 ADD SWAP1 POP PUSH2 0x17E2 PUSH1 0x0 DUP4 ADD DUP6 PUSH2 0x154E JUMP JUMPDEST DUP2 DUP2 SUB PUSH1 0x20 DUP4 ADD MSTORE PUSH2 0x17F4 DUP2 DUP5 PUSH2 0x139C JUMP JUMPDEST SWAP1 POP SWAP4 SWAP3 POP POP POP JUMP JUMPDEST PUSH1 0x0 PUSH1 0x40 DUP3 ADD SWAP1 POP PUSH2 0x1812 PUSH1 0x0 DUP4 ADD DUP6 PUSH2 0x154E JUMP JUMPDEST PUSH2 0x181F PUSH1 0x20 DUP4 ADD DUP5 PUSH2 0x155D JUMP JUMPDEST SWAP4 SWAP3 POP POP POP JUMP JUMPDEST PUSH1 0x0 PUSH2 0x1830 PUSH2 0x1841 JUMP JUMPDEST SWAP1 POP PUSH2 0x183C DUP3 DUP3 PUSH2 0x19ED JUMP JUMPDEST SWAP2 SWAP1 POP JUMP JUMPDEST PUSH1 0x0 PUSH1 0x40 MLOAD SWAP1 POP SWAP1 JUMP JUMPDEST PUSH1 0x0 PUSH8 0xFFFFFFFFFFFFFFFF DUP3 GT ISZERO PUSH2 0x1866 JUMPI PUSH2 0x1865 PUSH2 0x1ADC JUMP JUMPDEST JUMPDEST PUSH1 0x20 DUP3 MUL SWAP1 POP PUSH1 0x20 DUP2 ADD SWAP1 POP SWAP2 SWAP1 POP JUMP JUMPDEST PUSH1 0x0 DUP2 SWAP1 POP PUSH1 0x20 DUP3 ADD SWAP1 POP SWAP2 SWAP1 POP JUMP JUMPDEST PUSH1 0x0 DUP2 MLOAD SWAP1 POP SWAP2 SWAP1 POP JUMP JUMPDEST PUSH1 0x0 PUSH1 0x20 DUP3 ADD SWAP1 POP SWAP2 SWAP1 POP JUMP JUMPDEST PUSH1 0x0 DUP3 DUP3 MSTORE PUSH1 0x20 DUP3 ADD SWAP1 POP SWAP3 SWAP2 POP POP JUMP JUMPDEST PUSH1 0x0 DUP2 SWAP1 POP SWAP3 SWAP2 POP POP JUMP JUMPDEST PUSH1 0x0 DUP3 DUP3 MSTORE PUSH1 0x20 DUP3 ADD SWAP1 POP SWAP3 SWAP2 POP POP JUMP JUMPDEST PUSH1 0x0 PUSH2 0x18D7 DUP3 PUSH2 0x19BF JUMP JUMPDEST SWAP2 POP PUSH2 0x18E2 DUP4 PUSH2 0x19BF JUMP JUMPDEST SWAP3 POP DUP3 PUSH2 0x18F2 JUMPI PUSH2 0x18F1 PUSH2 0x1A7E JUMP JUMPDEST JUMPDEST DUP3 DUP3 DIV SWAP1 POP SWAP3 SWAP2 POP POP JUMP JUMPDEST PUSH1 0x0 PUSH2 0x1908 DUP3 PUSH2 0x19BF JUMP JUMPDEST SWAP2 POP PUSH2 0x1913 DUP4 PUSH2 0x19BF JUMP JUMPDEST SWAP3 POP DUP2 PUSH32 0xFFFFFFFFFFFFFFFFFFFFFFFFFFFFFFFFFFFFFFFFFFFFFFFFFFFFFFFFFFFFFFFF DIV DUP4 GT DUP3 ISZERO ISZERO AND ISZERO PUSH2 0x194C JUMPI PUSH2 0x194B PUSH2 0x1A4F JUMP JUMPDEST JUMPDEST DUP3 DUP3 MUL SWAP1 POP SWAP3 SWAP2 POP POP JUMP JUMPDEST PUSH1 0x0 PUSH2 0x1962 DUP3 PUSH2 0x199F JUMP JUMPDEST SWAP1 POP SWAP2 SWAP1 POP JUMP JUMPDEST PUSH1 0x0 PUSH2 0x1974 DUP3 PUSH2 0x199F JUMP JUMPDEST SWAP1 POP SWAP2 SWAP1 POP JUMP JUMPDEST PUSH1 0x0 DUP2 ISZERO ISZERO SWAP1 POP SWAP2 SWAP1 POP JUMP JUMPDEST PUSH1 0x0 DUP2 SWAP1 POP SWAP2 SWAP1 POP JUMP JUMPDEST PUSH1 0x0 PUSH2 0xFFFF DUP3 AND SWAP1 POP SWAP2 SWAP1 POP JUMP JUMPDEST PUSH1 0x0 PUSH20 0xFFFFFFFFFFFFFFFFFFFFFFFFFFFFFFFFFFFFFFFF DUP3 AND SWAP1 POP SWAP2 SWAP1 POP JUMP JUMPDEST PUSH1 0x0 DUP2 SWAP1 POP SWAP2 SWAP1 POP JUMP JUMPDEST PUSH1 0x0 PUSH4 0xFFFFFFFF DUP3 AND SWAP1 POP SWAP2 SWAP1 POP JUMP JUMPDEST PUSH1 0x0 PUSH8 0xFFFFFFFFFFFFFFFF DUP3 AND SWAP1 POP SWAP2 SWAP1 POP JUMP JUMPDEST PUSH2 0x19F6 DUP3 PUSH2 0x1B1F JUMP JUMPDEST DUP2 ADD DUP2 DUP2 LT PUSH8 0xFFFFFFFFFFFFFFFF DUP3 GT OR ISZERO PUSH2 0x1A15 JUMPI PUSH2 0x1A14 PUSH2 0x1ADC JUMP JUMPDEST JUMPDEST DUP1 PUSH1 0x40 MSTORE POP POP POP JUMP JUMPDEST PUSH1 0x0 PUSH2 0x1A29 DUP3 PUSH2 0x19BF JUMP JUMPDEST SWAP2 POP PUSH2 0x1A34 DUP4 PUSH2 0x19BF JUMP JUMPDEST SWAP3 POP DUP3 PUSH2 0x1A44 JUMPI PUSH2 0x1A43 PUSH2 0x1A7E JUMP JUMPDEST JUMPDEST DUP3 DUP3 MOD SWAP1 POP SWAP3 SWAP2 POP POP JUMP JUMPDEST PUSH32 0x4E487B7100000000000000000000000000000000000000000000000000000000 PUSH1 0x0 MSTORE PUSH1 0x11 PUSH1 0x4 MSTORE PUSH1 0x24 PUSH1 0x0 REVERT JUMPDEST PUSH32 0x4E487B7100000000000000000000000000000000000000000000000000000000 PUSH1 0x0 MSTORE PUSH1 0x12 PUSH1 0x4 MSTORE PUSH1 0x24 PUSH1 0x0 REVERT JUMPDEST PUSH32 0x4E487B7100000000000000000000000000000000000000000000000000000000 PUSH1 0x0 MSTORE PUSH1 0x32 PUSH1 0x4 MSTORE PUSH1 0x24 PUSH1 0x0 REVERT JUMPDEST PUSH32 0x4E487B7100000000000000000000000000000000000000000000000000000000 PUSH1 0x0 MSTORE PUSH1 0x41 PUSH1 0x4 MSTORE PUSH1 0x24 PUSH1 0x0 REVERT JUMPDEST PUSH1 0x0 DUP1 REVERT JUMPDEST PUSH1 0x0 DUP1 REVERT JUMPDEST PUSH1 0x0 DUP1 REVERT JUMPDEST PUSH1 0x0 DUP1 REVERT JUMPDEST PUSH1 0x0 PUSH1 0x1F NOT PUSH1 0x1F DUP4 ADD AND SWAP1 POP SWAP2 SWAP1 POP JUMP JUMPDEST PUSH32 0x72657175657374206E6F7420666F756E64000000000000000000000000000000 PUSH1 0x0 DUP3 ADD MSTORE POP JUMP JUMPDEST PUSH32 0x4D7573742062652070726F706F736564206F776E657200000000000000000000 PUSH1 0x0 DUP3 ADD MSTORE POP JUMP JUMPDEST PUSH32 0x4F6E6C792063616C6C61626C65206279206F776E657200000000000000000000 PUSH1 0x0 DUP3 ADD MSTORE POP JUMP JUMPDEST PUSH32 0x436173696E6F3A2057696E6E696E67207061796F7574206661696C6564000000 PUSH1 0x0 DUP3 ADD MSTORE POP JUMP JUMPDEST PUSH32 0x42657420616E792076616C7565206265747765656E203120746F203600000000 PUSH1 0x0 DUP3 ADD MSTORE POP JUMP JUMPDEST PUSH32 0x54686973206265742065786365656473206D6178696D756D20706F737369626C PUSH1 0x0 DUP3 ADD MSTORE PUSH32 0x6520626574000000000000000000000000000000000000000000000000000000 PUSH1 0x20 DUP3 ADD MSTORE POP JUMP JUMPDEST POP JUMP JUMPDEST PUSH32 0x43616E6E6F74207472616E7366657220746F2073656C66000000000000000000 PUSH1 0x0 DUP3 ADD MSTORE POP JUMP JUMPDEST PUSH2 0x1C81 DUP2 PUSH2 0x1957 JUMP JUMPDEST DUP2 EQ PUSH2 0x1C8C JUMPI PUSH1 0x0 DUP1 REVERT JUMPDEST POP JUMP JUMPDEST PUSH2 0x1C98 DUP2 PUSH2 0x19BF JUMP JUMPDEST DUP2 EQ PUSH2 0x1CA3 JUMPI PUSH1 0x0 DUP1 REVERT JUMPDEST POP JUMP INVALID LOG2 PUSH5 0x6970667358 0x22 SLT KECCAK256 0xE5 0xE6 CALLVALUE SWAP11 KECCAK256 SUB PC 0xC0 CALLVALUE MSTORE8 DUP4 CHAINID CODESIZE 0xBD 0xD5 BLOCKHASH EXTCODECOPY CALLDATASIZE LOG4 0xDF SELFBALANCE 0xB9 SAR 0x5C TIMESTAMP PUSH32 0x277B83BBD02B64736F6C63430008070033000000000000000000000000000000 "
				},
				"gasEstimates": {
					"creation": {
						"codeDepositCost": "1477600",
						"executionCost": "infinite",
						"totalCost": "infinite"
					},
					"external": {
						"acceptOwnership()": "54585",
						"addBalance()": "infinite",
						"betResult()": "2518",
						"casino()": "2587",
						"getRequestStatus(uint256)": "infinite",
						"lastRequestId()": "2539",
						"maxBet()": "2497",
						"maxBetRatio()": "2451",
						"owner()": "2611",
						"playGame(uint256)": "infinite",
						"rawFulfillRandomWords(uint256,uint256[])": "infinite",
						"records(uint256)": "infinite",
						"requestIds(uint256)": "infinite",
						"requestRandomWords()": "infinite",
						"s_requests(uint256)": "infinite",
						"transferOwnership(address)": "30745",
						"withdrawWei(uint256)": "infinite"
					},
					"internal": {
						"fulfillRandomWords(uint256,uint256[] memory)": "infinite"
					}
				},
				"methodIdentifiers": {
					"acceptOwnership()": "79ba5097",
					"addBalance()": "b163cc38",
					"betResult()": "bfb3047f",
					"casino()": "9403e8dd",
					"getRequestStatus(uint256)": "d8a4676f",
					"lastRequestId()": "fc2a88c3",
					"maxBet()": "2e5b2168",
					"maxBetRatio()": "c17bcdee",
					"owner()": "8da5cb5b",
					"playGame(uint256)": "5873533d",
					"rawFulfillRandomWords(uint256,uint256[])": "1fe543e3",
					"records(uint256)": "34461067",
					"requestIds(uint256)": "8796ba8c",
					"requestRandomWords()": "e0c86289",
					"s_requests(uint256)": "a168fa89",
					"transferOwnership(address)": "f2fde38b",
					"withdrawWei(uint256)": "0d6f8563"
				}
			},
			"storageLayout": {
				"storage": [
					{
						"astId": 27,
						"contract": "docs.chain.link/samples/VRF/VRFv2Consumer.sol:VRFv2Consumer",
						"label": "s_owner",
						"offset": 0,
						"slot": "0",
						"type": "t_address"
					},
					{
						"astId": 29,
						"contract": "docs.chain.link/samples/VRF/VRFv2Consumer.sol:VRFv2Consumer",
						"label": "s_pendingOwner",
						"offset": 0,
						"slot": "1",
						"type": "t_address"
					},
					{
						"astId": 387,
						"contract": "docs.chain.link/samples/VRF/VRFv2Consumer.sol:VRFv2Consumer",
						"label": "s_requests",
						"offset": 0,
						"slot": "2",
						"type": "t_mapping(t_uint256,t_struct(RequestStatus)382_storage)"
					},
					{
						"astId": 390,
						"contract": "docs.chain.link/samples/VRF/VRFv2Consumer.sol:VRFv2Consumer",
						"label": "COORDINATOR",
						"offset": 0,
						"slot": "3",
						"type": "t_contract(VRFCoordinatorV2Interface)351"
					},
					{
						"astId": 392,
						"contract": "docs.chain.link/samples/VRF/VRFv2Consumer.sol:VRFv2Consumer",
						"label": "s_subscriptionId",
						"offset": 20,
						"slot": "3",
						"type": "t_uint64"
					},
					{
						"astId": 395,
						"contract": "docs.chain.link/samples/VRF/VRFv2Consumer.sol:VRFv2Consumer",
						"label": "requestIds",
						"offset": 0,
						"slot": "4",
						"type": "t_array(t_uint256)dyn_storage"
					},
					{
						"astId": 397,
						"contract": "docs.chain.link/samples/VRF/VRFv2Consumer.sol:VRFv2Consumer",
						"label": "lastRequestId",
						"offset": 0,
						"slot": "5",
						"type": "t_uint256"
					},
					{
						"astId": 400,
						"contract": "docs.chain.link/samples/VRF/VRFv2Consumer.sol:VRFv2Consumer",
						"label": "keyHash",
						"offset": 0,
						"slot": "6",
						"type": "t_bytes32"
					},
					{
						"astId": 403,
						"contract": "docs.chain.link/samples/VRF/VRFv2Consumer.sol:VRFv2Consumer",
						"label": "callbackGasLimit",
						"offset": 0,
						"slot": "7",
						"type": "t_uint32"
					},
					{
						"astId": 406,
						"contract": "docs.chain.link/samples/VRF/VRFv2Consumer.sol:VRFv2Consumer",
						"label": "requestConfirmations",
						"offset": 4,
						"slot": "7",
						"type": "t_uint16"
					},
					{
						"astId": 409,
						"contract": "docs.chain.link/samples/VRF/VRFv2Consumer.sol:VRFv2Consumer",
						"label": "numWords",
						"offset": 6,
						"slot": "7",
						"type": "t_uint32"
					},
					{
						"astId": 411,
						"contract": "docs.chain.link/samples/VRF/VRFv2Consumer.sol:VRFv2Consumer",
						"label": "casino",
						"offset": 10,
						"slot": "7",
						"type": "t_address_payable"
					},
					{
						"astId": 423,
						"contract": "docs.chain.link/samples/VRF/VRFv2Consumer.sol:VRFv2Consumer",
						"label": "records",
						"offset": 0,
						"slot": "8",
						"type": "t_mapping(t_uint256,t_struct(Player)418_storage)"
					},
					{
						"astId": 425,
						"contract": "docs.chain.link/samples/VRF/VRFv2Consumer.sol:VRFv2Consumer",
						"label": "betResult",
						"offset": 0,
						"slot": "9",
						"type": "t_uint256"
					},
					{
						"astId": 428,
						"contract": "docs.chain.link/samples/VRF/VRFv2Consumer.sol:VRFv2Consumer",
						"label": "maxBet",
						"offset": 0,
						"slot": "10",
						"type": "t_uint256"
					},
					{
						"astId": 431,
						"contract": "docs.chain.link/samples/VRF/VRFv2Consumer.sol:VRFv2Consumer",
						"label": "maxBetRatio",
						"offset": 0,
						"slot": "11",
						"type": "t_uint256"
					}
				],
				"types": {
					"t_address": {
						"encoding": "inplace",
						"label": "address",
						"numberOfBytes": "20"
					},
					"t_address_payable": {
						"encoding": "inplace",
						"label": "address payable",
						"numberOfBytes": "20"
					},
					"t_array(t_uint256)dyn_storage": {
						"base": "t_uint256",
						"encoding": "dynamic_array",
						"label": "uint256[]",
						"numberOfBytes": "32"
					},
					"t_bool": {
						"encoding": "inplace",
						"label": "bool",
						"numberOfBytes": "1"
					},
					"t_bytes32": {
						"encoding": "inplace",
						"label": "bytes32",
						"numberOfBytes": "32"
					},
					"t_contract(VRFCoordinatorV2Interface)351": {
						"encoding": "inplace",
						"label": "contract VRFCoordinatorV2Interface",
						"numberOfBytes": "20"
					},
					"t_mapping(t_uint256,t_struct(Player)418_storage)": {
						"encoding": "mapping",
						"key": "t_uint256",
						"label": "mapping(uint256 => struct VRFv2Consumer.Player)",
						"numberOfBytes": "32",
						"value": "t_struct(Player)418_storage"
					},
					"t_mapping(t_uint256,t_struct(RequestStatus)382_storage)": {
						"encoding": "mapping",
						"key": "t_uint256",
						"label": "mapping(uint256 => struct VRFv2Consumer.RequestStatus)",
						"numberOfBytes": "32",
						"value": "t_struct(RequestStatus)382_storage"
					},
					"t_struct(Player)418_storage": {
						"encoding": "inplace",
						"label": "struct VRFv2Consumer.Player",
						"members": [
							{
								"astId": 413,
								"contract": "docs.chain.link/samples/VRF/VRFv2Consumer.sol:VRFv2Consumer",
								"label": "playerAddress",
								"offset": 0,
								"slot": "0",
								"type": "t_address_payable"
							},
							{
								"astId": 415,
								"contract": "docs.chain.link/samples/VRF/VRFv2Consumer.sol:VRFv2Consumer",
								"label": "betNumber",
								"offset": 0,
								"slot": "1",
								"type": "t_uint256"
							},
							{
								"astId": 417,
								"contract": "docs.chain.link/samples/VRF/VRFv2Consumer.sol:VRFv2Consumer",
								"label": "betAmount",
								"offset": 0,
								"slot": "2",
								"type": "t_uint256"
							}
						],
						"numberOfBytes": "96"
					},
					"t_struct(RequestStatus)382_storage": {
						"encoding": "inplace",
						"label": "struct VRFv2Consumer.RequestStatus",
						"members": [
							{
								"astId": 376,
								"contract": "docs.chain.link/samples/VRF/VRFv2Consumer.sol:VRFv2Consumer",
								"label": "fulfilled",
								"offset": 0,
								"slot": "0",
								"type": "t_bool"
							},
							{
								"astId": 378,
								"contract": "docs.chain.link/samples/VRF/VRFv2Consumer.sol:VRFv2Consumer",
								"label": "exists",
								"offset": 1,
								"slot": "0",
								"type": "t_bool"
							},
							{
								"astId": 381,
								"contract": "docs.chain.link/samples/VRF/VRFv2Consumer.sol:VRFv2Consumer",
								"label": "randomWords",
								"offset": 0,
								"slot": "1",
								"type": "t_array(t_uint256)dyn_storage"
							}
						],
						"numberOfBytes": "64"
					},
					"t_uint16": {
						"encoding": "inplace",
						"label": "uint16",
						"numberOfBytes": "2"
					},
					"t_uint256": {
						"encoding": "inplace",
						"label": "uint256",
						"numberOfBytes": "32"
					},
					"t_uint32": {
						"encoding": "inplace",
						"label": "uint32",
						"numberOfBytes": "4"
					},
					"t_uint64": {
						"encoding": "inplace",
						"label": "uint64",
						"numberOfBytes": "8"
					}
				}
			},
			"userdoc": {
				"kind": "user",
				"methods": {
					"acceptOwnership()": {
						"notice": "Allows an ownership transfer to be completed by the recipient."
					},
					"constructor": {
						"notice": "HARDCODED FOR GOERLI COORDINATOR: 0x2Ca8E0C643bDe4C2E08ab1fA0da3401AdAD7734D"
					},
					"owner()": {
						"notice": "Get the current owner"
					},
					"transferOwnership(address)": {
						"notice": "Allows an owner to begin transferring ownership to a new address, pending."
					}
				},
				"notice": "THIS IS AN EXAMPLE CONTRACT THAT USES HARDCODED VALUES FOR CLARITY. THIS IS AN EXAMPLE CONTRACT THAT USES UN-AUDITED CODE. DO NOT USE THIS CODE IN PRODUCTION.",
				"version": 1
			}
		}
	}
}